{
	"contracts/base_project/vote/Ballot.sol": {
		"Ballot": {
			"abi": [
				{
					"inputs": [
						{
							"internalType": "string[]",
							"name": "proposalNames",
							"type": "string[]"
						}
					],
					"stateMutability": "nonpayable",
					"type": "constructor"
				},
				{
					"anonymous": false,
					"inputs": [
						{
							"indexed": false,
							"internalType": "string",
							"name": "",
							"type": "string"
						}
					],
					"name": "voteSuccess",
					"type": "event"
				},
				{
					"inputs": [],
					"name": "chairperson",
					"outputs": [
						{
							"internalType": "address",
							"name": "",
							"type": "address"
						}
					],
					"stateMutability": "view",
					"type": "function"
				},
				{
					"inputs": [
						{
							"internalType": "address",
							"name": "to",
							"type": "address"
						}
					],
					"name": "delegate",
					"outputs": [],
					"stateMutability": "nonpayable",
					"type": "function"
				},
				{
					"inputs": [
						{
							"internalType": "address[]",
							"name": "voteAddressList",
							"type": "address[]"
						}
					],
					"name": "giveRightToVote",
					"outputs": [],
					"stateMutability": "nonpayable",
					"type": "function"
				},
				{
					"inputs": [],
					"name": "proposalList",
					"outputs": [
						{
							"components": [
								{
									"internalType": "string",
									"name": "name",
									"type": "string"
								},
								{
									"internalType": "uint256",
									"name": "voteCount",
									"type": "uint256"
								}
							],
							"internalType": "struct Ballot.Proposal[]",
							"name": "",
							"type": "tuple[]"
						}
					],
					"stateMutability": "view",
					"type": "function"
				},
				{
					"inputs": [
						{
							"internalType": "uint256",
							"name": "",
							"type": "uint256"
						}
					],
					"name": "proposals",
					"outputs": [
						{
							"internalType": "string",
							"name": "name",
							"type": "string"
						},
						{
							"internalType": "uint256",
							"name": "voteCount",
							"type": "uint256"
						}
					],
					"stateMutability": "view",
					"type": "function"
				},
				{
					"inputs": [
						{
							"internalType": "uint256",
							"name": "idx",
							"type": "uint256"
						}
					],
					"name": "vote",
					"outputs": [],
					"stateMutability": "nonpayable",
					"type": "function"
				},
				{
					"inputs": [
						{
							"internalType": "address",
							"name": "",
							"type": "address"
						}
					],
					"name": "voters",
					"outputs": [
						{
							"internalType": "uint256",
							"name": "weight",
							"type": "uint256"
						},
						{
							"internalType": "bool",
							"name": "voted",
							"type": "bool"
						},
						{
							"internalType": "address",
							"name": "delegate",
							"type": "address"
						},
						{
							"internalType": "uint256",
							"name": "vote",
							"type": "uint256"
						}
					],
					"stateMutability": "view",
					"type": "function"
				},
				{
					"inputs": [],
					"name": "winningProposal",
					"outputs": [
						{
							"internalType": "uint256",
							"name": "winningProposal_",
							"type": "uint256"
						}
					],
					"stateMutability": "view",
					"type": "function"
				}
			],
			"devdoc": {
				"kind": "dev",
				"methods": {},
				"version": 1
			},
			"evm": {
				"assembly": "    /* \"contracts/base_project/vote/Ballot.sol\":69:3491  contract Ballot {... */\n  mstore(0x40, 0x80)\n    /* \"contracts/base_project/vote/Ballot.sol\":733:1095  constructor(string[] memory proposalNames) {... */\n  callvalue\n  dup1\n  iszero\n  tag_1\n  jumpi\n  revert(0x00, 0x00)\ntag_1:\n  pop\n  mload(0x40)\n  sub(codesize, bytecodeSize)\n  dup1\n  bytecodeSize\n  dup4\n  codecopy\n  dup2\n  dup2\n  add\n  0x40\n  mstore\n  dup2\n  add\n  swap1\n  tag_2\n  swap2\n  swap1\n  tag_3\n  jump\t// in\ntag_2:\n    /* \"contracts/base_project/vote/Ballot.sol\":800:810  msg.sender */\n  caller\n    /* \"contracts/base_project/vote/Ballot.sol\":786:797  chairperson */\n  0x00\n  0x00\n    /* \"contracts/base_project/vote/Ballot.sol\":786:810  chairperson = msg.sender */\n  0x0100\n  exp\n  dup2\n  sload\n  dup2\n  0xffffffffffffffffffffffffffffffffffffffff\n  mul\n  not\n  and\n  swap1\n  dup4\n  0xffffffffffffffffffffffffffffffffffffffff\n  and\n  mul\n  or\n  swap1\n  sstore\n  pop\n    /* \"contracts/base_project/vote/Ballot.sol\":900:901  1 */\n  0x01\n    /* \"contracts/base_project/vote/Ballot.sol\":871:877  voters */\n  dup1\n    /* \"contracts/base_project/vote/Ballot.sol\":871:890  voters[chairperson] */\n  0x00\n    /* \"contracts/base_project/vote/Ballot.sol\":878:889  chairperson */\n  0x00\n  0x00\n  swap1\n  sload\n  swap1\n  0x0100\n  exp\n  swap1\n  div\n  0xffffffffffffffffffffffffffffffffffffffff\n  and\n    /* \"contracts/base_project/vote/Ballot.sol\":871:890  voters[chairperson] */\n  0xffffffffffffffffffffffffffffffffffffffff\n  and\n  0xffffffffffffffffffffffffffffffffffffffff\n  and\n  dup2\n  mstore\n  0x20\n  add\n  swap1\n  dup2\n  mstore\n  0x20\n  add\n  0x00\n  keccak256\n    /* \"contracts/base_project/vote/Ballot.sol\":871:897  voters[chairperson].weight */\n  0x00\n  add\n    /* \"contracts/base_project/vote/Ballot.sol\":871:901  voters[chairperson].weight = 1 */\n  dup2\n  swap1\n  sstore\n  pop\n    /* \"contracts/base_project/vote/Ballot.sol\":916:925  uint256 i */\n  0x00\n    /* \"contracts/base_project/vote/Ballot.sol\":928:929  0 */\n  0x00\n    /* \"contracts/base_project/vote/Ballot.sol\":916:929  uint256 i = 0 */\n  swap1\n  pop\n    /* \"contracts/base_project/vote/Ballot.sol\":911:1089  for (uint256 i = 0; i < proposalNames.length; i++) {... */\ntag_6:\n    /* \"contracts/base_project/vote/Ballot.sol\":935:948  proposalNames */\n  dup2\n    /* \"contracts/base_project/vote/Ballot.sol\":935:955  proposalNames.length */\n  mload\n    /* \"contracts/base_project/vote/Ballot.sol\":931:932  i */\n  dup2\n    /* \"contracts/base_project/vote/Ballot.sol\":931:955  i < proposalNames.length */\n  lt\n    /* \"contracts/base_project/vote/Ballot.sol\":911:1089  for (uint256 i = 0; i < proposalNames.length; i++) {... */\n  iszero\n  tag_7\n  jumpi\n    /* \"contracts/base_project/vote/Ballot.sol\":976:1004  Proposal memory proposalItem */\n  0x00\n    /* \"contracts/base_project/vote/Ballot.sol\":1007:1036  Proposal(proposalNames[i], 0) */\n  mload(0x40)\n  dup1\n  0x40\n  add\n  0x40\n  mstore\n  dup1\n    /* \"contracts/base_project/vote/Ballot.sol\":1016:1029  proposalNames */\n  dup5\n    /* \"contracts/base_project/vote/Ballot.sol\":1030:1031  i */\n  dup5\n    /* \"contracts/base_project/vote/Ballot.sol\":1016:1032  proposalNames[i] */\n  dup2\n  mload\n  dup2\n  lt\n  tag_9\n  jumpi\n  tag_10\n  tag_11\n  jump\t// in\ntag_10:\ntag_9:\n  0x20\n  mul\n  0x20\n  add\n  add\n  mload\n    /* \"contracts/base_project/vote/Ballot.sol\":1007:1036  Proposal(proposalNames[i], 0) */\n  dup2\n  mstore\n  0x20\n  add\n    /* \"contracts/base_project/vote/Ballot.sol\":1034:1035  0 */\n  0x00\n    /* \"contracts/base_project/vote/Ballot.sol\":1007:1036  Proposal(proposalNames[i], 0) */\n  dup2\n  mstore\n  pop\n    /* \"contracts/base_project/vote/Ballot.sol\":976:1036  Proposal memory proposalItem = Proposal(proposalNames[i], 0) */\n  swap1\n  pop\n    /* \"contracts/base_project/vote/Ballot.sol\":1050:1059  proposals */\n  0x02\n    /* \"contracts/base_project/vote/Ballot.sol\":1065:1077  proposalItem */\n  dup2\n    /* \"contracts/base_project/vote/Ballot.sol\":1050:1078  proposals.push(proposalItem) */\n  swap1\n  dup1\n  0x01\n  dup2\n  sload\n  add\n  dup1\n  dup3\n  sstore\n  dup1\n  swap2\n  pop\n  pop\n  0x01\n  swap1\n  sub\n  swap1\n  0x00\n  mstore\n  keccak256(0x00, 0x20)\n  swap1\n  0x02\n  mul\n  add\n  0x00\n  swap1\n  swap2\n  swap1\n  swap2\n  swap1\n  swap2\n  pop\n  0x00\n  dup3\n  add\n  mload\n  dup2\n  0x00\n  add\n  swap1\n  dup2\n  tag_13\n  swap2\n  swap1\n  tag_14\n  jump\t// in\ntag_13:\n  pop\n  0x20\n  dup3\n  add\n  mload\n  dup2\n  0x01\n  add\n  sstore\n  pop\n  pop\n    /* \"contracts/base_project/vote/Ballot.sol\":962:1089  {... */\n  pop\n    /* \"contracts/base_project/vote/Ballot.sol\":957:960  i++ */\n  dup1\n  dup1\n  0x01\n  add\n  swap2\n  pop\n  pop\n    /* \"contracts/base_project/vote/Ballot.sol\":911:1089  for (uint256 i = 0; i < proposalNames.length; i++) {... */\n  jump(tag_6)\ntag_7:\n  pop\n    /* \"contracts/base_project/vote/Ballot.sol\":733:1095  constructor(string[] memory proposalNames) {... */\n  pop\n    /* \"contracts/base_project/vote/Ballot.sol\":69:3491  contract Ballot {... */\n  jump(tag_15)\n    /* \"#utility.yul\":7:82   */\ntag_16:\n    /* \"#utility.yul\":40:46   */\n  0x00\n    /* \"#utility.yul\":73:75   */\n  0x40\n    /* \"#utility.yul\":67:76   */\n  mload\n    /* \"#utility.yul\":57:76   */\n  swap1\n  pop\n    /* \"#utility.yul\":7:82   */\n  swap1\n  jump\t// out\n    /* \"#utility.yul\":88:205   */\ntag_17:\n    /* \"#utility.yul\":197:198   */\n  0x00\n    /* \"#utility.yul\":194:195   */\n  0x00\n    /* \"#utility.yul\":187:199   */\n  revert\n    /* \"#utility.yul\":211:328   */\ntag_18:\n    /* \"#utility.yul\":320:321   */\n  0x00\n    /* \"#utility.yul\":317:318   */\n  0x00\n    /* \"#utility.yul\":310:322   */\n  revert\n    /* \"#utility.yul\":334:451   */\ntag_19:\n    /* \"#utility.yul\":443:444   */\n  0x00\n    /* \"#utility.yul\":440:441   */\n  0x00\n    /* \"#utility.yul\":433:445   */\n  revert\n    /* \"#utility.yul\":457:559   */\ntag_20:\n    /* \"#utility.yul\":498:504   */\n  0x00\n    /* \"#utility.yul\":549:551   */\n  0x1f\n    /* \"#utility.yul\":545:552   */\n  not\n    /* \"#utility.yul\":540:542   */\n  0x1f\n    /* \"#utility.yul\":533:538   */\n  dup4\n    /* \"#utility.yul\":529:543   */\n  add\n    /* \"#utility.yul\":525:553   */\n  and\n    /* \"#utility.yul\":515:553   */\n  swap1\n  pop\n    /* \"#utility.yul\":457:559   */\n  swap2\n  swap1\n  pop\n  jump\t// out\n    /* \"#utility.yul\":565:745   */\ntag_21:\n    /* \"#utility.yul\":613:690   */\n  0x4e487b7100000000000000000000000000000000000000000000000000000000\n    /* \"#utility.yul\":610:611   */\n  0x00\n    /* \"#utility.yul\":603:691   */\n  mstore\n    /* \"#utility.yul\":710:714   */\n  0x41\n    /* \"#utility.yul\":707:708   */\n  0x04\n    /* \"#utility.yul\":700:715   */\n  mstore\n    /* \"#utility.yul\":734:738   */\n  0x24\n    /* \"#utility.yul\":731:732   */\n  0x00\n    /* \"#utility.yul\":724:739   */\n  revert\n    /* \"#utility.yul\":751:1032   */\ntag_22:\n    /* \"#utility.yul\":834:861   */\n  tag_60\n    /* \"#utility.yul\":856:860   */\n  dup3\n    /* \"#utility.yul\":834:861   */\n  tag_20\n  jump\t// in\ntag_60:\n    /* \"#utility.yul\":826:832   */\n  dup2\n    /* \"#utility.yul\":822:862   */\n  add\n    /* \"#utility.yul\":964:970   */\n  dup2\n    /* \"#utility.yul\":952:962   */\n  dup2\n    /* \"#utility.yul\":949:971   */\n  lt\n    /* \"#utility.yul\":928:946   */\n  0xffffffffffffffff\n    /* \"#utility.yul\":916:926   */\n  dup3\n    /* \"#utility.yul\":913:947   */\n  gt\n    /* \"#utility.yul\":910:972   */\n  or\n    /* \"#utility.yul\":907:995   */\n  iszero\n  tag_61\n  jumpi\n    /* \"#utility.yul\":975:993   */\n  tag_62\n  tag_21\n  jump\t// in\ntag_62:\n    /* \"#utility.yul\":907:995   */\ntag_61:\n    /* \"#utility.yul\":1015:1025   */\n  dup1\n    /* \"#utility.yul\":1011:1013   */\n  0x40\n    /* \"#utility.yul\":1004:1026   */\n  mstore\n    /* \"#utility.yul\":794:1032   */\n  pop\n    /* \"#utility.yul\":751:1032   */\n  pop\n  pop\n  jump\t// out\n    /* \"#utility.yul\":1038:1167   */\ntag_23:\n    /* \"#utility.yul\":1072:1078   */\n  0x00\n    /* \"#utility.yul\":1099:1119   */\n  tag_64\n  tag_16\n  jump\t// in\ntag_64:\n    /* \"#utility.yul\":1089:1119   */\n  swap1\n  pop\n    /* \"#utility.yul\":1128:1161   */\n  tag_65\n    /* \"#utility.yul\":1156:1160   */\n  dup3\n    /* \"#utility.yul\":1148:1154   */\n  dup3\n    /* \"#utility.yul\":1128:1161   */\n  tag_22\n  jump\t// in\ntag_65:\n    /* \"#utility.yul\":1038:1167   */\n  swap2\n  swap1\n  pop\n  jump\t// out\n    /* \"#utility.yul\":1173:1494   */\ntag_24:\n    /* \"#utility.yul\":1260:1264   */\n  0x00\n    /* \"#utility.yul\":1350:1368   */\n  0xffffffffffffffff\n    /* \"#utility.yul\":1342:1348   */\n  dup3\n    /* \"#utility.yul\":1339:1369   */\n  gt\n    /* \"#utility.yul\":1336:1392   */\n  iszero\n  tag_67\n  jumpi\n    /* \"#utility.yul\":1372:1390   */\n  tag_68\n  tag_21\n  jump\t// in\ntag_68:\n    /* \"#utility.yul\":1336:1392   */\ntag_67:\n    /* \"#utility.yul\":1422:1426   */\n  0x20\n    /* \"#utility.yul\":1414:1420   */\n  dup3\n    /* \"#utility.yul\":1410:1427   */\n  mul\n    /* \"#utility.yul\":1402:1427   */\n  swap1\n  pop\n    /* \"#utility.yul\":1482:1486   */\n  0x20\n    /* \"#utility.yul\":1476:1480   */\n  dup2\n    /* \"#utility.yul\":1472:1487   */\n  add\n    /* \"#utility.yul\":1464:1487   */\n  swap1\n  pop\n    /* \"#utility.yul\":1173:1494   */\n  swap2\n  swap1\n  pop\n  jump\t// out\n    /* \"#utility.yul\":1500:1617   */\ntag_25:\n    /* \"#utility.yul\":1609:1610   */\n  0x00\n    /* \"#utility.yul\":1606:1607   */\n  0x00\n    /* \"#utility.yul\":1599:1611   */\n  revert\n    /* \"#utility.yul\":1623:1740   */\ntag_26:\n    /* \"#utility.yul\":1732:1733   */\n  0x00\n    /* \"#utility.yul\":1729:1730   */\n  0x00\n    /* \"#utility.yul\":1722:1734   */\n  revert\n    /* \"#utility.yul\":1746:2054   */\ntag_27:\n    /* \"#utility.yul\":1808:1812   */\n  0x00\n    /* \"#utility.yul\":1898:1916   */\n  0xffffffffffffffff\n    /* \"#utility.yul\":1890:1896   */\n  dup3\n    /* \"#utility.yul\":1887:1917   */\n  gt\n    /* \"#utility.yul\":1884:1940   */\n  iszero\n  tag_72\n  jumpi\n    /* \"#utility.yul\":1920:1938   */\n  tag_73\n  tag_21\n  jump\t// in\ntag_73:\n    /* \"#utility.yul\":1884:1940   */\ntag_72:\n    /* \"#utility.yul\":1958:1987   */\n  tag_74\n    /* \"#utility.yul\":1980:1986   */\n  dup3\n    /* \"#utility.yul\":1958:1987   */\n  tag_20\n  jump\t// in\ntag_74:\n    /* \"#utility.yul\":1950:1987   */\n  swap1\n  pop\n    /* \"#utility.yul\":2042:2046   */\n  0x20\n    /* \"#utility.yul\":2036:2040   */\n  dup2\n    /* \"#utility.yul\":2032:2047   */\n  add\n    /* \"#utility.yul\":2024:2047   */\n  swap1\n  pop\n    /* \"#utility.yul\":1746:2054   */\n  swap2\n  swap1\n  pop\n  jump\t// out\n    /* \"#utility.yul\":2060:2199   */\ntag_28:\n    /* \"#utility.yul\":2149:2155   */\n  dup3\n    /* \"#utility.yul\":2144:2147   */\n  dup2\n    /* \"#utility.yul\":2139:2142   */\n  dup4\n    /* \"#utility.yul\":2133:2156   */\n  mcopy\n    /* \"#utility.yul\":2190:2191   */\n  0x00\n    /* \"#utility.yul\":2181:2187   */\n  dup4\n    /* \"#utility.yul\":2176:2179   */\n  dup4\n    /* \"#utility.yul\":2172:2188   */\n  add\n    /* \"#utility.yul\":2165:2192   */\n  mstore\n    /* \"#utility.yul\":2060:2199   */\n  pop\n  pop\n  pop\n  jump\t// out\n    /* \"#utility.yul\":2205:2639   */\ntag_29:\n    /* \"#utility.yul\":2294:2299   */\n  0x00\n    /* \"#utility.yul\":2319:2385   */\n  tag_77\n    /* \"#utility.yul\":2335:2384   */\n  tag_78\n    /* \"#utility.yul\":2377:2383   */\n  dup5\n    /* \"#utility.yul\":2335:2384   */\n  tag_27\n  jump\t// in\ntag_78:\n    /* \"#utility.yul\":2319:2385   */\n  tag_23\n  jump\t// in\ntag_77:\n    /* \"#utility.yul\":2310:2385   */\n  swap1\n  pop\n    /* \"#utility.yul\":2408:2414   */\n  dup3\n    /* \"#utility.yul\":2401:2406   */\n  dup2\n    /* \"#utility.yul\":2394:2415   */\n  mstore\n    /* \"#utility.yul\":2446:2450   */\n  0x20\n    /* \"#utility.yul\":2439:2444   */\n  dup2\n    /* \"#utility.yul\":2435:2451   */\n  add\n    /* \"#utility.yul\":2484:2487   */\n  dup5\n    /* \"#utility.yul\":2475:2481   */\n  dup5\n    /* \"#utility.yul\":2470:2473   */\n  dup5\n    /* \"#utility.yul\":2466:2482   */\n  add\n    /* \"#utility.yul\":2463:2488   */\n  gt\n    /* \"#utility.yul\":2460:2572   */\n  iszero\n  tag_79\n  jumpi\n    /* \"#utility.yul\":2491:2570   */\n  tag_80\n  tag_26\n  jump\t// in\ntag_80:\n    /* \"#utility.yul\":2460:2572   */\ntag_79:\n    /* \"#utility.yul\":2581:2633   */\n  tag_81\n    /* \"#utility.yul\":2626:2632   */\n  dup5\n    /* \"#utility.yul\":2621:2624   */\n  dup3\n    /* \"#utility.yul\":2616:2619   */\n  dup6\n    /* \"#utility.yul\":2581:2633   */\n  tag_28\n  jump\t// in\ntag_81:\n    /* \"#utility.yul\":2300:2639   */\n  pop\n    /* \"#utility.yul\":2205:2639   */\n  swap4\n  swap3\n  pop\n  pop\n  pop\n  jump\t// out\n    /* \"#utility.yul\":2659:3014   */\ntag_30:\n    /* \"#utility.yul\":2726:2731   */\n  0x00\n    /* \"#utility.yul\":2775:2778   */\n  dup3\n    /* \"#utility.yul\":2768:2772   */\n  0x1f\n    /* \"#utility.yul\":2760:2766   */\n  dup4\n    /* \"#utility.yul\":2756:2773   */\n  add\n    /* \"#utility.yul\":2752:2779   */\n  slt\n    /* \"#utility.yul\":2742:2864   */\n  tag_83\n  jumpi\n    /* \"#utility.yul\":2783:2862   */\n  tag_84\n  tag_19\n  jump\t// in\ntag_84:\n    /* \"#utility.yul\":2742:2864   */\ntag_83:\n    /* \"#utility.yul\":2893:2899   */\n  dup2\n    /* \"#utility.yul\":2887:2900   */\n  mload\n    /* \"#utility.yul\":2918:3008   */\n  tag_85\n    /* \"#utility.yul\":3004:3007   */\n  dup5\n    /* \"#utility.yul\":2996:3002   */\n  dup3\n    /* \"#utility.yul\":2989:2993   */\n  0x20\n    /* \"#utility.yul\":2981:2987   */\n  dup7\n    /* \"#utility.yul\":2977:2994   */\n  add\n    /* \"#utility.yul\":2918:3008   */\n  tag_29\n  jump\t// in\ntag_85:\n    /* \"#utility.yul\":2909:3008   */\n  swap2\n  pop\n    /* \"#utility.yul\":2732:3014   */\n  pop\n    /* \"#utility.yul\":2659:3014   */\n  swap3\n  swap2\n  pop\n  pop\n  jump\t// out\n    /* \"#utility.yul\":3036:3996   */\ntag_31:\n    /* \"#utility.yul\":3153:3158   */\n  0x00\n    /* \"#utility.yul\":3178:3269   */\n  tag_87\n    /* \"#utility.yul\":3194:3268   */\n  tag_88\n    /* \"#utility.yul\":3261:3267   */\n  dup5\n    /* \"#utility.yul\":3194:3268   */\n  tag_24\n  jump\t// in\ntag_88:\n    /* \"#utility.yul\":3178:3269   */\n  tag_23\n  jump\t// in\ntag_87:\n    /* \"#utility.yul\":3169:3269   */\n  swap1\n  pop\n    /* \"#utility.yul\":3289:3294   */\n  dup1\n    /* \"#utility.yul\":3318:3324   */\n  dup4\n    /* \"#utility.yul\":3311:3316   */\n  dup3\n    /* \"#utility.yul\":3304:3325   */\n  mstore\n    /* \"#utility.yul\":3352:3356   */\n  0x20\n    /* \"#utility.yul\":3345:3350   */\n  dup3\n    /* \"#utility.yul\":3341:3357   */\n  add\n    /* \"#utility.yul\":3334:3357   */\n  swap1\n  pop\n    /* \"#utility.yul\":3405:3409   */\n  0x20\n    /* \"#utility.yul\":3397:3403   */\n  dup5\n    /* \"#utility.yul\":3393:3410   */\n  mul\n    /* \"#utility.yul\":3385:3391   */\n  dup4\n    /* \"#utility.yul\":3381:3411   */\n  add\n    /* \"#utility.yul\":3434:3437   */\n  dup6\n    /* \"#utility.yul\":3426:3432   */\n  dup2\n    /* \"#utility.yul\":3423:3438   */\n  gt\n    /* \"#utility.yul\":3420:3542   */\n  iszero\n  tag_89\n  jumpi\n    /* \"#utility.yul\":3453:3532   */\n  tag_90\n  tag_25\n  jump\t// in\ntag_90:\n    /* \"#utility.yul\":3420:3542   */\ntag_89:\n    /* \"#utility.yul\":3568:3574   */\n  dup4\n    /* \"#utility.yul\":3551:3990   */\ntag_91:\n    /* \"#utility.yul\":3585:3591   */\n  dup2\n    /* \"#utility.yul\":3580:3583   */\n  dup2\n    /* \"#utility.yul\":3577:3592   */\n  lt\n    /* \"#utility.yul\":3551:3990   */\n  iszero\n  tag_93\n  jumpi\n    /* \"#utility.yul\":3667:3670   */\n  dup1\n    /* \"#utility.yul\":3661:3671   */\n  mload\n    /* \"#utility.yul\":3703:3721   */\n  0xffffffffffffffff\n    /* \"#utility.yul\":3690:3701   */\n  dup2\n    /* \"#utility.yul\":3687:3722   */\n  gt\n    /* \"#utility.yul\":3684:3806   */\n  iszero\n  tag_94\n  jumpi\n    /* \"#utility.yul\":3725:3804   */\n  tag_95\n  tag_19\n  jump\t// in\ntag_95:\n    /* \"#utility.yul\":3684:3806   */\ntag_94:\n    /* \"#utility.yul\":3849:3860   */\n  dup1\n    /* \"#utility.yul\":3841:3847   */\n  dup7\n    /* \"#utility.yul\":3837:3861   */\n  add\n    /* \"#utility.yul\":3887:3945   */\n  tag_96\n    /* \"#utility.yul\":3941:3944   */\n  dup10\n    /* \"#utility.yul\":3929:3939   */\n  dup3\n    /* \"#utility.yul\":3887:3945   */\n  tag_30\n  jump\t// in\ntag_96:\n    /* \"#utility.yul\":3882:3885   */\n  dup6\n    /* \"#utility.yul\":3875:3946   */\n  mstore\n    /* \"#utility.yul\":3975:3979   */\n  0x20\n    /* \"#utility.yul\":3970:3973   */\n  dup6\n    /* \"#utility.yul\":3966:3980   */\n  add\n    /* \"#utility.yul\":3959:3980   */\n  swap5\n  pop\n    /* \"#utility.yul\":3627:3990   */\n  pop\n  pop\n    /* \"#utility.yul\":3611:3615   */\n  0x20\n    /* \"#utility.yul\":3606:3609   */\n  dup2\n    /* \"#utility.yul\":3602:3616   */\n  add\n    /* \"#utility.yul\":3595:3616   */\n  swap1\n  pop\n    /* \"#utility.yul\":3551:3990   */\n  jump(tag_91)\ntag_93:\n    /* \"#utility.yul\":3555:3576   */\n  pop\n    /* \"#utility.yul\":3159:3996   */\n  pop\n  pop\n    /* \"#utility.yul\":3036:3996   */\n  swap4\n  swap3\n  pop\n  pop\n  pop\n  jump\t// out\n    /* \"#utility.yul\":4018:4423   */\ntag_32:\n    /* \"#utility.yul\":4110:4115   */\n  0x00\n    /* \"#utility.yul\":4159:4162   */\n  dup3\n    /* \"#utility.yul\":4152:4156   */\n  0x1f\n    /* \"#utility.yul\":4144:4150   */\n  dup4\n    /* \"#utility.yul\":4140:4157   */\n  add\n    /* \"#utility.yul\":4136:4163   */\n  slt\n    /* \"#utility.yul\":4126:4248   */\n  tag_98\n  jumpi\n    /* \"#utility.yul\":4167:4246   */\n  tag_99\n  tag_19\n  jump\t// in\ntag_99:\n    /* \"#utility.yul\":4126:4248   */\ntag_98:\n    /* \"#utility.yul\":4277:4283   */\n  dup2\n    /* \"#utility.yul\":4271:4284   */\n  mload\n    /* \"#utility.yul\":4302:4417   */\n  tag_100\n    /* \"#utility.yul\":4413:4416   */\n  dup5\n    /* \"#utility.yul\":4405:4411   */\n  dup3\n    /* \"#utility.yul\":4398:4402   */\n  0x20\n    /* \"#utility.yul\":4390:4396   */\n  dup7\n    /* \"#utility.yul\":4386:4403   */\n  add\n    /* \"#utility.yul\":4302:4417   */\n  tag_31\n  jump\t// in\ntag_100:\n    /* \"#utility.yul\":4293:4417   */\n  swap2\n  pop\n    /* \"#utility.yul\":4116:4423   */\n  pop\n    /* \"#utility.yul\":4018:4423   */\n  swap3\n  swap2\n  pop\n  pop\n  jump\t// out\n    /* \"#utility.yul\":4429:5003   */\ntag_3:\n    /* \"#utility.yul\":4534:4540   */\n  0x00\n    /* \"#utility.yul\":4583:4585   */\n  0x20\n    /* \"#utility.yul\":4571:4580   */\n  dup3\n    /* \"#utility.yul\":4562:4569   */\n  dup5\n    /* \"#utility.yul\":4558:4581   */\n  sub\n    /* \"#utility.yul\":4554:4586   */\n  slt\n    /* \"#utility.yul\":4551:4670   */\n  iszero\n  tag_102\n  jumpi\n    /* \"#utility.yul\":4589:4668   */\n  tag_103\n  tag_17\n  jump\t// in\ntag_103:\n    /* \"#utility.yul\":4551:4670   */\ntag_102:\n    /* \"#utility.yul\":4730:4731   */\n  0x00\n    /* \"#utility.yul\":4719:4728   */\n  dup3\n    /* \"#utility.yul\":4715:4732   */\n  add\n    /* \"#utility.yul\":4709:4733   */\n  mload\n    /* \"#utility.yul\":4760:4778   */\n  0xffffffffffffffff\n    /* \"#utility.yul\":4752:4758   */\n  dup2\n    /* \"#utility.yul\":4749:4779   */\n  gt\n    /* \"#utility.yul\":4746:4863   */\n  iszero\n  tag_104\n  jumpi\n    /* \"#utility.yul\":4782:4861   */\n  tag_105\n  tag_18\n  jump\t// in\ntag_105:\n    /* \"#utility.yul\":4746:4863   */\ntag_104:\n    /* \"#utility.yul\":4887:4986   */\n  tag_106\n    /* \"#utility.yul\":4978:4985   */\n  dup5\n    /* \"#utility.yul\":4969:4975   */\n  dup3\n    /* \"#utility.yul\":4958:4967   */\n  dup6\n    /* \"#utility.yul\":4954:4976   */\n  add\n    /* \"#utility.yul\":4887:4986   */\n  tag_32\n  jump\t// in\ntag_106:\n    /* \"#utility.yul\":4877:4986   */\n  swap2\n  pop\n    /* \"#utility.yul\":4680:4996   */\n  pop\n    /* \"#utility.yul\":4429:5003   */\n  swap3\n  swap2\n  pop\n  pop\n  jump\t// out\n    /* \"#utility.yul\":5009:5189   */\ntag_11:\n    /* \"#utility.yul\":5057:5134   */\n  0x4e487b7100000000000000000000000000000000000000000000000000000000\n    /* \"#utility.yul\":5054:5055   */\n  0x00\n    /* \"#utility.yul\":5047:5135   */\n  mstore\n    /* \"#utility.yul\":5154:5158   */\n  0x32\n    /* \"#utility.yul\":5151:5152   */\n  0x04\n    /* \"#utility.yul\":5144:5159   */\n  mstore\n    /* \"#utility.yul\":5178:5182   */\n  0x24\n    /* \"#utility.yul\":5175:5176   */\n  0x00\n    /* \"#utility.yul\":5168:5183   */\n  revert\n    /* \"#utility.yul\":5195:5294   */\ntag_33:\n    /* \"#utility.yul\":5247:5253   */\n  0x00\n    /* \"#utility.yul\":5281:5286   */\n  dup2\n    /* \"#utility.yul\":5275:5287   */\n  mload\n    /* \"#utility.yul\":5265:5287   */\n  swap1\n  pop\n    /* \"#utility.yul\":5195:5294   */\n  swap2\n  swap1\n  pop\n  jump\t// out\n    /* \"#utility.yul\":5300:5480   */\ntag_34:\n    /* \"#utility.yul\":5348:5425   */\n  0x4e487b7100000000000000000000000000000000000000000000000000000000\n    /* \"#utility.yul\":5345:5346   */\n  0x00\n    /* \"#utility.yul\":5338:5426   */\n  mstore\n    /* \"#utility.yul\":5445:5449   */\n  0x22\n    /* \"#utility.yul\":5442:5443   */\n  0x04\n    /* \"#utility.yul\":5435:5450   */\n  mstore\n    /* \"#utility.yul\":5469:5473   */\n  0x24\n    /* \"#utility.yul\":5466:5467   */\n  0x00\n    /* \"#utility.yul\":5459:5474   */\n  revert\n    /* \"#utility.yul\":5486:5806   */\ntag_35:\n    /* \"#utility.yul\":5530:5536   */\n  0x00\n    /* \"#utility.yul\":5567:5568   */\n  0x02\n    /* \"#utility.yul\":5561:5565   */\n  dup3\n    /* \"#utility.yul\":5557:5569   */\n  div\n    /* \"#utility.yul\":5547:5569   */\n  swap1\n  pop\n    /* \"#utility.yul\":5614:5615   */\n  0x01\n    /* \"#utility.yul\":5608:5612   */\n  dup3\n    /* \"#utility.yul\":5604:5616   */\n  and\n    /* \"#utility.yul\":5635:5653   */\n  dup1\n    /* \"#utility.yul\":5625:5706   */\n  tag_111\n  jumpi\n    /* \"#utility.yul\":5691:5695   */\n  0x7f\n    /* \"#utility.yul\":5683:5689   */\n  dup3\n    /* \"#utility.yul\":5679:5696   */\n  and\n    /* \"#utility.yul\":5669:5696   */\n  swap2\n  pop\n    /* \"#utility.yul\":5625:5706   */\ntag_111:\n    /* \"#utility.yul\":5753:5755   */\n  0x20\n    /* \"#utility.yul\":5745:5751   */\n  dup3\n    /* \"#utility.yul\":5742:5756   */\n  lt\n    /* \"#utility.yul\":5722:5740   */\n  dup2\n    /* \"#utility.yul\":5719:5757   */\n  sub\n    /* \"#utility.yul\":5716:5800   */\n  tag_112\n  jumpi\n    /* \"#utility.yul\":5772:5790   */\n  tag_113\n  tag_34\n  jump\t// in\ntag_113:\n    /* \"#utility.yul\":5716:5800   */\ntag_112:\n    /* \"#utility.yul\":5537:5806   */\n  pop\n    /* \"#utility.yul\":5486:5806   */\n  swap2\n  swap1\n  pop\n  jump\t// out\n    /* \"#utility.yul\":5812:5953   */\ntag_36:\n    /* \"#utility.yul\":5861:5865   */\n  0x00\n    /* \"#utility.yul\":5884:5887   */\n  dup2\n    /* \"#utility.yul\":5876:5887   */\n  swap1\n  pop\n    /* \"#utility.yul\":5907:5910   */\n  dup2\n    /* \"#utility.yul\":5904:5905   */\n  0x00\n    /* \"#utility.yul\":5897:5911   */\n  mstore\n    /* \"#utility.yul\":5941:5945   */\n  0x20\n    /* \"#utility.yul\":5938:5939   */\n  0x00\n    /* \"#utility.yul\":5928:5946   */\n  keccak256\n    /* \"#utility.yul\":5920:5946   */\n  swap1\n  pop\n    /* \"#utility.yul\":5812:5953   */\n  swap2\n  swap1\n  pop\n  jump\t// out\n    /* \"#utility.yul\":5959:6052   */\ntag_37:\n    /* \"#utility.yul\":5996:6002   */\n  0x00\n    /* \"#utility.yul\":6043:6045   */\n  0x20\n    /* \"#utility.yul\":6038:6040   */\n  0x1f\n    /* \"#utility.yul\":6031:6036   */\n  dup4\n    /* \"#utility.yul\":6027:6041   */\n  add\n    /* \"#utility.yul\":6023:6046   */\n  div\n    /* \"#utility.yul\":6013:6046   */\n  swap1\n  pop\n    /* \"#utility.yul\":5959:6052   */\n  swap2\n  swap1\n  pop\n  jump\t// out\n    /* \"#utility.yul\":6058:6165   */\ntag_38:\n    /* \"#utility.yul\":6102:6110   */\n  0x00\n    /* \"#utility.yul\":6152:6157   */\n  dup3\n    /* \"#utility.yul\":6146:6150   */\n  dup3\n    /* \"#utility.yul\":6142:6158   */\n  shl\n    /* \"#utility.yul\":6121:6158   */\n  swap1\n  pop\n    /* \"#utility.yul\":6058:6165   */\n  swap3\n  swap2\n  pop\n  pop\n  jump\t// out\n    /* \"#utility.yul\":6171:6564   */\ntag_39:\n    /* \"#utility.yul\":6240:6246   */\n  0x00\n    /* \"#utility.yul\":6290:6291   */\n  0x08\n    /* \"#utility.yul\":6278:6288   */\n  dup4\n    /* \"#utility.yul\":6274:6292   */\n  mul\n    /* \"#utility.yul\":6313:6410   */\n  tag_118\n    /* \"#utility.yul\":6343:6409   */\n  0xffffffffffffffffffffffffffffffffffffffffffffffffffffffffffffffff\n    /* \"#utility.yul\":6332:6341   */\n  dup3\n    /* \"#utility.yul\":6313:6410   */\n  tag_38\n  jump\t// in\ntag_118:\n    /* \"#utility.yul\":6431:6470   */\n  tag_119\n    /* \"#utility.yul\":6461:6469   */\n  dup7\n    /* \"#utility.yul\":6450:6459   */\n  dup4\n    /* \"#utility.yul\":6431:6470   */\n  tag_38\n  jump\t// in\ntag_119:\n    /* \"#utility.yul\":6419:6470   */\n  swap6\n  pop\n    /* \"#utility.yul\":6503:6507   */\n  dup1\n    /* \"#utility.yul\":6499:6508   */\n  not\n    /* \"#utility.yul\":6492:6497   */\n  dup5\n    /* \"#utility.yul\":6488:6509   */\n  and\n    /* \"#utility.yul\":6479:6509   */\n  swap4\n  pop\n    /* \"#utility.yul\":6552:6556   */\n  dup1\n    /* \"#utility.yul\":6542:6550   */\n  dup7\n    /* \"#utility.yul\":6538:6557   */\n  and\n    /* \"#utility.yul\":6531:6536   */\n  dup5\n    /* \"#utility.yul\":6528:6558   */\n  or\n    /* \"#utility.yul\":6518:6558   */\n  swap3\n  pop\n    /* \"#utility.yul\":6247:6564   */\n  pop\n  pop\n    /* \"#utility.yul\":6171:6564   */\n  swap4\n  swap3\n  pop\n  pop\n  pop\n  jump\t// out\n    /* \"#utility.yul\":6570:6647   */\ntag_40:\n    /* \"#utility.yul\":6607:6614   */\n  0x00\n    /* \"#utility.yul\":6636:6641   */\n  dup2\n    /* \"#utility.yul\":6625:6641   */\n  swap1\n  pop\n    /* \"#utility.yul\":6570:6647   */\n  swap2\n  swap1\n  pop\n  jump\t// out\n    /* \"#utility.yul\":6653:6713   */\ntag_41:\n    /* \"#utility.yul\":6681:6684   */\n  0x00\n    /* \"#utility.yul\":6702:6707   */\n  dup2\n    /* \"#utility.yul\":6695:6707   */\n  swap1\n  pop\n    /* \"#utility.yul\":6653:6713   */\n  swap2\n  swap1\n  pop\n  jump\t// out\n    /* \"#utility.yul\":6719:6861   */\ntag_42:\n    /* \"#utility.yul\":6769:6778   */\n  0x00\n    /* \"#utility.yul\":6802:6855   */\n  tag_123\n    /* \"#utility.yul\":6820:6854   */\n  tag_124\n    /* \"#utility.yul\":6829:6853   */\n  tag_125\n    /* \"#utility.yul\":6847:6852   */\n  dup5\n    /* \"#utility.yul\":6829:6853   */\n  tag_40\n  jump\t// in\ntag_125:\n    /* \"#utility.yul\":6820:6854   */\n  tag_41\n  jump\t// in\ntag_124:\n    /* \"#utility.yul\":6802:6855   */\n  tag_40\n  jump\t// in\ntag_123:\n    /* \"#utility.yul\":6789:6855   */\n  swap1\n  pop\n    /* \"#utility.yul\":6719:6861   */\n  swap2\n  swap1\n  pop\n  jump\t// out\n    /* \"#utility.yul\":6867:6942   */\ntag_43:\n    /* \"#utility.yul\":6910:6913   */\n  0x00\n    /* \"#utility.yul\":6931:6936   */\n  dup2\n    /* \"#utility.yul\":6924:6936   */\n  swap1\n  pop\n    /* \"#utility.yul\":6867:6942   */\n  swap2\n  swap1\n  pop\n  jump\t// out\n    /* \"#utility.yul\":6948:7217   */\ntag_44:\n    /* \"#utility.yul\":7058:7097   */\n  tag_128\n    /* \"#utility.yul\":7089:7096   */\n  dup4\n    /* \"#utility.yul\":7058:7097   */\n  tag_42\n  jump\t// in\ntag_128:\n    /* \"#utility.yul\":7119:7210   */\n  tag_129\n    /* \"#utility.yul\":7168:7209   */\n  tag_130\n    /* \"#utility.yul\":7192:7208   */\n  dup3\n    /* \"#utility.yul\":7168:7209   */\n  tag_43\n  jump\t// in\ntag_130:\n    /* \"#utility.yul\":7160:7166   */\n  dup5\n    /* \"#utility.yul\":7153:7157   */\n  dup5\n    /* \"#utility.yul\":7147:7158   */\n  sload\n    /* \"#utility.yul\":7119:7210   */\n  tag_39\n  jump\t// in\ntag_129:\n    /* \"#utility.yul\":7113:7117   */\n  dup3\n    /* \"#utility.yul\":7106:7211   */\n  sstore\n    /* \"#utility.yul\":7024:7217   */\n  pop\n    /* \"#utility.yul\":6948:7217   */\n  pop\n  pop\n  pop\n  jump\t// out\n    /* \"#utility.yul\":7223:7296   */\ntag_45:\n    /* \"#utility.yul\":7268:7271   */\n  0x00\n    /* \"#utility.yul\":7289:7290   */\n  0x00\n    /* \"#utility.yul\":7282:7290   */\n  swap1\n  pop\n    /* \"#utility.yul\":7223:7296   */\n  swap1\n  jump\t// out\n    /* \"#utility.yul\":7302:7491   */\ntag_46:\n    /* \"#utility.yul\":7379:7411   */\n  tag_133\n  tag_45\n  jump\t// in\ntag_133:\n    /* \"#utility.yul\":7420:7485   */\n  tag_134\n    /* \"#utility.yul\":7478:7484   */\n  dup2\n    /* \"#utility.yul\":7470:7476   */\n  dup5\n    /* \"#utility.yul\":7464:7468   */\n  dup5\n    /* \"#utility.yul\":7420:7485   */\n  tag_44\n  jump\t// in\ntag_134:\n    /* \"#utility.yul\":7355:7491   */\n  pop\n    /* \"#utility.yul\":7302:7491   */\n  pop\n  pop\n  jump\t// out\n    /* \"#utility.yul\":7497:7683   */\ntag_47:\n    /* \"#utility.yul\":7557:7677   */\ntag_136:\n    /* \"#utility.yul\":7574:7577   */\n  dup2\n    /* \"#utility.yul\":7567:7572   */\n  dup2\n    /* \"#utility.yul\":7564:7578   */\n  lt\n    /* \"#utility.yul\":7557:7677   */\n  iszero\n  tag_138\n  jumpi\n    /* \"#utility.yul\":7628:7667   */\n  tag_139\n    /* \"#utility.yul\":7665:7666   */\n  0x00\n    /* \"#utility.yul\":7658:7663   */\n  dup3\n    /* \"#utility.yul\":7628:7667   */\n  tag_46\n  jump\t// in\ntag_139:\n    /* \"#utility.yul\":7601:7602   */\n  0x01\n    /* \"#utility.yul\":7594:7599   */\n  dup2\n    /* \"#utility.yul\":7590:7603   */\n  add\n    /* \"#utility.yul\":7581:7603   */\n  swap1\n  pop\n    /* \"#utility.yul\":7557:7677   */\n  jump(tag_136)\ntag_138:\n    /* \"#utility.yul\":7497:7683   */\n  pop\n  pop\n  jump\t// out\n    /* \"#utility.yul\":7689:8232   */\ntag_48:\n    /* \"#utility.yul\":7790:7792   */\n  0x1f\n    /* \"#utility.yul\":7785:7788   */\n  dup3\n    /* \"#utility.yul\":7782:7793   */\n  gt\n    /* \"#utility.yul\":7779:8225   */\n  iszero\n  tag_141\n  jumpi\n    /* \"#utility.yul\":7824:7862   */\n  tag_142\n    /* \"#utility.yul\":7856:7861   */\n  dup2\n    /* \"#utility.yul\":7824:7862   */\n  tag_36\n  jump\t// in\ntag_142:\n    /* \"#utility.yul\":7908:7937   */\n  tag_143\n    /* \"#utility.yul\":7926:7936   */\n  dup5\n    /* \"#utility.yul\":7908:7937   */\n  tag_37\n  jump\t// in\ntag_143:\n    /* \"#utility.yul\":7898:7906   */\n  dup2\n    /* \"#utility.yul\":7894:7938   */\n  add\n    /* \"#utility.yul\":8091:8093   */\n  0x20\n    /* \"#utility.yul\":8079:8089   */\n  dup6\n    /* \"#utility.yul\":8076:8094   */\n  lt\n    /* \"#utility.yul\":8073:8122   */\n  iszero\n  tag_144\n  jumpi\n    /* \"#utility.yul\":8112:8120   */\n  dup2\n    /* \"#utility.yul\":8097:8120   */\n  swap1\n  pop\n    /* \"#utility.yul\":8073:8122   */\ntag_144:\n    /* \"#utility.yul\":8135:8215   */\n  tag_145\n    /* \"#utility.yul\":8191:8213   */\n  tag_146\n    /* \"#utility.yul\":8209:8212   */\n  dup6\n    /* \"#utility.yul\":8191:8213   */\n  tag_37\n  jump\t// in\ntag_146:\n    /* \"#utility.yul\":8181:8189   */\n  dup4\n    /* \"#utility.yul\":8177:8214   */\n  add\n    /* \"#utility.yul\":8164:8175   */\n  dup3\n    /* \"#utility.yul\":8135:8215   */\n  tag_47\n  jump\t// in\ntag_145:\n    /* \"#utility.yul\":7794:8225   */\n  pop\n  pop\n    /* \"#utility.yul\":7779:8225   */\ntag_141:\n    /* \"#utility.yul\":7689:8232   */\n  pop\n  pop\n  pop\n  jump\t// out\n    /* \"#utility.yul\":8238:8355   */\ntag_49:\n    /* \"#utility.yul\":8292:8300   */\n  0x00\n    /* \"#utility.yul\":8342:8347   */\n  dup3\n    /* \"#utility.yul\":8336:8340   */\n  dup3\n    /* \"#utility.yul\":8332:8348   */\n  shr\n    /* \"#utility.yul\":8311:8348   */\n  swap1\n  pop\n    /* \"#utility.yul\":8238:8355   */\n  swap3\n  swap2\n  pop\n  pop\n  jump\t// out\n    /* \"#utility.yul\":8361:8530   */\ntag_50:\n    /* \"#utility.yul\":8405:8411   */\n  0x00\n    /* \"#utility.yul\":8438:8489   */\n  tag_149\n    /* \"#utility.yul\":8486:8487   */\n  0x00\n    /* \"#utility.yul\":8482:8488   */\n  not\n    /* \"#utility.yul\":8474:8479   */\n  dup5\n    /* \"#utility.yul\":8471:8472   */\n  0x08\n    /* \"#utility.yul\":8467:8480   */\n  mul\n    /* \"#utility.yul\":8438:8489   */\n  tag_49\n  jump\t// in\ntag_149:\n    /* \"#utility.yul\":8434:8490   */\n  not\n    /* \"#utility.yul\":8519:8523   */\n  dup1\n    /* \"#utility.yul\":8513:8517   */\n  dup4\n    /* \"#utility.yul\":8509:8524   */\n  and\n    /* \"#utility.yul\":8499:8524   */\n  swap2\n  pop\n    /* \"#utility.yul\":8412:8530   */\n  pop\n    /* \"#utility.yul\":8361:8530   */\n  swap3\n  swap2\n  pop\n  pop\n  jump\t// out\n    /* \"#utility.yul\":8535:8830   */\ntag_51:\n    /* \"#utility.yul\":8611:8615   */\n  0x00\n    /* \"#utility.yul\":8757:8786   */\n  tag_151\n    /* \"#utility.yul\":8782:8785   */\n  dup4\n    /* \"#utility.yul\":8776:8780   */\n  dup4\n    /* \"#utility.yul\":8757:8786   */\n  tag_50\n  jump\t// in\ntag_151:\n    /* \"#utility.yul\":8749:8786   */\n  swap2\n  pop\n    /* \"#utility.yul\":8819:8822   */\n  dup3\n    /* \"#utility.yul\":8816:8817   */\n  0x02\n    /* \"#utility.yul\":8812:8823   */\n  mul\n    /* \"#utility.yul\":8806:8810   */\n  dup3\n    /* \"#utility.yul\":8803:8824   */\n  or\n    /* \"#utility.yul\":8795:8824   */\n  swap1\n  pop\n    /* \"#utility.yul\":8535:8830   */\n  swap3\n  swap2\n  pop\n  pop\n  jump\t// out\n    /* \"#utility.yul\":8835:10230   */\ntag_14:\n    /* \"#utility.yul\":8952:8989   */\n  tag_153\n    /* \"#utility.yul\":8985:8988   */\n  dup3\n    /* \"#utility.yul\":8952:8989   */\n  tag_33\n  jump\t// in\ntag_153:\n    /* \"#utility.yul\":9054:9072   */\n  0xffffffffffffffff\n    /* \"#utility.yul\":9046:9052   */\n  dup2\n    /* \"#utility.yul\":9043:9073   */\n  gt\n    /* \"#utility.yul\":9040:9096   */\n  iszero\n  tag_154\n  jumpi\n    /* \"#utility.yul\":9076:9094   */\n  tag_155\n  tag_21\n  jump\t// in\ntag_155:\n    /* \"#utility.yul\":9040:9096   */\ntag_154:\n    /* \"#utility.yul\":9120:9158   */\n  tag_156\n    /* \"#utility.yul\":9152:9156   */\n  dup3\n    /* \"#utility.yul\":9146:9157   */\n  sload\n    /* \"#utility.yul\":9120:9158   */\n  tag_35\n  jump\t// in\ntag_156:\n    /* \"#utility.yul\":9205:9272   */\n  tag_157\n    /* \"#utility.yul\":9265:9271   */\n  dup3\n    /* \"#utility.yul\":9257:9263   */\n  dup3\n    /* \"#utility.yul\":9251:9255   */\n  dup6\n    /* \"#utility.yul\":9205:9272   */\n  tag_48\n  jump\t// in\ntag_157:\n    /* \"#utility.yul\":9299:9300   */\n  0x00\n    /* \"#utility.yul\":9323:9327   */\n  0x20\n    /* \"#utility.yul\":9310:9327   */\n  swap1\n  pop\n    /* \"#utility.yul\":9355:9357   */\n  0x1f\n    /* \"#utility.yul\":9347:9353   */\n  dup4\n    /* \"#utility.yul\":9344:9358   */\n  gt\n    /* \"#utility.yul\":9372:9373   */\n  0x01\n    /* \"#utility.yul\":9367:9985   */\n  dup2\n  eq\n  tag_159\n  jumpi\n    /* \"#utility.yul\":10029:10030   */\n  0x00\n    /* \"#utility.yul\":10046:10052   */\n  dup5\n    /* \"#utility.yul\":10043:10120   */\n  iszero\n  tag_160\n  jumpi\n    /* \"#utility.yul\":10095:10104   */\n  dup3\n    /* \"#utility.yul\":10090:10093   */\n  dup8\n    /* \"#utility.yul\":10086:10105   */\n  add\n    /* \"#utility.yul\":10080:10106   */\n  mload\n    /* \"#utility.yul\":10071:10106   */\n  swap1\n  pop\n    /* \"#utility.yul\":10043:10120   */\ntag_160:\n    /* \"#utility.yul\":10146:10213   */\n  tag_161\n    /* \"#utility.yul\":10206:10212   */\n  dup6\n    /* \"#utility.yul\":10199:10204   */\n  dup3\n    /* \"#utility.yul\":10146:10213   */\n  tag_51\n  jump\t// in\ntag_161:\n    /* \"#utility.yul\":10140:10144   */\n  dup7\n    /* \"#utility.yul\":10133:10214   */\n  sstore\n    /* \"#utility.yul\":10002:10224   */\n  pop\n    /* \"#utility.yul\":9337:10224   */\n  jump(tag_158)\n    /* \"#utility.yul\":9367:9985   */\ntag_159:\n    /* \"#utility.yul\":9419:9423   */\n  0x1f\n    /* \"#utility.yul\":9415:9424   */\n  not\n    /* \"#utility.yul\":9407:9413   */\n  dup5\n    /* \"#utility.yul\":9403:9425   */\n  and\n    /* \"#utility.yul\":9453:9490   */\n  tag_162\n    /* \"#utility.yul\":9485:9489   */\n  dup7\n    /* \"#utility.yul\":9453:9490   */\n  tag_36\n  jump\t// in\ntag_162:\n    /* \"#utility.yul\":9512:9513   */\n  0x00\n    /* \"#utility.yul\":9526:9734   */\ntag_163:\n    /* \"#utility.yul\":9540:9547   */\n  dup3\n    /* \"#utility.yul\":9537:9538   */\n  dup2\n    /* \"#utility.yul\":9534:9548   */\n  lt\n    /* \"#utility.yul\":9526:9734   */\n  iszero\n  tag_165\n  jumpi\n    /* \"#utility.yul\":9619:9628   */\n  dup5\n    /* \"#utility.yul\":9614:9617   */\n  dup10\n    /* \"#utility.yul\":9610:9629   */\n  add\n    /* \"#utility.yul\":9604:9630   */\n  mload\n    /* \"#utility.yul\":9596:9602   */\n  dup3\n    /* \"#utility.yul\":9589:9631   */\n  sstore\n    /* \"#utility.yul\":9670:9671   */\n  0x01\n    /* \"#utility.yul\":9662:9668   */\n  dup3\n    /* \"#utility.yul\":9658:9672   */\n  add\n    /* \"#utility.yul\":9648:9672   */\n  swap2\n  pop\n    /* \"#utility.yul\":9717:9719   */\n  0x20\n    /* \"#utility.yul\":9706:9715   */\n  dup6\n    /* \"#utility.yul\":9702:9720   */\n  add\n    /* \"#utility.yul\":9689:9720   */\n  swap5\n  pop\n    /* \"#utility.yul\":9563:9567   */\n  0x20\n    /* \"#utility.yul\":9560:9561   */\n  dup2\n    /* \"#utility.yul\":9556:9568   */\n  add\n    /* \"#utility.yul\":9551:9568   */\n  swap1\n  pop\n    /* \"#utility.yul\":9526:9734   */\n  jump(tag_163)\ntag_165:\n    /* \"#utility.yul\":9762:9768   */\n  dup7\n    /* \"#utility.yul\":9753:9760   */\n  dup4\n    /* \"#utility.yul\":9750:9769   */\n  lt\n    /* \"#utility.yul\":9747:9926   */\n  iszero\n  tag_166\n  jumpi\n    /* \"#utility.yul\":9820:9829   */\n  dup5\n    /* \"#utility.yul\":9815:9818   */\n  dup10\n    /* \"#utility.yul\":9811:9830   */\n  add\n    /* \"#utility.yul\":9805:9831   */\n  mload\n    /* \"#utility.yul\":9863:9911   */\n  tag_167\n    /* \"#utility.yul\":9905:9909   */\n  0x1f\n    /* \"#utility.yul\":9897:9903   */\n  dup10\n    /* \"#utility.yul\":9893:9910   */\n  and\n    /* \"#utility.yul\":9882:9891   */\n  dup3\n    /* \"#utility.yul\":9863:9911   */\n  tag_50\n  jump\t// in\ntag_167:\n    /* \"#utility.yul\":9855:9861   */\n  dup4\n    /* \"#utility.yul\":9848:9912   */\n  sstore\n    /* \"#utility.yul\":9770:9926   */\n  pop\n    /* \"#utility.yul\":9747:9926   */\ntag_166:\n    /* \"#utility.yul\":9972:9973   */\n  0x01\n    /* \"#utility.yul\":9968:9969   */\n  0x02\n    /* \"#utility.yul\":9960:9966   */\n  dup9\n    /* \"#utility.yul\":9956:9970   */\n  mul\n    /* \"#utility.yul\":9952:9974   */\n  add\n    /* \"#utility.yul\":9946:9950   */\n  dup9\n    /* \"#utility.yul\":9939:9975   */\n  sstore\n    /* \"#utility.yul\":9374:9985   */\n  pop\n  pop\n  pop\n    /* \"#utility.yul\":9337:10224   */\ntag_158:\n  pop\n    /* \"#utility.yul\":8927:10230   */\n  pop\n  pop\n  pop\n    /* \"#utility.yul\":8835:10230   */\n  pop\n  pop\n  jump\t// out\n    /* \"contracts/base_project/vote/Ballot.sol\":69:3491  contract Ballot {... */\ntag_15:\n  dataSize(sub_0)\n  dup1\n  dataOffset(sub_0)\n  0x00\n  codecopy\n  0x00\n  return\nstop\n\nsub_0: assembly {\n        /* \"contracts/base_project/vote/Ballot.sol\":69:3491  contract Ballot {... */\n      mstore(0x40, 0x80)\n      callvalue\n      dup1\n      iszero\n      tag_1\n      jumpi\n      revert(0x00, 0x00)\n    tag_1:\n      pop\n      jumpi(tag_2, lt(calldatasize, 0x04))\n      shr(0xe0, calldataload(0x00))\n      dup1\n      0x5c19a95c\n      gt\n      tag_11\n      jumpi\n      dup1\n      0x5c19a95c\n      eq\n      tag_7\n      jumpi\n      dup1\n      0x609ff1bd\n      eq\n      tag_8\n      jumpi\n      dup1\n      0x85816829\n      eq\n      tag_9\n      jumpi\n      dup1\n      0xa3ec138d\n      eq\n      tag_10\n      jumpi\n      jump(tag_2)\n    tag_11:\n      dup1\n      0x0121b93f\n      eq\n      tag_3\n      jumpi\n      dup1\n      0x013cf08b\n      eq\n      tag_4\n      jumpi\n      dup1\n      0x2e4176cf\n      eq\n      tag_5\n      jumpi\n      dup1\n      0x44389524\n      eq\n      tag_6\n      jumpi\n    tag_2:\n      revert(0x00, 0x00)\n        /* \"contracts/base_project/vote/Ballot.sol\":2731:3091  function vote(uint256 idx) public {... */\n    tag_3:\n      tag_12\n      0x04\n      dup1\n      calldatasize\n      sub\n      dup2\n      add\n      swap1\n      tag_13\n      swap2\n      swap1\n      tag_14\n      jump\t// in\n    tag_13:\n      tag_15\n      jump\t// in\n    tag_12:\n      stop\n        /* \"contracts/base_project/vote/Ballot.sol\":655:682  Proposal[] public proposals */\n    tag_4:\n      tag_16\n      0x04\n      dup1\n      calldatasize\n      sub\n      dup2\n      add\n      swap1\n      tag_17\n      swap2\n      swap1\n      tag_14\n      jump\t// in\n    tag_17:\n      tag_18\n      jump\t// in\n    tag_16:\n      mload(0x40)\n      tag_19\n      swap3\n      swap2\n      swap1\n      tag_20\n      jump\t// in\n    tag_19:\n      mload(0x40)\n      dup1\n      swap2\n      sub\n      swap1\n      return\n        /* \"contracts/base_project/vote/Ballot.sol\":528:554  address public chairperson */\n    tag_5:\n      tag_21\n      tag_22\n      jump\t// in\n    tag_21:\n      mload(0x40)\n      tag_23\n      swap2\n      swap1\n      tag_24\n      jump\t// in\n    tag_23:\n      mload(0x40)\n      dup1\n      swap2\n      sub\n      swap1\n      return\n        /* \"contracts/base_project/vote/Ballot.sol\":1131:1228  function proposalList() public view returns (Proposal[] memory) {... */\n    tag_6:\n      tag_25\n      tag_26\n      jump\t// in\n    tag_25:\n      mload(0x40)\n      tag_27\n      swap2\n      swap1\n      tag_28\n      jump\t// in\n    tag_27:\n      mload(0x40)\n      dup1\n      swap2\n      sub\n      swap1\n      return\n        /* \"contracts/base_project/vote/Ballot.sol\":1776:2710  function delegate(address to) public {... */\n    tag_7:\n      tag_29\n      0x04\n      dup1\n      calldatasize\n      sub\n      dup2\n      add\n      swap1\n      tag_30\n      swap2\n      swap1\n      tag_31\n      jump\t// in\n    tag_30:\n      tag_32\n      jump\t// in\n    tag_29:\n      stop\n        /* \"contracts/base_project/vote/Ballot.sol\":3124:3489  function winningProposal() public view... */\n    tag_8:\n      tag_33\n      tag_34\n      jump\t// in\n    tag_33:\n      mload(0x40)\n      tag_35\n      swap2\n      swap1\n      tag_36\n      jump\t// in\n    tag_35:\n      mload(0x40)\n      dup1\n      swap2\n      sub\n      swap1\n      return\n        /* \"contracts/base_project/vote/Ballot.sol\":1269:1735  function giveRightToVote(address[] memory voteAddressList) public {... */\n    tag_9:\n      tag_37\n      0x04\n      dup1\n      calldatasize\n      sub\n      dup2\n      add\n      swap1\n      tag_38\n      swap2\n      swap1\n      tag_39\n      jump\t// in\n    tag_38:\n      tag_40\n      jump\t// in\n    tag_37:\n      stop\n        /* \"contracts/base_project/vote/Ballot.sol\":590:629  mapping(address => Voter) public voters */\n    tag_10:\n      tag_41\n      0x04\n      dup1\n      calldatasize\n      sub\n      dup2\n      add\n      swap1\n      tag_42\n      swap2\n      swap1\n      tag_31\n      jump\t// in\n    tag_42:\n      tag_43\n      jump\t// in\n    tag_41:\n      mload(0x40)\n      tag_44\n      swap5\n      swap4\n      swap3\n      swap2\n      swap1\n      tag_45\n      jump\t// in\n    tag_44:\n      mload(0x40)\n      dup1\n      swap2\n      sub\n      swap1\n      return\n        /* \"contracts/base_project/vote/Ballot.sol\":2731:3091  function vote(uint256 idx) public {... */\n    tag_15:\n        /* \"contracts/base_project/vote/Ballot.sol\":2775:2795  Voter storage sender */\n      0x00\n        /* \"contracts/base_project/vote/Ballot.sol\":2798:2804  voters */\n      0x01\n        /* \"contracts/base_project/vote/Ballot.sol\":2798:2816  voters[msg.sender] */\n      0x00\n        /* \"contracts/base_project/vote/Ballot.sol\":2805:2815  msg.sender */\n      caller\n        /* \"contracts/base_project/vote/Ballot.sol\":2798:2816  voters[msg.sender] */\n      0xffffffffffffffffffffffffffffffffffffffff\n      and\n      0xffffffffffffffffffffffffffffffffffffffff\n      and\n      dup2\n      mstore\n      0x20\n      add\n      swap1\n      dup2\n      mstore\n      0x20\n      add\n      0x00\n      keccak256\n        /* \"contracts/base_project/vote/Ballot.sol\":2775:2816  Voter storage sender = voters[msg.sender] */\n      swap1\n      pop\n        /* \"contracts/base_project/vote/Ballot.sol\":2851:2852  0 */\n      0x00\n        /* \"contracts/base_project/vote/Ballot.sol\":2834:2840  sender */\n      dup2\n        /* \"contracts/base_project/vote/Ballot.sol\":2834:2847  sender.weight */\n      0x00\n      add\n      sload\n        /* \"contracts/base_project/vote/Ballot.sol\":2834:2852  sender.weight != 0 */\n      sub\n        /* \"contracts/base_project/vote/Ballot.sol\":2826:2877  require(sender.weight != 0, \"Has no right to vote\") */\n      tag_47\n      jumpi\n      mload(0x40)\n      0x08c379a000000000000000000000000000000000000000000000000000000000\n      dup2\n      mstore\n      0x04\n      add\n      tag_48\n      swap1\n      tag_49\n      jump\t// in\n    tag_48:\n      mload(0x40)\n      dup1\n      swap2\n      sub\n      swap1\n      revert\n    tag_47:\n        /* \"contracts/base_project/vote/Ballot.sol\":2896:2902  sender */\n      dup1\n        /* \"contracts/base_project/vote/Ballot.sol\":2896:2908  sender.voted */\n      0x01\n      add\n      0x00\n      swap1\n      sload\n      swap1\n      0x0100\n      exp\n      swap1\n      div\n      0xff\n      and\n        /* \"contracts/base_project/vote/Ballot.sol\":2895:2908  !sender.voted */\n      iszero\n        /* \"contracts/base_project/vote/Ballot.sol\":2887:2927  require(!sender.voted, \"Already voted.\") */\n      tag_50\n      jumpi\n      mload(0x40)\n      0x08c379a000000000000000000000000000000000000000000000000000000000\n      dup2\n      mstore\n      0x04\n      add\n      tag_51\n      swap1\n      tag_52\n      jump\t// in\n    tag_51:\n      mload(0x40)\n      dup1\n      swap2\n      sub\n      swap1\n      revert\n    tag_50:\n        /* \"contracts/base_project/vote/Ballot.sol\":2952:2956  true */\n      0x01\n        /* \"contracts/base_project/vote/Ballot.sol\":2937:2943  sender */\n      dup2\n        /* \"contracts/base_project/vote/Ballot.sol\":2937:2949  sender.voted */\n      0x01\n      add\n      0x00\n        /* \"contracts/base_project/vote/Ballot.sol\":2937:2956  sender.voted = true */\n      0x0100\n      exp\n      dup2\n      sload\n      dup2\n      0xff\n      mul\n      not\n      and\n      swap1\n      dup4\n      iszero\n      iszero\n      mul\n      or\n      swap1\n      sstore\n      pop\n        /* \"contracts/base_project/vote/Ballot.sol\":2980:2983  idx */\n      dup2\n        /* \"contracts/base_project/vote/Ballot.sol\":2966:2972  sender */\n      dup2\n        /* \"contracts/base_project/vote/Ballot.sol\":2966:2977  sender.vote */\n      0x02\n      add\n        /* \"contracts/base_project/vote/Ballot.sol\":2966:2983  sender.vote = idx */\n      dup2\n      swap1\n      sstore\n      pop\n        /* \"contracts/base_project/vote/Ballot.sol\":3021:3027  sender */\n      dup1\n        /* \"contracts/base_project/vote/Ballot.sol\":3021:3034  sender.weight */\n      0x00\n      add\n      sload\n        /* \"contracts/base_project/vote/Ballot.sol\":2993:3002  proposals */\n      0x02\n        /* \"contracts/base_project/vote/Ballot.sol\":3003:3006  idx */\n      dup4\n        /* \"contracts/base_project/vote/Ballot.sol\":2993:3007  proposals[idx] */\n      dup2\n      sload\n      dup2\n      lt\n      tag_53\n      jumpi\n      tag_54\n      tag_55\n      jump\t// in\n    tag_54:\n    tag_53:\n      swap1\n      0x00\n      mstore\n      keccak256(0x00, 0x20)\n      swap1\n      0x02\n      mul\n      add\n        /* \"contracts/base_project/vote/Ballot.sol\":2993:3017  proposals[idx].voteCount */\n      0x01\n      add\n      0x00\n        /* \"contracts/base_project/vote/Ballot.sol\":2993:3034  proposals[idx].voteCount += sender.weight */\n      dup3\n      dup3\n      sload\n      tag_57\n      swap2\n      swap1\n      tag_58\n      jump\t// in\n    tag_57:\n      swap3\n      pop\n      pop\n      dup2\n      swap1\n      sstore\n      pop\n        /* \"contracts/base_project/vote/Ballot.sol\":3050:3084  voteSuccess(unicode\"投票成功\") */\n      0x71811a05f98c0d6a3ee4d373e7d62d53422d5baf858d802816efce275df7d3fa\n      mload(0x40)\n      tag_59\n      swap1\n      tag_60\n      jump\t// in\n    tag_59:\n      mload(0x40)\n      dup1\n      swap2\n      sub\n      swap1\n      log1\n        /* \"contracts/base_project/vote/Ballot.sol\":2765:3091  {... */\n      pop\n        /* \"contracts/base_project/vote/Ballot.sol\":2731:3091  function vote(uint256 idx) public {... */\n      pop\n      jump\t// out\n        /* \"contracts/base_project/vote/Ballot.sol\":655:682  Proposal[] public proposals */\n    tag_18:\n      0x02\n      dup2\n      dup2\n      sload\n      dup2\n      lt\n      tag_61\n      jumpi\n      0x00\n      dup1\n      revert\n    tag_61:\n      swap1\n      0x00\n      mstore\n      keccak256(0x00, 0x20)\n      swap1\n      0x02\n      mul\n      add\n      0x00\n      swap2\n      pop\n      swap1\n      pop\n      dup1\n      0x00\n      add\n      dup1\n      sload\n      tag_63\n      swap1\n      tag_64\n      jump\t// in\n    tag_63:\n      dup1\n      0x1f\n      add\n      0x20\n      dup1\n      swap2\n      div\n      mul\n      0x20\n      add\n      mload(0x40)\n      swap1\n      dup2\n      add\n      0x40\n      mstore\n      dup1\n      swap3\n      swap2\n      swap1\n      dup2\n      dup2\n      mstore\n      0x20\n      add\n      dup3\n      dup1\n      sload\n      tag_65\n      swap1\n      tag_64\n      jump\t// in\n    tag_65:\n      dup1\n      iszero\n      tag_66\n      jumpi\n      dup1\n      0x1f\n      lt\n      tag_67\n      jumpi\n      0x0100\n      dup1\n      dup4\n      sload\n      div\n      mul\n      dup4\n      mstore\n      swap2\n      0x20\n      add\n      swap2\n      jump(tag_66)\n    tag_67:\n      dup3\n      add\n      swap2\n      swap1\n      0x00\n      mstore\n      keccak256(0x00, 0x20)\n      swap1\n    tag_68:\n      dup2\n      sload\n      dup2\n      mstore\n      swap1\n      0x01\n      add\n      swap1\n      0x20\n      add\n      dup1\n      dup4\n      gt\n      tag_68\n      jumpi\n      dup3\n      swap1\n      sub\n      0x1f\n      and\n      dup3\n      add\n      swap2\n    tag_66:\n      pop\n      pop\n      pop\n      pop\n      pop\n      swap1\n      dup1\n      0x01\n      add\n      sload\n      swap1\n      pop\n      dup3\n      jump\t// out\n        /* \"contracts/base_project/vote/Ballot.sol\":528:554  address public chairperson */\n    tag_22:\n      0x00\n      0x00\n      swap1\n      sload\n      swap1\n      0x0100\n      exp\n      swap1\n      div\n      0xffffffffffffffffffffffffffffffffffffffff\n      and\n      dup2\n      jump\t// out\n        /* \"contracts/base_project/vote/Ballot.sol\":1131:1228  function proposalList() public view returns (Proposal[] memory) {... */\n    tag_26:\n        /* \"contracts/base_project/vote/Ballot.sol\":1176:1193  Proposal[] memory */\n      0x60\n        /* \"contracts/base_project/vote/Ballot.sol\":1212:1221  proposals */\n      0x02\n        /* \"contracts/base_project/vote/Ballot.sol\":1205:1221  return proposals */\n      dup1\n      sload\n      dup1\n      0x20\n      mul\n      0x20\n      add\n      mload(0x40)\n      swap1\n      dup2\n      add\n      0x40\n      mstore\n      dup1\n      swap3\n      swap2\n      swap1\n      dup2\n      dup2\n      mstore\n      0x20\n      add\n      0x00\n      swap1\n    tag_70:\n      dup3\n      dup3\n      lt\n      iszero\n      tag_71\n      jumpi\n      dup4\n      dup3\n      swap1\n      0x00\n      mstore\n      keccak256(0x00, 0x20)\n      swap1\n      0x02\n      mul\n      add\n      mload(0x40)\n      dup1\n      0x40\n      add\n      0x40\n      mstore\n      swap1\n      dup2\n      0x00\n      dup3\n      add\n      dup1\n      sload\n      tag_73\n      swap1\n      tag_64\n      jump\t// in\n    tag_73:\n      dup1\n      0x1f\n      add\n      0x20\n      dup1\n      swap2\n      div\n      mul\n      0x20\n      add\n      mload(0x40)\n      swap1\n      dup2\n      add\n      0x40\n      mstore\n      dup1\n      swap3\n      swap2\n      swap1\n      dup2\n      dup2\n      mstore\n      0x20\n      add\n      dup3\n      dup1\n      sload\n      tag_74\n      swap1\n      tag_64\n      jump\t// in\n    tag_74:\n      dup1\n      iszero\n      tag_75\n      jumpi\n      dup1\n      0x1f\n      lt\n      tag_76\n      jumpi\n      0x0100\n      dup1\n      dup4\n      sload\n      div\n      mul\n      dup4\n      mstore\n      swap2\n      0x20\n      add\n      swap2\n      jump(tag_75)\n    tag_76:\n      dup3\n      add\n      swap2\n      swap1\n      0x00\n      mstore\n      keccak256(0x00, 0x20)\n      swap1\n    tag_77:\n      dup2\n      sload\n      dup2\n      mstore\n      swap1\n      0x01\n      add\n      swap1\n      0x20\n      add\n      dup1\n      dup4\n      gt\n      tag_77\n      jumpi\n      dup3\n      swap1\n      sub\n      0x1f\n      and\n      dup3\n      add\n      swap2\n    tag_75:\n      pop\n      pop\n      pop\n      pop\n      pop\n      dup2\n      mstore\n      0x20\n      add\n      0x01\n      dup3\n      add\n      sload\n      dup2\n      mstore\n      pop\n      pop\n      dup2\n      mstore\n      0x20\n      add\n      swap1\n      0x01\n      add\n      swap1\n      jump(tag_70)\n    tag_71:\n      pop\n      pop\n      pop\n      pop\n      swap1\n      pop\n        /* \"contracts/base_project/vote/Ballot.sol\":1131:1228  function proposalList() public view returns (Proposal[] memory) {... */\n      swap1\n      jump\t// out\n        /* \"contracts/base_project/vote/Ballot.sol\":1776:2710  function delegate(address to) public {... */\n    tag_32:\n        /* \"contracts/base_project/vote/Ballot.sol\":1857:1877  Voter storage sender */\n      0x00\n        /* \"contracts/base_project/vote/Ballot.sol\":1880:1886  voters */\n      0x01\n        /* \"contracts/base_project/vote/Ballot.sol\":1880:1898  voters[msg.sender] */\n      0x00\n        /* \"contracts/base_project/vote/Ballot.sol\":1887:1897  msg.sender */\n      caller\n        /* \"contracts/base_project/vote/Ballot.sol\":1880:1898  voters[msg.sender] */\n      0xffffffffffffffffffffffffffffffffffffffff\n      and\n      0xffffffffffffffffffffffffffffffffffffffff\n      and\n      dup2\n      mstore\n      0x20\n      add\n      swap1\n      dup2\n      mstore\n      0x20\n      add\n      0x00\n      keccak256\n        /* \"contracts/base_project/vote/Ballot.sol\":1857:1898  Voter storage sender = voters[msg.sender] */\n      swap1\n      pop\n        /* \"contracts/base_project/vote/Ballot.sol\":1917:1923  sender */\n      dup1\n        /* \"contracts/base_project/vote/Ballot.sol\":1917:1929  sender.voted */\n      0x01\n      add\n      0x00\n      swap1\n      sload\n      swap1\n      0x0100\n      exp\n      swap1\n      div\n      0xff\n      and\n        /* \"contracts/base_project/vote/Ballot.sol\":1916:1929  !sender.voted */\n      iszero\n        /* \"contracts/base_project/vote/Ballot.sol\":1908:1951  require(!sender.voted, \"you already voted\") */\n      tag_79\n      jumpi\n      mload(0x40)\n      0x08c379a000000000000000000000000000000000000000000000000000000000\n      dup2\n      mstore\n      0x04\n      add\n      tag_80\n      swap1\n      tag_81\n      jump\t// in\n    tag_80:\n      mload(0x40)\n      dup1\n      swap2\n      sub\n      swap1\n      revert\n    tag_79:\n        /* \"contracts/base_project/vote/Ballot.sol\":1983:1985  to */\n      dup2\n        /* \"contracts/base_project/vote/Ballot.sol\":1969:1985  msg.sender != to */\n      0xffffffffffffffffffffffffffffffffffffffff\n      and\n        /* \"contracts/base_project/vote/Ballot.sol\":1969:1979  msg.sender */\n      caller\n        /* \"contracts/base_project/vote/Ballot.sol\":1969:1985  msg.sender != to */\n      0xffffffffffffffffffffffffffffffffffffffff\n      and\n      sub\n        /* \"contracts/base_project/vote/Ballot.sol\":1961:2015  require(msg.sender != to, \"self delegate is no allow\") */\n      tag_82\n      jumpi\n      mload(0x40)\n      0x08c379a000000000000000000000000000000000000000000000000000000000\n      dup2\n      mstore\n      0x04\n      add\n      tag_83\n      swap1\n      tag_84\n      jump\t// in\n    tag_83:\n      mload(0x40)\n      dup1\n      swap2\n      sub\n      swap1\n      revert\n    tag_82:\n        /* \"contracts/base_project/vote/Ballot.sol\":2091:2262  while (voters[to].delegate != address(0)) {... */\n    tag_85:\n        /* \"contracts/base_project/vote/Ballot.sol\":2129:2130  0 */\n      0x00\n        /* \"contracts/base_project/vote/Ballot.sol\":2098:2131  voters[to].delegate != address(0) */\n      0xffffffffffffffffffffffffffffffffffffffff\n      and\n        /* \"contracts/base_project/vote/Ballot.sol\":2098:2104  voters */\n      0x01\n        /* \"contracts/base_project/vote/Ballot.sol\":2098:2108  voters[to] */\n      0x00\n        /* \"contracts/base_project/vote/Ballot.sol\":2105:2107  to */\n      dup5\n        /* \"contracts/base_project/vote/Ballot.sol\":2098:2108  voters[to] */\n      0xffffffffffffffffffffffffffffffffffffffff\n      and\n      0xffffffffffffffffffffffffffffffffffffffff\n      and\n      dup2\n      mstore\n      0x20\n      add\n      swap1\n      dup2\n      mstore\n      0x20\n      add\n      0x00\n      keccak256\n        /* \"contracts/base_project/vote/Ballot.sol\":2098:2117  voters[to].delegate */\n      0x01\n      add\n      0x01\n      swap1\n      sload\n      swap1\n      0x0100\n      exp\n      swap1\n      div\n      0xffffffffffffffffffffffffffffffffffffffff\n      and\n        /* \"contracts/base_project/vote/Ballot.sol\":2098:2131  voters[to].delegate != address(0) */\n      0xffffffffffffffffffffffffffffffffffffffff\n      and\n      eq\n        /* \"contracts/base_project/vote/Ballot.sol\":2091:2262  while (voters[to].delegate != address(0)) {... */\n      tag_86\n      jumpi\n        /* \"contracts/base_project/vote/Ballot.sol\":2167:2173  voters */\n      0x01\n        /* \"contracts/base_project/vote/Ballot.sol\":2167:2177  voters[to] */\n      0x00\n        /* \"contracts/base_project/vote/Ballot.sol\":2174:2176  to */\n      dup4\n        /* \"contracts/base_project/vote/Ballot.sol\":2167:2177  voters[to] */\n      0xffffffffffffffffffffffffffffffffffffffff\n      and\n      0xffffffffffffffffffffffffffffffffffffffff\n      and\n      dup2\n      mstore\n      0x20\n      add\n      swap1\n      dup2\n      mstore\n      0x20\n      add\n      0x00\n      keccak256\n        /* \"contracts/base_project/vote/Ballot.sol\":2167:2186  voters[to].delegate */\n      0x01\n      add\n      0x01\n      swap1\n      sload\n      swap1\n      0x0100\n      exp\n      swap1\n      div\n      0xffffffffffffffffffffffffffffffffffffffff\n      and\n        /* \"contracts/base_project/vote/Ballot.sol\":2162:2186  to = voters[to].delegate */\n      swap2\n      pop\n        /* \"contracts/base_project/vote/Ballot.sol\":2214:2224  msg.sender */\n      caller\n        /* \"contracts/base_project/vote/Ballot.sol\":2208:2224  to == msg.sender */\n      0xffffffffffffffffffffffffffffffffffffffff\n      and\n        /* \"contracts/base_project/vote/Ballot.sol\":2208:2210  to */\n      dup3\n        /* \"contracts/base_project/vote/Ballot.sol\":2208:2224  to == msg.sender */\n      0xffffffffffffffffffffffffffffffffffffffff\n      and\n      eq\n        /* \"contracts/base_project/vote/Ballot.sol\":2200:2251  require(to == msg.sender, \"Found loop in delegete\") */\n      tag_87\n      jumpi\n      mload(0x40)\n      0x08c379a000000000000000000000000000000000000000000000000000000000\n      dup2\n      mstore\n      0x04\n      add\n      tag_88\n      swap1\n      tag_89\n      jump\t// in\n    tag_88:\n      mload(0x40)\n      dup1\n      swap2\n      sub\n      swap1\n      revert\n    tag_87:\n        /* \"contracts/base_project/vote/Ballot.sol\":2091:2262  while (voters[to].delegate != address(0)) {... */\n      jump(tag_85)\n    tag_86:\n        /* \"contracts/base_project/vote/Ballot.sol\":2355:2359  true */\n      0x01\n        /* \"contracts/base_project/vote/Ballot.sol\":2340:2346  sender */\n      dup2\n        /* \"contracts/base_project/vote/Ballot.sol\":2340:2352  sender.voted */\n      0x01\n      add\n      0x00\n        /* \"contracts/base_project/vote/Ballot.sol\":2340:2359  sender.voted = true */\n      0x0100\n      exp\n      dup2\n      sload\n      dup2\n      0xff\n      mul\n      not\n      and\n      swap1\n      dup4\n      iszero\n      iszero\n      mul\n      or\n      swap1\n      sstore\n      pop\n        /* \"contracts/base_project/vote/Ballot.sol\":2387:2389  to */\n      dup2\n        /* \"contracts/base_project/vote/Ballot.sol\":2369:2375  sender */\n      dup2\n        /* \"contracts/base_project/vote/Ballot.sol\":2369:2384  sender.delegate */\n      0x01\n      add\n      0x01\n        /* \"contracts/base_project/vote/Ballot.sol\":2369:2389  sender.delegate = to */\n      0x0100\n      exp\n      dup2\n      sload\n      dup2\n      0xffffffffffffffffffffffffffffffffffffffff\n      mul\n      not\n      and\n      swap1\n      dup4\n      0xffffffffffffffffffffffffffffffffffffffff\n      and\n      mul\n      or\n      swap1\n      sstore\n      pop\n        /* \"contracts/base_project/vote/Ballot.sol\":2435:2458  Voter storage delegate_ */\n      0x00\n        /* \"contracts/base_project/vote/Ballot.sol\":2461:2467  voters */\n      0x01\n        /* \"contracts/base_project/vote/Ballot.sol\":2461:2471  voters[to] */\n      0x00\n        /* \"contracts/base_project/vote/Ballot.sol\":2468:2470  to */\n      dup5\n        /* \"contracts/base_project/vote/Ballot.sol\":2461:2471  voters[to] */\n      0xffffffffffffffffffffffffffffffffffffffff\n      and\n      0xffffffffffffffffffffffffffffffffffffffff\n      and\n      dup2\n      mstore\n      0x20\n      add\n      swap1\n      dup2\n      mstore\n      0x20\n      add\n      0x00\n      keccak256\n        /* \"contracts/base_project/vote/Ballot.sol\":2435:2471  Voter storage delegate_ = voters[to] */\n      swap1\n      pop\n        /* \"contracts/base_project/vote/Ballot.sol\":2485:2494  delegate_ */\n      dup1\n        /* \"contracts/base_project/vote/Ballot.sol\":2485:2500  delegate_.voted */\n      0x01\n      add\n      0x00\n      swap1\n      sload\n      swap1\n      0x0100\n      exp\n      swap1\n      div\n      0xff\n      and\n        /* \"contracts/base_project/vote/Ballot.sol\":2481:2704  if (delegate_.voted) {... */\n      iszero\n      tag_90\n      jumpi\n        /* \"contracts/base_project/vote/Ballot.sol\":2616:2622  sender */\n      dup2\n        /* \"contracts/base_project/vote/Ballot.sol\":2616:2629  sender.weight */\n      0x00\n      add\n      sload\n        /* \"contracts/base_project/vote/Ballot.sol\":2577:2586  proposals */\n      0x02\n        /* \"contracts/base_project/vote/Ballot.sol\":2587:2596  delegate_ */\n      dup3\n        /* \"contracts/base_project/vote/Ballot.sol\":2587:2601  delegate_.vote */\n      0x02\n      add\n      sload\n        /* \"contracts/base_project/vote/Ballot.sol\":2577:2602  proposals[delegate_.vote] */\n      dup2\n      sload\n      dup2\n      lt\n      tag_91\n      jumpi\n      tag_92\n      tag_55\n      jump\t// in\n    tag_92:\n    tag_91:\n      swap1\n      0x00\n      mstore\n      keccak256(0x00, 0x20)\n      swap1\n      0x02\n      mul\n      add\n        /* \"contracts/base_project/vote/Ballot.sol\":2577:2612  proposals[delegate_.vote].voteCount */\n      0x01\n      add\n      0x00\n        /* \"contracts/base_project/vote/Ballot.sol\":2577:2629  proposals[delegate_.vote].voteCount += sender.weight */\n      dup3\n      dup3\n      sload\n      tag_94\n      swap2\n      swap1\n      tag_58\n      jump\t// in\n    tag_94:\n      swap3\n      pop\n      pop\n      dup2\n      swap1\n      sstore\n      pop\n        /* \"contracts/base_project/vote/Ballot.sol\":2481:2704  if (delegate_.voted) {... */\n      jump(tag_95)\n    tag_90:\n        /* \"contracts/base_project/vote/Ballot.sol\":2680:2686  sender */\n      dup2\n        /* \"contracts/base_project/vote/Ballot.sol\":2680:2693  sender.weight */\n      0x00\n      add\n      sload\n        /* \"contracts/base_project/vote/Ballot.sol\":2660:2669  delegate_ */\n      dup2\n        /* \"contracts/base_project/vote/Ballot.sol\":2660:2676  delegate_.weight */\n      0x00\n      add\n      0x00\n        /* \"contracts/base_project/vote/Ballot.sol\":2660:2693  delegate_.weight += sender.weight */\n      dup3\n      dup3\n      sload\n      tag_96\n      swap2\n      swap1\n      tag_58\n      jump\t// in\n    tag_96:\n      swap3\n      pop\n      pop\n      dup2\n      swap1\n      sstore\n      pop\n        /* \"contracts/base_project/vote/Ballot.sol\":2481:2704  if (delegate_.voted) {... */\n    tag_95:\n        /* \"contracts/base_project/vote/Ballot.sol\":1813:2710  {... */\n      pop\n      pop\n        /* \"contracts/base_project/vote/Ballot.sol\":1776:2710  function delegate(address to) public {... */\n      pop\n      jump\t// out\n        /* \"contracts/base_project/vote/Ballot.sol\":3124:3489  function winningProposal() public view... */\n    tag_34:\n        /* \"contracts/base_project/vote/Ballot.sol\":3184:3205  uint winningProposal_ */\n      0x00\n        /* \"contracts/base_project/vote/Ballot.sol\":3221:3242  uint winningVoteCount */\n      0x00\n        /* \"contracts/base_project/vote/Ballot.sol\":3245:3246  0 */\n      0x00\n        /* \"contracts/base_project/vote/Ballot.sol\":3221:3246  uint winningVoteCount = 0 */\n      swap1\n      pop\n        /* \"contracts/base_project/vote/Ballot.sol\":3261:3267  uint p */\n      0x00\n        /* \"contracts/base_project/vote/Ballot.sol\":3270:3271  0 */\n      0x00\n        /* \"contracts/base_project/vote/Ballot.sol\":3261:3271  uint p = 0 */\n      swap1\n      pop\n        /* \"contracts/base_project/vote/Ballot.sol\":3256:3483  for (uint p = 0; p < proposals.length; p++) {... */\n    tag_98:\n        /* \"contracts/base_project/vote/Ballot.sol\":3277:3286  proposals */\n      0x02\n        /* \"contracts/base_project/vote/Ballot.sol\":3277:3293  proposals.length */\n      dup1\n      sload\n      swap1\n      pop\n        /* \"contracts/base_project/vote/Ballot.sol\":3273:3274  p */\n      dup2\n        /* \"contracts/base_project/vote/Ballot.sol\":3273:3293  p < proposals.length */\n      lt\n        /* \"contracts/base_project/vote/Ballot.sol\":3256:3483  for (uint p = 0; p < proposals.length; p++) {... */\n      iszero\n      tag_99\n      jumpi\n        /* \"contracts/base_project/vote/Ballot.sol\":3343:3359  winningVoteCount */\n      dup2\n        /* \"contracts/base_project/vote/Ballot.sol\":3318:3327  proposals */\n      0x02\n        /* \"contracts/base_project/vote/Ballot.sol\":3328:3329  p */\n      dup3\n        /* \"contracts/base_project/vote/Ballot.sol\":3318:3330  proposals[p] */\n      dup2\n      sload\n      dup2\n      lt\n      tag_101\n      jumpi\n      tag_102\n      tag_55\n      jump\t// in\n    tag_102:\n    tag_101:\n      swap1\n      0x00\n      mstore\n      keccak256(0x00, 0x20)\n      swap1\n      0x02\n      mul\n      add\n        /* \"contracts/base_project/vote/Ballot.sol\":3318:3340  proposals[p].voteCount */\n      0x01\n      add\n      sload\n        /* \"contracts/base_project/vote/Ballot.sol\":3318:3359  proposals[p].voteCount > winningVoteCount */\n      gt\n        /* \"contracts/base_project/vote/Ballot.sol\":3314:3473  if (proposals[p].voteCount > winningVoteCount) {... */\n      iszero\n      tag_104\n      jumpi\n        /* \"contracts/base_project/vote/Ballot.sol\":3398:3407  proposals */\n      0x02\n        /* \"contracts/base_project/vote/Ballot.sol\":3408:3409  p */\n      dup2\n        /* \"contracts/base_project/vote/Ballot.sol\":3398:3410  proposals[p] */\n      dup2\n      sload\n      dup2\n      lt\n      tag_105\n      jumpi\n      tag_106\n      tag_55\n      jump\t// in\n    tag_106:\n    tag_105:\n      swap1\n      0x00\n      mstore\n      keccak256(0x00, 0x20)\n      swap1\n      0x02\n      mul\n      add\n        /* \"contracts/base_project/vote/Ballot.sol\":3398:3420  proposals[p].voteCount */\n      0x01\n      add\n      sload\n        /* \"contracts/base_project/vote/Ballot.sol\":3379:3420  winningVoteCount = proposals[p].voteCount */\n      swap2\n      pop\n        /* \"contracts/base_project/vote/Ballot.sol\":3457:3458  p */\n      dup1\n        /* \"contracts/base_project/vote/Ballot.sol\":3438:3458  winningProposal_ = p */\n      swap3\n      pop\n        /* \"contracts/base_project/vote/Ballot.sol\":3314:3473  if (proposals[p].voteCount > winningVoteCount) {... */\n    tag_104:\n        /* \"contracts/base_project/vote/Ballot.sol\":3295:3298  p++ */\n      dup1\n      dup1\n      0x01\n      add\n      swap2\n      pop\n      pop\n        /* \"contracts/base_project/vote/Ballot.sol\":3256:3483  for (uint p = 0; p < proposals.length; p++) {... */\n      jump(tag_98)\n    tag_99:\n      pop\n        /* \"contracts/base_project/vote/Ballot.sol\":3211:3489  {... */\n      pop\n        /* \"contracts/base_project/vote/Ballot.sol\":3124:3489  function winningProposal() public view... */\n      swap1\n      jump\t// out\n        /* \"contracts/base_project/vote/Ballot.sol\":1269:1735  function giveRightToVote(address[] memory voteAddressList) public {... */\n    tag_40:\n        /* \"contracts/base_project/vote/Ballot.sol\":1412:1423  chairperson */\n      0x00\n      0x00\n      swap1\n      sload\n      swap1\n      0x0100\n      exp\n      swap1\n      div\n      0xffffffffffffffffffffffffffffffffffffffff\n      and\n        /* \"contracts/base_project/vote/Ballot.sol\":1398:1423  msg.sender == chairperson */\n      0xffffffffffffffffffffffffffffffffffffffff\n      and\n        /* \"contracts/base_project/vote/Ballot.sol\":1398:1408  msg.sender */\n      caller\n        /* \"contracts/base_project/vote/Ballot.sol\":1398:1423  msg.sender == chairperson */\n      0xffffffffffffffffffffffffffffffffffffffff\n      and\n      eq\n        /* \"contracts/base_project/vote/Ballot.sol\":1390:1452  require(msg.sender == chairperson, \"only ower can give right\") */\n      tag_109\n      jumpi\n      mload(0x40)\n      0x08c379a000000000000000000000000000000000000000000000000000000000\n      dup2\n      mstore\n      0x04\n      add\n      tag_110\n      swap1\n      tag_111\n      jump\t// in\n    tag_110:\n      mload(0x40)\n      dup1\n      swap2\n      sub\n      swap1\n      revert\n    tag_109:\n        /* \"contracts/base_project/vote/Ballot.sol\":1467:1476  uint256 i */\n      0x00\n        /* \"contracts/base_project/vote/Ballot.sol\":1479:1480  0 */\n      0x00\n        /* \"contracts/base_project/vote/Ballot.sol\":1467:1480  uint256 i = 0 */\n      swap1\n      pop\n        /* \"contracts/base_project/vote/Ballot.sol\":1462:1729  for (uint256 i = 0; i < voteAddressList.length; i++) {... */\n    tag_112:\n        /* \"contracts/base_project/vote/Ballot.sol\":1486:1501  voteAddressList */\n      dup2\n        /* \"contracts/base_project/vote/Ballot.sol\":1486:1508  voteAddressList.length */\n      mload\n        /* \"contracts/base_project/vote/Ballot.sol\":1482:1483  i */\n      dup2\n        /* \"contracts/base_project/vote/Ballot.sol\":1482:1508  i < voteAddressList.length */\n      lt\n        /* \"contracts/base_project/vote/Ballot.sol\":1462:1729  for (uint256 i = 0; i < voteAddressList.length; i++) {... */\n      iszero\n      tag_113\n      jumpi\n        /* \"contracts/base_project/vote/Ballot.sol\":1615:1621  voters */\n      0x01\n        /* \"contracts/base_project/vote/Ballot.sol\":1615:1641  voters[voteAddressList[i]] */\n      0x00\n        /* \"contracts/base_project/vote/Ballot.sol\":1622:1637  voteAddressList */\n      dup4\n        /* \"contracts/base_project/vote/Ballot.sol\":1638:1639  i */\n      dup4\n        /* \"contracts/base_project/vote/Ballot.sol\":1622:1640  voteAddressList[i] */\n      dup2\n      mload\n      dup2\n      lt\n      tag_115\n      jumpi\n      tag_116\n      tag_55\n      jump\t// in\n    tag_116:\n    tag_115:\n      0x20\n      mul\n      0x20\n      add\n      add\n      mload\n        /* \"contracts/base_project/vote/Ballot.sol\":1615:1641  voters[voteAddressList[i]] */\n      0xffffffffffffffffffffffffffffffffffffffff\n      and\n      0xffffffffffffffffffffffffffffffffffffffff\n      and\n      dup2\n      mstore\n      0x20\n      add\n      swap1\n      dup2\n      mstore\n      0x20\n      add\n      0x00\n      keccak256\n        /* \"contracts/base_project/vote/Ballot.sol\":1615:1647  voters[voteAddressList[i]].voted */\n      0x01\n      add\n      0x00\n      swap1\n      sload\n      swap1\n      0x0100\n      exp\n      swap1\n      div\n      0xff\n      and\n        /* \"contracts/base_project/vote/Ballot.sol\":1610:1719  if (!voters[voteAddressList[i]].voted) {... */\n      tag_117\n      jumpi\n        /* \"contracts/base_project/vote/Ballot.sol\":1703:1704  1 */\n      0x01\n        /* \"contracts/base_project/vote/Ballot.sol\":1667:1673  voters */\n      dup1\n        /* \"contracts/base_project/vote/Ballot.sol\":1667:1693  voters[voteAddressList[i]] */\n      0x00\n        /* \"contracts/base_project/vote/Ballot.sol\":1674:1689  voteAddressList */\n      dup5\n        /* \"contracts/base_project/vote/Ballot.sol\":1690:1691  i */\n      dup5\n        /* \"contracts/base_project/vote/Ballot.sol\":1674:1692  voteAddressList[i] */\n      dup2\n      mload\n      dup2\n      lt\n      tag_118\n      jumpi\n      tag_119\n      tag_55\n      jump\t// in\n    tag_119:\n    tag_118:\n      0x20\n      mul\n      0x20\n      add\n      add\n      mload\n        /* \"contracts/base_project/vote/Ballot.sol\":1667:1693  voters[voteAddressList[i]] */\n      0xffffffffffffffffffffffffffffffffffffffff\n      and\n      0xffffffffffffffffffffffffffffffffffffffff\n      and\n      dup2\n      mstore\n      0x20\n      add\n      swap1\n      dup2\n      mstore\n      0x20\n      add\n      0x00\n      keccak256\n        /* \"contracts/base_project/vote/Ballot.sol\":1667:1700  voters[voteAddressList[i]].weight */\n      0x00\n      add\n        /* \"contracts/base_project/vote/Ballot.sol\":1667:1704  voters[voteAddressList[i]].weight = 1 */\n      dup2\n      swap1\n      sstore\n      pop\n        /* \"contracts/base_project/vote/Ballot.sol\":1610:1719  if (!voters[voteAddressList[i]].voted) {... */\n    tag_117:\n        /* \"contracts/base_project/vote/Ballot.sol\":1510:1513  i++ */\n      dup1\n      dup1\n      0x01\n      add\n      swap2\n      pop\n      pop\n        /* \"contracts/base_project/vote/Ballot.sol\":1462:1729  for (uint256 i = 0; i < voteAddressList.length; i++) {... */\n      jump(tag_112)\n    tag_113:\n      pop\n        /* \"contracts/base_project/vote/Ballot.sol\":1269:1735  function giveRightToVote(address[] memory voteAddressList) public {... */\n      pop\n      jump\t// out\n        /* \"contracts/base_project/vote/Ballot.sol\":590:629  mapping(address => Voter) public voters */\n    tag_43:\n      mstore(0x20, 0x01)\n      dup1\n      0x00\n      mstore\n      keccak256(0x00, 0x40)\n      0x00\n      swap2\n      pop\n      swap1\n      pop\n      dup1\n      0x00\n      add\n      sload\n      swap1\n      dup1\n      0x01\n      add\n      0x00\n      swap1\n      sload\n      swap1\n      0x0100\n      exp\n      swap1\n      div\n      0xff\n      and\n      swap1\n      dup1\n      0x01\n      add\n      0x01\n      swap1\n      sload\n      swap1\n      0x0100\n      exp\n      swap1\n      div\n      0xffffffffffffffffffffffffffffffffffffffff\n      and\n      swap1\n      dup1\n      0x02\n      add\n      sload\n      swap1\n      pop\n      dup5\n      jump\t// out\n        /* \"#utility.yul\":7:82   */\n    tag_120:\n        /* \"#utility.yul\":40:46   */\n      0x00\n        /* \"#utility.yul\":73:75   */\n      0x40\n        /* \"#utility.yul\":67:76   */\n      mload\n        /* \"#utility.yul\":57:76   */\n      swap1\n      pop\n        /* \"#utility.yul\":7:82   */\n      swap1\n      jump\t// out\n        /* \"#utility.yul\":88:205   */\n    tag_121:\n        /* \"#utility.yul\":197:198   */\n      0x00\n        /* \"#utility.yul\":194:195   */\n      0x00\n        /* \"#utility.yul\":187:199   */\n      revert\n        /* \"#utility.yul\":211:328   */\n    tag_122:\n        /* \"#utility.yul\":320:321   */\n      0x00\n        /* \"#utility.yul\":317:318   */\n      0x00\n        /* \"#utility.yul\":310:322   */\n      revert\n        /* \"#utility.yul\":334:411   */\n    tag_123:\n        /* \"#utility.yul\":371:378   */\n      0x00\n        /* \"#utility.yul\":400:405   */\n      dup2\n        /* \"#utility.yul\":389:405   */\n      swap1\n      pop\n        /* \"#utility.yul\":334:411   */\n      swap2\n      swap1\n      pop\n      jump\t// out\n        /* \"#utility.yul\":417:539   */\n    tag_124:\n        /* \"#utility.yul\":490:514   */\n      tag_179\n        /* \"#utility.yul\":508:513   */\n      dup2\n        /* \"#utility.yul\":490:514   */\n      tag_123\n      jump\t// in\n    tag_179:\n        /* \"#utility.yul\":483:488   */\n      dup2\n        /* \"#utility.yul\":480:515   */\n      eq\n        /* \"#utility.yul\":470:533   */\n      tag_180\n      jumpi\n        /* \"#utility.yul\":529:530   */\n      0x00\n        /* \"#utility.yul\":526:527   */\n      0x00\n        /* \"#utility.yul\":519:531   */\n      revert\n        /* \"#utility.yul\":470:533   */\n    tag_180:\n        /* \"#utility.yul\":417:539   */\n      pop\n      jump\t// out\n        /* \"#utility.yul\":545:684   */\n    tag_125:\n        /* \"#utility.yul\":591:596   */\n      0x00\n        /* \"#utility.yul\":629:635   */\n      dup2\n        /* \"#utility.yul\":616:636   */\n      calldataload\n        /* \"#utility.yul\":607:636   */\n      swap1\n      pop\n        /* \"#utility.yul\":645:678   */\n      tag_182\n        /* \"#utility.yul\":672:677   */\n      dup2\n        /* \"#utility.yul\":645:678   */\n      tag_124\n      jump\t// in\n    tag_182:\n        /* \"#utility.yul\":545:684   */\n      swap3\n      swap2\n      pop\n      pop\n      jump\t// out\n        /* \"#utility.yul\":690:1019   */\n    tag_14:\n        /* \"#utility.yul\":749:755   */\n      0x00\n        /* \"#utility.yul\":798:800   */\n      0x20\n        /* \"#utility.yul\":786:795   */\n      dup3\n        /* \"#utility.yul\":777:784   */\n      dup5\n        /* \"#utility.yul\":773:796   */\n      sub\n        /* \"#utility.yul\":769:801   */\n      slt\n        /* \"#utility.yul\":766:885   */\n      iszero\n      tag_184\n      jumpi\n        /* \"#utility.yul\":804:883   */\n      tag_185\n      tag_121\n      jump\t// in\n    tag_185:\n        /* \"#utility.yul\":766:885   */\n    tag_184:\n        /* \"#utility.yul\":924:925   */\n      0x00\n        /* \"#utility.yul\":949:1002   */\n      tag_186\n        /* \"#utility.yul\":994:1001   */\n      dup5\n        /* \"#utility.yul\":985:991   */\n      dup3\n        /* \"#utility.yul\":974:983   */\n      dup6\n        /* \"#utility.yul\":970:992   */\n      add\n        /* \"#utility.yul\":949:1002   */\n      tag_125\n      jump\t// in\n    tag_186:\n        /* \"#utility.yul\":939:1002   */\n      swap2\n      pop\n        /* \"#utility.yul\":895:1012   */\n      pop\n        /* \"#utility.yul\":690:1019   */\n      swap3\n      swap2\n      pop\n      pop\n      jump\t// out\n        /* \"#utility.yul\":1025:1124   */\n    tag_126:\n        /* \"#utility.yul\":1077:1083   */\n      0x00\n        /* \"#utility.yul\":1111:1116   */\n      dup2\n        /* \"#utility.yul\":1105:1117   */\n      mload\n        /* \"#utility.yul\":1095:1117   */\n      swap1\n      pop\n        /* \"#utility.yul\":1025:1124   */\n      swap2\n      swap1\n      pop\n      jump\t// out\n        /* \"#utility.yul\":1130:1299   */\n    tag_127:\n        /* \"#utility.yul\":1214:1225   */\n      0x00\n        /* \"#utility.yul\":1248:1254   */\n      dup3\n        /* \"#utility.yul\":1243:1246   */\n      dup3\n        /* \"#utility.yul\":1236:1255   */\n      mstore\n        /* \"#utility.yul\":1288:1292   */\n      0x20\n        /* \"#utility.yul\":1283:1286   */\n      dup3\n        /* \"#utility.yul\":1279:1293   */\n      add\n        /* \"#utility.yul\":1264:1293   */\n      swap1\n      pop\n        /* \"#utility.yul\":1130:1299   */\n      swap3\n      swap2\n      pop\n      pop\n      jump\t// out\n        /* \"#utility.yul\":1305:1444   */\n    tag_128:\n        /* \"#utility.yul\":1394:1400   */\n      dup3\n        /* \"#utility.yul\":1389:1392   */\n      dup2\n        /* \"#utility.yul\":1384:1387   */\n      dup4\n        /* \"#utility.yul\":1378:1401   */\n      mcopy\n        /* \"#utility.yul\":1435:1436   */\n      0x00\n        /* \"#utility.yul\":1426:1432   */\n      dup4\n        /* \"#utility.yul\":1421:1424   */\n      dup4\n        /* \"#utility.yul\":1417:1433   */\n      add\n        /* \"#utility.yul\":1410:1437   */\n      mstore\n        /* \"#utility.yul\":1305:1444   */\n      pop\n      pop\n      pop\n      jump\t// out\n        /* \"#utility.yul\":1450:1552   */\n    tag_129:\n        /* \"#utility.yul\":1491:1497   */\n      0x00\n        /* \"#utility.yul\":1542:1544   */\n      0x1f\n        /* \"#utility.yul\":1538:1545   */\n      not\n        /* \"#utility.yul\":1533:1535   */\n      0x1f\n        /* \"#utility.yul\":1526:1531   */\n      dup4\n        /* \"#utility.yul\":1522:1536   */\n      add\n        /* \"#utility.yul\":1518:1546   */\n      and\n        /* \"#utility.yul\":1508:1546   */\n      swap1\n      pop\n        /* \"#utility.yul\":1450:1552   */\n      swap2\n      swap1\n      pop\n      jump\t// out\n        /* \"#utility.yul\":1558:1935   */\n    tag_130:\n        /* \"#utility.yul\":1646:1649   */\n      0x00\n        /* \"#utility.yul\":1674:1713   */\n      tag_192\n        /* \"#utility.yul\":1707:1712   */\n      dup3\n        /* \"#utility.yul\":1674:1713   */\n      tag_126\n      jump\t// in\n    tag_192:\n        /* \"#utility.yul\":1729:1800   */\n      tag_193\n        /* \"#utility.yul\":1793:1799   */\n      dup2\n        /* \"#utility.yul\":1788:1791   */\n      dup6\n        /* \"#utility.yul\":1729:1800   */\n      tag_127\n      jump\t// in\n    tag_193:\n        /* \"#utility.yul\":1722:1800   */\n      swap4\n      pop\n        /* \"#utility.yul\":1809:1874   */\n      tag_194\n        /* \"#utility.yul\":1867:1873   */\n      dup2\n        /* \"#utility.yul\":1862:1865   */\n      dup6\n        /* \"#utility.yul\":1855:1859   */\n      0x20\n        /* \"#utility.yul\":1848:1853   */\n      dup7\n        /* \"#utility.yul\":1844:1860   */\n      add\n        /* \"#utility.yul\":1809:1874   */\n      tag_128\n      jump\t// in\n    tag_194:\n        /* \"#utility.yul\":1899:1928   */\n      tag_195\n        /* \"#utility.yul\":1921:1927   */\n      dup2\n        /* \"#utility.yul\":1899:1928   */\n      tag_129\n      jump\t// in\n    tag_195:\n        /* \"#utility.yul\":1894:1897   */\n      dup5\n        /* \"#utility.yul\":1890:1929   */\n      add\n        /* \"#utility.yul\":1883:1929   */\n      swap2\n      pop\n        /* \"#utility.yul\":1650:1935   */\n      pop\n        /* \"#utility.yul\":1558:1935   */\n      swap3\n      swap2\n      pop\n      pop\n      jump\t// out\n        /* \"#utility.yul\":1941:2059   */\n    tag_131:\n        /* \"#utility.yul\":2028:2052   */\n      tag_197\n        /* \"#utility.yul\":2046:2051   */\n      dup2\n        /* \"#utility.yul\":2028:2052   */\n      tag_123\n      jump\t// in\n    tag_197:\n        /* \"#utility.yul\":2023:2026   */\n      dup3\n        /* \"#utility.yul\":2016:2053   */\n      mstore\n        /* \"#utility.yul\":1941:2059   */\n      pop\n      pop\n      jump\t// out\n        /* \"#utility.yul\":2065:2488   */\n    tag_20:\n        /* \"#utility.yul\":2206:2210   */\n      0x00\n        /* \"#utility.yul\":2244:2246   */\n      0x40\n        /* \"#utility.yul\":2233:2242   */\n      dup3\n        /* \"#utility.yul\":2229:2247   */\n      add\n        /* \"#utility.yul\":2221:2247   */\n      swap1\n      pop\n        /* \"#utility.yul\":2293:2302   */\n      dup2\n        /* \"#utility.yul\":2287:2291   */\n      dup2\n        /* \"#utility.yul\":2283:2303   */\n      sub\n        /* \"#utility.yul\":2279:2280   */\n      0x00\n        /* \"#utility.yul\":2268:2277   */\n      dup4\n        /* \"#utility.yul\":2264:2281   */\n      add\n        /* \"#utility.yul\":2257:2304   */\n      mstore\n        /* \"#utility.yul\":2321:2399   */\n      tag_199\n        /* \"#utility.yul\":2394:2398   */\n      dup2\n        /* \"#utility.yul\":2385:2391   */\n      dup6\n        /* \"#utility.yul\":2321:2399   */\n      tag_130\n      jump\t// in\n    tag_199:\n        /* \"#utility.yul\":2313:2399   */\n      swap1\n      pop\n        /* \"#utility.yul\":2409:2481   */\n      tag_200\n        /* \"#utility.yul\":2477:2479   */\n      0x20\n        /* \"#utility.yul\":2466:2475   */\n      dup4\n        /* \"#utility.yul\":2462:2480   */\n      add\n        /* \"#utility.yul\":2453:2459   */\n      dup5\n        /* \"#utility.yul\":2409:2481   */\n      tag_131\n      jump\t// in\n    tag_200:\n        /* \"#utility.yul\":2065:2488   */\n      swap4\n      swap3\n      pop\n      pop\n      pop\n      jump\t// out\n        /* \"#utility.yul\":2494:2620   */\n    tag_132:\n        /* \"#utility.yul\":2531:2538   */\n      0x00\n        /* \"#utility.yul\":2571:2613   */\n      0xffffffffffffffffffffffffffffffffffffffff\n        /* \"#utility.yul\":2564:2569   */\n      dup3\n        /* \"#utility.yul\":2560:2614   */\n      and\n        /* \"#utility.yul\":2549:2614   */\n      swap1\n      pop\n        /* \"#utility.yul\":2494:2620   */\n      swap2\n      swap1\n      pop\n      jump\t// out\n        /* \"#utility.yul\":2626:2722   */\n    tag_133:\n        /* \"#utility.yul\":2663:2670   */\n      0x00\n        /* \"#utility.yul\":2692:2716   */\n      tag_203\n        /* \"#utility.yul\":2710:2715   */\n      dup3\n        /* \"#utility.yul\":2692:2716   */\n      tag_132\n      jump\t// in\n    tag_203:\n        /* \"#utility.yul\":2681:2716   */\n      swap1\n      pop\n        /* \"#utility.yul\":2626:2722   */\n      swap2\n      swap1\n      pop\n      jump\t// out\n        /* \"#utility.yul\":2728:2846   */\n    tag_134:\n        /* \"#utility.yul\":2815:2839   */\n      tag_205\n        /* \"#utility.yul\":2833:2838   */\n      dup2\n        /* \"#utility.yul\":2815:2839   */\n      tag_133\n      jump\t// in\n    tag_205:\n        /* \"#utility.yul\":2810:2813   */\n      dup3\n        /* \"#utility.yul\":2803:2840   */\n      mstore\n        /* \"#utility.yul\":2728:2846   */\n      pop\n      pop\n      jump\t// out\n        /* \"#utility.yul\":2852:3074   */\n    tag_24:\n        /* \"#utility.yul\":2945:2949   */\n      0x00\n        /* \"#utility.yul\":2983:2985   */\n      0x20\n        /* \"#utility.yul\":2972:2981   */\n      dup3\n        /* \"#utility.yul\":2968:2986   */\n      add\n        /* \"#utility.yul\":2960:2986   */\n      swap1\n      pop\n        /* \"#utility.yul\":2996:3067   */\n      tag_207\n        /* \"#utility.yul\":3064:3065   */\n      0x00\n        /* \"#utility.yul\":3053:3062   */\n      dup4\n        /* \"#utility.yul\":3049:3066   */\n      add\n        /* \"#utility.yul\":3040:3046   */\n      dup5\n        /* \"#utility.yul\":2996:3067   */\n      tag_134\n      jump\t// in\n    tag_207:\n        /* \"#utility.yul\":2852:3074   */\n      swap3\n      swap2\n      pop\n      pop\n      jump\t// out\n        /* \"#utility.yul\":3080:3218   */\n    tag_135:\n        /* \"#utility.yul\":3171:3177   */\n      0x00\n        /* \"#utility.yul\":3205:3210   */\n      dup2\n        /* \"#utility.yul\":3199:3211   */\n      mload\n        /* \"#utility.yul\":3189:3211   */\n      swap1\n      pop\n        /* \"#utility.yul\":3080:3218   */\n      swap2\n      swap1\n      pop\n      jump\t// out\n        /* \"#utility.yul\":3224:3432   */\n    tag_136:\n        /* \"#utility.yul\":3347:3358   */\n      0x00\n        /* \"#utility.yul\":3381:3387   */\n      dup3\n        /* \"#utility.yul\":3376:3379   */\n      dup3\n        /* \"#utility.yul\":3369:3388   */\n      mstore\n        /* \"#utility.yul\":3421:3425   */\n      0x20\n        /* \"#utility.yul\":3416:3419   */\n      dup3\n        /* \"#utility.yul\":3412:3426   */\n      add\n        /* \"#utility.yul\":3397:3426   */\n      swap1\n      pop\n        /* \"#utility.yul\":3224:3432   */\n      swap3\n      swap2\n      pop\n      pop\n      jump\t// out\n        /* \"#utility.yul\":3438:3594   */\n    tag_137:\n        /* \"#utility.yul\":3529:3533   */\n      0x00\n        /* \"#utility.yul\":3552:3555   */\n      dup2\n        /* \"#utility.yul\":3544:3555   */\n      swap1\n      pop\n        /* \"#utility.yul\":3582:3586   */\n      0x20\n        /* \"#utility.yul\":3577:3580   */\n      dup3\n        /* \"#utility.yul\":3573:3587   */\n      add\n        /* \"#utility.yul\":3565:3587   */\n      swap1\n      pop\n        /* \"#utility.yul\":3438:3594   */\n      swap2\n      swap1\n      pop\n      jump\t// out\n        /* \"#utility.yul\":3600:3759   */\n    tag_138:\n        /* \"#utility.yul\":3674:3685   */\n      0x00\n        /* \"#utility.yul\":3708:3714   */\n      dup3\n        /* \"#utility.yul\":3703:3706   */\n      dup3\n        /* \"#utility.yul\":3696:3715   */\n      mstore\n        /* \"#utility.yul\":3748:3752   */\n      0x20\n        /* \"#utility.yul\":3743:3746   */\n      dup3\n        /* \"#utility.yul\":3739:3753   */\n      add\n        /* \"#utility.yul\":3724:3753   */\n      swap1\n      pop\n        /* \"#utility.yul\":3600:3759   */\n      swap3\n      swap2\n      pop\n      pop\n      jump\t// out\n        /* \"#utility.yul\":3765:4122   */\n    tag_139:\n        /* \"#utility.yul\":3843:3846   */\n      0x00\n        /* \"#utility.yul\":3871:3910   */\n      tag_213\n        /* \"#utility.yul\":3904:3909   */\n      dup3\n        /* \"#utility.yul\":3871:3910   */\n      tag_126\n      jump\t// in\n    tag_213:\n        /* \"#utility.yul\":3926:3987   */\n      tag_214\n        /* \"#utility.yul\":3980:3986   */\n      dup2\n        /* \"#utility.yul\":3975:3978   */\n      dup6\n        /* \"#utility.yul\":3926:3987   */\n      tag_138\n      jump\t// in\n    tag_214:\n        /* \"#utility.yul\":3919:3987   */\n      swap4\n      pop\n        /* \"#utility.yul\":3996:4061   */\n      tag_215\n        /* \"#utility.yul\":4054:4060   */\n      dup2\n        /* \"#utility.yul\":4049:4052   */\n      dup6\n        /* \"#utility.yul\":4042:4046   */\n      0x20\n        /* \"#utility.yul\":4035:4040   */\n      dup7\n        /* \"#utility.yul\":4031:4047   */\n      add\n        /* \"#utility.yul\":3996:4061   */\n      tag_128\n      jump\t// in\n    tag_215:\n        /* \"#utility.yul\":4086:4115   */\n      tag_216\n        /* \"#utility.yul\":4108:4114   */\n      dup2\n        /* \"#utility.yul\":4086:4115   */\n      tag_129\n      jump\t// in\n    tag_216:\n        /* \"#utility.yul\":4081:4084   */\n      dup5\n        /* \"#utility.yul\":4077:4116   */\n      add\n        /* \"#utility.yul\":4070:4116   */\n      swap2\n      pop\n        /* \"#utility.yul\":3847:4122   */\n      pop\n        /* \"#utility.yul\":3765:4122   */\n      swap3\n      swap2\n      pop\n      pop\n      jump\t// out\n        /* \"#utility.yul\":4128:4236   */\n    tag_140:\n        /* \"#utility.yul\":4205:4229   */\n      tag_218\n        /* \"#utility.yul\":4223:4228   */\n      dup2\n        /* \"#utility.yul\":4205:4229   */\n      tag_123\n      jump\t// in\n    tag_218:\n        /* \"#utility.yul\":4200:4203   */\n      dup3\n        /* \"#utility.yul\":4193:4230   */\n      mstore\n        /* \"#utility.yul\":4128:4236   */\n      pop\n      pop\n      jump\t// out\n        /* \"#utility.yul\":4298:4897   */\n    tag_141:\n        /* \"#utility.yul\":4405:4408   */\n      0x00\n        /* \"#utility.yul\":4441:4445   */\n      0x40\n        /* \"#utility.yul\":4436:4439   */\n      dup4\n        /* \"#utility.yul\":4432:4446   */\n      add\n        /* \"#utility.yul\":4528:4532   */\n      0x00\n        /* \"#utility.yul\":4521:4526   */\n      dup4\n        /* \"#utility.yul\":4517:4533   */\n      add\n        /* \"#utility.yul\":4511:4534   */\n      mload\n        /* \"#utility.yul\":4581:4584   */\n      dup5\n        /* \"#utility.yul\":4575:4579   */\n      dup3\n        /* \"#utility.yul\":4571:4585   */\n      sub\n        /* \"#utility.yul\":4564:4568   */\n      0x00\n        /* \"#utility.yul\":4559:4562   */\n      dup7\n        /* \"#utility.yul\":4555:4569   */\n      add\n        /* \"#utility.yul\":4548:4586   */\n      mstore\n        /* \"#utility.yul\":4607:4680   */\n      tag_220\n        /* \"#utility.yul\":4675:4679   */\n      dup3\n        /* \"#utility.yul\":4661:4673   */\n      dup3\n        /* \"#utility.yul\":4607:4680   */\n      tag_139\n      jump\t// in\n    tag_220:\n        /* \"#utility.yul\":4599:4680   */\n      swap2\n      pop\n        /* \"#utility.yul\":4456:4691   */\n      pop\n        /* \"#utility.yul\":4778:4782   */\n      0x20\n        /* \"#utility.yul\":4771:4776   */\n      dup4\n        /* \"#utility.yul\":4767:4783   */\n      add\n        /* \"#utility.yul\":4761:4784   */\n      mload\n        /* \"#utility.yul\":4797:4860   */\n      tag_221\n        /* \"#utility.yul\":4854:4858   */\n      0x20\n        /* \"#utility.yul\":4849:4852   */\n      dup7\n        /* \"#utility.yul\":4845:4859   */\n      add\n        /* \"#utility.yul\":4831:4843   */\n      dup3\n        /* \"#utility.yul\":4797:4860   */\n      tag_140\n      jump\t// in\n    tag_221:\n        /* \"#utility.yul\":4701:4870   */\n      pop\n        /* \"#utility.yul\":4887:4891   */\n      dup1\n        /* \"#utility.yul\":4880:4891   */\n      swap2\n      pop\n        /* \"#utility.yul\":4410:4897   */\n      pop\n        /* \"#utility.yul\":4298:4897   */\n      swap3\n      swap2\n      pop\n      pop\n      jump\t// out\n        /* \"#utility.yul\":4903:5155   */\n    tag_142:\n        /* \"#utility.yul\":5020:5030   */\n      0x00\n        /* \"#utility.yul\":5055:5149   */\n      tag_223\n        /* \"#utility.yul\":5145:5148   */\n      dup4\n        /* \"#utility.yul\":5137:5143   */\n      dup4\n        /* \"#utility.yul\":5055:5149   */\n      tag_141\n      jump\t// in\n    tag_223:\n        /* \"#utility.yul\":5041:5149   */\n      swap1\n      pop\n        /* \"#utility.yul\":4903:5155   */\n      swap3\n      swap2\n      pop\n      pop\n      jump\t// out\n        /* \"#utility.yul\":5161:5298   */\n    tag_143:\n        /* \"#utility.yul\":5255:5259   */\n      0x00\n        /* \"#utility.yul\":5287:5291   */\n      0x20\n        /* \"#utility.yul\":5282:5285   */\n      dup3\n        /* \"#utility.yul\":5278:5292   */\n      add\n        /* \"#utility.yul\":5270:5292   */\n      swap1\n      pop\n        /* \"#utility.yul\":5161:5298   */\n      swap2\n      swap1\n      pop\n      jump\t// out\n        /* \"#utility.yul\":5364:6467   */\n    tag_144:\n        /* \"#utility.yul\":5531:5534   */\n      0x00\n        /* \"#utility.yul\":5560:5638   */\n      tag_226\n        /* \"#utility.yul\":5632:5637   */\n      dup3\n        /* \"#utility.yul\":5560:5638   */\n      tag_135\n      jump\t// in\n    tag_226:\n        /* \"#utility.yul\":5654:5764   */\n      tag_227\n        /* \"#utility.yul\":5757:5763   */\n      dup2\n        /* \"#utility.yul\":5752:5755   */\n      dup6\n        /* \"#utility.yul\":5654:5764   */\n      tag_136\n      jump\t// in\n    tag_227:\n        /* \"#utility.yul\":5647:5764   */\n      swap4\n      pop\n        /* \"#utility.yul\":5790:5793   */\n      dup4\n        /* \"#utility.yul\":5835:5839   */\n      0x20\n        /* \"#utility.yul\":5827:5833   */\n      dup3\n        /* \"#utility.yul\":5823:5840   */\n      mul\n        /* \"#utility.yul\":5818:5821   */\n      dup6\n        /* \"#utility.yul\":5814:5841   */\n      add\n        /* \"#utility.yul\":5865:5945   */\n      tag_228\n        /* \"#utility.yul\":5939:5944   */\n      dup6\n        /* \"#utility.yul\":5865:5945   */\n      tag_137\n      jump\t// in\n    tag_228:\n        /* \"#utility.yul\":5968:5975   */\n      dup1\n        /* \"#utility.yul\":5999:6000   */\n      0x00\n        /* \"#utility.yul\":5984:6422   */\n    tag_229:\n        /* \"#utility.yul\":6009:6015   */\n      dup6\n        /* \"#utility.yul\":6006:6007   */\n      dup2\n        /* \"#utility.yul\":6003:6016   */\n      lt\n        /* \"#utility.yul\":5984:6422   */\n      iszero\n      tag_231\n      jumpi\n        /* \"#utility.yul\":6080:6089   */\n      dup5\n        /* \"#utility.yul\":6074:6078   */\n      dup5\n        /* \"#utility.yul\":6070:6090   */\n      sub\n        /* \"#utility.yul\":6065:6068   */\n      dup10\n        /* \"#utility.yul\":6058:6091   */\n      mstore\n        /* \"#utility.yul\":6131:6137   */\n      dup2\n        /* \"#utility.yul\":6125:6138   */\n      mload\n        /* \"#utility.yul\":6159:6271   */\n      tag_232\n        /* \"#utility.yul\":6266:6270   */\n      dup6\n        /* \"#utility.yul\":6251:6264   */\n      dup3\n        /* \"#utility.yul\":6159:6271   */\n      tag_142\n      jump\t// in\n    tag_232:\n        /* \"#utility.yul\":6151:6271   */\n      swap5\n      pop\n        /* \"#utility.yul\":6294:6378   */\n      tag_233\n        /* \"#utility.yul\":6371:6377   */\n      dup4\n        /* \"#utility.yul\":6294:6378   */\n      tag_143\n      jump\t// in\n    tag_233:\n        /* \"#utility.yul\":6284:6378   */\n      swap3\n      pop\n        /* \"#utility.yul\":6407:6411   */\n      0x20\n        /* \"#utility.yul\":6402:6405   */\n      dup11\n        /* \"#utility.yul\":6398:6412   */\n      add\n        /* \"#utility.yul\":6391:6412   */\n      swap10\n      pop\n        /* \"#utility.yul\":6044:6422   */\n      pop\n        /* \"#utility.yul\":6031:6032   */\n      0x01\n        /* \"#utility.yul\":6028:6029   */\n      dup2\n        /* \"#utility.yul\":6024:6033   */\n      add\n        /* \"#utility.yul\":6019:6033   */\n      swap1\n      pop\n        /* \"#utility.yul\":5984:6422   */\n      jump(tag_229)\n    tag_231:\n        /* \"#utility.yul\":5988:6002   */\n      pop\n        /* \"#utility.yul\":6438:6442   */\n      dup3\n        /* \"#utility.yul\":6431:6442   */\n      swap8\n      pop\n        /* \"#utility.yul\":6458:6461   */\n      dup8\n        /* \"#utility.yul\":6451:6461   */\n      swap6\n      pop\n        /* \"#utility.yul\":5536:6467   */\n      pop\n      pop\n      pop\n      pop\n      pop\n        /* \"#utility.yul\":5364:6467   */\n      swap3\n      swap2\n      pop\n      pop\n      jump\t// out\n        /* \"#utility.yul\":6473:6942   */\n    tag_28:\n        /* \"#utility.yul\":6664:6668   */\n      0x00\n        /* \"#utility.yul\":6702:6704   */\n      0x20\n        /* \"#utility.yul\":6691:6700   */\n      dup3\n        /* \"#utility.yul\":6687:6705   */\n      add\n        /* \"#utility.yul\":6679:6705   */\n      swap1\n      pop\n        /* \"#utility.yul\":6751:6760   */\n      dup2\n        /* \"#utility.yul\":6745:6749   */\n      dup2\n        /* \"#utility.yul\":6741:6761   */\n      sub\n        /* \"#utility.yul\":6737:6738   */\n      0x00\n        /* \"#utility.yul\":6726:6735   */\n      dup4\n        /* \"#utility.yul\":6722:6739   */\n      add\n        /* \"#utility.yul\":6715:6762   */\n      mstore\n        /* \"#utility.yul\":6779:6935   */\n      tag_235\n        /* \"#utility.yul\":6930:6934   */\n      dup2\n        /* \"#utility.yul\":6921:6927   */\n      dup5\n        /* \"#utility.yul\":6779:6935   */\n      tag_144\n      jump\t// in\n    tag_235:\n        /* \"#utility.yul\":6771:6935   */\n      swap1\n      pop\n        /* \"#utility.yul\":6473:6942   */\n      swap3\n      swap2\n      pop\n      pop\n      jump\t// out\n        /* \"#utility.yul\":6948:7070   */\n    tag_145:\n        /* \"#utility.yul\":7021:7045   */\n      tag_237\n        /* \"#utility.yul\":7039:7044   */\n      dup2\n        /* \"#utility.yul\":7021:7045   */\n      tag_133\n      jump\t// in\n    tag_237:\n        /* \"#utility.yul\":7014:7019   */\n      dup2\n        /* \"#utility.yul\":7011:7046   */\n      eq\n        /* \"#utility.yul\":7001:7064   */\n      tag_238\n      jumpi\n        /* \"#utility.yul\":7060:7061   */\n      0x00\n        /* \"#utility.yul\":7057:7058   */\n      0x00\n        /* \"#utility.yul\":7050:7062   */\n      revert\n        /* \"#utility.yul\":7001:7064   */\n    tag_238:\n        /* \"#utility.yul\":6948:7070   */\n      pop\n      jump\t// out\n        /* \"#utility.yul\":7076:7215   */\n    tag_146:\n        /* \"#utility.yul\":7122:7127   */\n      0x00\n        /* \"#utility.yul\":7160:7166   */\n      dup2\n        /* \"#utility.yul\":7147:7167   */\n      calldataload\n        /* \"#utility.yul\":7138:7167   */\n      swap1\n      pop\n        /* \"#utility.yul\":7176:7209   */\n      tag_240\n        /* \"#utility.yul\":7203:7208   */\n      dup2\n        /* \"#utility.yul\":7176:7209   */\n      tag_145\n      jump\t// in\n    tag_240:\n        /* \"#utility.yul\":7076:7215   */\n      swap3\n      swap2\n      pop\n      pop\n      jump\t// out\n        /* \"#utility.yul\":7221:7550   */\n    tag_31:\n        /* \"#utility.yul\":7280:7286   */\n      0x00\n        /* \"#utility.yul\":7329:7331   */\n      0x20\n        /* \"#utility.yul\":7317:7326   */\n      dup3\n        /* \"#utility.yul\":7308:7315   */\n      dup5\n        /* \"#utility.yul\":7304:7327   */\n      sub\n        /* \"#utility.yul\":7300:7332   */\n      slt\n        /* \"#utility.yul\":7297:7416   */\n      iszero\n      tag_242\n      jumpi\n        /* \"#utility.yul\":7335:7414   */\n      tag_243\n      tag_121\n      jump\t// in\n    tag_243:\n        /* \"#utility.yul\":7297:7416   */\n    tag_242:\n        /* \"#utility.yul\":7455:7456   */\n      0x00\n        /* \"#utility.yul\":7480:7533   */\n      tag_244\n        /* \"#utility.yul\":7525:7532   */\n      dup5\n        /* \"#utility.yul\":7516:7522   */\n      dup3\n        /* \"#utility.yul\":7505:7514   */\n      dup6\n        /* \"#utility.yul\":7501:7523   */\n      add\n        /* \"#utility.yul\":7480:7533   */\n      tag_146\n      jump\t// in\n    tag_244:\n        /* \"#utility.yul\":7470:7533   */\n      swap2\n      pop\n        /* \"#utility.yul\":7426:7543   */\n      pop\n        /* \"#utility.yul\":7221:7550   */\n      swap3\n      swap2\n      pop\n      pop\n      jump\t// out\n        /* \"#utility.yul\":7556:7778   */\n    tag_36:\n        /* \"#utility.yul\":7649:7653   */\n      0x00\n        /* \"#utility.yul\":7687:7689   */\n      0x20\n        /* \"#utility.yul\":7676:7685   */\n      dup3\n        /* \"#utility.yul\":7672:7690   */\n      add\n        /* \"#utility.yul\":7664:7690   */\n      swap1\n      pop\n        /* \"#utility.yul\":7700:7771   */\n      tag_246\n        /* \"#utility.yul\":7768:7769   */\n      0x00\n        /* \"#utility.yul\":7757:7766   */\n      dup4\n        /* \"#utility.yul\":7753:7770   */\n      add\n        /* \"#utility.yul\":7744:7750   */\n      dup5\n        /* \"#utility.yul\":7700:7771   */\n      tag_131\n      jump\t// in\n    tag_246:\n        /* \"#utility.yul\":7556:7778   */\n      swap3\n      swap2\n      pop\n      pop\n      jump\t// out\n        /* \"#utility.yul\":7784:7901   */\n    tag_147:\n        /* \"#utility.yul\":7893:7894   */\n      0x00\n        /* \"#utility.yul\":7890:7891   */\n      0x00\n        /* \"#utility.yul\":7883:7895   */\n      revert\n        /* \"#utility.yul\":7907:8087   */\n    tag_148:\n        /* \"#utility.yul\":7955:8032   */\n      0x4e487b7100000000000000000000000000000000000000000000000000000000\n        /* \"#utility.yul\":7952:7953   */\n      0x00\n        /* \"#utility.yul\":7945:8033   */\n      mstore\n        /* \"#utility.yul\":8052:8056   */\n      0x41\n        /* \"#utility.yul\":8049:8050   */\n      0x04\n        /* \"#utility.yul\":8042:8057   */\n      mstore\n        /* \"#utility.yul\":8076:8080   */\n      0x24\n        /* \"#utility.yul\":8073:8074   */\n      0x00\n        /* \"#utility.yul\":8066:8081   */\n      revert\n        /* \"#utility.yul\":8093:8374   */\n    tag_149:\n        /* \"#utility.yul\":8176:8203   */\n      tag_250\n        /* \"#utility.yul\":8198:8202   */\n      dup3\n        /* \"#utility.yul\":8176:8203   */\n      tag_129\n      jump\t// in\n    tag_250:\n        /* \"#utility.yul\":8168:8174   */\n      dup2\n        /* \"#utility.yul\":8164:8204   */\n      add\n        /* \"#utility.yul\":8306:8312   */\n      dup2\n        /* \"#utility.yul\":8294:8304   */\n      dup2\n        /* \"#utility.yul\":8291:8313   */\n      lt\n        /* \"#utility.yul\":8270:8288   */\n      0xffffffffffffffff\n        /* \"#utility.yul\":8258:8268   */\n      dup3\n        /* \"#utility.yul\":8255:8289   */\n      gt\n        /* \"#utility.yul\":8252:8314   */\n      or\n        /* \"#utility.yul\":8249:8337   */\n      iszero\n      tag_251\n      jumpi\n        /* \"#utility.yul\":8317:8335   */\n      tag_252\n      tag_148\n      jump\t// in\n    tag_252:\n        /* \"#utility.yul\":8249:8337   */\n    tag_251:\n        /* \"#utility.yul\":8357:8367   */\n      dup1\n        /* \"#utility.yul\":8353:8355   */\n      0x40\n        /* \"#utility.yul\":8346:8368   */\n      mstore\n        /* \"#utility.yul\":8136:8374   */\n      pop\n        /* \"#utility.yul\":8093:8374   */\n      pop\n      pop\n      jump\t// out\n        /* \"#utility.yul\":8380:8509   */\n    tag_150:\n        /* \"#utility.yul\":8414:8420   */\n      0x00\n        /* \"#utility.yul\":8441:8461   */\n      tag_254\n      tag_120\n      jump\t// in\n    tag_254:\n        /* \"#utility.yul\":8431:8461   */\n      swap1\n      pop\n        /* \"#utility.yul\":8470:8503   */\n      tag_255\n        /* \"#utility.yul\":8498:8502   */\n      dup3\n        /* \"#utility.yul\":8490:8496   */\n      dup3\n        /* \"#utility.yul\":8470:8503   */\n      tag_149\n      jump\t// in\n    tag_255:\n        /* \"#utility.yul\":8380:8509   */\n      swap2\n      swap1\n      pop\n      jump\t// out\n        /* \"#utility.yul\":8515:8826   */\n    tag_151:\n        /* \"#utility.yul\":8592:8596   */\n      0x00\n        /* \"#utility.yul\":8682:8700   */\n      0xffffffffffffffff\n        /* \"#utility.yul\":8674:8680   */\n      dup3\n        /* \"#utility.yul\":8671:8701   */\n      gt\n        /* \"#utility.yul\":8668:8724   */\n      iszero\n      tag_257\n      jumpi\n        /* \"#utility.yul\":8704:8722   */\n      tag_258\n      tag_148\n      jump\t// in\n    tag_258:\n        /* \"#utility.yul\":8668:8724   */\n    tag_257:\n        /* \"#utility.yul\":8754:8758   */\n      0x20\n        /* \"#utility.yul\":8746:8752   */\n      dup3\n        /* \"#utility.yul\":8742:8759   */\n      mul\n        /* \"#utility.yul\":8734:8759   */\n      swap1\n      pop\n        /* \"#utility.yul\":8814:8818   */\n      0x20\n        /* \"#utility.yul\":8808:8812   */\n      dup2\n        /* \"#utility.yul\":8804:8819   */\n      add\n        /* \"#utility.yul\":8796:8819   */\n      swap1\n      pop\n        /* \"#utility.yul\":8515:8826   */\n      swap2\n      swap1\n      pop\n      jump\t// out\n        /* \"#utility.yul\":8832:8949   */\n    tag_152:\n        /* \"#utility.yul\":8941:8942   */\n      0x00\n        /* \"#utility.yul\":8938:8939   */\n      0x00\n        /* \"#utility.yul\":8931:8943   */\n      revert\n        /* \"#utility.yul\":8972:9682   */\n    tag_153:\n        /* \"#utility.yul\":9068:9073   */\n      0x00\n        /* \"#utility.yul\":9093:9174   */\n      tag_261\n        /* \"#utility.yul\":9109:9173   */\n      tag_262\n        /* \"#utility.yul\":9166:9172   */\n      dup5\n        /* \"#utility.yul\":9109:9173   */\n      tag_151\n      jump\t// in\n    tag_262:\n        /* \"#utility.yul\":9093:9174   */\n      tag_150\n      jump\t// in\n    tag_261:\n        /* \"#utility.yul\":9084:9174   */\n      swap1\n      pop\n        /* \"#utility.yul\":9194:9199   */\n      dup1\n        /* \"#utility.yul\":9223:9229   */\n      dup4\n        /* \"#utility.yul\":9216:9221   */\n      dup3\n        /* \"#utility.yul\":9209:9230   */\n      mstore\n        /* \"#utility.yul\":9257:9261   */\n      0x20\n        /* \"#utility.yul\":9250:9255   */\n      dup3\n        /* \"#utility.yul\":9246:9262   */\n      add\n        /* \"#utility.yul\":9239:9262   */\n      swap1\n      pop\n        /* \"#utility.yul\":9310:9314   */\n      0x20\n        /* \"#utility.yul\":9302:9308   */\n      dup5\n        /* \"#utility.yul\":9298:9315   */\n      mul\n        /* \"#utility.yul\":9290:9296   */\n      dup4\n        /* \"#utility.yul\":9286:9316   */\n      add\n        /* \"#utility.yul\":9339:9342   */\n      dup6\n        /* \"#utility.yul\":9331:9337   */\n      dup2\n        /* \"#utility.yul\":9328:9343   */\n      gt\n        /* \"#utility.yul\":9325:9447   */\n      iszero\n      tag_263\n      jumpi\n        /* \"#utility.yul\":9358:9437   */\n      tag_264\n      tag_152\n      jump\t// in\n    tag_264:\n        /* \"#utility.yul\":9325:9447   */\n    tag_263:\n        /* \"#utility.yul\":9473:9479   */\n      dup4\n        /* \"#utility.yul\":9456:9676   */\n    tag_265:\n        /* \"#utility.yul\":9490:9496   */\n      dup2\n        /* \"#utility.yul\":9485:9488   */\n      dup2\n        /* \"#utility.yul\":9482:9497   */\n      lt\n        /* \"#utility.yul\":9456:9676   */\n      iszero\n      tag_267\n      jumpi\n        /* \"#utility.yul\":9565:9568   */\n      dup1\n        /* \"#utility.yul\":9594:9631   */\n      tag_268\n        /* \"#utility.yul\":9627:9630   */\n      dup9\n        /* \"#utility.yul\":9615:9625   */\n      dup3\n        /* \"#utility.yul\":9594:9631   */\n      tag_146\n      jump\t// in\n    tag_268:\n        /* \"#utility.yul\":9589:9592   */\n      dup5\n        /* \"#utility.yul\":9582:9632   */\n      mstore\n        /* \"#utility.yul\":9661:9665   */\n      0x20\n        /* \"#utility.yul\":9656:9659   */\n      dup5\n        /* \"#utility.yul\":9652:9666   */\n      add\n        /* \"#utility.yul\":9645:9666   */\n      swap4\n      pop\n        /* \"#utility.yul\":9532:9676   */\n      pop\n        /* \"#utility.yul\":9516:9520   */\n      0x20\n        /* \"#utility.yul\":9511:9514   */\n      dup2\n        /* \"#utility.yul\":9507:9521   */\n      add\n        /* \"#utility.yul\":9500:9521   */\n      swap1\n      pop\n        /* \"#utility.yul\":9456:9676   */\n      jump(tag_265)\n    tag_267:\n        /* \"#utility.yul\":9460:9481   */\n      pop\n        /* \"#utility.yul\":9074:9682   */\n      pop\n      pop\n        /* \"#utility.yul\":8972:9682   */\n      swap4\n      swap3\n      pop\n      pop\n      pop\n      jump\t// out\n        /* \"#utility.yul\":9705:10075   */\n    tag_154:\n        /* \"#utility.yul\":9776:9781   */\n      0x00\n        /* \"#utility.yul\":9825:9828   */\n      dup3\n        /* \"#utility.yul\":9818:9822   */\n      0x1f\n        /* \"#utility.yul\":9810:9816   */\n      dup4\n        /* \"#utility.yul\":9806:9823   */\n      add\n        /* \"#utility.yul\":9802:9829   */\n      slt\n        /* \"#utility.yul\":9792:9914   */\n      tag_270\n      jumpi\n        /* \"#utility.yul\":9833:9912   */\n      tag_271\n      tag_147\n      jump\t// in\n    tag_271:\n        /* \"#utility.yul\":9792:9914   */\n    tag_270:\n        /* \"#utility.yul\":9950:9956   */\n      dup2\n        /* \"#utility.yul\":9937:9957   */\n      calldataload\n        /* \"#utility.yul\":9975:10069   */\n      tag_272\n        /* \"#utility.yul\":10065:10068   */\n      dup5\n        /* \"#utility.yul\":10057:10063   */\n      dup3\n        /* \"#utility.yul\":10050:10054   */\n      0x20\n        /* \"#utility.yul\":10042:10048   */\n      dup7\n        /* \"#utility.yul\":10038:10055   */\n      add\n        /* \"#utility.yul\":9975:10069   */\n      tag_153\n      jump\t// in\n    tag_272:\n        /* \"#utility.yul\":9966:10069   */\n      swap2\n      pop\n        /* \"#utility.yul\":9782:10075   */\n      pop\n        /* \"#utility.yul\":9705:10075   */\n      swap3\n      swap2\n      pop\n      pop\n      jump\t// out\n        /* \"#utility.yul\":10081:10620   */\n    tag_39:\n        /* \"#utility.yul\":10165:10171   */\n      0x00\n        /* \"#utility.yul\":10214:10216   */\n      0x20\n        /* \"#utility.yul\":10202:10211   */\n      dup3\n        /* \"#utility.yul\":10193:10200   */\n      dup5\n        /* \"#utility.yul\":10189:10212   */\n      sub\n        /* \"#utility.yul\":10185:10217   */\n      slt\n        /* \"#utility.yul\":10182:10301   */\n      iszero\n      tag_274\n      jumpi\n        /* \"#utility.yul\":10220:10299   */\n      tag_275\n      tag_121\n      jump\t// in\n    tag_275:\n        /* \"#utility.yul\":10182:10301   */\n    tag_274:\n        /* \"#utility.yul\":10368:10369   */\n      0x00\n        /* \"#utility.yul\":10357:10366   */\n      dup3\n        /* \"#utility.yul\":10353:10370   */\n      add\n        /* \"#utility.yul\":10340:10371   */\n      calldataload\n        /* \"#utility.yul\":10398:10416   */\n      0xffffffffffffffff\n        /* \"#utility.yul\":10390:10396   */\n      dup2\n        /* \"#utility.yul\":10387:10417   */\n      gt\n        /* \"#utility.yul\":10384:10501   */\n      iszero\n      tag_276\n      jumpi\n        /* \"#utility.yul\":10420:10499   */\n      tag_277\n      tag_122\n      jump\t// in\n    tag_277:\n        /* \"#utility.yul\":10384:10501   */\n    tag_276:\n        /* \"#utility.yul\":10525:10603   */\n      tag_278\n        /* \"#utility.yul\":10595:10602   */\n      dup5\n        /* \"#utility.yul\":10586:10592   */\n      dup3\n        /* \"#utility.yul\":10575:10584   */\n      dup6\n        /* \"#utility.yul\":10571:10593   */\n      add\n        /* \"#utility.yul\":10525:10603   */\n      tag_154\n      jump\t// in\n    tag_278:\n        /* \"#utility.yul\":10515:10603   */\n      swap2\n      pop\n        /* \"#utility.yul\":10311:10613   */\n      pop\n        /* \"#utility.yul\":10081:10620   */\n      swap3\n      swap2\n      pop\n      pop\n      jump\t// out\n        /* \"#utility.yul\":10626:10716   */\n    tag_155:\n        /* \"#utility.yul\":10660:10667   */\n      0x00\n        /* \"#utility.yul\":10703:10708   */\n      dup2\n        /* \"#utility.yul\":10696:10709   */\n      iszero\n        /* \"#utility.yul\":10689:10710   */\n      iszero\n        /* \"#utility.yul\":10678:10710   */\n      swap1\n      pop\n        /* \"#utility.yul\":10626:10716   */\n      swap2\n      swap1\n      pop\n      jump\t// out\n        /* \"#utility.yul\":10722:10831   */\n    tag_156:\n        /* \"#utility.yul\":10803:10824   */\n      tag_281\n        /* \"#utility.yul\":10818:10823   */\n      dup2\n        /* \"#utility.yul\":10803:10824   */\n      tag_155\n      jump\t// in\n    tag_281:\n        /* \"#utility.yul\":10798:10801   */\n      dup3\n        /* \"#utility.yul\":10791:10825   */\n      mstore\n        /* \"#utility.yul\":10722:10831   */\n      pop\n      pop\n      jump\t// out\n        /* \"#utility.yul\":10837:11378   */\n    tag_45:\n        /* \"#utility.yul\":11008:11012   */\n      0x00\n        /* \"#utility.yul\":11046:11049   */\n      0x80\n        /* \"#utility.yul\":11035:11044   */\n      dup3\n        /* \"#utility.yul\":11031:11050   */\n      add\n        /* \"#utility.yul\":11023:11050   */\n      swap1\n      pop\n        /* \"#utility.yul\":11060:11131   */\n      tag_283\n        /* \"#utility.yul\":11128:11129   */\n      0x00\n        /* \"#utility.yul\":11117:11126   */\n      dup4\n        /* \"#utility.yul\":11113:11130   */\n      add\n        /* \"#utility.yul\":11104:11110   */\n      dup8\n        /* \"#utility.yul\":11060:11131   */\n      tag_131\n      jump\t// in\n    tag_283:\n        /* \"#utility.yul\":11141:11207   */\n      tag_284\n        /* \"#utility.yul\":11203:11205   */\n      0x20\n        /* \"#utility.yul\":11192:11201   */\n      dup4\n        /* \"#utility.yul\":11188:11206   */\n      add\n        /* \"#utility.yul\":11179:11185   */\n      dup7\n        /* \"#utility.yul\":11141:11207   */\n      tag_156\n      jump\t// in\n    tag_284:\n        /* \"#utility.yul\":11217:11289   */\n      tag_285\n        /* \"#utility.yul\":11285:11287   */\n      0x40\n        /* \"#utility.yul\":11274:11283   */\n      dup4\n        /* \"#utility.yul\":11270:11288   */\n      add\n        /* \"#utility.yul\":11261:11267   */\n      dup6\n        /* \"#utility.yul\":11217:11289   */\n      tag_134\n      jump\t// in\n    tag_285:\n        /* \"#utility.yul\":11299:11371   */\n      tag_286\n        /* \"#utility.yul\":11367:11369   */\n      0x60\n        /* \"#utility.yul\":11356:11365   */\n      dup4\n        /* \"#utility.yul\":11352:11370   */\n      add\n        /* \"#utility.yul\":11343:11349   */\n      dup5\n        /* \"#utility.yul\":11299:11371   */\n      tag_131\n      jump\t// in\n    tag_286:\n        /* \"#utility.yul\":10837:11378   */\n      swap6\n      swap5\n      pop\n      pop\n      pop\n      pop\n      pop\n      jump\t// out\n        /* \"#utility.yul\":11384:11554   */\n    tag_157:\n        /* \"#utility.yul\":11524:11546   */\n      0x486173206e6f20726967687420746f20766f7465000000000000000000000000\n        /* \"#utility.yul\":11520:11521   */\n      0x00\n        /* \"#utility.yul\":11512:11518   */\n      dup3\n        /* \"#utility.yul\":11508:11522   */\n      add\n        /* \"#utility.yul\":11501:11547   */\n      mstore\n        /* \"#utility.yul\":11384:11554   */\n      pop\n      jump\t// out\n        /* \"#utility.yul\":11560:11926   */\n    tag_158:\n        /* \"#utility.yul\":11702:11705   */\n      0x00\n        /* \"#utility.yul\":11723:11790   */\n      tag_289\n        /* \"#utility.yul\":11787:11789   */\n      0x14\n        /* \"#utility.yul\":11782:11785   */\n      dup4\n        /* \"#utility.yul\":11723:11790   */\n      tag_127\n      jump\t// in\n    tag_289:\n        /* \"#utility.yul\":11716:11790   */\n      swap2\n      pop\n        /* \"#utility.yul\":11799:11892   */\n      tag_290\n        /* \"#utility.yul\":11888:11891   */\n      dup3\n        /* \"#utility.yul\":11799:11892   */\n      tag_157\n      jump\t// in\n    tag_290:\n        /* \"#utility.yul\":11917:11919   */\n      0x20\n        /* \"#utility.yul\":11912:11915   */\n      dup3\n        /* \"#utility.yul\":11908:11920   */\n      add\n        /* \"#utility.yul\":11901:11920   */\n      swap1\n      pop\n        /* \"#utility.yul\":11560:11926   */\n      swap2\n      swap1\n      pop\n      jump\t// out\n        /* \"#utility.yul\":11932:12351   */\n    tag_49:\n        /* \"#utility.yul\":12098:12102   */\n      0x00\n        /* \"#utility.yul\":12136:12138   */\n      0x20\n        /* \"#utility.yul\":12125:12134   */\n      dup3\n        /* \"#utility.yul\":12121:12139   */\n      add\n        /* \"#utility.yul\":12113:12139   */\n      swap1\n      pop\n        /* \"#utility.yul\":12185:12194   */\n      dup2\n        /* \"#utility.yul\":12179:12183   */\n      dup2\n        /* \"#utility.yul\":12175:12195   */\n      sub\n        /* \"#utility.yul\":12171:12172   */\n      0x00\n        /* \"#utility.yul\":12160:12169   */\n      dup4\n        /* \"#utility.yul\":12156:12173   */\n      add\n        /* \"#utility.yul\":12149:12196   */\n      mstore\n        /* \"#utility.yul\":12213:12344   */\n      tag_292\n        /* \"#utility.yul\":12339:12343   */\n      dup2\n        /* \"#utility.yul\":12213:12344   */\n      tag_158\n      jump\t// in\n    tag_292:\n        /* \"#utility.yul\":12205:12344   */\n      swap1\n      pop\n        /* \"#utility.yul\":11932:12351   */\n      swap2\n      swap1\n      pop\n      jump\t// out\n        /* \"#utility.yul\":12357:12521   */\n    tag_159:\n        /* \"#utility.yul\":12497:12513   */\n      0x416c726561647920766f7465642e000000000000000000000000000000000000\n        /* \"#utility.yul\":12493:12494   */\n      0x00\n        /* \"#utility.yul\":12485:12491   */\n      dup3\n        /* \"#utility.yul\":12481:12495   */\n      add\n        /* \"#utility.yul\":12474:12514   */\n      mstore\n        /* \"#utility.yul\":12357:12521   */\n      pop\n      jump\t// out\n        /* \"#utility.yul\":12527:12893   */\n    tag_160:\n        /* \"#utility.yul\":12669:12672   */\n      0x00\n        /* \"#utility.yul\":12690:12757   */\n      tag_295\n        /* \"#utility.yul\":12754:12756   */\n      0x0e\n        /* \"#utility.yul\":12749:12752   */\n      dup4\n        /* \"#utility.yul\":12690:12757   */\n      tag_127\n      jump\t// in\n    tag_295:\n        /* \"#utility.yul\":12683:12757   */\n      swap2\n      pop\n        /* \"#utility.yul\":12766:12859   */\n      tag_296\n        /* \"#utility.yul\":12855:12858   */\n      dup3\n        /* \"#utility.yul\":12766:12859   */\n      tag_159\n      jump\t// in\n    tag_296:\n        /* \"#utility.yul\":12884:12886   */\n      0x20\n        /* \"#utility.yul\":12879:12882   */\n      dup3\n        /* \"#utility.yul\":12875:12887   */\n      add\n        /* \"#utility.yul\":12868:12887   */\n      swap1\n      pop\n        /* \"#utility.yul\":12527:12893   */\n      swap2\n      swap1\n      pop\n      jump\t// out\n        /* \"#utility.yul\":12899:13318   */\n    tag_52:\n        /* \"#utility.yul\":13065:13069   */\n      0x00\n        /* \"#utility.yul\":13103:13105   */\n      0x20\n        /* \"#utility.yul\":13092:13101   */\n      dup3\n        /* \"#utility.yul\":13088:13106   */\n      add\n        /* \"#utility.yul\":13080:13106   */\n      swap1\n      pop\n        /* \"#utility.yul\":13152:13161   */\n      dup2\n        /* \"#utility.yul\":13146:13150   */\n      dup2\n        /* \"#utility.yul\":13142:13162   */\n      sub\n        /* \"#utility.yul\":13138:13139   */\n      0x00\n        /* \"#utility.yul\":13127:13136   */\n      dup4\n        /* \"#utility.yul\":13123:13140   */\n      add\n        /* \"#utility.yul\":13116:13163   */\n      mstore\n        /* \"#utility.yul\":13180:13311   */\n      tag_298\n        /* \"#utility.yul\":13306:13310   */\n      dup2\n        /* \"#utility.yul\":13180:13311   */\n      tag_160\n      jump\t// in\n    tag_298:\n        /* \"#utility.yul\":13172:13311   */\n      swap1\n      pop\n        /* \"#utility.yul\":12899:13318   */\n      swap2\n      swap1\n      pop\n      jump\t// out\n        /* \"#utility.yul\":13324:13504   */\n    tag_55:\n        /* \"#utility.yul\":13372:13449   */\n      0x4e487b7100000000000000000000000000000000000000000000000000000000\n        /* \"#utility.yul\":13369:13370   */\n      0x00\n        /* \"#utility.yul\":13362:13450   */\n      mstore\n        /* \"#utility.yul\":13469:13473   */\n      0x32\n        /* \"#utility.yul\":13466:13467   */\n      0x04\n        /* \"#utility.yul\":13459:13474   */\n      mstore\n        /* \"#utility.yul\":13493:13497   */\n      0x24\n        /* \"#utility.yul\":13490:13491   */\n      0x00\n        /* \"#utility.yul\":13483:13498   */\n      revert\n        /* \"#utility.yul\":13510:13690   */\n    tag_161:\n        /* \"#utility.yul\":13558:13635   */\n      0x4e487b7100000000000000000000000000000000000000000000000000000000\n        /* \"#utility.yul\":13555:13556   */\n      0x00\n        /* \"#utility.yul\":13548:13636   */\n      mstore\n        /* \"#utility.yul\":13655:13659   */\n      0x11\n        /* \"#utility.yul\":13652:13653   */\n      0x04\n        /* \"#utility.yul\":13645:13660   */\n      mstore\n        /* \"#utility.yul\":13679:13683   */\n      0x24\n        /* \"#utility.yul\":13676:13677   */\n      0x00\n        /* \"#utility.yul\":13669:13684   */\n      revert\n        /* \"#utility.yul\":13696:13887   */\n    tag_58:\n        /* \"#utility.yul\":13736:13739   */\n      0x00\n        /* \"#utility.yul\":13755:13775   */\n      tag_302\n        /* \"#utility.yul\":13773:13774   */\n      dup3\n        /* \"#utility.yul\":13755:13775   */\n      tag_123\n      jump\t// in\n    tag_302:\n        /* \"#utility.yul\":13750:13775   */\n      swap2\n      pop\n        /* \"#utility.yul\":13789:13809   */\n      tag_303\n        /* \"#utility.yul\":13807:13808   */\n      dup4\n        /* \"#utility.yul\":13789:13809   */\n      tag_123\n      jump\t// in\n    tag_303:\n        /* \"#utility.yul\":13784:13809   */\n      swap3\n      pop\n        /* \"#utility.yul\":13832:13833   */\n      dup3\n        /* \"#utility.yul\":13829:13830   */\n      dup3\n        /* \"#utility.yul\":13825:13834   */\n      add\n        /* \"#utility.yul\":13818:13834   */\n      swap1\n      pop\n        /* \"#utility.yul\":13853:13856   */\n      dup1\n        /* \"#utility.yul\":13850:13851   */\n      dup3\n        /* \"#utility.yul\":13847:13857   */\n      gt\n        /* \"#utility.yul\":13844:13880   */\n      iszero\n      tag_304\n      jumpi\n        /* \"#utility.yul\":13860:13878   */\n      tag_305\n      tag_161\n      jump\t// in\n    tag_305:\n        /* \"#utility.yul\":13844:13880   */\n    tag_304:\n        /* \"#utility.yul\":13696:13887   */\n      swap3\n      swap2\n      pop\n      pop\n      jump\t// out\n        /* \"#utility.yul\":13893:14107   */\n    tag_162:\n        /* \"#utility.yul\":14033:14099   */\n      0xe68a95e7a5a8e68890e58a9f0000000000000000000000000000000000000000\n        /* \"#utility.yul\":14029:14030   */\n      0x00\n        /* \"#utility.yul\":14021:14027   */\n      dup3\n        /* \"#utility.yul\":14017:14031   */\n      add\n        /* \"#utility.yul\":14010:14100   */\n      mstore\n        /* \"#utility.yul\":13893:14107   */\n      pop\n      jump\t// out\n        /* \"#utility.yul\":14113:14479   */\n    tag_163:\n        /* \"#utility.yul\":14255:14258   */\n      0x00\n        /* \"#utility.yul\":14276:14343   */\n      tag_308\n        /* \"#utility.yul\":14340:14342   */\n      0x0c\n        /* \"#utility.yul\":14335:14338   */\n      dup4\n        /* \"#utility.yul\":14276:14343   */\n      tag_127\n      jump\t// in\n    tag_308:\n        /* \"#utility.yul\":14269:14343   */\n      swap2\n      pop\n        /* \"#utility.yul\":14352:14445   */\n      tag_309\n        /* \"#utility.yul\":14441:14444   */\n      dup3\n        /* \"#utility.yul\":14352:14445   */\n      tag_162\n      jump\t// in\n    tag_309:\n        /* \"#utility.yul\":14470:14472   */\n      0x20\n        /* \"#utility.yul\":14465:14468   */\n      dup3\n        /* \"#utility.yul\":14461:14473   */\n      add\n        /* \"#utility.yul\":14454:14473   */\n      swap1\n      pop\n        /* \"#utility.yul\":14113:14479   */\n      swap2\n      swap1\n      pop\n      jump\t// out\n        /* \"#utility.yul\":14485:14904   */\n    tag_60:\n        /* \"#utility.yul\":14651:14655   */\n      0x00\n        /* \"#utility.yul\":14689:14691   */\n      0x20\n        /* \"#utility.yul\":14678:14687   */\n      dup3\n        /* \"#utility.yul\":14674:14692   */\n      add\n        /* \"#utility.yul\":14666:14692   */\n      swap1\n      pop\n        /* \"#utility.yul\":14738:14747   */\n      dup2\n        /* \"#utility.yul\":14732:14736   */\n      dup2\n        /* \"#utility.yul\":14728:14748   */\n      sub\n        /* \"#utility.yul\":14724:14725   */\n      0x00\n        /* \"#utility.yul\":14713:14722   */\n      dup4\n        /* \"#utility.yul\":14709:14726   */\n      add\n        /* \"#utility.yul\":14702:14749   */\n      mstore\n        /* \"#utility.yul\":14766:14897   */\n      tag_311\n        /* \"#utility.yul\":14892:14896   */\n      dup2\n        /* \"#utility.yul\":14766:14897   */\n      tag_163\n      jump\t// in\n    tag_311:\n        /* \"#utility.yul\":14758:14897   */\n      swap1\n      pop\n        /* \"#utility.yul\":14485:14904   */\n      swap2\n      swap1\n      pop\n      jump\t// out\n        /* \"#utility.yul\":14910:15090   */\n    tag_164:\n        /* \"#utility.yul\":14958:15035   */\n      0x4e487b7100000000000000000000000000000000000000000000000000000000\n        /* \"#utility.yul\":14955:14956   */\n      0x00\n        /* \"#utility.yul\":14948:15036   */\n      mstore\n        /* \"#utility.yul\":15055:15059   */\n      0x22\n        /* \"#utility.yul\":15052:15053   */\n      0x04\n        /* \"#utility.yul\":15045:15060   */\n      mstore\n        /* \"#utility.yul\":15079:15083   */\n      0x24\n        /* \"#utility.yul\":15076:15077   */\n      0x00\n        /* \"#utility.yul\":15069:15084   */\n      revert\n        /* \"#utility.yul\":15096:15416   */\n    tag_64:\n        /* \"#utility.yul\":15140:15146   */\n      0x00\n        /* \"#utility.yul\":15177:15178   */\n      0x02\n        /* \"#utility.yul\":15171:15175   */\n      dup3\n        /* \"#utility.yul\":15167:15179   */\n      div\n        /* \"#utility.yul\":15157:15179   */\n      swap1\n      pop\n        /* \"#utility.yul\":15224:15225   */\n      0x01\n        /* \"#utility.yul\":15218:15222   */\n      dup3\n        /* \"#utility.yul\":15214:15226   */\n      and\n        /* \"#utility.yul\":15245:15263   */\n      dup1\n        /* \"#utility.yul\":15235:15316   */\n      tag_314\n      jumpi\n        /* \"#utility.yul\":15301:15305   */\n      0x7f\n        /* \"#utility.yul\":15293:15299   */\n      dup3\n        /* \"#utility.yul\":15289:15306   */\n      and\n        /* \"#utility.yul\":15279:15306   */\n      swap2\n      pop\n        /* \"#utility.yul\":15235:15316   */\n    tag_314:\n        /* \"#utility.yul\":15363:15365   */\n      0x20\n        /* \"#utility.yul\":15355:15361   */\n      dup3\n        /* \"#utility.yul\":15352:15366   */\n      lt\n        /* \"#utility.yul\":15332:15350   */\n      dup2\n        /* \"#utility.yul\":15329:15367   */\n      sub\n        /* \"#utility.yul\":15326:15410   */\n      tag_315\n      jumpi\n        /* \"#utility.yul\":15382:15400   */\n      tag_316\n      tag_164\n      jump\t// in\n    tag_316:\n        /* \"#utility.yul\":15326:15410   */\n    tag_315:\n        /* \"#utility.yul\":15147:15416   */\n      pop\n        /* \"#utility.yul\":15096:15416   */\n      swap2\n      swap1\n      pop\n      jump\t// out\n        /* \"#utility.yul\":15422:15589   */\n    tag_165:\n        /* \"#utility.yul\":15562:15581   */\n      0x796f7520616c726561647920766f746564000000000000000000000000000000\n        /* \"#utility.yul\":15558:15559   */\n      0x00\n        /* \"#utility.yul\":15550:15556   */\n      dup3\n        /* \"#utility.yul\":15546:15560   */\n      add\n        /* \"#utility.yul\":15539:15582   */\n      mstore\n        /* \"#utility.yul\":15422:15589   */\n      pop\n      jump\t// out\n        /* \"#utility.yul\":15595:15961   */\n    tag_166:\n        /* \"#utility.yul\":15737:15740   */\n      0x00\n        /* \"#utility.yul\":15758:15825   */\n      tag_319\n        /* \"#utility.yul\":15822:15824   */\n      0x11\n        /* \"#utility.yul\":15817:15820   */\n      dup4\n        /* \"#utility.yul\":15758:15825   */\n      tag_127\n      jump\t// in\n    tag_319:\n        /* \"#utility.yul\":15751:15825   */\n      swap2\n      pop\n        /* \"#utility.yul\":15834:15927   */\n      tag_320\n        /* \"#utility.yul\":15923:15926   */\n      dup3\n        /* \"#utility.yul\":15834:15927   */\n      tag_165\n      jump\t// in\n    tag_320:\n        /* \"#utility.yul\":15952:15954   */\n      0x20\n        /* \"#utility.yul\":15947:15950   */\n      dup3\n        /* \"#utility.yul\":15943:15955   */\n      add\n        /* \"#utility.yul\":15936:15955   */\n      swap1\n      pop\n        /* \"#utility.yul\":15595:15961   */\n      swap2\n      swap1\n      pop\n      jump\t// out\n        /* \"#utility.yul\":15967:16386   */\n    tag_81:\n        /* \"#utility.yul\":16133:16137   */\n      0x00\n        /* \"#utility.yul\":16171:16173   */\n      0x20\n        /* \"#utility.yul\":16160:16169   */\n      dup3\n        /* \"#utility.yul\":16156:16174   */\n      add\n        /* \"#utility.yul\":16148:16174   */\n      swap1\n      pop\n        /* \"#utility.yul\":16220:16229   */\n      dup2\n        /* \"#utility.yul\":16214:16218   */\n      dup2\n        /* \"#utility.yul\":16210:16230   */\n      sub\n        /* \"#utility.yul\":16206:16207   */\n      0x00\n        /* \"#utility.yul\":16195:16204   */\n      dup4\n        /* \"#utility.yul\":16191:16208   */\n      add\n        /* \"#utility.yul\":16184:16231   */\n      mstore\n        /* \"#utility.yul\":16248:16379   */\n      tag_322\n        /* \"#utility.yul\":16374:16378   */\n      dup2\n        /* \"#utility.yul\":16248:16379   */\n      tag_166\n      jump\t// in\n    tag_322:\n        /* \"#utility.yul\":16240:16379   */\n      swap1\n      pop\n        /* \"#utility.yul\":15967:16386   */\n      swap2\n      swap1\n      pop\n      jump\t// out\n        /* \"#utility.yul\":16392:16567   */\n    tag_167:\n        /* \"#utility.yul\":16532:16559   */\n      0x73656c662064656c6567617465206973206e6f20616c6c6f7700000000000000\n        /* \"#utility.yul\":16528:16529   */\n      0x00\n        /* \"#utility.yul\":16520:16526   */\n      dup3\n        /* \"#utility.yul\":16516:16530   */\n      add\n        /* \"#utility.yul\":16509:16560   */\n      mstore\n        /* \"#utility.yul\":16392:16567   */\n      pop\n      jump\t// out\n        /* \"#utility.yul\":16573:16939   */\n    tag_168:\n        /* \"#utility.yul\":16715:16718   */\n      0x00\n        /* \"#utility.yul\":16736:16803   */\n      tag_325\n        /* \"#utility.yul\":16800:16802   */\n      0x19\n        /* \"#utility.yul\":16795:16798   */\n      dup4\n        /* \"#utility.yul\":16736:16803   */\n      tag_127\n      jump\t// in\n    tag_325:\n        /* \"#utility.yul\":16729:16803   */\n      swap2\n      pop\n        /* \"#utility.yul\":16812:16905   */\n      tag_326\n        /* \"#utility.yul\":16901:16904   */\n      dup3\n        /* \"#utility.yul\":16812:16905   */\n      tag_167\n      jump\t// in\n    tag_326:\n        /* \"#utility.yul\":16930:16932   */\n      0x20\n        /* \"#utility.yul\":16925:16928   */\n      dup3\n        /* \"#utility.yul\":16921:16933   */\n      add\n        /* \"#utility.yul\":16914:16933   */\n      swap1\n      pop\n        /* \"#utility.yul\":16573:16939   */\n      swap2\n      swap1\n      pop\n      jump\t// out\n        /* \"#utility.yul\":16945:17364   */\n    tag_84:\n        /* \"#utility.yul\":17111:17115   */\n      0x00\n        /* \"#utility.yul\":17149:17151   */\n      0x20\n        /* \"#utility.yul\":17138:17147   */\n      dup3\n        /* \"#utility.yul\":17134:17152   */\n      add\n        /* \"#utility.yul\":17126:17152   */\n      swap1\n      pop\n        /* \"#utility.yul\":17198:17207   */\n      dup2\n        /* \"#utility.yul\":17192:17196   */\n      dup2\n        /* \"#utility.yul\":17188:17208   */\n      sub\n        /* \"#utility.yul\":17184:17185   */\n      0x00\n        /* \"#utility.yul\":17173:17182   */\n      dup4\n        /* \"#utility.yul\":17169:17186   */\n      add\n        /* \"#utility.yul\":17162:17209   */\n      mstore\n        /* \"#utility.yul\":17226:17357   */\n      tag_328\n        /* \"#utility.yul\":17352:17356   */\n      dup2\n        /* \"#utility.yul\":17226:17357   */\n      tag_168\n      jump\t// in\n    tag_328:\n        /* \"#utility.yul\":17218:17357   */\n      swap1\n      pop\n        /* \"#utility.yul\":16945:17364   */\n      swap2\n      swap1\n      pop\n      jump\t// out\n        /* \"#utility.yul\":17370:17542   */\n    tag_169:\n        /* \"#utility.yul\":17510:17534   */\n      0x466f756e64206c6f6f7020696e2064656c656765746500000000000000000000\n        /* \"#utility.yul\":17506:17507   */\n      0x00\n        /* \"#utility.yul\":17498:17504   */\n      dup3\n        /* \"#utility.yul\":17494:17508   */\n      add\n        /* \"#utility.yul\":17487:17535   */\n      mstore\n        /* \"#utility.yul\":17370:17542   */\n      pop\n      jump\t// out\n        /* \"#utility.yul\":17548:17914   */\n    tag_170:\n        /* \"#utility.yul\":17690:17693   */\n      0x00\n        /* \"#utility.yul\":17711:17778   */\n      tag_331\n        /* \"#utility.yul\":17775:17777   */\n      0x16\n        /* \"#utility.yul\":17770:17773   */\n      dup4\n        /* \"#utility.yul\":17711:17778   */\n      tag_127\n      jump\t// in\n    tag_331:\n        /* \"#utility.yul\":17704:17778   */\n      swap2\n      pop\n        /* \"#utility.yul\":17787:17880   */\n      tag_332\n        /* \"#utility.yul\":17876:17879   */\n      dup3\n        /* \"#utility.yul\":17787:17880   */\n      tag_169\n      jump\t// in\n    tag_332:\n        /* \"#utility.yul\":17905:17907   */\n      0x20\n        /* \"#utility.yul\":17900:17903   */\n      dup3\n        /* \"#utility.yul\":17896:17908   */\n      add\n        /* \"#utility.yul\":17889:17908   */\n      swap1\n      pop\n        /* \"#utility.yul\":17548:17914   */\n      swap2\n      swap1\n      pop\n      jump\t// out\n        /* \"#utility.yul\":17920:18339   */\n    tag_89:\n        /* \"#utility.yul\":18086:18090   */\n      0x00\n        /* \"#utility.yul\":18124:18126   */\n      0x20\n        /* \"#utility.yul\":18113:18122   */\n      dup3\n        /* \"#utility.yul\":18109:18127   */\n      add\n        /* \"#utility.yul\":18101:18127   */\n      swap1\n      pop\n        /* \"#utility.yul\":18173:18182   */\n      dup2\n        /* \"#utility.yul\":18167:18171   */\n      dup2\n        /* \"#utility.yul\":18163:18183   */\n      sub\n        /* \"#utility.yul\":18159:18160   */\n      0x00\n        /* \"#utility.yul\":18148:18157   */\n      dup4\n        /* \"#utility.yul\":18144:18161   */\n      add\n        /* \"#utility.yul\":18137:18184   */\n      mstore\n        /* \"#utility.yul\":18201:18332   */\n      tag_334\n        /* \"#utility.yul\":18327:18331   */\n      dup2\n        /* \"#utility.yul\":18201:18332   */\n      tag_170\n      jump\t// in\n    tag_334:\n        /* \"#utility.yul\":18193:18332   */\n      swap1\n      pop\n        /* \"#utility.yul\":17920:18339   */\n      swap2\n      swap1\n      pop\n      jump\t// out\n        /* \"#utility.yul\":18345:18519   */\n    tag_171:\n        /* \"#utility.yul\":18485:18511   */\n      0x6f6e6c79206f7765722063616e20676976652072696768740000000000000000\n        /* \"#utility.yul\":18481:18482   */\n      0x00\n        /* \"#utility.yul\":18473:18479   */\n      dup3\n        /* \"#utility.yul\":18469:18483   */\n      add\n        /* \"#utility.yul\":18462:18512   */\n      mstore\n        /* \"#utility.yul\":18345:18519   */\n      pop\n      jump\t// out\n        /* \"#utility.yul\":18525:18891   */\n    tag_172:\n        /* \"#utility.yul\":18667:18670   */\n      0x00\n        /* \"#utility.yul\":18688:18755   */\n      tag_337\n        /* \"#utility.yul\":18752:18754   */\n      0x18\n        /* \"#utility.yul\":18747:18750   */\n      dup4\n        /* \"#utility.yul\":18688:18755   */\n      tag_127\n      jump\t// in\n    tag_337:\n        /* \"#utility.yul\":18681:18755   */\n      swap2\n      pop\n        /* \"#utility.yul\":18764:18857   */\n      tag_338\n        /* \"#utility.yul\":18853:18856   */\n      dup3\n        /* \"#utility.yul\":18764:18857   */\n      tag_171\n      jump\t// in\n    tag_338:\n        /* \"#utility.yul\":18882:18884   */\n      0x20\n        /* \"#utility.yul\":18877:18880   */\n      dup3\n        /* \"#utility.yul\":18873:18885   */\n      add\n        /* \"#utility.yul\":18866:18885   */\n      swap1\n      pop\n        /* \"#utility.yul\":18525:18891   */\n      swap2\n      swap1\n      pop\n      jump\t// out\n        /* \"#utility.yul\":18897:19316   */\n    tag_111:\n        /* \"#utility.yul\":19063:19067   */\n      0x00\n        /* \"#utility.yul\":19101:19103   */\n      0x20\n        /* \"#utility.yul\":19090:19099   */\n      dup3\n        /* \"#utility.yul\":19086:19104   */\n      add\n        /* \"#utility.yul\":19078:19104   */\n      swap1\n      pop\n        /* \"#utility.yul\":19150:19159   */\n      dup2\n        /* \"#utility.yul\":19144:19148   */\n      dup2\n        /* \"#utility.yul\":19140:19160   */\n      sub\n        /* \"#utility.yul\":19136:19137   */\n      0x00\n        /* \"#utility.yul\":19125:19134   */\n      dup4\n        /* \"#utility.yul\":19121:19138   */\n      add\n        /* \"#utility.yul\":19114:19161   */\n      mstore\n        /* \"#utility.yul\":19178:19309   */\n      tag_340\n        /* \"#utility.yul\":19304:19308   */\n      dup2\n        /* \"#utility.yul\":19178:19309   */\n      tag_172\n      jump\t// in\n    tag_340:\n        /* \"#utility.yul\":19170:19309   */\n      swap1\n      pop\n        /* \"#utility.yul\":18897:19316   */\n      swap2\n      swap1\n      pop\n      jump\t// out\n\n    auxdata: 0xa264697066735822122002f6419e4e4edd0d5192e2c56b4b334fc4d6f229d5c5a184b19d3aa68746d0e264736f6c634300081c0033\n}\n",
				"bytecode": {
					"linkReferences": {},
					"object": "608060405234801561000f575f5ffd5b50604051611ad7380380611ad7833981810160405281019061003191906103a1565b335f5f6101000a81548173ffffffffffffffffffffffffffffffffffffffff021916908373ffffffffffffffffffffffffffffffffffffffff1602179055506001805f5f5f9054906101000a900473ffffffffffffffffffffffffffffffffffffffff1673ffffffffffffffffffffffffffffffffffffffff1673ffffffffffffffffffffffffffffffffffffffff1681526020019081526020015f205f01819055505f5f90505b815181101561016b575f6040518060400160405280848481518110610101576101006103e8565b5b602002602001015181526020015f8152509050600281908060018154018082558091505060019003905f5260205f2090600202015f909190919091505f820151815f0190816101509190610625565b506020820151816001015550505080806001019150506100d9565b50506106f4565b5f604051905090565b5f5ffd5b5f5ffd5b5f5ffd5b5f601f19601f8301169050919050565b7f4e487b71000000000000000000000000000000000000000000000000000000005f52604160045260245ffd5b6101cd82610187565b810181811067ffffffffffffffff821117156101ec576101eb610197565b5b80604052505050565b5f6101fe610172565b905061020a82826101c4565b919050565b5f67ffffffffffffffff82111561022957610228610197565b5b602082029050602081019050919050565b5f5ffd5b5f5ffd5b5f67ffffffffffffffff82111561025c5761025b610197565b5b61026582610187565b9050602081019050919050565b8281835e5f83830152505050565b5f61029261028d84610242565b6101f5565b9050828152602081018484840111156102ae576102ad61023e565b5b6102b9848285610272565b509392505050565b5f82601f8301126102d5576102d4610183565b5b81516102e5848260208601610280565b91505092915050565b5f6103006102fb8461020f565b6101f5565b905080838252602082019050602084028301858111156103235761032261023a565b5b835b8181101561036a57805167ffffffffffffffff81111561034857610347610183565b5b80860161035589826102c1565b85526020850194505050602081019050610325565b5050509392505050565b5f82601f83011261038857610387610183565b5b81516103988482602086016102ee565b91505092915050565b5f602082840312156103b6576103b561017b565b5b5f82015167ffffffffffffffff8111156103d3576103d261017f565b5b6103df84828501610374565b91505092915050565b7f4e487b71000000000000000000000000000000000000000000000000000000005f52603260045260245ffd5b5f81519050919050565b7f4e487b71000000000000000000000000000000000000000000000000000000005f52602260045260245ffd5b5f600282049050600182168061046357607f821691505b6020821081036104765761047561041f565b5b50919050565b5f819050815f5260205f209050919050565b5f6020601f8301049050919050565b5f82821b905092915050565b5f600883026104d87fffffffffffffffffffffffffffffffffffffffffffffffffffffffffffffffff8261049d565b6104e2868361049d565b95508019841693508086168417925050509392505050565b5f819050919050565b5f819050919050565b5f61052661052161051c846104fa565b610503565b6104fa565b9050919050565b5f819050919050565b61053f8361050c565b61055361054b8261052d565b8484546104a9565b825550505050565b5f5f905090565b61056a61055b565b610575818484610536565b505050565b5b818110156105985761058d5f82610562565b60018101905061057b565b5050565b601f8211156105dd576105ae8161047c565b6105b78461048e565b810160208510156105c6578190505b6105da6105d28561048e565b83018261057a565b50505b505050565b5f82821c905092915050565b5f6105fd5f19846008026105e2565b1980831691505092915050565b5f61061583836105ee565b9150826002028217905092915050565b61062e82610415565b67ffffffffffffffff81111561064757610646610197565b5b610651825461044c565b61065c82828561059c565b5f60209050601f83116001811461068d575f841561067b578287015190505b610685858261060a565b8655506106ec565b601f19841661069b8661047c565b5f5b828110156106c25784890151825560018201915060208501945060208101905061069d565b868310156106df57848901516106db601f8916826105ee565b8355505b6001600288020188555050505b505050505050565b6113d6806107015f395ff3fe608060405234801561000f575f5ffd5b5060043610610086575f3560e01c80635c19a95c116100595780635c19a95c14610113578063609ff1bd1461012f578063858168291461014d578063a3ec138d1461016957610086565b80630121b93f1461008a578063013cf08b146100a65780632e4176cf146100d757806344389524146100f5575b5f5ffd5b6100a4600480360381019061009f9190610af0565b61019c565b005b6100c060048036038101906100bb9190610af0565b61030c565b6040516100ce929190610b9a565b60405180910390f35b6100df6103c1565b6040516100ec9190610c07565b60405180910390f35b6100fd6103e5565b60405161010a9190610d6c565b60405180910390f35b61012d60048036038101906101289190610db6565b6104da565b005b61013761085f565b6040516101449190610de1565b60405180910390f35b61016760048036038101906101629190610f3a565b6108dd565b005b610183600480360381019061017e9190610db6565b610a54565b6040516101939493929190610f9b565b60405180910390f35b5f60015f3373ffffffffffffffffffffffffffffffffffffffff1673ffffffffffffffffffffffffffffffffffffffff1681526020019081526020015f2090505f815f015403610221576040517f08c379a000000000000000000000000000000000000000000000000000000000815260040161021890611028565b60405180910390fd5b806001015f9054906101000a900460ff1615610272576040517f08c379a000000000000000000000000000000000000000000000000000000000815260040161026990611090565b60405180910390fd5b6001816001015f6101000a81548160ff021916908315150217905550818160020181905550805f0154600283815481106102af576102ae6110ae565b5b905f5260205f2090600202016001015f8282546102cc9190611108565b925050819055507f71811a05f98c0d6a3ee4d373e7d62d53422d5baf858d802816efce275df7d3fa60405161030090611185565b60405180910390a15050565b6002818154811061031b575f80fd5b905f5260205f2090600202015f91509050805f01805461033a906111d0565b80601f0160208091040260200160405190810160405280929190818152602001828054610366906111d0565b80156103b15780601f10610388576101008083540402835291602001916103b1565b820191905f5260205f20905b81548152906001019060200180831161039457829003601f168201915b5050505050908060010154905082565b5f5f9054906101000a900473ffffffffffffffffffffffffffffffffffffffff1681565b60606002805480602002602001604051908101604052809291908181526020015f905b828210156104d1578382905f5260205f2090600202016040518060400160405290815f82018054610438906111d0565b80601f0160208091040260200160405190810160405280929190818152602001828054610464906111d0565b80156104af5780601f10610486576101008083540402835291602001916104af565b820191905f5260205f20905b81548152906001019060200180831161049257829003601f168201915b5050505050815260200160018201548152505081526020019060010190610408565b50505050905090565b5f60015f3373ffffffffffffffffffffffffffffffffffffffff1673ffffffffffffffffffffffffffffffffffffffff1681526020019081526020015f209050806001015f9054906101000a900460ff161561056b576040517f08c379a00000000000000000000000000000000000000000000000000000000081526004016105629061124a565b60405180910390fd5b8173ffffffffffffffffffffffffffffffffffffffff163373ffffffffffffffffffffffffffffffffffffffff16036105d9576040517f08c379a00000000000000000000000000000000000000000000000000000000081526004016105d0906112b2565b60405180910390fd5b5b5f73ffffffffffffffffffffffffffffffffffffffff1660015f8473ffffffffffffffffffffffffffffffffffffffff1673ffffffffffffffffffffffffffffffffffffffff1681526020019081526020015f2060010160019054906101000a900473ffffffffffffffffffffffffffffffffffffffff1673ffffffffffffffffffffffffffffffffffffffff16146107435760015f8373ffffffffffffffffffffffffffffffffffffffff1673ffffffffffffffffffffffffffffffffffffffff1681526020019081526020015f2060010160019054906101000a900473ffffffffffffffffffffffffffffffffffffffff1691503373ffffffffffffffffffffffffffffffffffffffff168273ffffffffffffffffffffffffffffffffffffffff161461073e576040517f08c379a00000000000000000000000000000000000000000000000000000000081526004016107359061131a565b60405180910390fd5b6105da565b6001816001015f6101000a81548160ff021916908315150217905550818160010160016101000a81548173ffffffffffffffffffffffffffffffffffffffff021916908373ffffffffffffffffffffffffffffffffffffffff1602179055505f60015f8473ffffffffffffffffffffffffffffffffffffffff1673ffffffffffffffffffffffffffffffffffffffff1681526020019081526020015f209050806001015f9054906101000a900460ff161561083d57815f01546002826002015481548110610814576108136110ae565b5b905f5260205f2090600202016001015f8282546108319190611108565b9250508190555061085a565b815f0154815f015f8282546108529190611108565b925050819055505b505050565b5f5f5f90505f5f90505b6002805490508110156108d857816002828154811061088b5761088a6110ae565b5b905f5260205f2090600202016001015411156108cb57600281815481106108b5576108b46110ae565b5b905f5260205f2090600202016001015491508092505b8080600101915050610869565b505090565b5f5f9054906101000a900473ffffffffffffffffffffffffffffffffffffffff1673ffffffffffffffffffffffffffffffffffffffff163373ffffffffffffffffffffffffffffffffffffffff161461096b576040517f08c379a000000000000000000000000000000000000000000000000000000000815260040161096290611382565b60405180910390fd5b5f5f90505b8151811015610a505760015f83838151811061098f5761098e6110ae565b5b602002602001015173ffffffffffffffffffffffffffffffffffffffff1673ffffffffffffffffffffffffffffffffffffffff1681526020019081526020015f206001015f9054906101000a900460ff16610a43576001805f8484815181106109fb576109fa6110ae565b5b602002602001015173ffffffffffffffffffffffffffffffffffffffff1673ffffffffffffffffffffffffffffffffffffffff1681526020019081526020015f205f01819055505b8080600101915050610970565b5050565b6001602052805f5260405f205f91509050805f015490806001015f9054906101000a900460ff16908060010160019054906101000a900473ffffffffffffffffffffffffffffffffffffffff16908060020154905084565b5f604051905090565b5f5ffd5b5f5ffd5b5f819050919050565b610acf81610abd565b8114610ad9575f5ffd5b50565b5f81359050610aea81610ac6565b92915050565b5f60208284031215610b0557610b04610ab5565b5b5f610b1284828501610adc565b91505092915050565b5f81519050919050565b5f82825260208201905092915050565b8281835e5f83830152505050565b5f601f19601f8301169050919050565b5f610b5d82610b1b565b610b678185610b25565b9350610b77818560208601610b35565b610b8081610b43565b840191505092915050565b610b9481610abd565b82525050565b5f6040820190508181035f830152610bb28185610b53565b9050610bc16020830184610b8b565b9392505050565b5f73ffffffffffffffffffffffffffffffffffffffff82169050919050565b5f610bf182610bc8565b9050919050565b610c0181610be7565b82525050565b5f602082019050610c1a5f830184610bf8565b92915050565b5f81519050919050565b5f82825260208201905092915050565b5f819050602082019050919050565b5f82825260208201905092915050565b5f610c6382610b1b565b610c6d8185610c49565b9350610c7d818560208601610b35565b610c8681610b43565b840191505092915050565b610c9a81610abd565b82525050565b5f604083015f8301518482035f860152610cba8282610c59565b9150506020830151610ccf6020860182610c91565b508091505092915050565b5f610ce58383610ca0565b905092915050565b5f602082019050919050565b5f610d0382610c20565b610d0d8185610c2a565b935083602082028501610d1f85610c3a565b805f5b85811015610d5a5784840389528151610d3b8582610cda565b9450610d4683610ced565b925060208a01995050600181019050610d22565b50829750879550505050505092915050565b5f6020820190508181035f830152610d848184610cf9565b905092915050565b610d9581610be7565b8114610d9f575f5ffd5b50565b5f81359050610db081610d8c565b92915050565b5f60208284031215610dcb57610dca610ab5565b5b5f610dd884828501610da2565b91505092915050565b5f602082019050610df45f830184610b8b565b92915050565b5f5ffd5b7f4e487b71000000000000000000000000000000000000000000000000000000005f52604160045260245ffd5b610e3482610b43565b810181811067ffffffffffffffff82111715610e5357610e52610dfe565b5b80604052505050565b5f610e65610aac565b9050610e718282610e2b565b919050565b5f67ffffffffffffffff821115610e9057610e8f610dfe565b5b602082029050602081019050919050565b5f5ffd5b5f610eb7610eb284610e76565b610e5c565b90508083825260208201905060208402830185811115610eda57610ed9610ea1565b5b835b81811015610f035780610eef8882610da2565b845260208401935050602081019050610edc565b5050509392505050565b5f82601f830112610f2157610f20610dfa565b5b8135610f31848260208601610ea5565b91505092915050565b5f60208284031215610f4f57610f4e610ab5565b5b5f82013567ffffffffffffffff811115610f6c57610f6b610ab9565b5b610f7884828501610f0d565b91505092915050565b5f8115159050919050565b610f9581610f81565b82525050565b5f608082019050610fae5f830187610b8b565b610fbb6020830186610f8c565b610fc86040830185610bf8565b610fd56060830184610b8b565b95945050505050565b7f486173206e6f20726967687420746f20766f74650000000000000000000000005f82015250565b5f611012601483610b25565b915061101d82610fde565b602082019050919050565b5f6020820190508181035f83015261103f81611006565b9050919050565b7f416c726561647920766f7465642e0000000000000000000000000000000000005f82015250565b5f61107a600e83610b25565b915061108582611046565b602082019050919050565b5f6020820190508181035f8301526110a78161106e565b9050919050565b7f4e487b71000000000000000000000000000000000000000000000000000000005f52603260045260245ffd5b7f4e487b71000000000000000000000000000000000000000000000000000000005f52601160045260245ffd5b5f61111282610abd565b915061111d83610abd565b9250828201905080821115611135576111346110db565b5b92915050565b7fe68a95e7a5a8e68890e58a9f00000000000000000000000000000000000000005f82015250565b5f61116f600c83610b25565b915061117a8261113b565b602082019050919050565b5f6020820190508181035f83015261119c81611163565b9050919050565b7f4e487b71000000000000000000000000000000000000000000000000000000005f52602260045260245ffd5b5f60028204905060018216806111e757607f821691505b6020821081036111fa576111f96111a3565b5b50919050565b7f796f7520616c726561647920766f7465640000000000000000000000000000005f82015250565b5f611234601183610b25565b915061123f82611200565b602082019050919050565b5f6020820190508181035f83015261126181611228565b9050919050565b7f73656c662064656c6567617465206973206e6f20616c6c6f77000000000000005f82015250565b5f61129c601983610b25565b91506112a782611268565b602082019050919050565b5f6020820190508181035f8301526112c981611290565b9050919050565b7f466f756e64206c6f6f7020696e2064656c6567657465000000000000000000005f82015250565b5f611304601683610b25565b915061130f826112d0565b602082019050919050565b5f6020820190508181035f830152611331816112f8565b9050919050565b7f6f6e6c79206f7765722063616e206769766520726967687400000000000000005f82015250565b5f61136c601883610b25565b915061137782611338565b602082019050919050565b5f6020820190508181035f83015261139981611360565b905091905056fea264697066735822122002f6419e4e4edd0d5192e2c56b4b334fc4d6f229d5c5a184b19d3aa68746d0e264736f6c634300081c0033",
					"opcodes": "PUSH1 0x80 PUSH1 0x40 MSTORE CALLVALUE DUP1 ISZERO PUSH2 0xF JUMPI PUSH0 PUSH0 REVERT JUMPDEST POP PUSH1 0x40 MLOAD PUSH2 0x1AD7 CODESIZE SUB DUP1 PUSH2 0x1AD7 DUP4 CODECOPY DUP2 DUP2 ADD PUSH1 0x40 MSTORE DUP2 ADD SWAP1 PUSH2 0x31 SWAP2 SWAP1 PUSH2 0x3A1 JUMP JUMPDEST CALLER PUSH0 PUSH0 PUSH2 0x100 EXP DUP2 SLOAD DUP2 PUSH20 0xFFFFFFFFFFFFFFFFFFFFFFFFFFFFFFFFFFFFFFFF MUL NOT AND SWAP1 DUP4 PUSH20 0xFFFFFFFFFFFFFFFFFFFFFFFFFFFFFFFFFFFFFFFF AND MUL OR SWAP1 SSTORE POP PUSH1 0x1 DUP1 PUSH0 PUSH0 PUSH0 SWAP1 SLOAD SWAP1 PUSH2 0x100 EXP SWAP1 DIV PUSH20 0xFFFFFFFFFFFFFFFFFFFFFFFFFFFFFFFFFFFFFFFF AND PUSH20 0xFFFFFFFFFFFFFFFFFFFFFFFFFFFFFFFFFFFFFFFF AND PUSH20 0xFFFFFFFFFFFFFFFFFFFFFFFFFFFFFFFFFFFFFFFF AND DUP2 MSTORE PUSH1 0x20 ADD SWAP1 DUP2 MSTORE PUSH1 0x20 ADD PUSH0 KECCAK256 PUSH0 ADD DUP2 SWAP1 SSTORE POP PUSH0 PUSH0 SWAP1 POP JUMPDEST DUP2 MLOAD DUP2 LT ISZERO PUSH2 0x16B JUMPI PUSH0 PUSH1 0x40 MLOAD DUP1 PUSH1 0x40 ADD PUSH1 0x40 MSTORE DUP1 DUP5 DUP5 DUP2 MLOAD DUP2 LT PUSH2 0x101 JUMPI PUSH2 0x100 PUSH2 0x3E8 JUMP JUMPDEST JUMPDEST PUSH1 0x20 MUL PUSH1 0x20 ADD ADD MLOAD DUP2 MSTORE PUSH1 0x20 ADD PUSH0 DUP2 MSTORE POP SWAP1 POP PUSH1 0x2 DUP2 SWAP1 DUP1 PUSH1 0x1 DUP2 SLOAD ADD DUP1 DUP3 SSTORE DUP1 SWAP2 POP POP PUSH1 0x1 SWAP1 SUB SWAP1 PUSH0 MSTORE PUSH1 0x20 PUSH0 KECCAK256 SWAP1 PUSH1 0x2 MUL ADD PUSH0 SWAP1 SWAP2 SWAP1 SWAP2 SWAP1 SWAP2 POP PUSH0 DUP3 ADD MLOAD DUP2 PUSH0 ADD SWAP1 DUP2 PUSH2 0x150 SWAP2 SWAP1 PUSH2 0x625 JUMP JUMPDEST POP PUSH1 0x20 DUP3 ADD MLOAD DUP2 PUSH1 0x1 ADD SSTORE POP POP POP DUP1 DUP1 PUSH1 0x1 ADD SWAP2 POP POP PUSH2 0xD9 JUMP JUMPDEST POP POP PUSH2 0x6F4 JUMP JUMPDEST PUSH0 PUSH1 0x40 MLOAD SWAP1 POP SWAP1 JUMP JUMPDEST PUSH0 PUSH0 REVERT JUMPDEST PUSH0 PUSH0 REVERT JUMPDEST PUSH0 PUSH0 REVERT JUMPDEST PUSH0 PUSH1 0x1F NOT PUSH1 0x1F DUP4 ADD AND SWAP1 POP SWAP2 SWAP1 POP JUMP JUMPDEST PUSH32 0x4E487B7100000000000000000000000000000000000000000000000000000000 PUSH0 MSTORE PUSH1 0x41 PUSH1 0x4 MSTORE PUSH1 0x24 PUSH0 REVERT JUMPDEST PUSH2 0x1CD DUP3 PUSH2 0x187 JUMP JUMPDEST DUP2 ADD DUP2 DUP2 LT PUSH8 0xFFFFFFFFFFFFFFFF DUP3 GT OR ISZERO PUSH2 0x1EC JUMPI PUSH2 0x1EB PUSH2 0x197 JUMP JUMPDEST JUMPDEST DUP1 PUSH1 0x40 MSTORE POP POP POP JUMP JUMPDEST PUSH0 PUSH2 0x1FE PUSH2 0x172 JUMP JUMPDEST SWAP1 POP PUSH2 0x20A DUP3 DUP3 PUSH2 0x1C4 JUMP JUMPDEST SWAP2 SWAP1 POP JUMP JUMPDEST PUSH0 PUSH8 0xFFFFFFFFFFFFFFFF DUP3 GT ISZERO PUSH2 0x229 JUMPI PUSH2 0x228 PUSH2 0x197 JUMP JUMPDEST JUMPDEST PUSH1 0x20 DUP3 MUL SWAP1 POP PUSH1 0x20 DUP2 ADD SWAP1 POP SWAP2 SWAP1 POP JUMP JUMPDEST PUSH0 PUSH0 REVERT JUMPDEST PUSH0 PUSH0 REVERT JUMPDEST PUSH0 PUSH8 0xFFFFFFFFFFFFFFFF DUP3 GT ISZERO PUSH2 0x25C JUMPI PUSH2 0x25B PUSH2 0x197 JUMP JUMPDEST JUMPDEST PUSH2 0x265 DUP3 PUSH2 0x187 JUMP JUMPDEST SWAP1 POP PUSH1 0x20 DUP2 ADD SWAP1 POP SWAP2 SWAP1 POP JUMP JUMPDEST DUP3 DUP2 DUP4 MCOPY PUSH0 DUP4 DUP4 ADD MSTORE POP POP POP JUMP JUMPDEST PUSH0 PUSH2 0x292 PUSH2 0x28D DUP5 PUSH2 0x242 JUMP JUMPDEST PUSH2 0x1F5 JUMP JUMPDEST SWAP1 POP DUP3 DUP2 MSTORE PUSH1 0x20 DUP2 ADD DUP5 DUP5 DUP5 ADD GT ISZERO PUSH2 0x2AE JUMPI PUSH2 0x2AD PUSH2 0x23E JUMP JUMPDEST JUMPDEST PUSH2 0x2B9 DUP5 DUP3 DUP6 PUSH2 0x272 JUMP JUMPDEST POP SWAP4 SWAP3 POP POP POP JUMP JUMPDEST PUSH0 DUP3 PUSH1 0x1F DUP4 ADD SLT PUSH2 0x2D5 JUMPI PUSH2 0x2D4 PUSH2 0x183 JUMP JUMPDEST JUMPDEST DUP2 MLOAD PUSH2 0x2E5 DUP5 DUP3 PUSH1 0x20 DUP7 ADD PUSH2 0x280 JUMP JUMPDEST SWAP2 POP POP SWAP3 SWAP2 POP POP JUMP JUMPDEST PUSH0 PUSH2 0x300 PUSH2 0x2FB DUP5 PUSH2 0x20F JUMP JUMPDEST PUSH2 0x1F5 JUMP JUMPDEST SWAP1 POP DUP1 DUP4 DUP3 MSTORE PUSH1 0x20 DUP3 ADD SWAP1 POP PUSH1 0x20 DUP5 MUL DUP4 ADD DUP6 DUP2 GT ISZERO PUSH2 0x323 JUMPI PUSH2 0x322 PUSH2 0x23A JUMP JUMPDEST JUMPDEST DUP4 JUMPDEST DUP2 DUP2 LT ISZERO PUSH2 0x36A JUMPI DUP1 MLOAD PUSH8 0xFFFFFFFFFFFFFFFF DUP2 GT ISZERO PUSH2 0x348 JUMPI PUSH2 0x347 PUSH2 0x183 JUMP JUMPDEST JUMPDEST DUP1 DUP7 ADD PUSH2 0x355 DUP10 DUP3 PUSH2 0x2C1 JUMP JUMPDEST DUP6 MSTORE PUSH1 0x20 DUP6 ADD SWAP5 POP POP POP PUSH1 0x20 DUP2 ADD SWAP1 POP PUSH2 0x325 JUMP JUMPDEST POP POP POP SWAP4 SWAP3 POP POP POP JUMP JUMPDEST PUSH0 DUP3 PUSH1 0x1F DUP4 ADD SLT PUSH2 0x388 JUMPI PUSH2 0x387 PUSH2 0x183 JUMP JUMPDEST JUMPDEST DUP2 MLOAD PUSH2 0x398 DUP5 DUP3 PUSH1 0x20 DUP7 ADD PUSH2 0x2EE JUMP JUMPDEST SWAP2 POP POP SWAP3 SWAP2 POP POP JUMP JUMPDEST PUSH0 PUSH1 0x20 DUP3 DUP5 SUB SLT ISZERO PUSH2 0x3B6 JUMPI PUSH2 0x3B5 PUSH2 0x17B JUMP JUMPDEST JUMPDEST PUSH0 DUP3 ADD MLOAD PUSH8 0xFFFFFFFFFFFFFFFF DUP2 GT ISZERO PUSH2 0x3D3 JUMPI PUSH2 0x3D2 PUSH2 0x17F JUMP JUMPDEST JUMPDEST PUSH2 0x3DF DUP5 DUP3 DUP6 ADD PUSH2 0x374 JUMP JUMPDEST SWAP2 POP POP SWAP3 SWAP2 POP POP JUMP JUMPDEST PUSH32 0x4E487B7100000000000000000000000000000000000000000000000000000000 PUSH0 MSTORE PUSH1 0x32 PUSH1 0x4 MSTORE PUSH1 0x24 PUSH0 REVERT JUMPDEST PUSH0 DUP2 MLOAD SWAP1 POP SWAP2 SWAP1 POP JUMP JUMPDEST PUSH32 0x4E487B7100000000000000000000000000000000000000000000000000000000 PUSH0 MSTORE PUSH1 0x22 PUSH1 0x4 MSTORE PUSH1 0x24 PUSH0 REVERT JUMPDEST PUSH0 PUSH1 0x2 DUP3 DIV SWAP1 POP PUSH1 0x1 DUP3 AND DUP1 PUSH2 0x463 JUMPI PUSH1 0x7F DUP3 AND SWAP2 POP JUMPDEST PUSH1 0x20 DUP3 LT DUP2 SUB PUSH2 0x476 JUMPI PUSH2 0x475 PUSH2 0x41F JUMP JUMPDEST JUMPDEST POP SWAP2 SWAP1 POP JUMP JUMPDEST PUSH0 DUP2 SWAP1 POP DUP2 PUSH0 MSTORE PUSH1 0x20 PUSH0 KECCAK256 SWAP1 POP SWAP2 SWAP1 POP JUMP JUMPDEST PUSH0 PUSH1 0x20 PUSH1 0x1F DUP4 ADD DIV SWAP1 POP SWAP2 SWAP1 POP JUMP JUMPDEST PUSH0 DUP3 DUP3 SHL SWAP1 POP SWAP3 SWAP2 POP POP JUMP JUMPDEST PUSH0 PUSH1 0x8 DUP4 MUL PUSH2 0x4D8 PUSH32 0xFFFFFFFFFFFFFFFFFFFFFFFFFFFFFFFFFFFFFFFFFFFFFFFFFFFFFFFFFFFFFFFF DUP3 PUSH2 0x49D JUMP JUMPDEST PUSH2 0x4E2 DUP7 DUP4 PUSH2 0x49D JUMP JUMPDEST SWAP6 POP DUP1 NOT DUP5 AND SWAP4 POP DUP1 DUP7 AND DUP5 OR SWAP3 POP POP POP SWAP4 SWAP3 POP POP POP JUMP JUMPDEST PUSH0 DUP2 SWAP1 POP SWAP2 SWAP1 POP JUMP JUMPDEST PUSH0 DUP2 SWAP1 POP SWAP2 SWAP1 POP JUMP JUMPDEST PUSH0 PUSH2 0x526 PUSH2 0x521 PUSH2 0x51C DUP5 PUSH2 0x4FA JUMP JUMPDEST PUSH2 0x503 JUMP JUMPDEST PUSH2 0x4FA JUMP JUMPDEST SWAP1 POP SWAP2 SWAP1 POP JUMP JUMPDEST PUSH0 DUP2 SWAP1 POP SWAP2 SWAP1 POP JUMP JUMPDEST PUSH2 0x53F DUP4 PUSH2 0x50C JUMP JUMPDEST PUSH2 0x553 PUSH2 0x54B DUP3 PUSH2 0x52D JUMP JUMPDEST DUP5 DUP5 SLOAD PUSH2 0x4A9 JUMP JUMPDEST DUP3 SSTORE POP POP POP POP JUMP JUMPDEST PUSH0 PUSH0 SWAP1 POP SWAP1 JUMP JUMPDEST PUSH2 0x56A PUSH2 0x55B JUMP JUMPDEST PUSH2 0x575 DUP2 DUP5 DUP5 PUSH2 0x536 JUMP JUMPDEST POP POP POP JUMP JUMPDEST JUMPDEST DUP2 DUP2 LT ISZERO PUSH2 0x598 JUMPI PUSH2 0x58D PUSH0 DUP3 PUSH2 0x562 JUMP JUMPDEST PUSH1 0x1 DUP2 ADD SWAP1 POP PUSH2 0x57B JUMP JUMPDEST POP POP JUMP JUMPDEST PUSH1 0x1F DUP3 GT ISZERO PUSH2 0x5DD JUMPI PUSH2 0x5AE DUP2 PUSH2 0x47C JUMP JUMPDEST PUSH2 0x5B7 DUP5 PUSH2 0x48E JUMP JUMPDEST DUP2 ADD PUSH1 0x20 DUP6 LT ISZERO PUSH2 0x5C6 JUMPI DUP2 SWAP1 POP JUMPDEST PUSH2 0x5DA PUSH2 0x5D2 DUP6 PUSH2 0x48E JUMP JUMPDEST DUP4 ADD DUP3 PUSH2 0x57A JUMP JUMPDEST POP POP JUMPDEST POP POP POP JUMP JUMPDEST PUSH0 DUP3 DUP3 SHR SWAP1 POP SWAP3 SWAP2 POP POP JUMP JUMPDEST PUSH0 PUSH2 0x5FD PUSH0 NOT DUP5 PUSH1 0x8 MUL PUSH2 0x5E2 JUMP JUMPDEST NOT DUP1 DUP4 AND SWAP2 POP POP SWAP3 SWAP2 POP POP JUMP JUMPDEST PUSH0 PUSH2 0x615 DUP4 DUP4 PUSH2 0x5EE JUMP JUMPDEST SWAP2 POP DUP3 PUSH1 0x2 MUL DUP3 OR SWAP1 POP SWAP3 SWAP2 POP POP JUMP JUMPDEST PUSH2 0x62E DUP3 PUSH2 0x415 JUMP JUMPDEST PUSH8 0xFFFFFFFFFFFFFFFF DUP2 GT ISZERO PUSH2 0x647 JUMPI PUSH2 0x646 PUSH2 0x197 JUMP JUMPDEST JUMPDEST PUSH2 0x651 DUP3 SLOAD PUSH2 0x44C JUMP JUMPDEST PUSH2 0x65C DUP3 DUP3 DUP6 PUSH2 0x59C JUMP JUMPDEST PUSH0 PUSH1 0x20 SWAP1 POP PUSH1 0x1F DUP4 GT PUSH1 0x1 DUP2 EQ PUSH2 0x68D JUMPI PUSH0 DUP5 ISZERO PUSH2 0x67B JUMPI DUP3 DUP8 ADD MLOAD SWAP1 POP JUMPDEST PUSH2 0x685 DUP6 DUP3 PUSH2 0x60A JUMP JUMPDEST DUP7 SSTORE POP PUSH2 0x6EC JUMP JUMPDEST PUSH1 0x1F NOT DUP5 AND PUSH2 0x69B DUP7 PUSH2 0x47C JUMP JUMPDEST PUSH0 JUMPDEST DUP3 DUP2 LT ISZERO PUSH2 0x6C2 JUMPI DUP5 DUP10 ADD MLOAD DUP3 SSTORE PUSH1 0x1 DUP3 ADD SWAP2 POP PUSH1 0x20 DUP6 ADD SWAP5 POP PUSH1 0x20 DUP2 ADD SWAP1 POP PUSH2 0x69D JUMP JUMPDEST DUP7 DUP4 LT ISZERO PUSH2 0x6DF JUMPI DUP5 DUP10 ADD MLOAD PUSH2 0x6DB PUSH1 0x1F DUP10 AND DUP3 PUSH2 0x5EE JUMP JUMPDEST DUP4 SSTORE POP JUMPDEST PUSH1 0x1 PUSH1 0x2 DUP9 MUL ADD DUP9 SSTORE POP POP POP JUMPDEST POP POP POP POP POP POP JUMP JUMPDEST PUSH2 0x13D6 DUP1 PUSH2 0x701 PUSH0 CODECOPY PUSH0 RETURN INVALID PUSH1 0x80 PUSH1 0x40 MSTORE CALLVALUE DUP1 ISZERO PUSH2 0xF JUMPI PUSH0 PUSH0 REVERT JUMPDEST POP PUSH1 0x4 CALLDATASIZE LT PUSH2 0x86 JUMPI PUSH0 CALLDATALOAD PUSH1 0xE0 SHR DUP1 PUSH4 0x5C19A95C GT PUSH2 0x59 JUMPI DUP1 PUSH4 0x5C19A95C EQ PUSH2 0x113 JUMPI DUP1 PUSH4 0x609FF1BD EQ PUSH2 0x12F JUMPI DUP1 PUSH4 0x85816829 EQ PUSH2 0x14D JUMPI DUP1 PUSH4 0xA3EC138D EQ PUSH2 0x169 JUMPI PUSH2 0x86 JUMP JUMPDEST DUP1 PUSH4 0x121B93F EQ PUSH2 0x8A JUMPI DUP1 PUSH4 0x13CF08B EQ PUSH2 0xA6 JUMPI DUP1 PUSH4 0x2E4176CF EQ PUSH2 0xD7 JUMPI DUP1 PUSH4 0x44389524 EQ PUSH2 0xF5 JUMPI JUMPDEST PUSH0 PUSH0 REVERT JUMPDEST PUSH2 0xA4 PUSH1 0x4 DUP1 CALLDATASIZE SUB DUP2 ADD SWAP1 PUSH2 0x9F SWAP2 SWAP1 PUSH2 0xAF0 JUMP JUMPDEST PUSH2 0x19C JUMP JUMPDEST STOP JUMPDEST PUSH2 0xC0 PUSH1 0x4 DUP1 CALLDATASIZE SUB DUP2 ADD SWAP1 PUSH2 0xBB SWAP2 SWAP1 PUSH2 0xAF0 JUMP JUMPDEST PUSH2 0x30C JUMP JUMPDEST PUSH1 0x40 MLOAD PUSH2 0xCE SWAP3 SWAP2 SWAP1 PUSH2 0xB9A JUMP JUMPDEST PUSH1 0x40 MLOAD DUP1 SWAP2 SUB SWAP1 RETURN JUMPDEST PUSH2 0xDF PUSH2 0x3C1 JUMP JUMPDEST PUSH1 0x40 MLOAD PUSH2 0xEC SWAP2 SWAP1 PUSH2 0xC07 JUMP JUMPDEST PUSH1 0x40 MLOAD DUP1 SWAP2 SUB SWAP1 RETURN JUMPDEST PUSH2 0xFD PUSH2 0x3E5 JUMP JUMPDEST PUSH1 0x40 MLOAD PUSH2 0x10A SWAP2 SWAP1 PUSH2 0xD6C JUMP JUMPDEST PUSH1 0x40 MLOAD DUP1 SWAP2 SUB SWAP1 RETURN JUMPDEST PUSH2 0x12D PUSH1 0x4 DUP1 CALLDATASIZE SUB DUP2 ADD SWAP1 PUSH2 0x128 SWAP2 SWAP1 PUSH2 0xDB6 JUMP JUMPDEST PUSH2 0x4DA JUMP JUMPDEST STOP JUMPDEST PUSH2 0x137 PUSH2 0x85F JUMP JUMPDEST PUSH1 0x40 MLOAD PUSH2 0x144 SWAP2 SWAP1 PUSH2 0xDE1 JUMP JUMPDEST PUSH1 0x40 MLOAD DUP1 SWAP2 SUB SWAP1 RETURN JUMPDEST PUSH2 0x167 PUSH1 0x4 DUP1 CALLDATASIZE SUB DUP2 ADD SWAP1 PUSH2 0x162 SWAP2 SWAP1 PUSH2 0xF3A JUMP JUMPDEST PUSH2 0x8DD JUMP JUMPDEST STOP JUMPDEST PUSH2 0x183 PUSH1 0x4 DUP1 CALLDATASIZE SUB DUP2 ADD SWAP1 PUSH2 0x17E SWAP2 SWAP1 PUSH2 0xDB6 JUMP JUMPDEST PUSH2 0xA54 JUMP JUMPDEST PUSH1 0x40 MLOAD PUSH2 0x193 SWAP5 SWAP4 SWAP3 SWAP2 SWAP1 PUSH2 0xF9B JUMP JUMPDEST PUSH1 0x40 MLOAD DUP1 SWAP2 SUB SWAP1 RETURN JUMPDEST PUSH0 PUSH1 0x1 PUSH0 CALLER PUSH20 0xFFFFFFFFFFFFFFFFFFFFFFFFFFFFFFFFFFFFFFFF AND PUSH20 0xFFFFFFFFFFFFFFFFFFFFFFFFFFFFFFFFFFFFFFFF AND DUP2 MSTORE PUSH1 0x20 ADD SWAP1 DUP2 MSTORE PUSH1 0x20 ADD PUSH0 KECCAK256 SWAP1 POP PUSH0 DUP2 PUSH0 ADD SLOAD SUB PUSH2 0x221 JUMPI PUSH1 0x40 MLOAD PUSH32 0x8C379A000000000000000000000000000000000000000000000000000000000 DUP2 MSTORE PUSH1 0x4 ADD PUSH2 0x218 SWAP1 PUSH2 0x1028 JUMP JUMPDEST PUSH1 0x40 MLOAD DUP1 SWAP2 SUB SWAP1 REVERT JUMPDEST DUP1 PUSH1 0x1 ADD PUSH0 SWAP1 SLOAD SWAP1 PUSH2 0x100 EXP SWAP1 DIV PUSH1 0xFF AND ISZERO PUSH2 0x272 JUMPI PUSH1 0x40 MLOAD PUSH32 0x8C379A000000000000000000000000000000000000000000000000000000000 DUP2 MSTORE PUSH1 0x4 ADD PUSH2 0x269 SWAP1 PUSH2 0x1090 JUMP JUMPDEST PUSH1 0x40 MLOAD DUP1 SWAP2 SUB SWAP1 REVERT JUMPDEST PUSH1 0x1 DUP2 PUSH1 0x1 ADD PUSH0 PUSH2 0x100 EXP DUP2 SLOAD DUP2 PUSH1 0xFF MUL NOT AND SWAP1 DUP4 ISZERO ISZERO MUL OR SWAP1 SSTORE POP DUP2 DUP2 PUSH1 0x2 ADD DUP2 SWAP1 SSTORE POP DUP1 PUSH0 ADD SLOAD PUSH1 0x2 DUP4 DUP2 SLOAD DUP2 LT PUSH2 0x2AF JUMPI PUSH2 0x2AE PUSH2 0x10AE JUMP JUMPDEST JUMPDEST SWAP1 PUSH0 MSTORE PUSH1 0x20 PUSH0 KECCAK256 SWAP1 PUSH1 0x2 MUL ADD PUSH1 0x1 ADD PUSH0 DUP3 DUP3 SLOAD PUSH2 0x2CC SWAP2 SWAP1 PUSH2 0x1108 JUMP JUMPDEST SWAP3 POP POP DUP2 SWAP1 SSTORE POP PUSH32 0x71811A05F98C0D6A3EE4D373E7D62D53422D5BAF858D802816EFCE275DF7D3FA PUSH1 0x40 MLOAD PUSH2 0x300 SWAP1 PUSH2 0x1185 JUMP JUMPDEST PUSH1 0x40 MLOAD DUP1 SWAP2 SUB SWAP1 LOG1 POP POP JUMP JUMPDEST PUSH1 0x2 DUP2 DUP2 SLOAD DUP2 LT PUSH2 0x31B JUMPI PUSH0 DUP1 REVERT JUMPDEST SWAP1 PUSH0 MSTORE PUSH1 0x20 PUSH0 KECCAK256 SWAP1 PUSH1 0x2 MUL ADD PUSH0 SWAP2 POP SWAP1 POP DUP1 PUSH0 ADD DUP1 SLOAD PUSH2 0x33A SWAP1 PUSH2 0x11D0 JUMP JUMPDEST DUP1 PUSH1 0x1F ADD PUSH1 0x20 DUP1 SWAP2 DIV MUL PUSH1 0x20 ADD PUSH1 0x40 MLOAD SWAP1 DUP2 ADD PUSH1 0x40 MSTORE DUP1 SWAP3 SWAP2 SWAP1 DUP2 DUP2 MSTORE PUSH1 0x20 ADD DUP3 DUP1 SLOAD PUSH2 0x366 SWAP1 PUSH2 0x11D0 JUMP JUMPDEST DUP1 ISZERO PUSH2 0x3B1 JUMPI DUP1 PUSH1 0x1F LT PUSH2 0x388 JUMPI PUSH2 0x100 DUP1 DUP4 SLOAD DIV MUL DUP4 MSTORE SWAP2 PUSH1 0x20 ADD SWAP2 PUSH2 0x3B1 JUMP JUMPDEST DUP3 ADD SWAP2 SWAP1 PUSH0 MSTORE PUSH1 0x20 PUSH0 KECCAK256 SWAP1 JUMPDEST DUP2 SLOAD DUP2 MSTORE SWAP1 PUSH1 0x1 ADD SWAP1 PUSH1 0x20 ADD DUP1 DUP4 GT PUSH2 0x394 JUMPI DUP3 SWAP1 SUB PUSH1 0x1F AND DUP3 ADD SWAP2 JUMPDEST POP POP POP POP POP SWAP1 DUP1 PUSH1 0x1 ADD SLOAD SWAP1 POP DUP3 JUMP JUMPDEST PUSH0 PUSH0 SWAP1 SLOAD SWAP1 PUSH2 0x100 EXP SWAP1 DIV PUSH20 0xFFFFFFFFFFFFFFFFFFFFFFFFFFFFFFFFFFFFFFFF AND DUP2 JUMP JUMPDEST PUSH1 0x60 PUSH1 0x2 DUP1 SLOAD DUP1 PUSH1 0x20 MUL PUSH1 0x20 ADD PUSH1 0x40 MLOAD SWAP1 DUP2 ADD PUSH1 0x40 MSTORE DUP1 SWAP3 SWAP2 SWAP1 DUP2 DUP2 MSTORE PUSH1 0x20 ADD PUSH0 SWAP1 JUMPDEST DUP3 DUP3 LT ISZERO PUSH2 0x4D1 JUMPI DUP4 DUP3 SWAP1 PUSH0 MSTORE PUSH1 0x20 PUSH0 KECCAK256 SWAP1 PUSH1 0x2 MUL ADD PUSH1 0x40 MLOAD DUP1 PUSH1 0x40 ADD PUSH1 0x40 MSTORE SWAP1 DUP2 PUSH0 DUP3 ADD DUP1 SLOAD PUSH2 0x438 SWAP1 PUSH2 0x11D0 JUMP JUMPDEST DUP1 PUSH1 0x1F ADD PUSH1 0x20 DUP1 SWAP2 DIV MUL PUSH1 0x20 ADD PUSH1 0x40 MLOAD SWAP1 DUP2 ADD PUSH1 0x40 MSTORE DUP1 SWAP3 SWAP2 SWAP1 DUP2 DUP2 MSTORE PUSH1 0x20 ADD DUP3 DUP1 SLOAD PUSH2 0x464 SWAP1 PUSH2 0x11D0 JUMP JUMPDEST DUP1 ISZERO PUSH2 0x4AF JUMPI DUP1 PUSH1 0x1F LT PUSH2 0x486 JUMPI PUSH2 0x100 DUP1 DUP4 SLOAD DIV MUL DUP4 MSTORE SWAP2 PUSH1 0x20 ADD SWAP2 PUSH2 0x4AF JUMP JUMPDEST DUP3 ADD SWAP2 SWAP1 PUSH0 MSTORE PUSH1 0x20 PUSH0 KECCAK256 SWAP1 JUMPDEST DUP2 SLOAD DUP2 MSTORE SWAP1 PUSH1 0x1 ADD SWAP1 PUSH1 0x20 ADD DUP1 DUP4 GT PUSH2 0x492 JUMPI DUP3 SWAP1 SUB PUSH1 0x1F AND DUP3 ADD SWAP2 JUMPDEST POP POP POP POP POP DUP2 MSTORE PUSH1 0x20 ADD PUSH1 0x1 DUP3 ADD SLOAD DUP2 MSTORE POP POP DUP2 MSTORE PUSH1 0x20 ADD SWAP1 PUSH1 0x1 ADD SWAP1 PUSH2 0x408 JUMP JUMPDEST POP POP POP POP SWAP1 POP SWAP1 JUMP JUMPDEST PUSH0 PUSH1 0x1 PUSH0 CALLER PUSH20 0xFFFFFFFFFFFFFFFFFFFFFFFFFFFFFFFFFFFFFFFF AND PUSH20 0xFFFFFFFFFFFFFFFFFFFFFFFFFFFFFFFFFFFFFFFF AND DUP2 MSTORE PUSH1 0x20 ADD SWAP1 DUP2 MSTORE PUSH1 0x20 ADD PUSH0 KECCAK256 SWAP1 POP DUP1 PUSH1 0x1 ADD PUSH0 SWAP1 SLOAD SWAP1 PUSH2 0x100 EXP SWAP1 DIV PUSH1 0xFF AND ISZERO PUSH2 0x56B JUMPI PUSH1 0x40 MLOAD PUSH32 0x8C379A000000000000000000000000000000000000000000000000000000000 DUP2 MSTORE PUSH1 0x4 ADD PUSH2 0x562 SWAP1 PUSH2 0x124A JUMP JUMPDEST PUSH1 0x40 MLOAD DUP1 SWAP2 SUB SWAP1 REVERT JUMPDEST DUP2 PUSH20 0xFFFFFFFFFFFFFFFFFFFFFFFFFFFFFFFFFFFFFFFF AND CALLER PUSH20 0xFFFFFFFFFFFFFFFFFFFFFFFFFFFFFFFFFFFFFFFF AND SUB PUSH2 0x5D9 JUMPI PUSH1 0x40 MLOAD PUSH32 0x8C379A000000000000000000000000000000000000000000000000000000000 DUP2 MSTORE PUSH1 0x4 ADD PUSH2 0x5D0 SWAP1 PUSH2 0x12B2 JUMP JUMPDEST PUSH1 0x40 MLOAD DUP1 SWAP2 SUB SWAP1 REVERT JUMPDEST JUMPDEST PUSH0 PUSH20 0xFFFFFFFFFFFFFFFFFFFFFFFFFFFFFFFFFFFFFFFF AND PUSH1 0x1 PUSH0 DUP5 PUSH20 0xFFFFFFFFFFFFFFFFFFFFFFFFFFFFFFFFFFFFFFFF AND PUSH20 0xFFFFFFFFFFFFFFFFFFFFFFFFFFFFFFFFFFFFFFFF AND DUP2 MSTORE PUSH1 0x20 ADD SWAP1 DUP2 MSTORE PUSH1 0x20 ADD PUSH0 KECCAK256 PUSH1 0x1 ADD PUSH1 0x1 SWAP1 SLOAD SWAP1 PUSH2 0x100 EXP SWAP1 DIV PUSH20 0xFFFFFFFFFFFFFFFFFFFFFFFFFFFFFFFFFFFFFFFF AND PUSH20 0xFFFFFFFFFFFFFFFFFFFFFFFFFFFFFFFFFFFFFFFF AND EQ PUSH2 0x743 JUMPI PUSH1 0x1 PUSH0 DUP4 PUSH20 0xFFFFFFFFFFFFFFFFFFFFFFFFFFFFFFFFFFFFFFFF AND PUSH20 0xFFFFFFFFFFFFFFFFFFFFFFFFFFFFFFFFFFFFFFFF AND DUP2 MSTORE PUSH1 0x20 ADD SWAP1 DUP2 MSTORE PUSH1 0x20 ADD PUSH0 KECCAK256 PUSH1 0x1 ADD PUSH1 0x1 SWAP1 SLOAD SWAP1 PUSH2 0x100 EXP SWAP1 DIV PUSH20 0xFFFFFFFFFFFFFFFFFFFFFFFFFFFFFFFFFFFFFFFF AND SWAP2 POP CALLER PUSH20 0xFFFFFFFFFFFFFFFFFFFFFFFFFFFFFFFFFFFFFFFF AND DUP3 PUSH20 0xFFFFFFFFFFFFFFFFFFFFFFFFFFFFFFFFFFFFFFFF AND EQ PUSH2 0x73E JUMPI PUSH1 0x40 MLOAD PUSH32 0x8C379A000000000000000000000000000000000000000000000000000000000 DUP2 MSTORE PUSH1 0x4 ADD PUSH2 0x735 SWAP1 PUSH2 0x131A JUMP JUMPDEST PUSH1 0x40 MLOAD DUP1 SWAP2 SUB SWAP1 REVERT JUMPDEST PUSH2 0x5DA JUMP JUMPDEST PUSH1 0x1 DUP2 PUSH1 0x1 ADD PUSH0 PUSH2 0x100 EXP DUP2 SLOAD DUP2 PUSH1 0xFF MUL NOT AND SWAP1 DUP4 ISZERO ISZERO MUL OR SWAP1 SSTORE POP DUP2 DUP2 PUSH1 0x1 ADD PUSH1 0x1 PUSH2 0x100 EXP DUP2 SLOAD DUP2 PUSH20 0xFFFFFFFFFFFFFFFFFFFFFFFFFFFFFFFFFFFFFFFF MUL NOT AND SWAP1 DUP4 PUSH20 0xFFFFFFFFFFFFFFFFFFFFFFFFFFFFFFFFFFFFFFFF AND MUL OR SWAP1 SSTORE POP PUSH0 PUSH1 0x1 PUSH0 DUP5 PUSH20 0xFFFFFFFFFFFFFFFFFFFFFFFFFFFFFFFFFFFFFFFF AND PUSH20 0xFFFFFFFFFFFFFFFFFFFFFFFFFFFFFFFFFFFFFFFF AND DUP2 MSTORE PUSH1 0x20 ADD SWAP1 DUP2 MSTORE PUSH1 0x20 ADD PUSH0 KECCAK256 SWAP1 POP DUP1 PUSH1 0x1 ADD PUSH0 SWAP1 SLOAD SWAP1 PUSH2 0x100 EXP SWAP1 DIV PUSH1 0xFF AND ISZERO PUSH2 0x83D JUMPI DUP2 PUSH0 ADD SLOAD PUSH1 0x2 DUP3 PUSH1 0x2 ADD SLOAD DUP2 SLOAD DUP2 LT PUSH2 0x814 JUMPI PUSH2 0x813 PUSH2 0x10AE JUMP JUMPDEST JUMPDEST SWAP1 PUSH0 MSTORE PUSH1 0x20 PUSH0 KECCAK256 SWAP1 PUSH1 0x2 MUL ADD PUSH1 0x1 ADD PUSH0 DUP3 DUP3 SLOAD PUSH2 0x831 SWAP2 SWAP1 PUSH2 0x1108 JUMP JUMPDEST SWAP3 POP POP DUP2 SWAP1 SSTORE POP PUSH2 0x85A JUMP JUMPDEST DUP2 PUSH0 ADD SLOAD DUP2 PUSH0 ADD PUSH0 DUP3 DUP3 SLOAD PUSH2 0x852 SWAP2 SWAP1 PUSH2 0x1108 JUMP JUMPDEST SWAP3 POP POP DUP2 SWAP1 SSTORE POP JUMPDEST POP POP POP JUMP JUMPDEST PUSH0 PUSH0 PUSH0 SWAP1 POP PUSH0 PUSH0 SWAP1 POP JUMPDEST PUSH1 0x2 DUP1 SLOAD SWAP1 POP DUP2 LT ISZERO PUSH2 0x8D8 JUMPI DUP2 PUSH1 0x2 DUP3 DUP2 SLOAD DUP2 LT PUSH2 0x88B JUMPI PUSH2 0x88A PUSH2 0x10AE JUMP JUMPDEST JUMPDEST SWAP1 PUSH0 MSTORE PUSH1 0x20 PUSH0 KECCAK256 SWAP1 PUSH1 0x2 MUL ADD PUSH1 0x1 ADD SLOAD GT ISZERO PUSH2 0x8CB JUMPI PUSH1 0x2 DUP2 DUP2 SLOAD DUP2 LT PUSH2 0x8B5 JUMPI PUSH2 0x8B4 PUSH2 0x10AE JUMP JUMPDEST JUMPDEST SWAP1 PUSH0 MSTORE PUSH1 0x20 PUSH0 KECCAK256 SWAP1 PUSH1 0x2 MUL ADD PUSH1 0x1 ADD SLOAD SWAP2 POP DUP1 SWAP3 POP JUMPDEST DUP1 DUP1 PUSH1 0x1 ADD SWAP2 POP POP PUSH2 0x869 JUMP JUMPDEST POP POP SWAP1 JUMP JUMPDEST PUSH0 PUSH0 SWAP1 SLOAD SWAP1 PUSH2 0x100 EXP SWAP1 DIV PUSH20 0xFFFFFFFFFFFFFFFFFFFFFFFFFFFFFFFFFFFFFFFF AND PUSH20 0xFFFFFFFFFFFFFFFFFFFFFFFFFFFFFFFFFFFFFFFF AND CALLER PUSH20 0xFFFFFFFFFFFFFFFFFFFFFFFFFFFFFFFFFFFFFFFF AND EQ PUSH2 0x96B JUMPI PUSH1 0x40 MLOAD PUSH32 0x8C379A000000000000000000000000000000000000000000000000000000000 DUP2 MSTORE PUSH1 0x4 ADD PUSH2 0x962 SWAP1 PUSH2 0x1382 JUMP JUMPDEST PUSH1 0x40 MLOAD DUP1 SWAP2 SUB SWAP1 REVERT JUMPDEST PUSH0 PUSH0 SWAP1 POP JUMPDEST DUP2 MLOAD DUP2 LT ISZERO PUSH2 0xA50 JUMPI PUSH1 0x1 PUSH0 DUP4 DUP4 DUP2 MLOAD DUP2 LT PUSH2 0x98F JUMPI PUSH2 0x98E PUSH2 0x10AE JUMP JUMPDEST JUMPDEST PUSH1 0x20 MUL PUSH1 0x20 ADD ADD MLOAD PUSH20 0xFFFFFFFFFFFFFFFFFFFFFFFFFFFFFFFFFFFFFFFF AND PUSH20 0xFFFFFFFFFFFFFFFFFFFFFFFFFFFFFFFFFFFFFFFF AND DUP2 MSTORE PUSH1 0x20 ADD SWAP1 DUP2 MSTORE PUSH1 0x20 ADD PUSH0 KECCAK256 PUSH1 0x1 ADD PUSH0 SWAP1 SLOAD SWAP1 PUSH2 0x100 EXP SWAP1 DIV PUSH1 0xFF AND PUSH2 0xA43 JUMPI PUSH1 0x1 DUP1 PUSH0 DUP5 DUP5 DUP2 MLOAD DUP2 LT PUSH2 0x9FB JUMPI PUSH2 0x9FA PUSH2 0x10AE JUMP JUMPDEST JUMPDEST PUSH1 0x20 MUL PUSH1 0x20 ADD ADD MLOAD PUSH20 0xFFFFFFFFFFFFFFFFFFFFFFFFFFFFFFFFFFFFFFFF AND PUSH20 0xFFFFFFFFFFFFFFFFFFFFFFFFFFFFFFFFFFFFFFFF AND DUP2 MSTORE PUSH1 0x20 ADD SWAP1 DUP2 MSTORE PUSH1 0x20 ADD PUSH0 KECCAK256 PUSH0 ADD DUP2 SWAP1 SSTORE POP JUMPDEST DUP1 DUP1 PUSH1 0x1 ADD SWAP2 POP POP PUSH2 0x970 JUMP JUMPDEST POP POP JUMP JUMPDEST PUSH1 0x1 PUSH1 0x20 MSTORE DUP1 PUSH0 MSTORE PUSH1 0x40 PUSH0 KECCAK256 PUSH0 SWAP2 POP SWAP1 POP DUP1 PUSH0 ADD SLOAD SWAP1 DUP1 PUSH1 0x1 ADD PUSH0 SWAP1 SLOAD SWAP1 PUSH2 0x100 EXP SWAP1 DIV PUSH1 0xFF AND SWAP1 DUP1 PUSH1 0x1 ADD PUSH1 0x1 SWAP1 SLOAD SWAP1 PUSH2 0x100 EXP SWAP1 DIV PUSH20 0xFFFFFFFFFFFFFFFFFFFFFFFFFFFFFFFFFFFFFFFF AND SWAP1 DUP1 PUSH1 0x2 ADD SLOAD SWAP1 POP DUP5 JUMP JUMPDEST PUSH0 PUSH1 0x40 MLOAD SWAP1 POP SWAP1 JUMP JUMPDEST PUSH0 PUSH0 REVERT JUMPDEST PUSH0 PUSH0 REVERT JUMPDEST PUSH0 DUP2 SWAP1 POP SWAP2 SWAP1 POP JUMP JUMPDEST PUSH2 0xACF DUP2 PUSH2 0xABD JUMP JUMPDEST DUP2 EQ PUSH2 0xAD9 JUMPI PUSH0 PUSH0 REVERT JUMPDEST POP JUMP JUMPDEST PUSH0 DUP2 CALLDATALOAD SWAP1 POP PUSH2 0xAEA DUP2 PUSH2 0xAC6 JUMP JUMPDEST SWAP3 SWAP2 POP POP JUMP JUMPDEST PUSH0 PUSH1 0x20 DUP3 DUP5 SUB SLT ISZERO PUSH2 0xB05 JUMPI PUSH2 0xB04 PUSH2 0xAB5 JUMP JUMPDEST JUMPDEST PUSH0 PUSH2 0xB12 DUP5 DUP3 DUP6 ADD PUSH2 0xADC JUMP JUMPDEST SWAP2 POP POP SWAP3 SWAP2 POP POP JUMP JUMPDEST PUSH0 DUP2 MLOAD SWAP1 POP SWAP2 SWAP1 POP JUMP JUMPDEST PUSH0 DUP3 DUP3 MSTORE PUSH1 0x20 DUP3 ADD SWAP1 POP SWAP3 SWAP2 POP POP JUMP JUMPDEST DUP3 DUP2 DUP4 MCOPY PUSH0 DUP4 DUP4 ADD MSTORE POP POP POP JUMP JUMPDEST PUSH0 PUSH1 0x1F NOT PUSH1 0x1F DUP4 ADD AND SWAP1 POP SWAP2 SWAP1 POP JUMP JUMPDEST PUSH0 PUSH2 0xB5D DUP3 PUSH2 0xB1B JUMP JUMPDEST PUSH2 0xB67 DUP2 DUP6 PUSH2 0xB25 JUMP JUMPDEST SWAP4 POP PUSH2 0xB77 DUP2 DUP6 PUSH1 0x20 DUP7 ADD PUSH2 0xB35 JUMP JUMPDEST PUSH2 0xB80 DUP2 PUSH2 0xB43 JUMP JUMPDEST DUP5 ADD SWAP2 POP POP SWAP3 SWAP2 POP POP JUMP JUMPDEST PUSH2 0xB94 DUP2 PUSH2 0xABD JUMP JUMPDEST DUP3 MSTORE POP POP JUMP JUMPDEST PUSH0 PUSH1 0x40 DUP3 ADD SWAP1 POP DUP2 DUP2 SUB PUSH0 DUP4 ADD MSTORE PUSH2 0xBB2 DUP2 DUP6 PUSH2 0xB53 JUMP JUMPDEST SWAP1 POP PUSH2 0xBC1 PUSH1 0x20 DUP4 ADD DUP5 PUSH2 0xB8B JUMP JUMPDEST SWAP4 SWAP3 POP POP POP JUMP JUMPDEST PUSH0 PUSH20 0xFFFFFFFFFFFFFFFFFFFFFFFFFFFFFFFFFFFFFFFF DUP3 AND SWAP1 POP SWAP2 SWAP1 POP JUMP JUMPDEST PUSH0 PUSH2 0xBF1 DUP3 PUSH2 0xBC8 JUMP JUMPDEST SWAP1 POP SWAP2 SWAP1 POP JUMP JUMPDEST PUSH2 0xC01 DUP2 PUSH2 0xBE7 JUMP JUMPDEST DUP3 MSTORE POP POP JUMP JUMPDEST PUSH0 PUSH1 0x20 DUP3 ADD SWAP1 POP PUSH2 0xC1A PUSH0 DUP4 ADD DUP5 PUSH2 0xBF8 JUMP JUMPDEST SWAP3 SWAP2 POP POP JUMP JUMPDEST PUSH0 DUP2 MLOAD SWAP1 POP SWAP2 SWAP1 POP JUMP JUMPDEST PUSH0 DUP3 DUP3 MSTORE PUSH1 0x20 DUP3 ADD SWAP1 POP SWAP3 SWAP2 POP POP JUMP JUMPDEST PUSH0 DUP2 SWAP1 POP PUSH1 0x20 DUP3 ADD SWAP1 POP SWAP2 SWAP1 POP JUMP JUMPDEST PUSH0 DUP3 DUP3 MSTORE PUSH1 0x20 DUP3 ADD SWAP1 POP SWAP3 SWAP2 POP POP JUMP JUMPDEST PUSH0 PUSH2 0xC63 DUP3 PUSH2 0xB1B JUMP JUMPDEST PUSH2 0xC6D DUP2 DUP6 PUSH2 0xC49 JUMP JUMPDEST SWAP4 POP PUSH2 0xC7D DUP2 DUP6 PUSH1 0x20 DUP7 ADD PUSH2 0xB35 JUMP JUMPDEST PUSH2 0xC86 DUP2 PUSH2 0xB43 JUMP JUMPDEST DUP5 ADD SWAP2 POP POP SWAP3 SWAP2 POP POP JUMP JUMPDEST PUSH2 0xC9A DUP2 PUSH2 0xABD JUMP JUMPDEST DUP3 MSTORE POP POP JUMP JUMPDEST PUSH0 PUSH1 0x40 DUP4 ADD PUSH0 DUP4 ADD MLOAD DUP5 DUP3 SUB PUSH0 DUP7 ADD MSTORE PUSH2 0xCBA DUP3 DUP3 PUSH2 0xC59 JUMP JUMPDEST SWAP2 POP POP PUSH1 0x20 DUP4 ADD MLOAD PUSH2 0xCCF PUSH1 0x20 DUP7 ADD DUP3 PUSH2 0xC91 JUMP JUMPDEST POP DUP1 SWAP2 POP POP SWAP3 SWAP2 POP POP JUMP JUMPDEST PUSH0 PUSH2 0xCE5 DUP4 DUP4 PUSH2 0xCA0 JUMP JUMPDEST SWAP1 POP SWAP3 SWAP2 POP POP JUMP JUMPDEST PUSH0 PUSH1 0x20 DUP3 ADD SWAP1 POP SWAP2 SWAP1 POP JUMP JUMPDEST PUSH0 PUSH2 0xD03 DUP3 PUSH2 0xC20 JUMP JUMPDEST PUSH2 0xD0D DUP2 DUP6 PUSH2 0xC2A JUMP JUMPDEST SWAP4 POP DUP4 PUSH1 0x20 DUP3 MUL DUP6 ADD PUSH2 0xD1F DUP6 PUSH2 0xC3A JUMP JUMPDEST DUP1 PUSH0 JUMPDEST DUP6 DUP2 LT ISZERO PUSH2 0xD5A JUMPI DUP5 DUP5 SUB DUP10 MSTORE DUP2 MLOAD PUSH2 0xD3B DUP6 DUP3 PUSH2 0xCDA JUMP JUMPDEST SWAP5 POP PUSH2 0xD46 DUP4 PUSH2 0xCED JUMP JUMPDEST SWAP3 POP PUSH1 0x20 DUP11 ADD SWAP10 POP POP PUSH1 0x1 DUP2 ADD SWAP1 POP PUSH2 0xD22 JUMP JUMPDEST POP DUP3 SWAP8 POP DUP8 SWAP6 POP POP POP POP POP POP SWAP3 SWAP2 POP POP JUMP JUMPDEST PUSH0 PUSH1 0x20 DUP3 ADD SWAP1 POP DUP2 DUP2 SUB PUSH0 DUP4 ADD MSTORE PUSH2 0xD84 DUP2 DUP5 PUSH2 0xCF9 JUMP JUMPDEST SWAP1 POP SWAP3 SWAP2 POP POP JUMP JUMPDEST PUSH2 0xD95 DUP2 PUSH2 0xBE7 JUMP JUMPDEST DUP2 EQ PUSH2 0xD9F JUMPI PUSH0 PUSH0 REVERT JUMPDEST POP JUMP JUMPDEST PUSH0 DUP2 CALLDATALOAD SWAP1 POP PUSH2 0xDB0 DUP2 PUSH2 0xD8C JUMP JUMPDEST SWAP3 SWAP2 POP POP JUMP JUMPDEST PUSH0 PUSH1 0x20 DUP3 DUP5 SUB SLT ISZERO PUSH2 0xDCB JUMPI PUSH2 0xDCA PUSH2 0xAB5 JUMP JUMPDEST JUMPDEST PUSH0 PUSH2 0xDD8 DUP5 DUP3 DUP6 ADD PUSH2 0xDA2 JUMP JUMPDEST SWAP2 POP POP SWAP3 SWAP2 POP POP JUMP JUMPDEST PUSH0 PUSH1 0x20 DUP3 ADD SWAP1 POP PUSH2 0xDF4 PUSH0 DUP4 ADD DUP5 PUSH2 0xB8B JUMP JUMPDEST SWAP3 SWAP2 POP POP JUMP JUMPDEST PUSH0 PUSH0 REVERT JUMPDEST PUSH32 0x4E487B7100000000000000000000000000000000000000000000000000000000 PUSH0 MSTORE PUSH1 0x41 PUSH1 0x4 MSTORE PUSH1 0x24 PUSH0 REVERT JUMPDEST PUSH2 0xE34 DUP3 PUSH2 0xB43 JUMP JUMPDEST DUP2 ADD DUP2 DUP2 LT PUSH8 0xFFFFFFFFFFFFFFFF DUP3 GT OR ISZERO PUSH2 0xE53 JUMPI PUSH2 0xE52 PUSH2 0xDFE JUMP JUMPDEST JUMPDEST DUP1 PUSH1 0x40 MSTORE POP POP POP JUMP JUMPDEST PUSH0 PUSH2 0xE65 PUSH2 0xAAC JUMP JUMPDEST SWAP1 POP PUSH2 0xE71 DUP3 DUP3 PUSH2 0xE2B JUMP JUMPDEST SWAP2 SWAP1 POP JUMP JUMPDEST PUSH0 PUSH8 0xFFFFFFFFFFFFFFFF DUP3 GT ISZERO PUSH2 0xE90 JUMPI PUSH2 0xE8F PUSH2 0xDFE JUMP JUMPDEST JUMPDEST PUSH1 0x20 DUP3 MUL SWAP1 POP PUSH1 0x20 DUP2 ADD SWAP1 POP SWAP2 SWAP1 POP JUMP JUMPDEST PUSH0 PUSH0 REVERT JUMPDEST PUSH0 PUSH2 0xEB7 PUSH2 0xEB2 DUP5 PUSH2 0xE76 JUMP JUMPDEST PUSH2 0xE5C JUMP JUMPDEST SWAP1 POP DUP1 DUP4 DUP3 MSTORE PUSH1 0x20 DUP3 ADD SWAP1 POP PUSH1 0x20 DUP5 MUL DUP4 ADD DUP6 DUP2 GT ISZERO PUSH2 0xEDA JUMPI PUSH2 0xED9 PUSH2 0xEA1 JUMP JUMPDEST JUMPDEST DUP4 JUMPDEST DUP2 DUP2 LT ISZERO PUSH2 0xF03 JUMPI DUP1 PUSH2 0xEEF DUP9 DUP3 PUSH2 0xDA2 JUMP JUMPDEST DUP5 MSTORE PUSH1 0x20 DUP5 ADD SWAP4 POP POP PUSH1 0x20 DUP2 ADD SWAP1 POP PUSH2 0xEDC JUMP JUMPDEST POP POP POP SWAP4 SWAP3 POP POP POP JUMP JUMPDEST PUSH0 DUP3 PUSH1 0x1F DUP4 ADD SLT PUSH2 0xF21 JUMPI PUSH2 0xF20 PUSH2 0xDFA JUMP JUMPDEST JUMPDEST DUP2 CALLDATALOAD PUSH2 0xF31 DUP5 DUP3 PUSH1 0x20 DUP7 ADD PUSH2 0xEA5 JUMP JUMPDEST SWAP2 POP POP SWAP3 SWAP2 POP POP JUMP JUMPDEST PUSH0 PUSH1 0x20 DUP3 DUP5 SUB SLT ISZERO PUSH2 0xF4F JUMPI PUSH2 0xF4E PUSH2 0xAB5 JUMP JUMPDEST JUMPDEST PUSH0 DUP3 ADD CALLDATALOAD PUSH8 0xFFFFFFFFFFFFFFFF DUP2 GT ISZERO PUSH2 0xF6C JUMPI PUSH2 0xF6B PUSH2 0xAB9 JUMP JUMPDEST JUMPDEST PUSH2 0xF78 DUP5 DUP3 DUP6 ADD PUSH2 0xF0D JUMP JUMPDEST SWAP2 POP POP SWAP3 SWAP2 POP POP JUMP JUMPDEST PUSH0 DUP2 ISZERO ISZERO SWAP1 POP SWAP2 SWAP1 POP JUMP JUMPDEST PUSH2 0xF95 DUP2 PUSH2 0xF81 JUMP JUMPDEST DUP3 MSTORE POP POP JUMP JUMPDEST PUSH0 PUSH1 0x80 DUP3 ADD SWAP1 POP PUSH2 0xFAE PUSH0 DUP4 ADD DUP8 PUSH2 0xB8B JUMP JUMPDEST PUSH2 0xFBB PUSH1 0x20 DUP4 ADD DUP7 PUSH2 0xF8C JUMP JUMPDEST PUSH2 0xFC8 PUSH1 0x40 DUP4 ADD DUP6 PUSH2 0xBF8 JUMP JUMPDEST PUSH2 0xFD5 PUSH1 0x60 DUP4 ADD DUP5 PUSH2 0xB8B JUMP JUMPDEST SWAP6 SWAP5 POP POP POP POP POP JUMP JUMPDEST PUSH32 0x486173206E6F20726967687420746F20766F7465000000000000000000000000 PUSH0 DUP3 ADD MSTORE POP JUMP JUMPDEST PUSH0 PUSH2 0x1012 PUSH1 0x14 DUP4 PUSH2 0xB25 JUMP JUMPDEST SWAP2 POP PUSH2 0x101D DUP3 PUSH2 0xFDE JUMP JUMPDEST PUSH1 0x20 DUP3 ADD SWAP1 POP SWAP2 SWAP1 POP JUMP JUMPDEST PUSH0 PUSH1 0x20 DUP3 ADD SWAP1 POP DUP2 DUP2 SUB PUSH0 DUP4 ADD MSTORE PUSH2 0x103F DUP2 PUSH2 0x1006 JUMP JUMPDEST SWAP1 POP SWAP2 SWAP1 POP JUMP JUMPDEST PUSH32 0x416C726561647920766F7465642E000000000000000000000000000000000000 PUSH0 DUP3 ADD MSTORE POP JUMP JUMPDEST PUSH0 PUSH2 0x107A PUSH1 0xE DUP4 PUSH2 0xB25 JUMP JUMPDEST SWAP2 POP PUSH2 0x1085 DUP3 PUSH2 0x1046 JUMP JUMPDEST PUSH1 0x20 DUP3 ADD SWAP1 POP SWAP2 SWAP1 POP JUMP JUMPDEST PUSH0 PUSH1 0x20 DUP3 ADD SWAP1 POP DUP2 DUP2 SUB PUSH0 DUP4 ADD MSTORE PUSH2 0x10A7 DUP2 PUSH2 0x106E JUMP JUMPDEST SWAP1 POP SWAP2 SWAP1 POP JUMP JUMPDEST PUSH32 0x4E487B7100000000000000000000000000000000000000000000000000000000 PUSH0 MSTORE PUSH1 0x32 PUSH1 0x4 MSTORE PUSH1 0x24 PUSH0 REVERT JUMPDEST PUSH32 0x4E487B7100000000000000000000000000000000000000000000000000000000 PUSH0 MSTORE PUSH1 0x11 PUSH1 0x4 MSTORE PUSH1 0x24 PUSH0 REVERT JUMPDEST PUSH0 PUSH2 0x1112 DUP3 PUSH2 0xABD JUMP JUMPDEST SWAP2 POP PUSH2 0x111D DUP4 PUSH2 0xABD JUMP JUMPDEST SWAP3 POP DUP3 DUP3 ADD SWAP1 POP DUP1 DUP3 GT ISZERO PUSH2 0x1135 JUMPI PUSH2 0x1134 PUSH2 0x10DB JUMP JUMPDEST JUMPDEST SWAP3 SWAP2 POP POP JUMP JUMPDEST PUSH32 0xE68A95E7A5A8E68890E58A9F0000000000000000000000000000000000000000 PUSH0 DUP3 ADD MSTORE POP JUMP JUMPDEST PUSH0 PUSH2 0x116F PUSH1 0xC DUP4 PUSH2 0xB25 JUMP JUMPDEST SWAP2 POP PUSH2 0x117A DUP3 PUSH2 0x113B JUMP JUMPDEST PUSH1 0x20 DUP3 ADD SWAP1 POP SWAP2 SWAP1 POP JUMP JUMPDEST PUSH0 PUSH1 0x20 DUP3 ADD SWAP1 POP DUP2 DUP2 SUB PUSH0 DUP4 ADD MSTORE PUSH2 0x119C DUP2 PUSH2 0x1163 JUMP JUMPDEST SWAP1 POP SWAP2 SWAP1 POP JUMP JUMPDEST PUSH32 0x4E487B7100000000000000000000000000000000000000000000000000000000 PUSH0 MSTORE PUSH1 0x22 PUSH1 0x4 MSTORE PUSH1 0x24 PUSH0 REVERT JUMPDEST PUSH0 PUSH1 0x2 DUP3 DIV SWAP1 POP PUSH1 0x1 DUP3 AND DUP1 PUSH2 0x11E7 JUMPI PUSH1 0x7F DUP3 AND SWAP2 POP JUMPDEST PUSH1 0x20 DUP3 LT DUP2 SUB PUSH2 0x11FA JUMPI PUSH2 0x11F9 PUSH2 0x11A3 JUMP JUMPDEST JUMPDEST POP SWAP2 SWAP1 POP JUMP JUMPDEST PUSH32 0x796F7520616C726561647920766F746564000000000000000000000000000000 PUSH0 DUP3 ADD MSTORE POP JUMP JUMPDEST PUSH0 PUSH2 0x1234 PUSH1 0x11 DUP4 PUSH2 0xB25 JUMP JUMPDEST SWAP2 POP PUSH2 0x123F DUP3 PUSH2 0x1200 JUMP JUMPDEST PUSH1 0x20 DUP3 ADD SWAP1 POP SWAP2 SWAP1 POP JUMP JUMPDEST PUSH0 PUSH1 0x20 DUP3 ADD SWAP1 POP DUP2 DUP2 SUB PUSH0 DUP4 ADD MSTORE PUSH2 0x1261 DUP2 PUSH2 0x1228 JUMP JUMPDEST SWAP1 POP SWAP2 SWAP1 POP JUMP JUMPDEST PUSH32 0x73656C662064656C6567617465206973206E6F20616C6C6F7700000000000000 PUSH0 DUP3 ADD MSTORE POP JUMP JUMPDEST PUSH0 PUSH2 0x129C PUSH1 0x19 DUP4 PUSH2 0xB25 JUMP JUMPDEST SWAP2 POP PUSH2 0x12A7 DUP3 PUSH2 0x1268 JUMP JUMPDEST PUSH1 0x20 DUP3 ADD SWAP1 POP SWAP2 SWAP1 POP JUMP JUMPDEST PUSH0 PUSH1 0x20 DUP3 ADD SWAP1 POP DUP2 DUP2 SUB PUSH0 DUP4 ADD MSTORE PUSH2 0x12C9 DUP2 PUSH2 0x1290 JUMP JUMPDEST SWAP1 POP SWAP2 SWAP1 POP JUMP JUMPDEST PUSH32 0x466F756E64206C6F6F7020696E2064656C656765746500000000000000000000 PUSH0 DUP3 ADD MSTORE POP JUMP JUMPDEST PUSH0 PUSH2 0x1304 PUSH1 0x16 DUP4 PUSH2 0xB25 JUMP JUMPDEST SWAP2 POP PUSH2 0x130F DUP3 PUSH2 0x12D0 JUMP JUMPDEST PUSH1 0x20 DUP3 ADD SWAP1 POP SWAP2 SWAP1 POP JUMP JUMPDEST PUSH0 PUSH1 0x20 DUP3 ADD SWAP1 POP DUP2 DUP2 SUB PUSH0 DUP4 ADD MSTORE PUSH2 0x1331 DUP2 PUSH2 0x12F8 JUMP JUMPDEST SWAP1 POP SWAP2 SWAP1 POP JUMP JUMPDEST PUSH32 0x6F6E6C79206F7765722063616E20676976652072696768740000000000000000 PUSH0 DUP3 ADD MSTORE POP JUMP JUMPDEST PUSH0 PUSH2 0x136C PUSH1 0x18 DUP4 PUSH2 0xB25 JUMP JUMPDEST SWAP2 POP PUSH2 0x1377 DUP3 PUSH2 0x1338 JUMP JUMPDEST PUSH1 0x20 DUP3 ADD SWAP1 POP SWAP2 SWAP1 POP JUMP JUMPDEST PUSH0 PUSH1 0x20 DUP3 ADD SWAP1 POP DUP2 DUP2 SUB PUSH0 DUP4 ADD MSTORE PUSH2 0x1399 DUP2 PUSH2 0x1360 JUMP JUMPDEST SWAP1 POP SWAP2 SWAP1 POP JUMP INVALID LOG2 PUSH5 0x6970667358 0x22 SLT KECCAK256 MUL 0xF6 COINBASE SWAP15 0x4E 0x4E 0xDD 0xD MLOAD SWAP3 0xE2 0xC5 PUSH12 0x4B334FC4D6F229D5C5A184B1 SWAP14 GASPRICE 0xA6 DUP8 CHAINID 0xD0 0xE2 PUSH5 0x736F6C6343 STOP ADDMOD SHR STOP CALLER "
				},
				"gasEstimates": {
					"creation": {
						"codeDepositCost": "1015600",
						"executionCost": "infinite",
						"totalCost": "infinite"
					},
					"external": {
						"chairperson()": "2552",
						"delegate(address)": "infinite",
						"giveRightToVote(address[])": "infinite",
						"proposalList()": "infinite",
						"proposals(uint256)": "infinite",
						"vote(uint256)": "infinite",
						"voters(address)": "infinite",
						"winningProposal()": "infinite"
					}
				},
				"methodIdentifiers": {
					"chairperson()": "2e4176cf",
					"delegate(address)": "5c19a95c",
					"giveRightToVote(address[])": "85816829",
					"proposalList()": "44389524",
					"proposals(uint256)": "013cf08b",
					"vote(uint256)": "0121b93f",
					"voters(address)": "a3ec138d",
					"winningProposal()": "609ff1bd"
				}
			},
			"storageLayout": {
				"storage": [
					{
						"astId": 21,
						"contract": "contracts/base_project/vote/Ballot.sol:Ballot",
						"label": "chairperson",
						"offset": 0,
						"slot": "0",
						"type": "t_address"
					},
					{
						"astId": 26,
						"contract": "contracts/base_project/vote/Ballot.sol:Ballot",
						"label": "voters",
						"offset": 0,
						"slot": "1",
						"type": "t_mapping(t_address,t_struct(Voter)14_storage)"
					},
					{
						"astId": 30,
						"contract": "contracts/base_project/vote/Ballot.sol:Ballot",
						"label": "proposals",
						"offset": 0,
						"slot": "2",
						"type": "t_array(t_struct(Proposal)19_storage)dyn_storage"
					}
				],
				"types": {
					"t_address": {
						"encoding": "inplace",
						"label": "address",
						"numberOfBytes": "20"
					},
					"t_array(t_struct(Proposal)19_storage)dyn_storage": {
						"base": "t_struct(Proposal)19_storage",
						"encoding": "dynamic_array",
						"label": "struct Ballot.Proposal[]",
						"numberOfBytes": "32"
					},
					"t_bool": {
						"encoding": "inplace",
						"label": "bool",
						"numberOfBytes": "1"
					},
					"t_mapping(t_address,t_struct(Voter)14_storage)": {
						"encoding": "mapping",
						"key": "t_address",
						"label": "mapping(address => struct Ballot.Voter)",
						"numberOfBytes": "32",
						"value": "t_struct(Voter)14_storage"
					},
					"t_string_storage": {
						"encoding": "bytes",
						"label": "string",
						"numberOfBytes": "32"
					},
					"t_struct(Proposal)19_storage": {
						"encoding": "inplace",
						"label": "struct Ballot.Proposal",
						"members": [
							{
								"astId": 16,
								"contract": "contracts/base_project/vote/Ballot.sol:Ballot",
								"label": "name",
								"offset": 0,
								"slot": "0",
								"type": "t_string_storage"
							},
							{
								"astId": 18,
								"contract": "contracts/base_project/vote/Ballot.sol:Ballot",
								"label": "voteCount",
								"offset": 0,
								"slot": "1",
								"type": "t_uint256"
							}
						],
						"numberOfBytes": "64"
					},
					"t_struct(Voter)14_storage": {
						"encoding": "inplace",
						"label": "struct Ballot.Voter",
						"members": [
							{
								"astId": 7,
								"contract": "contracts/base_project/vote/Ballot.sol:Ballot",
								"label": "weight",
								"offset": 0,
								"slot": "0",
								"type": "t_uint256"
							},
							{
								"astId": 9,
								"contract": "contracts/base_project/vote/Ballot.sol:Ballot",
								"label": "voted",
								"offset": 0,
								"slot": "1",
								"type": "t_bool"
							},
							{
								"astId": 11,
								"contract": "contracts/base_project/vote/Ballot.sol:Ballot",
								"label": "delegate",
								"offset": 1,
								"slot": "1",
								"type": "t_address"
							},
							{
								"astId": 13,
								"contract": "contracts/base_project/vote/Ballot.sol:Ballot",
								"label": "vote",
								"offset": 0,
								"slot": "2",
								"type": "t_uint256"
							}
						],
						"numberOfBytes": "96"
					},
					"t_uint256": {
						"encoding": "inplace",
						"label": "uint256",
						"numberOfBytes": "32"
					}
				}
			},
			"userdoc": {
				"kind": "user",
				"methods": {},
				"version": 1
			}
		}
	}
}