{
	"contracts/WTF_ethers/15_MultiTransfer/Airdrop.sol": {
		"Airdrop": {
			"abi": [
				{
					"inputs": [
						{
							"internalType": "uint256[]",
							"name": "_arr",
							"type": "uint256[]"
						}
					],
					"name": "getSum",
					"outputs": [
						{
							"internalType": "uint256",
							"name": "sum",
							"type": "uint256"
						}
					],
					"stateMutability": "pure",
					"type": "function"
				},
				{
					"inputs": [
						{
							"internalType": "address payable[]",
							"name": "_addresses",
							"type": "address[]"
						},
						{
							"internalType": "uint256[]",
							"name": "_amounts",
							"type": "uint256[]"
						}
					],
					"name": "multiTransferETH",
					"outputs": [],
					"stateMutability": "payable",
					"type": "function"
				},
				{
					"inputs": [
						{
							"internalType": "address",
							"name": "_token",
							"type": "address"
						},
						{
							"internalType": "address[]",
							"name": "_addresses",
							"type": "address[]"
						},
						{
							"internalType": "uint256[]",
							"name": "_amounts",
							"type": "uint256[]"
						},
						{
							"internalType": "address",
							"name": "from",
							"type": "address"
						}
					],
					"name": "multiTransferToken",
					"outputs": [],
					"stateMutability": "nonpayable",
					"type": "function"
				},
				{
					"inputs": [
						{
							"internalType": "address",
							"name": "_to",
							"type": "address"
						}
					],
					"name": "withdrawFromFailList",
					"outputs": [],
					"stateMutability": "nonpayable",
					"type": "function"
				}
			],
			"devdoc": {
				"kind": "dev",
				"methods": {
					"multiTransferToken(address,address[],uint256[],address)": {
						"params": {
							"_addresses": "空投地址数组",
							"_amounts": "代币数量数组（每个地址的空投数量）",
							"_token": "转账的ERC20代币地址"
						}
					}
				},
				"version": 1
			},
			"evm": {
				"assembly": "    /* \"contracts/WTF_ethers/15_MultiTransfer/Airdrop.sol\":154:3187  contract Airdrop {... */\n  mstore(0x40, 0x80)\n  callvalue\n  dup1\n  iszero\n  tag_1\n  jumpi\n  revert(0x00, 0x00)\ntag_1:\n  pop\n  dataSize(sub_0)\n  dup1\n  dataOffset(sub_0)\n  0x00\n  codecopy\n  0x00\n  return\nstop\n\nsub_0: assembly {\n        /* \"contracts/WTF_ethers/15_MultiTransfer/Airdrop.sol\":154:3187  contract Airdrop {... */\n      mstore(0x40, 0x80)\n      jumpi(tag_1, lt(calldatasize, 0x04))\n      shr(0xe0, calldataload(0x00))\n      dup1\n      0x48b377d8\n      eq\n      tag_2\n      jumpi\n      dup1\n      0x77988cf8\n      eq\n      tag_3\n      jumpi\n      dup1\n      0xacacd8ee\n      eq\n      tag_4\n      jumpi\n      dup1\n      0xccb8c1e0\n      eq\n      tag_5\n      jumpi\n    tag_1:\n      revert(0x00, 0x00)\n        /* \"contracts/WTF_ethers/15_MultiTransfer/Airdrop.sol\":479:1515  function multiTransferToken(... */\n    tag_2:\n      callvalue\n      dup1\n      iszero\n      tag_6\n      jumpi\n      revert(0x00, 0x00)\n    tag_6:\n      pop\n      tag_7\n      0x04\n      dup1\n      calldatasize\n      sub\n      dup2\n      add\n      swap1\n      tag_8\n      swap2\n      swap1\n      tag_9\n      jump\t// in\n    tag_8:\n      tag_10\n      jump\t// in\n    tag_7:\n      stop\n        /* \"contracts/WTF_ethers/15_MultiTransfer/Airdrop.sol\":1554:2617  function multiTransferETH(... */\n    tag_3:\n      tag_11\n      0x04\n      dup1\n      calldatasize\n      sub\n      dup2\n      add\n      swap1\n      tag_12\n      swap2\n      swap1\n      tag_13\n      jump\t// in\n    tag_12:\n      tag_14\n      jump\t// in\n    tag_11:\n      stop\n        /* \"contracts/WTF_ethers/15_MultiTransfer/Airdrop.sol\":2685:3006  function withdrawFromFailList(address _to) public {... */\n    tag_4:\n      callvalue\n      dup1\n      iszero\n      tag_15\n      jumpi\n      revert(0x00, 0x00)\n    tag_15:\n      pop\n      tag_16\n      0x04\n      dup1\n      calldatasize\n      sub\n      dup2\n      add\n      swap1\n      tag_17\n      swap2\n      swap1\n      tag_18\n      jump\t// in\n    tag_17:\n      tag_19\n      jump\t// in\n    tag_16:\n      stop\n        /* \"contracts/WTF_ethers/15_MultiTransfer/Airdrop.sol\":3038:3185  function getSum(uint256[] calldata _arr) public pure returns (uint sum) {... */\n    tag_5:\n      callvalue\n      dup1\n      iszero\n      tag_20\n      jumpi\n      revert(0x00, 0x00)\n    tag_20:\n      pop\n      tag_21\n      0x04\n      dup1\n      calldatasize\n      sub\n      dup2\n      add\n      swap1\n      tag_22\n      swap2\n      swap1\n      tag_23\n      jump\t// in\n    tag_22:\n      tag_24\n      jump\t// in\n    tag_21:\n      mload(0x40)\n      tag_25\n      swap2\n      swap1\n      tag_26\n      jump\t// in\n    tag_25:\n      mload(0x40)\n      dup1\n      swap2\n      sub\n      swap1\n      return\n        /* \"contracts/WTF_ethers/15_MultiTransfer/Airdrop.sol\":479:1515  function multiTransferToken(... */\n    tag_10:\n        /* \"contracts/WTF_ethers/15_MultiTransfer/Airdrop.sol\":759:767  _amounts */\n      dup3\n      dup3\n        /* \"contracts/WTF_ethers/15_MultiTransfer/Airdrop.sol\":759:774  _amounts.length */\n      swap1\n      pop\n        /* \"contracts/WTF_ethers/15_MultiTransfer/Airdrop.sol\":738:748  _addresses */\n      dup6\n      dup6\n        /* \"contracts/WTF_ethers/15_MultiTransfer/Airdrop.sol\":738:755  _addresses.length */\n      swap1\n      pop\n        /* \"contracts/WTF_ethers/15_MultiTransfer/Airdrop.sol\":738:774  _addresses.length == _amounts.length */\n      eq\n        /* \"contracts/WTF_ethers/15_MultiTransfer/Airdrop.sol\":717:842  require(... */\n      tag_28\n      jumpi\n      mload(0x40)\n      0x08c379a000000000000000000000000000000000000000000000000000000000\n      dup2\n      mstore\n      0x04\n      add\n      tag_29\n      swap1\n      tag_30\n      jump\t// in\n    tag_29:\n      mload(0x40)\n      dup1\n      swap2\n      sub\n      swap1\n      revert\n    tag_28:\n        /* \"contracts/WTF_ethers/15_MultiTransfer/Airdrop.sol\":852:864  IERC20 token */\n      0x00\n        /* \"contracts/WTF_ethers/15_MultiTransfer/Airdrop.sol\":874:880  _token */\n      dup7\n        /* \"contracts/WTF_ethers/15_MultiTransfer/Airdrop.sol\":852:881  IERC20 token = IERC20(_token) */\n      swap1\n      pop\n        /* \"contracts/WTF_ethers/15_MultiTransfer/Airdrop.sol\":917:932  uint _amountSum */\n      0x00\n        /* \"contracts/WTF_ethers/15_MultiTransfer/Airdrop.sol\":935:951  getSum(_amounts) */\n      tag_31\n        /* \"contracts/WTF_ethers/15_MultiTransfer/Airdrop.sol\":942:950  _amounts */\n      dup6\n      dup6\n        /* \"contracts/WTF_ethers/15_MultiTransfer/Airdrop.sol\":935:941  getSum */\n      tag_24\n        /* \"contracts/WTF_ethers/15_MultiTransfer/Airdrop.sol\":935:951  getSum(_amounts) */\n      jump\t// in\n    tag_31:\n        /* \"contracts/WTF_ethers/15_MultiTransfer/Airdrop.sol\":917:951  uint _amountSum = getSum(_amounts) */\n      swap1\n      pop\n        /* \"contracts/WTF_ethers/15_MultiTransfer/Airdrop.sol\":1109:1119  _amountSum */\n      dup1\n        /* \"contracts/WTF_ethers/15_MultiTransfer/Airdrop.sol\":1070:1075  token */\n      dup3\n        /* \"contracts/WTF_ethers/15_MultiTransfer/Airdrop.sol\":1070:1085  token.allowance */\n      0xffffffffffffffffffffffffffffffffffffffff\n      and\n      0xdd62ed3e\n        /* \"contracts/WTF_ethers/15_MultiTransfer/Airdrop.sol\":1086:1090  from */\n      dup6\n        /* \"contracts/WTF_ethers/15_MultiTransfer/Airdrop.sol\":1100:1104  this */\n      address\n        /* \"contracts/WTF_ethers/15_MultiTransfer/Airdrop.sol\":1070:1106  token.allowance(from, address(this)) */\n      mload(0x40)\n      dup4\n      0xffffffff\n      and\n      0xe0\n      shl\n      dup2\n      mstore\n      0x04\n      add\n      tag_32\n      swap3\n      swap2\n      swap1\n      tag_33\n      jump\t// in\n    tag_32:\n      0x20\n      mload(0x40)\n      dup1\n      dup4\n      sub\n      dup2\n      dup7\n      gas\n      staticcall\n      iszero\n      dup1\n      iszero\n      tag_35\n      jumpi\n      returndatacopy(0x00, 0x00, returndatasize)\n      revert(0x00, returndatasize)\n    tag_35:\n      pop\n      pop\n      pop\n      pop\n      mload(0x40)\n      returndatasize\n      not(0x1f)\n      0x1f\n      dup3\n      add\n      and\n      dup3\n      add\n      dup1\n      0x40\n      mstore\n      pop\n      dup2\n      add\n      swap1\n      tag_36\n      swap2\n      swap1\n      tag_37\n      jump\t// in\n    tag_36:\n        /* \"contracts/WTF_ethers/15_MultiTransfer/Airdrop.sol\":1070:1119  token.allowance(from, address(this)) > _amountSum */\n      gt\n        /* \"contracts/WTF_ethers/15_MultiTransfer/Airdrop.sol\":1049:1241  require(... */\n      tag_38\n      jumpi\n      mload(0x40)\n      0x08c379a000000000000000000000000000000000000000000000000000000000\n      dup2\n      mstore\n      0x04\n      add\n      tag_39\n      swap1\n      tag_40\n      jump\t// in\n    tag_39:\n      mload(0x40)\n      dup1\n      swap2\n      sub\n      swap1\n      revert\n    tag_38:\n        /* \"contracts/WTF_ethers/15_MultiTransfer/Airdrop.sol\":1317:1326  uint256 i */\n      0x00\n        /* \"contracts/WTF_ethers/15_MultiTransfer/Airdrop.sol\":1312:1509  for (uint256 i; i < _addresses.length; i++) {... */\n    tag_41:\n        /* \"contracts/WTF_ethers/15_MultiTransfer/Airdrop.sol\":1332:1342  _addresses */\n      dup8\n      dup8\n        /* \"contracts/WTF_ethers/15_MultiTransfer/Airdrop.sol\":1332:1349  _addresses.length */\n      swap1\n      pop\n        /* \"contracts/WTF_ethers/15_MultiTransfer/Airdrop.sol\":1328:1329  i */\n      dup2\n        /* \"contracts/WTF_ethers/15_MultiTransfer/Airdrop.sol\":1328:1349  i < _addresses.length */\n      lt\n        /* \"contracts/WTF_ethers/15_MultiTransfer/Airdrop.sol\":1312:1509  for (uint256 i; i < _addresses.length; i++) {... */\n      iszero\n      tag_42\n      jumpi\n        /* \"contracts/WTF_ethers/15_MultiTransfer/Airdrop.sol\":1446:1451  token */\n      dup3\n        /* \"contracts/WTF_ethers/15_MultiTransfer/Airdrop.sol\":1446:1464  token.transferFrom */\n      0xffffffffffffffffffffffffffffffffffffffff\n      and\n      0x23b872dd\n        /* \"contracts/WTF_ethers/15_MultiTransfer/Airdrop.sol\":1465:1469  from */\n      dup6\n        /* \"contracts/WTF_ethers/15_MultiTransfer/Airdrop.sol\":1471:1481  _addresses */\n      dup11\n      dup11\n        /* \"contracts/WTF_ethers/15_MultiTransfer/Airdrop.sol\":1482:1483  i */\n      dup6\n        /* \"contracts/WTF_ethers/15_MultiTransfer/Airdrop.sol\":1471:1484  _addresses[i] */\n      dup2\n      dup2\n      lt\n      tag_44\n      jumpi\n      tag_45\n      tag_46\n      jump\t// in\n    tag_45:\n    tag_44:\n      swap1\n      pop\n      0x20\n      mul\n      add\n      0x20\n      dup2\n      add\n      swap1\n      tag_47\n      swap2\n      swap1\n      tag_18\n      jump\t// in\n    tag_47:\n        /* \"contracts/WTF_ethers/15_MultiTransfer/Airdrop.sol\":1486:1494  _amounts */\n      dup10\n      dup10\n        /* \"contracts/WTF_ethers/15_MultiTransfer/Airdrop.sol\":1495:1496  i */\n      dup7\n        /* \"contracts/WTF_ethers/15_MultiTransfer/Airdrop.sol\":1486:1497  _amounts[i] */\n      dup2\n      dup2\n      lt\n      tag_48\n      jumpi\n      tag_49\n      tag_46\n      jump\t// in\n    tag_49:\n    tag_48:\n      swap1\n      pop\n      0x20\n      mul\n      add\n      calldataload\n        /* \"contracts/WTF_ethers/15_MultiTransfer/Airdrop.sol\":1446:1498  token.transferFrom(from, _addresses[i], _amounts[i]) */\n      mload(0x40)\n      dup5\n      0xffffffff\n      and\n      0xe0\n      shl\n      dup2\n      mstore\n      0x04\n      add\n      tag_50\n      swap4\n      swap3\n      swap2\n      swap1\n      tag_51\n      jump\t// in\n    tag_50:\n      0x20\n      mload(0x40)\n      dup1\n      dup4\n      sub\n      dup2\n      0x00\n      dup8\n      gas\n      call\n      iszero\n      dup1\n      iszero\n      tag_53\n      jumpi\n      returndatacopy(0x00, 0x00, returndatasize)\n      revert(0x00, returndatasize)\n    tag_53:\n      pop\n      pop\n      pop\n      pop\n      mload(0x40)\n      returndatasize\n      not(0x1f)\n      0x1f\n      dup3\n      add\n      and\n      dup3\n      add\n      dup1\n      0x40\n      mstore\n      pop\n      dup2\n      add\n      swap1\n      tag_54\n      swap2\n      swap1\n      tag_55\n      jump\t// in\n    tag_54:\n      pop\n        /* \"contracts/WTF_ethers/15_MultiTransfer/Airdrop.sol\":1351:1354  i++ */\n      dup1\n      dup1\n      0x01\n      add\n      swap2\n      pop\n      pop\n        /* \"contracts/WTF_ethers/15_MultiTransfer/Airdrop.sol\":1312:1509  for (uint256 i; i < _addresses.length; i++) {... */\n      jump(tag_41)\n    tag_42:\n      pop\n        /* \"contracts/WTF_ethers/15_MultiTransfer/Airdrop.sol\":644:1515  {... */\n      pop\n      pop\n        /* \"contracts/WTF_ethers/15_MultiTransfer/Airdrop.sol\":479:1515  function multiTransferToken(... */\n      pop\n      pop\n      pop\n      pop\n      pop\n      pop\n      jump\t// out\n        /* \"contracts/WTF_ethers/15_MultiTransfer/Airdrop.sol\":1554:2617  function multiTransferETH(... */\n    tag_14:\n        /* \"contracts/WTF_ethers/15_MultiTransfer/Airdrop.sol\":1800:1808  _amounts */\n      dup2\n      dup2\n        /* \"contracts/WTF_ethers/15_MultiTransfer/Airdrop.sol\":1800:1815  _amounts.length */\n      swap1\n      pop\n        /* \"contracts/WTF_ethers/15_MultiTransfer/Airdrop.sol\":1779:1789  _addresses */\n      dup5\n      dup5\n        /* \"contracts/WTF_ethers/15_MultiTransfer/Airdrop.sol\":1779:1796  _addresses.length */\n      swap1\n      pop\n        /* \"contracts/WTF_ethers/15_MultiTransfer/Airdrop.sol\":1779:1815  _addresses.length == _amounts.length */\n      eq\n        /* \"contracts/WTF_ethers/15_MultiTransfer/Airdrop.sol\":1758:1883  require(... */\n      tag_57\n      jumpi\n      mload(0x40)\n      0x08c379a000000000000000000000000000000000000000000000000000000000\n      dup2\n      mstore\n      0x04\n      add\n      tag_58\n      swap1\n      tag_30\n      jump\t// in\n    tag_58:\n      mload(0x40)\n      dup1\n      swap2\n      sub\n      swap1\n      revert\n    tag_57:\n        /* \"contracts/WTF_ethers/15_MultiTransfer/Airdrop.sol\":1893:1908  uint _amountSum */\n      0x00\n        /* \"contracts/WTF_ethers/15_MultiTransfer/Airdrop.sol\":1911:1927  getSum(_amounts) */\n      tag_59\n        /* \"contracts/WTF_ethers/15_MultiTransfer/Airdrop.sol\":1918:1926  _amounts */\n      dup4\n      dup4\n        /* \"contracts/WTF_ethers/15_MultiTransfer/Airdrop.sol\":1911:1917  getSum */\n      tag_24\n        /* \"contracts/WTF_ethers/15_MultiTransfer/Airdrop.sol\":1911:1927  getSum(_amounts) */\n      jump\t// in\n    tag_59:\n        /* \"contracts/WTF_ethers/15_MultiTransfer/Airdrop.sol\":1893:1927  uint _amountSum = getSum(_amounts) */\n      swap1\n      pop\n        /* \"contracts/WTF_ethers/15_MultiTransfer/Airdrop.sol\":2028:2038  _amountSum */\n      dup1\n        /* \"contracts/WTF_ethers/15_MultiTransfer/Airdrop.sol\":2015:2024  msg.value */\n      callvalue\n        /* \"contracts/WTF_ethers/15_MultiTransfer/Airdrop.sol\":2015:2038  msg.value == _amountSum */\n      eq\n        /* \"contracts/WTF_ethers/15_MultiTransfer/Airdrop.sol\":2007:2064  require(msg.value == _amountSum, \"Transfer amount error\") */\n      tag_60\n      jumpi\n      mload(0x40)\n      0x08c379a000000000000000000000000000000000000000000000000000000000\n      dup2\n      mstore\n      0x04\n      add\n      tag_61\n      swap1\n      tag_62\n      jump\t// in\n    tag_61:\n      mload(0x40)\n      dup1\n      swap2\n      sub\n      swap1\n      revert\n    tag_60:\n        /* \"contracts/WTF_ethers/15_MultiTransfer/Airdrop.sol\":2132:2141  uint256 i */\n      0x00\n        /* \"contracts/WTF_ethers/15_MultiTransfer/Airdrop.sol\":2144:2145  0 */\n      0x00\n        /* \"contracts/WTF_ethers/15_MultiTransfer/Airdrop.sol\":2132:2145  uint256 i = 0 */\n      swap1\n      pop\n        /* \"contracts/WTF_ethers/15_MultiTransfer/Airdrop.sol\":2127:2611  for (uint256 i = 0; i < _addresses.length; i++) {... */\n    tag_63:\n        /* \"contracts/WTF_ethers/15_MultiTransfer/Airdrop.sol\":2151:2161  _addresses */\n      dup6\n      dup6\n        /* \"contracts/WTF_ethers/15_MultiTransfer/Airdrop.sol\":2151:2168  _addresses.length */\n      swap1\n      pop\n        /* \"contracts/WTF_ethers/15_MultiTransfer/Airdrop.sol\":2147:2148  i */\n      dup2\n        /* \"contracts/WTF_ethers/15_MultiTransfer/Airdrop.sol\":2147:2168  i < _addresses.length */\n      lt\n        /* \"contracts/WTF_ethers/15_MultiTransfer/Airdrop.sol\":2127:2611  for (uint256 i = 0; i < _addresses.length; i++) {... */\n      iszero\n      tag_64\n      jumpi\n        /* \"contracts/WTF_ethers/15_MultiTransfer/Airdrop.sol\":2435:2447  bool success */\n      0x00\n        /* \"contracts/WTF_ethers/15_MultiTransfer/Airdrop.sol\":2453:2463  _addresses */\n      dup7\n      dup7\n        /* \"contracts/WTF_ethers/15_MultiTransfer/Airdrop.sol\":2464:2465  i */\n      dup4\n        /* \"contracts/WTF_ethers/15_MultiTransfer/Airdrop.sol\":2453:2466  _addresses[i] */\n      dup2\n      dup2\n      lt\n      tag_66\n      jumpi\n      tag_67\n      tag_46\n      jump\t// in\n    tag_67:\n    tag_66:\n      swap1\n      pop\n      0x20\n      mul\n      add\n      0x20\n      dup2\n      add\n      swap1\n      tag_68\n      swap2\n      swap1\n      tag_69\n      jump\t// in\n    tag_68:\n        /* \"contracts/WTF_ethers/15_MultiTransfer/Airdrop.sol\":2453:2471  _addresses[i].call */\n      0xffffffffffffffffffffffffffffffffffffffff\n      and\n        /* \"contracts/WTF_ethers/15_MultiTransfer/Airdrop.sol\":2479:2487  _amounts */\n      dup6\n      dup6\n        /* \"contracts/WTF_ethers/15_MultiTransfer/Airdrop.sol\":2488:2489  i */\n      dup5\n        /* \"contracts/WTF_ethers/15_MultiTransfer/Airdrop.sol\":2479:2490  _amounts[i] */\n      dup2\n      dup2\n      lt\n      tag_70\n      jumpi\n      tag_71\n      tag_46\n      jump\t// in\n    tag_71:\n    tag_70:\n      swap1\n      pop\n      0x20\n      mul\n      add\n      calldataload\n        /* \"contracts/WTF_ethers/15_MultiTransfer/Airdrop.sol\":2453:2495  _addresses[i].call{value: _amounts[i]}(\"\") */\n      mload(0x40)\n      tag_72\n      swap1\n      tag_73\n      jump\t// in\n    tag_72:\n      0x00\n      mload(0x40)\n      dup1\n      dup4\n      sub\n      dup2\n      dup6\n      dup8\n      gas\n      call\n      swap3\n      pop\n      pop\n      pop\n      returndatasize\n      dup1\n      0x00\n      dup2\n      eq\n      tag_76\n      jumpi\n      mload(0x40)\n      swap2\n      pop\n      and(add(returndatasize, 0x3f), not(0x1f))\n      dup3\n      add\n      0x40\n      mstore\n      returndatasize\n      dup3\n      mstore\n      returndatasize\n      0x00\n      0x20\n      dup5\n      add\n      returndatacopy\n      jump(tag_75)\n    tag_76:\n      0x60\n      swap2\n      pop\n    tag_75:\n      pop\n        /* \"contracts/WTF_ethers/15_MultiTransfer/Airdrop.sol\":2434:2495  (bool success, ) = _addresses[i].call{value: _amounts[i]}(\"\") */\n      pop\n      swap1\n      pop\n        /* \"contracts/WTF_ethers/15_MultiTransfer/Airdrop.sol\":2514:2521  success */\n      dup1\n        /* \"contracts/WTF_ethers/15_MultiTransfer/Airdrop.sol\":2509:2601  if (!success) {... */\n      tag_77\n      jumpi\n        /* \"contracts/WTF_ethers/15_MultiTransfer/Airdrop.sol\":2575:2583  _amounts */\n      dup5\n      dup5\n        /* \"contracts/WTF_ethers/15_MultiTransfer/Airdrop.sol\":2584:2585  i */\n      dup4\n        /* \"contracts/WTF_ethers/15_MultiTransfer/Airdrop.sol\":2575:2586  _amounts[i] */\n      dup2\n      dup2\n      lt\n      tag_78\n      jumpi\n      tag_79\n      tag_46\n      jump\t// in\n    tag_79:\n    tag_78:\n      swap1\n      pop\n      0x20\n      mul\n      add\n      calldataload\n        /* \"contracts/WTF_ethers/15_MultiTransfer/Airdrop.sol\":2541:2557  failTransferList */\n      0x00\n        /* \"contracts/WTF_ethers/15_MultiTransfer/Airdrop.sol\":2541:2572  failTransferList[_addresses[i]] */\n      0x00\n        /* \"contracts/WTF_ethers/15_MultiTransfer/Airdrop.sol\":2558:2568  _addresses */\n      dup10\n      dup10\n        /* \"contracts/WTF_ethers/15_MultiTransfer/Airdrop.sol\":2569:2570  i */\n      dup7\n        /* \"contracts/WTF_ethers/15_MultiTransfer/Airdrop.sol\":2558:2571  _addresses[i] */\n      dup2\n      dup2\n      lt\n      tag_80\n      jumpi\n      tag_81\n      tag_46\n      jump\t// in\n    tag_81:\n    tag_80:\n      swap1\n      pop\n      0x20\n      mul\n      add\n      0x20\n      dup2\n      add\n      swap1\n      tag_82\n      swap2\n      swap1\n      tag_69\n      jump\t// in\n    tag_82:\n        /* \"contracts/WTF_ethers/15_MultiTransfer/Airdrop.sol\":2541:2572  failTransferList[_addresses[i]] */\n      0xffffffffffffffffffffffffffffffffffffffff\n      and\n      0xffffffffffffffffffffffffffffffffffffffff\n      and\n      dup2\n      mstore\n      0x20\n      add\n      swap1\n      dup2\n      mstore\n      0x20\n      add\n      0x00\n      keccak256\n        /* \"contracts/WTF_ethers/15_MultiTransfer/Airdrop.sol\":2541:2586  failTransferList[_addresses[i]] = _amounts[i] */\n      dup2\n      swap1\n      sstore\n      pop\n        /* \"contracts/WTF_ethers/15_MultiTransfer/Airdrop.sol\":2509:2601  if (!success) {... */\n    tag_77:\n        /* \"contracts/WTF_ethers/15_MultiTransfer/Airdrop.sol\":2175:2611  {... */\n      pop\n        /* \"contracts/WTF_ethers/15_MultiTransfer/Airdrop.sol\":2170:2173  i++ */\n      dup1\n      dup1\n      0x01\n      add\n      swap2\n      pop\n      pop\n        /* \"contracts/WTF_ethers/15_MultiTransfer/Airdrop.sol\":2127:2611  for (uint256 i = 0; i < _addresses.length; i++) {... */\n      jump(tag_63)\n    tag_64:\n      pop\n        /* \"contracts/WTF_ethers/15_MultiTransfer/Airdrop.sol\":1685:2617  {... */\n      pop\n        /* \"contracts/WTF_ethers/15_MultiTransfer/Airdrop.sol\":1554:2617  function multiTransferETH(... */\n      pop\n      pop\n      pop\n      pop\n      jump\t// out\n        /* \"contracts/WTF_ethers/15_MultiTransfer/Airdrop.sol\":2685:3006  function withdrawFromFailList(address _to) public {... */\n    tag_19:\n        /* \"contracts/WTF_ethers/15_MultiTransfer/Airdrop.sol\":2745:2760  uint failAmount */\n      0x00\n        /* \"contracts/WTF_ethers/15_MultiTransfer/Airdrop.sol\":2763:2779  failTransferList */\n      0x00\n        /* \"contracts/WTF_ethers/15_MultiTransfer/Airdrop.sol\":2763:2791  failTransferList[msg.sender] */\n      0x00\n        /* \"contracts/WTF_ethers/15_MultiTransfer/Airdrop.sol\":2780:2790  msg.sender */\n      caller\n        /* \"contracts/WTF_ethers/15_MultiTransfer/Airdrop.sol\":2763:2791  failTransferList[msg.sender] */\n      0xffffffffffffffffffffffffffffffffffffffff\n      and\n      0xffffffffffffffffffffffffffffffffffffffff\n      and\n      dup2\n      mstore\n      0x20\n      add\n      swap1\n      dup2\n      mstore\n      0x20\n      add\n      0x00\n      keccak256\n      sload\n        /* \"contracts/WTF_ethers/15_MultiTransfer/Airdrop.sol\":2745:2791  uint failAmount = failTransferList[msg.sender] */\n      swap1\n      pop\n        /* \"contracts/WTF_ethers/15_MultiTransfer/Airdrop.sol\":2822:2823  0 */\n      0x00\n        /* \"contracts/WTF_ethers/15_MultiTransfer/Airdrop.sol\":2809:2819  failAmount */\n      dup2\n        /* \"contracts/WTF_ethers/15_MultiTransfer/Airdrop.sol\":2809:2823  failAmount > 0 */\n      gt\n        /* \"contracts/WTF_ethers/15_MultiTransfer/Airdrop.sol\":2801:2854  require(failAmount > 0, \"You are not in failed list\") */\n      tag_84\n      jumpi\n      mload(0x40)\n      0x08c379a000000000000000000000000000000000000000000000000000000000\n      dup2\n      mstore\n      0x04\n      add\n      tag_85\n      swap1\n      tag_86\n      jump\t// in\n    tag_85:\n      mload(0x40)\n      dup1\n      swap2\n      sub\n      swap1\n      revert\n    tag_84:\n        /* \"contracts/WTF_ethers/15_MultiTransfer/Airdrop.sol\":2895:2896  0 */\n      0x00\n        /* \"contracts/WTF_ethers/15_MultiTransfer/Airdrop.sol\":2864:2880  failTransferList */\n      0x00\n        /* \"contracts/WTF_ethers/15_MultiTransfer/Airdrop.sol\":2864:2892  failTransferList[msg.sender] */\n      0x00\n        /* \"contracts/WTF_ethers/15_MultiTransfer/Airdrop.sol\":2881:2891  msg.sender */\n      caller\n        /* \"contracts/WTF_ethers/15_MultiTransfer/Airdrop.sol\":2864:2892  failTransferList[msg.sender] */\n      0xffffffffffffffffffffffffffffffffffffffff\n      and\n      0xffffffffffffffffffffffffffffffffffffffff\n      and\n      dup2\n      mstore\n      0x20\n      add\n      swap1\n      dup2\n      mstore\n      0x20\n      add\n      0x00\n      keccak256\n        /* \"contracts/WTF_ethers/15_MultiTransfer/Airdrop.sol\":2864:2896  failTransferList[msg.sender] = 0 */\n      dup2\n      swap1\n      sstore\n      pop\n        /* \"contracts/WTF_ethers/15_MultiTransfer/Airdrop.sol\":2907:2919  bool success */\n      0x00\n        /* \"contracts/WTF_ethers/15_MultiTransfer/Airdrop.sol\":2925:2928  _to */\n      dup3\n        /* \"contracts/WTF_ethers/15_MultiTransfer/Airdrop.sol\":2925:2933  _to.call */\n      0xffffffffffffffffffffffffffffffffffffffff\n      and\n        /* \"contracts/WTF_ethers/15_MultiTransfer/Airdrop.sol\":2941:2951  failAmount */\n      dup3\n        /* \"contracts/WTF_ethers/15_MultiTransfer/Airdrop.sol\":2925:2956  _to.call{value: failAmount}(\"\") */\n      mload(0x40)\n      tag_87\n      swap1\n      tag_73\n      jump\t// in\n    tag_87:\n      0x00\n      mload(0x40)\n      dup1\n      dup4\n      sub\n      dup2\n      dup6\n      dup8\n      gas\n      call\n      swap3\n      pop\n      pop\n      pop\n      returndatasize\n      dup1\n      0x00\n      dup2\n      eq\n      tag_90\n      jumpi\n      mload(0x40)\n      swap2\n      pop\n      and(add(returndatasize, 0x3f), not(0x1f))\n      dup3\n      add\n      0x40\n      mstore\n      returndatasize\n      dup3\n      mstore\n      returndatasize\n      0x00\n      0x20\n      dup5\n      add\n      returndatacopy\n      jump(tag_89)\n    tag_90:\n      0x60\n      swap2\n      pop\n    tag_89:\n      pop\n        /* \"contracts/WTF_ethers/15_MultiTransfer/Airdrop.sol\":2906:2956  (bool success, ) = _to.call{value: failAmount}(\"\") */\n      pop\n      swap1\n      pop\n        /* \"contracts/WTF_ethers/15_MultiTransfer/Airdrop.sol\":2974:2981  success */\n      dup1\n        /* \"contracts/WTF_ethers/15_MultiTransfer/Airdrop.sol\":2966:2999  require(success, \"Fail withdraw\") */\n      tag_91\n      jumpi\n      mload(0x40)\n      0x08c379a000000000000000000000000000000000000000000000000000000000\n      dup2\n      mstore\n      0x04\n      add\n      tag_92\n      swap1\n      tag_93\n      jump\t// in\n    tag_92:\n      mload(0x40)\n      dup1\n      swap2\n      sub\n      swap1\n      revert\n    tag_91:\n        /* \"contracts/WTF_ethers/15_MultiTransfer/Airdrop.sol\":2735:3006  {... */\n      pop\n      pop\n        /* \"contracts/WTF_ethers/15_MultiTransfer/Airdrop.sol\":2685:3006  function withdrawFromFailList(address _to) public {... */\n      pop\n      jump\t// out\n        /* \"contracts/WTF_ethers/15_MultiTransfer/Airdrop.sol\":3038:3185  function getSum(uint256[] calldata _arr) public pure returns (uint sum) {... */\n    tag_24:\n        /* \"contracts/WTF_ethers/15_MultiTransfer/Airdrop.sol\":3100:3108  uint sum */\n      0x00\n        /* \"contracts/WTF_ethers/15_MultiTransfer/Airdrop.sol\":3125:3131  uint i */\n      0x00\n        /* \"contracts/WTF_ethers/15_MultiTransfer/Airdrop.sol\":3134:3135  0 */\n      0x00\n        /* \"contracts/WTF_ethers/15_MultiTransfer/Airdrop.sol\":3125:3135  uint i = 0 */\n      swap1\n      pop\n        /* \"contracts/WTF_ethers/15_MultiTransfer/Airdrop.sol\":3120:3178  for (uint i = 0; i < _arr.length; i++) sum = sum + _arr[i] */\n    tag_95:\n        /* \"contracts/WTF_ethers/15_MultiTransfer/Airdrop.sol\":3141:3145  _arr */\n      dup4\n      dup4\n        /* \"contracts/WTF_ethers/15_MultiTransfer/Airdrop.sol\":3141:3152  _arr.length */\n      swap1\n      pop\n        /* \"contracts/WTF_ethers/15_MultiTransfer/Airdrop.sol\":3137:3138  i */\n      dup2\n        /* \"contracts/WTF_ethers/15_MultiTransfer/Airdrop.sol\":3137:3152  i < _arr.length */\n      lt\n        /* \"contracts/WTF_ethers/15_MultiTransfer/Airdrop.sol\":3120:3178  for (uint i = 0; i < _arr.length; i++) sum = sum + _arr[i] */\n      iszero\n      tag_96\n      jumpi\n        /* \"contracts/WTF_ethers/15_MultiTransfer/Airdrop.sol\":3171:3175  _arr */\n      dup4\n      dup4\n        /* \"contracts/WTF_ethers/15_MultiTransfer/Airdrop.sol\":3176:3177  i */\n      dup3\n        /* \"contracts/WTF_ethers/15_MultiTransfer/Airdrop.sol\":3171:3178  _arr[i] */\n      dup2\n      dup2\n      lt\n      tag_98\n      jumpi\n      tag_99\n      tag_46\n      jump\t// in\n    tag_99:\n    tag_98:\n      swap1\n      pop\n      0x20\n      mul\n      add\n      calldataload\n        /* \"contracts/WTF_ethers/15_MultiTransfer/Airdrop.sol\":3165:3168  sum */\n      dup3\n        /* \"contracts/WTF_ethers/15_MultiTransfer/Airdrop.sol\":3165:3178  sum + _arr[i] */\n      tag_100\n      swap2\n      swap1\n      tag_101\n      jump\t// in\n    tag_100:\n        /* \"contracts/WTF_ethers/15_MultiTransfer/Airdrop.sol\":3159:3178  sum = sum + _arr[i] */\n      swap2\n      pop\n        /* \"contracts/WTF_ethers/15_MultiTransfer/Airdrop.sol\":3154:3157  i++ */\n      dup1\n      dup1\n      0x01\n      add\n      swap2\n      pop\n      pop\n        /* \"contracts/WTF_ethers/15_MultiTransfer/Airdrop.sol\":3120:3178  for (uint i = 0; i < _arr.length; i++) sum = sum + _arr[i] */\n      jump(tag_95)\n    tag_96:\n      pop\n        /* \"contracts/WTF_ethers/15_MultiTransfer/Airdrop.sol\":3038:3185  function getSum(uint256[] calldata _arr) public pure returns (uint sum) {... */\n      swap3\n      swap2\n      pop\n      pop\n      jump\t// out\n        /* \"#utility.yul\":88:205   */\n    tag_103:\n        /* \"#utility.yul\":197:198   */\n      0x00\n        /* \"#utility.yul\":194:195   */\n      0x00\n        /* \"#utility.yul\":187:199   */\n      revert\n        /* \"#utility.yul\":211:328   */\n    tag_104:\n        /* \"#utility.yul\":320:321   */\n      0x00\n        /* \"#utility.yul\":317:318   */\n      0x00\n        /* \"#utility.yul\":310:322   */\n      revert\n        /* \"#utility.yul\":334:460   */\n    tag_105:\n        /* \"#utility.yul\":371:378   */\n      0x00\n        /* \"#utility.yul\":411:453   */\n      0xffffffffffffffffffffffffffffffffffffffff\n        /* \"#utility.yul\":404:409   */\n      dup3\n        /* \"#utility.yul\":400:454   */\n      and\n        /* \"#utility.yul\":389:454   */\n      swap1\n      pop\n        /* \"#utility.yul\":334:460   */\n      swap2\n      swap1\n      pop\n      jump\t// out\n        /* \"#utility.yul\":466:562   */\n    tag_106:\n        /* \"#utility.yul\":503:510   */\n      0x00\n        /* \"#utility.yul\":532:556   */\n      tag_147\n        /* \"#utility.yul\":550:555   */\n      dup3\n        /* \"#utility.yul\":532:556   */\n      tag_105\n      jump\t// in\n    tag_147:\n        /* \"#utility.yul\":521:556   */\n      swap1\n      pop\n        /* \"#utility.yul\":466:562   */\n      swap2\n      swap1\n      pop\n      jump\t// out\n        /* \"#utility.yul\":568:690   */\n    tag_107:\n        /* \"#utility.yul\":641:665   */\n      tag_149\n        /* \"#utility.yul\":659:664   */\n      dup2\n        /* \"#utility.yul\":641:665   */\n      tag_106\n      jump\t// in\n    tag_149:\n        /* \"#utility.yul\":634:639   */\n      dup2\n        /* \"#utility.yul\":631:666   */\n      eq\n        /* \"#utility.yul\":621:684   */\n      tag_150\n      jumpi\n        /* \"#utility.yul\":680:681   */\n      0x00\n        /* \"#utility.yul\":677:678   */\n      0x00\n        /* \"#utility.yul\":670:682   */\n      revert\n        /* \"#utility.yul\":621:684   */\n    tag_150:\n        /* \"#utility.yul\":568:690   */\n      pop\n      jump\t// out\n        /* \"#utility.yul\":696:835   */\n    tag_108:\n        /* \"#utility.yul\":742:747   */\n      0x00\n        /* \"#utility.yul\":780:786   */\n      dup2\n        /* \"#utility.yul\":767:787   */\n      calldataload\n        /* \"#utility.yul\":758:787   */\n      swap1\n      pop\n        /* \"#utility.yul\":796:829   */\n      tag_152\n        /* \"#utility.yul\":823:828   */\n      dup2\n        /* \"#utility.yul\":796:829   */\n      tag_107\n      jump\t// in\n    tag_152:\n        /* \"#utility.yul\":696:835   */\n      swap3\n      swap2\n      pop\n      pop\n      jump\t// out\n        /* \"#utility.yul\":841:958   */\n    tag_109:\n        /* \"#utility.yul\":950:951   */\n      0x00\n        /* \"#utility.yul\":947:948   */\n      0x00\n        /* \"#utility.yul\":940:952   */\n      revert\n        /* \"#utility.yul\":964:1081   */\n    tag_110:\n        /* \"#utility.yul\":1073:1074   */\n      0x00\n        /* \"#utility.yul\":1070:1071   */\n      0x00\n        /* \"#utility.yul\":1063:1075   */\n      revert\n        /* \"#utility.yul\":1087:1204   */\n    tag_111:\n        /* \"#utility.yul\":1196:1197   */\n      0x00\n        /* \"#utility.yul\":1193:1194   */\n      0x00\n        /* \"#utility.yul\":1186:1198   */\n      revert\n        /* \"#utility.yul\":1227:1795   */\n    tag_112:\n        /* \"#utility.yul\":1300:1308   */\n      0x00\n        /* \"#utility.yul\":1310:1316   */\n      0x00\n        /* \"#utility.yul\":1360:1363   */\n      dup4\n        /* \"#utility.yul\":1353:1357   */\n      0x1f\n        /* \"#utility.yul\":1345:1351   */\n      dup5\n        /* \"#utility.yul\":1341:1358   */\n      add\n        /* \"#utility.yul\":1337:1364   */\n      slt\n        /* \"#utility.yul\":1327:1449   */\n      tag_157\n      jumpi\n        /* \"#utility.yul\":1368:1447   */\n      tag_158\n      tag_109\n      jump\t// in\n    tag_158:\n        /* \"#utility.yul\":1327:1449   */\n    tag_157:\n        /* \"#utility.yul\":1481:1487   */\n      dup3\n        /* \"#utility.yul\":1468:1488   */\n      calldataload\n        /* \"#utility.yul\":1458:1488   */\n      swap1\n      pop\n        /* \"#utility.yul\":1511:1529   */\n      0xffffffffffffffff\n        /* \"#utility.yul\":1503:1509   */\n      dup2\n        /* \"#utility.yul\":1500:1530   */\n      gt\n        /* \"#utility.yul\":1497:1614   */\n      iszero\n      tag_159\n      jumpi\n        /* \"#utility.yul\":1533:1612   */\n      tag_160\n      tag_110\n      jump\t// in\n    tag_160:\n        /* \"#utility.yul\":1497:1614   */\n    tag_159:\n        /* \"#utility.yul\":1647:1651   */\n      0x20\n        /* \"#utility.yul\":1639:1645   */\n      dup4\n        /* \"#utility.yul\":1635:1652   */\n      add\n        /* \"#utility.yul\":1623:1652   */\n      swap2\n      pop\n        /* \"#utility.yul\":1701:1704   */\n      dup4\n        /* \"#utility.yul\":1693:1697   */\n      0x20\n        /* \"#utility.yul\":1685:1691   */\n      dup3\n        /* \"#utility.yul\":1681:1698   */\n      mul\n        /* \"#utility.yul\":1671:1679   */\n      dup4\n        /* \"#utility.yul\":1667:1699   */\n      add\n        /* \"#utility.yul\":1664:1705   */\n      gt\n        /* \"#utility.yul\":1661:1789   */\n      iszero\n      tag_161\n      jumpi\n        /* \"#utility.yul\":1708:1787   */\n      tag_162\n      tag_111\n      jump\t// in\n    tag_162:\n        /* \"#utility.yul\":1661:1789   */\n    tag_161:\n        /* \"#utility.yul\":1227:1795   */\n      swap3\n      pop\n      swap3\n      swap1\n      pop\n      jump\t// out\n        /* \"#utility.yul\":1818:2386   */\n    tag_113:\n        /* \"#utility.yul\":1891:1899   */\n      0x00\n        /* \"#utility.yul\":1901:1907   */\n      0x00\n        /* \"#utility.yul\":1951:1954   */\n      dup4\n        /* \"#utility.yul\":1944:1948   */\n      0x1f\n        /* \"#utility.yul\":1936:1942   */\n      dup5\n        /* \"#utility.yul\":1932:1949   */\n      add\n        /* \"#utility.yul\":1928:1955   */\n      slt\n        /* \"#utility.yul\":1918:2040   */\n      tag_164\n      jumpi\n        /* \"#utility.yul\":1959:2038   */\n      tag_165\n      tag_109\n      jump\t// in\n    tag_165:\n        /* \"#utility.yul\":1918:2040   */\n    tag_164:\n        /* \"#utility.yul\":2072:2078   */\n      dup3\n        /* \"#utility.yul\":2059:2079   */\n      calldataload\n        /* \"#utility.yul\":2049:2079   */\n      swap1\n      pop\n        /* \"#utility.yul\":2102:2120   */\n      0xffffffffffffffff\n        /* \"#utility.yul\":2094:2100   */\n      dup2\n        /* \"#utility.yul\":2091:2121   */\n      gt\n        /* \"#utility.yul\":2088:2205   */\n      iszero\n      tag_166\n      jumpi\n        /* \"#utility.yul\":2124:2203   */\n      tag_167\n      tag_110\n      jump\t// in\n    tag_167:\n        /* \"#utility.yul\":2088:2205   */\n    tag_166:\n        /* \"#utility.yul\":2238:2242   */\n      0x20\n        /* \"#utility.yul\":2230:2236   */\n      dup4\n        /* \"#utility.yul\":2226:2243   */\n      add\n        /* \"#utility.yul\":2214:2243   */\n      swap2\n      pop\n        /* \"#utility.yul\":2292:2295   */\n      dup4\n        /* \"#utility.yul\":2284:2288   */\n      0x20\n        /* \"#utility.yul\":2276:2282   */\n      dup3\n        /* \"#utility.yul\":2272:2289   */\n      mul\n        /* \"#utility.yul\":2262:2270   */\n      dup4\n        /* \"#utility.yul\":2258:2290   */\n      add\n        /* \"#utility.yul\":2255:2296   */\n      gt\n        /* \"#utility.yul\":2252:2380   */\n      iszero\n      tag_168\n      jumpi\n        /* \"#utility.yul\":2299:2378   */\n      tag_169\n      tag_111\n      jump\t// in\n    tag_169:\n        /* \"#utility.yul\":2252:2380   */\n    tag_168:\n        /* \"#utility.yul\":1818:2386   */\n      swap3\n      pop\n      swap3\n      swap1\n      pop\n      jump\t// out\n        /* \"#utility.yul\":2392:3617   */\n    tag_9:\n        /* \"#utility.yul\":2532:2538   */\n      0x00\n        /* \"#utility.yul\":2540:2546   */\n      0x00\n        /* \"#utility.yul\":2548:2554   */\n      0x00\n        /* \"#utility.yul\":2556:2562   */\n      0x00\n        /* \"#utility.yul\":2564:2570   */\n      0x00\n        /* \"#utility.yul\":2572:2578   */\n      0x00\n        /* \"#utility.yul\":2621:2624   */\n      0x80\n        /* \"#utility.yul\":2609:2618   */\n      dup8\n        /* \"#utility.yul\":2600:2607   */\n      dup10\n        /* \"#utility.yul\":2596:2619   */\n      sub\n        /* \"#utility.yul\":2592:2625   */\n      slt\n        /* \"#utility.yul\":2589:2709   */\n      iszero\n      tag_171\n      jumpi\n        /* \"#utility.yul\":2628:2707   */\n      tag_172\n      tag_103\n      jump\t// in\n    tag_172:\n        /* \"#utility.yul\":2589:2709   */\n    tag_171:\n        /* \"#utility.yul\":2748:2749   */\n      0x00\n        /* \"#utility.yul\":2773:2826   */\n      tag_173\n        /* \"#utility.yul\":2818:2825   */\n      dup10\n        /* \"#utility.yul\":2809:2815   */\n      dup3\n        /* \"#utility.yul\":2798:2807   */\n      dup11\n        /* \"#utility.yul\":2794:2816   */\n      add\n        /* \"#utility.yul\":2773:2826   */\n      tag_108\n      jump\t// in\n    tag_173:\n        /* \"#utility.yul\":2763:2826   */\n      swap7\n      pop\n        /* \"#utility.yul\":2719:2836   */\n      pop\n        /* \"#utility.yul\":2903:2905   */\n      0x20\n        /* \"#utility.yul\":2892:2901   */\n      dup8\n        /* \"#utility.yul\":2888:2906   */\n      add\n        /* \"#utility.yul\":2875:2907   */\n      calldataload\n        /* \"#utility.yul\":2934:2952   */\n      0xffffffffffffffff\n        /* \"#utility.yul\":2926:2932   */\n      dup2\n        /* \"#utility.yul\":2923:2953   */\n      gt\n        /* \"#utility.yul\":2920:3037   */\n      iszero\n      tag_174\n      jumpi\n        /* \"#utility.yul\":2956:3035   */\n      tag_175\n      tag_104\n      jump\t// in\n    tag_175:\n        /* \"#utility.yul\":2920:3037   */\n    tag_174:\n        /* \"#utility.yul\":3069:3149   */\n      tag_176\n        /* \"#utility.yul\":3141:3148   */\n      dup10\n        /* \"#utility.yul\":3132:3138   */\n      dup3\n        /* \"#utility.yul\":3121:3130   */\n      dup11\n        /* \"#utility.yul\":3117:3139   */\n      add\n        /* \"#utility.yul\":3069:3149   */\n      tag_112\n      jump\t// in\n    tag_176:\n        /* \"#utility.yul\":3051:3149   */\n      swap6\n      pop\n      swap6\n      pop\n        /* \"#utility.yul\":2846:3159   */\n      pop\n        /* \"#utility.yul\":3226:3228   */\n      0x40\n        /* \"#utility.yul\":3215:3224   */\n      dup8\n        /* \"#utility.yul\":3211:3229   */\n      add\n        /* \"#utility.yul\":3198:3230   */\n      calldataload\n        /* \"#utility.yul\":3257:3275   */\n      0xffffffffffffffff\n        /* \"#utility.yul\":3249:3255   */\n      dup2\n        /* \"#utility.yul\":3246:3276   */\n      gt\n        /* \"#utility.yul\":3243:3360   */\n      iszero\n      tag_177\n      jumpi\n        /* \"#utility.yul\":3279:3358   */\n      tag_178\n      tag_104\n      jump\t// in\n    tag_178:\n        /* \"#utility.yul\":3243:3360   */\n    tag_177:\n        /* \"#utility.yul\":3392:3472   */\n      tag_179\n        /* \"#utility.yul\":3464:3471   */\n      dup10\n        /* \"#utility.yul\":3455:3461   */\n      dup3\n        /* \"#utility.yul\":3444:3453   */\n      dup11\n        /* \"#utility.yul\":3440:3462   */\n      add\n        /* \"#utility.yul\":3392:3472   */\n      tag_113\n      jump\t// in\n    tag_179:\n        /* \"#utility.yul\":3374:3472   */\n      swap4\n      pop\n      swap4\n      pop\n        /* \"#utility.yul\":3169:3482   */\n      pop\n        /* \"#utility.yul\":3521:3523   */\n      0x60\n        /* \"#utility.yul\":3547:3600   */\n      tag_180\n        /* \"#utility.yul\":3592:3599   */\n      dup10\n        /* \"#utility.yul\":3583:3589   */\n      dup3\n        /* \"#utility.yul\":3572:3581   */\n      dup11\n        /* \"#utility.yul\":3568:3590   */\n      add\n        /* \"#utility.yul\":3547:3600   */\n      tag_108\n      jump\t// in\n    tag_180:\n        /* \"#utility.yul\":3537:3600   */\n      swap2\n      pop\n        /* \"#utility.yul\":3492:3610   */\n      pop\n        /* \"#utility.yul\":2392:3617   */\n      swap3\n      swap6\n      pop\n      swap3\n      swap6\n      pop\n      swap3\n      swap6\n      jump\t// out\n        /* \"#utility.yul\":3648:4224   */\n    tag_114:\n        /* \"#utility.yul\":3729:3737   */\n      0x00\n        /* \"#utility.yul\":3739:3745   */\n      0x00\n        /* \"#utility.yul\":3789:3792   */\n      dup4\n        /* \"#utility.yul\":3782:3786   */\n      0x1f\n        /* \"#utility.yul\":3774:3780   */\n      dup5\n        /* \"#utility.yul\":3770:3787   */\n      add\n        /* \"#utility.yul\":3766:3793   */\n      slt\n        /* \"#utility.yul\":3756:3878   */\n      tag_182\n      jumpi\n        /* \"#utility.yul\":3797:3876   */\n      tag_183\n      tag_109\n      jump\t// in\n    tag_183:\n        /* \"#utility.yul\":3756:3878   */\n    tag_182:\n        /* \"#utility.yul\":3910:3916   */\n      dup3\n        /* \"#utility.yul\":3897:3917   */\n      calldataload\n        /* \"#utility.yul\":3887:3917   */\n      swap1\n      pop\n        /* \"#utility.yul\":3940:3958   */\n      0xffffffffffffffff\n        /* \"#utility.yul\":3932:3938   */\n      dup2\n        /* \"#utility.yul\":3929:3959   */\n      gt\n        /* \"#utility.yul\":3926:4043   */\n      iszero\n      tag_184\n      jumpi\n        /* \"#utility.yul\":3962:4041   */\n      tag_185\n      tag_110\n      jump\t// in\n    tag_185:\n        /* \"#utility.yul\":3926:4043   */\n    tag_184:\n        /* \"#utility.yul\":4076:4080   */\n      0x20\n        /* \"#utility.yul\":4068:4074   */\n      dup4\n        /* \"#utility.yul\":4064:4081   */\n      add\n        /* \"#utility.yul\":4052:4081   */\n      swap2\n      pop\n        /* \"#utility.yul\":4130:4133   */\n      dup4\n        /* \"#utility.yul\":4122:4126   */\n      0x20\n        /* \"#utility.yul\":4114:4120   */\n      dup3\n        /* \"#utility.yul\":4110:4127   */\n      mul\n        /* \"#utility.yul\":4100:4108   */\n      dup4\n        /* \"#utility.yul\":4096:4128   */\n      add\n        /* \"#utility.yul\":4093:4134   */\n      gt\n        /* \"#utility.yul\":4090:4218   */\n      iszero\n      tag_186\n      jumpi\n        /* \"#utility.yul\":4137:4216   */\n      tag_187\n      tag_111\n      jump\t// in\n    tag_187:\n        /* \"#utility.yul\":4090:4218   */\n    tag_186:\n        /* \"#utility.yul\":3648:4224   */\n      swap3\n      pop\n      swap3\n      swap1\n      pop\n      jump\t// out\n        /* \"#utility.yul\":4230:5180   */\n    tag_13:\n        /* \"#utility.yul\":4360:4366   */\n      0x00\n        /* \"#utility.yul\":4368:4374   */\n      0x00\n        /* \"#utility.yul\":4376:4382   */\n      0x00\n        /* \"#utility.yul\":4384:4390   */\n      0x00\n        /* \"#utility.yul\":4433:4435   */\n      0x40\n        /* \"#utility.yul\":4421:4430   */\n      dup6\n        /* \"#utility.yul\":4412:4419   */\n      dup8\n        /* \"#utility.yul\":4408:4431   */\n      sub\n        /* \"#utility.yul\":4404:4436   */\n      slt\n        /* \"#utility.yul\":4401:4520   */\n      iszero\n      tag_189\n      jumpi\n        /* \"#utility.yul\":4439:4518   */\n      tag_190\n      tag_103\n      jump\t// in\n    tag_190:\n        /* \"#utility.yul\":4401:4520   */\n    tag_189:\n        /* \"#utility.yul\":4587:4588   */\n      0x00\n        /* \"#utility.yul\":4576:4585   */\n      dup6\n        /* \"#utility.yul\":4572:4589   */\n      add\n        /* \"#utility.yul\":4559:4590   */\n      calldataload\n        /* \"#utility.yul\":4617:4635   */\n      0xffffffffffffffff\n        /* \"#utility.yul\":4609:4615   */\n      dup2\n        /* \"#utility.yul\":4606:4636   */\n      gt\n        /* \"#utility.yul\":4603:4720   */\n      iszero\n      tag_191\n      jumpi\n        /* \"#utility.yul\":4639:4718   */\n      tag_192\n      tag_104\n      jump\t// in\n    tag_192:\n        /* \"#utility.yul\":4603:4720   */\n    tag_191:\n        /* \"#utility.yul\":4752:4840   */\n      tag_193\n        /* \"#utility.yul\":4832:4839   */\n      dup8\n        /* \"#utility.yul\":4823:4829   */\n      dup3\n        /* \"#utility.yul\":4812:4821   */\n      dup9\n        /* \"#utility.yul\":4808:4830   */\n      add\n        /* \"#utility.yul\":4752:4840   */\n      tag_114\n      jump\t// in\n    tag_193:\n        /* \"#utility.yul\":4734:4840   */\n      swap5\n      pop\n      swap5\n      pop\n        /* \"#utility.yul\":4530:4850   */\n      pop\n        /* \"#utility.yul\":4917:4919   */\n      0x20\n        /* \"#utility.yul\":4906:4915   */\n      dup6\n        /* \"#utility.yul\":4902:4920   */\n      add\n        /* \"#utility.yul\":4889:4921   */\n      calldataload\n        /* \"#utility.yul\":4948:4966   */\n      0xffffffffffffffff\n        /* \"#utility.yul\":4940:4946   */\n      dup2\n        /* \"#utility.yul\":4937:4967   */\n      gt\n        /* \"#utility.yul\":4934:5051   */\n      iszero\n      tag_194\n      jumpi\n        /* \"#utility.yul\":4970:5049   */\n      tag_195\n      tag_104\n      jump\t// in\n    tag_195:\n        /* \"#utility.yul\":4934:5051   */\n    tag_194:\n        /* \"#utility.yul\":5083:5163   */\n      tag_196\n        /* \"#utility.yul\":5155:5162   */\n      dup8\n        /* \"#utility.yul\":5146:5152   */\n      dup3\n        /* \"#utility.yul\":5135:5144   */\n      dup9\n        /* \"#utility.yul\":5131:5153   */\n      add\n        /* \"#utility.yul\":5083:5163   */\n      tag_113\n      jump\t// in\n    tag_196:\n        /* \"#utility.yul\":5065:5163   */\n      swap3\n      pop\n      swap3\n      pop\n        /* \"#utility.yul\":4860:5173   */\n      pop\n        /* \"#utility.yul\":4230:5180   */\n      swap3\n      swap6\n      swap2\n      swap5\n      pop\n      swap3\n      pop\n      jump\t// out\n        /* \"#utility.yul\":5186:5515   */\n    tag_18:\n        /* \"#utility.yul\":5245:5251   */\n      0x00\n        /* \"#utility.yul\":5294:5296   */\n      0x20\n        /* \"#utility.yul\":5282:5291   */\n      dup3\n        /* \"#utility.yul\":5273:5280   */\n      dup5\n        /* \"#utility.yul\":5269:5292   */\n      sub\n        /* \"#utility.yul\":5265:5297   */\n      slt\n        /* \"#utility.yul\":5262:5381   */\n      iszero\n      tag_198\n      jumpi\n        /* \"#utility.yul\":5300:5379   */\n      tag_199\n      tag_103\n      jump\t// in\n    tag_199:\n        /* \"#utility.yul\":5262:5381   */\n    tag_198:\n        /* \"#utility.yul\":5420:5421   */\n      0x00\n        /* \"#utility.yul\":5445:5498   */\n      tag_200\n        /* \"#utility.yul\":5490:5497   */\n      dup5\n        /* \"#utility.yul\":5481:5487   */\n      dup3\n        /* \"#utility.yul\":5470:5479   */\n      dup6\n        /* \"#utility.yul\":5466:5488   */\n      add\n        /* \"#utility.yul\":5445:5498   */\n      tag_108\n      jump\t// in\n    tag_200:\n        /* \"#utility.yul\":5435:5498   */\n      swap2\n      pop\n        /* \"#utility.yul\":5391:5508   */\n      pop\n        /* \"#utility.yul\":5186:5515   */\n      swap3\n      swap2\n      pop\n      pop\n      jump\t// out\n        /* \"#utility.yul\":5521:6080   */\n    tag_23:\n        /* \"#utility.yul\":5607:5613   */\n      0x00\n        /* \"#utility.yul\":5615:5621   */\n      0x00\n        /* \"#utility.yul\":5664:5666   */\n      0x20\n        /* \"#utility.yul\":5652:5661   */\n      dup4\n        /* \"#utility.yul\":5643:5650   */\n      dup6\n        /* \"#utility.yul\":5639:5662   */\n      sub\n        /* \"#utility.yul\":5635:5667   */\n      slt\n        /* \"#utility.yul\":5632:5751   */\n      iszero\n      tag_202\n      jumpi\n        /* \"#utility.yul\":5670:5749   */\n      tag_203\n      tag_103\n      jump\t// in\n    tag_203:\n        /* \"#utility.yul\":5632:5751   */\n    tag_202:\n        /* \"#utility.yul\":5818:5819   */\n      0x00\n        /* \"#utility.yul\":5807:5816   */\n      dup4\n        /* \"#utility.yul\":5803:5820   */\n      add\n        /* \"#utility.yul\":5790:5821   */\n      calldataload\n        /* \"#utility.yul\":5848:5866   */\n      0xffffffffffffffff\n        /* \"#utility.yul\":5840:5846   */\n      dup2\n        /* \"#utility.yul\":5837:5867   */\n      gt\n        /* \"#utility.yul\":5834:5951   */\n      iszero\n      tag_204\n      jumpi\n        /* \"#utility.yul\":5870:5949   */\n      tag_205\n      tag_104\n      jump\t// in\n    tag_205:\n        /* \"#utility.yul\":5834:5951   */\n    tag_204:\n        /* \"#utility.yul\":5983:6063   */\n      tag_206\n        /* \"#utility.yul\":6055:6062   */\n      dup6\n        /* \"#utility.yul\":6046:6052   */\n      dup3\n        /* \"#utility.yul\":6035:6044   */\n      dup7\n        /* \"#utility.yul\":6031:6053   */\n      add\n        /* \"#utility.yul\":5983:6063   */\n      tag_113\n      jump\t// in\n    tag_206:\n        /* \"#utility.yul\":5965:6063   */\n      swap3\n      pop\n      swap3\n      pop\n        /* \"#utility.yul\":5761:6073   */\n      pop\n        /* \"#utility.yul\":5521:6080   */\n      swap3\n      pop\n      swap3\n      swap1\n      pop\n      jump\t// out\n        /* \"#utility.yul\":6086:6163   */\n    tag_115:\n        /* \"#utility.yul\":6123:6130   */\n      0x00\n        /* \"#utility.yul\":6152:6157   */\n      dup2\n        /* \"#utility.yul\":6141:6157   */\n      swap1\n      pop\n        /* \"#utility.yul\":6086:6163   */\n      swap2\n      swap1\n      pop\n      jump\t// out\n        /* \"#utility.yul\":6169:6287   */\n    tag_116:\n        /* \"#utility.yul\":6256:6280   */\n      tag_209\n        /* \"#utility.yul\":6274:6279   */\n      dup2\n        /* \"#utility.yul\":6256:6280   */\n      tag_115\n      jump\t// in\n    tag_209:\n        /* \"#utility.yul\":6251:6254   */\n      dup3\n        /* \"#utility.yul\":6244:6281   */\n      mstore\n        /* \"#utility.yul\":6169:6287   */\n      pop\n      pop\n      jump\t// out\n        /* \"#utility.yul\":6293:6515   */\n    tag_26:\n        /* \"#utility.yul\":6386:6390   */\n      0x00\n        /* \"#utility.yul\":6424:6426   */\n      0x20\n        /* \"#utility.yul\":6413:6422   */\n      dup3\n        /* \"#utility.yul\":6409:6427   */\n      add\n        /* \"#utility.yul\":6401:6427   */\n      swap1\n      pop\n        /* \"#utility.yul\":6437:6508   */\n      tag_211\n        /* \"#utility.yul\":6505:6506   */\n      0x00\n        /* \"#utility.yul\":6494:6503   */\n      dup4\n        /* \"#utility.yul\":6490:6507   */\n      add\n        /* \"#utility.yul\":6481:6487   */\n      dup5\n        /* \"#utility.yul\":6437:6508   */\n      tag_116\n      jump\t// in\n    tag_211:\n        /* \"#utility.yul\":6293:6515   */\n      swap3\n      swap2\n      pop\n      pop\n      jump\t// out\n        /* \"#utility.yul\":6521:6690   */\n    tag_117:\n        /* \"#utility.yul\":6605:6616   */\n      0x00\n        /* \"#utility.yul\":6639:6645   */\n      dup3\n        /* \"#utility.yul\":6634:6637   */\n      dup3\n        /* \"#utility.yul\":6627:6646   */\n      mstore\n        /* \"#utility.yul\":6679:6683   */\n      0x20\n        /* \"#utility.yul\":6674:6677   */\n      dup3\n        /* \"#utility.yul\":6670:6684   */\n      add\n        /* \"#utility.yul\":6655:6684   */\n      swap1\n      pop\n        /* \"#utility.yul\":6521:6690   */\n      swap3\n      swap2\n      pop\n      pop\n      jump\t// out\n        /* \"#utility.yul\":6696:6925   */\n    tag_118:\n        /* \"#utility.yul\":6836:6870   */\n      0x4c656e67746873206f662041646472657373657320616e6420416d6f756e7473\n        /* \"#utility.yul\":6832:6833   */\n      0x00\n        /* \"#utility.yul\":6824:6830   */\n      dup3\n        /* \"#utility.yul\":6820:6834   */\n      add\n        /* \"#utility.yul\":6813:6871   */\n      mstore\n        /* \"#utility.yul\":6905:6917   */\n      0x204e4f5420455155414c00000000000000000000000000000000000000000000\n        /* \"#utility.yul\":6900:6902   */\n      0x20\n        /* \"#utility.yul\":6892:6898   */\n      dup3\n        /* \"#utility.yul\":6888:6903   */\n      add\n        /* \"#utility.yul\":6881:6918   */\n      mstore\n        /* \"#utility.yul\":6696:6925   */\n      pop\n      jump\t// out\n        /* \"#utility.yul\":6931:7297   */\n    tag_119:\n        /* \"#utility.yul\":7073:7076   */\n      0x00\n        /* \"#utility.yul\":7094:7161   */\n      tag_215\n        /* \"#utility.yul\":7158:7160   */\n      0x2a\n        /* \"#utility.yul\":7153:7156   */\n      dup4\n        /* \"#utility.yul\":7094:7161   */\n      tag_117\n      jump\t// in\n    tag_215:\n        /* \"#utility.yul\":7087:7161   */\n      swap2\n      pop\n        /* \"#utility.yul\":7170:7263   */\n      tag_216\n        /* \"#utility.yul\":7259:7262   */\n      dup3\n        /* \"#utility.yul\":7170:7263   */\n      tag_118\n      jump\t// in\n    tag_216:\n        /* \"#utility.yul\":7288:7290   */\n      0x40\n        /* \"#utility.yul\":7283:7286   */\n      dup3\n        /* \"#utility.yul\":7279:7291   */\n      add\n        /* \"#utility.yul\":7272:7291   */\n      swap1\n      pop\n        /* \"#utility.yul\":6931:7297   */\n      swap2\n      swap1\n      pop\n      jump\t// out\n        /* \"#utility.yul\":7303:7722   */\n    tag_30:\n        /* \"#utility.yul\":7469:7473   */\n      0x00\n        /* \"#utility.yul\":7507:7509   */\n      0x20\n        /* \"#utility.yul\":7496:7505   */\n      dup3\n        /* \"#utility.yul\":7492:7510   */\n      add\n        /* \"#utility.yul\":7484:7510   */\n      swap1\n      pop\n        /* \"#utility.yul\":7556:7565   */\n      dup2\n        /* \"#utility.yul\":7550:7554   */\n      dup2\n        /* \"#utility.yul\":7546:7566   */\n      sub\n        /* \"#utility.yul\":7542:7543   */\n      0x00\n        /* \"#utility.yul\":7531:7540   */\n      dup4\n        /* \"#utility.yul\":7527:7544   */\n      add\n        /* \"#utility.yul\":7520:7567   */\n      mstore\n        /* \"#utility.yul\":7584:7715   */\n      tag_218\n        /* \"#utility.yul\":7710:7714   */\n      dup2\n        /* \"#utility.yul\":7584:7715   */\n      tag_119\n      jump\t// in\n    tag_218:\n        /* \"#utility.yul\":7576:7715   */\n      swap1\n      pop\n        /* \"#utility.yul\":7303:7722   */\n      swap2\n      swap1\n      pop\n      jump\t// out\n        /* \"#utility.yul\":7728:7846   */\n    tag_120:\n        /* \"#utility.yul\":7815:7839   */\n      tag_220\n        /* \"#utility.yul\":7833:7838   */\n      dup2\n        /* \"#utility.yul\":7815:7839   */\n      tag_106\n      jump\t// in\n    tag_220:\n        /* \"#utility.yul\":7810:7813   */\n      dup3\n        /* \"#utility.yul\":7803:7840   */\n      mstore\n        /* \"#utility.yul\":7728:7846   */\n      pop\n      pop\n      jump\t// out\n        /* \"#utility.yul\":7852:8184   */\n    tag_33:\n        /* \"#utility.yul\":7973:7977   */\n      0x00\n        /* \"#utility.yul\":8011:8013   */\n      0x40\n        /* \"#utility.yul\":8000:8009   */\n      dup3\n        /* \"#utility.yul\":7996:8014   */\n      add\n        /* \"#utility.yul\":7988:8014   */\n      swap1\n      pop\n        /* \"#utility.yul\":8024:8095   */\n      tag_222\n        /* \"#utility.yul\":8092:8093   */\n      0x00\n        /* \"#utility.yul\":8081:8090   */\n      dup4\n        /* \"#utility.yul\":8077:8094   */\n      add\n        /* \"#utility.yul\":8068:8074   */\n      dup6\n        /* \"#utility.yul\":8024:8095   */\n      tag_120\n      jump\t// in\n    tag_222:\n        /* \"#utility.yul\":8105:8177   */\n      tag_223\n        /* \"#utility.yul\":8173:8175   */\n      0x20\n        /* \"#utility.yul\":8162:8171   */\n      dup4\n        /* \"#utility.yul\":8158:8176   */\n      add\n        /* \"#utility.yul\":8149:8155   */\n      dup5\n        /* \"#utility.yul\":8105:8177   */\n      tag_120\n      jump\t// in\n    tag_223:\n        /* \"#utility.yul\":7852:8184   */\n      swap4\n      swap3\n      pop\n      pop\n      pop\n      jump\t// out\n        /* \"#utility.yul\":8190:8312   */\n    tag_121:\n        /* \"#utility.yul\":8263:8287   */\n      tag_225\n        /* \"#utility.yul\":8281:8286   */\n      dup2\n        /* \"#utility.yul\":8263:8287   */\n      tag_115\n      jump\t// in\n    tag_225:\n        /* \"#utility.yul\":8256:8261   */\n      dup2\n        /* \"#utility.yul\":8253:8288   */\n      eq\n        /* \"#utility.yul\":8243:8306   */\n      tag_226\n      jumpi\n        /* \"#utility.yul\":8302:8303   */\n      0x00\n        /* \"#utility.yul\":8299:8300   */\n      0x00\n        /* \"#utility.yul\":8292:8304   */\n      revert\n        /* \"#utility.yul\":8243:8306   */\n    tag_226:\n        /* \"#utility.yul\":8190:8312   */\n      pop\n      jump\t// out\n        /* \"#utility.yul\":8318:8461   */\n    tag_122:\n        /* \"#utility.yul\":8375:8380   */\n      0x00\n        /* \"#utility.yul\":8406:8412   */\n      dup2\n        /* \"#utility.yul\":8400:8413   */\n      mload\n        /* \"#utility.yul\":8391:8413   */\n      swap1\n      pop\n        /* \"#utility.yul\":8422:8455   */\n      tag_228\n        /* \"#utility.yul\":8449:8454   */\n      dup2\n        /* \"#utility.yul\":8422:8455   */\n      tag_121\n      jump\t// in\n    tag_228:\n        /* \"#utility.yul\":8318:8461   */\n      swap3\n      swap2\n      pop\n      pop\n      jump\t// out\n        /* \"#utility.yul\":8467:8818   */\n    tag_37:\n        /* \"#utility.yul\":8537:8543   */\n      0x00\n        /* \"#utility.yul\":8586:8588   */\n      0x20\n        /* \"#utility.yul\":8574:8583   */\n      dup3\n        /* \"#utility.yul\":8565:8572   */\n      dup5\n        /* \"#utility.yul\":8561:8584   */\n      sub\n        /* \"#utility.yul\":8557:8589   */\n      slt\n        /* \"#utility.yul\":8554:8673   */\n      iszero\n      tag_230\n      jumpi\n        /* \"#utility.yul\":8592:8671   */\n      tag_231\n      tag_103\n      jump\t// in\n    tag_231:\n        /* \"#utility.yul\":8554:8673   */\n    tag_230:\n        /* \"#utility.yul\":8712:8713   */\n      0x00\n        /* \"#utility.yul\":8737:8801   */\n      tag_232\n        /* \"#utility.yul\":8793:8800   */\n      dup5\n        /* \"#utility.yul\":8784:8790   */\n      dup3\n        /* \"#utility.yul\":8773:8782   */\n      dup6\n        /* \"#utility.yul\":8769:8791   */\n      add\n        /* \"#utility.yul\":8737:8801   */\n      tag_122\n      jump\t// in\n    tag_232:\n        /* \"#utility.yul\":8727:8801   */\n      swap2\n      pop\n        /* \"#utility.yul\":8683:8811   */\n      pop\n        /* \"#utility.yul\":8467:8818   */\n      swap3\n      swap2\n      pop\n      pop\n      jump\t// out\n        /* \"#utility.yul\":8824:8998   */\n    tag_123:\n        /* \"#utility.yul\":8964:8990   */\n      0x4e65656420417070726f766520455243323020746f6b656e0000000000000000\n        /* \"#utility.yul\":8960:8961   */\n      0x00\n        /* \"#utility.yul\":8952:8958   */\n      dup3\n        /* \"#utility.yul\":8948:8962   */\n      add\n        /* \"#utility.yul\":8941:8991   */\n      mstore\n        /* \"#utility.yul\":8824:8998   */\n      pop\n      jump\t// out\n        /* \"#utility.yul\":9004:9370   */\n    tag_124:\n        /* \"#utility.yul\":9146:9149   */\n      0x00\n        /* \"#utility.yul\":9167:9234   */\n      tag_235\n        /* \"#utility.yul\":9231:9233   */\n      0x18\n        /* \"#utility.yul\":9226:9229   */\n      dup4\n        /* \"#utility.yul\":9167:9234   */\n      tag_117\n      jump\t// in\n    tag_235:\n        /* \"#utility.yul\":9160:9234   */\n      swap2\n      pop\n        /* \"#utility.yul\":9243:9336   */\n      tag_236\n        /* \"#utility.yul\":9332:9335   */\n      dup3\n        /* \"#utility.yul\":9243:9336   */\n      tag_123\n      jump\t// in\n    tag_236:\n        /* \"#utility.yul\":9361:9363   */\n      0x20\n        /* \"#utility.yul\":9356:9359   */\n      dup3\n        /* \"#utility.yul\":9352:9364   */\n      add\n        /* \"#utility.yul\":9345:9364   */\n      swap1\n      pop\n        /* \"#utility.yul\":9004:9370   */\n      swap2\n      swap1\n      pop\n      jump\t// out\n        /* \"#utility.yul\":9376:9795   */\n    tag_40:\n        /* \"#utility.yul\":9542:9546   */\n      0x00\n        /* \"#utility.yul\":9580:9582   */\n      0x20\n        /* \"#utility.yul\":9569:9578   */\n      dup3\n        /* \"#utility.yul\":9565:9583   */\n      add\n        /* \"#utility.yul\":9557:9583   */\n      swap1\n      pop\n        /* \"#utility.yul\":9629:9638   */\n      dup2\n        /* \"#utility.yul\":9623:9627   */\n      dup2\n        /* \"#utility.yul\":9619:9639   */\n      sub\n        /* \"#utility.yul\":9615:9616   */\n      0x00\n        /* \"#utility.yul\":9604:9613   */\n      dup4\n        /* \"#utility.yul\":9600:9617   */\n      add\n        /* \"#utility.yul\":9593:9640   */\n      mstore\n        /* \"#utility.yul\":9657:9788   */\n      tag_238\n        /* \"#utility.yul\":9783:9787   */\n      dup2\n        /* \"#utility.yul\":9657:9788   */\n      tag_124\n      jump\t// in\n    tag_238:\n        /* \"#utility.yul\":9649:9788   */\n      swap1\n      pop\n        /* \"#utility.yul\":9376:9795   */\n      swap2\n      swap1\n      pop\n      jump\t// out\n        /* \"#utility.yul\":9801:9981   */\n    tag_46:\n        /* \"#utility.yul\":9849:9926   */\n      0x4e487b7100000000000000000000000000000000000000000000000000000000\n        /* \"#utility.yul\":9846:9847   */\n      0x00\n        /* \"#utility.yul\":9839:9927   */\n      mstore\n        /* \"#utility.yul\":9946:9950   */\n      0x32\n        /* \"#utility.yul\":9943:9944   */\n      0x04\n        /* \"#utility.yul\":9936:9951   */\n      mstore\n        /* \"#utility.yul\":9970:9974   */\n      0x24\n        /* \"#utility.yul\":9967:9968   */\n      0x00\n        /* \"#utility.yul\":9960:9975   */\n      revert\n        /* \"#utility.yul\":9987:10429   */\n    tag_51:\n        /* \"#utility.yul\":10136:10140   */\n      0x00\n        /* \"#utility.yul\":10174:10176   */\n      0x60\n        /* \"#utility.yul\":10163:10172   */\n      dup3\n        /* \"#utility.yul\":10159:10177   */\n      add\n        /* \"#utility.yul\":10151:10177   */\n      swap1\n      pop\n        /* \"#utility.yul\":10187:10258   */\n      tag_241\n        /* \"#utility.yul\":10255:10256   */\n      0x00\n        /* \"#utility.yul\":10244:10253   */\n      dup4\n        /* \"#utility.yul\":10240:10257   */\n      add\n        /* \"#utility.yul\":10231:10237   */\n      dup7\n        /* \"#utility.yul\":10187:10258   */\n      tag_120\n      jump\t// in\n    tag_241:\n        /* \"#utility.yul\":10268:10340   */\n      tag_242\n        /* \"#utility.yul\":10336:10338   */\n      0x20\n        /* \"#utility.yul\":10325:10334   */\n      dup4\n        /* \"#utility.yul\":10321:10339   */\n      add\n        /* \"#utility.yul\":10312:10318   */\n      dup6\n        /* \"#utility.yul\":10268:10340   */\n      tag_120\n      jump\t// in\n    tag_242:\n        /* \"#utility.yul\":10350:10422   */\n      tag_243\n        /* \"#utility.yul\":10418:10420   */\n      0x40\n        /* \"#utility.yul\":10407:10416   */\n      dup4\n        /* \"#utility.yul\":10403:10421   */\n      add\n        /* \"#utility.yul\":10394:10400   */\n      dup5\n        /* \"#utility.yul\":10350:10422   */\n      tag_116\n      jump\t// in\n    tag_243:\n        /* \"#utility.yul\":9987:10429   */\n      swap5\n      swap4\n      pop\n      pop\n      pop\n      pop\n      jump\t// out\n        /* \"#utility.yul\":10435:10525   */\n    tag_125:\n        /* \"#utility.yul\":10469:10476   */\n      0x00\n        /* \"#utility.yul\":10512:10517   */\n      dup2\n        /* \"#utility.yul\":10505:10518   */\n      iszero\n        /* \"#utility.yul\":10498:10519   */\n      iszero\n        /* \"#utility.yul\":10487:10519   */\n      swap1\n      pop\n        /* \"#utility.yul\":10435:10525   */\n      swap2\n      swap1\n      pop\n      jump\t// out\n        /* \"#utility.yul\":10531:10647   */\n    tag_126:\n        /* \"#utility.yul\":10601:10622   */\n      tag_246\n        /* \"#utility.yul\":10616:10621   */\n      dup2\n        /* \"#utility.yul\":10601:10622   */\n      tag_125\n      jump\t// in\n    tag_246:\n        /* \"#utility.yul\":10594:10599   */\n      dup2\n        /* \"#utility.yul\":10591:10623   */\n      eq\n        /* \"#utility.yul\":10581:10641   */\n      tag_247\n      jumpi\n        /* \"#utility.yul\":10637:10638   */\n      0x00\n        /* \"#utility.yul\":10634:10635   */\n      0x00\n        /* \"#utility.yul\":10627:10639   */\n      revert\n        /* \"#utility.yul\":10581:10641   */\n    tag_247:\n        /* \"#utility.yul\":10531:10647   */\n      pop\n      jump\t// out\n        /* \"#utility.yul\":10653:10790   */\n    tag_127:\n        /* \"#utility.yul\":10707:10712   */\n      0x00\n        /* \"#utility.yul\":10738:10744   */\n      dup2\n        /* \"#utility.yul\":10732:10745   */\n      mload\n        /* \"#utility.yul\":10723:10745   */\n      swap1\n      pop\n        /* \"#utility.yul\":10754:10784   */\n      tag_249\n        /* \"#utility.yul\":10778:10783   */\n      dup2\n        /* \"#utility.yul\":10754:10784   */\n      tag_126\n      jump\t// in\n    tag_249:\n        /* \"#utility.yul\":10653:10790   */\n      swap3\n      swap2\n      pop\n      pop\n      jump\t// out\n        /* \"#utility.yul\":10796:11141   */\n    tag_55:\n        /* \"#utility.yul\":10863:10869   */\n      0x00\n        /* \"#utility.yul\":10912:10914   */\n      0x20\n        /* \"#utility.yul\":10900:10909   */\n      dup3\n        /* \"#utility.yul\":10891:10898   */\n      dup5\n        /* \"#utility.yul\":10887:10910   */\n      sub\n        /* \"#utility.yul\":10883:10915   */\n      slt\n        /* \"#utility.yul\":10880:10999   */\n      iszero\n      tag_251\n      jumpi\n        /* \"#utility.yul\":10918:10997   */\n      tag_252\n      tag_103\n      jump\t// in\n    tag_252:\n        /* \"#utility.yul\":10880:10999   */\n    tag_251:\n        /* \"#utility.yul\":11038:11039   */\n      0x00\n        /* \"#utility.yul\":11063:11124   */\n      tag_253\n        /* \"#utility.yul\":11116:11123   */\n      dup5\n        /* \"#utility.yul\":11107:11113   */\n      dup3\n        /* \"#utility.yul\":11096:11105   */\n      dup6\n        /* \"#utility.yul\":11092:11114   */\n      add\n        /* \"#utility.yul\":11063:11124   */\n      tag_127\n      jump\t// in\n    tag_253:\n        /* \"#utility.yul\":11053:11124   */\n      swap2\n      pop\n        /* \"#utility.yul\":11009:11134   */\n      pop\n        /* \"#utility.yul\":10796:11141   */\n      swap3\n      swap2\n      pop\n      pop\n      jump\t// out\n        /* \"#utility.yul\":11147:11318   */\n    tag_128:\n        /* \"#utility.yul\":11287:11310   */\n      0x5472616e7366657220616d6f756e74206572726f720000000000000000000000\n        /* \"#utility.yul\":11283:11284   */\n      0x00\n        /* \"#utility.yul\":11275:11281   */\n      dup3\n        /* \"#utility.yul\":11271:11285   */\n      add\n        /* \"#utility.yul\":11264:11311   */\n      mstore\n        /* \"#utility.yul\":11147:11318   */\n      pop\n      jump\t// out\n        /* \"#utility.yul\":11324:11690   */\n    tag_129:\n        /* \"#utility.yul\":11466:11469   */\n      0x00\n        /* \"#utility.yul\":11487:11554   */\n      tag_256\n        /* \"#utility.yul\":11551:11553   */\n      0x15\n        /* \"#utility.yul\":11546:11549   */\n      dup4\n        /* \"#utility.yul\":11487:11554   */\n      tag_117\n      jump\t// in\n    tag_256:\n        /* \"#utility.yul\":11480:11554   */\n      swap2\n      pop\n        /* \"#utility.yul\":11563:11656   */\n      tag_257\n        /* \"#utility.yul\":11652:11655   */\n      dup3\n        /* \"#utility.yul\":11563:11656   */\n      tag_128\n      jump\t// in\n    tag_257:\n        /* \"#utility.yul\":11681:11683   */\n      0x20\n        /* \"#utility.yul\":11676:11679   */\n      dup3\n        /* \"#utility.yul\":11672:11684   */\n      add\n        /* \"#utility.yul\":11665:11684   */\n      swap1\n      pop\n        /* \"#utility.yul\":11324:11690   */\n      swap2\n      swap1\n      pop\n      jump\t// out\n        /* \"#utility.yul\":11696:12115   */\n    tag_62:\n        /* \"#utility.yul\":11862:11866   */\n      0x00\n        /* \"#utility.yul\":11900:11902   */\n      0x20\n        /* \"#utility.yul\":11889:11898   */\n      dup3\n        /* \"#utility.yul\":11885:11903   */\n      add\n        /* \"#utility.yul\":11877:11903   */\n      swap1\n      pop\n        /* \"#utility.yul\":11949:11958   */\n      dup2\n        /* \"#utility.yul\":11943:11947   */\n      dup2\n        /* \"#utility.yul\":11939:11959   */\n      sub\n        /* \"#utility.yul\":11935:11936   */\n      0x00\n        /* \"#utility.yul\":11924:11933   */\n      dup4\n        /* \"#utility.yul\":11920:11937   */\n      add\n        /* \"#utility.yul\":11913:11960   */\n      mstore\n        /* \"#utility.yul\":11977:12108   */\n      tag_259\n        /* \"#utility.yul\":12103:12107   */\n      dup2\n        /* \"#utility.yul\":11977:12108   */\n      tag_129\n      jump\t// in\n    tag_259:\n        /* \"#utility.yul\":11969:12108   */\n      swap1\n      pop\n        /* \"#utility.yul\":11696:12115   */\n      swap2\n      swap1\n      pop\n      jump\t// out\n        /* \"#utility.yul\":12121:12225   */\n    tag_130:\n        /* \"#utility.yul\":12166:12173   */\n      0x00\n        /* \"#utility.yul\":12195:12219   */\n      tag_261\n        /* \"#utility.yul\":12213:12218   */\n      dup3\n        /* \"#utility.yul\":12195:12219   */\n      tag_105\n      jump\t// in\n    tag_261:\n        /* \"#utility.yul\":12184:12219   */\n      swap1\n      pop\n        /* \"#utility.yul\":12121:12225   */\n      swap2\n      swap1\n      pop\n      jump\t// out\n        /* \"#utility.yul\":12231:12369   */\n    tag_131:\n        /* \"#utility.yul\":12312:12344   */\n      tag_263\n        /* \"#utility.yul\":12338:12343   */\n      dup2\n        /* \"#utility.yul\":12312:12344   */\n      tag_130\n      jump\t// in\n    tag_263:\n        /* \"#utility.yul\":12305:12310   */\n      dup2\n        /* \"#utility.yul\":12302:12345   */\n      eq\n        /* \"#utility.yul\":12292:12363   */\n      tag_264\n      jumpi\n        /* \"#utility.yul\":12359:12360   */\n      0x00\n        /* \"#utility.yul\":12356:12357   */\n      0x00\n        /* \"#utility.yul\":12349:12361   */\n      revert\n        /* \"#utility.yul\":12292:12363   */\n    tag_264:\n        /* \"#utility.yul\":12231:12369   */\n      pop\n      jump\t// out\n        /* \"#utility.yul\":12375:12530   */\n    tag_132:\n        /* \"#utility.yul\":12429:12434   */\n      0x00\n        /* \"#utility.yul\":12467:12473   */\n      dup2\n        /* \"#utility.yul\":12454:12474   */\n      calldataload\n        /* \"#utility.yul\":12445:12474   */\n      swap1\n      pop\n        /* \"#utility.yul\":12483:12524   */\n      tag_266\n        /* \"#utility.yul\":12518:12523   */\n      dup2\n        /* \"#utility.yul\":12483:12524   */\n      tag_131\n      jump\t// in\n    tag_266:\n        /* \"#utility.yul\":12375:12530   */\n      swap3\n      swap2\n      pop\n      pop\n      jump\t// out\n        /* \"#utility.yul\":12536:12881   */\n    tag_69:\n        /* \"#utility.yul\":12603:12609   */\n      0x00\n        /* \"#utility.yul\":12652:12654   */\n      0x20\n        /* \"#utility.yul\":12640:12649   */\n      dup3\n        /* \"#utility.yul\":12631:12638   */\n      dup5\n        /* \"#utility.yul\":12627:12650   */\n      sub\n        /* \"#utility.yul\":12623:12655   */\n      slt\n        /* \"#utility.yul\":12620:12739   */\n      iszero\n      tag_268\n      jumpi\n        /* \"#utility.yul\":12658:12737   */\n      tag_269\n      tag_103\n      jump\t// in\n    tag_269:\n        /* \"#utility.yul\":12620:12739   */\n    tag_268:\n        /* \"#utility.yul\":12778:12779   */\n      0x00\n        /* \"#utility.yul\":12803:12864   */\n      tag_270\n        /* \"#utility.yul\":12856:12863   */\n      dup5\n        /* \"#utility.yul\":12847:12853   */\n      dup3\n        /* \"#utility.yul\":12836:12845   */\n      dup6\n        /* \"#utility.yul\":12832:12854   */\n      add\n        /* \"#utility.yul\":12803:12864   */\n      tag_132\n      jump\t// in\n    tag_270:\n        /* \"#utility.yul\":12793:12864   */\n      swap2\n      pop\n        /* \"#utility.yul\":12749:12874   */\n      pop\n        /* \"#utility.yul\":12536:12881   */\n      swap3\n      swap2\n      pop\n      pop\n      jump\t// out\n        /* \"#utility.yul\":12887:13034   */\n    tag_133:\n        /* \"#utility.yul\":12988:12999   */\n      0x00\n        /* \"#utility.yul\":13025:13028   */\n      dup2\n        /* \"#utility.yul\":13010:13028   */\n      swap1\n      pop\n        /* \"#utility.yul\":12887:13034   */\n      swap3\n      swap2\n      pop\n      pop\n      jump\t// out\n        /* \"#utility.yul\":13040:13154   */\n    tag_134:\n      pop\n      jump\t// out\n        /* \"#utility.yul\":13160:13558   */\n    tag_135:\n        /* \"#utility.yul\":13319:13322   */\n      0x00\n        /* \"#utility.yul\":13340:13423   */\n      tag_274\n        /* \"#utility.yul\":13421:13422   */\n      0x00\n        /* \"#utility.yul\":13416:13419   */\n      dup4\n        /* \"#utility.yul\":13340:13423   */\n      tag_133\n      jump\t// in\n    tag_274:\n        /* \"#utility.yul\":13333:13423   */\n      swap2\n      pop\n        /* \"#utility.yul\":13432:13525   */\n      tag_275\n        /* \"#utility.yul\":13521:13524   */\n      dup3\n        /* \"#utility.yul\":13432:13525   */\n      tag_134\n      jump\t// in\n    tag_275:\n        /* \"#utility.yul\":13550:13551   */\n      0x00\n        /* \"#utility.yul\":13545:13548   */\n      dup3\n        /* \"#utility.yul\":13541:13552   */\n      add\n        /* \"#utility.yul\":13534:13552   */\n      swap1\n      pop\n        /* \"#utility.yul\":13160:13558   */\n      swap2\n      swap1\n      pop\n      jump\t// out\n        /* \"#utility.yul\":13564:13943   */\n    tag_73:\n        /* \"#utility.yul\":13748:13751   */\n      0x00\n        /* \"#utility.yul\":13770:13917   */\n      tag_277\n        /* \"#utility.yul\":13913:13916   */\n      dup3\n        /* \"#utility.yul\":13770:13917   */\n      tag_135\n      jump\t// in\n    tag_277:\n        /* \"#utility.yul\":13763:13917   */\n      swap2\n      pop\n        /* \"#utility.yul\":13934:13937   */\n      dup2\n        /* \"#utility.yul\":13927:13937   */\n      swap1\n      pop\n        /* \"#utility.yul\":13564:13943   */\n      swap2\n      swap1\n      pop\n      jump\t// out\n        /* \"#utility.yul\":13949:14125   */\n    tag_136:\n        /* \"#utility.yul\":14089:14117   */\n      0x596f7520617265206e6f7420696e206661696c6564206c697374000000000000\n        /* \"#utility.yul\":14085:14086   */\n      0x00\n        /* \"#utility.yul\":14077:14083   */\n      dup3\n        /* \"#utility.yul\":14073:14087   */\n      add\n        /* \"#utility.yul\":14066:14118   */\n      mstore\n        /* \"#utility.yul\":13949:14125   */\n      pop\n      jump\t// out\n        /* \"#utility.yul\":14131:14497   */\n    tag_137:\n        /* \"#utility.yul\":14273:14276   */\n      0x00\n        /* \"#utility.yul\":14294:14361   */\n      tag_280\n        /* \"#utility.yul\":14358:14360   */\n      0x1a\n        /* \"#utility.yul\":14353:14356   */\n      dup4\n        /* \"#utility.yul\":14294:14361   */\n      tag_117\n      jump\t// in\n    tag_280:\n        /* \"#utility.yul\":14287:14361   */\n      swap2\n      pop\n        /* \"#utility.yul\":14370:14463   */\n      tag_281\n        /* \"#utility.yul\":14459:14462   */\n      dup3\n        /* \"#utility.yul\":14370:14463   */\n      tag_136\n      jump\t// in\n    tag_281:\n        /* \"#utility.yul\":14488:14490   */\n      0x20\n        /* \"#utility.yul\":14483:14486   */\n      dup3\n        /* \"#utility.yul\":14479:14491   */\n      add\n        /* \"#utility.yul\":14472:14491   */\n      swap1\n      pop\n        /* \"#utility.yul\":14131:14497   */\n      swap2\n      swap1\n      pop\n      jump\t// out\n        /* \"#utility.yul\":14503:14922   */\n    tag_86:\n        /* \"#utility.yul\":14669:14673   */\n      0x00\n        /* \"#utility.yul\":14707:14709   */\n      0x20\n        /* \"#utility.yul\":14696:14705   */\n      dup3\n        /* \"#utility.yul\":14692:14710   */\n      add\n        /* \"#utility.yul\":14684:14710   */\n      swap1\n      pop\n        /* \"#utility.yul\":14756:14765   */\n      dup2\n        /* \"#utility.yul\":14750:14754   */\n      dup2\n        /* \"#utility.yul\":14746:14766   */\n      sub\n        /* \"#utility.yul\":14742:14743   */\n      0x00\n        /* \"#utility.yul\":14731:14740   */\n      dup4\n        /* \"#utility.yul\":14727:14744   */\n      add\n        /* \"#utility.yul\":14720:14767   */\n      mstore\n        /* \"#utility.yul\":14784:14915   */\n      tag_283\n        /* \"#utility.yul\":14910:14914   */\n      dup2\n        /* \"#utility.yul\":14784:14915   */\n      tag_137\n      jump\t// in\n    tag_283:\n        /* \"#utility.yul\":14776:14915   */\n      swap1\n      pop\n        /* \"#utility.yul\":14503:14922   */\n      swap2\n      swap1\n      pop\n      jump\t// out\n        /* \"#utility.yul\":14928:15091   */\n    tag_138:\n        /* \"#utility.yul\":15068:15083   */\n      0x4661696c20776974686472617700000000000000000000000000000000000000\n        /* \"#utility.yul\":15064:15065   */\n      0x00\n        /* \"#utility.yul\":15056:15062   */\n      dup3\n        /* \"#utility.yul\":15052:15066   */\n      add\n        /* \"#utility.yul\":15045:15084   */\n      mstore\n        /* \"#utility.yul\":14928:15091   */\n      pop\n      jump\t// out\n        /* \"#utility.yul\":15097:15463   */\n    tag_139:\n        /* \"#utility.yul\":15239:15242   */\n      0x00\n        /* \"#utility.yul\":15260:15327   */\n      tag_286\n        /* \"#utility.yul\":15324:15326   */\n      0x0d\n        /* \"#utility.yul\":15319:15322   */\n      dup4\n        /* \"#utility.yul\":15260:15327   */\n      tag_117\n      jump\t// in\n    tag_286:\n        /* \"#utility.yul\":15253:15327   */\n      swap2\n      pop\n        /* \"#utility.yul\":15336:15429   */\n      tag_287\n        /* \"#utility.yul\":15425:15428   */\n      dup3\n        /* \"#utility.yul\":15336:15429   */\n      tag_138\n      jump\t// in\n    tag_287:\n        /* \"#utility.yul\":15454:15456   */\n      0x20\n        /* \"#utility.yul\":15449:15452   */\n      dup3\n        /* \"#utility.yul\":15445:15457   */\n      add\n        /* \"#utility.yul\":15438:15457   */\n      swap1\n      pop\n        /* \"#utility.yul\":15097:15463   */\n      swap2\n      swap1\n      pop\n      jump\t// out\n        /* \"#utility.yul\":15469:15888   */\n    tag_93:\n        /* \"#utility.yul\":15635:15639   */\n      0x00\n        /* \"#utility.yul\":15673:15675   */\n      0x20\n        /* \"#utility.yul\":15662:15671   */\n      dup3\n        /* \"#utility.yul\":15658:15676   */\n      add\n        /* \"#utility.yul\":15650:15676   */\n      swap1\n      pop\n        /* \"#utility.yul\":15722:15731   */\n      dup2\n        /* \"#utility.yul\":15716:15720   */\n      dup2\n        /* \"#utility.yul\":15712:15732   */\n      sub\n        /* \"#utility.yul\":15708:15709   */\n      0x00\n        /* \"#utility.yul\":15697:15706   */\n      dup4\n        /* \"#utility.yul\":15693:15710   */\n      add\n        /* \"#utility.yul\":15686:15733   */\n      mstore\n        /* \"#utility.yul\":15750:15881   */\n      tag_289\n        /* \"#utility.yul\":15876:15880   */\n      dup2\n        /* \"#utility.yul\":15750:15881   */\n      tag_139\n      jump\t// in\n    tag_289:\n        /* \"#utility.yul\":15742:15881   */\n      swap1\n      pop\n        /* \"#utility.yul\":15469:15888   */\n      swap2\n      swap1\n      pop\n      jump\t// out\n        /* \"#utility.yul\":15894:16074   */\n    tag_140:\n        /* \"#utility.yul\":15942:16019   */\n      0x4e487b7100000000000000000000000000000000000000000000000000000000\n        /* \"#utility.yul\":15939:15940   */\n      0x00\n        /* \"#utility.yul\":15932:16020   */\n      mstore\n        /* \"#utility.yul\":16039:16043   */\n      0x11\n        /* \"#utility.yul\":16036:16037   */\n      0x04\n        /* \"#utility.yul\":16029:16044   */\n      mstore\n        /* \"#utility.yul\":16063:16067   */\n      0x24\n        /* \"#utility.yul\":16060:16061   */\n      0x00\n        /* \"#utility.yul\":16053:16068   */\n      revert\n        /* \"#utility.yul\":16080:16271   */\n    tag_101:\n        /* \"#utility.yul\":16120:16123   */\n      0x00\n        /* \"#utility.yul\":16139:16159   */\n      tag_292\n        /* \"#utility.yul\":16157:16158   */\n      dup3\n        /* \"#utility.yul\":16139:16159   */\n      tag_115\n      jump\t// in\n    tag_292:\n        /* \"#utility.yul\":16134:16159   */\n      swap2\n      pop\n        /* \"#utility.yul\":16173:16193   */\n      tag_293\n        /* \"#utility.yul\":16191:16192   */\n      dup4\n        /* \"#utility.yul\":16173:16193   */\n      tag_115\n      jump\t// in\n    tag_293:\n        /* \"#utility.yul\":16168:16193   */\n      swap3\n      pop\n        /* \"#utility.yul\":16216:16217   */\n      dup3\n        /* \"#utility.yul\":16213:16214   */\n      dup3\n        /* \"#utility.yul\":16209:16218   */\n      add\n        /* \"#utility.yul\":16202:16218   */\n      swap1\n      pop\n        /* \"#utility.yul\":16237:16240   */\n      dup1\n        /* \"#utility.yul\":16234:16235   */\n      dup3\n        /* \"#utility.yul\":16231:16241   */\n      gt\n        /* \"#utility.yul\":16228:16264   */\n      iszero\n      tag_294\n      jumpi\n        /* \"#utility.yul\":16244:16262   */\n      tag_295\n      tag_140\n      jump\t// in\n    tag_295:\n        /* \"#utility.yul\":16228:16264   */\n    tag_294:\n        /* \"#utility.yul\":16080:16271   */\n      swap3\n      swap2\n      pop\n      pop\n      jump\t// out\n\n    auxdata: 0xa264697066735822122023a79136269ccb4adcb96ec968f028913b3a010ebdc6fdbe386e44eb74b2f3f364736f6c634300081c0033\n}\n",
				"bytecode": {
					"linkReferences": {},
					"object": "6080604052348015600e575f5ffd5b50610e868061001c5f395ff3fe60806040526004361061003e575f3560e01c806348b377d81461004257806377988cf81461006a578063acacd8ee14610086578063ccb8c1e0146100ae575b5f5ffd5b34801561004d575f5ffd5b50610068600480360381019061006391906107a1565b6100ea565b005b610084600480360381019061007f9190610899565b6102e1565b005b348015610091575f5ffd5b506100ac60048036038101906100a79190610917565b6104cd565b005b3480156100b9575f5ffd5b506100d460048036038101906100cf9190610942565b61063d565b6040516100e191906109a5565b60405180910390f35b828290508585905014610132576040517f08c379a000000000000000000000000000000000000000000000000000000000815260040161012990610a3e565b60405180910390fd5b5f8690505f610141858561063d565b9050808273ffffffffffffffffffffffffffffffffffffffff1663dd62ed3e85306040518363ffffffff1660e01b815260040161017f929190610a6b565b602060405180830381865afa15801561019a573d5f5f3e3d5ffd5b505050506040513d601f19601f820116820180604052508101906101be9190610abc565b116101fe576040517f08c379a00000000000000000000000000000000000000000000000000000000081526004016101f590610b31565b60405180910390fd5b5f5b878790508110156102d6578273ffffffffffffffffffffffffffffffffffffffff166323b872dd858a8a8581811061023b5761023a610b4f565b5b90506020020160208101906102509190610917565b89898681811061026357610262610b4f565b5b905060200201356040518463ffffffff1660e01b815260040161028893929190610b7c565b6020604051808303815f875af11580156102a4573d5f5f3e3d5ffd5b505050506040513d601f19601f820116820180604052508101906102c89190610be6565b508080600101915050610200565b505050505050505050565b818190508484905014610329576040517f08c379a000000000000000000000000000000000000000000000000000000000815260040161032090610a3e565b60405180910390fd5b5f610334838361063d565b9050803414610378576040517f08c379a000000000000000000000000000000000000000000000000000000000815260040161036f90610c5b565b60405180910390fd5b5f5f90505b858590508110156104c5575f86868381811061039c5761039b610b4f565b5b90506020020160208101906103b19190610cb4565b73ffffffffffffffffffffffffffffffffffffffff168585848181106103da576103d9610b4f565b5b905060200201356040516103ed90610d0c565b5f6040518083038185875af1925050503d805f8114610427576040519150601f19603f3d011682016040523d82523d5f602084013e61042c565b606091505b50509050806104b75784848381811061044857610447610b4f565b5b905060200201355f5f89898681811061046457610463610b4f565b5b90506020020160208101906104799190610cb4565b73ffffffffffffffffffffffffffffffffffffffff1673ffffffffffffffffffffffffffffffffffffffff1681526020019081526020015f20819055505b50808060010191505061037d565b505050505050565b5f5f5f3373ffffffffffffffffffffffffffffffffffffffff1673ffffffffffffffffffffffffffffffffffffffff1681526020019081526020015f205490505f811161054f576040517f08c379a000000000000000000000000000000000000000000000000000000000815260040161054690610d6a565b60405180910390fd5b5f5f5f3373ffffffffffffffffffffffffffffffffffffffff1673ffffffffffffffffffffffffffffffffffffffff1681526020019081526020015f20819055505f8273ffffffffffffffffffffffffffffffffffffffff16826040516105b590610d0c565b5f6040518083038185875af1925050503d805f81146105ef576040519150601f19603f3d011682016040523d82523d5f602084013e6105f4565b606091505b5050905080610638576040517f08c379a000000000000000000000000000000000000000000000000000000000815260040161062f90610dd2565b60405180910390fd5b505050565b5f5f5f90505b838390508110156106825783838281811061066157610660610b4f565b5b90506020020135826106739190610e1d565b91508080600101915050610643565b5092915050565b5f5ffd5b5f5ffd5b5f73ffffffffffffffffffffffffffffffffffffffff82169050919050565b5f6106ba82610691565b9050919050565b6106ca816106b0565b81146106d4575f5ffd5b50565b5f813590506106e5816106c1565b92915050565b5f5ffd5b5f5ffd5b5f5ffd5b5f5f83601f84011261070c5761070b6106eb565b5b8235905067ffffffffffffffff811115610729576107286106ef565b5b602083019150836020820283011115610745576107446106f3565b5b9250929050565b5f5f83601f840112610761576107606106eb565b5b8235905067ffffffffffffffff81111561077e5761077d6106ef565b5b60208301915083602082028301111561079a576107996106f3565b5b9250929050565b5f5f5f5f5f5f608087890312156107bb576107ba610689565b5b5f6107c889828a016106d7565b965050602087013567ffffffffffffffff8111156107e9576107e861068d565b5b6107f589828a016106f7565b9550955050604087013567ffffffffffffffff8111156108185761081761068d565b5b61082489828a0161074c565b9350935050606061083789828a016106d7565b9150509295509295509295565b5f5f83601f840112610859576108586106eb565b5b8235905067ffffffffffffffff811115610876576108756106ef565b5b602083019150836020820283011115610892576108916106f3565b5b9250929050565b5f5f5f5f604085870312156108b1576108b0610689565b5b5f85013567ffffffffffffffff8111156108ce576108cd61068d565b5b6108da87828801610844565b9450945050602085013567ffffffffffffffff8111156108fd576108fc61068d565b5b6109098782880161074c565b925092505092959194509250565b5f6020828403121561092c5761092b610689565b5b5f610939848285016106d7565b91505092915050565b5f5f6020838503121561095857610957610689565b5b5f83013567ffffffffffffffff8111156109755761097461068d565b5b6109818582860161074c565b92509250509250929050565b5f819050919050565b61099f8161098d565b82525050565b5f6020820190506109b85f830184610996565b92915050565b5f82825260208201905092915050565b7f4c656e67746873206f662041646472657373657320616e6420416d6f756e74735f8201527f204e4f5420455155414c00000000000000000000000000000000000000000000602082015250565b5f610a28602a836109be565b9150610a33826109ce565b604082019050919050565b5f6020820190508181035f830152610a5581610a1c565b9050919050565b610a65816106b0565b82525050565b5f604082019050610a7e5f830185610a5c565b610a8b6020830184610a5c565b9392505050565b610a9b8161098d565b8114610aa5575f5ffd5b50565b5f81519050610ab681610a92565b92915050565b5f60208284031215610ad157610ad0610689565b5b5f610ade84828501610aa8565b91505092915050565b7f4e65656420417070726f766520455243323020746f6b656e00000000000000005f82015250565b5f610b1b6018836109be565b9150610b2682610ae7565b602082019050919050565b5f6020820190508181035f830152610b4881610b0f565b9050919050565b7f4e487b71000000000000000000000000000000000000000000000000000000005f52603260045260245ffd5b5f606082019050610b8f5f830186610a5c565b610b9c6020830185610a5c565b610ba96040830184610996565b949350505050565b5f8115159050919050565b610bc581610bb1565b8114610bcf575f5ffd5b50565b5f81519050610be081610bbc565b92915050565b5f60208284031215610bfb57610bfa610689565b5b5f610c0884828501610bd2565b91505092915050565b7f5472616e7366657220616d6f756e74206572726f7200000000000000000000005f82015250565b5f610c456015836109be565b9150610c5082610c11565b602082019050919050565b5f6020820190508181035f830152610c7281610c39565b9050919050565b5f610c8382610691565b9050919050565b610c9381610c79565b8114610c9d575f5ffd5b50565b5f81359050610cae81610c8a565b92915050565b5f60208284031215610cc957610cc8610689565b5b5f610cd684828501610ca0565b91505092915050565b5f81905092915050565b50565b5f610cf75f83610cdf565b9150610d0282610ce9565b5f82019050919050565b5f610d1682610cec565b9150819050919050565b7f596f7520617265206e6f7420696e206661696c6564206c6973740000000000005f82015250565b5f610d54601a836109be565b9150610d5f82610d20565b602082019050919050565b5f6020820190508181035f830152610d8181610d48565b9050919050565b7f4661696c207769746864726177000000000000000000000000000000000000005f82015250565b5f610dbc600d836109be565b9150610dc782610d88565b602082019050919050565b5f6020820190508181035f830152610de981610db0565b9050919050565b7f4e487b71000000000000000000000000000000000000000000000000000000005f52601160045260245ffd5b5f610e278261098d565b9150610e328361098d565b9250828201905080821115610e4a57610e49610df0565b5b9291505056fea264697066735822122023a79136269ccb4adcb96ec968f028913b3a010ebdc6fdbe386e44eb74b2f3f364736f6c634300081c0033",
					"opcodes": "PUSH1 0x80 PUSH1 0x40 MSTORE CALLVALUE DUP1 ISZERO PUSH1 0xE JUMPI PUSH0 PUSH0 REVERT JUMPDEST POP PUSH2 0xE86 DUP1 PUSH2 0x1C PUSH0 CODECOPY PUSH0 RETURN INVALID PUSH1 0x80 PUSH1 0x40 MSTORE PUSH1 0x4 CALLDATASIZE LT PUSH2 0x3E JUMPI PUSH0 CALLDATALOAD PUSH1 0xE0 SHR DUP1 PUSH4 0x48B377D8 EQ PUSH2 0x42 JUMPI DUP1 PUSH4 0x77988CF8 EQ PUSH2 0x6A JUMPI DUP1 PUSH4 0xACACD8EE EQ PUSH2 0x86 JUMPI DUP1 PUSH4 0xCCB8C1E0 EQ PUSH2 0xAE JUMPI JUMPDEST PUSH0 PUSH0 REVERT JUMPDEST CALLVALUE DUP1 ISZERO PUSH2 0x4D JUMPI PUSH0 PUSH0 REVERT JUMPDEST POP PUSH2 0x68 PUSH1 0x4 DUP1 CALLDATASIZE SUB DUP2 ADD SWAP1 PUSH2 0x63 SWAP2 SWAP1 PUSH2 0x7A1 JUMP JUMPDEST PUSH2 0xEA JUMP JUMPDEST STOP JUMPDEST PUSH2 0x84 PUSH1 0x4 DUP1 CALLDATASIZE SUB DUP2 ADD SWAP1 PUSH2 0x7F SWAP2 SWAP1 PUSH2 0x899 JUMP JUMPDEST PUSH2 0x2E1 JUMP JUMPDEST STOP JUMPDEST CALLVALUE DUP1 ISZERO PUSH2 0x91 JUMPI PUSH0 PUSH0 REVERT JUMPDEST POP PUSH2 0xAC PUSH1 0x4 DUP1 CALLDATASIZE SUB DUP2 ADD SWAP1 PUSH2 0xA7 SWAP2 SWAP1 PUSH2 0x917 JUMP JUMPDEST PUSH2 0x4CD JUMP JUMPDEST STOP JUMPDEST CALLVALUE DUP1 ISZERO PUSH2 0xB9 JUMPI PUSH0 PUSH0 REVERT JUMPDEST POP PUSH2 0xD4 PUSH1 0x4 DUP1 CALLDATASIZE SUB DUP2 ADD SWAP1 PUSH2 0xCF SWAP2 SWAP1 PUSH2 0x942 JUMP JUMPDEST PUSH2 0x63D JUMP JUMPDEST PUSH1 0x40 MLOAD PUSH2 0xE1 SWAP2 SWAP1 PUSH2 0x9A5 JUMP JUMPDEST PUSH1 0x40 MLOAD DUP1 SWAP2 SUB SWAP1 RETURN JUMPDEST DUP3 DUP3 SWAP1 POP DUP6 DUP6 SWAP1 POP EQ PUSH2 0x132 JUMPI PUSH1 0x40 MLOAD PUSH32 0x8C379A000000000000000000000000000000000000000000000000000000000 DUP2 MSTORE PUSH1 0x4 ADD PUSH2 0x129 SWAP1 PUSH2 0xA3E JUMP JUMPDEST PUSH1 0x40 MLOAD DUP1 SWAP2 SUB SWAP1 REVERT JUMPDEST PUSH0 DUP7 SWAP1 POP PUSH0 PUSH2 0x141 DUP6 DUP6 PUSH2 0x63D JUMP JUMPDEST SWAP1 POP DUP1 DUP3 PUSH20 0xFFFFFFFFFFFFFFFFFFFFFFFFFFFFFFFFFFFFFFFF AND PUSH4 0xDD62ED3E DUP6 ADDRESS PUSH1 0x40 MLOAD DUP4 PUSH4 0xFFFFFFFF AND PUSH1 0xE0 SHL DUP2 MSTORE PUSH1 0x4 ADD PUSH2 0x17F SWAP3 SWAP2 SWAP1 PUSH2 0xA6B JUMP JUMPDEST PUSH1 0x20 PUSH1 0x40 MLOAD DUP1 DUP4 SUB DUP2 DUP7 GAS STATICCALL ISZERO DUP1 ISZERO PUSH2 0x19A JUMPI RETURNDATASIZE PUSH0 PUSH0 RETURNDATACOPY RETURNDATASIZE PUSH0 REVERT JUMPDEST POP POP POP POP PUSH1 0x40 MLOAD RETURNDATASIZE PUSH1 0x1F NOT PUSH1 0x1F DUP3 ADD AND DUP3 ADD DUP1 PUSH1 0x40 MSTORE POP DUP2 ADD SWAP1 PUSH2 0x1BE SWAP2 SWAP1 PUSH2 0xABC JUMP JUMPDEST GT PUSH2 0x1FE JUMPI PUSH1 0x40 MLOAD PUSH32 0x8C379A000000000000000000000000000000000000000000000000000000000 DUP2 MSTORE PUSH1 0x4 ADD PUSH2 0x1F5 SWAP1 PUSH2 0xB31 JUMP JUMPDEST PUSH1 0x40 MLOAD DUP1 SWAP2 SUB SWAP1 REVERT JUMPDEST PUSH0 JUMPDEST DUP8 DUP8 SWAP1 POP DUP2 LT ISZERO PUSH2 0x2D6 JUMPI DUP3 PUSH20 0xFFFFFFFFFFFFFFFFFFFFFFFFFFFFFFFFFFFFFFFF AND PUSH4 0x23B872DD DUP6 DUP11 DUP11 DUP6 DUP2 DUP2 LT PUSH2 0x23B JUMPI PUSH2 0x23A PUSH2 0xB4F JUMP JUMPDEST JUMPDEST SWAP1 POP PUSH1 0x20 MUL ADD PUSH1 0x20 DUP2 ADD SWAP1 PUSH2 0x250 SWAP2 SWAP1 PUSH2 0x917 JUMP JUMPDEST DUP10 DUP10 DUP7 DUP2 DUP2 LT PUSH2 0x263 JUMPI PUSH2 0x262 PUSH2 0xB4F JUMP JUMPDEST JUMPDEST SWAP1 POP PUSH1 0x20 MUL ADD CALLDATALOAD PUSH1 0x40 MLOAD DUP5 PUSH4 0xFFFFFFFF AND PUSH1 0xE0 SHL DUP2 MSTORE PUSH1 0x4 ADD PUSH2 0x288 SWAP4 SWAP3 SWAP2 SWAP1 PUSH2 0xB7C JUMP JUMPDEST PUSH1 0x20 PUSH1 0x40 MLOAD DUP1 DUP4 SUB DUP2 PUSH0 DUP8 GAS CALL ISZERO DUP1 ISZERO PUSH2 0x2A4 JUMPI RETURNDATASIZE PUSH0 PUSH0 RETURNDATACOPY RETURNDATASIZE PUSH0 REVERT JUMPDEST POP POP POP POP PUSH1 0x40 MLOAD RETURNDATASIZE PUSH1 0x1F NOT PUSH1 0x1F DUP3 ADD AND DUP3 ADD DUP1 PUSH1 0x40 MSTORE POP DUP2 ADD SWAP1 PUSH2 0x2C8 SWAP2 SWAP1 PUSH2 0xBE6 JUMP JUMPDEST POP DUP1 DUP1 PUSH1 0x1 ADD SWAP2 POP POP PUSH2 0x200 JUMP JUMPDEST POP POP POP POP POP POP POP POP POP JUMP JUMPDEST DUP2 DUP2 SWAP1 POP DUP5 DUP5 SWAP1 POP EQ PUSH2 0x329 JUMPI PUSH1 0x40 MLOAD PUSH32 0x8C379A000000000000000000000000000000000000000000000000000000000 DUP2 MSTORE PUSH1 0x4 ADD PUSH2 0x320 SWAP1 PUSH2 0xA3E JUMP JUMPDEST PUSH1 0x40 MLOAD DUP1 SWAP2 SUB SWAP1 REVERT JUMPDEST PUSH0 PUSH2 0x334 DUP4 DUP4 PUSH2 0x63D JUMP JUMPDEST SWAP1 POP DUP1 CALLVALUE EQ PUSH2 0x378 JUMPI PUSH1 0x40 MLOAD PUSH32 0x8C379A000000000000000000000000000000000000000000000000000000000 DUP2 MSTORE PUSH1 0x4 ADD PUSH2 0x36F SWAP1 PUSH2 0xC5B JUMP JUMPDEST PUSH1 0x40 MLOAD DUP1 SWAP2 SUB SWAP1 REVERT JUMPDEST PUSH0 PUSH0 SWAP1 POP JUMPDEST DUP6 DUP6 SWAP1 POP DUP2 LT ISZERO PUSH2 0x4C5 JUMPI PUSH0 DUP7 DUP7 DUP4 DUP2 DUP2 LT PUSH2 0x39C JUMPI PUSH2 0x39B PUSH2 0xB4F JUMP JUMPDEST JUMPDEST SWAP1 POP PUSH1 0x20 MUL ADD PUSH1 0x20 DUP2 ADD SWAP1 PUSH2 0x3B1 SWAP2 SWAP1 PUSH2 0xCB4 JUMP JUMPDEST PUSH20 0xFFFFFFFFFFFFFFFFFFFFFFFFFFFFFFFFFFFFFFFF AND DUP6 DUP6 DUP5 DUP2 DUP2 LT PUSH2 0x3DA JUMPI PUSH2 0x3D9 PUSH2 0xB4F JUMP JUMPDEST JUMPDEST SWAP1 POP PUSH1 0x20 MUL ADD CALLDATALOAD PUSH1 0x40 MLOAD PUSH2 0x3ED SWAP1 PUSH2 0xD0C JUMP JUMPDEST PUSH0 PUSH1 0x40 MLOAD DUP1 DUP4 SUB DUP2 DUP6 DUP8 GAS CALL SWAP3 POP POP POP RETURNDATASIZE DUP1 PUSH0 DUP2 EQ PUSH2 0x427 JUMPI PUSH1 0x40 MLOAD SWAP2 POP PUSH1 0x1F NOT PUSH1 0x3F RETURNDATASIZE ADD AND DUP3 ADD PUSH1 0x40 MSTORE RETURNDATASIZE DUP3 MSTORE RETURNDATASIZE PUSH0 PUSH1 0x20 DUP5 ADD RETURNDATACOPY PUSH2 0x42C JUMP JUMPDEST PUSH1 0x60 SWAP2 POP JUMPDEST POP POP SWAP1 POP DUP1 PUSH2 0x4B7 JUMPI DUP5 DUP5 DUP4 DUP2 DUP2 LT PUSH2 0x448 JUMPI PUSH2 0x447 PUSH2 0xB4F JUMP JUMPDEST JUMPDEST SWAP1 POP PUSH1 0x20 MUL ADD CALLDATALOAD PUSH0 PUSH0 DUP10 DUP10 DUP7 DUP2 DUP2 LT PUSH2 0x464 JUMPI PUSH2 0x463 PUSH2 0xB4F JUMP JUMPDEST JUMPDEST SWAP1 POP PUSH1 0x20 MUL ADD PUSH1 0x20 DUP2 ADD SWAP1 PUSH2 0x479 SWAP2 SWAP1 PUSH2 0xCB4 JUMP JUMPDEST PUSH20 0xFFFFFFFFFFFFFFFFFFFFFFFFFFFFFFFFFFFFFFFF AND PUSH20 0xFFFFFFFFFFFFFFFFFFFFFFFFFFFFFFFFFFFFFFFF AND DUP2 MSTORE PUSH1 0x20 ADD SWAP1 DUP2 MSTORE PUSH1 0x20 ADD PUSH0 KECCAK256 DUP2 SWAP1 SSTORE POP JUMPDEST POP DUP1 DUP1 PUSH1 0x1 ADD SWAP2 POP POP PUSH2 0x37D JUMP JUMPDEST POP POP POP POP POP POP JUMP JUMPDEST PUSH0 PUSH0 PUSH0 CALLER PUSH20 0xFFFFFFFFFFFFFFFFFFFFFFFFFFFFFFFFFFFFFFFF AND PUSH20 0xFFFFFFFFFFFFFFFFFFFFFFFFFFFFFFFFFFFFFFFF AND DUP2 MSTORE PUSH1 0x20 ADD SWAP1 DUP2 MSTORE PUSH1 0x20 ADD PUSH0 KECCAK256 SLOAD SWAP1 POP PUSH0 DUP2 GT PUSH2 0x54F JUMPI PUSH1 0x40 MLOAD PUSH32 0x8C379A000000000000000000000000000000000000000000000000000000000 DUP2 MSTORE PUSH1 0x4 ADD PUSH2 0x546 SWAP1 PUSH2 0xD6A JUMP JUMPDEST PUSH1 0x40 MLOAD DUP1 SWAP2 SUB SWAP1 REVERT JUMPDEST PUSH0 PUSH0 PUSH0 CALLER PUSH20 0xFFFFFFFFFFFFFFFFFFFFFFFFFFFFFFFFFFFFFFFF AND PUSH20 0xFFFFFFFFFFFFFFFFFFFFFFFFFFFFFFFFFFFFFFFF AND DUP2 MSTORE PUSH1 0x20 ADD SWAP1 DUP2 MSTORE PUSH1 0x20 ADD PUSH0 KECCAK256 DUP2 SWAP1 SSTORE POP PUSH0 DUP3 PUSH20 0xFFFFFFFFFFFFFFFFFFFFFFFFFFFFFFFFFFFFFFFF AND DUP3 PUSH1 0x40 MLOAD PUSH2 0x5B5 SWAP1 PUSH2 0xD0C JUMP JUMPDEST PUSH0 PUSH1 0x40 MLOAD DUP1 DUP4 SUB DUP2 DUP6 DUP8 GAS CALL SWAP3 POP POP POP RETURNDATASIZE DUP1 PUSH0 DUP2 EQ PUSH2 0x5EF JUMPI PUSH1 0x40 MLOAD SWAP2 POP PUSH1 0x1F NOT PUSH1 0x3F RETURNDATASIZE ADD AND DUP3 ADD PUSH1 0x40 MSTORE RETURNDATASIZE DUP3 MSTORE RETURNDATASIZE PUSH0 PUSH1 0x20 DUP5 ADD RETURNDATACOPY PUSH2 0x5F4 JUMP JUMPDEST PUSH1 0x60 SWAP2 POP JUMPDEST POP POP SWAP1 POP DUP1 PUSH2 0x638 JUMPI PUSH1 0x40 MLOAD PUSH32 0x8C379A000000000000000000000000000000000000000000000000000000000 DUP2 MSTORE PUSH1 0x4 ADD PUSH2 0x62F SWAP1 PUSH2 0xDD2 JUMP JUMPDEST PUSH1 0x40 MLOAD DUP1 SWAP2 SUB SWAP1 REVERT JUMPDEST POP POP POP JUMP JUMPDEST PUSH0 PUSH0 PUSH0 SWAP1 POP JUMPDEST DUP4 DUP4 SWAP1 POP DUP2 LT ISZERO PUSH2 0x682 JUMPI DUP4 DUP4 DUP3 DUP2 DUP2 LT PUSH2 0x661 JUMPI PUSH2 0x660 PUSH2 0xB4F JUMP JUMPDEST JUMPDEST SWAP1 POP PUSH1 0x20 MUL ADD CALLDATALOAD DUP3 PUSH2 0x673 SWAP2 SWAP1 PUSH2 0xE1D JUMP JUMPDEST SWAP2 POP DUP1 DUP1 PUSH1 0x1 ADD SWAP2 POP POP PUSH2 0x643 JUMP JUMPDEST POP SWAP3 SWAP2 POP POP JUMP JUMPDEST PUSH0 PUSH0 REVERT JUMPDEST PUSH0 PUSH0 REVERT JUMPDEST PUSH0 PUSH20 0xFFFFFFFFFFFFFFFFFFFFFFFFFFFFFFFFFFFFFFFF DUP3 AND SWAP1 POP SWAP2 SWAP1 POP JUMP JUMPDEST PUSH0 PUSH2 0x6BA DUP3 PUSH2 0x691 JUMP JUMPDEST SWAP1 POP SWAP2 SWAP1 POP JUMP JUMPDEST PUSH2 0x6CA DUP2 PUSH2 0x6B0 JUMP JUMPDEST DUP2 EQ PUSH2 0x6D4 JUMPI PUSH0 PUSH0 REVERT JUMPDEST POP JUMP JUMPDEST PUSH0 DUP2 CALLDATALOAD SWAP1 POP PUSH2 0x6E5 DUP2 PUSH2 0x6C1 JUMP JUMPDEST SWAP3 SWAP2 POP POP JUMP JUMPDEST PUSH0 PUSH0 REVERT JUMPDEST PUSH0 PUSH0 REVERT JUMPDEST PUSH0 PUSH0 REVERT JUMPDEST PUSH0 PUSH0 DUP4 PUSH1 0x1F DUP5 ADD SLT PUSH2 0x70C JUMPI PUSH2 0x70B PUSH2 0x6EB JUMP JUMPDEST JUMPDEST DUP3 CALLDATALOAD SWAP1 POP PUSH8 0xFFFFFFFFFFFFFFFF DUP2 GT ISZERO PUSH2 0x729 JUMPI PUSH2 0x728 PUSH2 0x6EF JUMP JUMPDEST JUMPDEST PUSH1 0x20 DUP4 ADD SWAP2 POP DUP4 PUSH1 0x20 DUP3 MUL DUP4 ADD GT ISZERO PUSH2 0x745 JUMPI PUSH2 0x744 PUSH2 0x6F3 JUMP JUMPDEST JUMPDEST SWAP3 POP SWAP3 SWAP1 POP JUMP JUMPDEST PUSH0 PUSH0 DUP4 PUSH1 0x1F DUP5 ADD SLT PUSH2 0x761 JUMPI PUSH2 0x760 PUSH2 0x6EB JUMP JUMPDEST JUMPDEST DUP3 CALLDATALOAD SWAP1 POP PUSH8 0xFFFFFFFFFFFFFFFF DUP2 GT ISZERO PUSH2 0x77E JUMPI PUSH2 0x77D PUSH2 0x6EF JUMP JUMPDEST JUMPDEST PUSH1 0x20 DUP4 ADD SWAP2 POP DUP4 PUSH1 0x20 DUP3 MUL DUP4 ADD GT ISZERO PUSH2 0x79A JUMPI PUSH2 0x799 PUSH2 0x6F3 JUMP JUMPDEST JUMPDEST SWAP3 POP SWAP3 SWAP1 POP JUMP JUMPDEST PUSH0 PUSH0 PUSH0 PUSH0 PUSH0 PUSH0 PUSH1 0x80 DUP8 DUP10 SUB SLT ISZERO PUSH2 0x7BB JUMPI PUSH2 0x7BA PUSH2 0x689 JUMP JUMPDEST JUMPDEST PUSH0 PUSH2 0x7C8 DUP10 DUP3 DUP11 ADD PUSH2 0x6D7 JUMP JUMPDEST SWAP7 POP POP PUSH1 0x20 DUP8 ADD CALLDATALOAD PUSH8 0xFFFFFFFFFFFFFFFF DUP2 GT ISZERO PUSH2 0x7E9 JUMPI PUSH2 0x7E8 PUSH2 0x68D JUMP JUMPDEST JUMPDEST PUSH2 0x7F5 DUP10 DUP3 DUP11 ADD PUSH2 0x6F7 JUMP JUMPDEST SWAP6 POP SWAP6 POP POP PUSH1 0x40 DUP8 ADD CALLDATALOAD PUSH8 0xFFFFFFFFFFFFFFFF DUP2 GT ISZERO PUSH2 0x818 JUMPI PUSH2 0x817 PUSH2 0x68D JUMP JUMPDEST JUMPDEST PUSH2 0x824 DUP10 DUP3 DUP11 ADD PUSH2 0x74C JUMP JUMPDEST SWAP4 POP SWAP4 POP POP PUSH1 0x60 PUSH2 0x837 DUP10 DUP3 DUP11 ADD PUSH2 0x6D7 JUMP JUMPDEST SWAP2 POP POP SWAP3 SWAP6 POP SWAP3 SWAP6 POP SWAP3 SWAP6 JUMP JUMPDEST PUSH0 PUSH0 DUP4 PUSH1 0x1F DUP5 ADD SLT PUSH2 0x859 JUMPI PUSH2 0x858 PUSH2 0x6EB JUMP JUMPDEST JUMPDEST DUP3 CALLDATALOAD SWAP1 POP PUSH8 0xFFFFFFFFFFFFFFFF DUP2 GT ISZERO PUSH2 0x876 JUMPI PUSH2 0x875 PUSH2 0x6EF JUMP JUMPDEST JUMPDEST PUSH1 0x20 DUP4 ADD SWAP2 POP DUP4 PUSH1 0x20 DUP3 MUL DUP4 ADD GT ISZERO PUSH2 0x892 JUMPI PUSH2 0x891 PUSH2 0x6F3 JUMP JUMPDEST JUMPDEST SWAP3 POP SWAP3 SWAP1 POP JUMP JUMPDEST PUSH0 PUSH0 PUSH0 PUSH0 PUSH1 0x40 DUP6 DUP8 SUB SLT ISZERO PUSH2 0x8B1 JUMPI PUSH2 0x8B0 PUSH2 0x689 JUMP JUMPDEST JUMPDEST PUSH0 DUP6 ADD CALLDATALOAD PUSH8 0xFFFFFFFFFFFFFFFF DUP2 GT ISZERO PUSH2 0x8CE JUMPI PUSH2 0x8CD PUSH2 0x68D JUMP JUMPDEST JUMPDEST PUSH2 0x8DA DUP8 DUP3 DUP9 ADD PUSH2 0x844 JUMP JUMPDEST SWAP5 POP SWAP5 POP POP PUSH1 0x20 DUP6 ADD CALLDATALOAD PUSH8 0xFFFFFFFFFFFFFFFF DUP2 GT ISZERO PUSH2 0x8FD JUMPI PUSH2 0x8FC PUSH2 0x68D JUMP JUMPDEST JUMPDEST PUSH2 0x909 DUP8 DUP3 DUP9 ADD PUSH2 0x74C JUMP JUMPDEST SWAP3 POP SWAP3 POP POP SWAP3 SWAP6 SWAP2 SWAP5 POP SWAP3 POP JUMP JUMPDEST PUSH0 PUSH1 0x20 DUP3 DUP5 SUB SLT ISZERO PUSH2 0x92C JUMPI PUSH2 0x92B PUSH2 0x689 JUMP JUMPDEST JUMPDEST PUSH0 PUSH2 0x939 DUP5 DUP3 DUP6 ADD PUSH2 0x6D7 JUMP JUMPDEST SWAP2 POP POP SWAP3 SWAP2 POP POP JUMP JUMPDEST PUSH0 PUSH0 PUSH1 0x20 DUP4 DUP6 SUB SLT ISZERO PUSH2 0x958 JUMPI PUSH2 0x957 PUSH2 0x689 JUMP JUMPDEST JUMPDEST PUSH0 DUP4 ADD CALLDATALOAD PUSH8 0xFFFFFFFFFFFFFFFF DUP2 GT ISZERO PUSH2 0x975 JUMPI PUSH2 0x974 PUSH2 0x68D JUMP JUMPDEST JUMPDEST PUSH2 0x981 DUP6 DUP3 DUP7 ADD PUSH2 0x74C JUMP JUMPDEST SWAP3 POP SWAP3 POP POP SWAP3 POP SWAP3 SWAP1 POP JUMP JUMPDEST PUSH0 DUP2 SWAP1 POP SWAP2 SWAP1 POP JUMP JUMPDEST PUSH2 0x99F DUP2 PUSH2 0x98D JUMP JUMPDEST DUP3 MSTORE POP POP JUMP JUMPDEST PUSH0 PUSH1 0x20 DUP3 ADD SWAP1 POP PUSH2 0x9B8 PUSH0 DUP4 ADD DUP5 PUSH2 0x996 JUMP JUMPDEST SWAP3 SWAP2 POP POP JUMP JUMPDEST PUSH0 DUP3 DUP3 MSTORE PUSH1 0x20 DUP3 ADD SWAP1 POP SWAP3 SWAP2 POP POP JUMP JUMPDEST PUSH32 0x4C656E67746873206F662041646472657373657320616E6420416D6F756E7473 PUSH0 DUP3 ADD MSTORE PUSH32 0x204E4F5420455155414C00000000000000000000000000000000000000000000 PUSH1 0x20 DUP3 ADD MSTORE POP JUMP JUMPDEST PUSH0 PUSH2 0xA28 PUSH1 0x2A DUP4 PUSH2 0x9BE JUMP JUMPDEST SWAP2 POP PUSH2 0xA33 DUP3 PUSH2 0x9CE JUMP JUMPDEST PUSH1 0x40 DUP3 ADD SWAP1 POP SWAP2 SWAP1 POP JUMP JUMPDEST PUSH0 PUSH1 0x20 DUP3 ADD SWAP1 POP DUP2 DUP2 SUB PUSH0 DUP4 ADD MSTORE PUSH2 0xA55 DUP2 PUSH2 0xA1C JUMP JUMPDEST SWAP1 POP SWAP2 SWAP1 POP JUMP JUMPDEST PUSH2 0xA65 DUP2 PUSH2 0x6B0 JUMP JUMPDEST DUP3 MSTORE POP POP JUMP JUMPDEST PUSH0 PUSH1 0x40 DUP3 ADD SWAP1 POP PUSH2 0xA7E PUSH0 DUP4 ADD DUP6 PUSH2 0xA5C JUMP JUMPDEST PUSH2 0xA8B PUSH1 0x20 DUP4 ADD DUP5 PUSH2 0xA5C JUMP JUMPDEST SWAP4 SWAP3 POP POP POP JUMP JUMPDEST PUSH2 0xA9B DUP2 PUSH2 0x98D JUMP JUMPDEST DUP2 EQ PUSH2 0xAA5 JUMPI PUSH0 PUSH0 REVERT JUMPDEST POP JUMP JUMPDEST PUSH0 DUP2 MLOAD SWAP1 POP PUSH2 0xAB6 DUP2 PUSH2 0xA92 JUMP JUMPDEST SWAP3 SWAP2 POP POP JUMP JUMPDEST PUSH0 PUSH1 0x20 DUP3 DUP5 SUB SLT ISZERO PUSH2 0xAD1 JUMPI PUSH2 0xAD0 PUSH2 0x689 JUMP JUMPDEST JUMPDEST PUSH0 PUSH2 0xADE DUP5 DUP3 DUP6 ADD PUSH2 0xAA8 JUMP JUMPDEST SWAP2 POP POP SWAP3 SWAP2 POP POP JUMP JUMPDEST PUSH32 0x4E65656420417070726F766520455243323020746F6B656E0000000000000000 PUSH0 DUP3 ADD MSTORE POP JUMP JUMPDEST PUSH0 PUSH2 0xB1B PUSH1 0x18 DUP4 PUSH2 0x9BE JUMP JUMPDEST SWAP2 POP PUSH2 0xB26 DUP3 PUSH2 0xAE7 JUMP JUMPDEST PUSH1 0x20 DUP3 ADD SWAP1 POP SWAP2 SWAP1 POP JUMP JUMPDEST PUSH0 PUSH1 0x20 DUP3 ADD SWAP1 POP DUP2 DUP2 SUB PUSH0 DUP4 ADD MSTORE PUSH2 0xB48 DUP2 PUSH2 0xB0F JUMP JUMPDEST SWAP1 POP SWAP2 SWAP1 POP JUMP JUMPDEST PUSH32 0x4E487B7100000000000000000000000000000000000000000000000000000000 PUSH0 MSTORE PUSH1 0x32 PUSH1 0x4 MSTORE PUSH1 0x24 PUSH0 REVERT JUMPDEST PUSH0 PUSH1 0x60 DUP3 ADD SWAP1 POP PUSH2 0xB8F PUSH0 DUP4 ADD DUP7 PUSH2 0xA5C JUMP JUMPDEST PUSH2 0xB9C PUSH1 0x20 DUP4 ADD DUP6 PUSH2 0xA5C JUMP JUMPDEST PUSH2 0xBA9 PUSH1 0x40 DUP4 ADD DUP5 PUSH2 0x996 JUMP JUMPDEST SWAP5 SWAP4 POP POP POP POP JUMP JUMPDEST PUSH0 DUP2 ISZERO ISZERO SWAP1 POP SWAP2 SWAP1 POP JUMP JUMPDEST PUSH2 0xBC5 DUP2 PUSH2 0xBB1 JUMP JUMPDEST DUP2 EQ PUSH2 0xBCF JUMPI PUSH0 PUSH0 REVERT JUMPDEST POP JUMP JUMPDEST PUSH0 DUP2 MLOAD SWAP1 POP PUSH2 0xBE0 DUP2 PUSH2 0xBBC JUMP JUMPDEST SWAP3 SWAP2 POP POP JUMP JUMPDEST PUSH0 PUSH1 0x20 DUP3 DUP5 SUB SLT ISZERO PUSH2 0xBFB JUMPI PUSH2 0xBFA PUSH2 0x689 JUMP JUMPDEST JUMPDEST PUSH0 PUSH2 0xC08 DUP5 DUP3 DUP6 ADD PUSH2 0xBD2 JUMP JUMPDEST SWAP2 POP POP SWAP3 SWAP2 POP POP JUMP JUMPDEST PUSH32 0x5472616E7366657220616D6F756E74206572726F720000000000000000000000 PUSH0 DUP3 ADD MSTORE POP JUMP JUMPDEST PUSH0 PUSH2 0xC45 PUSH1 0x15 DUP4 PUSH2 0x9BE JUMP JUMPDEST SWAP2 POP PUSH2 0xC50 DUP3 PUSH2 0xC11 JUMP JUMPDEST PUSH1 0x20 DUP3 ADD SWAP1 POP SWAP2 SWAP1 POP JUMP JUMPDEST PUSH0 PUSH1 0x20 DUP3 ADD SWAP1 POP DUP2 DUP2 SUB PUSH0 DUP4 ADD MSTORE PUSH2 0xC72 DUP2 PUSH2 0xC39 JUMP JUMPDEST SWAP1 POP SWAP2 SWAP1 POP JUMP JUMPDEST PUSH0 PUSH2 0xC83 DUP3 PUSH2 0x691 JUMP JUMPDEST SWAP1 POP SWAP2 SWAP1 POP JUMP JUMPDEST PUSH2 0xC93 DUP2 PUSH2 0xC79 JUMP JUMPDEST DUP2 EQ PUSH2 0xC9D JUMPI PUSH0 PUSH0 REVERT JUMPDEST POP JUMP JUMPDEST PUSH0 DUP2 CALLDATALOAD SWAP1 POP PUSH2 0xCAE DUP2 PUSH2 0xC8A JUMP JUMPDEST SWAP3 SWAP2 POP POP JUMP JUMPDEST PUSH0 PUSH1 0x20 DUP3 DUP5 SUB SLT ISZERO PUSH2 0xCC9 JUMPI PUSH2 0xCC8 PUSH2 0x689 JUMP JUMPDEST JUMPDEST PUSH0 PUSH2 0xCD6 DUP5 DUP3 DUP6 ADD PUSH2 0xCA0 JUMP JUMPDEST SWAP2 POP POP SWAP3 SWAP2 POP POP JUMP JUMPDEST PUSH0 DUP2 SWAP1 POP SWAP3 SWAP2 POP POP JUMP JUMPDEST POP JUMP JUMPDEST PUSH0 PUSH2 0xCF7 PUSH0 DUP4 PUSH2 0xCDF JUMP JUMPDEST SWAP2 POP PUSH2 0xD02 DUP3 PUSH2 0xCE9 JUMP JUMPDEST PUSH0 DUP3 ADD SWAP1 POP SWAP2 SWAP1 POP JUMP JUMPDEST PUSH0 PUSH2 0xD16 DUP3 PUSH2 0xCEC JUMP JUMPDEST SWAP2 POP DUP2 SWAP1 POP SWAP2 SWAP1 POP JUMP JUMPDEST PUSH32 0x596F7520617265206E6F7420696E206661696C6564206C697374000000000000 PUSH0 DUP3 ADD MSTORE POP JUMP JUMPDEST PUSH0 PUSH2 0xD54 PUSH1 0x1A DUP4 PUSH2 0x9BE JUMP JUMPDEST SWAP2 POP PUSH2 0xD5F DUP3 PUSH2 0xD20 JUMP JUMPDEST PUSH1 0x20 DUP3 ADD SWAP1 POP SWAP2 SWAP1 POP JUMP JUMPDEST PUSH0 PUSH1 0x20 DUP3 ADD SWAP1 POP DUP2 DUP2 SUB PUSH0 DUP4 ADD MSTORE PUSH2 0xD81 DUP2 PUSH2 0xD48 JUMP JUMPDEST SWAP1 POP SWAP2 SWAP1 POP JUMP JUMPDEST PUSH32 0x4661696C20776974686472617700000000000000000000000000000000000000 PUSH0 DUP3 ADD MSTORE POP JUMP JUMPDEST PUSH0 PUSH2 0xDBC PUSH1 0xD DUP4 PUSH2 0x9BE JUMP JUMPDEST SWAP2 POP PUSH2 0xDC7 DUP3 PUSH2 0xD88 JUMP JUMPDEST PUSH1 0x20 DUP3 ADD SWAP1 POP SWAP2 SWAP1 POP JUMP JUMPDEST PUSH0 PUSH1 0x20 DUP3 ADD SWAP1 POP DUP2 DUP2 SUB PUSH0 DUP4 ADD MSTORE PUSH2 0xDE9 DUP2 PUSH2 0xDB0 JUMP JUMPDEST SWAP1 POP SWAP2 SWAP1 POP JUMP JUMPDEST PUSH32 0x4E487B7100000000000000000000000000000000000000000000000000000000 PUSH0 MSTORE PUSH1 0x11 PUSH1 0x4 MSTORE PUSH1 0x24 PUSH0 REVERT JUMPDEST PUSH0 PUSH2 0xE27 DUP3 PUSH2 0x98D JUMP JUMPDEST SWAP2 POP PUSH2 0xE32 DUP4 PUSH2 0x98D JUMP JUMPDEST SWAP3 POP DUP3 DUP3 ADD SWAP1 POP DUP1 DUP3 GT ISZERO PUSH2 0xE4A JUMPI PUSH2 0xE49 PUSH2 0xDF0 JUMP JUMPDEST JUMPDEST SWAP3 SWAP2 POP POP JUMP INVALID LOG2 PUSH5 0x6970667358 0x22 SLT KECCAK256 0x23 0xA7 SWAP2 CALLDATASIZE 0x26 SWAP13 0xCB BLOBBASEFEE 0xDC 0xB9 PUSH15 0xC968F028913B3A010EBDC6FDBE386E PREVRANDAO 0xEB PUSH21 0xB2F3F364736F6C634300081C003300000000000000 "
				},
				"gasEstimates": {
					"creation": {
						"codeDepositCost": "743600",
						"executionCost": "777",
						"totalCost": "744377"
					},
					"external": {
						"getSum(uint256[])": "infinite",
						"multiTransferETH(address[],uint256[])": "infinite",
						"multiTransferToken(address,address[],uint256[],address)": "infinite",
						"withdrawFromFailList(address)": "infinite"
					}
				},
				"methodIdentifiers": {
					"getSum(uint256[])": "ccb8c1e0",
					"multiTransferETH(address[],uint256[])": "77988cf8",
					"multiTransferToken(address,address[],uint256[],address)": "48b377d8",
					"withdrawFromFailList(address)": "acacd8ee"
				}
			},
			"storageLayout": {
				"storage": [
					{
						"astId": 7,
						"contract": "contracts/WTF_ethers/15_MultiTransfer/Airdrop.sol:Airdrop",
						"label": "failTransferList",
						"offset": 0,
						"slot": "0",
						"type": "t_mapping(t_address,t_uint256)"
					}
				],
				"types": {
					"t_address": {
						"encoding": "inplace",
						"label": "address",
						"numberOfBytes": "20"
					},
					"t_mapping(t_address,t_uint256)": {
						"encoding": "mapping",
						"key": "t_address",
						"label": "mapping(address => uint256)",
						"numberOfBytes": "32",
						"value": "t_uint256"
					},
					"t_uint256": {
						"encoding": "inplace",
						"label": "uint256",
						"numberOfBytes": "32"
					}
				}
			},
			"userdoc": {
				"kind": "user",
				"methods": {
					"multiTransferETH(address[],uint256[])": {
						"notice": "向多个地址转账ETH"
					},
					"multiTransferToken(address,address[],uint256[],address)": {
						"notice": "向多个地址转账ERC20代币，使用前需要先授权"
					}
				},
				"notice": "向多个地址转账ERC20代币",
				"version": 1
			}
		}
	}
}