{
	"contracts/Ddfi_lpl/01CPAMM/CPAMM.sol": {
		"CPAMM": {
			"abi": [
				{
					"inputs": [
						{
							"internalType": "address",
							"name": "_token0",
							"type": "address"
						},
						{
							"internalType": "address",
							"name": "_token1",
							"type": "address"
						}
					],
					"stateMutability": "nonpayable",
					"type": "constructor"
				},
				{
					"inputs": [
						{
							"internalType": "uint256",
							"name": "_amount0",
							"type": "uint256"
						},
						{
							"internalType": "uint256",
							"name": "_amount1",
							"type": "uint256"
						}
					],
					"name": "addLiquidity",
					"outputs": [
						{
							"internalType": "uint256",
							"name": "shares",
							"type": "uint256"
						}
					],
					"stateMutability": "nonpayable",
					"type": "function"
				},
				{
					"inputs": [
						{
							"internalType": "address",
							"name": "",
							"type": "address"
						}
					],
					"name": "balanceOf",
					"outputs": [
						{
							"internalType": "uint256",
							"name": "",
							"type": "uint256"
						}
					],
					"stateMutability": "view",
					"type": "function"
				},
				{
					"inputs": [
						{
							"internalType": "uint256",
							"name": "_shares",
							"type": "uint256"
						}
					],
					"name": "removeLiquidity",
					"outputs": [
						{
							"internalType": "uint256",
							"name": "amount0",
							"type": "uint256"
						},
						{
							"internalType": "uint256",
							"name": "amount1",
							"type": "uint256"
						}
					],
					"stateMutability": "nonpayable",
					"type": "function"
				},
				{
					"inputs": [],
					"name": "reserve0",
					"outputs": [
						{
							"internalType": "uint256",
							"name": "",
							"type": "uint256"
						}
					],
					"stateMutability": "view",
					"type": "function"
				},
				{
					"inputs": [],
					"name": "reserve1",
					"outputs": [
						{
							"internalType": "uint256",
							"name": "",
							"type": "uint256"
						}
					],
					"stateMutability": "view",
					"type": "function"
				},
				{
					"inputs": [
						{
							"internalType": "address",
							"name": "_tokenIn",
							"type": "address"
						},
						{
							"internalType": "uint256",
							"name": "_amountIn",
							"type": "uint256"
						}
					],
					"name": "swap",
					"outputs": [
						{
							"internalType": "uint256",
							"name": "amountOut",
							"type": "uint256"
						}
					],
					"stateMutability": "nonpayable",
					"type": "function"
				},
				{
					"inputs": [],
					"name": "token0",
					"outputs": [
						{
							"internalType": "contract IERC20",
							"name": "",
							"type": "address"
						}
					],
					"stateMutability": "view",
					"type": "function"
				},
				{
					"inputs": [],
					"name": "token1",
					"outputs": [
						{
							"internalType": "contract IERC20",
							"name": "",
							"type": "address"
						}
					],
					"stateMutability": "view",
					"type": "function"
				},
				{
					"inputs": [],
					"name": "totalSupply",
					"outputs": [
						{
							"internalType": "uint256",
							"name": "",
							"type": "uint256"
						}
					],
					"stateMutability": "view",
					"type": "function"
				}
			],
			"devdoc": {
				"kind": "dev",
				"methods": {},
				"version": 1
			},
			"evm": {
				"assembly": "    /* \"contracts/Ddfi_lpl/01CPAMM/CPAMM.sol\":82:3950  contract CPAMM {... */\n  mstore(0x40, 0xc0)\n    /* \"contracts/Ddfi_lpl/01CPAMM/CPAMM.sol\":353:474  constructor(address _token0, address _token1) {... */\n  callvalue\n  dup1\n  iszero\n  tag_1\n  jumpi\n  revert(0x00, 0x00)\ntag_1:\n  pop\n  mload(0x40)\n  sub(codesize, bytecodeSize)\n  dup1\n  bytecodeSize\n  dup4\n  codecopy\n  dup2\n  dup2\n  add\n  0x40\n  mstore\n  dup2\n  add\n  swap1\n  tag_2\n  swap2\n  swap1\n  tag_3\n  jump\t// in\ntag_2:\n    /* \"contracts/Ddfi_lpl/01CPAMM/CPAMM.sol\":425:432  _token0 */\n  dup2\n    /* \"contracts/Ddfi_lpl/01CPAMM/CPAMM.sol\":409:433  token0 = IERC20(_token0) */\n  0xffffffffffffffffffffffffffffffffffffffff\n  and\n  0x80\n  dup2\n  0xffffffffffffffffffffffffffffffffffffffff\n  and\n  dup2\n  mstore\n  pop\n  pop\n    /* \"contracts/Ddfi_lpl/01CPAMM/CPAMM.sol\":459:466  _token1 */\n  dup1\n    /* \"contracts/Ddfi_lpl/01CPAMM/CPAMM.sol\":443:467  token1 = IERC20(_token1) */\n  0xffffffffffffffffffffffffffffffffffffffff\n  and\n  0xa0\n  dup2\n  0xffffffffffffffffffffffffffffffffffffffff\n  and\n  dup2\n  mstore\n  pop\n  pop\n    /* \"contracts/Ddfi_lpl/01CPAMM/CPAMM.sol\":353:474  constructor(address _token0, address _token1) {... */\n  pop\n  pop\n    /* \"contracts/Ddfi_lpl/01CPAMM/CPAMM.sol\":82:3950  contract CPAMM {... */\n  jump(tag_6)\n    /* \"#utility.yul\":88:205   */\ntag_8:\n    /* \"#utility.yul\":197:198   */\n  0x00\n    /* \"#utility.yul\":194:195   */\n  0x00\n    /* \"#utility.yul\":187:199   */\n  revert\n    /* \"#utility.yul\":334:460   */\ntag_10:\n    /* \"#utility.yul\":371:378   */\n  0x00\n    /* \"#utility.yul\":411:453   */\n  0xffffffffffffffffffffffffffffffffffffffff\n    /* \"#utility.yul\":404:409   */\n  dup3\n    /* \"#utility.yul\":400:454   */\n  and\n    /* \"#utility.yul\":389:454   */\n  swap1\n  pop\n    /* \"#utility.yul\":334:460   */\n  swap2\n  swap1\n  pop\n  jump\t// out\n    /* \"#utility.yul\":466:562   */\ntag_11:\n    /* \"#utility.yul\":503:510   */\n  0x00\n    /* \"#utility.yul\":532:556   */\n  tag_20\n    /* \"#utility.yul\":550:555   */\n  dup3\n    /* \"#utility.yul\":532:556   */\n  tag_10\n  jump\t// in\ntag_20:\n    /* \"#utility.yul\":521:556   */\n  swap1\n  pop\n    /* \"#utility.yul\":466:562   */\n  swap2\n  swap1\n  pop\n  jump\t// out\n    /* \"#utility.yul\":568:690   */\ntag_12:\n    /* \"#utility.yul\":641:665   */\n  tag_22\n    /* \"#utility.yul\":659:664   */\n  dup2\n    /* \"#utility.yul\":641:665   */\n  tag_11\n  jump\t// in\ntag_22:\n    /* \"#utility.yul\":634:639   */\n  dup2\n    /* \"#utility.yul\":631:666   */\n  eq\n    /* \"#utility.yul\":621:684   */\n  tag_23\n  jumpi\n    /* \"#utility.yul\":680:681   */\n  0x00\n    /* \"#utility.yul\":677:678   */\n  0x00\n    /* \"#utility.yul\":670:682   */\n  revert\n    /* \"#utility.yul\":621:684   */\ntag_23:\n    /* \"#utility.yul\":568:690   */\n  pop\n  jump\t// out\n    /* \"#utility.yul\":696:839   */\ntag_13:\n    /* \"#utility.yul\":753:758   */\n  0x00\n    /* \"#utility.yul\":784:790   */\n  dup2\n    /* \"#utility.yul\":778:791   */\n  mload\n    /* \"#utility.yul\":769:791   */\n  swap1\n  pop\n    /* \"#utility.yul\":800:833   */\n  tag_25\n    /* \"#utility.yul\":827:832   */\n  dup2\n    /* \"#utility.yul\":800:833   */\n  tag_12\n  jump\t// in\ntag_25:\n    /* \"#utility.yul\":696:839   */\n  swap3\n  swap2\n  pop\n  pop\n  jump\t// out\n    /* \"#utility.yul\":845:1352   */\ntag_3:\n    /* \"#utility.yul\":924:930   */\n  0x00\n    /* \"#utility.yul\":932:938   */\n  0x00\n    /* \"#utility.yul\":981:983   */\n  0x40\n    /* \"#utility.yul\":969:978   */\n  dup4\n    /* \"#utility.yul\":960:967   */\n  dup6\n    /* \"#utility.yul\":956:979   */\n  sub\n    /* \"#utility.yul\":952:984   */\n  slt\n    /* \"#utility.yul\":949:1068   */\n  iszero\n  tag_27\n  jumpi\n    /* \"#utility.yul\":987:1066   */\n  tag_28\n  tag_8\n  jump\t// in\ntag_28:\n    /* \"#utility.yul\":949:1068   */\ntag_27:\n    /* \"#utility.yul\":1107:1108   */\n  0x00\n    /* \"#utility.yul\":1132:1196   */\n  tag_29\n    /* \"#utility.yul\":1188:1195   */\n  dup6\n    /* \"#utility.yul\":1179:1185   */\n  dup3\n    /* \"#utility.yul\":1168:1177   */\n  dup7\n    /* \"#utility.yul\":1164:1186   */\n  add\n    /* \"#utility.yul\":1132:1196   */\n  tag_13\n  jump\t// in\ntag_29:\n    /* \"#utility.yul\":1122:1196   */\n  swap3\n  pop\n    /* \"#utility.yul\":1078:1206   */\n  pop\n    /* \"#utility.yul\":1245:1247   */\n  0x20\n    /* \"#utility.yul\":1271:1335   */\n  tag_30\n    /* \"#utility.yul\":1327:1334   */\n  dup6\n    /* \"#utility.yul\":1318:1324   */\n  dup3\n    /* \"#utility.yul\":1307:1316   */\n  dup7\n    /* \"#utility.yul\":1303:1325   */\n  add\n    /* \"#utility.yul\":1271:1335   */\n  tag_13\n  jump\t// in\ntag_30:\n    /* \"#utility.yul\":1261:1335   */\n  swap2\n  pop\n    /* \"#utility.yul\":1216:1345   */\n  pop\n    /* \"#utility.yul\":845:1352   */\n  swap3\n  pop\n  swap3\n  swap1\n  pop\n  jump\t// out\n    /* \"contracts/Ddfi_lpl/01CPAMM/CPAMM.sol\":82:3950  contract CPAMM {... */\ntag_6:\n  mload(0x80)\n  mload(0xa0)\n  codecopy(0x00, dataOffset(sub_0), dataSize(sub_0))\n  0x00\n  assignImmutable(\"0xe4b1702d9298fee62dfeccc57d322a463ad55ca201256d01f62b45b2e1c21c10\")\n  0x00\n  assignImmutable(\"0xceebf77a833b30520287ddd9478ff51abbdffa30aa90a8d655dba0e8a79ce0c1\")\n  return(0x00, dataSize(sub_0))\nstop\n\nsub_0: assembly {\n        /* \"contracts/Ddfi_lpl/01CPAMM/CPAMM.sol\":82:3950  contract CPAMM {... */\n      mstore(0x40, 0x80)\n      callvalue\n      dup1\n      iszero\n      tag_1\n      jumpi\n      revert(0x00, 0x00)\n    tag_1:\n      pop\n      jumpi(tag_2, lt(calldatasize, 0x04))\n      shr(0xe0, calldataload(0x00))\n      dup1\n      0x70a08231\n      gt\n      tag_12\n      jumpi\n      dup1\n      0x70a08231\n      eq\n      tag_7\n      jumpi\n      dup1\n      0x9c8f9f23\n      eq\n      tag_8\n      jumpi\n      dup1\n      0x9cd441da\n      eq\n      tag_9\n      jumpi\n      dup1\n      0xd004f0f7\n      eq\n      tag_10\n      jumpi\n      dup1\n      0xd21220a7\n      eq\n      tag_11\n      jumpi\n      jump(tag_2)\n    tag_12:\n      dup1\n      0x0dfe1681\n      eq\n      tag_3\n      jumpi\n      dup1\n      0x18160ddd\n      eq\n      tag_4\n      jumpi\n      dup1\n      0x443cb4bc\n      eq\n      tag_5\n      jumpi\n      dup1\n      0x5a76f25e\n      eq\n      tag_6\n      jumpi\n    tag_2:\n      revert(0x00, 0x00)\n        /* \"contracts/Ddfi_lpl/01CPAMM/CPAMM.sol\":103:133  IERC20 public immutable token0 */\n    tag_3:\n      tag_13\n      tag_14\n      jump\t// in\n    tag_13:\n      mload(0x40)\n      tag_15\n      swap2\n      swap1\n      tag_16\n      jump\t// in\n    tag_15:\n      mload(0x40)\n      dup1\n      swap2\n      sub\n      swap1\n      return\n        /* \"contracts/Ddfi_lpl/01CPAMM/CPAMM.sol\":276:299  uint public totalSupply */\n    tag_4:\n      tag_17\n      tag_18\n      jump\t// in\n    tag_17:\n      mload(0x40)\n      tag_19\n      swap2\n      swap1\n      tag_20\n      jump\t// in\n    tag_19:\n      mload(0x40)\n      dup1\n      swap2\n      sub\n      swap1\n      return\n        /* \"contracts/Ddfi_lpl/01CPAMM/CPAMM.sol\":223:243  uint public reserve0 */\n    tag_5:\n      tag_21\n      tag_22\n      jump\t// in\n    tag_21:\n      mload(0x40)\n      tag_23\n      swap2\n      swap1\n      tag_20\n      jump\t// in\n    tag_23:\n      mload(0x40)\n      dup1\n      swap2\n      sub\n      swap1\n      return\n        /* \"contracts/Ddfi_lpl/01CPAMM/CPAMM.sol\":249:269  uint public reserve1 */\n    tag_6:\n      tag_24\n      tag_25\n      jump\t// in\n    tag_24:\n      mload(0x40)\n      tag_26\n      swap2\n      swap1\n      tag_20\n      jump\t// in\n    tag_26:\n      mload(0x40)\n      dup1\n      swap2\n      sub\n      swap1\n      return\n        /* \"contracts/Ddfi_lpl/01CPAMM/CPAMM.sol\":305:346  mapping(address => uint) public balanceOf */\n    tag_7:\n      tag_27\n      0x04\n      dup1\n      calldatasize\n      sub\n      dup2\n      add\n      swap1\n      tag_28\n      swap2\n      swap1\n      tag_29\n      jump\t// in\n    tag_28:\n      tag_30\n      jump\t// in\n    tag_27:\n      mload(0x40)\n      tag_31\n      swap2\n      swap1\n      tag_20\n      jump\t// in\n    tag_31:\n      mload(0x40)\n      dup1\n      swap2\n      sub\n      swap1\n      return\n        /* \"contracts/Ddfi_lpl/01CPAMM/CPAMM.sol\":2841:3549  function removeLiquidity(uint _shares) external returns (uint amount0, uint amount1) {... */\n    tag_8:\n      tag_32\n      0x04\n      dup1\n      calldatasize\n      sub\n      dup2\n      add\n      swap1\n      tag_33\n      swap2\n      swap1\n      tag_34\n      jump\t// in\n    tag_33:\n      tag_35\n      jump\t// in\n    tag_32:\n      mload(0x40)\n      tag_36\n      swap3\n      swap2\n      swap1\n      tag_37\n      jump\t// in\n    tag_36:\n      mload(0x40)\n      dup1\n      swap2\n      sub\n      swap1\n      return\n        /* \"contracts/Ddfi_lpl/01CPAMM/CPAMM.sol\":1894:2738  function addLiquidity(uint _amount0, uint _amount1) external returns (uint shares) {... */\n    tag_9:\n      tag_38\n      0x04\n      dup1\n      calldatasize\n      sub\n      dup2\n      add\n      swap1\n      tag_39\n      swap2\n      swap1\n      tag_40\n      jump\t// in\n    tag_39:\n      tag_41\n      jump\t// in\n    tag_38:\n      mload(0x40)\n      tag_42\n      swap2\n      swap1\n      tag_20\n      jump\t// in\n    tag_42:\n      mload(0x40)\n      dup1\n      swap2\n      sub\n      swap1\n      return\n        /* \"contracts/Ddfi_lpl/01CPAMM/CPAMM.sol\":933:1841  function swap(address _tokenIn, uint _amountIn) external returns (uint amountOut) {... */\n    tag_10:\n      tag_43\n      0x04\n      dup1\n      calldatasize\n      sub\n      dup2\n      add\n      swap1\n      tag_44\n      swap2\n      swap1\n      tag_45\n      jump\t// in\n    tag_44:\n      tag_46\n      jump\t// in\n    tag_43:\n      mload(0x40)\n      tag_47\n      swap2\n      swap1\n      tag_20\n      jump\t// in\n    tag_47:\n      mload(0x40)\n      dup1\n      swap2\n      sub\n      swap1\n      return\n        /* \"contracts/Ddfi_lpl/01CPAMM/CPAMM.sol\":139:169  IERC20 public immutable token1 */\n    tag_11:\n      tag_48\n      tag_49\n      jump\t// in\n    tag_48:\n      mload(0x40)\n      tag_50\n      swap2\n      swap1\n      tag_16\n      jump\t// in\n    tag_50:\n      mload(0x40)\n      dup1\n      swap2\n      sub\n      swap1\n      return\n        /* \"contracts/Ddfi_lpl/01CPAMM/CPAMM.sol\":103:133  IERC20 public immutable token0 */\n    tag_14:\n      immutable(\"0xceebf77a833b30520287ddd9478ff51abbdffa30aa90a8d655dba0e8a79ce0c1\")\n      dup2\n      jump\t// out\n        /* \"contracts/Ddfi_lpl/01CPAMM/CPAMM.sol\":276:299  uint public totalSupply */\n    tag_18:\n      sload(0x02)\n      dup2\n      jump\t// out\n        /* \"contracts/Ddfi_lpl/01CPAMM/CPAMM.sol\":223:243  uint public reserve0 */\n    tag_22:\n      sload(0x00)\n      dup2\n      jump\t// out\n        /* \"contracts/Ddfi_lpl/01CPAMM/CPAMM.sol\":249:269  uint public reserve1 */\n    tag_25:\n      sload(0x01)\n      dup2\n      jump\t// out\n        /* \"contracts/Ddfi_lpl/01CPAMM/CPAMM.sol\":305:346  mapping(address => uint) public balanceOf */\n    tag_30:\n      mstore(0x20, 0x03)\n      dup1\n      0x00\n      mstore\n      keccak256(0x00, 0x40)\n      0x00\n      swap2\n      pop\n      swap1\n      pop\n      sload\n      dup2\n      jump\t// out\n        /* \"contracts/Ddfi_lpl/01CPAMM/CPAMM.sol\":2841:3549  function removeLiquidity(uint _shares) external returns (uint amount0, uint amount1) {... */\n    tag_35:\n        /* \"contracts/Ddfi_lpl/01CPAMM/CPAMM.sol\":2898:2910  uint amount0 */\n      0x00\n        /* \"contracts/Ddfi_lpl/01CPAMM/CPAMM.sol\":2912:2924  uint amount1 */\n      0x00\n        /* \"contracts/Ddfi_lpl/01CPAMM/CPAMM.sol\":2985:2994  uint bal0 */\n      0x00\n        /* \"contracts/Ddfi_lpl/01CPAMM/CPAMM.sol\":2997:3003  token0 */\n      immutable(\"0xceebf77a833b30520287ddd9478ff51abbdffa30aa90a8d655dba0e8a79ce0c1\")\n        /* \"contracts/Ddfi_lpl/01CPAMM/CPAMM.sol\":2997:3013  token0.balanceOf */\n      0xffffffffffffffffffffffffffffffffffffffff\n      and\n      0x70a08231\n        /* \"contracts/Ddfi_lpl/01CPAMM/CPAMM.sol\":3022:3026  this */\n      address\n        /* \"contracts/Ddfi_lpl/01CPAMM/CPAMM.sol\":2997:3028  token0.balanceOf(address(this)) */\n      mload(0x40)\n      dup3\n      0xffffffff\n      and\n      0xe0\n      shl\n      dup2\n      mstore\n      0x04\n      add\n      tag_52\n      swap2\n      swap1\n      tag_53\n      jump\t// in\n    tag_52:\n      0x20\n      mload(0x40)\n      dup1\n      dup4\n      sub\n      dup2\n      dup7\n      gas\n      staticcall\n      iszero\n      dup1\n      iszero\n      tag_55\n      jumpi\n      returndatacopy(0x00, 0x00, returndatasize)\n      revert(0x00, returndatasize)\n    tag_55:\n      pop\n      pop\n      pop\n      pop\n      mload(0x40)\n      returndatasize\n      not(0x1f)\n      0x1f\n      dup3\n      add\n      and\n      dup3\n      add\n      dup1\n      0x40\n      mstore\n      pop\n      dup2\n      add\n      swap1\n      tag_56\n      swap2\n      swap1\n      tag_57\n      jump\t// in\n    tag_56:\n        /* \"contracts/Ddfi_lpl/01CPAMM/CPAMM.sol\":2985:3028  uint bal0 = token0.balanceOf(address(this)) */\n      swap1\n      pop\n        /* \"contracts/Ddfi_lpl/01CPAMM/CPAMM.sol\":3038:3047  uint bal1 */\n      0x00\n        /* \"contracts/Ddfi_lpl/01CPAMM/CPAMM.sol\":3050:3056  token1 */\n      immutable(\"0xe4b1702d9298fee62dfeccc57d322a463ad55ca201256d01f62b45b2e1c21c10\")\n        /* \"contracts/Ddfi_lpl/01CPAMM/CPAMM.sol\":3050:3066  token1.balanceOf */\n      0xffffffffffffffffffffffffffffffffffffffff\n      and\n      0x70a08231\n        /* \"contracts/Ddfi_lpl/01CPAMM/CPAMM.sol\":3075:3079  this */\n      address\n        /* \"contracts/Ddfi_lpl/01CPAMM/CPAMM.sol\":3050:3081  token1.balanceOf(address(this)) */\n      mload(0x40)\n      dup3\n      0xffffffff\n      and\n      0xe0\n      shl\n      dup2\n      mstore\n      0x04\n      add\n      tag_58\n      swap2\n      swap1\n      tag_53\n      jump\t// in\n    tag_58:\n      0x20\n      mload(0x40)\n      dup1\n      dup4\n      sub\n      dup2\n      dup7\n      gas\n      staticcall\n      iszero\n      dup1\n      iszero\n      tag_60\n      jumpi\n      returndatacopy(0x00, 0x00, returndatasize)\n      revert(0x00, returndatasize)\n    tag_60:\n      pop\n      pop\n      pop\n      pop\n      mload(0x40)\n      returndatasize\n      not(0x1f)\n      0x1f\n      dup3\n      add\n      and\n      dup3\n      add\n      dup1\n      0x40\n      mstore\n      pop\n      dup2\n      add\n      swap1\n      tag_61\n      swap2\n      swap1\n      tag_57\n      jump\t// in\n    tag_61:\n        /* \"contracts/Ddfi_lpl/01CPAMM/CPAMM.sol\":3038:3081  uint bal1 = token1.balanceOf(address(this)) */\n      swap1\n      pop\n        /* \"contracts/Ddfi_lpl/01CPAMM/CPAMM.sol\":3121:3132  totalSupply */\n      sload(0x02)\n        /* \"contracts/Ddfi_lpl/01CPAMM/CPAMM.sol\":3113:3117  bal0 */\n      dup3\n        /* \"contracts/Ddfi_lpl/01CPAMM/CPAMM.sol\":3103:3110  _shares */\n      dup7\n        /* \"contracts/Ddfi_lpl/01CPAMM/CPAMM.sol\":3103:3117  _shares * bal0 */\n      tag_62\n      swap2\n      swap1\n      tag_63\n      jump\t// in\n    tag_62:\n        /* \"contracts/Ddfi_lpl/01CPAMM/CPAMM.sol\":3102:3132  (_shares * bal0) / totalSupply */\n      tag_64\n      swap2\n      swap1\n      tag_65\n      jump\t// in\n    tag_64:\n        /* \"contracts/Ddfi_lpl/01CPAMM/CPAMM.sol\":3092:3132  amount0 = (_shares * bal0) / totalSupply */\n      swap4\n      pop\n        /* \"contracts/Ddfi_lpl/01CPAMM/CPAMM.sol\":3171:3182  totalSupply */\n      sload(0x02)\n        /* \"contracts/Ddfi_lpl/01CPAMM/CPAMM.sol\":3163:3167  bal1 */\n      dup2\n        /* \"contracts/Ddfi_lpl/01CPAMM/CPAMM.sol\":3153:3160  _shares */\n      dup7\n        /* \"contracts/Ddfi_lpl/01CPAMM/CPAMM.sol\":3153:3167  _shares * bal1 */\n      tag_66\n      swap2\n      swap1\n      tag_63\n      jump\t// in\n    tag_66:\n        /* \"contracts/Ddfi_lpl/01CPAMM/CPAMM.sol\":3152:3182  (_shares * bal1) / totalSupply */\n      tag_67\n      swap2\n      swap1\n      tag_65\n      jump\t// in\n    tag_67:\n        /* \"contracts/Ddfi_lpl/01CPAMM/CPAMM.sol\":3142:3182  amount1 = (_shares * bal1) / totalSupply */\n      swap3\n      pop\n        /* \"contracts/Ddfi_lpl/01CPAMM/CPAMM.sol\":3210:3211  0 */\n      0x00\n        /* \"contracts/Ddfi_lpl/01CPAMM/CPAMM.sol\":3200:3207  amount0 */\n      dup5\n        /* \"contracts/Ddfi_lpl/01CPAMM/CPAMM.sol\":3200:3211  amount0 > 0 */\n      gt\n        /* \"contracts/Ddfi_lpl/01CPAMM/CPAMM.sol\":3200:3226  amount0 > 0 && amount1 > 0 */\n      dup1\n      iszero\n      tag_68\n      jumpi\n      pop\n        /* \"contracts/Ddfi_lpl/01CPAMM/CPAMM.sol\":3225:3226  0 */\n      0x00\n        /* \"contracts/Ddfi_lpl/01CPAMM/CPAMM.sol\":3215:3222  amount1 */\n      dup4\n        /* \"contracts/Ddfi_lpl/01CPAMM/CPAMM.sol\":3215:3226  amount1 > 0 */\n      gt\n        /* \"contracts/Ddfi_lpl/01CPAMM/CPAMM.sol\":3200:3226  amount0 > 0 && amount1 > 0 */\n    tag_68:\n        /* \"contracts/Ddfi_lpl/01CPAMM/CPAMM.sol\":3192:3253  require(amount0 > 0 && amount1 > 0, \"amount0 or amount1 = 0\") */\n      tag_69\n      jumpi\n      mload(0x40)\n      0x08c379a000000000000000000000000000000000000000000000000000000000\n      dup2\n      mstore\n      0x04\n      add\n      tag_70\n      swap1\n      tag_71\n      jump\t// in\n    tag_70:\n      mload(0x40)\n      dup1\n      swap2\n      sub\n      swap1\n      revert\n    tag_69:\n        /* \"contracts/Ddfi_lpl/01CPAMM/CPAMM.sol\":3286:3312  _burn(msg.sender, _shares) */\n      tag_72\n        /* \"contracts/Ddfi_lpl/01CPAMM/CPAMM.sol\":3292:3302  msg.sender */\n      caller\n        /* \"contracts/Ddfi_lpl/01CPAMM/CPAMM.sol\":3304:3311  _shares */\n      dup7\n        /* \"contracts/Ddfi_lpl/01CPAMM/CPAMM.sol\":3286:3291  _burn */\n      tag_73\n        /* \"contracts/Ddfi_lpl/01CPAMM/CPAMM.sol\":3286:3312  _burn(msg.sender, _shares) */\n      jump\t// in\n    tag_72:\n        /* \"contracts/Ddfi_lpl/01CPAMM/CPAMM.sol\":3349:3423  _update(... */\n      tag_74\n        /* \"contracts/Ddfi_lpl/01CPAMM/CPAMM.sol\":3377:3384  amount0 */\n      dup5\n        /* \"contracts/Ddfi_lpl/01CPAMM/CPAMM.sol\":3370:3374  bal0 */\n      dup4\n        /* \"contracts/Ddfi_lpl/01CPAMM/CPAMM.sol\":3370:3384  bal0 - amount0 */\n      tag_75\n      swap2\n      swap1\n      tag_76\n      jump\t// in\n    tag_75:\n        /* \"contracts/Ddfi_lpl/01CPAMM/CPAMM.sol\":3406:3413  amount1 */\n      dup5\n        /* \"contracts/Ddfi_lpl/01CPAMM/CPAMM.sol\":3399:3403  bal1 */\n      dup4\n        /* \"contracts/Ddfi_lpl/01CPAMM/CPAMM.sol\":3399:3413  bal1 - amount1 */\n      tag_77\n      swap2\n      swap1\n      tag_76\n      jump\t// in\n    tag_77:\n        /* \"contracts/Ddfi_lpl/01CPAMM/CPAMM.sol\":3349:3356  _update */\n      tag_78\n        /* \"contracts/Ddfi_lpl/01CPAMM/CPAMM.sol\":3349:3423  _update(... */\n      jump\t// in\n    tag_74:\n        /* \"contracts/Ddfi_lpl/01CPAMM/CPAMM.sol\":3460:3466  token0 */\n      immutable(\"0xceebf77a833b30520287ddd9478ff51abbdffa30aa90a8d655dba0e8a79ce0c1\")\n        /* \"contracts/Ddfi_lpl/01CPAMM/CPAMM.sol\":3460:3475  token0.transfer */\n      0xffffffffffffffffffffffffffffffffffffffff\n      and\n      0xa9059cbb\n        /* \"contracts/Ddfi_lpl/01CPAMM/CPAMM.sol\":3476:3486  msg.sender */\n      caller\n        /* \"contracts/Ddfi_lpl/01CPAMM/CPAMM.sol\":3488:3495  amount0 */\n      dup7\n        /* \"contracts/Ddfi_lpl/01CPAMM/CPAMM.sol\":3460:3496  token0.transfer(msg.sender, amount0) */\n      mload(0x40)\n      dup4\n      0xffffffff\n      and\n      0xe0\n      shl\n      dup2\n      mstore\n      0x04\n      add\n      tag_79\n      swap3\n      swap2\n      swap1\n      tag_80\n      jump\t// in\n    tag_79:\n      0x20\n      mload(0x40)\n      dup1\n      dup4\n      sub\n      dup2\n      0x00\n      dup8\n      gas\n      call\n      iszero\n      dup1\n      iszero\n      tag_82\n      jumpi\n      returndatacopy(0x00, 0x00, returndatasize)\n      revert(0x00, returndatasize)\n    tag_82:\n      pop\n      pop\n      pop\n      pop\n      mload(0x40)\n      returndatasize\n      not(0x1f)\n      0x1f\n      dup3\n      add\n      and\n      dup3\n      add\n      dup1\n      0x40\n      mstore\n      pop\n      dup2\n      add\n      swap1\n      tag_83\n      swap2\n      swap1\n      tag_84\n      jump\t// in\n    tag_83:\n      pop\n        /* \"contracts/Ddfi_lpl/01CPAMM/CPAMM.sol\":3506:3512  token1 */\n      immutable(\"0xe4b1702d9298fee62dfeccc57d322a463ad55ca201256d01f62b45b2e1c21c10\")\n        /* \"contracts/Ddfi_lpl/01CPAMM/CPAMM.sol\":3506:3521  token1.transfer */\n      0xffffffffffffffffffffffffffffffffffffffff\n      and\n      0xa9059cbb\n        /* \"contracts/Ddfi_lpl/01CPAMM/CPAMM.sol\":3522:3532  msg.sender */\n      caller\n        /* \"contracts/Ddfi_lpl/01CPAMM/CPAMM.sol\":3534:3541  amount1 */\n      dup6\n        /* \"contracts/Ddfi_lpl/01CPAMM/CPAMM.sol\":3506:3542  token1.transfer(msg.sender, amount1) */\n      mload(0x40)\n      dup4\n      0xffffffff\n      and\n      0xe0\n      shl\n      dup2\n      mstore\n      0x04\n      add\n      tag_85\n      swap3\n      swap2\n      swap1\n      tag_80\n      jump\t// in\n    tag_85:\n      0x20\n      mload(0x40)\n      dup1\n      dup4\n      sub\n      dup2\n      0x00\n      dup8\n      gas\n      call\n      iszero\n      dup1\n      iszero\n      tag_87\n      jumpi\n      returndatacopy(0x00, 0x00, returndatasize)\n      revert(0x00, returndatasize)\n    tag_87:\n      pop\n      pop\n      pop\n      pop\n      mload(0x40)\n      returndatasize\n      not(0x1f)\n      0x1f\n      dup3\n      add\n      and\n      dup3\n      add\n      dup1\n      0x40\n      mstore\n      pop\n      dup2\n      add\n      swap1\n      tag_88\n      swap2\n      swap1\n      tag_84\n      jump\t// in\n    tag_88:\n      pop\n        /* \"contracts/Ddfi_lpl/01CPAMM/CPAMM.sol\":2926:3549  {... */\n      pop\n      pop\n        /* \"contracts/Ddfi_lpl/01CPAMM/CPAMM.sol\":2841:3549  function removeLiquidity(uint _shares) external returns (uint amount0, uint amount1) {... */\n      swap2\n      pop\n      swap2\n      jump\t// out\n        /* \"contracts/Ddfi_lpl/01CPAMM/CPAMM.sol\":1894:2738  function addLiquidity(uint _amount0, uint _amount1) external returns (uint shares) {... */\n    tag_41:\n        /* \"contracts/Ddfi_lpl/01CPAMM/CPAMM.sol\":1964:1975  uint shares */\n      0x00\n        /* \"contracts/Ddfi_lpl/01CPAMM/CPAMM.sol\":2006:2007  0 */\n      0x00\n        /* \"contracts/Ddfi_lpl/01CPAMM/CPAMM.sol\":1995:2003  _amount0 */\n      dup4\n        /* \"contracts/Ddfi_lpl/01CPAMM/CPAMM.sol\":1995:2007  _amount0 > 0 */\n      gt\n        /* \"contracts/Ddfi_lpl/01CPAMM/CPAMM.sol\":1995:2023  _amount0 > 0 && _amount1 > 0 */\n      dup1\n      iszero\n      tag_90\n      jumpi\n      pop\n        /* \"contracts/Ddfi_lpl/01CPAMM/CPAMM.sol\":2022:2023  0 */\n      0x00\n        /* \"contracts/Ddfi_lpl/01CPAMM/CPAMM.sol\":2011:2019  _amount1 */\n      dup3\n        /* \"contracts/Ddfi_lpl/01CPAMM/CPAMM.sol\":2011:2023  _amount1 > 0 */\n      gt\n        /* \"contracts/Ddfi_lpl/01CPAMM/CPAMM.sol\":1995:2023  _amount0 > 0 && _amount1 > 0 */\n    tag_90:\n        /* \"contracts/Ddfi_lpl/01CPAMM/CPAMM.sol\":1987:2042  require(_amount0 > 0 && _amount1 > 0, \"amount is zero\") */\n      tag_91\n      jumpi\n      mload(0x40)\n      0x08c379a000000000000000000000000000000000000000000000000000000000\n      dup2\n      mstore\n      0x04\n      add\n      tag_92\n      swap1\n      tag_93\n      jump\t// in\n    tag_92:\n      mload(0x40)\n      dup1\n      swap2\n      sub\n      swap1\n      revert\n    tag_91:\n        /* \"contracts/Ddfi_lpl/01CPAMM/CPAMM.sol\":2053:2059  token0 */\n      immutable(\"0xceebf77a833b30520287ddd9478ff51abbdffa30aa90a8d655dba0e8a79ce0c1\")\n        /* \"contracts/Ddfi_lpl/01CPAMM/CPAMM.sol\":2053:2072  token0.transferFrom */\n      0xffffffffffffffffffffffffffffffffffffffff\n      and\n      0x23b872dd\n        /* \"contracts/Ddfi_lpl/01CPAMM/CPAMM.sol\":2073:2083  msg.sender */\n      caller\n        /* \"contracts/Ddfi_lpl/01CPAMM/CPAMM.sol\":2093:2097  this */\n      address\n        /* \"contracts/Ddfi_lpl/01CPAMM/CPAMM.sol\":2100:2108  _amount0 */\n      dup7\n        /* \"contracts/Ddfi_lpl/01CPAMM/CPAMM.sol\":2053:2109  token0.transferFrom(msg.sender, address(this), _amount0) */\n      mload(0x40)\n      dup5\n      0xffffffff\n      and\n      0xe0\n      shl\n      dup2\n      mstore\n      0x04\n      add\n      tag_94\n      swap4\n      swap3\n      swap2\n      swap1\n      tag_95\n      jump\t// in\n    tag_94:\n      0x20\n      mload(0x40)\n      dup1\n      dup4\n      sub\n      dup2\n      0x00\n      dup8\n      gas\n      call\n      iszero\n      dup1\n      iszero\n      tag_97\n      jumpi\n      returndatacopy(0x00, 0x00, returndatasize)\n      revert(0x00, returndatasize)\n    tag_97:\n      pop\n      pop\n      pop\n      pop\n      mload(0x40)\n      returndatasize\n      not(0x1f)\n      0x1f\n      dup3\n      add\n      and\n      dup3\n      add\n      dup1\n      0x40\n      mstore\n      pop\n      dup2\n      add\n      swap1\n      tag_98\n      swap2\n      swap1\n      tag_84\n      jump\t// in\n    tag_98:\n      pop\n        /* \"contracts/Ddfi_lpl/01CPAMM/CPAMM.sol\":2119:2125  token1 */\n      immutable(\"0xe4b1702d9298fee62dfeccc57d322a463ad55ca201256d01f62b45b2e1c21c10\")\n        /* \"contracts/Ddfi_lpl/01CPAMM/CPAMM.sol\":2119:2138  token1.transferFrom */\n      0xffffffffffffffffffffffffffffffffffffffff\n      and\n      0x23b872dd\n        /* \"contracts/Ddfi_lpl/01CPAMM/CPAMM.sol\":2139:2149  msg.sender */\n      caller\n        /* \"contracts/Ddfi_lpl/01CPAMM/CPAMM.sol\":2159:2163  this */\n      address\n        /* \"contracts/Ddfi_lpl/01CPAMM/CPAMM.sol\":2166:2174  _amount1 */\n      dup6\n        /* \"contracts/Ddfi_lpl/01CPAMM/CPAMM.sol\":2119:2175  token1.transferFrom(msg.sender, address(this), _amount1) */\n      mload(0x40)\n      dup5\n      0xffffffff\n      and\n      0xe0\n      shl\n      dup2\n      mstore\n      0x04\n      add\n      tag_99\n      swap4\n      swap3\n      swap2\n      swap1\n      tag_95\n      jump\t// in\n    tag_99:\n      0x20\n      mload(0x40)\n      dup1\n      dup4\n      sub\n      dup2\n      0x00\n      dup8\n      gas\n      call\n      iszero\n      dup1\n      iszero\n      tag_101\n      jumpi\n      returndatacopy(0x00, 0x00, returndatasize)\n      revert(0x00, returndatasize)\n    tag_101:\n      pop\n      pop\n      pop\n      pop\n      mload(0x40)\n      returndatasize\n      not(0x1f)\n      0x1f\n      dup3\n      add\n      and\n      dup3\n      add\n      dup1\n      0x40\n      mstore\n      pop\n      dup2\n      add\n      swap1\n      tag_102\n      swap2\n      swap1\n      tag_84\n      jump\t// in\n    tag_102:\n      pop\n        /* \"contracts/Ddfi_lpl/01CPAMM/CPAMM.sol\":2201:2202  0 */\n      0x00\n        /* \"contracts/Ddfi_lpl/01CPAMM/CPAMM.sol\":2190:2198  reserve0 */\n      sload(0x00)\n        /* \"contracts/Ddfi_lpl/01CPAMM/CPAMM.sol\":2190:2202  reserve0 > 0 */\n      gt\n        /* \"contracts/Ddfi_lpl/01CPAMM/CPAMM.sol\":2190:2218  reserve0 > 0 || reserve1 > 0 */\n      dup1\n      tag_103\n      jumpi\n      pop\n        /* \"contracts/Ddfi_lpl/01CPAMM/CPAMM.sol\":2217:2218  0 */\n      0x00\n        /* \"contracts/Ddfi_lpl/01CPAMM/CPAMM.sol\":2206:2214  reserve1 */\n      sload(0x01)\n        /* \"contracts/Ddfi_lpl/01CPAMM/CPAMM.sol\":2206:2218  reserve1 > 0 */\n      gt\n        /* \"contracts/Ddfi_lpl/01CPAMM/CPAMM.sol\":2190:2218  reserve0 > 0 || reserve1 > 0 */\n    tag_103:\n        /* \"contracts/Ddfi_lpl/01CPAMM/CPAMM.sol\":2186:2312  if (reserve0 > 0 || reserve1 > 0) {... */\n      iszero\n      tag_104\n      jumpi\n        /* \"contracts/Ddfi_lpl/01CPAMM/CPAMM.sol\":2276:2284  _amount0 */\n      dup3\n        /* \"contracts/Ddfi_lpl/01CPAMM/CPAMM.sol\":2265:2273  reserve1 */\n      sload(0x01)\n        /* \"contracts/Ddfi_lpl/01CPAMM/CPAMM.sol\":2265:2284  reserve1 * _amount0 */\n      tag_105\n      swap2\n      swap1\n      tag_63\n      jump\t// in\n    tag_105:\n        /* \"contracts/Ddfi_lpl/01CPAMM/CPAMM.sol\":2253:2261  _amount1 */\n      dup3\n        /* \"contracts/Ddfi_lpl/01CPAMM/CPAMM.sol\":2242:2250  reserve0 */\n      sload(0x00)\n        /* \"contracts/Ddfi_lpl/01CPAMM/CPAMM.sol\":2242:2261  reserve0 * _amount1 */\n      tag_106\n      swap2\n      swap1\n      tag_63\n      jump\t// in\n    tag_106:\n        /* \"contracts/Ddfi_lpl/01CPAMM/CPAMM.sol\":2242:2284  reserve0 * _amount1 == reserve1 * _amount0 */\n      eq\n        /* \"contracts/Ddfi_lpl/01CPAMM/CPAMM.sol\":2234:2301  require(reserve0 * _amount1 == reserve1 * _amount0, \"dy/dx != y/x\") */\n      tag_107\n      jumpi\n      mload(0x40)\n      0x08c379a000000000000000000000000000000000000000000000000000000000\n      dup2\n      mstore\n      0x04\n      add\n      tag_108\n      swap1\n      tag_109\n      jump\t// in\n    tag_108:\n      mload(0x40)\n      dup1\n      swap2\n      sub\n      swap1\n      revert\n    tag_107:\n        /* \"contracts/Ddfi_lpl/01CPAMM/CPAMM.sol\":2186:2312  if (reserve0 > 0 || reserve1 > 0) {... */\n    tag_104:\n        /* \"contracts/Ddfi_lpl/01CPAMM/CPAMM.sol\":2341:2342  0 */\n      0x00\n        /* \"contracts/Ddfi_lpl/01CPAMM/CPAMM.sol\":2326:2337  totalSupply */\n      sload(0x02)\n        /* \"contracts/Ddfi_lpl/01CPAMM/CPAMM.sol\":2326:2342  totalSupply == 0 */\n      sub\n        /* \"contracts/Ddfi_lpl/01CPAMM/CPAMM.sol\":2322:2568  if (totalSupply == 0) {... */\n      tag_110\n      jumpi\n        /* \"contracts/Ddfi_lpl/01CPAMM/CPAMM.sol\":2367:2393  _sqrt(_amount0 * _amount1) */\n      tag_111\n        /* \"contracts/Ddfi_lpl/01CPAMM/CPAMM.sol\":2384:2392  _amount1 */\n      dup3\n        /* \"contracts/Ddfi_lpl/01CPAMM/CPAMM.sol\":2373:2381  _amount0 */\n      dup5\n        /* \"contracts/Ddfi_lpl/01CPAMM/CPAMM.sol\":2373:2392  _amount0 * _amount1 */\n      tag_112\n      swap2\n      swap1\n      tag_63\n      jump\t// in\n    tag_112:\n        /* \"contracts/Ddfi_lpl/01CPAMM/CPAMM.sol\":2367:2372  _sqrt */\n      tag_113\n        /* \"contracts/Ddfi_lpl/01CPAMM/CPAMM.sol\":2367:2393  _sqrt(_amount0 * _amount1) */\n      jump\t// in\n    tag_111:\n        /* \"contracts/Ddfi_lpl/01CPAMM/CPAMM.sol\":2358:2393  shares = _sqrt(_amount0 * _amount1) */\n      swap1\n      pop\n        /* \"contracts/Ddfi_lpl/01CPAMM/CPAMM.sol\":2322:2568  if (totalSupply == 0) {... */\n      jump(tag_114)\n    tag_110:\n        /* \"contracts/Ddfi_lpl/01CPAMM/CPAMM.sol\":2433:2557  _min(... */\n      tag_115\n        /* \"contracts/Ddfi_lpl/01CPAMM/CPAMM.sol\":2482:2490  reserve0 */\n      sload(0x00)\n        /* \"contracts/Ddfi_lpl/01CPAMM/CPAMM.sol\":2467:2478  totalSupply */\n      sload(0x02)\n        /* \"contracts/Ddfi_lpl/01CPAMM/CPAMM.sol\":2456:2464  _amount0 */\n      dup6\n        /* \"contracts/Ddfi_lpl/01CPAMM/CPAMM.sol\":2456:2478  _amount0 * totalSupply */\n      tag_116\n      swap2\n      swap1\n      tag_63\n      jump\t// in\n    tag_116:\n        /* \"contracts/Ddfi_lpl/01CPAMM/CPAMM.sol\":2455:2490  (_amount0 * totalSupply) / reserve0 */\n      tag_117\n      swap2\n      swap1\n      tag_65\n      jump\t// in\n    tag_117:\n        /* \"contracts/Ddfi_lpl/01CPAMM/CPAMM.sol\":2535:2543  reserve1 */\n      sload(0x01)\n        /* \"contracts/Ddfi_lpl/01CPAMM/CPAMM.sol\":2520:2531  totalSupply */\n      sload(0x02)\n        /* \"contracts/Ddfi_lpl/01CPAMM/CPAMM.sol\":2509:2517  _amount1 */\n      dup6\n        /* \"contracts/Ddfi_lpl/01CPAMM/CPAMM.sol\":2509:2531  _amount1 * totalSupply */\n      tag_118\n      swap2\n      swap1\n      tag_63\n      jump\t// in\n    tag_118:\n        /* \"contracts/Ddfi_lpl/01CPAMM/CPAMM.sol\":2508:2543  (_amount1 * totalSupply) / reserve1 */\n      tag_119\n      swap2\n      swap1\n      tag_65\n      jump\t// in\n    tag_119:\n        /* \"contracts/Ddfi_lpl/01CPAMM/CPAMM.sol\":2433:2437  _min */\n      tag_120\n        /* \"contracts/Ddfi_lpl/01CPAMM/CPAMM.sol\":2433:2557  _min(... */\n      jump\t// in\n    tag_115:\n        /* \"contracts/Ddfi_lpl/01CPAMM/CPAMM.sol\":2424:2557  shares = _min(... */\n      swap1\n      pop\n        /* \"contracts/Ddfi_lpl/01CPAMM/CPAMM.sol\":2322:2568  if (totalSupply == 0) {... */\n    tag_114:\n        /* \"contracts/Ddfi_lpl/01CPAMM/CPAMM.sol\":2594:2595  0 */\n      0x00\n        /* \"contracts/Ddfi_lpl/01CPAMM/CPAMM.sol\":2585:2591  shares */\n      dup2\n        /* \"contracts/Ddfi_lpl/01CPAMM/CPAMM.sol\":2585:2595  shares > 0 */\n      gt\n        /* \"contracts/Ddfi_lpl/01CPAMM/CPAMM.sol\":2577:2611  require(shares > 0, \"shares == 0\") */\n      tag_121\n      jumpi\n      mload(0x40)\n      0x08c379a000000000000000000000000000000000000000000000000000000000\n      dup2\n      mstore\n      0x04\n      add\n      tag_122\n      swap1\n      tag_123\n      jump\t// in\n    tag_122:\n      mload(0x40)\n      dup1\n      swap2\n      sub\n      swap1\n      revert\n    tag_121:\n        /* \"contracts/Ddfi_lpl/01CPAMM/CPAMM.sol\":2621:2646  _mint(msg.sender, shares) */\n      tag_124\n        /* \"contracts/Ddfi_lpl/01CPAMM/CPAMM.sol\":2627:2637  msg.sender */\n      caller\n        /* \"contracts/Ddfi_lpl/01CPAMM/CPAMM.sol\":2639:2645  shares */\n      dup3\n        /* \"contracts/Ddfi_lpl/01CPAMM/CPAMM.sol\":2621:2626  _mint */\n      tag_125\n        /* \"contracts/Ddfi_lpl/01CPAMM/CPAMM.sol\":2621:2646  _mint(msg.sender, shares) */\n      jump\t// in\n    tag_124:\n        /* \"contracts/Ddfi_lpl/01CPAMM/CPAMM.sol\":2657:2730  _update(token0.balanceOf(address(this)), token1.balanceOf(address(this))) */\n      tag_126\n        /* \"contracts/Ddfi_lpl/01CPAMM/CPAMM.sol\":2665:2671  token0 */\n      immutable(\"0xceebf77a833b30520287ddd9478ff51abbdffa30aa90a8d655dba0e8a79ce0c1\")\n        /* \"contracts/Ddfi_lpl/01CPAMM/CPAMM.sol\":2665:2681  token0.balanceOf */\n      0xffffffffffffffffffffffffffffffffffffffff\n      and\n      0x70a08231\n        /* \"contracts/Ddfi_lpl/01CPAMM/CPAMM.sol\":2690:2694  this */\n      address\n        /* \"contracts/Ddfi_lpl/01CPAMM/CPAMM.sol\":2665:2696  token0.balanceOf(address(this)) */\n      mload(0x40)\n      dup3\n      0xffffffff\n      and\n      0xe0\n      shl\n      dup2\n      mstore\n      0x04\n      add\n      tag_127\n      swap2\n      swap1\n      tag_53\n      jump\t// in\n    tag_127:\n      0x20\n      mload(0x40)\n      dup1\n      dup4\n      sub\n      dup2\n      dup7\n      gas\n      staticcall\n      iszero\n      dup1\n      iszero\n      tag_129\n      jumpi\n      returndatacopy(0x00, 0x00, returndatasize)\n      revert(0x00, returndatasize)\n    tag_129:\n      pop\n      pop\n      pop\n      pop\n      mload(0x40)\n      returndatasize\n      not(0x1f)\n      0x1f\n      dup3\n      add\n      and\n      dup3\n      add\n      dup1\n      0x40\n      mstore\n      pop\n      dup2\n      add\n      swap1\n      tag_130\n      swap2\n      swap1\n      tag_57\n      jump\t// in\n    tag_130:\n        /* \"contracts/Ddfi_lpl/01CPAMM/CPAMM.sol\":2698:2704  token1 */\n      immutable(\"0xe4b1702d9298fee62dfeccc57d322a463ad55ca201256d01f62b45b2e1c21c10\")\n        /* \"contracts/Ddfi_lpl/01CPAMM/CPAMM.sol\":2698:2714  token1.balanceOf */\n      0xffffffffffffffffffffffffffffffffffffffff\n      and\n      0x70a08231\n        /* \"contracts/Ddfi_lpl/01CPAMM/CPAMM.sol\":2723:2727  this */\n      address\n        /* \"contracts/Ddfi_lpl/01CPAMM/CPAMM.sol\":2698:2729  token1.balanceOf(address(this)) */\n      mload(0x40)\n      dup3\n      0xffffffff\n      and\n      0xe0\n      shl\n      dup2\n      mstore\n      0x04\n      add\n      tag_131\n      swap2\n      swap1\n      tag_53\n      jump\t// in\n    tag_131:\n      0x20\n      mload(0x40)\n      dup1\n      dup4\n      sub\n      dup2\n      dup7\n      gas\n      staticcall\n      iszero\n      dup1\n      iszero\n      tag_133\n      jumpi\n      returndatacopy(0x00, 0x00, returndatasize)\n      revert(0x00, returndatasize)\n    tag_133:\n      pop\n      pop\n      pop\n      pop\n      mload(0x40)\n      returndatasize\n      not(0x1f)\n      0x1f\n      dup3\n      add\n      and\n      dup3\n      add\n      dup1\n      0x40\n      mstore\n      pop\n      dup2\n      add\n      swap1\n      tag_134\n      swap2\n      swap1\n      tag_57\n      jump\t// in\n    tag_134:\n        /* \"contracts/Ddfi_lpl/01CPAMM/CPAMM.sol\":2657:2664  _update */\n      tag_78\n        /* \"contracts/Ddfi_lpl/01CPAMM/CPAMM.sol\":2657:2730  _update(token0.balanceOf(address(this)), token1.balanceOf(address(this))) */\n      jump\t// in\n    tag_126:\n        /* \"contracts/Ddfi_lpl/01CPAMM/CPAMM.sol\":1894:2738  function addLiquidity(uint _amount0, uint _amount1) external returns (uint shares) {... */\n      swap3\n      swap2\n      pop\n      pop\n      jump\t// out\n        /* \"contracts/Ddfi_lpl/01CPAMM/CPAMM.sol\":933:1841  function swap(address _tokenIn, uint _amountIn) external returns (uint amountOut) {... */\n    tag_46:\n        /* \"contracts/Ddfi_lpl/01CPAMM/CPAMM.sol\":999:1013  uint amountOut */\n      0x00\n        /* \"contracts/Ddfi_lpl/01CPAMM/CPAMM.sol\":1053:1059  token0 */\n      immutable(\"0xceebf77a833b30520287ddd9478ff51abbdffa30aa90a8d655dba0e8a79ce0c1\")\n        /* \"contracts/Ddfi_lpl/01CPAMM/CPAMM.sol\":1033:1060  _tokenIn == address(token0) */\n      0xffffffffffffffffffffffffffffffffffffffff\n      and\n        /* \"contracts/Ddfi_lpl/01CPAMM/CPAMM.sol\":1033:1041  _tokenIn */\n      dup4\n        /* \"contracts/Ddfi_lpl/01CPAMM/CPAMM.sol\":1033:1060  _tokenIn == address(token0) */\n      0xffffffffffffffffffffffffffffffffffffffff\n      and\n      eq\n        /* \"contracts/Ddfi_lpl/01CPAMM/CPAMM.sol\":1033:1091  _tokenIn == address(token0) || _tokenIn == address(token1) */\n      dup1\n      tag_136\n      jumpi\n      pop\n        /* \"contracts/Ddfi_lpl/01CPAMM/CPAMM.sol\":1084:1090  token1 */\n      immutable(\"0xe4b1702d9298fee62dfeccc57d322a463ad55ca201256d01f62b45b2e1c21c10\")\n        /* \"contracts/Ddfi_lpl/01CPAMM/CPAMM.sol\":1064:1091  _tokenIn == address(token1) */\n      0xffffffffffffffffffffffffffffffffffffffff\n      and\n        /* \"contracts/Ddfi_lpl/01CPAMM/CPAMM.sol\":1064:1072  _tokenIn */\n      dup4\n        /* \"contracts/Ddfi_lpl/01CPAMM/CPAMM.sol\":1064:1091  _tokenIn == address(token1) */\n      0xffffffffffffffffffffffffffffffffffffffff\n      and\n      eq\n        /* \"contracts/Ddfi_lpl/01CPAMM/CPAMM.sol\":1033:1091  _tokenIn == address(token0) || _tokenIn == address(token1) */\n    tag_136:\n        /* \"contracts/Ddfi_lpl/01CPAMM/CPAMM.sol\":1025:1109  require(_tokenIn == address(token0) || _tokenIn == address(token1), \"Invalid token\") */\n      tag_137\n      jumpi\n      mload(0x40)\n      0x08c379a000000000000000000000000000000000000000000000000000000000\n      dup2\n      mstore\n      0x04\n      add\n      tag_138\n      swap1\n      tag_139\n      jump\t// in\n    tag_138:\n      mload(0x40)\n      dup1\n      swap2\n      sub\n      swap1\n      revert\n    tag_137:\n        /* \"contracts/Ddfi_lpl/01CPAMM/CPAMM.sol\":1139:1140  0 */\n      0x00\n        /* \"contracts/Ddfi_lpl/01CPAMM/CPAMM.sol\":1127:1136  _amountIn */\n      dup3\n        /* \"contracts/Ddfi_lpl/01CPAMM/CPAMM.sol\":1127:1140  _amountIn > 0 */\n      gt\n        /* \"contracts/Ddfi_lpl/01CPAMM/CPAMM.sol\":1119:1162  require(_amountIn > 0, \"amount in is zero\") */\n      tag_140\n      jumpi\n      mload(0x40)\n      0x08c379a000000000000000000000000000000000000000000000000000000000\n      dup2\n      mstore\n      0x04\n      add\n      tag_141\n      swap1\n      tag_142\n      jump\t// in\n    tag_141:\n      mload(0x40)\n      dup1\n      swap2\n      sub\n      swap1\n      revert\n    tag_140:\n        /* \"contracts/Ddfi_lpl/01CPAMM/CPAMM.sol\":1203:1216  bool isToken0 */\n      0x00\n        /* \"contracts/Ddfi_lpl/01CPAMM/CPAMM.sol\":1239:1245  token0 */\n      immutable(\"0xceebf77a833b30520287ddd9478ff51abbdffa30aa90a8d655dba0e8a79ce0c1\")\n        /* \"contracts/Ddfi_lpl/01CPAMM/CPAMM.sol\":1219:1246  _tokenIn == address(token0) */\n      0xffffffffffffffffffffffffffffffffffffffff\n      and\n        /* \"contracts/Ddfi_lpl/01CPAMM/CPAMM.sol\":1219:1227  _tokenIn */\n      dup5\n        /* \"contracts/Ddfi_lpl/01CPAMM/CPAMM.sol\":1219:1246  _tokenIn == address(token0) */\n      0xffffffffffffffffffffffffffffffffffffffff\n      and\n      eq\n        /* \"contracts/Ddfi_lpl/01CPAMM/CPAMM.sol\":1203:1246  bool isToken0 = _tokenIn == address(token0) */\n      swap1\n      pop\n        /* \"contracts/Ddfi_lpl/01CPAMM/CPAMM.sol\":1270:1284  IERC20 tokenIn */\n      0x00\n        /* \"contracts/Ddfi_lpl/01CPAMM/CPAMM.sol\":1286:1301  IERC20 tokenOut */\n      0x00\n        /* \"contracts/Ddfi_lpl/01CPAMM/CPAMM.sol\":1305:1313  isToken0 */\n      dup3\n        /* \"contracts/Ddfi_lpl/01CPAMM/CPAMM.sol\":1305:1349  isToken0? (token0, token1): (token1, token0) */\n      tag_143\n      jumpi\n        /* \"contracts/Ddfi_lpl/01CPAMM/CPAMM.sol\":1334:1340  token1 */\n      immutable(\"0xe4b1702d9298fee62dfeccc57d322a463ad55ca201256d01f62b45b2e1c21c10\")\n        /* \"contracts/Ddfi_lpl/01CPAMM/CPAMM.sol\":1342:1348  token0 */\n      immutable(\"0xceebf77a833b30520287ddd9478ff51abbdffa30aa90a8d655dba0e8a79ce0c1\")\n        /* \"contracts/Ddfi_lpl/01CPAMM/CPAMM.sol\":1305:1349  isToken0? (token0, token1): (token1, token0) */\n      jump(tag_144)\n    tag_143:\n        /* \"contracts/Ddfi_lpl/01CPAMM/CPAMM.sol\":1316:1322  token0 */\n      immutable(\"0xceebf77a833b30520287ddd9478ff51abbdffa30aa90a8d655dba0e8a79ce0c1\")\n        /* \"contracts/Ddfi_lpl/01CPAMM/CPAMM.sol\":1324:1330  token1 */\n      immutable(\"0xe4b1702d9298fee62dfeccc57d322a463ad55ca201256d01f62b45b2e1c21c10\")\n        /* \"contracts/Ddfi_lpl/01CPAMM/CPAMM.sol\":1305:1349  isToken0? (token0, token1): (token1, token0) */\n    tag_144:\n        /* \"contracts/Ddfi_lpl/01CPAMM/CPAMM.sol\":1269:1349  (IERC20 tokenIn, IERC20 tokenOut) = isToken0? (token0, token1): (token1, token0) */\n      swap2\n      pop\n      swap2\n      pop\n        /* \"contracts/Ddfi_lpl/01CPAMM/CPAMM.sol\":1361:1375  uint reserveIn */\n      0x00\n        /* \"contracts/Ddfi_lpl/01CPAMM/CPAMM.sol\":1377:1392  uint reserveOut */\n      0x00\n        /* \"contracts/Ddfi_lpl/01CPAMM/CPAMM.sol\":1396:1404  isToken0 */\n      dup5\n        /* \"contracts/Ddfi_lpl/01CPAMM/CPAMM.sol\":1396:1448  isToken0? (reserve0, reserve1): (reserve1, reserve0) */\n      tag_145\n      jumpi\n        /* \"contracts/Ddfi_lpl/01CPAMM/CPAMM.sol\":1429:1437  reserve1 */\n      sload(0x01)\n        /* \"contracts/Ddfi_lpl/01CPAMM/CPAMM.sol\":1439:1447  reserve0 */\n      sload(0x00)\n        /* \"contracts/Ddfi_lpl/01CPAMM/CPAMM.sol\":1396:1448  isToken0? (reserve0, reserve1): (reserve1, reserve0) */\n      jump(tag_146)\n    tag_145:\n        /* \"contracts/Ddfi_lpl/01CPAMM/CPAMM.sol\":1407:1415  reserve0 */\n      sload(0x00)\n        /* \"contracts/Ddfi_lpl/01CPAMM/CPAMM.sol\":1417:1425  reserve1 */\n      sload(0x01)\n        /* \"contracts/Ddfi_lpl/01CPAMM/CPAMM.sol\":1396:1448  isToken0? (reserve0, reserve1): (reserve1, reserve0) */\n    tag_146:\n        /* \"contracts/Ddfi_lpl/01CPAMM/CPAMM.sol\":1360:1448  (uint reserveIn, uint reserveOut) = isToken0? (reserve0, reserve1): (reserve1, reserve0) */\n      swap2\n      pop\n      swap2\n      pop\n        /* \"contracts/Ddfi_lpl/01CPAMM/CPAMM.sol\":1459:1466  tokenIn */\n      dup4\n        /* \"contracts/Ddfi_lpl/01CPAMM/CPAMM.sol\":1459:1479  tokenIn.transferFrom */\n      0xffffffffffffffffffffffffffffffffffffffff\n      and\n      0x23b872dd\n        /* \"contracts/Ddfi_lpl/01CPAMM/CPAMM.sol\":1480:1490  msg.sender */\n      caller\n        /* \"contracts/Ddfi_lpl/01CPAMM/CPAMM.sol\":1500:1504  this */\n      address\n        /* \"contracts/Ddfi_lpl/01CPAMM/CPAMM.sol\":1507:1516  _amountIn */\n      dup11\n        /* \"contracts/Ddfi_lpl/01CPAMM/CPAMM.sol\":1459:1517  tokenIn.transferFrom(msg.sender, address(this), _amountIn) */\n      mload(0x40)\n      dup5\n      0xffffffff\n      and\n      0xe0\n      shl\n      dup2\n      mstore\n      0x04\n      add\n      tag_147\n      swap4\n      swap3\n      swap2\n      swap1\n      tag_95\n      jump\t// in\n    tag_147:\n      0x20\n      mload(0x40)\n      dup1\n      dup4\n      sub\n      dup2\n      0x00\n      dup8\n      gas\n      call\n      iszero\n      dup1\n      iszero\n      tag_149\n      jumpi\n      returndatacopy(0x00, 0x00, returndatasize)\n      revert(0x00, returndatasize)\n    tag_149:\n      pop\n      pop\n      pop\n      pop\n      mload(0x40)\n      returndatasize\n      not(0x1f)\n      0x1f\n      dup3\n      add\n      and\n      dup3\n      add\n      dup1\n      0x40\n      mstore\n      pop\n      dup2\n      add\n      swap1\n      tag_150\n      swap2\n      swap1\n      tag_84\n      jump\t// in\n    tag_150:\n      pop\n        /* \"contracts/Ddfi_lpl/01CPAMM/CPAMM.sol\":1618:1627  _amountIn */\n      dup7\n        /* \"contracts/Ddfi_lpl/01CPAMM/CPAMM.sol\":1606:1615  reserveIn */\n      dup3\n        /* \"contracts/Ddfi_lpl/01CPAMM/CPAMM.sol\":1606:1627  reserveIn + _amountIn */\n      tag_151\n      swap2\n      swap1\n      tag_152\n      jump\t// in\n    tag_151:\n        /* \"contracts/Ddfi_lpl/01CPAMM/CPAMM.sol\":1593:1602  _amountIn */\n      dup8\n        /* \"contracts/Ddfi_lpl/01CPAMM/CPAMM.sol\":1580:1590  reserveOut */\n      dup3\n        /* \"contracts/Ddfi_lpl/01CPAMM/CPAMM.sol\":1580:1602  reserveOut * _amountIn */\n      tag_153\n      swap2\n      swap1\n      tag_63\n      jump\t// in\n    tag_153:\n        /* \"contracts/Ddfi_lpl/01CPAMM/CPAMM.sol\":1579:1628  (reserveOut * _amountIn)/ (reserveIn + _amountIn) */\n      tag_154\n      swap2\n      swap1\n      tag_65\n      jump\t// in\n    tag_154:\n        /* \"contracts/Ddfi_lpl/01CPAMM/CPAMM.sol\":1567:1628  amountOut = (reserveOut * _amountIn)/ (reserveIn + _amountIn) */\n      swap6\n      pop\n        /* \"contracts/Ddfi_lpl/01CPAMM/CPAMM.sol\":1672:1680  tokenOut */\n      dup3\n        /* \"contracts/Ddfi_lpl/01CPAMM/CPAMM.sol\":1672:1689  tokenOut.transfer */\n      0xffffffffffffffffffffffffffffffffffffffff\n      and\n      0xa9059cbb\n        /* \"contracts/Ddfi_lpl/01CPAMM/CPAMM.sol\":1690:1700  msg.sender */\n      caller\n        /* \"contracts/Ddfi_lpl/01CPAMM/CPAMM.sol\":1702:1711  amountOut */\n      dup9\n        /* \"contracts/Ddfi_lpl/01CPAMM/CPAMM.sol\":1672:1712  tokenOut.transfer(msg.sender, amountOut) */\n      mload(0x40)\n      dup4\n      0xffffffff\n      and\n      0xe0\n      shl\n      dup2\n      mstore\n      0x04\n      add\n      tag_155\n      swap3\n      swap2\n      swap1\n      tag_80\n      jump\t// in\n    tag_155:\n      0x20\n      mload(0x40)\n      dup1\n      dup4\n      sub\n      dup2\n      0x00\n      dup8\n      gas\n      call\n      iszero\n      dup1\n      iszero\n      tag_157\n      jumpi\n      returndatacopy(0x00, 0x00, returndatasize)\n      revert(0x00, returndatasize)\n    tag_157:\n      pop\n      pop\n      pop\n      pop\n      mload(0x40)\n      returndatasize\n      not(0x1f)\n      0x1f\n      dup3\n      add\n      and\n      dup3\n      add\n      dup1\n      0x40\n      mstore\n      pop\n      dup2\n      add\n      swap1\n      tag_158\n      swap2\n      swap1\n      tag_84\n      jump\t// in\n    tag_158:\n      pop\n        /* \"contracts/Ddfi_lpl/01CPAMM/CPAMM.sol\":1761:1834  _update(token0.balanceOf(address(this)), token1.balanceOf(address(this))) */\n      tag_159\n        /* \"contracts/Ddfi_lpl/01CPAMM/CPAMM.sol\":1769:1775  token0 */\n      immutable(\"0xceebf77a833b30520287ddd9478ff51abbdffa30aa90a8d655dba0e8a79ce0c1\")\n        /* \"contracts/Ddfi_lpl/01CPAMM/CPAMM.sol\":1769:1785  token0.balanceOf */\n      0xffffffffffffffffffffffffffffffffffffffff\n      and\n      0x70a08231\n        /* \"contracts/Ddfi_lpl/01CPAMM/CPAMM.sol\":1794:1798  this */\n      address\n        /* \"contracts/Ddfi_lpl/01CPAMM/CPAMM.sol\":1769:1800  token0.balanceOf(address(this)) */\n      mload(0x40)\n      dup3\n      0xffffffff\n      and\n      0xe0\n      shl\n      dup2\n      mstore\n      0x04\n      add\n      tag_160\n      swap2\n      swap1\n      tag_53\n      jump\t// in\n    tag_160:\n      0x20\n      mload(0x40)\n      dup1\n      dup4\n      sub\n      dup2\n      dup7\n      gas\n      staticcall\n      iszero\n      dup1\n      iszero\n      tag_162\n      jumpi\n      returndatacopy(0x00, 0x00, returndatasize)\n      revert(0x00, returndatasize)\n    tag_162:\n      pop\n      pop\n      pop\n      pop\n      mload(0x40)\n      returndatasize\n      not(0x1f)\n      0x1f\n      dup3\n      add\n      and\n      dup3\n      add\n      dup1\n      0x40\n      mstore\n      pop\n      dup2\n      add\n      swap1\n      tag_163\n      swap2\n      swap1\n      tag_57\n      jump\t// in\n    tag_163:\n        /* \"contracts/Ddfi_lpl/01CPAMM/CPAMM.sol\":1802:1808  token1 */\n      immutable(\"0xe4b1702d9298fee62dfeccc57d322a463ad55ca201256d01f62b45b2e1c21c10\")\n        /* \"contracts/Ddfi_lpl/01CPAMM/CPAMM.sol\":1802:1818  token1.balanceOf */\n      0xffffffffffffffffffffffffffffffffffffffff\n      and\n      0x70a08231\n        /* \"contracts/Ddfi_lpl/01CPAMM/CPAMM.sol\":1827:1831  this */\n      address\n        /* \"contracts/Ddfi_lpl/01CPAMM/CPAMM.sol\":1802:1833  token1.balanceOf(address(this)) */\n      mload(0x40)\n      dup3\n      0xffffffff\n      and\n      0xe0\n      shl\n      dup2\n      mstore\n      0x04\n      add\n      tag_164\n      swap2\n      swap1\n      tag_53\n      jump\t// in\n    tag_164:\n      0x20\n      mload(0x40)\n      dup1\n      dup4\n      sub\n      dup2\n      dup7\n      gas\n      staticcall\n      iszero\n      dup1\n      iszero\n      tag_166\n      jumpi\n      returndatacopy(0x00, 0x00, returndatasize)\n      revert(0x00, returndatasize)\n    tag_166:\n      pop\n      pop\n      pop\n      pop\n      mload(0x40)\n      returndatasize\n      not(0x1f)\n      0x1f\n      dup3\n      add\n      and\n      dup3\n      add\n      dup1\n      0x40\n      mstore\n      pop\n      dup2\n      add\n      swap1\n      tag_167\n      swap2\n      swap1\n      tag_57\n      jump\t// in\n    tag_167:\n        /* \"contracts/Ddfi_lpl/01CPAMM/CPAMM.sol\":1761:1768  _update */\n      tag_78\n        /* \"contracts/Ddfi_lpl/01CPAMM/CPAMM.sol\":1761:1834  _update(token0.balanceOf(address(this)), token1.balanceOf(address(this))) */\n      jump\t// in\n    tag_159:\n        /* \"contracts/Ddfi_lpl/01CPAMM/CPAMM.sol\":1015:1841  {... */\n      pop\n      pop\n      pop\n      pop\n      pop\n        /* \"contracts/Ddfi_lpl/01CPAMM/CPAMM.sol\":933:1841  function swap(address _tokenIn, uint _amountIn) external returns (uint amountOut) {... */\n      swap3\n      swap2\n      pop\n      pop\n      jump\t// out\n        /* \"contracts/Ddfi_lpl/01CPAMM/CPAMM.sol\":139:169  IERC20 public immutable token1 */\n    tag_49:\n      immutable(\"0xe4b1702d9298fee62dfeccc57d322a463ad55ca201256d01f62b45b2e1c21c10\")\n      dup2\n      jump\t// out\n        /* \"contracts/Ddfi_lpl/01CPAMM/CPAMM.sol\":610:738  function _burn(address _from, uint _amount) private {... */\n    tag_73:\n        /* \"contracts/Ddfi_lpl/01CPAMM/CPAMM.sol\":692:699  _amount */\n      dup1\n        /* \"contracts/Ddfi_lpl/01CPAMM/CPAMM.sol\":672:681  balanceOf */\n      0x03\n        /* \"contracts/Ddfi_lpl/01CPAMM/CPAMM.sol\":672:688  balanceOf[_from] */\n      0x00\n        /* \"contracts/Ddfi_lpl/01CPAMM/CPAMM.sol\":682:687  _from */\n      dup5\n        /* \"contracts/Ddfi_lpl/01CPAMM/CPAMM.sol\":672:688  balanceOf[_from] */\n      0xffffffffffffffffffffffffffffffffffffffff\n      and\n      0xffffffffffffffffffffffffffffffffffffffff\n      and\n      dup2\n      mstore\n      0x20\n      add\n      swap1\n      dup2\n      mstore\n      0x20\n      add\n      0x00\n      keccak256\n      0x00\n        /* \"contracts/Ddfi_lpl/01CPAMM/CPAMM.sol\":672:699  balanceOf[_from] -= _amount */\n      dup3\n      dup3\n      sload\n      tag_169\n      swap2\n      swap1\n      tag_76\n      jump\t// in\n    tag_169:\n      swap3\n      pop\n      pop\n      dup2\n      swap1\n      sstore\n      pop\n        /* \"contracts/Ddfi_lpl/01CPAMM/CPAMM.sol\":724:731  _amount */\n      dup1\n        /* \"contracts/Ddfi_lpl/01CPAMM/CPAMM.sol\":709:720  totalSupply */\n      0x02\n      0x00\n        /* \"contracts/Ddfi_lpl/01CPAMM/CPAMM.sol\":709:731  totalSupply -= _amount */\n      dup3\n      dup3\n      sload\n      tag_170\n      swap2\n      swap1\n      tag_76\n      jump\t// in\n    tag_170:\n      swap3\n      pop\n      pop\n      dup2\n      swap1\n      sstore\n      pop\n        /* \"contracts/Ddfi_lpl/01CPAMM/CPAMM.sol\":610:738  function _burn(address _from, uint _amount) private {... */\n      pop\n      pop\n      jump\t// out\n        /* \"contracts/Ddfi_lpl/01CPAMM/CPAMM.sol\":744:868  function _update(uint _reserve0, uint _reserve1) private {... */\n    tag_78:\n        /* \"contracts/Ddfi_lpl/01CPAMM/CPAMM.sol\":822:831  _reserve0 */\n      dup2\n        /* \"contracts/Ddfi_lpl/01CPAMM/CPAMM.sol\":811:819  reserve0 */\n      0x00\n        /* \"contracts/Ddfi_lpl/01CPAMM/CPAMM.sol\":811:831  reserve0 = _reserve0 */\n      dup2\n      swap1\n      sstore\n      pop\n        /* \"contracts/Ddfi_lpl/01CPAMM/CPAMM.sol\":852:861  _reserve1 */\n      dup1\n        /* \"contracts/Ddfi_lpl/01CPAMM/CPAMM.sol\":841:849  reserve1 */\n      0x01\n        /* \"contracts/Ddfi_lpl/01CPAMM/CPAMM.sol\":841:861  reserve1 = _reserve1 */\n      dup2\n      swap1\n      sstore\n      pop\n        /* \"contracts/Ddfi_lpl/01CPAMM/CPAMM.sol\":744:868  function _update(uint _reserve0, uint _reserve1) private {... */\n      pop\n      pop\n      jump\t// out\n        /* \"contracts/Ddfi_lpl/01CPAMM/CPAMM.sol\":3555:3848  function _sqrt(uint y) internal pure returns (uint z) {... */\n    tag_113:\n        /* \"contracts/Ddfi_lpl/01CPAMM/CPAMM.sol\":3601:3607  uint z */\n      0x00\n        /* \"contracts/Ddfi_lpl/01CPAMM/CPAMM.sol\":3627:3628  3 */\n      0x03\n        /* \"contracts/Ddfi_lpl/01CPAMM/CPAMM.sol\":3623:3624  y */\n      dup3\n        /* \"contracts/Ddfi_lpl/01CPAMM/CPAMM.sol\":3623:3628  y > 3 */\n      gt\n        /* \"contracts/Ddfi_lpl/01CPAMM/CPAMM.sol\":3619:3842  if (y > 3) {... */\n      iszero\n      tag_173\n      jumpi\n        /* \"contracts/Ddfi_lpl/01CPAMM/CPAMM.sol\":3648:3649  y */\n      dup2\n        /* \"contracts/Ddfi_lpl/01CPAMM/CPAMM.sol\":3644:3649  z = y */\n      swap1\n      pop\n        /* \"contracts/Ddfi_lpl/01CPAMM/CPAMM.sol\":3663:3669  uint x */\n      0x00\n        /* \"contracts/Ddfi_lpl/01CPAMM/CPAMM.sol\":3680:3681  1 */\n      0x01\n        /* \"contracts/Ddfi_lpl/01CPAMM/CPAMM.sol\":3676:3677  2 */\n      0x02\n        /* \"contracts/Ddfi_lpl/01CPAMM/CPAMM.sol\":3672:3673  y */\n      dup5\n        /* \"contracts/Ddfi_lpl/01CPAMM/CPAMM.sol\":3672:3677  y / 2 */\n      tag_174\n      swap2\n      swap1\n      tag_65\n      jump\t// in\n    tag_174:\n        /* \"contracts/Ddfi_lpl/01CPAMM/CPAMM.sol\":3672:3681  y / 2 + 1 */\n      tag_175\n      swap2\n      swap1\n      tag_152\n      jump\t// in\n    tag_175:\n        /* \"contracts/Ddfi_lpl/01CPAMM/CPAMM.sol\":3663:3681  uint x = y / 2 + 1 */\n      swap1\n      pop\n        /* \"contracts/Ddfi_lpl/01CPAMM/CPAMM.sol\":3695:3784  while (x < z) {... */\n    tag_176:\n        /* \"contracts/Ddfi_lpl/01CPAMM/CPAMM.sol\":3706:3707  z */\n      dup2\n        /* \"contracts/Ddfi_lpl/01CPAMM/CPAMM.sol\":3702:3703  x */\n      dup2\n        /* \"contracts/Ddfi_lpl/01CPAMM/CPAMM.sol\":3702:3707  x < z */\n      lt\n        /* \"contracts/Ddfi_lpl/01CPAMM/CPAMM.sol\":3695:3784  while (x < z) {... */\n      iszero\n      tag_177\n      jumpi\n        /* \"contracts/Ddfi_lpl/01CPAMM/CPAMM.sol\":3731:3732  x */\n      dup1\n        /* \"contracts/Ddfi_lpl/01CPAMM/CPAMM.sol\":3727:3732  z = x */\n      swap2\n      pop\n        /* \"contracts/Ddfi_lpl/01CPAMM/CPAMM.sol\":3768:3769  2 */\n      0x02\n        /* \"contracts/Ddfi_lpl/01CPAMM/CPAMM.sol\":3763:3764  x */\n      dup2\n        /* \"contracts/Ddfi_lpl/01CPAMM/CPAMM.sol\":3759:3760  x */\n      dup3\n        /* \"contracts/Ddfi_lpl/01CPAMM/CPAMM.sol\":3755:3756  y */\n      dup6\n        /* \"contracts/Ddfi_lpl/01CPAMM/CPAMM.sol\":3755:3760  y / x */\n      tag_178\n      swap2\n      swap1\n      tag_65\n      jump\t// in\n    tag_178:\n        /* \"contracts/Ddfi_lpl/01CPAMM/CPAMM.sol\":3755:3764  y / x + x */\n      tag_179\n      swap2\n      swap1\n      tag_152\n      jump\t// in\n    tag_179:\n        /* \"contracts/Ddfi_lpl/01CPAMM/CPAMM.sol\":3754:3769  (y / x + x) / 2 */\n      tag_180\n      swap2\n      swap1\n      tag_65\n      jump\t// in\n    tag_180:\n        /* \"contracts/Ddfi_lpl/01CPAMM/CPAMM.sol\":3750:3769  x = (y / x + x) / 2 */\n      swap1\n      pop\n        /* \"contracts/Ddfi_lpl/01CPAMM/CPAMM.sol\":3695:3784  while (x < z) {... */\n      jump(tag_176)\n    tag_177:\n        /* \"contracts/Ddfi_lpl/01CPAMM/CPAMM.sol\":3630:3794  {... */\n      pop\n        /* \"contracts/Ddfi_lpl/01CPAMM/CPAMM.sol\":3619:3842  if (y > 3) {... */\n      jump(tag_181)\n    tag_173:\n        /* \"contracts/Ddfi_lpl/01CPAMM/CPAMM.sol\":3809:3810  0 */\n      0x00\n        /* \"contracts/Ddfi_lpl/01CPAMM/CPAMM.sol\":3804:3805  y */\n      dup3\n        /* \"contracts/Ddfi_lpl/01CPAMM/CPAMM.sol\":3804:3810  y != 0 */\n      eq\n        /* \"contracts/Ddfi_lpl/01CPAMM/CPAMM.sol\":3800:3842  if (y != 0) {... */\n      tag_182\n      jumpi\n        /* \"contracts/Ddfi_lpl/01CPAMM/CPAMM.sol\":3830:3831  1 */\n      0x01\n        /* \"contracts/Ddfi_lpl/01CPAMM/CPAMM.sol\":3826:3831  z = 1 */\n      swap1\n      pop\n        /* \"contracts/Ddfi_lpl/01CPAMM/CPAMM.sol\":3800:3842  if (y != 0) {... */\n    tag_182:\n        /* \"contracts/Ddfi_lpl/01CPAMM/CPAMM.sol\":3619:3842  if (y > 3) {... */\n    tag_181:\n        /* \"contracts/Ddfi_lpl/01CPAMM/CPAMM.sol\":3555:3848  function _sqrt(uint y) internal pure returns (uint z) {... */\n      swap2\n      swap1\n      pop\n      jump\t// out\n        /* \"contracts/Ddfi_lpl/01CPAMM/CPAMM.sol\":3854:3948  function _min(uint x, uint y) private pure returns (uint) {... */\n    tag_120:\n        /* \"contracts/Ddfi_lpl/01CPAMM/CPAMM.sol\":3906:3910  uint */\n      0x00\n        /* \"contracts/Ddfi_lpl/01CPAMM/CPAMM.sol\":3934:3935  y */\n      dup2\n        /* \"contracts/Ddfi_lpl/01CPAMM/CPAMM.sol\":3929:3930  x */\n      dup4\n        /* \"contracts/Ddfi_lpl/01CPAMM/CPAMM.sol\":3929:3935  x <= y */\n      gt\n      iszero\n        /* \"contracts/Ddfi_lpl/01CPAMM/CPAMM.sol\":3929:3941  x <= y? x: y */\n      tag_184\n      jumpi\n        /* \"contracts/Ddfi_lpl/01CPAMM/CPAMM.sol\":3940:3941  y */\n      dup2\n        /* \"contracts/Ddfi_lpl/01CPAMM/CPAMM.sol\":3929:3941  x <= y? x: y */\n      jump(tag_185)\n    tag_184:\n        /* \"contracts/Ddfi_lpl/01CPAMM/CPAMM.sol\":3937:3938  x */\n      dup3\n        /* \"contracts/Ddfi_lpl/01CPAMM/CPAMM.sol\":3929:3941  x <= y? x: y */\n    tag_185:\n        /* \"contracts/Ddfi_lpl/01CPAMM/CPAMM.sol\":3922:3941  return x <= y? x: y */\n      swap1\n      pop\n        /* \"contracts/Ddfi_lpl/01CPAMM/CPAMM.sol\":3854:3948  function _min(uint x, uint y) private pure returns (uint) {... */\n      swap3\n      swap2\n      pop\n      pop\n      jump\t// out\n        /* \"contracts/Ddfi_lpl/01CPAMM/CPAMM.sol\":480:604  function _mint(address _to, uint _amount) private {... */\n    tag_125:\n        /* \"contracts/Ddfi_lpl/01CPAMM/CPAMM.sol\":558:565  _amount */\n      dup1\n        /* \"contracts/Ddfi_lpl/01CPAMM/CPAMM.sol\":540:549  balanceOf */\n      0x03\n        /* \"contracts/Ddfi_lpl/01CPAMM/CPAMM.sol\":540:554  balanceOf[_to] */\n      0x00\n        /* \"contracts/Ddfi_lpl/01CPAMM/CPAMM.sol\":550:553  _to */\n      dup5\n        /* \"contracts/Ddfi_lpl/01CPAMM/CPAMM.sol\":540:554  balanceOf[_to] */\n      0xffffffffffffffffffffffffffffffffffffffff\n      and\n      0xffffffffffffffffffffffffffffffffffffffff\n      and\n      dup2\n      mstore\n      0x20\n      add\n      swap1\n      dup2\n      mstore\n      0x20\n      add\n      0x00\n      keccak256\n      0x00\n        /* \"contracts/Ddfi_lpl/01CPAMM/CPAMM.sol\":540:565  balanceOf[_to] += _amount */\n      dup3\n      dup3\n      sload\n      tag_187\n      swap2\n      swap1\n      tag_152\n      jump\t// in\n    tag_187:\n      swap3\n      pop\n      pop\n      dup2\n      swap1\n      sstore\n      pop\n        /* \"contracts/Ddfi_lpl/01CPAMM/CPAMM.sol\":590:597  _amount */\n      dup1\n        /* \"contracts/Ddfi_lpl/01CPAMM/CPAMM.sol\":575:586  totalSupply */\n      0x02\n      0x00\n        /* \"contracts/Ddfi_lpl/01CPAMM/CPAMM.sol\":575:597  totalSupply += _amount */\n      dup3\n      dup3\n      sload\n      tag_188\n      swap2\n      swap1\n      tag_152\n      jump\t// in\n    tag_188:\n      swap3\n      pop\n      pop\n      dup2\n      swap1\n      sstore\n      pop\n        /* \"contracts/Ddfi_lpl/01CPAMM/CPAMM.sol\":480:604  function _mint(address _to, uint _amount) private {... */\n      pop\n      pop\n      jump\t// out\n        /* \"#utility.yul\":7:133   */\n    tag_189:\n        /* \"#utility.yul\":44:51   */\n      0x00\n        /* \"#utility.yul\":84:126   */\n      0xffffffffffffffffffffffffffffffffffffffff\n        /* \"#utility.yul\":77:82   */\n      dup3\n        /* \"#utility.yul\":73:127   */\n      and\n        /* \"#utility.yul\":62:127   */\n      swap1\n      pop\n        /* \"#utility.yul\":7:133   */\n      swap2\n      swap1\n      pop\n      jump\t// out\n        /* \"#utility.yul\":139:199   */\n    tag_190:\n        /* \"#utility.yul\":167:170   */\n      0x00\n        /* \"#utility.yul\":188:193   */\n      dup2\n        /* \"#utility.yul\":181:193   */\n      swap1\n      pop\n        /* \"#utility.yul\":139:199   */\n      swap2\n      swap1\n      pop\n      jump\t// out\n        /* \"#utility.yul\":205:347   */\n    tag_191:\n        /* \"#utility.yul\":255:264   */\n      0x00\n        /* \"#utility.yul\":288:341   */\n      tag_229\n        /* \"#utility.yul\":306:340   */\n      tag_230\n        /* \"#utility.yul\":315:339   */\n      tag_231\n        /* \"#utility.yul\":333:338   */\n      dup5\n        /* \"#utility.yul\":315:339   */\n      tag_189\n      jump\t// in\n    tag_231:\n        /* \"#utility.yul\":306:340   */\n      tag_190\n      jump\t// in\n    tag_230:\n        /* \"#utility.yul\":288:341   */\n      tag_189\n      jump\t// in\n    tag_229:\n        /* \"#utility.yul\":275:341   */\n      swap1\n      pop\n        /* \"#utility.yul\":205:347   */\n      swap2\n      swap1\n      pop\n      jump\t// out\n        /* \"#utility.yul\":353:479   */\n    tag_192:\n        /* \"#utility.yul\":403:412   */\n      0x00\n        /* \"#utility.yul\":436:473   */\n      tag_233\n        /* \"#utility.yul\":467:472   */\n      dup3\n        /* \"#utility.yul\":436:473   */\n      tag_191\n      jump\t// in\n    tag_233:\n        /* \"#utility.yul\":423:473   */\n      swap1\n      pop\n        /* \"#utility.yul\":353:479   */\n      swap2\n      swap1\n      pop\n      jump\t// out\n        /* \"#utility.yul\":485:625   */\n    tag_193:\n        /* \"#utility.yul\":549:558   */\n      0x00\n        /* \"#utility.yul\":582:619   */\n      tag_235\n        /* \"#utility.yul\":613:618   */\n      dup3\n        /* \"#utility.yul\":582:619   */\n      tag_192\n      jump\t// in\n    tag_235:\n        /* \"#utility.yul\":569:619   */\n      swap1\n      pop\n        /* \"#utility.yul\":485:625   */\n      swap2\n      swap1\n      pop\n      jump\t// out\n        /* \"#utility.yul\":631:790   */\n    tag_194:\n        /* \"#utility.yul\":732:783   */\n      tag_237\n        /* \"#utility.yul\":777:782   */\n      dup2\n        /* \"#utility.yul\":732:783   */\n      tag_193\n      jump\t// in\n    tag_237:\n        /* \"#utility.yul\":727:730   */\n      dup3\n        /* \"#utility.yul\":720:784   */\n      mstore\n        /* \"#utility.yul\":631:790   */\n      pop\n      pop\n      jump\t// out\n        /* \"#utility.yul\":796:1046   */\n    tag_16:\n        /* \"#utility.yul\":903:907   */\n      0x00\n        /* \"#utility.yul\":941:943   */\n      0x20\n        /* \"#utility.yul\":930:939   */\n      dup3\n        /* \"#utility.yul\":926:944   */\n      add\n        /* \"#utility.yul\":918:944   */\n      swap1\n      pop\n        /* \"#utility.yul\":954:1039   */\n      tag_239\n        /* \"#utility.yul\":1036:1037   */\n      0x00\n        /* \"#utility.yul\":1025:1034   */\n      dup4\n        /* \"#utility.yul\":1021:1038   */\n      add\n        /* \"#utility.yul\":1012:1018   */\n      dup5\n        /* \"#utility.yul\":954:1039   */\n      tag_194\n      jump\t// in\n    tag_239:\n        /* \"#utility.yul\":796:1046   */\n      swap3\n      swap2\n      pop\n      pop\n      jump\t// out\n        /* \"#utility.yul\":1052:1129   */\n    tag_195:\n        /* \"#utility.yul\":1089:1096   */\n      0x00\n        /* \"#utility.yul\":1118:1123   */\n      dup2\n        /* \"#utility.yul\":1107:1123   */\n      swap1\n      pop\n        /* \"#utility.yul\":1052:1129   */\n      swap2\n      swap1\n      pop\n      jump\t// out\n        /* \"#utility.yul\":1135:1253   */\n    tag_196:\n        /* \"#utility.yul\":1222:1246   */\n      tag_242\n        /* \"#utility.yul\":1240:1245   */\n      dup2\n        /* \"#utility.yul\":1222:1246   */\n      tag_195\n      jump\t// in\n    tag_242:\n        /* \"#utility.yul\":1217:1220   */\n      dup3\n        /* \"#utility.yul\":1210:1247   */\n      mstore\n        /* \"#utility.yul\":1135:1253   */\n      pop\n      pop\n      jump\t// out\n        /* \"#utility.yul\":1259:1481   */\n    tag_20:\n        /* \"#utility.yul\":1352:1356   */\n      0x00\n        /* \"#utility.yul\":1390:1392   */\n      0x20\n        /* \"#utility.yul\":1379:1388   */\n      dup3\n        /* \"#utility.yul\":1375:1393   */\n      add\n        /* \"#utility.yul\":1367:1393   */\n      swap1\n      pop\n        /* \"#utility.yul\":1403:1474   */\n      tag_244\n        /* \"#utility.yul\":1471:1472   */\n      0x00\n        /* \"#utility.yul\":1460:1469   */\n      dup4\n        /* \"#utility.yul\":1456:1473   */\n      add\n        /* \"#utility.yul\":1447:1453   */\n      dup5\n        /* \"#utility.yul\":1403:1474   */\n      tag_196\n      jump\t// in\n    tag_244:\n        /* \"#utility.yul\":1259:1481   */\n      swap3\n      swap2\n      pop\n      pop\n      jump\t// out\n        /* \"#utility.yul\":1568:1685   */\n    tag_198:\n        /* \"#utility.yul\":1677:1678   */\n      0x00\n        /* \"#utility.yul\":1674:1675   */\n      0x00\n        /* \"#utility.yul\":1667:1679   */\n      revert\n        /* \"#utility.yul\":1814:1910   */\n    tag_200:\n        /* \"#utility.yul\":1851:1858   */\n      0x00\n        /* \"#utility.yul\":1880:1904   */\n      tag_249\n        /* \"#utility.yul\":1898:1903   */\n      dup3\n        /* \"#utility.yul\":1880:1904   */\n      tag_189\n      jump\t// in\n    tag_249:\n        /* \"#utility.yul\":1869:1904   */\n      swap1\n      pop\n        /* \"#utility.yul\":1814:1910   */\n      swap2\n      swap1\n      pop\n      jump\t// out\n        /* \"#utility.yul\":1916:2038   */\n    tag_201:\n        /* \"#utility.yul\":1989:2013   */\n      tag_251\n        /* \"#utility.yul\":2007:2012   */\n      dup2\n        /* \"#utility.yul\":1989:2013   */\n      tag_200\n      jump\t// in\n    tag_251:\n        /* \"#utility.yul\":1982:1987   */\n      dup2\n        /* \"#utility.yul\":1979:2014   */\n      eq\n        /* \"#utility.yul\":1969:2032   */\n      tag_252\n      jumpi\n        /* \"#utility.yul\":2028:2029   */\n      0x00\n        /* \"#utility.yul\":2025:2026   */\n      0x00\n        /* \"#utility.yul\":2018:2030   */\n      revert\n        /* \"#utility.yul\":1969:2032   */\n    tag_252:\n        /* \"#utility.yul\":1916:2038   */\n      pop\n      jump\t// out\n        /* \"#utility.yul\":2044:2183   */\n    tag_202:\n        /* \"#utility.yul\":2090:2095   */\n      0x00\n        /* \"#utility.yul\":2128:2134   */\n      dup2\n        /* \"#utility.yul\":2115:2135   */\n      calldataload\n        /* \"#utility.yul\":2106:2135   */\n      swap1\n      pop\n        /* \"#utility.yul\":2144:2177   */\n      tag_254\n        /* \"#utility.yul\":2171:2176   */\n      dup2\n        /* \"#utility.yul\":2144:2177   */\n      tag_201\n      jump\t// in\n    tag_254:\n        /* \"#utility.yul\":2044:2183   */\n      swap3\n      swap2\n      pop\n      pop\n      jump\t// out\n        /* \"#utility.yul\":2189:2518   */\n    tag_29:\n        /* \"#utility.yul\":2248:2254   */\n      0x00\n        /* \"#utility.yul\":2297:2299   */\n      0x20\n        /* \"#utility.yul\":2285:2294   */\n      dup3\n        /* \"#utility.yul\":2276:2283   */\n      dup5\n        /* \"#utility.yul\":2272:2295   */\n      sub\n        /* \"#utility.yul\":2268:2300   */\n      slt\n        /* \"#utility.yul\":2265:2384   */\n      iszero\n      tag_256\n      jumpi\n        /* \"#utility.yul\":2303:2382   */\n      tag_257\n      tag_198\n      jump\t// in\n    tag_257:\n        /* \"#utility.yul\":2265:2384   */\n    tag_256:\n        /* \"#utility.yul\":2423:2424   */\n      0x00\n        /* \"#utility.yul\":2448:2501   */\n      tag_258\n        /* \"#utility.yul\":2493:2500   */\n      dup5\n        /* \"#utility.yul\":2484:2490   */\n      dup3\n        /* \"#utility.yul\":2473:2482   */\n      dup6\n        /* \"#utility.yul\":2469:2491   */\n      add\n        /* \"#utility.yul\":2448:2501   */\n      tag_202\n      jump\t// in\n    tag_258:\n        /* \"#utility.yul\":2438:2501   */\n      swap2\n      pop\n        /* \"#utility.yul\":2394:2511   */\n      pop\n        /* \"#utility.yul\":2189:2518   */\n      swap3\n      swap2\n      pop\n      pop\n      jump\t// out\n        /* \"#utility.yul\":2524:2646   */\n    tag_203:\n        /* \"#utility.yul\":2597:2621   */\n      tag_260\n        /* \"#utility.yul\":2615:2620   */\n      dup2\n        /* \"#utility.yul\":2597:2621   */\n      tag_195\n      jump\t// in\n    tag_260:\n        /* \"#utility.yul\":2590:2595   */\n      dup2\n        /* \"#utility.yul\":2587:2622   */\n      eq\n        /* \"#utility.yul\":2577:2640   */\n      tag_261\n      jumpi\n        /* \"#utility.yul\":2636:2637   */\n      0x00\n        /* \"#utility.yul\":2633:2634   */\n      0x00\n        /* \"#utility.yul\":2626:2638   */\n      revert\n        /* \"#utility.yul\":2577:2640   */\n    tag_261:\n        /* \"#utility.yul\":2524:2646   */\n      pop\n      jump\t// out\n        /* \"#utility.yul\":2652:2791   */\n    tag_204:\n        /* \"#utility.yul\":2698:2703   */\n      0x00\n        /* \"#utility.yul\":2736:2742   */\n      dup2\n        /* \"#utility.yul\":2723:2743   */\n      calldataload\n        /* \"#utility.yul\":2714:2743   */\n      swap1\n      pop\n        /* \"#utility.yul\":2752:2785   */\n      tag_263\n        /* \"#utility.yul\":2779:2784   */\n      dup2\n        /* \"#utility.yul\":2752:2785   */\n      tag_203\n      jump\t// in\n    tag_263:\n        /* \"#utility.yul\":2652:2791   */\n      swap3\n      swap2\n      pop\n      pop\n      jump\t// out\n        /* \"#utility.yul\":2797:3126   */\n    tag_34:\n        /* \"#utility.yul\":2856:2862   */\n      0x00\n        /* \"#utility.yul\":2905:2907   */\n      0x20\n        /* \"#utility.yul\":2893:2902   */\n      dup3\n        /* \"#utility.yul\":2884:2891   */\n      dup5\n        /* \"#utility.yul\":2880:2903   */\n      sub\n        /* \"#utility.yul\":2876:2908   */\n      slt\n        /* \"#utility.yul\":2873:2992   */\n      iszero\n      tag_265\n      jumpi\n        /* \"#utility.yul\":2911:2990   */\n      tag_266\n      tag_198\n      jump\t// in\n    tag_266:\n        /* \"#utility.yul\":2873:2992   */\n    tag_265:\n        /* \"#utility.yul\":3031:3032   */\n      0x00\n        /* \"#utility.yul\":3056:3109   */\n      tag_267\n        /* \"#utility.yul\":3101:3108   */\n      dup5\n        /* \"#utility.yul\":3092:3098   */\n      dup3\n        /* \"#utility.yul\":3081:3090   */\n      dup6\n        /* \"#utility.yul\":3077:3099   */\n      add\n        /* \"#utility.yul\":3056:3109   */\n      tag_204\n      jump\t// in\n    tag_267:\n        /* \"#utility.yul\":3046:3109   */\n      swap2\n      pop\n        /* \"#utility.yul\":3002:3119   */\n      pop\n        /* \"#utility.yul\":2797:3126   */\n      swap3\n      swap2\n      pop\n      pop\n      jump\t// out\n        /* \"#utility.yul\":3132:3464   */\n    tag_37:\n        /* \"#utility.yul\":3253:3257   */\n      0x00\n        /* \"#utility.yul\":3291:3293   */\n      0x40\n        /* \"#utility.yul\":3280:3289   */\n      dup3\n        /* \"#utility.yul\":3276:3294   */\n      add\n        /* \"#utility.yul\":3268:3294   */\n      swap1\n      pop\n        /* \"#utility.yul\":3304:3375   */\n      tag_269\n        /* \"#utility.yul\":3372:3373   */\n      0x00\n        /* \"#utility.yul\":3361:3370   */\n      dup4\n        /* \"#utility.yul\":3357:3374   */\n      add\n        /* \"#utility.yul\":3348:3354   */\n      dup6\n        /* \"#utility.yul\":3304:3375   */\n      tag_196\n      jump\t// in\n    tag_269:\n        /* \"#utility.yul\":3385:3457   */\n      tag_270\n        /* \"#utility.yul\":3453:3455   */\n      0x20\n        /* \"#utility.yul\":3442:3451   */\n      dup4\n        /* \"#utility.yul\":3438:3456   */\n      add\n        /* \"#utility.yul\":3429:3435   */\n      dup5\n        /* \"#utility.yul\":3385:3457   */\n      tag_196\n      jump\t// in\n    tag_270:\n        /* \"#utility.yul\":3132:3464   */\n      swap4\n      swap3\n      pop\n      pop\n      pop\n      jump\t// out\n        /* \"#utility.yul\":3470:3944   */\n    tag_40:\n        /* \"#utility.yul\":3538:3544   */\n      0x00\n        /* \"#utility.yul\":3546:3552   */\n      0x00\n        /* \"#utility.yul\":3595:3597   */\n      0x40\n        /* \"#utility.yul\":3583:3592   */\n      dup4\n        /* \"#utility.yul\":3574:3581   */\n      dup6\n        /* \"#utility.yul\":3570:3593   */\n      sub\n        /* \"#utility.yul\":3566:3598   */\n      slt\n        /* \"#utility.yul\":3563:3682   */\n      iszero\n      tag_272\n      jumpi\n        /* \"#utility.yul\":3601:3680   */\n      tag_273\n      tag_198\n      jump\t// in\n    tag_273:\n        /* \"#utility.yul\":3563:3682   */\n    tag_272:\n        /* \"#utility.yul\":3721:3722   */\n      0x00\n        /* \"#utility.yul\":3746:3799   */\n      tag_274\n        /* \"#utility.yul\":3791:3798   */\n      dup6\n        /* \"#utility.yul\":3782:3788   */\n      dup3\n        /* \"#utility.yul\":3771:3780   */\n      dup7\n        /* \"#utility.yul\":3767:3789   */\n      add\n        /* \"#utility.yul\":3746:3799   */\n      tag_204\n      jump\t// in\n    tag_274:\n        /* \"#utility.yul\":3736:3799   */\n      swap3\n      pop\n        /* \"#utility.yul\":3692:3809   */\n      pop\n        /* \"#utility.yul\":3848:3850   */\n      0x20\n        /* \"#utility.yul\":3874:3927   */\n      tag_275\n        /* \"#utility.yul\":3919:3926   */\n      dup6\n        /* \"#utility.yul\":3910:3916   */\n      dup3\n        /* \"#utility.yul\":3899:3908   */\n      dup7\n        /* \"#utility.yul\":3895:3917   */\n      add\n        /* \"#utility.yul\":3874:3927   */\n      tag_204\n      jump\t// in\n    tag_275:\n        /* \"#utility.yul\":3864:3927   */\n      swap2\n      pop\n        /* \"#utility.yul\":3819:3937   */\n      pop\n        /* \"#utility.yul\":3470:3944   */\n      swap3\n      pop\n      swap3\n      swap1\n      pop\n      jump\t// out\n        /* \"#utility.yul\":3950:4424   */\n    tag_45:\n        /* \"#utility.yul\":4018:4024   */\n      0x00\n        /* \"#utility.yul\":4026:4032   */\n      0x00\n        /* \"#utility.yul\":4075:4077   */\n      0x40\n        /* \"#utility.yul\":4063:4072   */\n      dup4\n        /* \"#utility.yul\":4054:4061   */\n      dup6\n        /* \"#utility.yul\":4050:4073   */\n      sub\n        /* \"#utility.yul\":4046:4078   */\n      slt\n        /* \"#utility.yul\":4043:4162   */\n      iszero\n      tag_277\n      jumpi\n        /* \"#utility.yul\":4081:4160   */\n      tag_278\n      tag_198\n      jump\t// in\n    tag_278:\n        /* \"#utility.yul\":4043:4162   */\n    tag_277:\n        /* \"#utility.yul\":4201:4202   */\n      0x00\n        /* \"#utility.yul\":4226:4279   */\n      tag_279\n        /* \"#utility.yul\":4271:4278   */\n      dup6\n        /* \"#utility.yul\":4262:4268   */\n      dup3\n        /* \"#utility.yul\":4251:4260   */\n      dup7\n        /* \"#utility.yul\":4247:4269   */\n      add\n        /* \"#utility.yul\":4226:4279   */\n      tag_202\n      jump\t// in\n    tag_279:\n        /* \"#utility.yul\":4216:4279   */\n      swap3\n      pop\n        /* \"#utility.yul\":4172:4289   */\n      pop\n        /* \"#utility.yul\":4328:4330   */\n      0x20\n        /* \"#utility.yul\":4354:4407   */\n      tag_280\n        /* \"#utility.yul\":4399:4406   */\n      dup6\n        /* \"#utility.yul\":4390:4396   */\n      dup3\n        /* \"#utility.yul\":4379:4388   */\n      dup7\n        /* \"#utility.yul\":4375:4397   */\n      add\n        /* \"#utility.yul\":4354:4407   */\n      tag_204\n      jump\t// in\n    tag_280:\n        /* \"#utility.yul\":4344:4407   */\n      swap2\n      pop\n        /* \"#utility.yul\":4299:4417   */\n      pop\n        /* \"#utility.yul\":3950:4424   */\n      swap3\n      pop\n      swap3\n      swap1\n      pop\n      jump\t// out\n        /* \"#utility.yul\":4430:4548   */\n    tag_205:\n        /* \"#utility.yul\":4517:4541   */\n      tag_282\n        /* \"#utility.yul\":4535:4540   */\n      dup2\n        /* \"#utility.yul\":4517:4541   */\n      tag_200\n      jump\t// in\n    tag_282:\n        /* \"#utility.yul\":4512:4515   */\n      dup3\n        /* \"#utility.yul\":4505:4542   */\n      mstore\n        /* \"#utility.yul\":4430:4548   */\n      pop\n      pop\n      jump\t// out\n        /* \"#utility.yul\":4554:4776   */\n    tag_53:\n        /* \"#utility.yul\":4647:4651   */\n      0x00\n        /* \"#utility.yul\":4685:4687   */\n      0x20\n        /* \"#utility.yul\":4674:4683   */\n      dup3\n        /* \"#utility.yul\":4670:4688   */\n      add\n        /* \"#utility.yul\":4662:4688   */\n      swap1\n      pop\n        /* \"#utility.yul\":4698:4769   */\n      tag_284\n        /* \"#utility.yul\":4766:4767   */\n      0x00\n        /* \"#utility.yul\":4755:4764   */\n      dup4\n        /* \"#utility.yul\":4751:4768   */\n      add\n        /* \"#utility.yul\":4742:4748   */\n      dup5\n        /* \"#utility.yul\":4698:4769   */\n      tag_205\n      jump\t// in\n    tag_284:\n        /* \"#utility.yul\":4554:4776   */\n      swap3\n      swap2\n      pop\n      pop\n      jump\t// out\n        /* \"#utility.yul\":4782:4925   */\n    tag_206:\n        /* \"#utility.yul\":4839:4844   */\n      0x00\n        /* \"#utility.yul\":4870:4876   */\n      dup2\n        /* \"#utility.yul\":4864:4877   */\n      mload\n        /* \"#utility.yul\":4855:4877   */\n      swap1\n      pop\n        /* \"#utility.yul\":4886:4919   */\n      tag_286\n        /* \"#utility.yul\":4913:4918   */\n      dup2\n        /* \"#utility.yul\":4886:4919   */\n      tag_203\n      jump\t// in\n    tag_286:\n        /* \"#utility.yul\":4782:4925   */\n      swap3\n      swap2\n      pop\n      pop\n      jump\t// out\n        /* \"#utility.yul\":4931:5282   */\n    tag_57:\n        /* \"#utility.yul\":5001:5007   */\n      0x00\n        /* \"#utility.yul\":5050:5052   */\n      0x20\n        /* \"#utility.yul\":5038:5047   */\n      dup3\n        /* \"#utility.yul\":5029:5036   */\n      dup5\n        /* \"#utility.yul\":5025:5048   */\n      sub\n        /* \"#utility.yul\":5021:5053   */\n      slt\n        /* \"#utility.yul\":5018:5137   */\n      iszero\n      tag_288\n      jumpi\n        /* \"#utility.yul\":5056:5135   */\n      tag_289\n      tag_198\n      jump\t// in\n    tag_289:\n        /* \"#utility.yul\":5018:5137   */\n    tag_288:\n        /* \"#utility.yul\":5176:5177   */\n      0x00\n        /* \"#utility.yul\":5201:5265   */\n      tag_290\n        /* \"#utility.yul\":5257:5264   */\n      dup5\n        /* \"#utility.yul\":5248:5254   */\n      dup3\n        /* \"#utility.yul\":5237:5246   */\n      dup6\n        /* \"#utility.yul\":5233:5255   */\n      add\n        /* \"#utility.yul\":5201:5265   */\n      tag_206\n      jump\t// in\n    tag_290:\n        /* \"#utility.yul\":5191:5265   */\n      swap2\n      pop\n        /* \"#utility.yul\":5147:5275   */\n      pop\n        /* \"#utility.yul\":4931:5282   */\n      swap3\n      swap2\n      pop\n      pop\n      jump\t// out\n        /* \"#utility.yul\":5288:5468   */\n    tag_207:\n        /* \"#utility.yul\":5336:5413   */\n      0x4e487b7100000000000000000000000000000000000000000000000000000000\n        /* \"#utility.yul\":5333:5334   */\n      0x00\n        /* \"#utility.yul\":5326:5414   */\n      mstore\n        /* \"#utility.yul\":5433:5437   */\n      0x11\n        /* \"#utility.yul\":5430:5431   */\n      0x04\n        /* \"#utility.yul\":5423:5438   */\n      mstore\n        /* \"#utility.yul\":5457:5461   */\n      0x24\n        /* \"#utility.yul\":5454:5455   */\n      0x00\n        /* \"#utility.yul\":5447:5462   */\n      revert\n        /* \"#utility.yul\":5474:5884   */\n    tag_63:\n        /* \"#utility.yul\":5514:5521   */\n      0x00\n        /* \"#utility.yul\":5537:5557   */\n      tag_293\n        /* \"#utility.yul\":5555:5556   */\n      dup3\n        /* \"#utility.yul\":5537:5557   */\n      tag_195\n      jump\t// in\n    tag_293:\n        /* \"#utility.yul\":5532:5557   */\n      swap2\n      pop\n        /* \"#utility.yul\":5571:5591   */\n      tag_294\n        /* \"#utility.yul\":5589:5590   */\n      dup4\n        /* \"#utility.yul\":5571:5591   */\n      tag_195\n      jump\t// in\n    tag_294:\n        /* \"#utility.yul\":5566:5591   */\n      swap3\n      pop\n        /* \"#utility.yul\":5626:5627   */\n      dup3\n        /* \"#utility.yul\":5623:5624   */\n      dup3\n        /* \"#utility.yul\":5619:5628   */\n      mul\n        /* \"#utility.yul\":5648:5678   */\n      tag_295\n        /* \"#utility.yul\":5666:5677   */\n      dup2\n        /* \"#utility.yul\":5648:5678   */\n      tag_195\n      jump\t// in\n    tag_295:\n        /* \"#utility.yul\":5637:5678   */\n      swap2\n      pop\n        /* \"#utility.yul\":5827:5828   */\n      dup3\n        /* \"#utility.yul\":5818:5825   */\n      dup3\n        /* \"#utility.yul\":5814:5829   */\n      div\n        /* \"#utility.yul\":5811:5812   */\n      dup5\n        /* \"#utility.yul\":5808:5830   */\n      eq\n        /* \"#utility.yul\":5788:5789   */\n      dup4\n        /* \"#utility.yul\":5781:5790   */\n      iszero\n        /* \"#utility.yul\":5761:5844   */\n      or\n        /* \"#utility.yul\":5738:5877   */\n      tag_296\n      jumpi\n        /* \"#utility.yul\":5857:5875   */\n      tag_297\n      tag_207\n      jump\t// in\n    tag_297:\n        /* \"#utility.yul\":5738:5877   */\n    tag_296:\n        /* \"#utility.yul\":5522:5884   */\n      pop\n        /* \"#utility.yul\":5474:5884   */\n      swap3\n      swap2\n      pop\n      pop\n      jump\t// out\n        /* \"#utility.yul\":5890:6070   */\n    tag_208:\n        /* \"#utility.yul\":5938:6015   */\n      0x4e487b7100000000000000000000000000000000000000000000000000000000\n        /* \"#utility.yul\":5935:5936   */\n      0x00\n        /* \"#utility.yul\":5928:6016   */\n      mstore\n        /* \"#utility.yul\":6035:6039   */\n      0x12\n        /* \"#utility.yul\":6032:6033   */\n      0x04\n        /* \"#utility.yul\":6025:6040   */\n      mstore\n        /* \"#utility.yul\":6059:6063   */\n      0x24\n        /* \"#utility.yul\":6056:6057   */\n      0x00\n        /* \"#utility.yul\":6049:6064   */\n      revert\n        /* \"#utility.yul\":6076:6261   */\n    tag_65:\n        /* \"#utility.yul\":6116:6117   */\n      0x00\n        /* \"#utility.yul\":6133:6153   */\n      tag_300\n        /* \"#utility.yul\":6151:6152   */\n      dup3\n        /* \"#utility.yul\":6133:6153   */\n      tag_195\n      jump\t// in\n    tag_300:\n        /* \"#utility.yul\":6128:6153   */\n      swap2\n      pop\n        /* \"#utility.yul\":6167:6187   */\n      tag_301\n        /* \"#utility.yul\":6185:6186   */\n      dup4\n        /* \"#utility.yul\":6167:6187   */\n      tag_195\n      jump\t// in\n    tag_301:\n        /* \"#utility.yul\":6162:6187   */\n      swap3\n      pop\n        /* \"#utility.yul\":6206:6207   */\n      dup3\n        /* \"#utility.yul\":6196:6231   */\n      tag_302\n      jumpi\n        /* \"#utility.yul\":6211:6229   */\n      tag_303\n      tag_208\n      jump\t// in\n    tag_303:\n        /* \"#utility.yul\":6196:6231   */\n    tag_302:\n        /* \"#utility.yul\":6253:6254   */\n      dup3\n        /* \"#utility.yul\":6250:6251   */\n      dup3\n        /* \"#utility.yul\":6246:6255   */\n      div\n        /* \"#utility.yul\":6241:6255   */\n      swap1\n      pop\n        /* \"#utility.yul\":6076:6261   */\n      swap3\n      swap2\n      pop\n      pop\n      jump\t// out\n        /* \"#utility.yul\":6267:6436   */\n    tag_209:\n        /* \"#utility.yul\":6351:6362   */\n      0x00\n        /* \"#utility.yul\":6385:6391   */\n      dup3\n        /* \"#utility.yul\":6380:6383   */\n      dup3\n        /* \"#utility.yul\":6373:6392   */\n      mstore\n        /* \"#utility.yul\":6425:6429   */\n      0x20\n        /* \"#utility.yul\":6420:6423   */\n      dup3\n        /* \"#utility.yul\":6416:6430   */\n      add\n        /* \"#utility.yul\":6401:6430   */\n      swap1\n      pop\n        /* \"#utility.yul\":6267:6436   */\n      swap3\n      swap2\n      pop\n      pop\n      jump\t// out\n        /* \"#utility.yul\":6442:6614   */\n    tag_210:\n        /* \"#utility.yul\":6582:6606   */\n      0x616d6f756e7430206f7220616d6f756e7431203d203000000000000000000000\n        /* \"#utility.yul\":6578:6579   */\n      0x00\n        /* \"#utility.yul\":6570:6576   */\n      dup3\n        /* \"#utility.yul\":6566:6580   */\n      add\n        /* \"#utility.yul\":6559:6607   */\n      mstore\n        /* \"#utility.yul\":6442:6614   */\n      pop\n      jump\t// out\n        /* \"#utility.yul\":6620:6986   */\n    tag_211:\n        /* \"#utility.yul\":6762:6765   */\n      0x00\n        /* \"#utility.yul\":6783:6850   */\n      tag_307\n        /* \"#utility.yul\":6847:6849   */\n      0x16\n        /* \"#utility.yul\":6842:6845   */\n      dup4\n        /* \"#utility.yul\":6783:6850   */\n      tag_209\n      jump\t// in\n    tag_307:\n        /* \"#utility.yul\":6776:6850   */\n      swap2\n      pop\n        /* \"#utility.yul\":6859:6952   */\n      tag_308\n        /* \"#utility.yul\":6948:6951   */\n      dup3\n        /* \"#utility.yul\":6859:6952   */\n      tag_210\n      jump\t// in\n    tag_308:\n        /* \"#utility.yul\":6977:6979   */\n      0x20\n        /* \"#utility.yul\":6972:6975   */\n      dup3\n        /* \"#utility.yul\":6968:6980   */\n      add\n        /* \"#utility.yul\":6961:6980   */\n      swap1\n      pop\n        /* \"#utility.yul\":6620:6986   */\n      swap2\n      swap1\n      pop\n      jump\t// out\n        /* \"#utility.yul\":6992:7411   */\n    tag_71:\n        /* \"#utility.yul\":7158:7162   */\n      0x00\n        /* \"#utility.yul\":7196:7198   */\n      0x20\n        /* \"#utility.yul\":7185:7194   */\n      dup3\n        /* \"#utility.yul\":7181:7199   */\n      add\n        /* \"#utility.yul\":7173:7199   */\n      swap1\n      pop\n        /* \"#utility.yul\":7245:7254   */\n      dup2\n        /* \"#utility.yul\":7239:7243   */\n      dup2\n        /* \"#utility.yul\":7235:7255   */\n      sub\n        /* \"#utility.yul\":7231:7232   */\n      0x00\n        /* \"#utility.yul\":7220:7229   */\n      dup4\n        /* \"#utility.yul\":7216:7233   */\n      add\n        /* \"#utility.yul\":7209:7256   */\n      mstore\n        /* \"#utility.yul\":7273:7404   */\n      tag_310\n        /* \"#utility.yul\":7399:7403   */\n      dup2\n        /* \"#utility.yul\":7273:7404   */\n      tag_211\n      jump\t// in\n    tag_310:\n        /* \"#utility.yul\":7265:7404   */\n      swap1\n      pop\n        /* \"#utility.yul\":6992:7411   */\n      swap2\n      swap1\n      pop\n      jump\t// out\n        /* \"#utility.yul\":7417:7611   */\n    tag_76:\n        /* \"#utility.yul\":7457:7461   */\n      0x00\n        /* \"#utility.yul\":7477:7497   */\n      tag_312\n        /* \"#utility.yul\":7495:7496   */\n      dup3\n        /* \"#utility.yul\":7477:7497   */\n      tag_195\n      jump\t// in\n    tag_312:\n        /* \"#utility.yul\":7472:7497   */\n      swap2\n      pop\n        /* \"#utility.yul\":7511:7531   */\n      tag_313\n        /* \"#utility.yul\":7529:7530   */\n      dup4\n        /* \"#utility.yul\":7511:7531   */\n      tag_195\n      jump\t// in\n    tag_313:\n        /* \"#utility.yul\":7506:7531   */\n      swap3\n      pop\n        /* \"#utility.yul\":7555:7556   */\n      dup3\n        /* \"#utility.yul\":7552:7553   */\n      dup3\n        /* \"#utility.yul\":7548:7557   */\n      sub\n        /* \"#utility.yul\":7540:7557   */\n      swap1\n      pop\n        /* \"#utility.yul\":7579:7580   */\n      dup2\n        /* \"#utility.yul\":7573:7577   */\n      dup2\n        /* \"#utility.yul\":7570:7581   */\n      gt\n        /* \"#utility.yul\":7567:7604   */\n      iszero\n      tag_314\n      jumpi\n        /* \"#utility.yul\":7584:7602   */\n      tag_315\n      tag_207\n      jump\t// in\n    tag_315:\n        /* \"#utility.yul\":7567:7604   */\n    tag_314:\n        /* \"#utility.yul\":7417:7611   */\n      swap3\n      swap2\n      pop\n      pop\n      jump\t// out\n        /* \"#utility.yul\":7617:7949   */\n    tag_80:\n        /* \"#utility.yul\":7738:7742   */\n      0x00\n        /* \"#utility.yul\":7776:7778   */\n      0x40\n        /* \"#utility.yul\":7765:7774   */\n      dup3\n        /* \"#utility.yul\":7761:7779   */\n      add\n        /* \"#utility.yul\":7753:7779   */\n      swap1\n      pop\n        /* \"#utility.yul\":7789:7860   */\n      tag_317\n        /* \"#utility.yul\":7857:7858   */\n      0x00\n        /* \"#utility.yul\":7846:7855   */\n      dup4\n        /* \"#utility.yul\":7842:7859   */\n      add\n        /* \"#utility.yul\":7833:7839   */\n      dup6\n        /* \"#utility.yul\":7789:7860   */\n      tag_205\n      jump\t// in\n    tag_317:\n        /* \"#utility.yul\":7870:7942   */\n      tag_318\n        /* \"#utility.yul\":7938:7940   */\n      0x20\n        /* \"#utility.yul\":7927:7936   */\n      dup4\n        /* \"#utility.yul\":7923:7941   */\n      add\n        /* \"#utility.yul\":7914:7920   */\n      dup5\n        /* \"#utility.yul\":7870:7942   */\n      tag_196\n      jump\t// in\n    tag_318:\n        /* \"#utility.yul\":7617:7949   */\n      swap4\n      swap3\n      pop\n      pop\n      pop\n      jump\t// out\n        /* \"#utility.yul\":7955:8045   */\n    tag_212:\n        /* \"#utility.yul\":7989:7996   */\n      0x00\n        /* \"#utility.yul\":8032:8037   */\n      dup2\n        /* \"#utility.yul\":8025:8038   */\n      iszero\n        /* \"#utility.yul\":8018:8039   */\n      iszero\n        /* \"#utility.yul\":8007:8039   */\n      swap1\n      pop\n        /* \"#utility.yul\":7955:8045   */\n      swap2\n      swap1\n      pop\n      jump\t// out\n        /* \"#utility.yul\":8051:8167   */\n    tag_213:\n        /* \"#utility.yul\":8121:8142   */\n      tag_321\n        /* \"#utility.yul\":8136:8141   */\n      dup2\n        /* \"#utility.yul\":8121:8142   */\n      tag_212\n      jump\t// in\n    tag_321:\n        /* \"#utility.yul\":8114:8119   */\n      dup2\n        /* \"#utility.yul\":8111:8143   */\n      eq\n        /* \"#utility.yul\":8101:8161   */\n      tag_322\n      jumpi\n        /* \"#utility.yul\":8157:8158   */\n      0x00\n        /* \"#utility.yul\":8154:8155   */\n      0x00\n        /* \"#utility.yul\":8147:8159   */\n      revert\n        /* \"#utility.yul\":8101:8161   */\n    tag_322:\n        /* \"#utility.yul\":8051:8167   */\n      pop\n      jump\t// out\n        /* \"#utility.yul\":8173:8310   */\n    tag_214:\n        /* \"#utility.yul\":8227:8232   */\n      0x00\n        /* \"#utility.yul\":8258:8264   */\n      dup2\n        /* \"#utility.yul\":8252:8265   */\n      mload\n        /* \"#utility.yul\":8243:8265   */\n      swap1\n      pop\n        /* \"#utility.yul\":8274:8304   */\n      tag_324\n        /* \"#utility.yul\":8298:8303   */\n      dup2\n        /* \"#utility.yul\":8274:8304   */\n      tag_213\n      jump\t// in\n    tag_324:\n        /* \"#utility.yul\":8173:8310   */\n      swap3\n      swap2\n      pop\n      pop\n      jump\t// out\n        /* \"#utility.yul\":8316:8661   */\n    tag_84:\n        /* \"#utility.yul\":8383:8389   */\n      0x00\n        /* \"#utility.yul\":8432:8434   */\n      0x20\n        /* \"#utility.yul\":8420:8429   */\n      dup3\n        /* \"#utility.yul\":8411:8418   */\n      dup5\n        /* \"#utility.yul\":8407:8430   */\n      sub\n        /* \"#utility.yul\":8403:8435   */\n      slt\n        /* \"#utility.yul\":8400:8519   */\n      iszero\n      tag_326\n      jumpi\n        /* \"#utility.yul\":8438:8517   */\n      tag_327\n      tag_198\n      jump\t// in\n    tag_327:\n        /* \"#utility.yul\":8400:8519   */\n    tag_326:\n        /* \"#utility.yul\":8558:8559   */\n      0x00\n        /* \"#utility.yul\":8583:8644   */\n      tag_328\n        /* \"#utility.yul\":8636:8643   */\n      dup5\n        /* \"#utility.yul\":8627:8633   */\n      dup3\n        /* \"#utility.yul\":8616:8625   */\n      dup6\n        /* \"#utility.yul\":8612:8634   */\n      add\n        /* \"#utility.yul\":8583:8644   */\n      tag_214\n      jump\t// in\n    tag_328:\n        /* \"#utility.yul\":8573:8644   */\n      swap2\n      pop\n        /* \"#utility.yul\":8529:8654   */\n      pop\n        /* \"#utility.yul\":8316:8661   */\n      swap3\n      swap2\n      pop\n      pop\n      jump\t// out\n        /* \"#utility.yul\":8667:8831   */\n    tag_215:\n        /* \"#utility.yul\":8807:8823   */\n      0x616d6f756e74206973207a65726f000000000000000000000000000000000000\n        /* \"#utility.yul\":8803:8804   */\n      0x00\n        /* \"#utility.yul\":8795:8801   */\n      dup3\n        /* \"#utility.yul\":8791:8805   */\n      add\n        /* \"#utility.yul\":8784:8824   */\n      mstore\n        /* \"#utility.yul\":8667:8831   */\n      pop\n      jump\t// out\n        /* \"#utility.yul\":8837:9203   */\n    tag_216:\n        /* \"#utility.yul\":8979:8982   */\n      0x00\n        /* \"#utility.yul\":9000:9067   */\n      tag_331\n        /* \"#utility.yul\":9064:9066   */\n      0x0e\n        /* \"#utility.yul\":9059:9062   */\n      dup4\n        /* \"#utility.yul\":9000:9067   */\n      tag_209\n      jump\t// in\n    tag_331:\n        /* \"#utility.yul\":8993:9067   */\n      swap2\n      pop\n        /* \"#utility.yul\":9076:9169   */\n      tag_332\n        /* \"#utility.yul\":9165:9168   */\n      dup3\n        /* \"#utility.yul\":9076:9169   */\n      tag_215\n      jump\t// in\n    tag_332:\n        /* \"#utility.yul\":9194:9196   */\n      0x20\n        /* \"#utility.yul\":9189:9192   */\n      dup3\n        /* \"#utility.yul\":9185:9197   */\n      add\n        /* \"#utility.yul\":9178:9197   */\n      swap1\n      pop\n        /* \"#utility.yul\":8837:9203   */\n      swap2\n      swap1\n      pop\n      jump\t// out\n        /* \"#utility.yul\":9209:9628   */\n    tag_93:\n        /* \"#utility.yul\":9375:9379   */\n      0x00\n        /* \"#utility.yul\":9413:9415   */\n      0x20\n        /* \"#utility.yul\":9402:9411   */\n      dup3\n        /* \"#utility.yul\":9398:9416   */\n      add\n        /* \"#utility.yul\":9390:9416   */\n      swap1\n      pop\n        /* \"#utility.yul\":9462:9471   */\n      dup2\n        /* \"#utility.yul\":9456:9460   */\n      dup2\n        /* \"#utility.yul\":9452:9472   */\n      sub\n        /* \"#utility.yul\":9448:9449   */\n      0x00\n        /* \"#utility.yul\":9437:9446   */\n      dup4\n        /* \"#utility.yul\":9433:9450   */\n      add\n        /* \"#utility.yul\":9426:9473   */\n      mstore\n        /* \"#utility.yul\":9490:9621   */\n      tag_334\n        /* \"#utility.yul\":9616:9620   */\n      dup2\n        /* \"#utility.yul\":9490:9621   */\n      tag_216\n      jump\t// in\n    tag_334:\n        /* \"#utility.yul\":9482:9621   */\n      swap1\n      pop\n        /* \"#utility.yul\":9209:9628   */\n      swap2\n      swap1\n      pop\n      jump\t// out\n        /* \"#utility.yul\":9634:10076   */\n    tag_95:\n        /* \"#utility.yul\":9783:9787   */\n      0x00\n        /* \"#utility.yul\":9821:9823   */\n      0x60\n        /* \"#utility.yul\":9810:9819   */\n      dup3\n        /* \"#utility.yul\":9806:9824   */\n      add\n        /* \"#utility.yul\":9798:9824   */\n      swap1\n      pop\n        /* \"#utility.yul\":9834:9905   */\n      tag_336\n        /* \"#utility.yul\":9902:9903   */\n      0x00\n        /* \"#utility.yul\":9891:9900   */\n      dup4\n        /* \"#utility.yul\":9887:9904   */\n      add\n        /* \"#utility.yul\":9878:9884   */\n      dup7\n        /* \"#utility.yul\":9834:9905   */\n      tag_205\n      jump\t// in\n    tag_336:\n        /* \"#utility.yul\":9915:9987   */\n      tag_337\n        /* \"#utility.yul\":9983:9985   */\n      0x20\n        /* \"#utility.yul\":9972:9981   */\n      dup4\n        /* \"#utility.yul\":9968:9986   */\n      add\n        /* \"#utility.yul\":9959:9965   */\n      dup6\n        /* \"#utility.yul\":9915:9987   */\n      tag_205\n      jump\t// in\n    tag_337:\n        /* \"#utility.yul\":9997:10069   */\n      tag_338\n        /* \"#utility.yul\":10065:10067   */\n      0x40\n        /* \"#utility.yul\":10054:10063   */\n      dup4\n        /* \"#utility.yul\":10050:10068   */\n      add\n        /* \"#utility.yul\":10041:10047   */\n      dup5\n        /* \"#utility.yul\":9997:10069   */\n      tag_196\n      jump\t// in\n    tag_338:\n        /* \"#utility.yul\":9634:10076   */\n      swap5\n      swap4\n      pop\n      pop\n      pop\n      pop\n      jump\t// out\n        /* \"#utility.yul\":10082:10244   */\n    tag_217:\n        /* \"#utility.yul\":10222:10236   */\n      0x64792f647820213d20792f780000000000000000000000000000000000000000\n        /* \"#utility.yul\":10218:10219   */\n      0x00\n        /* \"#utility.yul\":10210:10216   */\n      dup3\n        /* \"#utility.yul\":10206:10220   */\n      add\n        /* \"#utility.yul\":10199:10237   */\n      mstore\n        /* \"#utility.yul\":10082:10244   */\n      pop\n      jump\t// out\n        /* \"#utility.yul\":10250:10616   */\n    tag_218:\n        /* \"#utility.yul\":10392:10395   */\n      0x00\n        /* \"#utility.yul\":10413:10480   */\n      tag_341\n        /* \"#utility.yul\":10477:10479   */\n      0x0c\n        /* \"#utility.yul\":10472:10475   */\n      dup4\n        /* \"#utility.yul\":10413:10480   */\n      tag_209\n      jump\t// in\n    tag_341:\n        /* \"#utility.yul\":10406:10480   */\n      swap2\n      pop\n        /* \"#utility.yul\":10489:10582   */\n      tag_342\n        /* \"#utility.yul\":10578:10581   */\n      dup3\n        /* \"#utility.yul\":10489:10582   */\n      tag_217\n      jump\t// in\n    tag_342:\n        /* \"#utility.yul\":10607:10609   */\n      0x20\n        /* \"#utility.yul\":10602:10605   */\n      dup3\n        /* \"#utility.yul\":10598:10610   */\n      add\n        /* \"#utility.yul\":10591:10610   */\n      swap1\n      pop\n        /* \"#utility.yul\":10250:10616   */\n      swap2\n      swap1\n      pop\n      jump\t// out\n        /* \"#utility.yul\":10622:11041   */\n    tag_109:\n        /* \"#utility.yul\":10788:10792   */\n      0x00\n        /* \"#utility.yul\":10826:10828   */\n      0x20\n        /* \"#utility.yul\":10815:10824   */\n      dup3\n        /* \"#utility.yul\":10811:10829   */\n      add\n        /* \"#utility.yul\":10803:10829   */\n      swap1\n      pop\n        /* \"#utility.yul\":10875:10884   */\n      dup2\n        /* \"#utility.yul\":10869:10873   */\n      dup2\n        /* \"#utility.yul\":10865:10885   */\n      sub\n        /* \"#utility.yul\":10861:10862   */\n      0x00\n        /* \"#utility.yul\":10850:10859   */\n      dup4\n        /* \"#utility.yul\":10846:10863   */\n      add\n        /* \"#utility.yul\":10839:10886   */\n      mstore\n        /* \"#utility.yul\":10903:11034   */\n      tag_344\n        /* \"#utility.yul\":11029:11033   */\n      dup2\n        /* \"#utility.yul\":10903:11034   */\n      tag_218\n      jump\t// in\n    tag_344:\n        /* \"#utility.yul\":10895:11034   */\n      swap1\n      pop\n        /* \"#utility.yul\":10622:11041   */\n      swap2\n      swap1\n      pop\n      jump\t// out\n        /* \"#utility.yul\":11047:11208   */\n    tag_219:\n        /* \"#utility.yul\":11187:11200   */\n      0x736861726573203d3d2030000000000000000000000000000000000000000000\n        /* \"#utility.yul\":11183:11184   */\n      0x00\n        /* \"#utility.yul\":11175:11181   */\n      dup3\n        /* \"#utility.yul\":11171:11185   */\n      add\n        /* \"#utility.yul\":11164:11201   */\n      mstore\n        /* \"#utility.yul\":11047:11208   */\n      pop\n      jump\t// out\n        /* \"#utility.yul\":11214:11580   */\n    tag_220:\n        /* \"#utility.yul\":11356:11359   */\n      0x00\n        /* \"#utility.yul\":11377:11444   */\n      tag_347\n        /* \"#utility.yul\":11441:11443   */\n      0x0b\n        /* \"#utility.yul\":11436:11439   */\n      dup4\n        /* \"#utility.yul\":11377:11444   */\n      tag_209\n      jump\t// in\n    tag_347:\n        /* \"#utility.yul\":11370:11444   */\n      swap2\n      pop\n        /* \"#utility.yul\":11453:11546   */\n      tag_348\n        /* \"#utility.yul\":11542:11545   */\n      dup3\n        /* \"#utility.yul\":11453:11546   */\n      tag_219\n      jump\t// in\n    tag_348:\n        /* \"#utility.yul\":11571:11573   */\n      0x20\n        /* \"#utility.yul\":11566:11569   */\n      dup3\n        /* \"#utility.yul\":11562:11574   */\n      add\n        /* \"#utility.yul\":11555:11574   */\n      swap1\n      pop\n        /* \"#utility.yul\":11214:11580   */\n      swap2\n      swap1\n      pop\n      jump\t// out\n        /* \"#utility.yul\":11586:12005   */\n    tag_123:\n        /* \"#utility.yul\":11752:11756   */\n      0x00\n        /* \"#utility.yul\":11790:11792   */\n      0x20\n        /* \"#utility.yul\":11779:11788   */\n      dup3\n        /* \"#utility.yul\":11775:11793   */\n      add\n        /* \"#utility.yul\":11767:11793   */\n      swap1\n      pop\n        /* \"#utility.yul\":11839:11848   */\n      dup2\n        /* \"#utility.yul\":11833:11837   */\n      dup2\n        /* \"#utility.yul\":11829:11849   */\n      sub\n        /* \"#utility.yul\":11825:11826   */\n      0x00\n        /* \"#utility.yul\":11814:11823   */\n      dup4\n        /* \"#utility.yul\":11810:11827   */\n      add\n        /* \"#utility.yul\":11803:11850   */\n      mstore\n        /* \"#utility.yul\":11867:11998   */\n      tag_350\n        /* \"#utility.yul\":11993:11997   */\n      dup2\n        /* \"#utility.yul\":11867:11998   */\n      tag_220\n      jump\t// in\n    tag_350:\n        /* \"#utility.yul\":11859:11998   */\n      swap1\n      pop\n        /* \"#utility.yul\":11586:12005   */\n      swap2\n      swap1\n      pop\n      jump\t// out\n        /* \"#utility.yul\":12011:12174   */\n    tag_221:\n        /* \"#utility.yul\":12151:12166   */\n      0x496e76616c696420746f6b656e00000000000000000000000000000000000000\n        /* \"#utility.yul\":12147:12148   */\n      0x00\n        /* \"#utility.yul\":12139:12145   */\n      dup3\n        /* \"#utility.yul\":12135:12149   */\n      add\n        /* \"#utility.yul\":12128:12167   */\n      mstore\n        /* \"#utility.yul\":12011:12174   */\n      pop\n      jump\t// out\n        /* \"#utility.yul\":12180:12546   */\n    tag_222:\n        /* \"#utility.yul\":12322:12325   */\n      0x00\n        /* \"#utility.yul\":12343:12410   */\n      tag_353\n        /* \"#utility.yul\":12407:12409   */\n      0x0d\n        /* \"#utility.yul\":12402:12405   */\n      dup4\n        /* \"#utility.yul\":12343:12410   */\n      tag_209\n      jump\t// in\n    tag_353:\n        /* \"#utility.yul\":12336:12410   */\n      swap2\n      pop\n        /* \"#utility.yul\":12419:12512   */\n      tag_354\n        /* \"#utility.yul\":12508:12511   */\n      dup3\n        /* \"#utility.yul\":12419:12512   */\n      tag_221\n      jump\t// in\n    tag_354:\n        /* \"#utility.yul\":12537:12539   */\n      0x20\n        /* \"#utility.yul\":12532:12535   */\n      dup3\n        /* \"#utility.yul\":12528:12540   */\n      add\n        /* \"#utility.yul\":12521:12540   */\n      swap1\n      pop\n        /* \"#utility.yul\":12180:12546   */\n      swap2\n      swap1\n      pop\n      jump\t// out\n        /* \"#utility.yul\":12552:12971   */\n    tag_139:\n        /* \"#utility.yul\":12718:12722   */\n      0x00\n        /* \"#utility.yul\":12756:12758   */\n      0x20\n        /* \"#utility.yul\":12745:12754   */\n      dup3\n        /* \"#utility.yul\":12741:12759   */\n      add\n        /* \"#utility.yul\":12733:12759   */\n      swap1\n      pop\n        /* \"#utility.yul\":12805:12814   */\n      dup2\n        /* \"#utility.yul\":12799:12803   */\n      dup2\n        /* \"#utility.yul\":12795:12815   */\n      sub\n        /* \"#utility.yul\":12791:12792   */\n      0x00\n        /* \"#utility.yul\":12780:12789   */\n      dup4\n        /* \"#utility.yul\":12776:12793   */\n      add\n        /* \"#utility.yul\":12769:12816   */\n      mstore\n        /* \"#utility.yul\":12833:12964   */\n      tag_356\n        /* \"#utility.yul\":12959:12963   */\n      dup2\n        /* \"#utility.yul\":12833:12964   */\n      tag_222\n      jump\t// in\n    tag_356:\n        /* \"#utility.yul\":12825:12964   */\n      swap1\n      pop\n        /* \"#utility.yul\":12552:12971   */\n      swap2\n      swap1\n      pop\n      jump\t// out\n        /* \"#utility.yul\":12977:13144   */\n    tag_223:\n        /* \"#utility.yul\":13117:13136   */\n      0x616d6f756e7420696e206973207a65726f000000000000000000000000000000\n        /* \"#utility.yul\":13113:13114   */\n      0x00\n        /* \"#utility.yul\":13105:13111   */\n      dup3\n        /* \"#utility.yul\":13101:13115   */\n      add\n        /* \"#utility.yul\":13094:13137   */\n      mstore\n        /* \"#utility.yul\":12977:13144   */\n      pop\n      jump\t// out\n        /* \"#utility.yul\":13150:13516   */\n    tag_224:\n        /* \"#utility.yul\":13292:13295   */\n      0x00\n        /* \"#utility.yul\":13313:13380   */\n      tag_359\n        /* \"#utility.yul\":13377:13379   */\n      0x11\n        /* \"#utility.yul\":13372:13375   */\n      dup4\n        /* \"#utility.yul\":13313:13380   */\n      tag_209\n      jump\t// in\n    tag_359:\n        /* \"#utility.yul\":13306:13380   */\n      swap2\n      pop\n        /* \"#utility.yul\":13389:13482   */\n      tag_360\n        /* \"#utility.yul\":13478:13481   */\n      dup3\n        /* \"#utility.yul\":13389:13482   */\n      tag_223\n      jump\t// in\n    tag_360:\n        /* \"#utility.yul\":13507:13509   */\n      0x20\n        /* \"#utility.yul\":13502:13505   */\n      dup3\n        /* \"#utility.yul\":13498:13510   */\n      add\n        /* \"#utility.yul\":13491:13510   */\n      swap1\n      pop\n        /* \"#utility.yul\":13150:13516   */\n      swap2\n      swap1\n      pop\n      jump\t// out\n        /* \"#utility.yul\":13522:13941   */\n    tag_142:\n        /* \"#utility.yul\":13688:13692   */\n      0x00\n        /* \"#utility.yul\":13726:13728   */\n      0x20\n        /* \"#utility.yul\":13715:13724   */\n      dup3\n        /* \"#utility.yul\":13711:13729   */\n      add\n        /* \"#utility.yul\":13703:13729   */\n      swap1\n      pop\n        /* \"#utility.yul\":13775:13784   */\n      dup2\n        /* \"#utility.yul\":13769:13773   */\n      dup2\n        /* \"#utility.yul\":13765:13785   */\n      sub\n        /* \"#utility.yul\":13761:13762   */\n      0x00\n        /* \"#utility.yul\":13750:13759   */\n      dup4\n        /* \"#utility.yul\":13746:13763   */\n      add\n        /* \"#utility.yul\":13739:13786   */\n      mstore\n        /* \"#utility.yul\":13803:13934   */\n      tag_362\n        /* \"#utility.yul\":13929:13933   */\n      dup2\n        /* \"#utility.yul\":13803:13934   */\n      tag_224\n      jump\t// in\n    tag_362:\n        /* \"#utility.yul\":13795:13934   */\n      swap1\n      pop\n        /* \"#utility.yul\":13522:13941   */\n      swap2\n      swap1\n      pop\n      jump\t// out\n        /* \"#utility.yul\":13947:14138   */\n    tag_152:\n        /* \"#utility.yul\":13987:13990   */\n      0x00\n        /* \"#utility.yul\":14006:14026   */\n      tag_364\n        /* \"#utility.yul\":14024:14025   */\n      dup3\n        /* \"#utility.yul\":14006:14026   */\n      tag_195\n      jump\t// in\n    tag_364:\n        /* \"#utility.yul\":14001:14026   */\n      swap2\n      pop\n        /* \"#utility.yul\":14040:14060   */\n      tag_365\n        /* \"#utility.yul\":14058:14059   */\n      dup4\n        /* \"#utility.yul\":14040:14060   */\n      tag_195\n      jump\t// in\n    tag_365:\n        /* \"#utility.yul\":14035:14060   */\n      swap3\n      pop\n        /* \"#utility.yul\":14083:14084   */\n      dup3\n        /* \"#utility.yul\":14080:14081   */\n      dup3\n        /* \"#utility.yul\":14076:14085   */\n      add\n        /* \"#utility.yul\":14069:14085   */\n      swap1\n      pop\n        /* \"#utility.yul\":14104:14107   */\n      dup1\n        /* \"#utility.yul\":14101:14102   */\n      dup3\n        /* \"#utility.yul\":14098:14108   */\n      gt\n        /* \"#utility.yul\":14095:14131   */\n      iszero\n      tag_366\n      jumpi\n        /* \"#utility.yul\":14111:14129   */\n      tag_367\n      tag_207\n      jump\t// in\n    tag_367:\n        /* \"#utility.yul\":14095:14131   */\n    tag_366:\n        /* \"#utility.yul\":13947:14138   */\n      swap3\n      swap2\n      pop\n      pop\n      jump\t// out\n\n    auxdata: 0xa264697066735822122022f453de6e8b02c50c0583c79b909878a37dd07b8223fc537dc7c2809d23d31a64736f6c634300081c0033\n}\n",
				"bytecode": {
					"linkReferences": {},
					"object": "60c060405234801561000f575f5ffd5b50604051611874380380611874833981810160405281019061003191906100fe565b8173ffffffffffffffffffffffffffffffffffffffff1660808173ffffffffffffffffffffffffffffffffffffffff16815250508073ffffffffffffffffffffffffffffffffffffffff1660a08173ffffffffffffffffffffffffffffffffffffffff1681525050505061013c565b5f5ffd5b5f73ffffffffffffffffffffffffffffffffffffffff82169050919050565b5f6100cd826100a4565b9050919050565b6100dd816100c3565b81146100e7575f5ffd5b50565b5f815190506100f8816100d4565b92915050565b5f5f60408385031215610114576101136100a0565b5b5f610121858286016100ea565b9250506020610132858286016100ea565b9150509250929050565b60805160a0516116a06101d45f395f81816102d6015281816104b901528181610648015281816108a20152818161099b01528181610ac501528181610b2d01528181610d270152610dcf01525f81816101ee0152818161023b0152818161041d015281816105aa0152818161080a0152818161094601528181610a6d01528181610ae601528181610b0c0152610c8f01526116a05ff3fe608060405234801561000f575f5ffd5b5060043610610091575f3560e01c806370a082311161006457806370a082311461010d5780639c8f9f231461013d5780639cd441da1461016e578063d004f0f71461019e578063d21220a7146101ce57610091565b80630dfe16811461009557806318160ddd146100b3578063443cb4bc146100d15780635a76f25e146100ef575b5f5ffd5b61009d6101ec565b6040516100aa9190610fea565b60405180910390f35b6100bb610210565b6040516100c8919061101b565b60405180910390f35b6100d9610216565b6040516100e6919061101b565b60405180910390f35b6100f761021b565b604051610104919061101b565b60405180910390f35b61012760048036038101906101229190611073565b610221565b604051610134919061101b565b60405180910390f35b610157600480360381019061015291906110c8565b610236565b6040516101659291906110f3565b60405180910390f35b6101886004803603810190610183919061111a565b61055a565b604051610195919061101b565b60405180910390f35b6101b860048036038101906101b39190611158565b610943565b6040516101c5919061101b565b60405180910390f35b6101d6610dcd565b6040516101e39190610fea565b60405180910390f35b7f000000000000000000000000000000000000000000000000000000000000000081565b60025481565b5f5481565b60015481565b6003602052805f5260405f205f915090505481565b5f5f5f7f000000000000000000000000000000000000000000000000000000000000000073ffffffffffffffffffffffffffffffffffffffff166370a08231306040518263ffffffff1660e01b815260040161029291906111a5565b602060405180830381865afa1580156102ad573d5f5f3e3d5ffd5b505050506040513d601f19601f820116820180604052508101906102d191906111d2565b90505f7f000000000000000000000000000000000000000000000000000000000000000073ffffffffffffffffffffffffffffffffffffffff166370a08231306040518263ffffffff1660e01b815260040161032d91906111a5565b602060405180830381865afa158015610348573d5f5f3e3d5ffd5b505050506040513d601f19601f8201168201806040525081019061036c91906111d2565b9050600254828661037d919061122a565b6103879190611298565b93506002548186610398919061122a565b6103a29190611298565b92505f841180156103b257505f83115b6103f1576040517f08c379a00000000000000000000000000000000000000000000000000000000081526004016103e890611322565b60405180910390fd5b6103fb3386610df1565b61041b848361040a9190611340565b84836104169190611340565b610e60565b7f000000000000000000000000000000000000000000000000000000000000000073ffffffffffffffffffffffffffffffffffffffff1663a9059cbb33866040518363ffffffff1660e01b8152600401610476929190611373565b6020604051808303815f875af1158015610492573d5f5f3e3d5ffd5b505050506040513d601f19601f820116820180604052508101906104b691906113cf565b507f000000000000000000000000000000000000000000000000000000000000000073ffffffffffffffffffffffffffffffffffffffff1663a9059cbb33856040518363ffffffff1660e01b8152600401610512929190611373565b6020604051808303815f875af115801561052e573d5f5f3e3d5ffd5b505050506040513d601f19601f8201168201806040525081019061055291906113cf565b505050915091565b5f5f8311801561056957505f82115b6105a8576040517f08c379a000000000000000000000000000000000000000000000000000000000815260040161059f90611444565b60405180910390fd5b7f000000000000000000000000000000000000000000000000000000000000000073ffffffffffffffffffffffffffffffffffffffff166323b872dd3330866040518463ffffffff1660e01b815260040161060593929190611462565b6020604051808303815f875af1158015610621573d5f5f3e3d5ffd5b505050506040513d601f19601f8201168201806040525081019061064591906113cf565b507f000000000000000000000000000000000000000000000000000000000000000073ffffffffffffffffffffffffffffffffffffffff166323b872dd3330856040518463ffffffff1660e01b81526004016106a393929190611462565b6020604051808303815f875af11580156106bf573d5f5f3e3d5ffd5b505050506040513d601f19601f820116820180604052508101906106e391906113cf565b505f5f5411806106f457505f600154115b156107555782600154610707919061122a565b825f54610714919061122a565b14610754576040517f08c379a000000000000000000000000000000000000000000000000000000000815260040161074b906114e1565b60405180910390fd5b5b5f6002540361077957610772828461076d919061122a565b610e71565b90506107b9565b6107b65f546002548561078c919061122a565b6107969190611298565b600154600254856107a7919061122a565b6107b19190611298565b610ee8565b90505b5f81116107fb576040517f08c379a00000000000000000000000000000000000000000000000000000000081526004016107f290611549565b60405180910390fd5b6108053382610f01565b61093d7f000000000000000000000000000000000000000000000000000000000000000073ffffffffffffffffffffffffffffffffffffffff166370a08231306040518263ffffffff1660e01b815260040161086191906111a5565b602060405180830381865afa15801561087c573d5f5f3e3d5ffd5b505050506040513d601f19601f820116820180604052508101906108a091906111d2565b7f000000000000000000000000000000000000000000000000000000000000000073ffffffffffffffffffffffffffffffffffffffff166370a08231306040518263ffffffff1660e01b81526004016108f991906111a5565b602060405180830381865afa158015610914573d5f5f3e3d5ffd5b505050506040513d601f19601f8201168201806040525081019061093891906111d2565b610e60565b92915050565b5f7f000000000000000000000000000000000000000000000000000000000000000073ffffffffffffffffffffffffffffffffffffffff168373ffffffffffffffffffffffffffffffffffffffff1614806109e957507f000000000000000000000000000000000000000000000000000000000000000073ffffffffffffffffffffffffffffffffffffffff168373ffffffffffffffffffffffffffffffffffffffff16145b610a28576040517f08c379a0000000000000000000000000000000000000000000000000000000008152600401610a1f906115b1565b60405180910390fd5b5f8211610a6a576040517f08c379a0000000000000000000000000000000000000000000000000000000008152600401610a6190611619565b60405180910390fd5b5f7f000000000000000000000000000000000000000000000000000000000000000073ffffffffffffffffffffffffffffffffffffffff168473ffffffffffffffffffffffffffffffffffffffff161490505f5f82610b0a577f00000000000000000000000000000000000000000000000000000000000000007f0000000000000000000000000000000000000000000000000000000000000000610b4d565b7f00000000000000000000000000000000000000000000000000000000000000007f00000000000000000000000000000000000000000000000000000000000000005b915091505f5f84610b62576001545f54610b68565b5f546001545b915091508373ffffffffffffffffffffffffffffffffffffffff166323b872dd33308a6040518463ffffffff1660e01b8152600401610ba993929190611462565b6020604051808303815f875af1158015610bc5573d5f5f3e3d5ffd5b505050506040513d601f19601f82011682018060405250810190610be991906113cf565b508682610bf69190611637565b8782610c02919061122a565b610c0c9190611298565b95508273ffffffffffffffffffffffffffffffffffffffff1663a9059cbb33886040518363ffffffff1660e01b8152600401610c49929190611373565b6020604051808303815f875af1158015610c65573d5f5f3e3d5ffd5b505050506040513d601f19601f82011682018060405250810190610c8991906113cf565b50610dc27f000000000000000000000000000000000000000000000000000000000000000073ffffffffffffffffffffffffffffffffffffffff166370a08231306040518263ffffffff1660e01b8152600401610ce691906111a5565b602060405180830381865afa158015610d01573d5f5f3e3d5ffd5b505050506040513d601f19601f82011682018060405250810190610d2591906111d2565b7f000000000000000000000000000000000000000000000000000000000000000073ffffffffffffffffffffffffffffffffffffffff166370a08231306040518263ffffffff1660e01b8152600401610d7e91906111a5565b602060405180830381865afa158015610d99573d5f5f3e3d5ffd5b505050506040513d601f19601f82011682018060405250810190610dbd91906111d2565b610e60565b505050505092915050565b7f000000000000000000000000000000000000000000000000000000000000000081565b8060035f8473ffffffffffffffffffffffffffffffffffffffff1673ffffffffffffffffffffffffffffffffffffffff1681526020019081526020015f205f828254610e3d9190611340565b925050819055508060025f828254610e559190611340565b925050819055505050565b815f81905550806001819055505050565b5f6003821115610ed6578190505f6001600284610e8e9190611298565b610e989190611637565b90505b81811015610ed0578091506002818285610eb59190611298565b610ebf9190611637565b610ec99190611298565b9050610e9b565b50610ee3565b5f8214610ee257600190505b5b919050565b5f81831115610ef75781610ef9565b825b905092915050565b8060035f8473ffffffffffffffffffffffffffffffffffffffff1673ffffffffffffffffffffffffffffffffffffffff1681526020019081526020015f205f828254610f4d9190611637565b925050819055508060025f828254610f659190611637565b925050819055505050565b5f73ffffffffffffffffffffffffffffffffffffffff82169050919050565b5f819050919050565b5f610fb2610fad610fa884610f70565b610f8f565b610f70565b9050919050565b5f610fc382610f98565b9050919050565b5f610fd482610fb9565b9050919050565b610fe481610fca565b82525050565b5f602082019050610ffd5f830184610fdb565b92915050565b5f819050919050565b61101581611003565b82525050565b5f60208201905061102e5f83018461100c565b92915050565b5f5ffd5b5f61104282610f70565b9050919050565b61105281611038565b811461105c575f5ffd5b50565b5f8135905061106d81611049565b92915050565b5f6020828403121561108857611087611034565b5b5f6110958482850161105f565b91505092915050565b6110a781611003565b81146110b1575f5ffd5b50565b5f813590506110c28161109e565b92915050565b5f602082840312156110dd576110dc611034565b5b5f6110ea848285016110b4565b91505092915050565b5f6040820190506111065f83018561100c565b611113602083018461100c565b9392505050565b5f5f604083850312156111305761112f611034565b5b5f61113d858286016110b4565b925050602061114e858286016110b4565b9150509250929050565b5f5f6040838503121561116e5761116d611034565b5b5f61117b8582860161105f565b925050602061118c858286016110b4565b9150509250929050565b61119f81611038565b82525050565b5f6020820190506111b85f830184611196565b92915050565b5f815190506111cc8161109e565b92915050565b5f602082840312156111e7576111e6611034565b5b5f6111f4848285016111be565b91505092915050565b7f4e487b71000000000000000000000000000000000000000000000000000000005f52601160045260245ffd5b5f61123482611003565b915061123f83611003565b925082820261124d81611003565b91508282048414831517611264576112636111fd565b5b5092915050565b7f4e487b71000000000000000000000000000000000000000000000000000000005f52601260045260245ffd5b5f6112a282611003565b91506112ad83611003565b9250826112bd576112bc61126b565b5b828204905092915050565b5f82825260208201905092915050565b7f616d6f756e7430206f7220616d6f756e7431203d2030000000000000000000005f82015250565b5f61130c6016836112c8565b9150611317826112d8565b602082019050919050565b5f6020820190508181035f83015261133981611300565b9050919050565b5f61134a82611003565b915061135583611003565b925082820390508181111561136d5761136c6111fd565b5b92915050565b5f6040820190506113865f830185611196565b611393602083018461100c565b9392505050565b5f8115159050919050565b6113ae8161139a565b81146113b8575f5ffd5b50565b5f815190506113c9816113a5565b92915050565b5f602082840312156113e4576113e3611034565b5b5f6113f1848285016113bb565b91505092915050565b7f616d6f756e74206973207a65726f0000000000000000000000000000000000005f82015250565b5f61142e600e836112c8565b9150611439826113fa565b602082019050919050565b5f6020820190508181035f83015261145b81611422565b9050919050565b5f6060820190506114755f830186611196565b6114826020830185611196565b61148f604083018461100c565b949350505050565b7f64792f647820213d20792f7800000000000000000000000000000000000000005f82015250565b5f6114cb600c836112c8565b91506114d682611497565b602082019050919050565b5f6020820190508181035f8301526114f8816114bf565b9050919050565b7f736861726573203d3d20300000000000000000000000000000000000000000005f82015250565b5f611533600b836112c8565b915061153e826114ff565b602082019050919050565b5f6020820190508181035f83015261156081611527565b9050919050565b7f496e76616c696420746f6b656e000000000000000000000000000000000000005f82015250565b5f61159b600d836112c8565b91506115a682611567565b602082019050919050565b5f6020820190508181035f8301526115c88161158f565b9050919050565b7f616d6f756e7420696e206973207a65726f0000000000000000000000000000005f82015250565b5f6116036011836112c8565b915061160e826115cf565b602082019050919050565b5f6020820190508181035f830152611630816115f7565b9050919050565b5f61164182611003565b915061164c83611003565b9250828201905080821115611664576116636111fd565b5b9291505056fea264697066735822122022f453de6e8b02c50c0583c79b909878a37dd07b8223fc537dc7c2809d23d31a64736f6c634300081c0033",
					"opcodes": "PUSH1 0xC0 PUSH1 0x40 MSTORE CALLVALUE DUP1 ISZERO PUSH2 0xF JUMPI PUSH0 PUSH0 REVERT JUMPDEST POP PUSH1 0x40 MLOAD PUSH2 0x1874 CODESIZE SUB DUP1 PUSH2 0x1874 DUP4 CODECOPY DUP2 DUP2 ADD PUSH1 0x40 MSTORE DUP2 ADD SWAP1 PUSH2 0x31 SWAP2 SWAP1 PUSH2 0xFE JUMP JUMPDEST DUP2 PUSH20 0xFFFFFFFFFFFFFFFFFFFFFFFFFFFFFFFFFFFFFFFF AND PUSH1 0x80 DUP2 PUSH20 0xFFFFFFFFFFFFFFFFFFFFFFFFFFFFFFFFFFFFFFFF AND DUP2 MSTORE POP POP DUP1 PUSH20 0xFFFFFFFFFFFFFFFFFFFFFFFFFFFFFFFFFFFFFFFF AND PUSH1 0xA0 DUP2 PUSH20 0xFFFFFFFFFFFFFFFFFFFFFFFFFFFFFFFFFFFFFFFF AND DUP2 MSTORE POP POP POP POP PUSH2 0x13C JUMP JUMPDEST PUSH0 PUSH0 REVERT JUMPDEST PUSH0 PUSH20 0xFFFFFFFFFFFFFFFFFFFFFFFFFFFFFFFFFFFFFFFF DUP3 AND SWAP1 POP SWAP2 SWAP1 POP JUMP JUMPDEST PUSH0 PUSH2 0xCD DUP3 PUSH2 0xA4 JUMP JUMPDEST SWAP1 POP SWAP2 SWAP1 POP JUMP JUMPDEST PUSH2 0xDD DUP2 PUSH2 0xC3 JUMP JUMPDEST DUP2 EQ PUSH2 0xE7 JUMPI PUSH0 PUSH0 REVERT JUMPDEST POP JUMP JUMPDEST PUSH0 DUP2 MLOAD SWAP1 POP PUSH2 0xF8 DUP2 PUSH2 0xD4 JUMP JUMPDEST SWAP3 SWAP2 POP POP JUMP JUMPDEST PUSH0 PUSH0 PUSH1 0x40 DUP4 DUP6 SUB SLT ISZERO PUSH2 0x114 JUMPI PUSH2 0x113 PUSH2 0xA0 JUMP JUMPDEST JUMPDEST PUSH0 PUSH2 0x121 DUP6 DUP3 DUP7 ADD PUSH2 0xEA JUMP JUMPDEST SWAP3 POP POP PUSH1 0x20 PUSH2 0x132 DUP6 DUP3 DUP7 ADD PUSH2 0xEA JUMP JUMPDEST SWAP2 POP POP SWAP3 POP SWAP3 SWAP1 POP JUMP JUMPDEST PUSH1 0x80 MLOAD PUSH1 0xA0 MLOAD PUSH2 0x16A0 PUSH2 0x1D4 PUSH0 CODECOPY PUSH0 DUP2 DUP2 PUSH2 0x2D6 ADD MSTORE DUP2 DUP2 PUSH2 0x4B9 ADD MSTORE DUP2 DUP2 PUSH2 0x648 ADD MSTORE DUP2 DUP2 PUSH2 0x8A2 ADD MSTORE DUP2 DUP2 PUSH2 0x99B ADD MSTORE DUP2 DUP2 PUSH2 0xAC5 ADD MSTORE DUP2 DUP2 PUSH2 0xB2D ADD MSTORE DUP2 DUP2 PUSH2 0xD27 ADD MSTORE PUSH2 0xDCF ADD MSTORE PUSH0 DUP2 DUP2 PUSH2 0x1EE ADD MSTORE DUP2 DUP2 PUSH2 0x23B ADD MSTORE DUP2 DUP2 PUSH2 0x41D ADD MSTORE DUP2 DUP2 PUSH2 0x5AA ADD MSTORE DUP2 DUP2 PUSH2 0x80A ADD MSTORE DUP2 DUP2 PUSH2 0x946 ADD MSTORE DUP2 DUP2 PUSH2 0xA6D ADD MSTORE DUP2 DUP2 PUSH2 0xAE6 ADD MSTORE DUP2 DUP2 PUSH2 0xB0C ADD MSTORE PUSH2 0xC8F ADD MSTORE PUSH2 0x16A0 PUSH0 RETURN INVALID PUSH1 0x80 PUSH1 0x40 MSTORE CALLVALUE DUP1 ISZERO PUSH2 0xF JUMPI PUSH0 PUSH0 REVERT JUMPDEST POP PUSH1 0x4 CALLDATASIZE LT PUSH2 0x91 JUMPI PUSH0 CALLDATALOAD PUSH1 0xE0 SHR DUP1 PUSH4 0x70A08231 GT PUSH2 0x64 JUMPI DUP1 PUSH4 0x70A08231 EQ PUSH2 0x10D JUMPI DUP1 PUSH4 0x9C8F9F23 EQ PUSH2 0x13D JUMPI DUP1 PUSH4 0x9CD441DA EQ PUSH2 0x16E JUMPI DUP1 PUSH4 0xD004F0F7 EQ PUSH2 0x19E JUMPI DUP1 PUSH4 0xD21220A7 EQ PUSH2 0x1CE JUMPI PUSH2 0x91 JUMP JUMPDEST DUP1 PUSH4 0xDFE1681 EQ PUSH2 0x95 JUMPI DUP1 PUSH4 0x18160DDD EQ PUSH2 0xB3 JUMPI DUP1 PUSH4 0x443CB4BC EQ PUSH2 0xD1 JUMPI DUP1 PUSH4 0x5A76F25E EQ PUSH2 0xEF JUMPI JUMPDEST PUSH0 PUSH0 REVERT JUMPDEST PUSH2 0x9D PUSH2 0x1EC JUMP JUMPDEST PUSH1 0x40 MLOAD PUSH2 0xAA SWAP2 SWAP1 PUSH2 0xFEA JUMP JUMPDEST PUSH1 0x40 MLOAD DUP1 SWAP2 SUB SWAP1 RETURN JUMPDEST PUSH2 0xBB PUSH2 0x210 JUMP JUMPDEST PUSH1 0x40 MLOAD PUSH2 0xC8 SWAP2 SWAP1 PUSH2 0x101B JUMP JUMPDEST PUSH1 0x40 MLOAD DUP1 SWAP2 SUB SWAP1 RETURN JUMPDEST PUSH2 0xD9 PUSH2 0x216 JUMP JUMPDEST PUSH1 0x40 MLOAD PUSH2 0xE6 SWAP2 SWAP1 PUSH2 0x101B JUMP JUMPDEST PUSH1 0x40 MLOAD DUP1 SWAP2 SUB SWAP1 RETURN JUMPDEST PUSH2 0xF7 PUSH2 0x21B JUMP JUMPDEST PUSH1 0x40 MLOAD PUSH2 0x104 SWAP2 SWAP1 PUSH2 0x101B JUMP JUMPDEST PUSH1 0x40 MLOAD DUP1 SWAP2 SUB SWAP1 RETURN JUMPDEST PUSH2 0x127 PUSH1 0x4 DUP1 CALLDATASIZE SUB DUP2 ADD SWAP1 PUSH2 0x122 SWAP2 SWAP1 PUSH2 0x1073 JUMP JUMPDEST PUSH2 0x221 JUMP JUMPDEST PUSH1 0x40 MLOAD PUSH2 0x134 SWAP2 SWAP1 PUSH2 0x101B JUMP JUMPDEST PUSH1 0x40 MLOAD DUP1 SWAP2 SUB SWAP1 RETURN JUMPDEST PUSH2 0x157 PUSH1 0x4 DUP1 CALLDATASIZE SUB DUP2 ADD SWAP1 PUSH2 0x152 SWAP2 SWAP1 PUSH2 0x10C8 JUMP JUMPDEST PUSH2 0x236 JUMP JUMPDEST PUSH1 0x40 MLOAD PUSH2 0x165 SWAP3 SWAP2 SWAP1 PUSH2 0x10F3 JUMP JUMPDEST PUSH1 0x40 MLOAD DUP1 SWAP2 SUB SWAP1 RETURN JUMPDEST PUSH2 0x188 PUSH1 0x4 DUP1 CALLDATASIZE SUB DUP2 ADD SWAP1 PUSH2 0x183 SWAP2 SWAP1 PUSH2 0x111A JUMP JUMPDEST PUSH2 0x55A JUMP JUMPDEST PUSH1 0x40 MLOAD PUSH2 0x195 SWAP2 SWAP1 PUSH2 0x101B JUMP JUMPDEST PUSH1 0x40 MLOAD DUP1 SWAP2 SUB SWAP1 RETURN JUMPDEST PUSH2 0x1B8 PUSH1 0x4 DUP1 CALLDATASIZE SUB DUP2 ADD SWAP1 PUSH2 0x1B3 SWAP2 SWAP1 PUSH2 0x1158 JUMP JUMPDEST PUSH2 0x943 JUMP JUMPDEST PUSH1 0x40 MLOAD PUSH2 0x1C5 SWAP2 SWAP1 PUSH2 0x101B JUMP JUMPDEST PUSH1 0x40 MLOAD DUP1 SWAP2 SUB SWAP1 RETURN JUMPDEST PUSH2 0x1D6 PUSH2 0xDCD JUMP JUMPDEST PUSH1 0x40 MLOAD PUSH2 0x1E3 SWAP2 SWAP1 PUSH2 0xFEA JUMP JUMPDEST PUSH1 0x40 MLOAD DUP1 SWAP2 SUB SWAP1 RETURN JUMPDEST PUSH32 0x0 DUP2 JUMP JUMPDEST PUSH1 0x2 SLOAD DUP2 JUMP JUMPDEST PUSH0 SLOAD DUP2 JUMP JUMPDEST PUSH1 0x1 SLOAD DUP2 JUMP JUMPDEST PUSH1 0x3 PUSH1 0x20 MSTORE DUP1 PUSH0 MSTORE PUSH1 0x40 PUSH0 KECCAK256 PUSH0 SWAP2 POP SWAP1 POP SLOAD DUP2 JUMP JUMPDEST PUSH0 PUSH0 PUSH0 PUSH32 0x0 PUSH20 0xFFFFFFFFFFFFFFFFFFFFFFFFFFFFFFFFFFFFFFFF AND PUSH4 0x70A08231 ADDRESS PUSH1 0x40 MLOAD DUP3 PUSH4 0xFFFFFFFF AND PUSH1 0xE0 SHL DUP2 MSTORE PUSH1 0x4 ADD PUSH2 0x292 SWAP2 SWAP1 PUSH2 0x11A5 JUMP JUMPDEST PUSH1 0x20 PUSH1 0x40 MLOAD DUP1 DUP4 SUB DUP2 DUP7 GAS STATICCALL ISZERO DUP1 ISZERO PUSH2 0x2AD JUMPI RETURNDATASIZE PUSH0 PUSH0 RETURNDATACOPY RETURNDATASIZE PUSH0 REVERT JUMPDEST POP POP POP POP PUSH1 0x40 MLOAD RETURNDATASIZE PUSH1 0x1F NOT PUSH1 0x1F DUP3 ADD AND DUP3 ADD DUP1 PUSH1 0x40 MSTORE POP DUP2 ADD SWAP1 PUSH2 0x2D1 SWAP2 SWAP1 PUSH2 0x11D2 JUMP JUMPDEST SWAP1 POP PUSH0 PUSH32 0x0 PUSH20 0xFFFFFFFFFFFFFFFFFFFFFFFFFFFFFFFFFFFFFFFF AND PUSH4 0x70A08231 ADDRESS PUSH1 0x40 MLOAD DUP3 PUSH4 0xFFFFFFFF AND PUSH1 0xE0 SHL DUP2 MSTORE PUSH1 0x4 ADD PUSH2 0x32D SWAP2 SWAP1 PUSH2 0x11A5 JUMP JUMPDEST PUSH1 0x20 PUSH1 0x40 MLOAD DUP1 DUP4 SUB DUP2 DUP7 GAS STATICCALL ISZERO DUP1 ISZERO PUSH2 0x348 JUMPI RETURNDATASIZE PUSH0 PUSH0 RETURNDATACOPY RETURNDATASIZE PUSH0 REVERT JUMPDEST POP POP POP POP PUSH1 0x40 MLOAD RETURNDATASIZE PUSH1 0x1F NOT PUSH1 0x1F DUP3 ADD AND DUP3 ADD DUP1 PUSH1 0x40 MSTORE POP DUP2 ADD SWAP1 PUSH2 0x36C SWAP2 SWAP1 PUSH2 0x11D2 JUMP JUMPDEST SWAP1 POP PUSH1 0x2 SLOAD DUP3 DUP7 PUSH2 0x37D SWAP2 SWAP1 PUSH2 0x122A JUMP JUMPDEST PUSH2 0x387 SWAP2 SWAP1 PUSH2 0x1298 JUMP JUMPDEST SWAP4 POP PUSH1 0x2 SLOAD DUP2 DUP7 PUSH2 0x398 SWAP2 SWAP1 PUSH2 0x122A JUMP JUMPDEST PUSH2 0x3A2 SWAP2 SWAP1 PUSH2 0x1298 JUMP JUMPDEST SWAP3 POP PUSH0 DUP5 GT DUP1 ISZERO PUSH2 0x3B2 JUMPI POP PUSH0 DUP4 GT JUMPDEST PUSH2 0x3F1 JUMPI PUSH1 0x40 MLOAD PUSH32 0x8C379A000000000000000000000000000000000000000000000000000000000 DUP2 MSTORE PUSH1 0x4 ADD PUSH2 0x3E8 SWAP1 PUSH2 0x1322 JUMP JUMPDEST PUSH1 0x40 MLOAD DUP1 SWAP2 SUB SWAP1 REVERT JUMPDEST PUSH2 0x3FB CALLER DUP7 PUSH2 0xDF1 JUMP JUMPDEST PUSH2 0x41B DUP5 DUP4 PUSH2 0x40A SWAP2 SWAP1 PUSH2 0x1340 JUMP JUMPDEST DUP5 DUP4 PUSH2 0x416 SWAP2 SWAP1 PUSH2 0x1340 JUMP JUMPDEST PUSH2 0xE60 JUMP JUMPDEST PUSH32 0x0 PUSH20 0xFFFFFFFFFFFFFFFFFFFFFFFFFFFFFFFFFFFFFFFF AND PUSH4 0xA9059CBB CALLER DUP7 PUSH1 0x40 MLOAD DUP4 PUSH4 0xFFFFFFFF AND PUSH1 0xE0 SHL DUP2 MSTORE PUSH1 0x4 ADD PUSH2 0x476 SWAP3 SWAP2 SWAP1 PUSH2 0x1373 JUMP JUMPDEST PUSH1 0x20 PUSH1 0x40 MLOAD DUP1 DUP4 SUB DUP2 PUSH0 DUP8 GAS CALL ISZERO DUP1 ISZERO PUSH2 0x492 JUMPI RETURNDATASIZE PUSH0 PUSH0 RETURNDATACOPY RETURNDATASIZE PUSH0 REVERT JUMPDEST POP POP POP POP PUSH1 0x40 MLOAD RETURNDATASIZE PUSH1 0x1F NOT PUSH1 0x1F DUP3 ADD AND DUP3 ADD DUP1 PUSH1 0x40 MSTORE POP DUP2 ADD SWAP1 PUSH2 0x4B6 SWAP2 SWAP1 PUSH2 0x13CF JUMP JUMPDEST POP PUSH32 0x0 PUSH20 0xFFFFFFFFFFFFFFFFFFFFFFFFFFFFFFFFFFFFFFFF AND PUSH4 0xA9059CBB CALLER DUP6 PUSH1 0x40 MLOAD DUP4 PUSH4 0xFFFFFFFF AND PUSH1 0xE0 SHL DUP2 MSTORE PUSH1 0x4 ADD PUSH2 0x512 SWAP3 SWAP2 SWAP1 PUSH2 0x1373 JUMP JUMPDEST PUSH1 0x20 PUSH1 0x40 MLOAD DUP1 DUP4 SUB DUP2 PUSH0 DUP8 GAS CALL ISZERO DUP1 ISZERO PUSH2 0x52E JUMPI RETURNDATASIZE PUSH0 PUSH0 RETURNDATACOPY RETURNDATASIZE PUSH0 REVERT JUMPDEST POP POP POP POP PUSH1 0x40 MLOAD RETURNDATASIZE PUSH1 0x1F NOT PUSH1 0x1F DUP3 ADD AND DUP3 ADD DUP1 PUSH1 0x40 MSTORE POP DUP2 ADD SWAP1 PUSH2 0x552 SWAP2 SWAP1 PUSH2 0x13CF JUMP JUMPDEST POP POP POP SWAP2 POP SWAP2 JUMP JUMPDEST PUSH0 PUSH0 DUP4 GT DUP1 ISZERO PUSH2 0x569 JUMPI POP PUSH0 DUP3 GT JUMPDEST PUSH2 0x5A8 JUMPI PUSH1 0x40 MLOAD PUSH32 0x8C379A000000000000000000000000000000000000000000000000000000000 DUP2 MSTORE PUSH1 0x4 ADD PUSH2 0x59F SWAP1 PUSH2 0x1444 JUMP JUMPDEST PUSH1 0x40 MLOAD DUP1 SWAP2 SUB SWAP1 REVERT JUMPDEST PUSH32 0x0 PUSH20 0xFFFFFFFFFFFFFFFFFFFFFFFFFFFFFFFFFFFFFFFF AND PUSH4 0x23B872DD CALLER ADDRESS DUP7 PUSH1 0x40 MLOAD DUP5 PUSH4 0xFFFFFFFF AND PUSH1 0xE0 SHL DUP2 MSTORE PUSH1 0x4 ADD PUSH2 0x605 SWAP4 SWAP3 SWAP2 SWAP1 PUSH2 0x1462 JUMP JUMPDEST PUSH1 0x20 PUSH1 0x40 MLOAD DUP1 DUP4 SUB DUP2 PUSH0 DUP8 GAS CALL ISZERO DUP1 ISZERO PUSH2 0x621 JUMPI RETURNDATASIZE PUSH0 PUSH0 RETURNDATACOPY RETURNDATASIZE PUSH0 REVERT JUMPDEST POP POP POP POP PUSH1 0x40 MLOAD RETURNDATASIZE PUSH1 0x1F NOT PUSH1 0x1F DUP3 ADD AND DUP3 ADD DUP1 PUSH1 0x40 MSTORE POP DUP2 ADD SWAP1 PUSH2 0x645 SWAP2 SWAP1 PUSH2 0x13CF JUMP JUMPDEST POP PUSH32 0x0 PUSH20 0xFFFFFFFFFFFFFFFFFFFFFFFFFFFFFFFFFFFFFFFF AND PUSH4 0x23B872DD CALLER ADDRESS DUP6 PUSH1 0x40 MLOAD DUP5 PUSH4 0xFFFFFFFF AND PUSH1 0xE0 SHL DUP2 MSTORE PUSH1 0x4 ADD PUSH2 0x6A3 SWAP4 SWAP3 SWAP2 SWAP1 PUSH2 0x1462 JUMP JUMPDEST PUSH1 0x20 PUSH1 0x40 MLOAD DUP1 DUP4 SUB DUP2 PUSH0 DUP8 GAS CALL ISZERO DUP1 ISZERO PUSH2 0x6BF JUMPI RETURNDATASIZE PUSH0 PUSH0 RETURNDATACOPY RETURNDATASIZE PUSH0 REVERT JUMPDEST POP POP POP POP PUSH1 0x40 MLOAD RETURNDATASIZE PUSH1 0x1F NOT PUSH1 0x1F DUP3 ADD AND DUP3 ADD DUP1 PUSH1 0x40 MSTORE POP DUP2 ADD SWAP1 PUSH2 0x6E3 SWAP2 SWAP1 PUSH2 0x13CF JUMP JUMPDEST POP PUSH0 PUSH0 SLOAD GT DUP1 PUSH2 0x6F4 JUMPI POP PUSH0 PUSH1 0x1 SLOAD GT JUMPDEST ISZERO PUSH2 0x755 JUMPI DUP3 PUSH1 0x1 SLOAD PUSH2 0x707 SWAP2 SWAP1 PUSH2 0x122A JUMP JUMPDEST DUP3 PUSH0 SLOAD PUSH2 0x714 SWAP2 SWAP1 PUSH2 0x122A JUMP JUMPDEST EQ PUSH2 0x754 JUMPI PUSH1 0x40 MLOAD PUSH32 0x8C379A000000000000000000000000000000000000000000000000000000000 DUP2 MSTORE PUSH1 0x4 ADD PUSH2 0x74B SWAP1 PUSH2 0x14E1 JUMP JUMPDEST PUSH1 0x40 MLOAD DUP1 SWAP2 SUB SWAP1 REVERT JUMPDEST JUMPDEST PUSH0 PUSH1 0x2 SLOAD SUB PUSH2 0x779 JUMPI PUSH2 0x772 DUP3 DUP5 PUSH2 0x76D SWAP2 SWAP1 PUSH2 0x122A JUMP JUMPDEST PUSH2 0xE71 JUMP JUMPDEST SWAP1 POP PUSH2 0x7B9 JUMP JUMPDEST PUSH2 0x7B6 PUSH0 SLOAD PUSH1 0x2 SLOAD DUP6 PUSH2 0x78C SWAP2 SWAP1 PUSH2 0x122A JUMP JUMPDEST PUSH2 0x796 SWAP2 SWAP1 PUSH2 0x1298 JUMP JUMPDEST PUSH1 0x1 SLOAD PUSH1 0x2 SLOAD DUP6 PUSH2 0x7A7 SWAP2 SWAP1 PUSH2 0x122A JUMP JUMPDEST PUSH2 0x7B1 SWAP2 SWAP1 PUSH2 0x1298 JUMP JUMPDEST PUSH2 0xEE8 JUMP JUMPDEST SWAP1 POP JUMPDEST PUSH0 DUP2 GT PUSH2 0x7FB JUMPI PUSH1 0x40 MLOAD PUSH32 0x8C379A000000000000000000000000000000000000000000000000000000000 DUP2 MSTORE PUSH1 0x4 ADD PUSH2 0x7F2 SWAP1 PUSH2 0x1549 JUMP JUMPDEST PUSH1 0x40 MLOAD DUP1 SWAP2 SUB SWAP1 REVERT JUMPDEST PUSH2 0x805 CALLER DUP3 PUSH2 0xF01 JUMP JUMPDEST PUSH2 0x93D PUSH32 0x0 PUSH20 0xFFFFFFFFFFFFFFFFFFFFFFFFFFFFFFFFFFFFFFFF AND PUSH4 0x70A08231 ADDRESS PUSH1 0x40 MLOAD DUP3 PUSH4 0xFFFFFFFF AND PUSH1 0xE0 SHL DUP2 MSTORE PUSH1 0x4 ADD PUSH2 0x861 SWAP2 SWAP1 PUSH2 0x11A5 JUMP JUMPDEST PUSH1 0x20 PUSH1 0x40 MLOAD DUP1 DUP4 SUB DUP2 DUP7 GAS STATICCALL ISZERO DUP1 ISZERO PUSH2 0x87C JUMPI RETURNDATASIZE PUSH0 PUSH0 RETURNDATACOPY RETURNDATASIZE PUSH0 REVERT JUMPDEST POP POP POP POP PUSH1 0x40 MLOAD RETURNDATASIZE PUSH1 0x1F NOT PUSH1 0x1F DUP3 ADD AND DUP3 ADD DUP1 PUSH1 0x40 MSTORE POP DUP2 ADD SWAP1 PUSH2 0x8A0 SWAP2 SWAP1 PUSH2 0x11D2 JUMP JUMPDEST PUSH32 0x0 PUSH20 0xFFFFFFFFFFFFFFFFFFFFFFFFFFFFFFFFFFFFFFFF AND PUSH4 0x70A08231 ADDRESS PUSH1 0x40 MLOAD DUP3 PUSH4 0xFFFFFFFF AND PUSH1 0xE0 SHL DUP2 MSTORE PUSH1 0x4 ADD PUSH2 0x8F9 SWAP2 SWAP1 PUSH2 0x11A5 JUMP JUMPDEST PUSH1 0x20 PUSH1 0x40 MLOAD DUP1 DUP4 SUB DUP2 DUP7 GAS STATICCALL ISZERO DUP1 ISZERO PUSH2 0x914 JUMPI RETURNDATASIZE PUSH0 PUSH0 RETURNDATACOPY RETURNDATASIZE PUSH0 REVERT JUMPDEST POP POP POP POP PUSH1 0x40 MLOAD RETURNDATASIZE PUSH1 0x1F NOT PUSH1 0x1F DUP3 ADD AND DUP3 ADD DUP1 PUSH1 0x40 MSTORE POP DUP2 ADD SWAP1 PUSH2 0x938 SWAP2 SWAP1 PUSH2 0x11D2 JUMP JUMPDEST PUSH2 0xE60 JUMP JUMPDEST SWAP3 SWAP2 POP POP JUMP JUMPDEST PUSH0 PUSH32 0x0 PUSH20 0xFFFFFFFFFFFFFFFFFFFFFFFFFFFFFFFFFFFFFFFF AND DUP4 PUSH20 0xFFFFFFFFFFFFFFFFFFFFFFFFFFFFFFFFFFFFFFFF AND EQ DUP1 PUSH2 0x9E9 JUMPI POP PUSH32 0x0 PUSH20 0xFFFFFFFFFFFFFFFFFFFFFFFFFFFFFFFFFFFFFFFF AND DUP4 PUSH20 0xFFFFFFFFFFFFFFFFFFFFFFFFFFFFFFFFFFFFFFFF AND EQ JUMPDEST PUSH2 0xA28 JUMPI PUSH1 0x40 MLOAD PUSH32 0x8C379A000000000000000000000000000000000000000000000000000000000 DUP2 MSTORE PUSH1 0x4 ADD PUSH2 0xA1F SWAP1 PUSH2 0x15B1 JUMP JUMPDEST PUSH1 0x40 MLOAD DUP1 SWAP2 SUB SWAP1 REVERT JUMPDEST PUSH0 DUP3 GT PUSH2 0xA6A JUMPI PUSH1 0x40 MLOAD PUSH32 0x8C379A000000000000000000000000000000000000000000000000000000000 DUP2 MSTORE PUSH1 0x4 ADD PUSH2 0xA61 SWAP1 PUSH2 0x1619 JUMP JUMPDEST PUSH1 0x40 MLOAD DUP1 SWAP2 SUB SWAP1 REVERT JUMPDEST PUSH0 PUSH32 0x0 PUSH20 0xFFFFFFFFFFFFFFFFFFFFFFFFFFFFFFFFFFFFFFFF AND DUP5 PUSH20 0xFFFFFFFFFFFFFFFFFFFFFFFFFFFFFFFFFFFFFFFF AND EQ SWAP1 POP PUSH0 PUSH0 DUP3 PUSH2 0xB0A JUMPI PUSH32 0x0 PUSH32 0x0 PUSH2 0xB4D JUMP JUMPDEST PUSH32 0x0 PUSH32 0x0 JUMPDEST SWAP2 POP SWAP2 POP PUSH0 PUSH0 DUP5 PUSH2 0xB62 JUMPI PUSH1 0x1 SLOAD PUSH0 SLOAD PUSH2 0xB68 JUMP JUMPDEST PUSH0 SLOAD PUSH1 0x1 SLOAD JUMPDEST SWAP2 POP SWAP2 POP DUP4 PUSH20 0xFFFFFFFFFFFFFFFFFFFFFFFFFFFFFFFFFFFFFFFF AND PUSH4 0x23B872DD CALLER ADDRESS DUP11 PUSH1 0x40 MLOAD DUP5 PUSH4 0xFFFFFFFF AND PUSH1 0xE0 SHL DUP2 MSTORE PUSH1 0x4 ADD PUSH2 0xBA9 SWAP4 SWAP3 SWAP2 SWAP1 PUSH2 0x1462 JUMP JUMPDEST PUSH1 0x20 PUSH1 0x40 MLOAD DUP1 DUP4 SUB DUP2 PUSH0 DUP8 GAS CALL ISZERO DUP1 ISZERO PUSH2 0xBC5 JUMPI RETURNDATASIZE PUSH0 PUSH0 RETURNDATACOPY RETURNDATASIZE PUSH0 REVERT JUMPDEST POP POP POP POP PUSH1 0x40 MLOAD RETURNDATASIZE PUSH1 0x1F NOT PUSH1 0x1F DUP3 ADD AND DUP3 ADD DUP1 PUSH1 0x40 MSTORE POP DUP2 ADD SWAP1 PUSH2 0xBE9 SWAP2 SWAP1 PUSH2 0x13CF JUMP JUMPDEST POP DUP7 DUP3 PUSH2 0xBF6 SWAP2 SWAP1 PUSH2 0x1637 JUMP JUMPDEST DUP8 DUP3 PUSH2 0xC02 SWAP2 SWAP1 PUSH2 0x122A JUMP JUMPDEST PUSH2 0xC0C SWAP2 SWAP1 PUSH2 0x1298 JUMP JUMPDEST SWAP6 POP DUP3 PUSH20 0xFFFFFFFFFFFFFFFFFFFFFFFFFFFFFFFFFFFFFFFF AND PUSH4 0xA9059CBB CALLER DUP9 PUSH1 0x40 MLOAD DUP4 PUSH4 0xFFFFFFFF AND PUSH1 0xE0 SHL DUP2 MSTORE PUSH1 0x4 ADD PUSH2 0xC49 SWAP3 SWAP2 SWAP1 PUSH2 0x1373 JUMP JUMPDEST PUSH1 0x20 PUSH1 0x40 MLOAD DUP1 DUP4 SUB DUP2 PUSH0 DUP8 GAS CALL ISZERO DUP1 ISZERO PUSH2 0xC65 JUMPI RETURNDATASIZE PUSH0 PUSH0 RETURNDATACOPY RETURNDATASIZE PUSH0 REVERT JUMPDEST POP POP POP POP PUSH1 0x40 MLOAD RETURNDATASIZE PUSH1 0x1F NOT PUSH1 0x1F DUP3 ADD AND DUP3 ADD DUP1 PUSH1 0x40 MSTORE POP DUP2 ADD SWAP1 PUSH2 0xC89 SWAP2 SWAP1 PUSH2 0x13CF JUMP JUMPDEST POP PUSH2 0xDC2 PUSH32 0x0 PUSH20 0xFFFFFFFFFFFFFFFFFFFFFFFFFFFFFFFFFFFFFFFF AND PUSH4 0x70A08231 ADDRESS PUSH1 0x40 MLOAD DUP3 PUSH4 0xFFFFFFFF AND PUSH1 0xE0 SHL DUP2 MSTORE PUSH1 0x4 ADD PUSH2 0xCE6 SWAP2 SWAP1 PUSH2 0x11A5 JUMP JUMPDEST PUSH1 0x20 PUSH1 0x40 MLOAD DUP1 DUP4 SUB DUP2 DUP7 GAS STATICCALL ISZERO DUP1 ISZERO PUSH2 0xD01 JUMPI RETURNDATASIZE PUSH0 PUSH0 RETURNDATACOPY RETURNDATASIZE PUSH0 REVERT JUMPDEST POP POP POP POP PUSH1 0x40 MLOAD RETURNDATASIZE PUSH1 0x1F NOT PUSH1 0x1F DUP3 ADD AND DUP3 ADD DUP1 PUSH1 0x40 MSTORE POP DUP2 ADD SWAP1 PUSH2 0xD25 SWAP2 SWAP1 PUSH2 0x11D2 JUMP JUMPDEST PUSH32 0x0 PUSH20 0xFFFFFFFFFFFFFFFFFFFFFFFFFFFFFFFFFFFFFFFF AND PUSH4 0x70A08231 ADDRESS PUSH1 0x40 MLOAD DUP3 PUSH4 0xFFFFFFFF AND PUSH1 0xE0 SHL DUP2 MSTORE PUSH1 0x4 ADD PUSH2 0xD7E SWAP2 SWAP1 PUSH2 0x11A5 JUMP JUMPDEST PUSH1 0x20 PUSH1 0x40 MLOAD DUP1 DUP4 SUB DUP2 DUP7 GAS STATICCALL ISZERO DUP1 ISZERO PUSH2 0xD99 JUMPI RETURNDATASIZE PUSH0 PUSH0 RETURNDATACOPY RETURNDATASIZE PUSH0 REVERT JUMPDEST POP POP POP POP PUSH1 0x40 MLOAD RETURNDATASIZE PUSH1 0x1F NOT PUSH1 0x1F DUP3 ADD AND DUP3 ADD DUP1 PUSH1 0x40 MSTORE POP DUP2 ADD SWAP1 PUSH2 0xDBD SWAP2 SWAP1 PUSH2 0x11D2 JUMP JUMPDEST PUSH2 0xE60 JUMP JUMPDEST POP POP POP POP POP SWAP3 SWAP2 POP POP JUMP JUMPDEST PUSH32 0x0 DUP2 JUMP JUMPDEST DUP1 PUSH1 0x3 PUSH0 DUP5 PUSH20 0xFFFFFFFFFFFFFFFFFFFFFFFFFFFFFFFFFFFFFFFF AND PUSH20 0xFFFFFFFFFFFFFFFFFFFFFFFFFFFFFFFFFFFFFFFF AND DUP2 MSTORE PUSH1 0x20 ADD SWAP1 DUP2 MSTORE PUSH1 0x20 ADD PUSH0 KECCAK256 PUSH0 DUP3 DUP3 SLOAD PUSH2 0xE3D SWAP2 SWAP1 PUSH2 0x1340 JUMP JUMPDEST SWAP3 POP POP DUP2 SWAP1 SSTORE POP DUP1 PUSH1 0x2 PUSH0 DUP3 DUP3 SLOAD PUSH2 0xE55 SWAP2 SWAP1 PUSH2 0x1340 JUMP JUMPDEST SWAP3 POP POP DUP2 SWAP1 SSTORE POP POP POP JUMP JUMPDEST DUP2 PUSH0 DUP2 SWAP1 SSTORE POP DUP1 PUSH1 0x1 DUP2 SWAP1 SSTORE POP POP POP JUMP JUMPDEST PUSH0 PUSH1 0x3 DUP3 GT ISZERO PUSH2 0xED6 JUMPI DUP2 SWAP1 POP PUSH0 PUSH1 0x1 PUSH1 0x2 DUP5 PUSH2 0xE8E SWAP2 SWAP1 PUSH2 0x1298 JUMP JUMPDEST PUSH2 0xE98 SWAP2 SWAP1 PUSH2 0x1637 JUMP JUMPDEST SWAP1 POP JUMPDEST DUP2 DUP2 LT ISZERO PUSH2 0xED0 JUMPI DUP1 SWAP2 POP PUSH1 0x2 DUP2 DUP3 DUP6 PUSH2 0xEB5 SWAP2 SWAP1 PUSH2 0x1298 JUMP JUMPDEST PUSH2 0xEBF SWAP2 SWAP1 PUSH2 0x1637 JUMP JUMPDEST PUSH2 0xEC9 SWAP2 SWAP1 PUSH2 0x1298 JUMP JUMPDEST SWAP1 POP PUSH2 0xE9B JUMP JUMPDEST POP PUSH2 0xEE3 JUMP JUMPDEST PUSH0 DUP3 EQ PUSH2 0xEE2 JUMPI PUSH1 0x1 SWAP1 POP JUMPDEST JUMPDEST SWAP2 SWAP1 POP JUMP JUMPDEST PUSH0 DUP2 DUP4 GT ISZERO PUSH2 0xEF7 JUMPI DUP2 PUSH2 0xEF9 JUMP JUMPDEST DUP3 JUMPDEST SWAP1 POP SWAP3 SWAP2 POP POP JUMP JUMPDEST DUP1 PUSH1 0x3 PUSH0 DUP5 PUSH20 0xFFFFFFFFFFFFFFFFFFFFFFFFFFFFFFFFFFFFFFFF AND PUSH20 0xFFFFFFFFFFFFFFFFFFFFFFFFFFFFFFFFFFFFFFFF AND DUP2 MSTORE PUSH1 0x20 ADD SWAP1 DUP2 MSTORE PUSH1 0x20 ADD PUSH0 KECCAK256 PUSH0 DUP3 DUP3 SLOAD PUSH2 0xF4D SWAP2 SWAP1 PUSH2 0x1637 JUMP JUMPDEST SWAP3 POP POP DUP2 SWAP1 SSTORE POP DUP1 PUSH1 0x2 PUSH0 DUP3 DUP3 SLOAD PUSH2 0xF65 SWAP2 SWAP1 PUSH2 0x1637 JUMP JUMPDEST SWAP3 POP POP DUP2 SWAP1 SSTORE POP POP POP JUMP JUMPDEST PUSH0 PUSH20 0xFFFFFFFFFFFFFFFFFFFFFFFFFFFFFFFFFFFFFFFF DUP3 AND SWAP1 POP SWAP2 SWAP1 POP JUMP JUMPDEST PUSH0 DUP2 SWAP1 POP SWAP2 SWAP1 POP JUMP JUMPDEST PUSH0 PUSH2 0xFB2 PUSH2 0xFAD PUSH2 0xFA8 DUP5 PUSH2 0xF70 JUMP JUMPDEST PUSH2 0xF8F JUMP JUMPDEST PUSH2 0xF70 JUMP JUMPDEST SWAP1 POP SWAP2 SWAP1 POP JUMP JUMPDEST PUSH0 PUSH2 0xFC3 DUP3 PUSH2 0xF98 JUMP JUMPDEST SWAP1 POP SWAP2 SWAP1 POP JUMP JUMPDEST PUSH0 PUSH2 0xFD4 DUP3 PUSH2 0xFB9 JUMP JUMPDEST SWAP1 POP SWAP2 SWAP1 POP JUMP JUMPDEST PUSH2 0xFE4 DUP2 PUSH2 0xFCA JUMP JUMPDEST DUP3 MSTORE POP POP JUMP JUMPDEST PUSH0 PUSH1 0x20 DUP3 ADD SWAP1 POP PUSH2 0xFFD PUSH0 DUP4 ADD DUP5 PUSH2 0xFDB JUMP JUMPDEST SWAP3 SWAP2 POP POP JUMP JUMPDEST PUSH0 DUP2 SWAP1 POP SWAP2 SWAP1 POP JUMP JUMPDEST PUSH2 0x1015 DUP2 PUSH2 0x1003 JUMP JUMPDEST DUP3 MSTORE POP POP JUMP JUMPDEST PUSH0 PUSH1 0x20 DUP3 ADD SWAP1 POP PUSH2 0x102E PUSH0 DUP4 ADD DUP5 PUSH2 0x100C JUMP JUMPDEST SWAP3 SWAP2 POP POP JUMP JUMPDEST PUSH0 PUSH0 REVERT JUMPDEST PUSH0 PUSH2 0x1042 DUP3 PUSH2 0xF70 JUMP JUMPDEST SWAP1 POP SWAP2 SWAP1 POP JUMP JUMPDEST PUSH2 0x1052 DUP2 PUSH2 0x1038 JUMP JUMPDEST DUP2 EQ PUSH2 0x105C JUMPI PUSH0 PUSH0 REVERT JUMPDEST POP JUMP JUMPDEST PUSH0 DUP2 CALLDATALOAD SWAP1 POP PUSH2 0x106D DUP2 PUSH2 0x1049 JUMP JUMPDEST SWAP3 SWAP2 POP POP JUMP JUMPDEST PUSH0 PUSH1 0x20 DUP3 DUP5 SUB SLT ISZERO PUSH2 0x1088 JUMPI PUSH2 0x1087 PUSH2 0x1034 JUMP JUMPDEST JUMPDEST PUSH0 PUSH2 0x1095 DUP5 DUP3 DUP6 ADD PUSH2 0x105F JUMP JUMPDEST SWAP2 POP POP SWAP3 SWAP2 POP POP JUMP JUMPDEST PUSH2 0x10A7 DUP2 PUSH2 0x1003 JUMP JUMPDEST DUP2 EQ PUSH2 0x10B1 JUMPI PUSH0 PUSH0 REVERT JUMPDEST POP JUMP JUMPDEST PUSH0 DUP2 CALLDATALOAD SWAP1 POP PUSH2 0x10C2 DUP2 PUSH2 0x109E JUMP JUMPDEST SWAP3 SWAP2 POP POP JUMP JUMPDEST PUSH0 PUSH1 0x20 DUP3 DUP5 SUB SLT ISZERO PUSH2 0x10DD JUMPI PUSH2 0x10DC PUSH2 0x1034 JUMP JUMPDEST JUMPDEST PUSH0 PUSH2 0x10EA DUP5 DUP3 DUP6 ADD PUSH2 0x10B4 JUMP JUMPDEST SWAP2 POP POP SWAP3 SWAP2 POP POP JUMP JUMPDEST PUSH0 PUSH1 0x40 DUP3 ADD SWAP1 POP PUSH2 0x1106 PUSH0 DUP4 ADD DUP6 PUSH2 0x100C JUMP JUMPDEST PUSH2 0x1113 PUSH1 0x20 DUP4 ADD DUP5 PUSH2 0x100C JUMP JUMPDEST SWAP4 SWAP3 POP POP POP JUMP JUMPDEST PUSH0 PUSH0 PUSH1 0x40 DUP4 DUP6 SUB SLT ISZERO PUSH2 0x1130 JUMPI PUSH2 0x112F PUSH2 0x1034 JUMP JUMPDEST JUMPDEST PUSH0 PUSH2 0x113D DUP6 DUP3 DUP7 ADD PUSH2 0x10B4 JUMP JUMPDEST SWAP3 POP POP PUSH1 0x20 PUSH2 0x114E DUP6 DUP3 DUP7 ADD PUSH2 0x10B4 JUMP JUMPDEST SWAP2 POP POP SWAP3 POP SWAP3 SWAP1 POP JUMP JUMPDEST PUSH0 PUSH0 PUSH1 0x40 DUP4 DUP6 SUB SLT ISZERO PUSH2 0x116E JUMPI PUSH2 0x116D PUSH2 0x1034 JUMP JUMPDEST JUMPDEST PUSH0 PUSH2 0x117B DUP6 DUP3 DUP7 ADD PUSH2 0x105F JUMP JUMPDEST SWAP3 POP POP PUSH1 0x20 PUSH2 0x118C DUP6 DUP3 DUP7 ADD PUSH2 0x10B4 JUMP JUMPDEST SWAP2 POP POP SWAP3 POP SWAP3 SWAP1 POP JUMP JUMPDEST PUSH2 0x119F DUP2 PUSH2 0x1038 JUMP JUMPDEST DUP3 MSTORE POP POP JUMP JUMPDEST PUSH0 PUSH1 0x20 DUP3 ADD SWAP1 POP PUSH2 0x11B8 PUSH0 DUP4 ADD DUP5 PUSH2 0x1196 JUMP JUMPDEST SWAP3 SWAP2 POP POP JUMP JUMPDEST PUSH0 DUP2 MLOAD SWAP1 POP PUSH2 0x11CC DUP2 PUSH2 0x109E JUMP JUMPDEST SWAP3 SWAP2 POP POP JUMP JUMPDEST PUSH0 PUSH1 0x20 DUP3 DUP5 SUB SLT ISZERO PUSH2 0x11E7 JUMPI PUSH2 0x11E6 PUSH2 0x1034 JUMP JUMPDEST JUMPDEST PUSH0 PUSH2 0x11F4 DUP5 DUP3 DUP6 ADD PUSH2 0x11BE JUMP JUMPDEST SWAP2 POP POP SWAP3 SWAP2 POP POP JUMP JUMPDEST PUSH32 0x4E487B7100000000000000000000000000000000000000000000000000000000 PUSH0 MSTORE PUSH1 0x11 PUSH1 0x4 MSTORE PUSH1 0x24 PUSH0 REVERT JUMPDEST PUSH0 PUSH2 0x1234 DUP3 PUSH2 0x1003 JUMP JUMPDEST SWAP2 POP PUSH2 0x123F DUP4 PUSH2 0x1003 JUMP JUMPDEST SWAP3 POP DUP3 DUP3 MUL PUSH2 0x124D DUP2 PUSH2 0x1003 JUMP JUMPDEST SWAP2 POP DUP3 DUP3 DIV DUP5 EQ DUP4 ISZERO OR PUSH2 0x1264 JUMPI PUSH2 0x1263 PUSH2 0x11FD JUMP JUMPDEST JUMPDEST POP SWAP3 SWAP2 POP POP JUMP JUMPDEST PUSH32 0x4E487B7100000000000000000000000000000000000000000000000000000000 PUSH0 MSTORE PUSH1 0x12 PUSH1 0x4 MSTORE PUSH1 0x24 PUSH0 REVERT JUMPDEST PUSH0 PUSH2 0x12A2 DUP3 PUSH2 0x1003 JUMP JUMPDEST SWAP2 POP PUSH2 0x12AD DUP4 PUSH2 0x1003 JUMP JUMPDEST SWAP3 POP DUP3 PUSH2 0x12BD JUMPI PUSH2 0x12BC PUSH2 0x126B JUMP JUMPDEST JUMPDEST DUP3 DUP3 DIV SWAP1 POP SWAP3 SWAP2 POP POP JUMP JUMPDEST PUSH0 DUP3 DUP3 MSTORE PUSH1 0x20 DUP3 ADD SWAP1 POP SWAP3 SWAP2 POP POP JUMP JUMPDEST PUSH32 0x616D6F756E7430206F7220616D6F756E7431203D203000000000000000000000 PUSH0 DUP3 ADD MSTORE POP JUMP JUMPDEST PUSH0 PUSH2 0x130C PUSH1 0x16 DUP4 PUSH2 0x12C8 JUMP JUMPDEST SWAP2 POP PUSH2 0x1317 DUP3 PUSH2 0x12D8 JUMP JUMPDEST PUSH1 0x20 DUP3 ADD SWAP1 POP SWAP2 SWAP1 POP JUMP JUMPDEST PUSH0 PUSH1 0x20 DUP3 ADD SWAP1 POP DUP2 DUP2 SUB PUSH0 DUP4 ADD MSTORE PUSH2 0x1339 DUP2 PUSH2 0x1300 JUMP JUMPDEST SWAP1 POP SWAP2 SWAP1 POP JUMP JUMPDEST PUSH0 PUSH2 0x134A DUP3 PUSH2 0x1003 JUMP JUMPDEST SWAP2 POP PUSH2 0x1355 DUP4 PUSH2 0x1003 JUMP JUMPDEST SWAP3 POP DUP3 DUP3 SUB SWAP1 POP DUP2 DUP2 GT ISZERO PUSH2 0x136D JUMPI PUSH2 0x136C PUSH2 0x11FD JUMP JUMPDEST JUMPDEST SWAP3 SWAP2 POP POP JUMP JUMPDEST PUSH0 PUSH1 0x40 DUP3 ADD SWAP1 POP PUSH2 0x1386 PUSH0 DUP4 ADD DUP6 PUSH2 0x1196 JUMP JUMPDEST PUSH2 0x1393 PUSH1 0x20 DUP4 ADD DUP5 PUSH2 0x100C JUMP JUMPDEST SWAP4 SWAP3 POP POP POP JUMP JUMPDEST PUSH0 DUP2 ISZERO ISZERO SWAP1 POP SWAP2 SWAP1 POP JUMP JUMPDEST PUSH2 0x13AE DUP2 PUSH2 0x139A JUMP JUMPDEST DUP2 EQ PUSH2 0x13B8 JUMPI PUSH0 PUSH0 REVERT JUMPDEST POP JUMP JUMPDEST PUSH0 DUP2 MLOAD SWAP1 POP PUSH2 0x13C9 DUP2 PUSH2 0x13A5 JUMP JUMPDEST SWAP3 SWAP2 POP POP JUMP JUMPDEST PUSH0 PUSH1 0x20 DUP3 DUP5 SUB SLT ISZERO PUSH2 0x13E4 JUMPI PUSH2 0x13E3 PUSH2 0x1034 JUMP JUMPDEST JUMPDEST PUSH0 PUSH2 0x13F1 DUP5 DUP3 DUP6 ADD PUSH2 0x13BB JUMP JUMPDEST SWAP2 POP POP SWAP3 SWAP2 POP POP JUMP JUMPDEST PUSH32 0x616D6F756E74206973207A65726F000000000000000000000000000000000000 PUSH0 DUP3 ADD MSTORE POP JUMP JUMPDEST PUSH0 PUSH2 0x142E PUSH1 0xE DUP4 PUSH2 0x12C8 JUMP JUMPDEST SWAP2 POP PUSH2 0x1439 DUP3 PUSH2 0x13FA JUMP JUMPDEST PUSH1 0x20 DUP3 ADD SWAP1 POP SWAP2 SWAP1 POP JUMP JUMPDEST PUSH0 PUSH1 0x20 DUP3 ADD SWAP1 POP DUP2 DUP2 SUB PUSH0 DUP4 ADD MSTORE PUSH2 0x145B DUP2 PUSH2 0x1422 JUMP JUMPDEST SWAP1 POP SWAP2 SWAP1 POP JUMP JUMPDEST PUSH0 PUSH1 0x60 DUP3 ADD SWAP1 POP PUSH2 0x1475 PUSH0 DUP4 ADD DUP7 PUSH2 0x1196 JUMP JUMPDEST PUSH2 0x1482 PUSH1 0x20 DUP4 ADD DUP6 PUSH2 0x1196 JUMP JUMPDEST PUSH2 0x148F PUSH1 0x40 DUP4 ADD DUP5 PUSH2 0x100C JUMP JUMPDEST SWAP5 SWAP4 POP POP POP POP JUMP JUMPDEST PUSH32 0x64792F647820213D20792F780000000000000000000000000000000000000000 PUSH0 DUP3 ADD MSTORE POP JUMP JUMPDEST PUSH0 PUSH2 0x14CB PUSH1 0xC DUP4 PUSH2 0x12C8 JUMP JUMPDEST SWAP2 POP PUSH2 0x14D6 DUP3 PUSH2 0x1497 JUMP JUMPDEST PUSH1 0x20 DUP3 ADD SWAP1 POP SWAP2 SWAP1 POP JUMP JUMPDEST PUSH0 PUSH1 0x20 DUP3 ADD SWAP1 POP DUP2 DUP2 SUB PUSH0 DUP4 ADD MSTORE PUSH2 0x14F8 DUP2 PUSH2 0x14BF JUMP JUMPDEST SWAP1 POP SWAP2 SWAP1 POP JUMP JUMPDEST PUSH32 0x736861726573203D3D2030000000000000000000000000000000000000000000 PUSH0 DUP3 ADD MSTORE POP JUMP JUMPDEST PUSH0 PUSH2 0x1533 PUSH1 0xB DUP4 PUSH2 0x12C8 JUMP JUMPDEST SWAP2 POP PUSH2 0x153E DUP3 PUSH2 0x14FF JUMP JUMPDEST PUSH1 0x20 DUP3 ADD SWAP1 POP SWAP2 SWAP1 POP JUMP JUMPDEST PUSH0 PUSH1 0x20 DUP3 ADD SWAP1 POP DUP2 DUP2 SUB PUSH0 DUP4 ADD MSTORE PUSH2 0x1560 DUP2 PUSH2 0x1527 JUMP JUMPDEST SWAP1 POP SWAP2 SWAP1 POP JUMP JUMPDEST PUSH32 0x496E76616C696420746F6B656E00000000000000000000000000000000000000 PUSH0 DUP3 ADD MSTORE POP JUMP JUMPDEST PUSH0 PUSH2 0x159B PUSH1 0xD DUP4 PUSH2 0x12C8 JUMP JUMPDEST SWAP2 POP PUSH2 0x15A6 DUP3 PUSH2 0x1567 JUMP JUMPDEST PUSH1 0x20 DUP3 ADD SWAP1 POP SWAP2 SWAP1 POP JUMP JUMPDEST PUSH0 PUSH1 0x20 DUP3 ADD SWAP1 POP DUP2 DUP2 SUB PUSH0 DUP4 ADD MSTORE PUSH2 0x15C8 DUP2 PUSH2 0x158F JUMP JUMPDEST SWAP1 POP SWAP2 SWAP1 POP JUMP JUMPDEST PUSH32 0x616D6F756E7420696E206973207A65726F000000000000000000000000000000 PUSH0 DUP3 ADD MSTORE POP JUMP JUMPDEST PUSH0 PUSH2 0x1603 PUSH1 0x11 DUP4 PUSH2 0x12C8 JUMP JUMPDEST SWAP2 POP PUSH2 0x160E DUP3 PUSH2 0x15CF JUMP JUMPDEST PUSH1 0x20 DUP3 ADD SWAP1 POP SWAP2 SWAP1 POP JUMP JUMPDEST PUSH0 PUSH1 0x20 DUP3 ADD SWAP1 POP DUP2 DUP2 SUB PUSH0 DUP4 ADD MSTORE PUSH2 0x1630 DUP2 PUSH2 0x15F7 JUMP JUMPDEST SWAP1 POP SWAP2 SWAP1 POP JUMP JUMPDEST PUSH0 PUSH2 0x1641 DUP3 PUSH2 0x1003 JUMP JUMPDEST SWAP2 POP PUSH2 0x164C DUP4 PUSH2 0x1003 JUMP JUMPDEST SWAP3 POP DUP3 DUP3 ADD SWAP1 POP DUP1 DUP3 GT ISZERO PUSH2 0x1664 JUMPI PUSH2 0x1663 PUSH2 0x11FD JUMP JUMPDEST JUMPDEST SWAP3 SWAP2 POP POP JUMP INVALID LOG2 PUSH5 0x6970667358 0x22 SLT KECCAK256 0x22 DELEGATECALL MSTORE8 0xDE PUSH15 0x8B02C50C0583C79B909878A37DD07B DUP3 0x23 0xFC MSTORE8 PUSH30 0xC7C2809D23D31A64736F6C634300081C0033000000000000000000000000 "
				},
				"gasEstimates": {
					"creation": {
						"codeDepositCost": "1158400",
						"executionCost": "infinite",
						"totalCost": "infinite"
					},
					"external": {
						"addLiquidity(uint256,uint256)": "infinite",
						"balanceOf(address)": "2802",
						"removeLiquidity(uint256)": "infinite",
						"reserve0()": "2469",
						"reserve1()": "2492",
						"swap(address,uint256)": "infinite",
						"token0()": "infinite",
						"token1()": "infinite",
						"totalSupply()": "2448"
					},
					"internal": {
						"_burn(address,uint256)": "infinite",
						"_min(uint256,uint256)": "66",
						"_mint(address,uint256)": "infinite",
						"_sqrt(uint256)": "infinite",
						"_update(uint256,uint256)": "44240"
					}
				},
				"methodIdentifiers": {
					"addLiquidity(uint256,uint256)": "9cd441da",
					"balanceOf(address)": "70a08231",
					"removeLiquidity(uint256)": "9c8f9f23",
					"reserve0()": "443cb4bc",
					"reserve1()": "5a76f25e",
					"swap(address,uint256)": "d004f0f7",
					"token0()": "0dfe1681",
					"token1()": "d21220a7",
					"totalSupply()": "18160ddd"
				}
			},
			"storageLayout": {
				"storage": [
					{
						"astId": 10,
						"contract": "contracts/Ddfi_lpl/01CPAMM/CPAMM.sol:CPAMM",
						"label": "reserve0",
						"offset": 0,
						"slot": "0",
						"type": "t_uint256"
					},
					{
						"astId": 12,
						"contract": "contracts/Ddfi_lpl/01CPAMM/CPAMM.sol:CPAMM",
						"label": "reserve1",
						"offset": 0,
						"slot": "1",
						"type": "t_uint256"
					},
					{
						"astId": 14,
						"contract": "contracts/Ddfi_lpl/01CPAMM/CPAMM.sol:CPAMM",
						"label": "totalSupply",
						"offset": 0,
						"slot": "2",
						"type": "t_uint256"
					},
					{
						"astId": 18,
						"contract": "contracts/Ddfi_lpl/01CPAMM/CPAMM.sol:CPAMM",
						"label": "balanceOf",
						"offset": 0,
						"slot": "3",
						"type": "t_mapping(t_address,t_uint256)"
					}
				],
				"types": {
					"t_address": {
						"encoding": "inplace",
						"label": "address",
						"numberOfBytes": "20"
					},
					"t_mapping(t_address,t_uint256)": {
						"encoding": "mapping",
						"key": "t_address",
						"label": "mapping(address => uint256)",
						"numberOfBytes": "32",
						"value": "t_uint256"
					},
					"t_uint256": {
						"encoding": "inplace",
						"label": "uint256",
						"numberOfBytes": "32"
					}
				}
			},
			"userdoc": {
				"kind": "user",
				"methods": {},
				"version": 1
			}
		}
	}
}