{
	"contracts/ERC20_Demo/ReceiveingContract/ReceiveingContract.sol": {
		"ReceivingContract": {
			"abi": [
				{
					"inputs": [
						{
							"internalType": "contract IERC20",
							"name": "token",
							"type": "address"
						}
					],
					"stateMutability": "nonpayable",
					"type": "constructor"
				},
				{
					"inputs": [
						{
							"internalType": "uint256",
							"name": "amount",
							"type": "uint256"
						}
					],
					"name": "deposit",
					"outputs": [
						{
							"internalType": "bool",
							"name": "",
							"type": "bool"
						}
					],
					"stateMutability": "nonpayable",
					"type": "function"
				},
				{
					"inputs": [
						{
							"internalType": "address",
							"name": "account",
							"type": "address"
						}
					],
					"name": "deposits",
					"outputs": [
						{
							"internalType": "uint256",
							"name": "",
							"type": "uint256"
						}
					],
					"stateMutability": "view",
					"type": "function"
				},
				{
					"inputs": [],
					"name": "erc20",
					"outputs": [
						{
							"internalType": "contract IERC20",
							"name": "",
							"type": "address"
						}
					],
					"stateMutability": "view",
					"type": "function"
				}
			],
			"devdoc": {
				"kind": "dev",
				"methods": {},
				"version": 1
			},
			"evm": {
				"assembly": "    /* \"contracts/ERC20_Demo/ReceiveingContract/ReceiveingContract.sol\":197:765  contract ReceivingContract {... */\n  mstore(0x40, 0x80)\n    /* \"contracts/ERC20_Demo/ReceiveingContract/ReceiveingContract.sol\":359:415  constructor(IERC20 token) {... */\n  callvalue\n  dup1\n  iszero\n  tag_1\n  jumpi\n  revert(0x00, 0x00)\ntag_1:\n  pop\n  mload(0x40)\n  sub(codesize, bytecodeSize)\n  dup1\n  bytecodeSize\n  dup4\n  codecopy\n  dup2\n  dup2\n  add\n  0x40\n  mstore\n  dup2\n  add\n  swap1\n  tag_2\n  swap2\n  swap1\n  tag_3\n  jump\t// in\ntag_2:\n    /* \"contracts/ERC20_Demo/ReceiveingContract/ReceiveingContract.sol\":403:408  token */\n  dup1\n    /* \"contracts/ERC20_Demo/ReceiveingContract/ReceiveingContract.sol\":395:400  erc20 */\n  0x01\n  0x00\n    /* \"contracts/ERC20_Demo/ReceiveingContract/ReceiveingContract.sol\":395:408  erc20 = token */\n  0x0100\n  exp\n  dup2\n  sload\n  dup2\n  0xffffffffffffffffffffffffffffffffffffffff\n  mul\n  not\n  and\n  swap1\n  dup4\n  0xffffffffffffffffffffffffffffffffffffffff\n  and\n  mul\n  or\n  swap1\n  sstore\n  pop\n    /* \"contracts/ERC20_Demo/ReceiveingContract/ReceiveingContract.sol\":359:415  constructor(IERC20 token) {... */\n  pop\n    /* \"contracts/ERC20_Demo/ReceiveingContract/ReceiveingContract.sol\":197:765  contract ReceivingContract {... */\n  jump(tag_6)\n    /* \"#utility.yul\":88:205   */\ntag_8:\n    /* \"#utility.yul\":197:198   */\n  0x00\n    /* \"#utility.yul\":194:195   */\n  0x00\n    /* \"#utility.yul\":187:199   */\n  revert\n    /* \"#utility.yul\":334:460   */\ntag_10:\n    /* \"#utility.yul\":371:378   */\n  0x00\n    /* \"#utility.yul\":411:453   */\n  0xffffffffffffffffffffffffffffffffffffffff\n    /* \"#utility.yul\":404:409   */\n  dup3\n    /* \"#utility.yul\":400:454   */\n  and\n    /* \"#utility.yul\":389:454   */\n  swap1\n  pop\n    /* \"#utility.yul\":334:460   */\n  swap2\n  swap1\n  pop\n  jump\t// out\n    /* \"#utility.yul\":466:562   */\ntag_11:\n    /* \"#utility.yul\":503:510   */\n  0x00\n    /* \"#utility.yul\":532:556   */\n  tag_21\n    /* \"#utility.yul\":550:555   */\n  dup3\n    /* \"#utility.yul\":532:556   */\n  tag_10\n  jump\t// in\ntag_21:\n    /* \"#utility.yul\":521:556   */\n  swap1\n  pop\n    /* \"#utility.yul\":466:562   */\n  swap2\n  swap1\n  pop\n  jump\t// out\n    /* \"#utility.yul\":568:677   */\ntag_12:\n    /* \"#utility.yul\":618:625   */\n  0x00\n    /* \"#utility.yul\":647:671   */\n  tag_23\n    /* \"#utility.yul\":665:670   */\n  dup3\n    /* \"#utility.yul\":647:671   */\n  tag_11\n  jump\t// in\ntag_23:\n    /* \"#utility.yul\":636:671   */\n  swap1\n  pop\n    /* \"#utility.yul\":568:677   */\n  swap2\n  swap1\n  pop\n  jump\t// out\n    /* \"#utility.yul\":683:831   */\ntag_13:\n    /* \"#utility.yul\":769:806   */\n  tag_25\n    /* \"#utility.yul\":800:805   */\n  dup2\n    /* \"#utility.yul\":769:806   */\n  tag_12\n  jump\t// in\ntag_25:\n    /* \"#utility.yul\":762:767   */\n  dup2\n    /* \"#utility.yul\":759:807   */\n  eq\n    /* \"#utility.yul\":749:825   */\n  tag_26\n  jumpi\n    /* \"#utility.yul\":821:822   */\n  0x00\n    /* \"#utility.yul\":818:819   */\n  0x00\n    /* \"#utility.yul\":811:823   */\n  revert\n    /* \"#utility.yul\":749:825   */\ntag_26:\n    /* \"#utility.yul\":683:831   */\n  pop\n  jump\t// out\n    /* \"#utility.yul\":837:1006   */\ntag_14:\n    /* \"#utility.yul\":907:912   */\n  0x00\n    /* \"#utility.yul\":938:944   */\n  dup2\n    /* \"#utility.yul\":932:945   */\n  mload\n    /* \"#utility.yul\":923:945   */\n  swap1\n  pop\n    /* \"#utility.yul\":954:1000   */\n  tag_28\n    /* \"#utility.yul\":994:999   */\n  dup2\n    /* \"#utility.yul\":954:1000   */\n  tag_13\n  jump\t// in\ntag_28:\n    /* \"#utility.yul\":837:1006   */\n  swap3\n  swap2\n  pop\n  pop\n  jump\t// out\n    /* \"#utility.yul\":1012:1389   */\ntag_3:\n    /* \"#utility.yul\":1095:1101   */\n  0x00\n    /* \"#utility.yul\":1144:1146   */\n  0x20\n    /* \"#utility.yul\":1132:1141   */\n  dup3\n    /* \"#utility.yul\":1123:1130   */\n  dup5\n    /* \"#utility.yul\":1119:1142   */\n  sub\n    /* \"#utility.yul\":1115:1147   */\n  slt\n    /* \"#utility.yul\":1112:1231   */\n  iszero\n  tag_30\n  jumpi\n    /* \"#utility.yul\":1150:1229   */\n  tag_31\n  tag_8\n  jump\t// in\ntag_31:\n    /* \"#utility.yul\":1112:1231   */\ntag_30:\n    /* \"#utility.yul\":1270:1271   */\n  0x00\n    /* \"#utility.yul\":1295:1372   */\n  tag_32\n    /* \"#utility.yul\":1364:1371   */\n  dup5\n    /* \"#utility.yul\":1355:1361   */\n  dup3\n    /* \"#utility.yul\":1344:1353   */\n  dup6\n    /* \"#utility.yul\":1340:1362   */\n  add\n    /* \"#utility.yul\":1295:1372   */\n  tag_14\n  jump\t// in\ntag_32:\n    /* \"#utility.yul\":1285:1372   */\n  swap2\n  pop\n    /* \"#utility.yul\":1241:1382   */\n  pop\n    /* \"#utility.yul\":1012:1389   */\n  swap3\n  swap2\n  pop\n  pop\n  jump\t// out\n    /* \"contracts/ERC20_Demo/ReceiveingContract/ReceiveingContract.sol\":197:765  contract ReceivingContract {... */\ntag_6:\n  dataSize(sub_0)\n  dup1\n  dataOffset(sub_0)\n  0x00\n  codecopy\n  0x00\n  return\nstop\n\nsub_0: assembly {\n        /* \"contracts/ERC20_Demo/ReceiveingContract/ReceiveingContract.sol\":197:765  contract ReceivingContract {... */\n      mstore(0x40, 0x80)\n      callvalue\n      dup1\n      iszero\n      tag_1\n      jumpi\n      revert(0x00, 0x00)\n    tag_1:\n      pop\n      jumpi(tag_2, lt(calldatasize, 0x04))\n      shr(0xe0, calldataload(0x00))\n      dup1\n      0x785e9e86\n      eq\n      tag_3\n      jumpi\n      dup1\n      0xb6b55f25\n      eq\n      tag_4\n      jumpi\n      dup1\n      0xfc7e286d\n      eq\n      tag_5\n      jumpi\n    tag_2:\n      revert(0x00, 0x00)\n        /* \"contracts/ERC20_Demo/ReceiveingContract/ReceiveingContract.sol\":333:353  IERC20 public  erc20 */\n    tag_3:\n      tag_6\n      tag_7\n      jump\t// in\n    tag_6:\n      mload(0x40)\n      tag_8\n      swap2\n      swap1\n      tag_9\n      jump\t// in\n    tag_8:\n      mload(0x40)\n      dup1\n      swap2\n      sub\n      swap1\n      return\n        /* \"contracts/ERC20_Demo/ReceiveingContract/ReceiveingContract.sol\":417:649  function deposit(uint256 amount) external returns(bool){... */\n    tag_4:\n      tag_10\n      0x04\n      dup1\n      calldatasize\n      sub\n      dup2\n      add\n      swap1\n      tag_11\n      swap2\n      swap1\n      tag_12\n      jump\t// in\n    tag_11:\n      tag_13\n      jump\t// in\n    tag_10:\n      mload(0x40)\n      tag_14\n      swap2\n      swap1\n      tag_15\n      jump\t// in\n    tag_14:\n      mload(0x40)\n      dup1\n      swap2\n      sub\n      swap1\n      return\n        /* \"contracts/ERC20_Demo/ReceiveingContract/ReceiveingContract.sol\":654:763  function deposits(address account ) external view returns (uint256){... */\n    tag_5:\n      tag_16\n      0x04\n      dup1\n      calldatasize\n      sub\n      dup2\n      add\n      swap1\n      tag_17\n      swap2\n      swap1\n      tag_18\n      jump\t// in\n    tag_17:\n      tag_19\n      jump\t// in\n    tag_16:\n      mload(0x40)\n      tag_20\n      swap2\n      swap1\n      tag_21\n      jump\t// in\n    tag_20:\n      mload(0x40)\n      dup1\n      swap2\n      sub\n      swap1\n      return\n        /* \"contracts/ERC20_Demo/ReceiveingContract/ReceiveingContract.sol\":333:353  IERC20 public  erc20 */\n    tag_7:\n      0x01\n      0x00\n      swap1\n      sload\n      swap1\n      0x0100\n      exp\n      swap1\n      div\n      0xffffffffffffffffffffffffffffffffffffffff\n      and\n      dup2\n      jump\t// out\n        /* \"contracts/ERC20_Demo/ReceiveingContract/ReceiveingContract.sol\":417:649  function deposit(uint256 amount) external returns(bool){... */\n    tag_13:\n        /* \"contracts/ERC20_Demo/ReceiveingContract/ReceiveingContract.sol\":467:471  bool */\n      0x00\n        /* \"contracts/ERC20_Demo/ReceiveingContract/ReceiveingContract.sol\":536:541  erc20 */\n      0x01\n      0x00\n      swap1\n      sload\n      swap1\n      0x0100\n      exp\n      swap1\n      div\n      0xffffffffffffffffffffffffffffffffffffffff\n      and\n        /* \"contracts/ERC20_Demo/ReceiveingContract/ReceiveingContract.sol\":536:554  erc20.transferFrom */\n      0xffffffffffffffffffffffffffffffffffffffff\n      and\n      0x23b872dd\n        /* \"contracts/ERC20_Demo/ReceiveingContract/ReceiveingContract.sol\":555:565  msg.sender */\n      caller\n        /* \"contracts/ERC20_Demo/ReceiveingContract/ReceiveingContract.sol\":575:579  this */\n      address\n        /* \"contracts/ERC20_Demo/ReceiveingContract/ReceiveingContract.sol\":582:588  amount */\n      dup6\n        /* \"contracts/ERC20_Demo/ReceiveingContract/ReceiveingContract.sol\":536:589  erc20.transferFrom(msg.sender, address(this), amount) */\n      mload(0x40)\n      dup5\n      0xffffffff\n      and\n      0xe0\n      shl\n      dup2\n      mstore\n      0x04\n      add\n      tag_23\n      swap4\n      swap3\n      swap2\n      swap1\n      tag_24\n      jump\t// in\n    tag_23:\n      0x20\n      mload(0x40)\n      dup1\n      dup4\n      sub\n      dup2\n      0x00\n      dup8\n      gas\n      call\n      iszero\n      dup1\n      iszero\n      tag_26\n      jumpi\n      returndatacopy(0x00, 0x00, returndatasize)\n      revert(0x00, returndatasize)\n    tag_26:\n      pop\n      pop\n      pop\n      pop\n      mload(0x40)\n      returndatasize\n      not(0x1f)\n      0x1f\n      dup3\n      add\n      and\n      dup3\n      add\n      dup1\n      0x40\n      mstore\n      pop\n      dup2\n      add\n      swap1\n      tag_27\n      swap2\n      swap1\n      tag_28\n      jump\t// in\n    tag_27:\n      pop\n        /* \"contracts/ERC20_Demo/ReceiveingContract/ReceiveingContract.sol\":618:624  amount */\n      dup2\n        /* \"contracts/ERC20_Demo/ReceiveingContract/ReceiveingContract.sol\":593:602  _deposits */\n      0x00\n        /* \"contracts/ERC20_Demo/ReceiveingContract/ReceiveingContract.sol\":593:614  _deposits[msg.sender] */\n      0x00\n        /* \"contracts/ERC20_Demo/ReceiveingContract/ReceiveingContract.sol\":603:613  msg.sender */\n      caller\n        /* \"contracts/ERC20_Demo/ReceiveingContract/ReceiveingContract.sol\":593:614  _deposits[msg.sender] */\n      0xffffffffffffffffffffffffffffffffffffffff\n      and\n      0xffffffffffffffffffffffffffffffffffffffff\n      and\n      dup2\n      mstore\n      0x20\n      add\n      swap1\n      dup2\n      mstore\n      0x20\n      add\n      0x00\n      keccak256\n      0x00\n        /* \"contracts/ERC20_Demo/ReceiveingContract/ReceiveingContract.sol\":593:624  _deposits[msg.sender] += amount */\n      dup3\n      dup3\n      sload\n      tag_29\n      swap2\n      swap1\n      tag_30\n      jump\t// in\n    tag_29:\n      swap3\n      pop\n      pop\n      dup2\n      swap1\n      sstore\n      pop\n        /* \"contracts/ERC20_Demo/ReceiveingContract/ReceiveingContract.sol\":641:645  true */\n      0x01\n        /* \"contracts/ERC20_Demo/ReceiveingContract/ReceiveingContract.sol\":634:645  return true */\n      swap1\n      pop\n        /* \"contracts/ERC20_Demo/ReceiveingContract/ReceiveingContract.sol\":417:649  function deposit(uint256 amount) external returns(bool){... */\n      swap2\n      swap1\n      pop\n      jump\t// out\n        /* \"contracts/ERC20_Demo/ReceiveingContract/ReceiveingContract.sol\":654:763  function deposits(address account ) external view returns (uint256){... */\n    tag_19:\n        /* \"contracts/ERC20_Demo/ReceiveingContract/ReceiveingContract.sol\":713:720  uint256 */\n      0x00\n        /* \"contracts/ERC20_Demo/ReceiveingContract/ReceiveingContract.sol\":738:747  _deposits */\n      0x00\n        /* \"contracts/ERC20_Demo/ReceiveingContract/ReceiveingContract.sol\":738:756  _deposits[account] */\n      0x00\n        /* \"contracts/ERC20_Demo/ReceiveingContract/ReceiveingContract.sol\":748:755  account */\n      dup4\n        /* \"contracts/ERC20_Demo/ReceiveingContract/ReceiveingContract.sol\":738:756  _deposits[account] */\n      0xffffffffffffffffffffffffffffffffffffffff\n      and\n      0xffffffffffffffffffffffffffffffffffffffff\n      and\n      dup2\n      mstore\n      0x20\n      add\n      swap1\n      dup2\n      mstore\n      0x20\n      add\n      0x00\n      keccak256\n      sload\n        /* \"contracts/ERC20_Demo/ReceiveingContract/ReceiveingContract.sol\":731:756  return _deposits[account] */\n      swap1\n      pop\n        /* \"contracts/ERC20_Demo/ReceiveingContract/ReceiveingContract.sol\":654:763  function deposits(address account ) external view returns (uint256){... */\n      swap2\n      swap1\n      pop\n      jump\t// out\n        /* \"#utility.yul\":7:133   */\n    tag_32:\n        /* \"#utility.yul\":44:51   */\n      0x00\n        /* \"#utility.yul\":84:126   */\n      0xffffffffffffffffffffffffffffffffffffffff\n        /* \"#utility.yul\":77:82   */\n      dup3\n        /* \"#utility.yul\":73:127   */\n      and\n        /* \"#utility.yul\":62:127   */\n      swap1\n      pop\n        /* \"#utility.yul\":7:133   */\n      swap2\n      swap1\n      pop\n      jump\t// out\n        /* \"#utility.yul\":139:199   */\n    tag_33:\n        /* \"#utility.yul\":167:170   */\n      0x00\n        /* \"#utility.yul\":188:193   */\n      dup2\n        /* \"#utility.yul\":181:193   */\n      swap1\n      pop\n        /* \"#utility.yul\":139:199   */\n      swap2\n      swap1\n      pop\n      jump\t// out\n        /* \"#utility.yul\":205:347   */\n    tag_34:\n        /* \"#utility.yul\":255:264   */\n      0x00\n        /* \"#utility.yul\":288:341   */\n      tag_58\n        /* \"#utility.yul\":306:340   */\n      tag_59\n        /* \"#utility.yul\":315:339   */\n      tag_60\n        /* \"#utility.yul\":333:338   */\n      dup5\n        /* \"#utility.yul\":315:339   */\n      tag_32\n      jump\t// in\n    tag_60:\n        /* \"#utility.yul\":306:340   */\n      tag_33\n      jump\t// in\n    tag_59:\n        /* \"#utility.yul\":288:341   */\n      tag_32\n      jump\t// in\n    tag_58:\n        /* \"#utility.yul\":275:341   */\n      swap1\n      pop\n        /* \"#utility.yul\":205:347   */\n      swap2\n      swap1\n      pop\n      jump\t// out\n        /* \"#utility.yul\":353:479   */\n    tag_35:\n        /* \"#utility.yul\":403:412   */\n      0x00\n        /* \"#utility.yul\":436:473   */\n      tag_62\n        /* \"#utility.yul\":467:472   */\n      dup3\n        /* \"#utility.yul\":436:473   */\n      tag_34\n      jump\t// in\n    tag_62:\n        /* \"#utility.yul\":423:473   */\n      swap1\n      pop\n        /* \"#utility.yul\":353:479   */\n      swap2\n      swap1\n      pop\n      jump\t// out\n        /* \"#utility.yul\":485:624   */\n    tag_36:\n        /* \"#utility.yul\":548:557   */\n      0x00\n        /* \"#utility.yul\":581:618   */\n      tag_64\n        /* \"#utility.yul\":612:617   */\n      dup3\n        /* \"#utility.yul\":581:618   */\n      tag_35\n      jump\t// in\n    tag_64:\n        /* \"#utility.yul\":568:618   */\n      swap1\n      pop\n        /* \"#utility.yul\":485:624   */\n      swap2\n      swap1\n      pop\n      jump\t// out\n        /* \"#utility.yul\":630:787   */\n    tag_37:\n        /* \"#utility.yul\":730:780   */\n      tag_66\n        /* \"#utility.yul\":774:779   */\n      dup2\n        /* \"#utility.yul\":730:780   */\n      tag_36\n      jump\t// in\n    tag_66:\n        /* \"#utility.yul\":725:728   */\n      dup3\n        /* \"#utility.yul\":718:781   */\n      mstore\n        /* \"#utility.yul\":630:787   */\n      pop\n      pop\n      jump\t// out\n        /* \"#utility.yul\":793:1041   */\n    tag_9:\n        /* \"#utility.yul\":899:903   */\n      0x00\n        /* \"#utility.yul\":937:939   */\n      0x20\n        /* \"#utility.yul\":926:935   */\n      dup3\n        /* \"#utility.yul\":922:940   */\n      add\n        /* \"#utility.yul\":914:940   */\n      swap1\n      pop\n        /* \"#utility.yul\":950:1034   */\n      tag_68\n        /* \"#utility.yul\":1031:1032   */\n      0x00\n        /* \"#utility.yul\":1020:1029   */\n      dup4\n        /* \"#utility.yul\":1016:1033   */\n      add\n        /* \"#utility.yul\":1007:1013   */\n      dup5\n        /* \"#utility.yul\":950:1034   */\n      tag_37\n      jump\t// in\n    tag_68:\n        /* \"#utility.yul\":793:1041   */\n      swap3\n      swap2\n      pop\n      pop\n      jump\t// out\n        /* \"#utility.yul\":1128:1245   */\n    tag_39:\n        /* \"#utility.yul\":1237:1238   */\n      0x00\n        /* \"#utility.yul\":1234:1235   */\n      0x00\n        /* \"#utility.yul\":1227:1239   */\n      revert\n        /* \"#utility.yul\":1374:1451   */\n    tag_41:\n        /* \"#utility.yul\":1411:1418   */\n      0x00\n        /* \"#utility.yul\":1440:1445   */\n      dup2\n        /* \"#utility.yul\":1429:1445   */\n      swap1\n      pop\n        /* \"#utility.yul\":1374:1451   */\n      swap2\n      swap1\n      pop\n      jump\t// out\n        /* \"#utility.yul\":1457:1579   */\n    tag_42:\n        /* \"#utility.yul\":1530:1554   */\n      tag_74\n        /* \"#utility.yul\":1548:1553   */\n      dup2\n        /* \"#utility.yul\":1530:1554   */\n      tag_41\n      jump\t// in\n    tag_74:\n        /* \"#utility.yul\":1523:1528   */\n      dup2\n        /* \"#utility.yul\":1520:1555   */\n      eq\n        /* \"#utility.yul\":1510:1573   */\n      tag_75\n      jumpi\n        /* \"#utility.yul\":1569:1570   */\n      0x00\n        /* \"#utility.yul\":1566:1567   */\n      0x00\n        /* \"#utility.yul\":1559:1571   */\n      revert\n        /* \"#utility.yul\":1510:1573   */\n    tag_75:\n        /* \"#utility.yul\":1457:1579   */\n      pop\n      jump\t// out\n        /* \"#utility.yul\":1585:1724   */\n    tag_43:\n        /* \"#utility.yul\":1631:1636   */\n      0x00\n        /* \"#utility.yul\":1669:1675   */\n      dup2\n        /* \"#utility.yul\":1656:1676   */\n      calldataload\n        /* \"#utility.yul\":1647:1676   */\n      swap1\n      pop\n        /* \"#utility.yul\":1685:1718   */\n      tag_77\n        /* \"#utility.yul\":1712:1717   */\n      dup2\n        /* \"#utility.yul\":1685:1718   */\n      tag_42\n      jump\t// in\n    tag_77:\n        /* \"#utility.yul\":1585:1724   */\n      swap3\n      swap2\n      pop\n      pop\n      jump\t// out\n        /* \"#utility.yul\":1730:2059   */\n    tag_12:\n        /* \"#utility.yul\":1789:1795   */\n      0x00\n        /* \"#utility.yul\":1838:1840   */\n      0x20\n        /* \"#utility.yul\":1826:1835   */\n      dup3\n        /* \"#utility.yul\":1817:1824   */\n      dup5\n        /* \"#utility.yul\":1813:1836   */\n      sub\n        /* \"#utility.yul\":1809:1841   */\n      slt\n        /* \"#utility.yul\":1806:1925   */\n      iszero\n      tag_79\n      jumpi\n        /* \"#utility.yul\":1844:1923   */\n      tag_80\n      tag_39\n      jump\t// in\n    tag_80:\n        /* \"#utility.yul\":1806:1925   */\n    tag_79:\n        /* \"#utility.yul\":1964:1965   */\n      0x00\n        /* \"#utility.yul\":1989:2042   */\n      tag_81\n        /* \"#utility.yul\":2034:2041   */\n      dup5\n        /* \"#utility.yul\":2025:2031   */\n      dup3\n        /* \"#utility.yul\":2014:2023   */\n      dup6\n        /* \"#utility.yul\":2010:2032   */\n      add\n        /* \"#utility.yul\":1989:2042   */\n      tag_43\n      jump\t// in\n    tag_81:\n        /* \"#utility.yul\":1979:2042   */\n      swap2\n      pop\n        /* \"#utility.yul\":1935:2052   */\n      pop\n        /* \"#utility.yul\":1730:2059   */\n      swap3\n      swap2\n      pop\n      pop\n      jump\t// out\n        /* \"#utility.yul\":2065:2155   */\n    tag_44:\n        /* \"#utility.yul\":2099:2106   */\n      0x00\n        /* \"#utility.yul\":2142:2147   */\n      dup2\n        /* \"#utility.yul\":2135:2148   */\n      iszero\n        /* \"#utility.yul\":2128:2149   */\n      iszero\n        /* \"#utility.yul\":2117:2149   */\n      swap1\n      pop\n        /* \"#utility.yul\":2065:2155   */\n      swap2\n      swap1\n      pop\n      jump\t// out\n        /* \"#utility.yul\":2161:2270   */\n    tag_45:\n        /* \"#utility.yul\":2242:2263   */\n      tag_84\n        /* \"#utility.yul\":2257:2262   */\n      dup2\n        /* \"#utility.yul\":2242:2263   */\n      tag_44\n      jump\t// in\n    tag_84:\n        /* \"#utility.yul\":2237:2240   */\n      dup3\n        /* \"#utility.yul\":2230:2264   */\n      mstore\n        /* \"#utility.yul\":2161:2270   */\n      pop\n      pop\n      jump\t// out\n        /* \"#utility.yul\":2276:2486   */\n    tag_15:\n        /* \"#utility.yul\":2363:2367   */\n      0x00\n        /* \"#utility.yul\":2401:2403   */\n      0x20\n        /* \"#utility.yul\":2390:2399   */\n      dup3\n        /* \"#utility.yul\":2386:2404   */\n      add\n        /* \"#utility.yul\":2378:2404   */\n      swap1\n      pop\n        /* \"#utility.yul\":2414:2479   */\n      tag_86\n        /* \"#utility.yul\":2476:2477   */\n      0x00\n        /* \"#utility.yul\":2465:2474   */\n      dup4\n        /* \"#utility.yul\":2461:2478   */\n      add\n        /* \"#utility.yul\":2452:2458   */\n      dup5\n        /* \"#utility.yul\":2414:2479   */\n      tag_45\n      jump\t// in\n    tag_86:\n        /* \"#utility.yul\":2276:2486   */\n      swap3\n      swap2\n      pop\n      pop\n      jump\t// out\n        /* \"#utility.yul\":2492:2588   */\n    tag_46:\n        /* \"#utility.yul\":2529:2536   */\n      0x00\n        /* \"#utility.yul\":2558:2582   */\n      tag_88\n        /* \"#utility.yul\":2576:2581   */\n      dup3\n        /* \"#utility.yul\":2558:2582   */\n      tag_32\n      jump\t// in\n    tag_88:\n        /* \"#utility.yul\":2547:2582   */\n      swap1\n      pop\n        /* \"#utility.yul\":2492:2588   */\n      swap2\n      swap1\n      pop\n      jump\t// out\n        /* \"#utility.yul\":2594:2716   */\n    tag_47:\n        /* \"#utility.yul\":2667:2691   */\n      tag_90\n        /* \"#utility.yul\":2685:2690   */\n      dup2\n        /* \"#utility.yul\":2667:2691   */\n      tag_46\n      jump\t// in\n    tag_90:\n        /* \"#utility.yul\":2660:2665   */\n      dup2\n        /* \"#utility.yul\":2657:2692   */\n      eq\n        /* \"#utility.yul\":2647:2710   */\n      tag_91\n      jumpi\n        /* \"#utility.yul\":2706:2707   */\n      0x00\n        /* \"#utility.yul\":2703:2704   */\n      0x00\n        /* \"#utility.yul\":2696:2708   */\n      revert\n        /* \"#utility.yul\":2647:2710   */\n    tag_91:\n        /* \"#utility.yul\":2594:2716   */\n      pop\n      jump\t// out\n        /* \"#utility.yul\":2722:2861   */\n    tag_48:\n        /* \"#utility.yul\":2768:2773   */\n      0x00\n        /* \"#utility.yul\":2806:2812   */\n      dup2\n        /* \"#utility.yul\":2793:2813   */\n      calldataload\n        /* \"#utility.yul\":2784:2813   */\n      swap1\n      pop\n        /* \"#utility.yul\":2822:2855   */\n      tag_93\n        /* \"#utility.yul\":2849:2854   */\n      dup2\n        /* \"#utility.yul\":2822:2855   */\n      tag_47\n      jump\t// in\n    tag_93:\n        /* \"#utility.yul\":2722:2861   */\n      swap3\n      swap2\n      pop\n      pop\n      jump\t// out\n        /* \"#utility.yul\":2867:3196   */\n    tag_18:\n        /* \"#utility.yul\":2926:2932   */\n      0x00\n        /* \"#utility.yul\":2975:2977   */\n      0x20\n        /* \"#utility.yul\":2963:2972   */\n      dup3\n        /* \"#utility.yul\":2954:2961   */\n      dup5\n        /* \"#utility.yul\":2950:2973   */\n      sub\n        /* \"#utility.yul\":2946:2978   */\n      slt\n        /* \"#utility.yul\":2943:3062   */\n      iszero\n      tag_95\n      jumpi\n        /* \"#utility.yul\":2981:3060   */\n      tag_96\n      tag_39\n      jump\t// in\n    tag_96:\n        /* \"#utility.yul\":2943:3062   */\n    tag_95:\n        /* \"#utility.yul\":3101:3102   */\n      0x00\n        /* \"#utility.yul\":3126:3179   */\n      tag_97\n        /* \"#utility.yul\":3171:3178   */\n      dup5\n        /* \"#utility.yul\":3162:3168   */\n      dup3\n        /* \"#utility.yul\":3151:3160   */\n      dup6\n        /* \"#utility.yul\":3147:3169   */\n      add\n        /* \"#utility.yul\":3126:3179   */\n      tag_48\n      jump\t// in\n    tag_97:\n        /* \"#utility.yul\":3116:3179   */\n      swap2\n      pop\n        /* \"#utility.yul\":3072:3189   */\n      pop\n        /* \"#utility.yul\":2867:3196   */\n      swap3\n      swap2\n      pop\n      pop\n      jump\t// out\n        /* \"#utility.yul\":3202:3320   */\n    tag_49:\n        /* \"#utility.yul\":3289:3313   */\n      tag_99\n        /* \"#utility.yul\":3307:3312   */\n      dup2\n        /* \"#utility.yul\":3289:3313   */\n      tag_41\n      jump\t// in\n    tag_99:\n        /* \"#utility.yul\":3284:3287   */\n      dup3\n        /* \"#utility.yul\":3277:3314   */\n      mstore\n        /* \"#utility.yul\":3202:3320   */\n      pop\n      pop\n      jump\t// out\n        /* \"#utility.yul\":3326:3548   */\n    tag_21:\n        /* \"#utility.yul\":3419:3423   */\n      0x00\n        /* \"#utility.yul\":3457:3459   */\n      0x20\n        /* \"#utility.yul\":3446:3455   */\n      dup3\n        /* \"#utility.yul\":3442:3460   */\n      add\n        /* \"#utility.yul\":3434:3460   */\n      swap1\n      pop\n        /* \"#utility.yul\":3470:3541   */\n      tag_101\n        /* \"#utility.yul\":3538:3539   */\n      0x00\n        /* \"#utility.yul\":3527:3536   */\n      dup4\n        /* \"#utility.yul\":3523:3540   */\n      add\n        /* \"#utility.yul\":3514:3520   */\n      dup5\n        /* \"#utility.yul\":3470:3541   */\n      tag_49\n      jump\t// in\n    tag_101:\n        /* \"#utility.yul\":3326:3548   */\n      swap3\n      swap2\n      pop\n      pop\n      jump\t// out\n        /* \"#utility.yul\":3554:3672   */\n    tag_50:\n        /* \"#utility.yul\":3641:3665   */\n      tag_103\n        /* \"#utility.yul\":3659:3664   */\n      dup2\n        /* \"#utility.yul\":3641:3665   */\n      tag_46\n      jump\t// in\n    tag_103:\n        /* \"#utility.yul\":3636:3639   */\n      dup3\n        /* \"#utility.yul\":3629:3666   */\n      mstore\n        /* \"#utility.yul\":3554:3672   */\n      pop\n      pop\n      jump\t// out\n        /* \"#utility.yul\":3678:4120   */\n    tag_24:\n        /* \"#utility.yul\":3827:3831   */\n      0x00\n        /* \"#utility.yul\":3865:3867   */\n      0x60\n        /* \"#utility.yul\":3854:3863   */\n      dup3\n        /* \"#utility.yul\":3850:3868   */\n      add\n        /* \"#utility.yul\":3842:3868   */\n      swap1\n      pop\n        /* \"#utility.yul\":3878:3949   */\n      tag_105\n        /* \"#utility.yul\":3946:3947   */\n      0x00\n        /* \"#utility.yul\":3935:3944   */\n      dup4\n        /* \"#utility.yul\":3931:3948   */\n      add\n        /* \"#utility.yul\":3922:3928   */\n      dup7\n        /* \"#utility.yul\":3878:3949   */\n      tag_50\n      jump\t// in\n    tag_105:\n        /* \"#utility.yul\":3959:4031   */\n      tag_106\n        /* \"#utility.yul\":4027:4029   */\n      0x20\n        /* \"#utility.yul\":4016:4025   */\n      dup4\n        /* \"#utility.yul\":4012:4030   */\n      add\n        /* \"#utility.yul\":4003:4009   */\n      dup6\n        /* \"#utility.yul\":3959:4031   */\n      tag_50\n      jump\t// in\n    tag_106:\n        /* \"#utility.yul\":4041:4113   */\n      tag_107\n        /* \"#utility.yul\":4109:4111   */\n      0x40\n        /* \"#utility.yul\":4098:4107   */\n      dup4\n        /* \"#utility.yul\":4094:4112   */\n      add\n        /* \"#utility.yul\":4085:4091   */\n      dup5\n        /* \"#utility.yul\":4041:4113   */\n      tag_49\n      jump\t// in\n    tag_107:\n        /* \"#utility.yul\":3678:4120   */\n      swap5\n      swap4\n      pop\n      pop\n      pop\n      pop\n      jump\t// out\n        /* \"#utility.yul\":4126:4242   */\n    tag_51:\n        /* \"#utility.yul\":4196:4217   */\n      tag_109\n        /* \"#utility.yul\":4211:4216   */\n      dup2\n        /* \"#utility.yul\":4196:4217   */\n      tag_44\n      jump\t// in\n    tag_109:\n        /* \"#utility.yul\":4189:4194   */\n      dup2\n        /* \"#utility.yul\":4186:4218   */\n      eq\n        /* \"#utility.yul\":4176:4236   */\n      tag_110\n      jumpi\n        /* \"#utility.yul\":4232:4233   */\n      0x00\n        /* \"#utility.yul\":4229:4230   */\n      0x00\n        /* \"#utility.yul\":4222:4234   */\n      revert\n        /* \"#utility.yul\":4176:4236   */\n    tag_110:\n        /* \"#utility.yul\":4126:4242   */\n      pop\n      jump\t// out\n        /* \"#utility.yul\":4248:4385   */\n    tag_52:\n        /* \"#utility.yul\":4302:4307   */\n      0x00\n        /* \"#utility.yul\":4333:4339   */\n      dup2\n        /* \"#utility.yul\":4327:4340   */\n      mload\n        /* \"#utility.yul\":4318:4340   */\n      swap1\n      pop\n        /* \"#utility.yul\":4349:4379   */\n      tag_112\n        /* \"#utility.yul\":4373:4378   */\n      dup2\n        /* \"#utility.yul\":4349:4379   */\n      tag_51\n      jump\t// in\n    tag_112:\n        /* \"#utility.yul\":4248:4385   */\n      swap3\n      swap2\n      pop\n      pop\n      jump\t// out\n        /* \"#utility.yul\":4391:4736   */\n    tag_28:\n        /* \"#utility.yul\":4458:4464   */\n      0x00\n        /* \"#utility.yul\":4507:4509   */\n      0x20\n        /* \"#utility.yul\":4495:4504   */\n      dup3\n        /* \"#utility.yul\":4486:4493   */\n      dup5\n        /* \"#utility.yul\":4482:4505   */\n      sub\n        /* \"#utility.yul\":4478:4510   */\n      slt\n        /* \"#utility.yul\":4475:4594   */\n      iszero\n      tag_114\n      jumpi\n        /* \"#utility.yul\":4513:4592   */\n      tag_115\n      tag_39\n      jump\t// in\n    tag_115:\n        /* \"#utility.yul\":4475:4594   */\n    tag_114:\n        /* \"#utility.yul\":4633:4634   */\n      0x00\n        /* \"#utility.yul\":4658:4719   */\n      tag_116\n        /* \"#utility.yul\":4711:4718   */\n      dup5\n        /* \"#utility.yul\":4702:4708   */\n      dup3\n        /* \"#utility.yul\":4691:4700   */\n      dup6\n        /* \"#utility.yul\":4687:4709   */\n      add\n        /* \"#utility.yul\":4658:4719   */\n      tag_52\n      jump\t// in\n    tag_116:\n        /* \"#utility.yul\":4648:4719   */\n      swap2\n      pop\n        /* \"#utility.yul\":4604:4729   */\n      pop\n        /* \"#utility.yul\":4391:4736   */\n      swap3\n      swap2\n      pop\n      pop\n      jump\t// out\n        /* \"#utility.yul\":4742:4922   */\n    tag_53:\n        /* \"#utility.yul\":4790:4867   */\n      0x4e487b7100000000000000000000000000000000000000000000000000000000\n        /* \"#utility.yul\":4787:4788   */\n      0x00\n        /* \"#utility.yul\":4780:4868   */\n      mstore\n        /* \"#utility.yul\":4887:4891   */\n      0x11\n        /* \"#utility.yul\":4884:4885   */\n      0x04\n        /* \"#utility.yul\":4877:4892   */\n      mstore\n        /* \"#utility.yul\":4911:4915   */\n      0x24\n        /* \"#utility.yul\":4908:4909   */\n      0x00\n        /* \"#utility.yul\":4901:4916   */\n      revert\n        /* \"#utility.yul\":4928:5119   */\n    tag_30:\n        /* \"#utility.yul\":4968:4971   */\n      0x00\n        /* \"#utility.yul\":4987:5007   */\n      tag_119\n        /* \"#utility.yul\":5005:5006   */\n      dup3\n        /* \"#utility.yul\":4987:5007   */\n      tag_41\n      jump\t// in\n    tag_119:\n        /* \"#utility.yul\":4982:5007   */\n      swap2\n      pop\n        /* \"#utility.yul\":5021:5041   */\n      tag_120\n        /* \"#utility.yul\":5039:5040   */\n      dup4\n        /* \"#utility.yul\":5021:5041   */\n      tag_41\n      jump\t// in\n    tag_120:\n        /* \"#utility.yul\":5016:5041   */\n      swap3\n      pop\n        /* \"#utility.yul\":5064:5065   */\n      dup3\n        /* \"#utility.yul\":5061:5062   */\n      dup3\n        /* \"#utility.yul\":5057:5066   */\n      add\n        /* \"#utility.yul\":5050:5066   */\n      swap1\n      pop\n        /* \"#utility.yul\":5085:5088   */\n      dup1\n        /* \"#utility.yul\":5082:5083   */\n      dup3\n        /* \"#utility.yul\":5079:5089   */\n      gt\n        /* \"#utility.yul\":5076:5112   */\n      iszero\n      tag_121\n      jumpi\n        /* \"#utility.yul\":5092:5110   */\n      tag_122\n      tag_53\n      jump\t// in\n    tag_122:\n        /* \"#utility.yul\":5076:5112   */\n    tag_121:\n        /* \"#utility.yul\":4928:5119   */\n      swap3\n      swap2\n      pop\n      pop\n      jump\t// out\n\n    auxdata: 0xa264697066735822122071fd423bf1925a82b8365df9556378338853705a6ca2616107224a4469eb36cb64736f6c634300081c0033\n}\n",
				"bytecode": {
					"linkReferences": {},
					"object": "608060405234801561000f575f5ffd5b50604051610629380380610629833981810160405281019061003191906100e6565b8060015f6101000a81548173ffffffffffffffffffffffffffffffffffffffff021916908373ffffffffffffffffffffffffffffffffffffffff16021790555050610111565b5f5ffd5b5f73ffffffffffffffffffffffffffffffffffffffff82169050919050565b5f6100a48261007b565b9050919050565b5f6100b58261009a565b9050919050565b6100c5816100ab565b81146100cf575f5ffd5b50565b5f815190506100e0816100bc565b92915050565b5f602082840312156100fb576100fa610077565b5b5f610108848285016100d2565b91505092915050565b61050b8061011e5f395ff3fe608060405234801561000f575f5ffd5b506004361061003f575f3560e01c8063785e9e8614610043578063b6b55f2514610061578063fc7e286d14610091575b5f5ffd5b61004b6100c1565b60405161005891906102a0565b60405180910390f35b61007b600480360381019061007691906102f0565b6100e6565b6040516100889190610335565b60405180910390f35b6100ab60048036038101906100a69190610389565b6101e1565b6040516100b891906103c3565b60405180910390f35b60015f9054906101000a900473ffffffffffffffffffffffffffffffffffffffff1681565b5f60015f9054906101000a900473ffffffffffffffffffffffffffffffffffffffff1673ffffffffffffffffffffffffffffffffffffffff166323b872dd3330856040518463ffffffff1660e01b8152600401610145939291906103eb565b6020604051808303815f875af1158015610161573d5f5f3e3d5ffd5b505050506040513d601f19601f82011682018060405250810190610185919061044a565b50815f5f3373ffffffffffffffffffffffffffffffffffffffff1673ffffffffffffffffffffffffffffffffffffffff1681526020019081526020015f205f8282546101d191906104a2565b9250508190555060019050919050565b5f5f5f8373ffffffffffffffffffffffffffffffffffffffff1673ffffffffffffffffffffffffffffffffffffffff1681526020019081526020015f20549050919050565b5f73ffffffffffffffffffffffffffffffffffffffff82169050919050565b5f819050919050565b5f61026861026361025e84610226565b610245565b610226565b9050919050565b5f6102798261024e565b9050919050565b5f61028a8261026f565b9050919050565b61029a81610280565b82525050565b5f6020820190506102b35f830184610291565b92915050565b5f5ffd5b5f819050919050565b6102cf816102bd565b81146102d9575f5ffd5b50565b5f813590506102ea816102c6565b92915050565b5f60208284031215610305576103046102b9565b5b5f610312848285016102dc565b91505092915050565b5f8115159050919050565b61032f8161031b565b82525050565b5f6020820190506103485f830184610326565b92915050565b5f61035882610226565b9050919050565b6103688161034e565b8114610372575f5ffd5b50565b5f813590506103838161035f565b92915050565b5f6020828403121561039e5761039d6102b9565b5b5f6103ab84828501610375565b91505092915050565b6103bd816102bd565b82525050565b5f6020820190506103d65f8301846103b4565b92915050565b6103e58161034e565b82525050565b5f6060820190506103fe5f8301866103dc565b61040b60208301856103dc565b61041860408301846103b4565b949350505050565b6104298161031b565b8114610433575f5ffd5b50565b5f8151905061044481610420565b92915050565b5f6020828403121561045f5761045e6102b9565b5b5f61046c84828501610436565b91505092915050565b7f4e487b71000000000000000000000000000000000000000000000000000000005f52601160045260245ffd5b5f6104ac826102bd565b91506104b7836102bd565b92508282019050808211156104cf576104ce610475565b5b9291505056fea264697066735822122071fd423bf1925a82b8365df9556378338853705a6ca2616107224a4469eb36cb64736f6c634300081c0033",
					"opcodes": "PUSH1 0x80 PUSH1 0x40 MSTORE CALLVALUE DUP1 ISZERO PUSH2 0xF JUMPI PUSH0 PUSH0 REVERT JUMPDEST POP PUSH1 0x40 MLOAD PUSH2 0x629 CODESIZE SUB DUP1 PUSH2 0x629 DUP4 CODECOPY DUP2 DUP2 ADD PUSH1 0x40 MSTORE DUP2 ADD SWAP1 PUSH2 0x31 SWAP2 SWAP1 PUSH2 0xE6 JUMP JUMPDEST DUP1 PUSH1 0x1 PUSH0 PUSH2 0x100 EXP DUP2 SLOAD DUP2 PUSH20 0xFFFFFFFFFFFFFFFFFFFFFFFFFFFFFFFFFFFFFFFF MUL NOT AND SWAP1 DUP4 PUSH20 0xFFFFFFFFFFFFFFFFFFFFFFFFFFFFFFFFFFFFFFFF AND MUL OR SWAP1 SSTORE POP POP PUSH2 0x111 JUMP JUMPDEST PUSH0 PUSH0 REVERT JUMPDEST PUSH0 PUSH20 0xFFFFFFFFFFFFFFFFFFFFFFFFFFFFFFFFFFFFFFFF DUP3 AND SWAP1 POP SWAP2 SWAP1 POP JUMP JUMPDEST PUSH0 PUSH2 0xA4 DUP3 PUSH2 0x7B JUMP JUMPDEST SWAP1 POP SWAP2 SWAP1 POP JUMP JUMPDEST PUSH0 PUSH2 0xB5 DUP3 PUSH2 0x9A JUMP JUMPDEST SWAP1 POP SWAP2 SWAP1 POP JUMP JUMPDEST PUSH2 0xC5 DUP2 PUSH2 0xAB JUMP JUMPDEST DUP2 EQ PUSH2 0xCF JUMPI PUSH0 PUSH0 REVERT JUMPDEST POP JUMP JUMPDEST PUSH0 DUP2 MLOAD SWAP1 POP PUSH2 0xE0 DUP2 PUSH2 0xBC JUMP JUMPDEST SWAP3 SWAP2 POP POP JUMP JUMPDEST PUSH0 PUSH1 0x20 DUP3 DUP5 SUB SLT ISZERO PUSH2 0xFB JUMPI PUSH2 0xFA PUSH2 0x77 JUMP JUMPDEST JUMPDEST PUSH0 PUSH2 0x108 DUP5 DUP3 DUP6 ADD PUSH2 0xD2 JUMP JUMPDEST SWAP2 POP POP SWAP3 SWAP2 POP POP JUMP JUMPDEST PUSH2 0x50B DUP1 PUSH2 0x11E PUSH0 CODECOPY PUSH0 RETURN INVALID PUSH1 0x80 PUSH1 0x40 MSTORE CALLVALUE DUP1 ISZERO PUSH2 0xF JUMPI PUSH0 PUSH0 REVERT JUMPDEST POP PUSH1 0x4 CALLDATASIZE LT PUSH2 0x3F JUMPI PUSH0 CALLDATALOAD PUSH1 0xE0 SHR DUP1 PUSH4 0x785E9E86 EQ PUSH2 0x43 JUMPI DUP1 PUSH4 0xB6B55F25 EQ PUSH2 0x61 JUMPI DUP1 PUSH4 0xFC7E286D EQ PUSH2 0x91 JUMPI JUMPDEST PUSH0 PUSH0 REVERT JUMPDEST PUSH2 0x4B PUSH2 0xC1 JUMP JUMPDEST PUSH1 0x40 MLOAD PUSH2 0x58 SWAP2 SWAP1 PUSH2 0x2A0 JUMP JUMPDEST PUSH1 0x40 MLOAD DUP1 SWAP2 SUB SWAP1 RETURN JUMPDEST PUSH2 0x7B PUSH1 0x4 DUP1 CALLDATASIZE SUB DUP2 ADD SWAP1 PUSH2 0x76 SWAP2 SWAP1 PUSH2 0x2F0 JUMP JUMPDEST PUSH2 0xE6 JUMP JUMPDEST PUSH1 0x40 MLOAD PUSH2 0x88 SWAP2 SWAP1 PUSH2 0x335 JUMP JUMPDEST PUSH1 0x40 MLOAD DUP1 SWAP2 SUB SWAP1 RETURN JUMPDEST PUSH2 0xAB PUSH1 0x4 DUP1 CALLDATASIZE SUB DUP2 ADD SWAP1 PUSH2 0xA6 SWAP2 SWAP1 PUSH2 0x389 JUMP JUMPDEST PUSH2 0x1E1 JUMP JUMPDEST PUSH1 0x40 MLOAD PUSH2 0xB8 SWAP2 SWAP1 PUSH2 0x3C3 JUMP JUMPDEST PUSH1 0x40 MLOAD DUP1 SWAP2 SUB SWAP1 RETURN JUMPDEST PUSH1 0x1 PUSH0 SWAP1 SLOAD SWAP1 PUSH2 0x100 EXP SWAP1 DIV PUSH20 0xFFFFFFFFFFFFFFFFFFFFFFFFFFFFFFFFFFFFFFFF AND DUP2 JUMP JUMPDEST PUSH0 PUSH1 0x1 PUSH0 SWAP1 SLOAD SWAP1 PUSH2 0x100 EXP SWAP1 DIV PUSH20 0xFFFFFFFFFFFFFFFFFFFFFFFFFFFFFFFFFFFFFFFF AND PUSH20 0xFFFFFFFFFFFFFFFFFFFFFFFFFFFFFFFFFFFFFFFF AND PUSH4 0x23B872DD CALLER ADDRESS DUP6 PUSH1 0x40 MLOAD DUP5 PUSH4 0xFFFFFFFF AND PUSH1 0xE0 SHL DUP2 MSTORE PUSH1 0x4 ADD PUSH2 0x145 SWAP4 SWAP3 SWAP2 SWAP1 PUSH2 0x3EB JUMP JUMPDEST PUSH1 0x20 PUSH1 0x40 MLOAD DUP1 DUP4 SUB DUP2 PUSH0 DUP8 GAS CALL ISZERO DUP1 ISZERO PUSH2 0x161 JUMPI RETURNDATASIZE PUSH0 PUSH0 RETURNDATACOPY RETURNDATASIZE PUSH0 REVERT JUMPDEST POP POP POP POP PUSH1 0x40 MLOAD RETURNDATASIZE PUSH1 0x1F NOT PUSH1 0x1F DUP3 ADD AND DUP3 ADD DUP1 PUSH1 0x40 MSTORE POP DUP2 ADD SWAP1 PUSH2 0x185 SWAP2 SWAP1 PUSH2 0x44A JUMP JUMPDEST POP DUP2 PUSH0 PUSH0 CALLER PUSH20 0xFFFFFFFFFFFFFFFFFFFFFFFFFFFFFFFFFFFFFFFF AND PUSH20 0xFFFFFFFFFFFFFFFFFFFFFFFFFFFFFFFFFFFFFFFF AND DUP2 MSTORE PUSH1 0x20 ADD SWAP1 DUP2 MSTORE PUSH1 0x20 ADD PUSH0 KECCAK256 PUSH0 DUP3 DUP3 SLOAD PUSH2 0x1D1 SWAP2 SWAP1 PUSH2 0x4A2 JUMP JUMPDEST SWAP3 POP POP DUP2 SWAP1 SSTORE POP PUSH1 0x1 SWAP1 POP SWAP2 SWAP1 POP JUMP JUMPDEST PUSH0 PUSH0 PUSH0 DUP4 PUSH20 0xFFFFFFFFFFFFFFFFFFFFFFFFFFFFFFFFFFFFFFFF AND PUSH20 0xFFFFFFFFFFFFFFFFFFFFFFFFFFFFFFFFFFFFFFFF AND DUP2 MSTORE PUSH1 0x20 ADD SWAP1 DUP2 MSTORE PUSH1 0x20 ADD PUSH0 KECCAK256 SLOAD SWAP1 POP SWAP2 SWAP1 POP JUMP JUMPDEST PUSH0 PUSH20 0xFFFFFFFFFFFFFFFFFFFFFFFFFFFFFFFFFFFFFFFF DUP3 AND SWAP1 POP SWAP2 SWAP1 POP JUMP JUMPDEST PUSH0 DUP2 SWAP1 POP SWAP2 SWAP1 POP JUMP JUMPDEST PUSH0 PUSH2 0x268 PUSH2 0x263 PUSH2 0x25E DUP5 PUSH2 0x226 JUMP JUMPDEST PUSH2 0x245 JUMP JUMPDEST PUSH2 0x226 JUMP JUMPDEST SWAP1 POP SWAP2 SWAP1 POP JUMP JUMPDEST PUSH0 PUSH2 0x279 DUP3 PUSH2 0x24E JUMP JUMPDEST SWAP1 POP SWAP2 SWAP1 POP JUMP JUMPDEST PUSH0 PUSH2 0x28A DUP3 PUSH2 0x26F JUMP JUMPDEST SWAP1 POP SWAP2 SWAP1 POP JUMP JUMPDEST PUSH2 0x29A DUP2 PUSH2 0x280 JUMP JUMPDEST DUP3 MSTORE POP POP JUMP JUMPDEST PUSH0 PUSH1 0x20 DUP3 ADD SWAP1 POP PUSH2 0x2B3 PUSH0 DUP4 ADD DUP5 PUSH2 0x291 JUMP JUMPDEST SWAP3 SWAP2 POP POP JUMP JUMPDEST PUSH0 PUSH0 REVERT JUMPDEST PUSH0 DUP2 SWAP1 POP SWAP2 SWAP1 POP JUMP JUMPDEST PUSH2 0x2CF DUP2 PUSH2 0x2BD JUMP JUMPDEST DUP2 EQ PUSH2 0x2D9 JUMPI PUSH0 PUSH0 REVERT JUMPDEST POP JUMP JUMPDEST PUSH0 DUP2 CALLDATALOAD SWAP1 POP PUSH2 0x2EA DUP2 PUSH2 0x2C6 JUMP JUMPDEST SWAP3 SWAP2 POP POP JUMP JUMPDEST PUSH0 PUSH1 0x20 DUP3 DUP5 SUB SLT ISZERO PUSH2 0x305 JUMPI PUSH2 0x304 PUSH2 0x2B9 JUMP JUMPDEST JUMPDEST PUSH0 PUSH2 0x312 DUP5 DUP3 DUP6 ADD PUSH2 0x2DC JUMP JUMPDEST SWAP2 POP POP SWAP3 SWAP2 POP POP JUMP JUMPDEST PUSH0 DUP2 ISZERO ISZERO SWAP1 POP SWAP2 SWAP1 POP JUMP JUMPDEST PUSH2 0x32F DUP2 PUSH2 0x31B JUMP JUMPDEST DUP3 MSTORE POP POP JUMP JUMPDEST PUSH0 PUSH1 0x20 DUP3 ADD SWAP1 POP PUSH2 0x348 PUSH0 DUP4 ADD DUP5 PUSH2 0x326 JUMP JUMPDEST SWAP3 SWAP2 POP POP JUMP JUMPDEST PUSH0 PUSH2 0x358 DUP3 PUSH2 0x226 JUMP JUMPDEST SWAP1 POP SWAP2 SWAP1 POP JUMP JUMPDEST PUSH2 0x368 DUP2 PUSH2 0x34E JUMP JUMPDEST DUP2 EQ PUSH2 0x372 JUMPI PUSH0 PUSH0 REVERT JUMPDEST POP JUMP JUMPDEST PUSH0 DUP2 CALLDATALOAD SWAP1 POP PUSH2 0x383 DUP2 PUSH2 0x35F JUMP JUMPDEST SWAP3 SWAP2 POP POP JUMP JUMPDEST PUSH0 PUSH1 0x20 DUP3 DUP5 SUB SLT ISZERO PUSH2 0x39E JUMPI PUSH2 0x39D PUSH2 0x2B9 JUMP JUMPDEST JUMPDEST PUSH0 PUSH2 0x3AB DUP5 DUP3 DUP6 ADD PUSH2 0x375 JUMP JUMPDEST SWAP2 POP POP SWAP3 SWAP2 POP POP JUMP JUMPDEST PUSH2 0x3BD DUP2 PUSH2 0x2BD JUMP JUMPDEST DUP3 MSTORE POP POP JUMP JUMPDEST PUSH0 PUSH1 0x20 DUP3 ADD SWAP1 POP PUSH2 0x3D6 PUSH0 DUP4 ADD DUP5 PUSH2 0x3B4 JUMP JUMPDEST SWAP3 SWAP2 POP POP JUMP JUMPDEST PUSH2 0x3E5 DUP2 PUSH2 0x34E JUMP JUMPDEST DUP3 MSTORE POP POP JUMP JUMPDEST PUSH0 PUSH1 0x60 DUP3 ADD SWAP1 POP PUSH2 0x3FE PUSH0 DUP4 ADD DUP7 PUSH2 0x3DC JUMP JUMPDEST PUSH2 0x40B PUSH1 0x20 DUP4 ADD DUP6 PUSH2 0x3DC JUMP JUMPDEST PUSH2 0x418 PUSH1 0x40 DUP4 ADD DUP5 PUSH2 0x3B4 JUMP JUMPDEST SWAP5 SWAP4 POP POP POP POP JUMP JUMPDEST PUSH2 0x429 DUP2 PUSH2 0x31B JUMP JUMPDEST DUP2 EQ PUSH2 0x433 JUMPI PUSH0 PUSH0 REVERT JUMPDEST POP JUMP JUMPDEST PUSH0 DUP2 MLOAD SWAP1 POP PUSH2 0x444 DUP2 PUSH2 0x420 JUMP JUMPDEST SWAP3 SWAP2 POP POP JUMP JUMPDEST PUSH0 PUSH1 0x20 DUP3 DUP5 SUB SLT ISZERO PUSH2 0x45F JUMPI PUSH2 0x45E PUSH2 0x2B9 JUMP JUMPDEST JUMPDEST PUSH0 PUSH2 0x46C DUP5 DUP3 DUP6 ADD PUSH2 0x436 JUMP JUMPDEST SWAP2 POP POP SWAP3 SWAP2 POP POP JUMP JUMPDEST PUSH32 0x4E487B7100000000000000000000000000000000000000000000000000000000 PUSH0 MSTORE PUSH1 0x11 PUSH1 0x4 MSTORE PUSH1 0x24 PUSH0 REVERT JUMPDEST PUSH0 PUSH2 0x4AC DUP3 PUSH2 0x2BD JUMP JUMPDEST SWAP2 POP PUSH2 0x4B7 DUP4 PUSH2 0x2BD JUMP JUMPDEST SWAP3 POP DUP3 DUP3 ADD SWAP1 POP DUP1 DUP3 GT ISZERO PUSH2 0x4CF JUMPI PUSH2 0x4CE PUSH2 0x475 JUMP JUMPDEST JUMPDEST SWAP3 SWAP2 POP POP JUMP INVALID LOG2 PUSH5 0x6970667358 0x22 SLT KECCAK256 PUSH18 0xFD423BF1925A82B8365DF955637833885370 GAS PUSH13 0xA2616107224A4469EB36CB6473 PUSH16 0x6C634300081C00330000000000000000 "
				},
				"gasEstimates": {
					"creation": {
						"codeDepositCost": "258200",
						"executionCost": "infinite",
						"totalCost": "infinite"
					},
					"external": {
						"deposit(uint256)": "infinite",
						"deposits(address)": "2850",
						"erc20()": "infinite"
					}
				},
				"methodIdentifiers": {
					"deposit(uint256)": "b6b55f25",
					"deposits(address)": "fc7e286d",
					"erc20()": "785e9e86"
				}
			},
			"storageLayout": {
				"storage": [
					{
						"astId": 88,
						"contract": "contracts/ERC20_Demo/ReceiveingContract/ReceiveingContract.sol:ReceivingContract",
						"label": "_deposits",
						"offset": 0,
						"slot": "0",
						"type": "t_mapping(t_address,t_uint256)"
					},
					{
						"astId": 91,
						"contract": "contracts/ERC20_Demo/ReceiveingContract/ReceiveingContract.sol:ReceivingContract",
						"label": "erc20",
						"offset": 0,
						"slot": "1",
						"type": "t_contract(IERC20)81"
					}
				],
				"types": {
					"t_address": {
						"encoding": "inplace",
						"label": "address",
						"numberOfBytes": "20"
					},
					"t_contract(IERC20)81": {
						"encoding": "inplace",
						"label": "contract IERC20",
						"numberOfBytes": "20"
					},
					"t_mapping(t_address,t_uint256)": {
						"encoding": "mapping",
						"key": "t_address",
						"label": "mapping(address => uint256)",
						"numberOfBytes": "32",
						"value": "t_uint256"
					},
					"t_uint256": {
						"encoding": "inplace",
						"label": "uint256",
						"numberOfBytes": "32"
					}
				}
			},
			"userdoc": {
				"kind": "user",
				"methods": {},
				"version": 1
			}
		}
	}
}