{
	"contracts/ERC721/erc721_market-lpl/nft-market.sol": {
		"Market": {
			"abi": [
				{
					"inputs": [
						{
							"internalType": "contract IERC20",
							"name": "_erc20",
							"type": "address"
						},
						{
							"internalType": "contract IERC721",
							"name": "_erc721",
							"type": "address"
						}
					],
					"stateMutability": "nonpayable",
					"type": "constructor"
				},
				{
					"anonymous": false,
					"inputs": [
						{
							"indexed": false,
							"internalType": "address",
							"name": "seller",
							"type": "address"
						},
						{
							"indexed": false,
							"internalType": "uint256",
							"name": "tokenId",
							"type": "uint256"
						}
					],
					"name": "CancelOrder",
					"type": "event"
				},
				{
					"anonymous": false,
					"inputs": [
						{
							"indexed": false,
							"internalType": "address",
							"name": "seller",
							"type": "address"
						},
						{
							"indexed": false,
							"internalType": "uint256",
							"name": "tokenId",
							"type": "uint256"
						},
						{
							"indexed": false,
							"internalType": "uint256",
							"name": "previousPrice",
							"type": "uint256"
						},
						{
							"indexed": false,
							"internalType": "uint256",
							"name": "price",
							"type": "uint256"
						}
					],
					"name": "ChangePrice",
					"type": "event"
				},
				{
					"anonymous": false,
					"inputs": [
						{
							"indexed": false,
							"internalType": "address",
							"name": "buyer",
							"type": "address"
						},
						{
							"indexed": false,
							"internalType": "address",
							"name": "seller",
							"type": "address"
						},
						{
							"indexed": false,
							"internalType": "uint256",
							"name": "tokenId",
							"type": "uint256"
						},
						{
							"indexed": false,
							"internalType": "uint256",
							"name": "price",
							"type": "uint256"
						}
					],
					"name": "Deal",
					"type": "event"
				},
				{
					"anonymous": false,
					"inputs": [
						{
							"indexed": false,
							"internalType": "address",
							"name": "seller",
							"type": "address"
						},
						{
							"indexed": false,
							"internalType": "uint256",
							"name": "tokenId",
							"type": "uint256"
						},
						{
							"indexed": false,
							"internalType": "uint256",
							"name": "price",
							"type": "uint256"
						}
					],
					"name": "NewOrder",
					"type": "event"
				},
				{
					"inputs": [
						{
							"internalType": "uint256",
							"name": "_tokenId",
							"type": "uint256"
						}
					],
					"name": "buy",
					"outputs": [],
					"stateMutability": "nonpayable",
					"type": "function"
				},
				{
					"inputs": [
						{
							"internalType": "uint256",
							"name": "_tokenId",
							"type": "uint256"
						}
					],
					"name": "cancelOrder",
					"outputs": [],
					"stateMutability": "nonpayable",
					"type": "function"
				},
				{
					"inputs": [
						{
							"internalType": "uint256",
							"name": "_tokenId",
							"type": "uint256"
						},
						{
							"internalType": "uint256",
							"name": "_price",
							"type": "uint256"
						}
					],
					"name": "changePrice",
					"outputs": [],
					"stateMutability": "nonpayable",
					"type": "function"
				},
				{
					"inputs": [],
					"name": "erc20",
					"outputs": [
						{
							"internalType": "contract IERC20",
							"name": "",
							"type": "address"
						}
					],
					"stateMutability": "view",
					"type": "function"
				},
				{
					"inputs": [],
					"name": "erc721",
					"outputs": [
						{
							"internalType": "contract IERC721",
							"name": "",
							"type": "address"
						}
					],
					"stateMutability": "view",
					"type": "function"
				},
				{
					"inputs": [],
					"name": "getAllNFTs",
					"outputs": [
						{
							"components": [
								{
									"internalType": "address",
									"name": "seller",
									"type": "address"
								},
								{
									"internalType": "uint256",
									"name": "tokenId",
									"type": "uint256"
								},
								{
									"internalType": "uint256",
									"name": "price",
									"type": "uint256"
								}
							],
							"internalType": "struct Market.Order[]",
							"name": "",
							"type": "tuple[]"
						}
					],
					"stateMutability": "view",
					"type": "function"
				},
				{
					"inputs": [],
					"name": "getMyNFTs",
					"outputs": [
						{
							"components": [
								{
									"internalType": "address",
									"name": "seller",
									"type": "address"
								},
								{
									"internalType": "uint256",
									"name": "tokenId",
									"type": "uint256"
								},
								{
									"internalType": "uint256",
									"name": "price",
									"type": "uint256"
								}
							],
							"internalType": "struct Market.Order[]",
							"name": "",
							"type": "tuple[]"
						}
					],
					"stateMutability": "view",
					"type": "function"
				},
				{
					"inputs": [],
					"name": "getOrderLength",
					"outputs": [
						{
							"internalType": "uint256",
							"name": "",
							"type": "uint256"
						}
					],
					"stateMutability": "view",
					"type": "function"
				},
				{
					"inputs": [
						{
							"internalType": "uint256",
							"name": "",
							"type": "uint256"
						}
					],
					"name": "idToOrderIndex",
					"outputs": [
						{
							"internalType": "uint256",
							"name": "",
							"type": "uint256"
						}
					],
					"stateMutability": "view",
					"type": "function"
				},
				{
					"inputs": [
						{
							"internalType": "uint256",
							"name": "_tokenId",
							"type": "uint256"
						}
					],
					"name": "isListed",
					"outputs": [
						{
							"internalType": "bool",
							"name": "",
							"type": "bool"
						}
					],
					"stateMutability": "view",
					"type": "function"
				},
				{
					"inputs": [
						{
							"internalType": "address",
							"name": "_operator",
							"type": "address"
						},
						{
							"internalType": "address",
							"name": "_seller",
							"type": "address"
						},
						{
							"internalType": "uint256",
							"name": "_tokenId",
							"type": "uint256"
						},
						{
							"internalType": "bytes",
							"name": "_data",
							"type": "bytes"
						}
					],
					"name": "onERC721Received",
					"outputs": [
						{
							"internalType": "bytes4",
							"name": "",
							"type": "bytes4"
						}
					],
					"stateMutability": "nonpayable",
					"type": "function"
				},
				{
					"inputs": [
						{
							"internalType": "uint256",
							"name": "",
							"type": "uint256"
						}
					],
					"name": "orderOfId",
					"outputs": [
						{
							"internalType": "address",
							"name": "seller",
							"type": "address"
						},
						{
							"internalType": "uint256",
							"name": "tokenId",
							"type": "uint256"
						},
						{
							"internalType": "uint256",
							"name": "price",
							"type": "uint256"
						}
					],
					"stateMutability": "view",
					"type": "function"
				},
				{
					"inputs": [
						{
							"internalType": "uint256",
							"name": "",
							"type": "uint256"
						}
					],
					"name": "orders",
					"outputs": [
						{
							"internalType": "address",
							"name": "seller",
							"type": "address"
						},
						{
							"internalType": "uint256",
							"name": "tokenId",
							"type": "uint256"
						},
						{
							"internalType": "uint256",
							"name": "price",
							"type": "uint256"
						}
					],
					"stateMutability": "view",
					"type": "function"
				},
				{
					"inputs": [
						{
							"internalType": "bytes",
							"name": "_bytes",
							"type": "bytes"
						},
						{
							"internalType": "uint256",
							"name": "_start",
							"type": "uint256"
						}
					],
					"name": "toUint256",
					"outputs": [
						{
							"internalType": "uint256",
							"name": "",
							"type": "uint256"
						}
					],
					"stateMutability": "pure",
					"type": "function"
				}
			],
			"devdoc": {
				"kind": "dev",
				"methods": {
					"onERC721Received(address,address,uint256,bytes)": {
						"details": "List a good using a ERC721 receiver hook",
						"params": {
							"_data": "contains the pricing data as the first 32 bytes",
							"_operator": "the caller of this function",
							"_seller": "the good seller",
							"_tokenId": "the good id to list"
						}
					}
				},
				"title": "NFTMarket contract that allows atomic swaps of ERC20 and ERC721",
				"version": 1
			},
			"evm": {
				"assembly": "    /* \"contracts/ERC721/erc721_market-lpl/nft-market.sol\":323:7181  contract Market is IERC721Receiver {... */\n  mstore(0x40, 0x80)\n    /* \"contracts/ERC721/erc721_market-lpl/nft-market.sol\":1398:1769  constructor(IERC20 _erc20, IERC721 _erc721) {... */\n  callvalue\n  dup1\n  iszero\n  tag_1\n  jumpi\n  revert(0x00, 0x00)\ntag_1:\n  pop\n  mload(0x40)\n  sub(codesize, bytecodeSize)\n  dup1\n  bytecodeSize\n  dup4\n  codecopy\n  dup2\n  dup2\n  add\n  0x40\n  mstore\n  dup2\n  add\n  swap1\n  tag_2\n  swap2\n  swap1\n  tag_3\n  jump\t// in\ntag_2:\n    /* \"contracts/ERC721/erc721_market-lpl/nft-market.sol\":1500:1501  0 */\n  0x00\n    /* \"contracts/ERC721/erc721_market-lpl/nft-market.sol\":1473:1502  address(_erc20) != address(0) */\n  0xffffffffffffffffffffffffffffffffffffffff\n  and\n    /* \"contracts/ERC721/erc721_market-lpl/nft-market.sol\":1481:1487  _erc20 */\n  dup3\n    /* \"contracts/ERC721/erc721_market-lpl/nft-market.sol\":1473:1502  address(_erc20) != address(0) */\n  0xffffffffffffffffffffffffffffffffffffffff\n  and\n  sub\n    /* \"contracts/ERC721/erc721_market-lpl/nft-market.sol\":1452:1576  require(... */\n  tag_6\n  jumpi\n  mload(0x40)\n  0x08c379a000000000000000000000000000000000000000000000000000000000\n  dup2\n  mstore\n  0x04\n  add\n  tag_7\n  swap1\n  tag_8\n  jump\t// in\ntag_7:\n  mload(0x40)\n  dup1\n  swap2\n  sub\n  swap1\n  revert\ntag_6:\n    /* \"contracts/ERC721/erc721_market-lpl/nft-market.sol\":1635:1636  0 */\n  0x00\n    /* \"contracts/ERC721/erc721_market-lpl/nft-market.sol\":1607:1637  address(_erc721) != address(0) */\n  0xffffffffffffffffffffffffffffffffffffffff\n  and\n    /* \"contracts/ERC721/erc721_market-lpl/nft-market.sol\":1615:1622  _erc721 */\n  dup2\n    /* \"contracts/ERC721/erc721_market-lpl/nft-market.sol\":1607:1637  address(_erc721) != address(0) */\n  0xffffffffffffffffffffffffffffffffffffffff\n  and\n  sub\n    /* \"contracts/ERC721/erc721_market-lpl/nft-market.sol\":1586:1712  require(... */\n  tag_9\n  jumpi\n  mload(0x40)\n  0x08c379a000000000000000000000000000000000000000000000000000000000\n  dup2\n  mstore\n  0x04\n  add\n  tag_10\n  swap1\n  tag_11\n  jump\t// in\ntag_10:\n  mload(0x40)\n  dup1\n  swap2\n  sub\n  swap1\n  revert\ntag_9:\n    /* \"contracts/ERC721/erc721_market-lpl/nft-market.sol\":1730:1736  _erc20 */\n  dup2\n    /* \"contracts/ERC721/erc721_market-lpl/nft-market.sol\":1722:1727  erc20 */\n  0x00\n  0x00\n    /* \"contracts/ERC721/erc721_market-lpl/nft-market.sol\":1722:1736  erc20 = _erc20 */\n  0x0100\n  exp\n  dup2\n  sload\n  dup2\n  0xffffffffffffffffffffffffffffffffffffffff\n  mul\n  not\n  and\n  swap1\n  dup4\n  0xffffffffffffffffffffffffffffffffffffffff\n  and\n  mul\n  or\n  swap1\n  sstore\n  pop\n    /* \"contracts/ERC721/erc721_market-lpl/nft-market.sol\":1755:1762  _erc721 */\n  dup1\n    /* \"contracts/ERC721/erc721_market-lpl/nft-market.sol\":1746:1752  erc721 */\n  0x01\n  0x00\n    /* \"contracts/ERC721/erc721_market-lpl/nft-market.sol\":1746:1762  erc721 = _erc721 */\n  0x0100\n  exp\n  dup2\n  sload\n  dup2\n  0xffffffffffffffffffffffffffffffffffffffff\n  mul\n  not\n  and\n  swap1\n  dup4\n  0xffffffffffffffffffffffffffffffffffffffff\n  and\n  mul\n  or\n  swap1\n  sstore\n  pop\n    /* \"contracts/ERC721/erc721_market-lpl/nft-market.sol\":1398:1769  constructor(IERC20 _erc20, IERC721 _erc721) {... */\n  pop\n  pop\n    /* \"contracts/ERC721/erc721_market-lpl/nft-market.sol\":323:7181  contract Market is IERC721Receiver {... */\n  jump(tag_12)\n    /* \"#utility.yul\":88:205   */\ntag_14:\n    /* \"#utility.yul\":197:198   */\n  0x00\n    /* \"#utility.yul\":194:195   */\n  0x00\n    /* \"#utility.yul\":187:199   */\n  revert\n    /* \"#utility.yul\":334:460   */\ntag_16:\n    /* \"#utility.yul\":371:378   */\n  0x00\n    /* \"#utility.yul\":411:453   */\n  0xffffffffffffffffffffffffffffffffffffffff\n    /* \"#utility.yul\":404:409   */\n  dup3\n    /* \"#utility.yul\":400:454   */\n  and\n    /* \"#utility.yul\":389:454   */\n  swap1\n  pop\n    /* \"#utility.yul\":334:460   */\n  swap2\n  swap1\n  pop\n  jump\t// out\n    /* \"#utility.yul\":466:562   */\ntag_17:\n    /* \"#utility.yul\":503:510   */\n  0x00\n    /* \"#utility.yul\":532:556   */\n  tag_35\n    /* \"#utility.yul\":550:555   */\n  dup3\n    /* \"#utility.yul\":532:556   */\n  tag_16\n  jump\t// in\ntag_35:\n    /* \"#utility.yul\":521:556   */\n  swap1\n  pop\n    /* \"#utility.yul\":466:562   */\n  swap2\n  swap1\n  pop\n  jump\t// out\n    /* \"#utility.yul\":568:677   */\ntag_18:\n    /* \"#utility.yul\":618:625   */\n  0x00\n    /* \"#utility.yul\":647:671   */\n  tag_37\n    /* \"#utility.yul\":665:670   */\n  dup3\n    /* \"#utility.yul\":647:671   */\n  tag_17\n  jump\t// in\ntag_37:\n    /* \"#utility.yul\":636:671   */\n  swap1\n  pop\n    /* \"#utility.yul\":568:677   */\n  swap2\n  swap1\n  pop\n  jump\t// out\n    /* \"#utility.yul\":683:831   */\ntag_19:\n    /* \"#utility.yul\":769:806   */\n  tag_39\n    /* \"#utility.yul\":800:805   */\n  dup2\n    /* \"#utility.yul\":769:806   */\n  tag_18\n  jump\t// in\ntag_39:\n    /* \"#utility.yul\":762:767   */\n  dup2\n    /* \"#utility.yul\":759:807   */\n  eq\n    /* \"#utility.yul\":749:825   */\n  tag_40\n  jumpi\n    /* \"#utility.yul\":821:822   */\n  0x00\n    /* \"#utility.yul\":818:819   */\n  0x00\n    /* \"#utility.yul\":811:823   */\n  revert\n    /* \"#utility.yul\":749:825   */\ntag_40:\n    /* \"#utility.yul\":683:831   */\n  pop\n  jump\t// out\n    /* \"#utility.yul\":837:1006   */\ntag_20:\n    /* \"#utility.yul\":907:912   */\n  0x00\n    /* \"#utility.yul\":938:944   */\n  dup2\n    /* \"#utility.yul\":932:945   */\n  mload\n    /* \"#utility.yul\":923:945   */\n  swap1\n  pop\n    /* \"#utility.yul\":954:1000   */\n  tag_42\n    /* \"#utility.yul\":994:999   */\n  dup2\n    /* \"#utility.yul\":954:1000   */\n  tag_19\n  jump\t// in\ntag_42:\n    /* \"#utility.yul\":837:1006   */\n  swap3\n  swap2\n  pop\n  pop\n  jump\t// out\n    /* \"#utility.yul\":1012:1123   */\ntag_21:\n    /* \"#utility.yul\":1064:1071   */\n  0x00\n    /* \"#utility.yul\":1093:1117   */\n  tag_44\n    /* \"#utility.yul\":1111:1116   */\n  dup3\n    /* \"#utility.yul\":1093:1117   */\n  tag_17\n  jump\t// in\ntag_44:\n    /* \"#utility.yul\":1082:1117   */\n  swap1\n  pop\n    /* \"#utility.yul\":1012:1123   */\n  swap2\n  swap1\n  pop\n  jump\t// out\n    /* \"#utility.yul\":1129:1281   */\ntag_22:\n    /* \"#utility.yul\":1217:1256   */\n  tag_46\n    /* \"#utility.yul\":1250:1255   */\n  dup2\n    /* \"#utility.yul\":1217:1256   */\n  tag_21\n  jump\t// in\ntag_46:\n    /* \"#utility.yul\":1210:1215   */\n  dup2\n    /* \"#utility.yul\":1207:1257   */\n  eq\n    /* \"#utility.yul\":1197:1275   */\n  tag_47\n  jumpi\n    /* \"#utility.yul\":1271:1272   */\n  0x00\n    /* \"#utility.yul\":1268:1269   */\n  0x00\n    /* \"#utility.yul\":1261:1273   */\n  revert\n    /* \"#utility.yul\":1197:1275   */\ntag_47:\n    /* \"#utility.yul\":1129:1281   */\n  pop\n  jump\t// out\n    /* \"#utility.yul\":1287:1460   */\ntag_23:\n    /* \"#utility.yul\":1359:1364   */\n  0x00\n    /* \"#utility.yul\":1390:1396   */\n  dup2\n    /* \"#utility.yul\":1384:1397   */\n  mload\n    /* \"#utility.yul\":1375:1397   */\n  swap1\n  pop\n    /* \"#utility.yul\":1406:1454   */\n  tag_49\n    /* \"#utility.yul\":1448:1453   */\n  dup2\n    /* \"#utility.yul\":1406:1454   */\n  tag_22\n  jump\t// in\ntag_49:\n    /* \"#utility.yul\":1287:1460   */\n  swap3\n  swap2\n  pop\n  pop\n  jump\t// out\n    /* \"#utility.yul\":1466:2029   */\ntag_3:\n    /* \"#utility.yul\":1573:1579   */\n  0x00\n    /* \"#utility.yul\":1581:1587   */\n  0x00\n    /* \"#utility.yul\":1630:1632   */\n  0x40\n    /* \"#utility.yul\":1618:1627   */\n  dup4\n    /* \"#utility.yul\":1609:1616   */\n  dup6\n    /* \"#utility.yul\":1605:1628   */\n  sub\n    /* \"#utility.yul\":1601:1633   */\n  slt\n    /* \"#utility.yul\":1598:1717   */\n  iszero\n  tag_51\n  jumpi\n    /* \"#utility.yul\":1636:1715   */\n  tag_52\n  tag_14\n  jump\t// in\ntag_52:\n    /* \"#utility.yul\":1598:1717   */\ntag_51:\n    /* \"#utility.yul\":1756:1757   */\n  0x00\n    /* \"#utility.yul\":1781:1858   */\n  tag_53\n    /* \"#utility.yul\":1850:1857   */\n  dup6\n    /* \"#utility.yul\":1841:1847   */\n  dup3\n    /* \"#utility.yul\":1830:1839   */\n  dup7\n    /* \"#utility.yul\":1826:1848   */\n  add\n    /* \"#utility.yul\":1781:1858   */\n  tag_20\n  jump\t// in\ntag_53:\n    /* \"#utility.yul\":1771:1858   */\n  swap3\n  pop\n    /* \"#utility.yul\":1727:1868   */\n  pop\n    /* \"#utility.yul\":1907:1909   */\n  0x20\n    /* \"#utility.yul\":1933:2012   */\n  tag_54\n    /* \"#utility.yul\":2004:2011   */\n  dup6\n    /* \"#utility.yul\":1995:2001   */\n  dup3\n    /* \"#utility.yul\":1984:1993   */\n  dup7\n    /* \"#utility.yul\":1980:2002   */\n  add\n    /* \"#utility.yul\":1933:2012   */\n  tag_23\n  jump\t// in\ntag_54:\n    /* \"#utility.yul\":1923:2012   */\n  swap2\n  pop\n    /* \"#utility.yul\":1878:2022   */\n  pop\n    /* \"#utility.yul\":1466:2029   */\n  swap3\n  pop\n  swap3\n  swap1\n  pop\n  jump\t// out\n    /* \"#utility.yul\":2035:2204   */\ntag_24:\n    /* \"#utility.yul\":2119:2130   */\n  0x00\n    /* \"#utility.yul\":2153:2159   */\n  dup3\n    /* \"#utility.yul\":2148:2151   */\n  dup3\n    /* \"#utility.yul\":2141:2160   */\n  mstore\n    /* \"#utility.yul\":2193:2197   */\n  0x20\n    /* \"#utility.yul\":2188:2191   */\n  dup3\n    /* \"#utility.yul\":2184:2198   */\n  add\n    /* \"#utility.yul\":2169:2198   */\n  swap1\n  pop\n    /* \"#utility.yul\":2035:2204   */\n  swap3\n  swap2\n  pop\n  pop\n  jump\t// out\n    /* \"#utility.yul\":2210:2445   */\ntag_25:\n    /* \"#utility.yul\":2350:2384   */\n  0x4d61726b65743a2049455243323020636f6e7472616374206164647265737320\n    /* \"#utility.yul\":2346:2347   */\n  0x00\n    /* \"#utility.yul\":2338:2344   */\n  dup3\n    /* \"#utility.yul\":2334:2348   */\n  add\n    /* \"#utility.yul\":2327:2385   */\n  mstore\n    /* \"#utility.yul\":2419:2437   */\n  0x6d757374206265206e6f6e2d6e756c6c00000000000000000000000000000000\n    /* \"#utility.yul\":2414:2416   */\n  0x20\n    /* \"#utility.yul\":2406:2412   */\n  dup3\n    /* \"#utility.yul\":2402:2417   */\n  add\n    /* \"#utility.yul\":2395:2438   */\n  mstore\n    /* \"#utility.yul\":2210:2445   */\n  pop\n  jump\t// out\n    /* \"#utility.yul\":2451:2817   */\ntag_26:\n    /* \"#utility.yul\":2593:2596   */\n  0x00\n    /* \"#utility.yul\":2614:2681   */\n  tag_58\n    /* \"#utility.yul\":2678:2680   */\n  0x30\n    /* \"#utility.yul\":2673:2676   */\n  dup4\n    /* \"#utility.yul\":2614:2681   */\n  tag_24\n  jump\t// in\ntag_58:\n    /* \"#utility.yul\":2607:2681   */\n  swap2\n  pop\n    /* \"#utility.yul\":2690:2783   */\n  tag_59\n    /* \"#utility.yul\":2779:2782   */\n  dup3\n    /* \"#utility.yul\":2690:2783   */\n  tag_25\n  jump\t// in\ntag_59:\n    /* \"#utility.yul\":2808:2810   */\n  0x40\n    /* \"#utility.yul\":2803:2806   */\n  dup3\n    /* \"#utility.yul\":2799:2811   */\n  add\n    /* \"#utility.yul\":2792:2811   */\n  swap1\n  pop\n    /* \"#utility.yul\":2451:2817   */\n  swap2\n  swap1\n  pop\n  jump\t// out\n    /* \"#utility.yul\":2823:3242   */\ntag_8:\n    /* \"#utility.yul\":2989:2993   */\n  0x00\n    /* \"#utility.yul\":3027:3029   */\n  0x20\n    /* \"#utility.yul\":3016:3025   */\n  dup3\n    /* \"#utility.yul\":3012:3030   */\n  add\n    /* \"#utility.yul\":3004:3030   */\n  swap1\n  pop\n    /* \"#utility.yul\":3076:3085   */\n  dup2\n    /* \"#utility.yul\":3070:3074   */\n  dup2\n    /* \"#utility.yul\":3066:3086   */\n  sub\n    /* \"#utility.yul\":3062:3063   */\n  0x00\n    /* \"#utility.yul\":3051:3060   */\n  dup4\n    /* \"#utility.yul\":3047:3064   */\n  add\n    /* \"#utility.yul\":3040:3087   */\n  mstore\n    /* \"#utility.yul\":3104:3235   */\n  tag_61\n    /* \"#utility.yul\":3230:3234   */\n  dup2\n    /* \"#utility.yul\":3104:3235   */\n  tag_26\n  jump\t// in\ntag_61:\n    /* \"#utility.yul\":3096:3235   */\n  swap1\n  pop\n    /* \"#utility.yul\":2823:3242   */\n  swap2\n  swap1\n  pop\n  jump\t// out\n    /* \"#utility.yul\":3248:3484   */\ntag_27:\n    /* \"#utility.yul\":3388:3422   */\n  0x4d61726b65743a204945524337323120636f6e74726163742061646472657373\n    /* \"#utility.yul\":3384:3385   */\n  0x00\n    /* \"#utility.yul\":3376:3382   */\n  dup3\n    /* \"#utility.yul\":3372:3386   */\n  add\n    /* \"#utility.yul\":3365:3423   */\n  mstore\n    /* \"#utility.yul\":3457:3476   */\n  0x206d757374206265206e6f6e2d6e756c6c000000000000000000000000000000\n    /* \"#utility.yul\":3452:3454   */\n  0x20\n    /* \"#utility.yul\":3444:3450   */\n  dup3\n    /* \"#utility.yul\":3440:3455   */\n  add\n    /* \"#utility.yul\":3433:3477   */\n  mstore\n    /* \"#utility.yul\":3248:3484   */\n  pop\n  jump\t// out\n    /* \"#utility.yul\":3490:3856   */\ntag_28:\n    /* \"#utility.yul\":3632:3635   */\n  0x00\n    /* \"#utility.yul\":3653:3720   */\n  tag_64\n    /* \"#utility.yul\":3717:3719   */\n  0x31\n    /* \"#utility.yul\":3712:3715   */\n  dup4\n    /* \"#utility.yul\":3653:3720   */\n  tag_24\n  jump\t// in\ntag_64:\n    /* \"#utility.yul\":3646:3720   */\n  swap2\n  pop\n    /* \"#utility.yul\":3729:3822   */\n  tag_65\n    /* \"#utility.yul\":3818:3821   */\n  dup3\n    /* \"#utility.yul\":3729:3822   */\n  tag_27\n  jump\t// in\ntag_65:\n    /* \"#utility.yul\":3847:3849   */\n  0x40\n    /* \"#utility.yul\":3842:3845   */\n  dup3\n    /* \"#utility.yul\":3838:3850   */\n  add\n    /* \"#utility.yul\":3831:3850   */\n  swap1\n  pop\n    /* \"#utility.yul\":3490:3856   */\n  swap2\n  swap1\n  pop\n  jump\t// out\n    /* \"#utility.yul\":3862:4281   */\ntag_11:\n    /* \"#utility.yul\":4028:4032   */\n  0x00\n    /* \"#utility.yul\":4066:4068   */\n  0x20\n    /* \"#utility.yul\":4055:4064   */\n  dup3\n    /* \"#utility.yul\":4051:4069   */\n  add\n    /* \"#utility.yul\":4043:4069   */\n  swap1\n  pop\n    /* \"#utility.yul\":4115:4124   */\n  dup2\n    /* \"#utility.yul\":4109:4113   */\n  dup2\n    /* \"#utility.yul\":4105:4125   */\n  sub\n    /* \"#utility.yul\":4101:4102   */\n  0x00\n    /* \"#utility.yul\":4090:4099   */\n  dup4\n    /* \"#utility.yul\":4086:4103   */\n  add\n    /* \"#utility.yul\":4079:4126   */\n  mstore\n    /* \"#utility.yul\":4143:4274   */\n  tag_67\n    /* \"#utility.yul\":4269:4273   */\n  dup2\n    /* \"#utility.yul\":4143:4274   */\n  tag_28\n  jump\t// in\ntag_67:\n    /* \"#utility.yul\":4135:4274   */\n  swap1\n  pop\n    /* \"#utility.yul\":3862:4281   */\n  swap2\n  swap1\n  pop\n  jump\t// out\n    /* \"contracts/ERC721/erc721_market-lpl/nft-market.sol\":323:7181  contract Market is IERC721Receiver {... */\ntag_12:\n  dataSize(sub_0)\n  dup1\n  dataOffset(sub_0)\n  0x00\n  codecopy\n  0x00\n  return\nstop\n\nsub_0: assembly {\n        /* \"contracts/ERC721/erc721_market-lpl/nft-market.sol\":323:7181  contract Market is IERC721Receiver {... */\n      mstore(0x40, 0x80)\n      callvalue\n      dup1\n      iszero\n      tag_1\n      jumpi\n      revert(0x00, 0x00)\n    tag_1:\n      pop\n      jumpi(tag_2, lt(calldatasize, 0x04))\n      shr(0xe0, calldataload(0x00))\n      dup1\n      0xb3de019c\n      gt\n      tag_17\n      jumpi\n      dup1\n      0xd96a094a\n      gt\n      tag_18\n      jumpi\n      dup1\n      0xd96a094a\n      eq\n      tag_13\n      jumpi\n      dup1\n      0xda694df0\n      eq\n      tag_14\n      jumpi\n      dup1\n      0xe0391b09\n      eq\n      tag_15\n      jumpi\n      dup1\n      0xfcce4883\n      eq\n      tag_16\n      jumpi\n      jump(tag_2)\n    tag_18:\n      dup1\n      0xb3de019c\n      eq\n      tag_10\n      jumpi\n      dup1\n      0xb5cdf924\n      eq\n      tag_11\n      jumpi\n      dup1\n      0xbca6ce64\n      eq\n      tag_12\n      jumpi\n      jump(tag_2)\n    tag_17:\n      dup1\n      0x629cb2e4\n      gt\n      tag_19\n      jumpi\n      dup1\n      0x629cb2e4\n      eq\n      tag_6\n      jumpi\n      dup1\n      0x785e9e86\n      eq\n      tag_7\n      jumpi\n      dup1\n      0x9d4971b7\n      eq\n      tag_8\n      jumpi\n      dup1\n      0xa85c38ef\n      eq\n      tag_9\n      jumpi\n      jump(tag_2)\n    tag_19:\n      dup1\n      0x150b7a02\n      eq\n      tag_3\n      jumpi\n      dup1\n      0x394a9077\n      eq\n      tag_4\n      jumpi\n      dup1\n      0x514fcac7\n      eq\n      tag_5\n      jumpi\n    tag_2:\n      revert(0x00, 0x00)\n        /* \"contracts/ERC721/erc721_market-lpl/nft-market.sol\":5015:5467  function onERC721Received(... */\n    tag_3:\n      tag_20\n      0x04\n      dup1\n      calldatasize\n      sub\n      dup2\n      add\n      swap1\n      tag_21\n      swap2\n      swap1\n      tag_22\n      jump\t// in\n    tag_21:\n      tag_23\n      jump\t// in\n    tag_20:\n      mload(0x40)\n      tag_24\n      swap2\n      swap1\n      tag_25\n      jump\t// in\n    tag_24:\n      mload(0x40)\n      dup1\n      swap2\n      sub\n      swap1\n      return\n        /* \"contracts/ERC721/erc721_market-lpl/nft-market.sol\":634:676  mapping(uint256 => Order) public orderOfId */\n    tag_4:\n      tag_26\n      0x04\n      dup1\n      calldatasize\n      sub\n      dup2\n      add\n      swap1\n      tag_27\n      swap2\n      swap1\n      tag_28\n      jump\t// in\n    tag_27:\n      tag_29\n      jump\t// in\n    tag_26:\n      mload(0x40)\n      tag_30\n      swap4\n      swap3\n      swap2\n      swap1\n      tag_31\n      jump\t// in\n    tag_30:\n      mload(0x40)\n      dup1\n      swap2\n      sub\n      swap1\n      return\n        /* \"contracts/ERC721/erc721_market-lpl/nft-market.sol\":2583:2979  function cancelOrder(uint256 _tokenId) external {... */\n    tag_5:\n      tag_32\n      0x04\n      dup1\n      calldatasize\n      sub\n      dup2\n      add\n      swap1\n      tag_33\n      swap2\n      swap1\n      tag_28\n      jump\t// in\n    tag_33:\n      tag_34\n      jump\t// in\n    tag_32:\n      stop\n        /* \"contracts/ERC721/erc721_market-lpl/nft-market.sol\":3871:4461  function getMyNFTs() public view returns (Order[] memory) {... */\n    tag_6:\n      tag_35\n      tag_36\n      jump\t// in\n    tag_35:\n      mload(0x40)\n      tag_37\n      swap2\n      swap1\n      tag_38\n      jump\t// in\n    tag_37:\n      mload(0x40)\n      dup1\n      swap2\n      sub\n      swap1\n      return\n        /* \"contracts/ERC721/erc721_market-lpl/nft-market.sol\":364:383  IERC20 public erc20 */\n    tag_7:\n      tag_39\n      tag_40\n      jump\t// in\n    tag_39:\n      mload(0x40)\n      tag_41\n      swap2\n      swap1\n      tag_42\n      jump\t// in\n    tag_41:\n      mload(0x40)\n      dup1\n      swap2\n      sub\n      swap1\n      return\n        /* \"contracts/ERC721/erc721_market-lpl/nft-market.sol\":4646:4739  function getOrderLength() public view returns (uint256) {... */\n    tag_8:\n      tag_43\n      tag_44\n      jump\t// in\n    tag_43:\n      mload(0x40)\n      tag_45\n      swap2\n      swap1\n      tag_46\n      jump\t// in\n    tag_45:\n      mload(0x40)\n      dup1\n      swap2\n      sub\n      swap1\n      return\n        /* \"contracts/ERC721/erc721_market-lpl/nft-market.sol\":731:752  Order[] public orders */\n    tag_9:\n      tag_47\n      0x04\n      dup1\n      calldatasize\n      sub\n      dup2\n      add\n      swap1\n      tag_48\n      swap2\n      swap1\n      tag_28\n      jump\t// in\n    tag_48:\n      tag_49\n      jump\t// in\n    tag_47:\n      mload(0x40)\n      tag_50\n      swap4\n      swap3\n      swap2\n      swap1\n      tag_31\n      jump\t// in\n    tag_50:\n      mload(0x40)\n      dup1\n      swap2\n      sub\n      swap1\n      return\n        /* \"contracts/ERC721/erc721_market-lpl/nft-market.sol\":2985:3659  function changePrice(uint256 _tokenId, uint256 _price) external {... */\n    tag_10:\n      tag_51\n      0x04\n      dup1\n      calldatasize\n      sub\n      dup2\n      add\n      swap1\n      tag_52\n      swap2\n      swap1\n      tag_53\n      jump\t// in\n    tag_52:\n      tag_54\n      jump\t// in\n    tag_51:\n      stop\n        /* \"contracts/ERC721/erc721_market-lpl/nft-market.sol\":5666:6073  function toUint256(... */\n    tag_11:\n      tag_55\n      0x04\n      dup1\n      calldatasize\n      sub\n      dup2\n      add\n      swap1\n      tag_56\n      swap2\n      swap1\n      tag_57\n      jump\t// in\n    tag_56:\n      tag_58\n      jump\t// in\n    tag_55:\n      mload(0x40)\n      tag_59\n      swap2\n      swap1\n      tag_46\n      jump\t// in\n    tag_59:\n      mload(0x40)\n      dup1\n      swap2\n      sub\n      swap1\n      return\n        /* \"contracts/ERC721/erc721_market-lpl/nft-market.sol\":389:410  IERC721 public erc721 */\n    tag_12:\n      tag_60\n      tag_61\n      jump\t// in\n    tag_60:\n      mload(0x40)\n      tag_62\n      swap2\n      swap1\n      tag_63\n      jump\t// in\n    tag_62:\n      mload(0x40)\n      dup1\n      swap2\n      sub\n      swap1\n      return\n        /* \"contracts/ERC721/erc721_market-lpl/nft-market.sol\":1899:2490  function buy(uint256 _tokenId) external {... */\n    tag_13:\n      tag_64\n      0x04\n      dup1\n      calldatasize\n      sub\n      dup2\n      add\n      swap1\n      tag_65\n      swap2\n      swap1\n      tag_28\n      jump\t// in\n    tag_65:\n      tag_66\n      jump\t// in\n    tag_64:\n      stop\n        /* \"contracts/ERC721/erc721_market-lpl/nft-market.sol\":818:867  mapping(uint256 => uint256) public idToOrderIndex */\n    tag_14:\n      tag_67\n      0x04\n      dup1\n      calldatasize\n      sub\n      dup2\n      add\n      swap1\n      tag_68\n      swap2\n      swap1\n      tag_28\n      jump\t// in\n    tag_68:\n      tag_69\n      jump\t// in\n    tag_67:\n      mload(0x40)\n      tag_70\n      swap2\n      swap1\n      tag_46\n      jump\t// in\n    tag_70:\n      mload(0x40)\n      dup1\n      swap2\n      sub\n      swap1\n      return\n        /* \"contracts/ERC721/erc721_market-lpl/nft-market.sol\":3695:3784  function getAllNFTs() public view returns (Order[] memory) {... */\n    tag_15:\n      tag_71\n      tag_72\n      jump\t// in\n    tag_71:\n      mload(0x40)\n      tag_73\n      swap2\n      swap1\n      tag_38\n      jump\t// in\n    tag_73:\n      mload(0x40)\n      dup1\n      swap2\n      sub\n      swap1\n      return\n        /* \"contracts/ERC721/erc721_market-lpl/nft-market.sol\":4513:4640  function isListed(uint256 _tokenId) public view returns (bool) {... */\n    tag_16:\n      tag_74\n      0x04\n      dup1\n      calldatasize\n      sub\n      dup2\n      add\n      swap1\n      tag_75\n      swap2\n      swap1\n      tag_28\n      jump\t// in\n    tag_75:\n      tag_76\n      jump\t// in\n    tag_74:\n      mload(0x40)\n      tag_77\n      swap2\n      swap1\n      tag_78\n      jump\t// in\n    tag_77:\n      mload(0x40)\n      dup1\n      swap2\n      sub\n      swap1\n      return\n        /* \"contracts/ERC721/erc721_market-lpl/nft-market.sol\":5015:5467  function onERC721Received(... */\n    tag_23:\n        /* \"contracts/ERC721/erc721_market-lpl/nft-market.sol\":5180:5186  bytes4 */\n      0x00\n        /* \"contracts/ERC721/erc721_market-lpl/nft-market.sol\":5219:5226  _seller */\n      dup5\n        /* \"contracts/ERC721/erc721_market-lpl/nft-market.sol\":5206:5226  _operator == _seller */\n      0xffffffffffffffffffffffffffffffffffffffff\n      and\n        /* \"contracts/ERC721/erc721_market-lpl/nft-market.sol\":5206:5215  _operator */\n      dup7\n        /* \"contracts/ERC721/erc721_market-lpl/nft-market.sol\":5206:5226  _operator == _seller */\n      0xffffffffffffffffffffffffffffffffffffffff\n      and\n      eq\n        /* \"contracts/ERC721/erc721_market-lpl/nft-market.sol\":5198:5262  require(_operator == _seller, \"Market: Seller must be operator\") */\n      tag_80\n      jumpi\n      mload(0x40)\n      0x08c379a000000000000000000000000000000000000000000000000000000000\n      dup2\n      mstore\n      0x04\n      add\n      tag_81\n      swap1\n      tag_82\n      jump\t// in\n    tag_81:\n      mload(0x40)\n      dup1\n      swap2\n      sub\n      swap1\n      revert\n    tag_80:\n        /* \"contracts/ERC721/erc721_market-lpl/nft-market.sol\":5272:5286  uint256 _price */\n      0x00\n        /* \"contracts/ERC721/erc721_market-lpl/nft-market.sol\":5289:5308  toUint256(_data, 0) */\n      tag_83\n        /* \"contracts/ERC721/erc721_market-lpl/nft-market.sol\":5299:5304  _data */\n      dup5\n      dup5\n        /* \"contracts/ERC721/erc721_market-lpl/nft-market.sol\":5289:5308  toUint256(_data, 0) */\n      dup1\n      dup1\n      0x1f\n      add\n      0x20\n      dup1\n      swap2\n      div\n      mul\n      0x20\n      add\n      mload(0x40)\n      swap1\n      dup2\n      add\n      0x40\n      mstore\n      dup1\n      swap4\n      swap3\n      swap2\n      swap1\n      dup2\n      dup2\n      mstore\n      0x20\n      add\n      dup4\n      dup4\n      dup1\n      dup3\n      dup5\n      calldatacopy\n      0x00\n      dup2\n      dup5\n      add\n      mstore\n      not(0x1f)\n      0x1f\n      dup3\n      add\n      and\n      swap1\n      pop\n      dup1\n      dup4\n      add\n      swap3\n      pop\n      pop\n      pop\n      pop\n      pop\n      pop\n      pop\n        /* \"contracts/ERC721/erc721_market-lpl/nft-market.sol\":5306:5307  0 */\n      0x00\n        /* \"contracts/ERC721/erc721_market-lpl/nft-market.sol\":5289:5298  toUint256 */\n      tag_58\n        /* \"contracts/ERC721/erc721_market-lpl/nft-market.sol\":5289:5308  toUint256(_data, 0) */\n      jump\t// in\n    tag_83:\n        /* \"contracts/ERC721/erc721_market-lpl/nft-market.sol\":5272:5308  uint256 _price = toUint256(_data, 0) */\n      swap1\n      pop\n        /* \"contracts/ERC721/erc721_market-lpl/nft-market.sol\":5382:5419  placeOrder(_seller, _tokenId, _price) */\n      tag_84\n        /* \"contracts/ERC721/erc721_market-lpl/nft-market.sol\":5393:5400  _seller */\n      dup7\n        /* \"contracts/ERC721/erc721_market-lpl/nft-market.sol\":5402:5410  _tokenId */\n      dup7\n        /* \"contracts/ERC721/erc721_market-lpl/nft-market.sol\":5412:5418  _price */\n      dup4\n        /* \"contracts/ERC721/erc721_market-lpl/nft-market.sol\":5382:5392  placeOrder */\n      tag_85\n        /* \"contracts/ERC721/erc721_market-lpl/nft-market.sol\":5382:5419  placeOrder(_seller, _tokenId, _price) */\n      jump\t// in\n    tag_84:\n        /* \"contracts/ERC721/erc721_market-lpl/nft-market.sol\":469:479  0x150b7a02 */\n      0x150b7a02\n        /* \"contracts/ERC721/erc721_market-lpl/nft-market.sol\":5436:5460  MAGIC_ON_ERC721_RECEIVED */\n      0xe0\n      shl\n        /* \"contracts/ERC721/erc721_market-lpl/nft-market.sol\":5429:5460  return MAGIC_ON_ERC721_RECEIVED */\n      swap2\n      pop\n      pop\n        /* \"contracts/ERC721/erc721_market-lpl/nft-market.sol\":5015:5467  function onERC721Received(... */\n      swap6\n      swap5\n      pop\n      pop\n      pop\n      pop\n      pop\n      jump\t// out\n        /* \"contracts/ERC721/erc721_market-lpl/nft-market.sol\":634:676  mapping(uint256 => Order) public orderOfId */\n    tag_29:\n      mstore(0x20, 0x02)\n      dup1\n      0x00\n      mstore\n      keccak256(0x00, 0x40)\n      0x00\n      swap2\n      pop\n      swap1\n      pop\n      dup1\n      0x00\n      add\n      0x00\n      swap1\n      sload\n      swap1\n      0x0100\n      exp\n      swap1\n      div\n      0xffffffffffffffffffffffffffffffffffffffff\n      and\n      swap1\n      dup1\n      0x01\n      add\n      sload\n      swap1\n      dup1\n      0x02\n      add\n      sload\n      swap1\n      pop\n      dup4\n      jump\t// out\n        /* \"contracts/ERC721/erc721_market-lpl/nft-market.sol\":2583:2979  function cancelOrder(uint256 _tokenId) external {... */\n    tag_34:\n        /* \"contracts/ERC721/erc721_market-lpl/nft-market.sol\":2649:2667  isListed(_tokenId) */\n      tag_87\n        /* \"contracts/ERC721/erc721_market-lpl/nft-market.sol\":2658:2666  _tokenId */\n      dup2\n        /* \"contracts/ERC721/erc721_market-lpl/nft-market.sol\":2649:2657  isListed */\n      tag_76\n        /* \"contracts/ERC721/erc721_market-lpl/nft-market.sol\":2649:2667  isListed(_tokenId) */\n      jump\t// in\n    tag_87:\n        /* \"contracts/ERC721/erc721_market-lpl/nft-market.sol\":2641:2702  require(isListed(_tokenId), \"Market: Token ID is not listed\") */\n      tag_88\n      jumpi\n      mload(0x40)\n      0x08c379a000000000000000000000000000000000000000000000000000000000\n      dup2\n      mstore\n      0x04\n      add\n      tag_89\n      swap1\n      tag_90\n      jump\t// in\n    tag_89:\n      mload(0x40)\n      dup1\n      swap2\n      sub\n      swap1\n      revert\n    tag_88:\n        /* \"contracts/ERC721/erc721_market-lpl/nft-market.sol\":2713:2727  address seller */\n      0x00\n        /* \"contracts/ERC721/erc721_market-lpl/nft-market.sol\":2730:2739  orderOfId */\n      0x02\n        /* \"contracts/ERC721/erc721_market-lpl/nft-market.sol\":2730:2749  orderOfId[_tokenId] */\n      0x00\n        /* \"contracts/ERC721/erc721_market-lpl/nft-market.sol\":2740:2748  _tokenId */\n      dup4\n        /* \"contracts/ERC721/erc721_market-lpl/nft-market.sol\":2730:2749  orderOfId[_tokenId] */\n      dup2\n      mstore\n      0x20\n      add\n      swap1\n      dup2\n      mstore\n      0x20\n      add\n      0x00\n      keccak256\n        /* \"contracts/ERC721/erc721_market-lpl/nft-market.sol\":2730:2756  orderOfId[_tokenId].seller */\n      0x00\n      add\n      0x00\n      swap1\n      sload\n      swap1\n      0x0100\n      exp\n      swap1\n      div\n      0xffffffffffffffffffffffffffffffffffffffff\n      and\n        /* \"contracts/ERC721/erc721_market-lpl/nft-market.sol\":2713:2756  address seller = orderOfId[_tokenId].seller */\n      swap1\n      pop\n        /* \"contracts/ERC721/erc721_market-lpl/nft-market.sol\":2784:2794  msg.sender */\n      caller\n        /* \"contracts/ERC721/erc721_market-lpl/nft-market.sol\":2774:2794  seller == msg.sender */\n      0xffffffffffffffffffffffffffffffffffffffff\n      and\n        /* \"contracts/ERC721/erc721_market-lpl/nft-market.sol\":2774:2780  seller */\n      dup2\n        /* \"contracts/ERC721/erc721_market-lpl/nft-market.sol\":2774:2794  seller == msg.sender */\n      0xffffffffffffffffffffffffffffffffffffffff\n      and\n      eq\n        /* \"contracts/ERC721/erc721_market-lpl/nft-market.sol\":2766:2827  require(seller == msg.sender, \"Market: Sender is not seller\") */\n      tag_91\n      jumpi\n      mload(0x40)\n      0x08c379a000000000000000000000000000000000000000000000000000000000\n      dup2\n      mstore\n      0x04\n      add\n      tag_92\n      swap1\n      tag_93\n      jump\t// in\n    tag_92:\n      mload(0x40)\n      dup1\n      swap2\n      sub\n      swap1\n      revert\n    tag_91:\n        /* \"contracts/ERC721/erc721_market-lpl/nft-market.sol\":2838:2844  erc721 */\n      0x01\n      0x00\n      swap1\n      sload\n      swap1\n      0x0100\n      exp\n      swap1\n      div\n      0xffffffffffffffffffffffffffffffffffffffff\n      and\n        /* \"contracts/ERC721/erc721_market-lpl/nft-market.sol\":2838:2861  erc721.safeTransferFrom */\n      0xffffffffffffffffffffffffffffffffffffffff\n      and\n      0x42842e0e\n        /* \"contracts/ERC721/erc721_market-lpl/nft-market.sol\":2870:2874  this */\n      address\n        /* \"contracts/ERC721/erc721_market-lpl/nft-market.sol\":2877:2883  seller */\n      dup4\n        /* \"contracts/ERC721/erc721_market-lpl/nft-market.sol\":2885:2893  _tokenId */\n      dup6\n        /* \"contracts/ERC721/erc721_market-lpl/nft-market.sol\":2838:2894  erc721.safeTransferFrom(address(this), seller, _tokenId) */\n      mload(0x40)\n      dup5\n      0xffffffff\n      and\n      0xe0\n      shl\n      dup2\n      mstore\n      0x04\n      add\n      tag_94\n      swap4\n      swap3\n      swap2\n      swap1\n      tag_95\n      jump\t// in\n    tag_94:\n      0x00\n      mload(0x40)\n      dup1\n      dup4\n      sub\n      dup2\n      0x00\n      dup8\n      dup1\n      extcodesize\n      iszero\n      dup1\n      iszero\n      tag_96\n      jumpi\n      revert(0x00, 0x00)\n    tag_96:\n      pop\n      gas\n      call\n      iszero\n      dup1\n      iszero\n      tag_98\n      jumpi\n      returndatacopy(0x00, 0x00, returndatasize)\n      revert(0x00, returndatasize)\n    tag_98:\n      pop\n      pop\n      pop\n      pop\n        /* \"contracts/ERC721/erc721_market-lpl/nft-market.sol\":2904:2927  removeListing(_tokenId) */\n      tag_99\n        /* \"contracts/ERC721/erc721_market-lpl/nft-market.sol\":2918:2926  _tokenId */\n      dup3\n        /* \"contracts/ERC721/erc721_market-lpl/nft-market.sol\":2904:2917  removeListing */\n      tag_100\n        /* \"contracts/ERC721/erc721_market-lpl/nft-market.sol\":2904:2927  removeListing(_tokenId) */\n      jump\t// in\n    tag_99:\n        /* \"contracts/ERC721/erc721_market-lpl/nft-market.sol\":2943:2972  CancelOrder(seller, _tokenId) */\n      0xc0e68d6b69f741c21e955cad2ae4d505b6f6735c7e7b278251b3f6283a5f07eb\n        /* \"contracts/ERC721/erc721_market-lpl/nft-market.sol\":2955:2961  seller */\n      dup2\n        /* \"contracts/ERC721/erc721_market-lpl/nft-market.sol\":2963:2971  _tokenId */\n      dup4\n        /* \"contracts/ERC721/erc721_market-lpl/nft-market.sol\":2943:2972  CancelOrder(seller, _tokenId) */\n      mload(0x40)\n      tag_101\n      swap3\n      swap2\n      swap1\n      tag_102\n      jump\t// in\n    tag_101:\n      mload(0x40)\n      dup1\n      swap2\n      sub\n      swap1\n      log1\n        /* \"contracts/ERC721/erc721_market-lpl/nft-market.sol\":2631:2979  {... */\n      pop\n        /* \"contracts/ERC721/erc721_market-lpl/nft-market.sol\":2583:2979  function cancelOrder(uint256 _tokenId) external {... */\n      pop\n      jump\t// out\n        /* \"contracts/ERC721/erc721_market-lpl/nft-market.sol\":3871:4461  function getMyNFTs() public view returns (Order[] memory) {... */\n    tag_36:\n        /* \"contracts/ERC721/erc721_market-lpl/nft-market.sol\":3913:3927  Order[] memory */\n      0x60\n        /* \"contracts/ERC721/erc721_market-lpl/nft-market.sol\":3939:3962  Order[] memory myOrders */\n      0x00\n        /* \"contracts/ERC721/erc721_market-lpl/nft-market.sol\":3977:3983  orders */\n      0x03\n        /* \"contracts/ERC721/erc721_market-lpl/nft-market.sol\":3977:3990  orders.length */\n      dup1\n      sload\n      swap1\n      pop\n        /* \"contracts/ERC721/erc721_market-lpl/nft-market.sol\":3965:3991  new Order[](orders.length) */\n      0xffffffffffffffff\n      dup2\n      gt\n      iszero\n      tag_104\n      jumpi\n      tag_105\n      tag_106\n      jump\t// in\n    tag_105:\n    tag_104:\n      mload(0x40)\n      swap1\n      dup1\n      dup3\n      mstore\n      dup1\n      0x20\n      mul\n      0x20\n      add\n      dup3\n      add\n      0x40\n      mstore\n      dup1\n      iszero\n      tag_107\n      jumpi\n      dup2\n      0x20\n      add\n    tag_108:\n      tag_109\n      tag_110\n      jump\t// in\n    tag_109:\n      dup2\n      mstore\n      0x20\n      add\n      swap1\n      0x01\n      swap1\n      sub\n      swap1\n      dup2\n      tag_108\n      jumpi\n      swap1\n      pop\n    tag_107:\n      pop\n        /* \"contracts/ERC721/erc721_market-lpl/nft-market.sol\":3939:3991  Order[] memory myOrders = new Order[](orders.length) */\n      swap1\n      pop\n        /* \"contracts/ERC721/erc721_market-lpl/nft-market.sol\":4001:4022  uint256 myOrdersCount */\n      0x00\n        /* \"contracts/ERC721/erc721_market-lpl/nft-market.sol\":4025:4026  0 */\n      0x00\n        /* \"contracts/ERC721/erc721_market-lpl/nft-market.sol\":4001:4026  uint256 myOrdersCount = 0 */\n      swap1\n      pop\n        /* \"contracts/ERC721/erc721_market-lpl/nft-market.sol\":4042:4051  uint256 i */\n      0x00\n        /* \"contracts/ERC721/erc721_market-lpl/nft-market.sol\":4054:4055  0 */\n      0x00\n        /* \"contracts/ERC721/erc721_market-lpl/nft-market.sol\":4042:4055  uint256 i = 0 */\n      swap1\n      pop\n        /* \"contracts/ERC721/erc721_market-lpl/nft-market.sol\":4037:4242  for (uint256 i = 0; i < orders.length; i++) {... */\n    tag_111:\n        /* \"contracts/ERC721/erc721_market-lpl/nft-market.sol\":4061:4067  orders */\n      0x03\n        /* \"contracts/ERC721/erc721_market-lpl/nft-market.sol\":4061:4074  orders.length */\n      dup1\n      sload\n      swap1\n      pop\n        /* \"contracts/ERC721/erc721_market-lpl/nft-market.sol\":4057:4058  i */\n      dup2\n        /* \"contracts/ERC721/erc721_market-lpl/nft-market.sol\":4057:4074  i < orders.length */\n      lt\n        /* \"contracts/ERC721/erc721_market-lpl/nft-market.sol\":4037:4242  for (uint256 i = 0; i < orders.length; i++) {... */\n      iszero\n      tag_112\n      jumpi\n        /* \"contracts/ERC721/erc721_market-lpl/nft-market.sol\":4119:4129  msg.sender */\n      caller\n        /* \"contracts/ERC721/erc721_market-lpl/nft-market.sol\":4099:4129  orders[i].seller == msg.sender */\n      0xffffffffffffffffffffffffffffffffffffffff\n      and\n        /* \"contracts/ERC721/erc721_market-lpl/nft-market.sol\":4099:4105  orders */\n      0x03\n        /* \"contracts/ERC721/erc721_market-lpl/nft-market.sol\":4106:4107  i */\n      dup3\n        /* \"contracts/ERC721/erc721_market-lpl/nft-market.sol\":4099:4108  orders[i] */\n      dup2\n      sload\n      dup2\n      lt\n      tag_114\n      jumpi\n      tag_115\n      tag_116\n      jump\t// in\n    tag_115:\n    tag_114:\n      swap1\n      0x00\n      mstore\n      keccak256(0x00, 0x20)\n      swap1\n      0x03\n      mul\n      add\n        /* \"contracts/ERC721/erc721_market-lpl/nft-market.sol\":4099:4115  orders[i].seller */\n      0x00\n      add\n      0x00\n      swap1\n      sload\n      swap1\n      0x0100\n      exp\n      swap1\n      div\n      0xffffffffffffffffffffffffffffffffffffffff\n      and\n        /* \"contracts/ERC721/erc721_market-lpl/nft-market.sol\":4099:4129  orders[i].seller == msg.sender */\n      0xffffffffffffffffffffffffffffffffffffffff\n      and\n      sub\n        /* \"contracts/ERC721/erc721_market-lpl/nft-market.sol\":4095:4232  if (orders[i].seller == msg.sender) {... */\n      tag_118\n      jumpi\n        /* \"contracts/ERC721/erc721_market-lpl/nft-market.sol\":4175:4181  orders */\n      0x03\n        /* \"contracts/ERC721/erc721_market-lpl/nft-market.sol\":4182:4183  i */\n      dup2\n        /* \"contracts/ERC721/erc721_market-lpl/nft-market.sol\":4175:4184  orders[i] */\n      dup2\n      sload\n      dup2\n      lt\n      tag_119\n      jumpi\n      tag_120\n      tag_116\n      jump\t// in\n    tag_120:\n    tag_119:\n      swap1\n      0x00\n      mstore\n      keccak256(0x00, 0x20)\n      swap1\n      0x03\n      mul\n      add\n        /* \"contracts/ERC721/erc721_market-lpl/nft-market.sol\":4149:4184  myOrders[myOrdersCount] = orders[i] */\n      mload(0x40)\n      dup1\n      0x60\n      add\n      0x40\n      mstore\n      swap1\n      dup2\n      0x00\n      dup3\n      add\n      0x00\n      swap1\n      sload\n      swap1\n      0x0100\n      exp\n      swap1\n      div\n      0xffffffffffffffffffffffffffffffffffffffff\n      and\n      0xffffffffffffffffffffffffffffffffffffffff\n      and\n      0xffffffffffffffffffffffffffffffffffffffff\n      and\n      dup2\n      mstore\n      0x20\n      add\n      0x01\n      dup3\n      add\n      sload\n      dup2\n      mstore\n      0x20\n      add\n      0x02\n      dup3\n      add\n      sload\n      dup2\n      mstore\n      pop\n      pop\n        /* \"contracts/ERC721/erc721_market-lpl/nft-market.sol\":4149:4157  myOrders */\n      dup4\n        /* \"contracts/ERC721/erc721_market-lpl/nft-market.sol\":4158:4171  myOrdersCount */\n      dup4\n        /* \"contracts/ERC721/erc721_market-lpl/nft-market.sol\":4149:4172  myOrders[myOrdersCount] */\n      dup2\n      mload\n      dup2\n      lt\n      tag_122\n      jumpi\n      tag_123\n      tag_116\n      jump\t// in\n    tag_123:\n    tag_122:\n      0x20\n      mul\n      0x20\n      add\n      add\n        /* \"contracts/ERC721/erc721_market-lpl/nft-market.sol\":4149:4184  myOrders[myOrdersCount] = orders[i] */\n      dup2\n      swap1\n      mstore\n      pop\n        /* \"contracts/ERC721/erc721_market-lpl/nft-market.sol\":4202:4217  myOrdersCount++ */\n      dup2\n      dup1\n      tag_124\n      swap1\n      tag_125\n      jump\t// in\n    tag_124:\n      swap3\n      pop\n      pop\n        /* \"contracts/ERC721/erc721_market-lpl/nft-market.sol\":4095:4232  if (orders[i].seller == msg.sender) {... */\n    tag_118:\n        /* \"contracts/ERC721/erc721_market-lpl/nft-market.sol\":4076:4079  i++ */\n      dup1\n      dup1\n      0x01\n      add\n      swap2\n      pop\n      pop\n        /* \"contracts/ERC721/erc721_market-lpl/nft-market.sol\":4037:4242  for (uint256 i = 0; i < orders.length; i++) {... */\n      jump(tag_111)\n    tag_112:\n      pop\n        /* \"contracts/ERC721/erc721_market-lpl/nft-market.sol\":4252:4282  Order[] memory myOrdersTrimmed */\n      0x00\n        /* \"contracts/ERC721/erc721_market-lpl/nft-market.sol\":4297:4310  myOrdersCount */\n      dup2\n        /* \"contracts/ERC721/erc721_market-lpl/nft-market.sol\":4285:4311  new Order[](myOrdersCount) */\n      0xffffffffffffffff\n      dup2\n      gt\n      iszero\n      tag_126\n      jumpi\n      tag_127\n      tag_106\n      jump\t// in\n    tag_127:\n    tag_126:\n      mload(0x40)\n      swap1\n      dup1\n      dup3\n      mstore\n      dup1\n      0x20\n      mul\n      0x20\n      add\n      dup3\n      add\n      0x40\n      mstore\n      dup1\n      iszero\n      tag_128\n      jumpi\n      dup2\n      0x20\n      add\n    tag_129:\n      tag_130\n      tag_110\n      jump\t// in\n    tag_130:\n      dup2\n      mstore\n      0x20\n      add\n      swap1\n      0x01\n      swap1\n      sub\n      swap1\n      dup2\n      tag_129\n      jumpi\n      swap1\n      pop\n    tag_128:\n      pop\n        /* \"contracts/ERC721/erc721_market-lpl/nft-market.sol\":4252:4311  Order[] memory myOrdersTrimmed = new Order[](myOrdersCount) */\n      swap1\n      pop\n        /* \"contracts/ERC721/erc721_market-lpl/nft-market.sol\":4326:4335  uint256 i */\n      0x00\n        /* \"contracts/ERC721/erc721_market-lpl/nft-market.sol\":4338:4339  0 */\n      0x00\n        /* \"contracts/ERC721/erc721_market-lpl/nft-market.sol\":4326:4339  uint256 i = 0 */\n      swap1\n      pop\n        /* \"contracts/ERC721/erc721_market-lpl/nft-market.sol\":4321:4422  for (uint256 i = 0; i < myOrdersCount; i++) {... */\n    tag_131:\n        /* \"contracts/ERC721/erc721_market-lpl/nft-market.sol\":4345:4358  myOrdersCount */\n      dup3\n        /* \"contracts/ERC721/erc721_market-lpl/nft-market.sol\":4341:4342  i */\n      dup2\n        /* \"contracts/ERC721/erc721_market-lpl/nft-market.sol\":4341:4358  i < myOrdersCount */\n      lt\n        /* \"contracts/ERC721/erc721_market-lpl/nft-market.sol\":4321:4422  for (uint256 i = 0; i < myOrdersCount; i++) {... */\n      iszero\n      tag_132\n      jumpi\n        /* \"contracts/ERC721/erc721_market-lpl/nft-market.sol\":4400:4408  myOrders */\n      dup4\n        /* \"contracts/ERC721/erc721_market-lpl/nft-market.sol\":4409:4410  i */\n      dup2\n        /* \"contracts/ERC721/erc721_market-lpl/nft-market.sol\":4400:4411  myOrders[i] */\n      dup2\n      mload\n      dup2\n      lt\n      tag_134\n      jumpi\n      tag_135\n      tag_116\n      jump\t// in\n    tag_135:\n    tag_134:\n      0x20\n      mul\n      0x20\n      add\n      add\n      mload\n        /* \"contracts/ERC721/erc721_market-lpl/nft-market.sol\":4379:4394  myOrdersTrimmed */\n      dup3\n        /* \"contracts/ERC721/erc721_market-lpl/nft-market.sol\":4395:4396  i */\n      dup3\n        /* \"contracts/ERC721/erc721_market-lpl/nft-market.sol\":4379:4397  myOrdersTrimmed[i] */\n      dup2\n      mload\n      dup2\n      lt\n      tag_136\n      jumpi\n      tag_137\n      tag_116\n      jump\t// in\n    tag_137:\n    tag_136:\n      0x20\n      mul\n      0x20\n      add\n      add\n        /* \"contracts/ERC721/erc721_market-lpl/nft-market.sol\":4379:4411  myOrdersTrimmed[i] = myOrders[i] */\n      dup2\n      swap1\n      mstore\n      pop\n        /* \"contracts/ERC721/erc721_market-lpl/nft-market.sol\":4360:4363  i++ */\n      dup1\n      dup1\n      0x01\n      add\n      swap2\n      pop\n      pop\n        /* \"contracts/ERC721/erc721_market-lpl/nft-market.sol\":4321:4422  for (uint256 i = 0; i < myOrdersCount; i++) {... */\n      jump(tag_131)\n    tag_132:\n      pop\n        /* \"contracts/ERC721/erc721_market-lpl/nft-market.sol\":4439:4454  myOrdersTrimmed */\n      dup1\n        /* \"contracts/ERC721/erc721_market-lpl/nft-market.sol\":4432:4454  return myOrdersTrimmed */\n      swap4\n      pop\n      pop\n      pop\n      pop\n        /* \"contracts/ERC721/erc721_market-lpl/nft-market.sol\":3871:4461  function getMyNFTs() public view returns (Order[] memory) {... */\n      swap1\n      jump\t// out\n        /* \"contracts/ERC721/erc721_market-lpl/nft-market.sol\":364:383  IERC20 public erc20 */\n    tag_40:\n      0x00\n      0x00\n      swap1\n      sload\n      swap1\n      0x0100\n      exp\n      swap1\n      div\n      0xffffffffffffffffffffffffffffffffffffffff\n      and\n      dup2\n      jump\t// out\n        /* \"contracts/ERC721/erc721_market-lpl/nft-market.sol\":4646:4739  function getOrderLength() public view returns (uint256) {... */\n    tag_44:\n        /* \"contracts/ERC721/erc721_market-lpl/nft-market.sol\":4693:4700  uint256 */\n      0x00\n        /* \"contracts/ERC721/erc721_market-lpl/nft-market.sol\":4719:4725  orders */\n      0x03\n        /* \"contracts/ERC721/erc721_market-lpl/nft-market.sol\":4719:4732  orders.length */\n      dup1\n      sload\n      swap1\n      pop\n        /* \"contracts/ERC721/erc721_market-lpl/nft-market.sol\":4712:4732  return orders.length */\n      swap1\n      pop\n        /* \"contracts/ERC721/erc721_market-lpl/nft-market.sol\":4646:4739  function getOrderLength() public view returns (uint256) {... */\n      swap1\n      jump\t// out\n        /* \"contracts/ERC721/erc721_market-lpl/nft-market.sol\":731:752  Order[] public orders */\n    tag_49:\n      0x03\n      dup2\n      dup2\n      sload\n      dup2\n      lt\n      tag_139\n      jumpi\n      0x00\n      dup1\n      revert\n    tag_139:\n      swap1\n      0x00\n      mstore\n      keccak256(0x00, 0x20)\n      swap1\n      0x03\n      mul\n      add\n      0x00\n      swap2\n      pop\n      swap1\n      pop\n      dup1\n      0x00\n      add\n      0x00\n      swap1\n      sload\n      swap1\n      0x0100\n      exp\n      swap1\n      div\n      0xffffffffffffffffffffffffffffffffffffffff\n      and\n      swap1\n      dup1\n      0x01\n      add\n      sload\n      swap1\n      dup1\n      0x02\n      add\n      sload\n      swap1\n      pop\n      dup4\n      jump\t// out\n        /* \"contracts/ERC721/erc721_market-lpl/nft-market.sol\":2985:3659  function changePrice(uint256 _tokenId, uint256 _price) external {... */\n    tag_54:\n        /* \"contracts/ERC721/erc721_market-lpl/nft-market.sol\":3067:3085  isListed(_tokenId) */\n      tag_142\n        /* \"contracts/ERC721/erc721_market-lpl/nft-market.sol\":3076:3084  _tokenId */\n      dup3\n        /* \"contracts/ERC721/erc721_market-lpl/nft-market.sol\":3067:3075  isListed */\n      tag_76\n        /* \"contracts/ERC721/erc721_market-lpl/nft-market.sol\":3067:3085  isListed(_tokenId) */\n      jump\t// in\n    tag_142:\n        /* \"contracts/ERC721/erc721_market-lpl/nft-market.sol\":3059:3120  require(isListed(_tokenId), \"Market: Token ID is not listed\") */\n      tag_143\n      jumpi\n      mload(0x40)\n      0x08c379a000000000000000000000000000000000000000000000000000000000\n      dup2\n      mstore\n      0x04\n      add\n      tag_144\n      swap1\n      tag_90\n      jump\t// in\n    tag_144:\n      mload(0x40)\n      dup1\n      swap2\n      sub\n      swap1\n      revert\n    tag_143:\n        /* \"contracts/ERC721/erc721_market-lpl/nft-market.sol\":3130:3144  address seller */\n      0x00\n        /* \"contracts/ERC721/erc721_market-lpl/nft-market.sol\":3147:3156  orderOfId */\n      0x02\n        /* \"contracts/ERC721/erc721_market-lpl/nft-market.sol\":3147:3166  orderOfId[_tokenId] */\n      0x00\n        /* \"contracts/ERC721/erc721_market-lpl/nft-market.sol\":3157:3165  _tokenId */\n      dup5\n        /* \"contracts/ERC721/erc721_market-lpl/nft-market.sol\":3147:3166  orderOfId[_tokenId] */\n      dup2\n      mstore\n      0x20\n      add\n      swap1\n      dup2\n      mstore\n      0x20\n      add\n      0x00\n      keccak256\n        /* \"contracts/ERC721/erc721_market-lpl/nft-market.sol\":3147:3173  orderOfId[_tokenId].seller */\n      0x00\n      add\n      0x00\n      swap1\n      sload\n      swap1\n      0x0100\n      exp\n      swap1\n      div\n      0xffffffffffffffffffffffffffffffffffffffff\n      and\n        /* \"contracts/ERC721/erc721_market-lpl/nft-market.sol\":3130:3173  address seller = orderOfId[_tokenId].seller */\n      swap1\n      pop\n        /* \"contracts/ERC721/erc721_market-lpl/nft-market.sol\":3264:3274  msg.sender */\n      caller\n        /* \"contracts/ERC721/erc721_market-lpl/nft-market.sol\":3254:3274  seller == msg.sender */\n      0xffffffffffffffffffffffffffffffffffffffff\n      and\n        /* \"contracts/ERC721/erc721_market-lpl/nft-market.sol\":3254:3260  seller */\n      dup2\n        /* \"contracts/ERC721/erc721_market-lpl/nft-market.sol\":3254:3274  seller == msg.sender */\n      0xffffffffffffffffffffffffffffffffffffffff\n      and\n      eq\n        /* \"contracts/ERC721/erc721_market-lpl/nft-market.sol\":3246:3307  require(seller == msg.sender, \"Market: Sender is not seller\") */\n      tag_145\n      jumpi\n      mload(0x40)\n      0x08c379a000000000000000000000000000000000000000000000000000000000\n      dup2\n      mstore\n      0x04\n      add\n      tag_146\n      swap1\n      tag_93\n      jump\t// in\n    tag_146:\n      mload(0x40)\n      dup1\n      swap2\n      sub\n      swap1\n      revert\n    tag_145:\n        /* \"contracts/ERC721/erc721_market-lpl/nft-market.sol\":3343:3344  0 */\n      0x00\n        /* \"contracts/ERC721/erc721_market-lpl/nft-market.sol\":3334:3340  _price */\n      dup3\n        /* \"contracts/ERC721/erc721_market-lpl/nft-market.sol\":3334:3344  _price > 0 */\n      gt\n        /* \"contracts/ERC721/erc721_market-lpl/nft-market.sol\":3326:3388  require(_price > 0, \"Market: Price must be greater than zero\") */\n      tag_147\n      jumpi\n      mload(0x40)\n      0x08c379a000000000000000000000000000000000000000000000000000000000\n      dup2\n      mstore\n      0x04\n      add\n      tag_148\n      swap1\n      tag_149\n      jump\t// in\n    tag_148:\n      mload(0x40)\n      dup1\n      swap2\n      sub\n      swap1\n      revert\n    tag_147:\n        /* \"contracts/ERC721/erc721_market-lpl/nft-market.sol\":3398:3419  uint256 previousPrice */\n      0x00\n        /* \"contracts/ERC721/erc721_market-lpl/nft-market.sol\":3422:3431  orderOfId */\n      0x02\n        /* \"contracts/ERC721/erc721_market-lpl/nft-market.sol\":3422:3441  orderOfId[_tokenId] */\n      0x00\n        /* \"contracts/ERC721/erc721_market-lpl/nft-market.sol\":3432:3440  _tokenId */\n      dup6\n        /* \"contracts/ERC721/erc721_market-lpl/nft-market.sol\":3422:3441  orderOfId[_tokenId] */\n      dup2\n      mstore\n      0x20\n      add\n      swap1\n      dup2\n      mstore\n      0x20\n      add\n      0x00\n      keccak256\n        /* \"contracts/ERC721/erc721_market-lpl/nft-market.sol\":3422:3447  orderOfId[_tokenId].price */\n      0x02\n      add\n      sload\n        /* \"contracts/ERC721/erc721_market-lpl/nft-market.sol\":3398:3447  uint256 previousPrice = orderOfId[_tokenId].price */\n      swap1\n      pop\n        /* \"contracts/ERC721/erc721_market-lpl/nft-market.sol\":3485:3491  _price */\n      dup3\n        /* \"contracts/ERC721/erc721_market-lpl/nft-market.sol\":3457:3466  orderOfId */\n      0x02\n        /* \"contracts/ERC721/erc721_market-lpl/nft-market.sol\":3457:3476  orderOfId[_tokenId] */\n      0x00\n        /* \"contracts/ERC721/erc721_market-lpl/nft-market.sol\":3467:3475  _tokenId */\n      dup7\n        /* \"contracts/ERC721/erc721_market-lpl/nft-market.sol\":3457:3476  orderOfId[_tokenId] */\n      dup2\n      mstore\n      0x20\n      add\n      swap1\n      dup2\n      mstore\n      0x20\n      add\n      0x00\n      keccak256\n        /* \"contracts/ERC721/erc721_market-lpl/nft-market.sol\":3457:3482  orderOfId[_tokenId].price */\n      0x02\n      add\n        /* \"contracts/ERC721/erc721_market-lpl/nft-market.sol\":3457:3491  orderOfId[_tokenId].price = _price */\n      dup2\n      swap1\n      sstore\n      pop\n        /* \"contracts/ERC721/erc721_market-lpl/nft-market.sol\":3501:3520  Order storage order */\n      0x00\n        /* \"contracts/ERC721/erc721_market-lpl/nft-market.sol\":3523:3529  orders */\n      0x03\n        /* \"contracts/ERC721/erc721_market-lpl/nft-market.sol\":3530:3544  idToOrderIndex */\n      0x04\n        /* \"contracts/ERC721/erc721_market-lpl/nft-market.sol\":3530:3554  idToOrderIndex[_tokenId] */\n      0x00\n        /* \"contracts/ERC721/erc721_market-lpl/nft-market.sol\":3545:3553  _tokenId */\n      dup8\n        /* \"contracts/ERC721/erc721_market-lpl/nft-market.sol\":3530:3554  idToOrderIndex[_tokenId] */\n      dup2\n      mstore\n      0x20\n      add\n      swap1\n      dup2\n      mstore\n      0x20\n      add\n      0x00\n      keccak256\n      sload\n        /* \"contracts/ERC721/erc721_market-lpl/nft-market.sol\":3523:3555  orders[idToOrderIndex[_tokenId]] */\n      dup2\n      sload\n      dup2\n      lt\n      tag_150\n      jumpi\n      tag_151\n      tag_116\n      jump\t// in\n    tag_151:\n    tag_150:\n      swap1\n      0x00\n      mstore\n      keccak256(0x00, 0x20)\n      swap1\n      0x03\n      mul\n      add\n        /* \"contracts/ERC721/erc721_market-lpl/nft-market.sol\":3501:3555  Order storage order = orders[idToOrderIndex[_tokenId]] */\n      swap1\n      pop\n        /* \"contracts/ERC721/erc721_market-lpl/nft-market.sol\":3579:3585  _price */\n      dup4\n        /* \"contracts/ERC721/erc721_market-lpl/nft-market.sol\":3565:3570  order */\n      dup2\n        /* \"contracts/ERC721/erc721_market-lpl/nft-market.sol\":3565:3576  order.price */\n      0x02\n      add\n        /* \"contracts/ERC721/erc721_market-lpl/nft-market.sol\":3565:3585  order.price = _price */\n      dup2\n      swap1\n      sstore\n      pop\n        /* \"contracts/ERC721/erc721_market-lpl/nft-market.sol\":3600:3652  ChangePrice(seller, _tokenId, previousPrice, _price) */\n      0x342a7f6248980b0f191b96eb6b7a439c4da78b2c97b86ca66cc7ee90d4b04cce\n        /* \"contracts/ERC721/erc721_market-lpl/nft-market.sol\":3612:3618  seller */\n      dup4\n        /* \"contracts/ERC721/erc721_market-lpl/nft-market.sol\":3620:3628  _tokenId */\n      dup7\n        /* \"contracts/ERC721/erc721_market-lpl/nft-market.sol\":3630:3643  previousPrice */\n      dup5\n        /* \"contracts/ERC721/erc721_market-lpl/nft-market.sol\":3645:3651  _price */\n      dup8\n        /* \"contracts/ERC721/erc721_market-lpl/nft-market.sol\":3600:3652  ChangePrice(seller, _tokenId, previousPrice, _price) */\n      mload(0x40)\n      tag_153\n      swap5\n      swap4\n      swap3\n      swap2\n      swap1\n      tag_154\n      jump\t// in\n    tag_153:\n      mload(0x40)\n      dup1\n      swap2\n      sub\n      swap1\n      log1\n        /* \"contracts/ERC721/erc721_market-lpl/nft-market.sol\":3049:3659  {... */\n      pop\n      pop\n      pop\n        /* \"contracts/ERC721/erc721_market-lpl/nft-market.sol\":2985:3659  function changePrice(uint256 _tokenId, uint256 _price) external {... */\n      pop\n      pop\n      jump\t// out\n        /* \"contracts/ERC721/erc721_market-lpl/nft-market.sol\":5666:6073  function toUint256(... */\n    tag_58:\n        /* \"contracts/ERC721/erc721_market-lpl/nft-market.sol\":5765:5772  uint256 */\n      0x00\n        /* \"contracts/ERC721/erc721_market-lpl/nft-market.sol\":5807:5813  _start */\n      dup2\n        /* \"contracts/ERC721/erc721_market-lpl/nft-market.sol\":5801:5803  32 */\n      0x20\n        /* \"contracts/ERC721/erc721_market-lpl/nft-market.sol\":5792:5798  _start */\n      dup4\n        /* \"contracts/ERC721/erc721_market-lpl/nft-market.sol\":5792:5803  _start + 32 */\n      tag_156\n      swap2\n      swap1\n      tag_157\n      jump\t// in\n    tag_156:\n        /* \"contracts/ERC721/erc721_market-lpl/nft-market.sol\":5792:5813  _start + 32 >= _start */\n      lt\n      iszero\n        /* \"contracts/ERC721/erc721_market-lpl/nft-market.sol\":5784:5844  require(_start + 32 >= _start, \"Market: toUint256_overflow\") */\n      tag_158\n      jumpi\n      mload(0x40)\n      0x08c379a000000000000000000000000000000000000000000000000000000000\n      dup2\n      mstore\n      0x04\n      add\n      tag_159\n      swap1\n      tag_160\n      jump\t// in\n    tag_159:\n      mload(0x40)\n      dup1\n      swap2\n      sub\n      swap1\n      revert\n    tag_158:\n        /* \"contracts/ERC721/erc721_market-lpl/nft-market.sol\":5888:5890  32 */\n      0x20\n        /* \"contracts/ERC721/erc721_market-lpl/nft-market.sol\":5879:5885  _start */\n      dup3\n        /* \"contracts/ERC721/erc721_market-lpl/nft-market.sol\":5879:5890  _start + 32 */\n      tag_161\n      swap2\n      swap1\n      tag_157\n      jump\t// in\n    tag_161:\n        /* \"contracts/ERC721/erc721_market-lpl/nft-market.sol\":5862:5868  _bytes */\n      dup4\n        /* \"contracts/ERC721/erc721_market-lpl/nft-market.sol\":5862:5875  _bytes.length */\n      mload\n        /* \"contracts/ERC721/erc721_market-lpl/nft-market.sol\":5862:5890  _bytes.length >= _start + 32 */\n      lt\n      iszero\n        /* \"contracts/ERC721/erc721_market-lpl/nft-market.sol\":5854:5924  require(_bytes.length >= _start + 32, \"Market: toUint256_outOfBounds\") */\n      tag_162\n      jumpi\n      mload(0x40)\n      0x08c379a000000000000000000000000000000000000000000000000000000000\n      dup2\n      mstore\n      0x04\n      add\n      tag_163\n      swap1\n      tag_164\n      jump\t// in\n    tag_163:\n      mload(0x40)\n      dup1\n      swap2\n      sub\n      swap1\n      revert\n    tag_162:\n        /* \"contracts/ERC721/erc721_market-lpl/nft-market.sol\":5934:5950  uint256 tempUint */\n      0x00\n        /* \"contracts/ERC721/erc721_market-lpl/nft-market.sol\":6024:6030  _start */\n      dup3\n        /* \"contracts/ERC721/erc721_market-lpl/nft-market.sol\":6017:6021  0x20 */\n      0x20\n        /* \"contracts/ERC721/erc721_market-lpl/nft-market.sol\":6009:6015  _bytes */\n      dup6\n        /* \"contracts/ERC721/erc721_market-lpl/nft-market.sol\":6005:6022  add(_bytes, 0x20) */\n      add\n        /* \"contracts/ERC721/erc721_market-lpl/nft-market.sol\":6001:6031  add(add(_bytes, 0x20), _start) */\n      add\n        /* \"contracts/ERC721/erc721_market-lpl/nft-market.sol\":5995:6032  mload(add(add(_bytes, 0x20), _start)) */\n      mload\n        /* \"contracts/ERC721/erc721_market-lpl/nft-market.sol\":5983:6032  tempUint := mload(add(add(_bytes, 0x20), _start)) */\n      swap1\n      pop\n        /* \"contracts/ERC721/erc721_market-lpl/nft-market.sol\":6058:6066  tempUint */\n      dup1\n        /* \"contracts/ERC721/erc721_market-lpl/nft-market.sol\":6051:6066  return tempUint */\n      swap2\n      pop\n      pop\n        /* \"contracts/ERC721/erc721_market-lpl/nft-market.sol\":5666:6073  function toUint256(... */\n      swap3\n      swap2\n      pop\n      pop\n      jump\t// out\n        /* \"contracts/ERC721/erc721_market-lpl/nft-market.sol\":389:410  IERC721 public erc721 */\n    tag_61:\n      0x01\n      0x00\n      swap1\n      sload\n      swap1\n      0x0100\n      exp\n      swap1\n      div\n      0xffffffffffffffffffffffffffffffffffffffff\n      and\n      dup2\n      jump\t// out\n        /* \"contracts/ERC721/erc721_market-lpl/nft-market.sol\":1899:2490  function buy(uint256 _tokenId) external {... */\n    tag_66:\n        /* \"contracts/ERC721/erc721_market-lpl/nft-market.sol\":1957:1975  isListed(_tokenId) */\n      tag_166\n        /* \"contracts/ERC721/erc721_market-lpl/nft-market.sol\":1966:1974  _tokenId */\n      dup2\n        /* \"contracts/ERC721/erc721_market-lpl/nft-market.sol\":1957:1965  isListed */\n      tag_76\n        /* \"contracts/ERC721/erc721_market-lpl/nft-market.sol\":1957:1975  isListed(_tokenId) */\n      jump\t// in\n    tag_166:\n        /* \"contracts/ERC721/erc721_market-lpl/nft-market.sol\":1949:2010  require(isListed(_tokenId), \"Market: Token ID is not listed\") */\n      tag_167\n      jumpi\n      mload(0x40)\n      0x08c379a000000000000000000000000000000000000000000000000000000000\n      dup2\n      mstore\n      0x04\n      add\n      tag_168\n      swap1\n      tag_90\n      jump\t// in\n    tag_168:\n      mload(0x40)\n      dup1\n      swap2\n      sub\n      swap1\n      revert\n    tag_167:\n        /* \"contracts/ERC721/erc721_market-lpl/nft-market.sol\":2021:2035  address seller */\n      0x00\n        /* \"contracts/ERC721/erc721_market-lpl/nft-market.sol\":2038:2047  orderOfId */\n      0x02\n        /* \"contracts/ERC721/erc721_market-lpl/nft-market.sol\":2038:2057  orderOfId[_tokenId] */\n      0x00\n        /* \"contracts/ERC721/erc721_market-lpl/nft-market.sol\":2048:2056  _tokenId */\n      dup4\n        /* \"contracts/ERC721/erc721_market-lpl/nft-market.sol\":2038:2057  orderOfId[_tokenId] */\n      dup2\n      mstore\n      0x20\n      add\n      swap1\n      dup2\n      mstore\n      0x20\n      add\n      0x00\n      keccak256\n        /* \"contracts/ERC721/erc721_market-lpl/nft-market.sol\":2038:2064  orderOfId[_tokenId].seller */\n      0x00\n      add\n      0x00\n      swap1\n      sload\n      swap1\n      0x0100\n      exp\n      swap1\n      div\n      0xffffffffffffffffffffffffffffffffffffffff\n      and\n        /* \"contracts/ERC721/erc721_market-lpl/nft-market.sol\":2021:2064  address seller = orderOfId[_tokenId].seller */\n      swap1\n      pop\n        /* \"contracts/ERC721/erc721_market-lpl/nft-market.sol\":2074:2087  address buyer */\n      0x00\n        /* \"contracts/ERC721/erc721_market-lpl/nft-market.sol\":2090:2100  msg.sender */\n      caller\n        /* \"contracts/ERC721/erc721_market-lpl/nft-market.sol\":2074:2100  address buyer = msg.sender */\n      swap1\n      pop\n        /* \"contracts/ERC721/erc721_market-lpl/nft-market.sol\":2110:2123  uint256 price */\n      0x00\n        /* \"contracts/ERC721/erc721_market-lpl/nft-market.sol\":2126:2135  orderOfId */\n      0x02\n        /* \"contracts/ERC721/erc721_market-lpl/nft-market.sol\":2126:2145  orderOfId[_tokenId] */\n      0x00\n        /* \"contracts/ERC721/erc721_market-lpl/nft-market.sol\":2136:2144  _tokenId */\n      dup6\n        /* \"contracts/ERC721/erc721_market-lpl/nft-market.sol\":2126:2145  orderOfId[_tokenId] */\n      dup2\n      mstore\n      0x20\n      add\n      swap1\n      dup2\n      mstore\n      0x20\n      add\n      0x00\n      keccak256\n        /* \"contracts/ERC721/erc721_market-lpl/nft-market.sol\":2126:2151  orderOfId[_tokenId].price */\n      0x02\n      add\n      sload\n        /* \"contracts/ERC721/erc721_market-lpl/nft-market.sol\":2110:2151  uint256 price = orderOfId[_tokenId].price */\n      swap1\n      pop\n        /* \"contracts/ERC721/erc721_market-lpl/nft-market.sol\":2183:2188  erc20 */\n      0x00\n      0x00\n      swap1\n      sload\n      swap1\n      0x0100\n      exp\n      swap1\n      div\n      0xffffffffffffffffffffffffffffffffffffffff\n      and\n        /* \"contracts/ERC721/erc721_market-lpl/nft-market.sol\":2183:2201  erc20.transferFrom */\n      0xffffffffffffffffffffffffffffffffffffffff\n      and\n      0x23b872dd\n        /* \"contracts/ERC721/erc721_market-lpl/nft-market.sol\":2202:2207  buyer */\n      dup4\n        /* \"contracts/ERC721/erc721_market-lpl/nft-market.sol\":2209:2215  seller */\n      dup6\n        /* \"contracts/ERC721/erc721_market-lpl/nft-market.sol\":2217:2222  price */\n      dup5\n        /* \"contracts/ERC721/erc721_market-lpl/nft-market.sol\":2183:2223  erc20.transferFrom(buyer, seller, price) */\n      mload(0x40)\n      dup5\n      0xffffffff\n      and\n      0xe0\n      shl\n      dup2\n      mstore\n      0x04\n      add\n      tag_169\n      swap4\n      swap3\n      swap2\n      swap1\n      tag_95\n      jump\t// in\n    tag_169:\n      0x20\n      mload(0x40)\n      dup1\n      dup4\n      sub\n      dup2\n      0x00\n      dup8\n      gas\n      call\n      iszero\n      dup1\n      iszero\n      tag_171\n      jumpi\n      returndatacopy(0x00, 0x00, returndatasize)\n      revert(0x00, returndatasize)\n    tag_171:\n      pop\n      pop\n      pop\n      pop\n      mload(0x40)\n      returndatasize\n      not(0x1f)\n      0x1f\n      dup3\n      add\n      and\n      dup3\n      add\n      dup1\n      0x40\n      mstore\n      pop\n      dup2\n      add\n      swap1\n      tag_172\n      swap2\n      swap1\n      tag_173\n      jump\t// in\n    tag_172:\n        /* \"contracts/ERC721/erc721_market-lpl/nft-market.sol\":2162:2286  require(... */\n      tag_174\n      jumpi\n      mload(0x40)\n      0x08c379a000000000000000000000000000000000000000000000000000000000\n      dup2\n      mstore\n      0x04\n      add\n      tag_175\n      swap1\n      tag_176\n      jump\t// in\n    tag_175:\n      mload(0x40)\n      dup1\n      swap2\n      sub\n      swap1\n      revert\n    tag_174:\n        /* \"contracts/ERC721/erc721_market-lpl/nft-market.sol\":2344:2350  erc721 */\n      0x01\n      0x00\n      swap1\n      sload\n      swap1\n      0x0100\n      exp\n      swap1\n      div\n      0xffffffffffffffffffffffffffffffffffffffff\n      and\n        /* \"contracts/ERC721/erc721_market-lpl/nft-market.sol\":2344:2367  erc721.safeTransferFrom */\n      0xffffffffffffffffffffffffffffffffffffffff\n      and\n      0x42842e0e\n        /* \"contracts/ERC721/erc721_market-lpl/nft-market.sol\":2376:2380  this */\n      address\n        /* \"contracts/ERC721/erc721_market-lpl/nft-market.sol\":2383:2388  buyer */\n      dup5\n        /* \"contracts/ERC721/erc721_market-lpl/nft-market.sol\":2390:2398  _tokenId */\n      dup8\n        /* \"contracts/ERC721/erc721_market-lpl/nft-market.sol\":2344:2399  erc721.safeTransferFrom(address(this), buyer, _tokenId) */\n      mload(0x40)\n      dup5\n      0xffffffff\n      and\n      0xe0\n      shl\n      dup2\n      mstore\n      0x04\n      add\n      tag_177\n      swap4\n      swap3\n      swap2\n      swap1\n      tag_95\n      jump\t// in\n    tag_177:\n      0x00\n      mload(0x40)\n      dup1\n      dup4\n      sub\n      dup2\n      0x00\n      dup8\n      dup1\n      extcodesize\n      iszero\n      dup1\n      iszero\n      tag_178\n      jumpi\n      revert(0x00, 0x00)\n    tag_178:\n      pop\n      gas\n      call\n      iszero\n      dup1\n      iszero\n      tag_180\n      jumpi\n      returndatacopy(0x00, 0x00, returndatasize)\n      revert(0x00, returndatasize)\n    tag_180:\n      pop\n      pop\n      pop\n      pop\n        /* \"contracts/ERC721/erc721_market-lpl/nft-market.sol\":2409:2432  removeListing(_tokenId) */\n      tag_181\n        /* \"contracts/ERC721/erc721_market-lpl/nft-market.sol\":2423:2431  _tokenId */\n      dup5\n        /* \"contracts/ERC721/erc721_market-lpl/nft-market.sol\":2409:2422  removeListing */\n      tag_100\n        /* \"contracts/ERC721/erc721_market-lpl/nft-market.sol\":2409:2432  removeListing(_tokenId) */\n      jump\t// in\n    tag_181:\n        /* \"contracts/ERC721/erc721_market-lpl/nft-market.sol\":2447:2483  Deal(buyer, seller, _tokenId, price) */\n      0x424d5e5f0192c7dacdbe646ca31b00299146d883d76a95ef5cddbac7cd342eab\n        /* \"contracts/ERC721/erc721_market-lpl/nft-market.sol\":2452:2457  buyer */\n      dup3\n        /* \"contracts/ERC721/erc721_market-lpl/nft-market.sol\":2459:2465  seller */\n      dup5\n        /* \"contracts/ERC721/erc721_market-lpl/nft-market.sol\":2467:2475  _tokenId */\n      dup7\n        /* \"contracts/ERC721/erc721_market-lpl/nft-market.sol\":2477:2482  price */\n      dup5\n        /* \"contracts/ERC721/erc721_market-lpl/nft-market.sol\":2447:2483  Deal(buyer, seller, _tokenId, price) */\n      mload(0x40)\n      tag_182\n      swap5\n      swap4\n      swap3\n      swap2\n      swap1\n      tag_183\n      jump\t// in\n    tag_182:\n      mload(0x40)\n      dup1\n      swap2\n      sub\n      swap1\n      log1\n        /* \"contracts/ERC721/erc721_market-lpl/nft-market.sol\":1939:2490  {... */\n      pop\n      pop\n      pop\n        /* \"contracts/ERC721/erc721_market-lpl/nft-market.sol\":1899:2490  function buy(uint256 _tokenId) external {... */\n      pop\n      jump\t// out\n        /* \"contracts/ERC721/erc721_market-lpl/nft-market.sol\":818:867  mapping(uint256 => uint256) public idToOrderIndex */\n    tag_69:\n      mstore(0x20, 0x04)\n      dup1\n      0x00\n      mstore\n      keccak256(0x00, 0x40)\n      0x00\n      swap2\n      pop\n      swap1\n      pop\n      sload\n      dup2\n      jump\t// out\n        /* \"contracts/ERC721/erc721_market-lpl/nft-market.sol\":3695:3784  function getAllNFTs() public view returns (Order[] memory) {... */\n    tag_72:\n        /* \"contracts/ERC721/erc721_market-lpl/nft-market.sol\":3738:3752  Order[] memory */\n      0x60\n        /* \"contracts/ERC721/erc721_market-lpl/nft-market.sol\":3771:3777  orders */\n      0x03\n        /* \"contracts/ERC721/erc721_market-lpl/nft-market.sol\":3764:3777  return orders */\n      dup1\n      sload\n      dup1\n      0x20\n      mul\n      0x20\n      add\n      mload(0x40)\n      swap1\n      dup2\n      add\n      0x40\n      mstore\n      dup1\n      swap3\n      swap2\n      swap1\n      dup2\n      dup2\n      mstore\n      0x20\n      add\n      0x00\n      swap1\n    tag_185:\n      dup3\n      dup3\n      lt\n      iszero\n      tag_186\n      jumpi\n      dup4\n      dup3\n      swap1\n      0x00\n      mstore\n      keccak256(0x00, 0x20)\n      swap1\n      0x03\n      mul\n      add\n      mload(0x40)\n      dup1\n      0x60\n      add\n      0x40\n      mstore\n      swap1\n      dup2\n      0x00\n      dup3\n      add\n      0x00\n      swap1\n      sload\n      swap1\n      0x0100\n      exp\n      swap1\n      div\n      0xffffffffffffffffffffffffffffffffffffffff\n      and\n      0xffffffffffffffffffffffffffffffffffffffff\n      and\n      0xffffffffffffffffffffffffffffffffffffffff\n      and\n      dup2\n      mstore\n      0x20\n      add\n      0x01\n      dup3\n      add\n      sload\n      dup2\n      mstore\n      0x20\n      add\n      0x02\n      dup3\n      add\n      sload\n      dup2\n      mstore\n      pop\n      pop\n      dup2\n      mstore\n      0x20\n      add\n      swap1\n      0x01\n      add\n      swap1\n      jump(tag_185)\n    tag_186:\n      pop\n      pop\n      pop\n      pop\n      swap1\n      pop\n        /* \"contracts/ERC721/erc721_market-lpl/nft-market.sol\":3695:3784  function getAllNFTs() public view returns (Order[] memory) {... */\n      swap1\n      jump\t// out\n        /* \"contracts/ERC721/erc721_market-lpl/nft-market.sol\":4513:4640  function isListed(uint256 _tokenId) public view returns (bool) {... */\n    tag_76:\n        /* \"contracts/ERC721/erc721_market-lpl/nft-market.sol\":4570:4574  bool */\n      0x00\n        /* \"contracts/ERC721/erc721_market-lpl/nft-market.sol\":4631:4632  0 */\n      0x00\n        /* \"contracts/ERC721/erc721_market-lpl/nft-market.sol\":4593:4633  orderOfId[_tokenId].seller != address(0) */\n      0xffffffffffffffffffffffffffffffffffffffff\n      and\n        /* \"contracts/ERC721/erc721_market-lpl/nft-market.sol\":4593:4602  orderOfId */\n      0x02\n        /* \"contracts/ERC721/erc721_market-lpl/nft-market.sol\":4593:4612  orderOfId[_tokenId] */\n      0x00\n        /* \"contracts/ERC721/erc721_market-lpl/nft-market.sol\":4603:4611  _tokenId */\n      dup5\n        /* \"contracts/ERC721/erc721_market-lpl/nft-market.sol\":4593:4612  orderOfId[_tokenId] */\n      dup2\n      mstore\n      0x20\n      add\n      swap1\n      dup2\n      mstore\n      0x20\n      add\n      0x00\n      keccak256\n        /* \"contracts/ERC721/erc721_market-lpl/nft-market.sol\":4593:4619  orderOfId[_tokenId].seller */\n      0x00\n      add\n      0x00\n      swap1\n      sload\n      swap1\n      0x0100\n      exp\n      swap1\n      div\n      0xffffffffffffffffffffffffffffffffffffffff\n      and\n        /* \"contracts/ERC721/erc721_market-lpl/nft-market.sol\":4593:4633  orderOfId[_tokenId].seller != address(0) */\n      0xffffffffffffffffffffffffffffffffffffffff\n      and\n      eq\n      iszero\n        /* \"contracts/ERC721/erc721_market-lpl/nft-market.sol\":4586:4633  return orderOfId[_tokenId].seller != address(0) */\n      swap1\n      pop\n        /* \"contracts/ERC721/erc721_market-lpl/nft-market.sol\":4513:4640  function isListed(uint256 _tokenId) public view returns (bool) {... */\n      swap2\n      swap1\n      pop\n      jump\t// out\n        /* \"contracts/ERC721/erc721_market-lpl/nft-market.sol\":6097:6677  function placeOrder(... */\n    tag_85:\n        /* \"contracts/ERC721/erc721_market-lpl/nft-market.sol\":6234:6235  0 */\n      0x00\n        /* \"contracts/ERC721/erc721_market-lpl/nft-market.sol\":6225:6231  _price */\n      dup2\n        /* \"contracts/ERC721/erc721_market-lpl/nft-market.sol\":6225:6235  _price > 0 */\n      gt\n        /* \"contracts/ERC721/erc721_market-lpl/nft-market.sol\":6217:6279  require(_price > 0, \"Market: Price must be greater than zero\") */\n      tag_190\n      jumpi\n      mload(0x40)\n      0x08c379a000000000000000000000000000000000000000000000000000000000\n      dup2\n      mstore\n      0x04\n      add\n      tag_191\n      swap1\n      tag_149\n      jump\t// in\n    tag_191:\n      mload(0x40)\n      dup1\n      swap2\n      sub\n      swap1\n      revert\n    tag_190:\n        /* \"contracts/ERC721/erc721_market-lpl/nft-market.sol\":6319:6326  _seller */\n      dup3\n        /* \"contracts/ERC721/erc721_market-lpl/nft-market.sol\":6290:6299  orderOfId */\n      0x02\n        /* \"contracts/ERC721/erc721_market-lpl/nft-market.sol\":6290:6309  orderOfId[_tokenId] */\n      0x00\n        /* \"contracts/ERC721/erc721_market-lpl/nft-market.sol\":6300:6308  _tokenId */\n      dup5\n        /* \"contracts/ERC721/erc721_market-lpl/nft-market.sol\":6290:6309  orderOfId[_tokenId] */\n      dup2\n      mstore\n      0x20\n      add\n      swap1\n      dup2\n      mstore\n      0x20\n      add\n      0x00\n      keccak256\n        /* \"contracts/ERC721/erc721_market-lpl/nft-market.sol\":6290:6316  orderOfId[_tokenId].seller */\n      0x00\n      add\n      0x00\n        /* \"contracts/ERC721/erc721_market-lpl/nft-market.sol\":6290:6326  orderOfId[_tokenId].seller = _seller */\n      0x0100\n      exp\n      dup2\n      sload\n      dup2\n      0xffffffffffffffffffffffffffffffffffffffff\n      mul\n      not\n      and\n      swap1\n      dup4\n      0xffffffffffffffffffffffffffffffffffffffff\n      and\n      mul\n      or\n      swap1\n      sstore\n      pop\n        /* \"contracts/ERC721/erc721_market-lpl/nft-market.sol\":6393:6399  _price */\n      dup1\n        /* \"contracts/ERC721/erc721_market-lpl/nft-market.sol\":6365:6374  orderOfId */\n      0x02\n        /* \"contracts/ERC721/erc721_market-lpl/nft-market.sol\":6365:6384  orderOfId[_tokenId] */\n      0x00\n        /* \"contracts/ERC721/erc721_market-lpl/nft-market.sol\":6375:6383  _tokenId */\n      dup5\n        /* \"contracts/ERC721/erc721_market-lpl/nft-market.sol\":6365:6384  orderOfId[_tokenId] */\n      dup2\n      mstore\n      0x20\n      add\n      swap1\n      dup2\n      mstore\n      0x20\n      add\n      0x00\n      keccak256\n        /* \"contracts/ERC721/erc721_market-lpl/nft-market.sol\":6365:6390  orderOfId[_tokenId].price */\n      0x02\n      add\n        /* \"contracts/ERC721/erc721_market-lpl/nft-market.sol\":6365:6399  orderOfId[_tokenId].price = _price */\n      dup2\n      swap1\n      sstore\n      pop\n        /* \"contracts/ERC721/erc721_market-lpl/nft-market.sol\":6439:6447  _tokenId */\n      dup2\n        /* \"contracts/ERC721/erc721_market-lpl/nft-market.sol\":6409:6418  orderOfId */\n      0x02\n        /* \"contracts/ERC721/erc721_market-lpl/nft-market.sol\":6409:6428  orderOfId[_tokenId] */\n      0x00\n        /* \"contracts/ERC721/erc721_market-lpl/nft-market.sol\":6419:6427  _tokenId */\n      dup5\n        /* \"contracts/ERC721/erc721_market-lpl/nft-market.sol\":6409:6428  orderOfId[_tokenId] */\n      dup2\n      mstore\n      0x20\n      add\n      swap1\n      dup2\n      mstore\n      0x20\n      add\n      0x00\n      keccak256\n        /* \"contracts/ERC721/erc721_market-lpl/nft-market.sol\":6409:6436  orderOfId[_tokenId].tokenId */\n      0x01\n      add\n        /* \"contracts/ERC721/erc721_market-lpl/nft-market.sol\":6409:6447  orderOfId[_tokenId].tokenId = _tokenId */\n      dup2\n      swap1\n      sstore\n      pop\n        /* \"contracts/ERC721/erc721_market-lpl/nft-market.sol\":6457:6463  orders */\n      0x03\n        /* \"contracts/ERC721/erc721_market-lpl/nft-market.sol\":6469:6478  orderOfId */\n      0x02\n        /* \"contracts/ERC721/erc721_market-lpl/nft-market.sol\":6469:6488  orderOfId[_tokenId] */\n      0x00\n        /* \"contracts/ERC721/erc721_market-lpl/nft-market.sol\":6479:6487  _tokenId */\n      dup5\n        /* \"contracts/ERC721/erc721_market-lpl/nft-market.sol\":6469:6488  orderOfId[_tokenId] */\n      dup2\n      mstore\n      0x20\n      add\n      swap1\n      dup2\n      mstore\n      0x20\n      add\n      0x00\n      keccak256\n        /* \"contracts/ERC721/erc721_market-lpl/nft-market.sol\":6457:6489  orders.push(orderOfId[_tokenId]) */\n      swap1\n      dup1\n      0x01\n      dup2\n      sload\n      add\n      dup1\n      dup3\n      sstore\n      dup1\n      swap2\n      pop\n      pop\n      0x01\n      swap1\n      sub\n      swap1\n      0x00\n      mstore\n      keccak256(0x00, 0x20)\n      swap1\n      0x03\n      mul\n      add\n      0x00\n      swap1\n      swap2\n      swap1\n      swap2\n      swap1\n      swap2\n      pop\n      0x00\n      dup3\n      add\n      0x00\n      swap1\n      sload\n      swap1\n      0x0100\n      exp\n      swap1\n      div\n      0xffffffffffffffffffffffffffffffffffffffff\n      and\n      dup2\n      0x00\n      add\n      exp(0x0100, 0x00)\n      dup2\n      sload\n      dup2\n      0xffffffffffffffffffffffffffffffffffffffff\n      mul\n      not\n      and\n      swap1\n      dup4\n      0xffffffffffffffffffffffffffffffffffffffff\n      and\n      mul\n      or\n      swap1\n      sstore\n      pop\n      0x01\n      dup3\n      add\n      sload\n      dup2\n      0x01\n      add\n      sstore\n      0x02\n      dup3\n      add\n      sload\n      dup2\n      0x02\n      add\n      sstore\n      pop\n      pop\n        /* \"contracts/ERC721/erc721_market-lpl/nft-market.sol\":6577:6578  1 */\n      0x01\n        /* \"contracts/ERC721/erc721_market-lpl/nft-market.sol\":6561:6567  orders */\n      0x03\n        /* \"contracts/ERC721/erc721_market-lpl/nft-market.sol\":6561:6574  orders.length */\n      dup1\n      sload\n      swap1\n      pop\n        /* \"contracts/ERC721/erc721_market-lpl/nft-market.sol\":6561:6578  orders.length - 1 */\n      tag_193\n      swap2\n      swap1\n      tag_194\n      jump\t// in\n    tag_193:\n        /* \"contracts/ERC721/erc721_market-lpl/nft-market.sol\":6534:6548  idToOrderIndex */\n      0x04\n        /* \"contracts/ERC721/erc721_market-lpl/nft-market.sol\":6534:6558  idToOrderIndex[_tokenId] */\n      0x00\n        /* \"contracts/ERC721/erc721_market-lpl/nft-market.sol\":6549:6557  _tokenId */\n      dup5\n        /* \"contracts/ERC721/erc721_market-lpl/nft-market.sol\":6534:6558  idToOrderIndex[_tokenId] */\n      dup2\n      mstore\n      0x20\n      add\n      swap1\n      dup2\n      mstore\n      0x20\n      add\n      0x00\n      keccak256\n        /* \"contracts/ERC721/erc721_market-lpl/nft-market.sol\":6534:6578  idToOrderIndex[_tokenId] = orders.length - 1 */\n      dup2\n      swap1\n      sstore\n      pop\n        /* \"contracts/ERC721/erc721_market-lpl/nft-market.sol\":6635:6670  NewOrder(_seller, _tokenId, _price) */\n      0xd5b509e657d5ec37ae4bdcab658b7340c0453bb630516d26623359a34c1cecf3\n        /* \"contracts/ERC721/erc721_market-lpl/nft-market.sol\":6644:6651  _seller */\n      dup4\n        /* \"contracts/ERC721/erc721_market-lpl/nft-market.sol\":6653:6661  _tokenId */\n      dup4\n        /* \"contracts/ERC721/erc721_market-lpl/nft-market.sol\":6663:6669  _price */\n      dup4\n        /* \"contracts/ERC721/erc721_market-lpl/nft-market.sol\":6635:6670  NewOrder(_seller, _tokenId, _price) */\n      mload(0x40)\n      tag_195\n      swap4\n      swap3\n      swap2\n      swap1\n      tag_31\n      jump\t// in\n    tag_195:\n      mload(0x40)\n      dup1\n      swap2\n      sub\n      swap1\n      log1\n        /* \"contracts/ERC721/erc721_market-lpl/nft-market.sol\":6097:6677  function placeOrder(... */\n      pop\n      pop\n      pop\n      jump\t// out\n        /* \"contracts/ERC721/erc721_market-lpl/nft-market.sol\":6703:7179  function removeListing(uint256 _tokenId) internal {... */\n    tag_100:\n        /* \"contracts/ERC721/erc721_market-lpl/nft-market.sol\":6770:6779  orderOfId */\n      0x02\n        /* \"contracts/ERC721/erc721_market-lpl/nft-market.sol\":6770:6789  orderOfId[_tokenId] */\n      0x00\n        /* \"contracts/ERC721/erc721_market-lpl/nft-market.sol\":6780:6788  _tokenId */\n      dup3\n        /* \"contracts/ERC721/erc721_market-lpl/nft-market.sol\":6770:6789  orderOfId[_tokenId] */\n      dup2\n      mstore\n      0x20\n      add\n      swap1\n      dup2\n      mstore\n      0x20\n      add\n      0x00\n      keccak256\n      0x00\n        /* \"contracts/ERC721/erc721_market-lpl/nft-market.sol\":6763:6789  delete orderOfId[_tokenId] */\n      0x00\n      dup3\n      add\n      exp(0x0100, 0x00)\n      dup2\n      sload\n      swap1\n      0xffffffffffffffffffffffffffffffffffffffff\n      mul\n      not\n      and\n      swap1\n      sstore\n      0x01\n      dup3\n      add\n      0x00\n      swap1\n      sstore\n      0x02\n      dup3\n      add\n      0x00\n      swap1\n      sstore\n      pop\n      pop\n        /* \"contracts/ERC721/erc721_market-lpl/nft-market.sol\":6800:6826  uint256 orderToRemoveIndex */\n      0x00\n        /* \"contracts/ERC721/erc721_market-lpl/nft-market.sol\":6829:6843  idToOrderIndex */\n      0x04\n        /* \"contracts/ERC721/erc721_market-lpl/nft-market.sol\":6829:6853  idToOrderIndex[_tokenId] */\n      0x00\n        /* \"contracts/ERC721/erc721_market-lpl/nft-market.sol\":6844:6852  _tokenId */\n      dup4\n        /* \"contracts/ERC721/erc721_market-lpl/nft-market.sol\":6829:6853  idToOrderIndex[_tokenId] */\n      dup2\n      mstore\n      0x20\n      add\n      swap1\n      dup2\n      mstore\n      0x20\n      add\n      0x00\n      keccak256\n      sload\n        /* \"contracts/ERC721/erc721_market-lpl/nft-market.sol\":6800:6853  uint256 orderToRemoveIndex = idToOrderIndex[_tokenId] */\n      swap1\n      pop\n        /* \"contracts/ERC721/erc721_market-lpl/nft-market.sol\":6863:6885  uint256 lastOrderIndex */\n      0x00\n        /* \"contracts/ERC721/erc721_market-lpl/nft-market.sol\":6904:6905  1 */\n      0x01\n        /* \"contracts/ERC721/erc721_market-lpl/nft-market.sol\":6888:6894  orders */\n      0x03\n        /* \"contracts/ERC721/erc721_market-lpl/nft-market.sol\":6888:6901  orders.length */\n      dup1\n      sload\n      swap1\n      pop\n        /* \"contracts/ERC721/erc721_market-lpl/nft-market.sol\":6888:6905  orders.length - 1 */\n      tag_197\n      swap2\n      swap1\n      tag_194\n      jump\t// in\n    tag_197:\n        /* \"contracts/ERC721/erc721_market-lpl/nft-market.sol\":6863:6905  uint256 lastOrderIndex = orders.length - 1 */\n      swap1\n      pop\n        /* \"contracts/ERC721/erc721_market-lpl/nft-market.sol\":6938:6956  orderToRemoveIndex */\n      dup2\n        /* \"contracts/ERC721/erc721_market-lpl/nft-market.sol\":6920:6934  lastOrderIndex */\n      dup2\n        /* \"contracts/ERC721/erc721_market-lpl/nft-market.sol\":6920:6956  lastOrderIndex != orderToRemoveIndex */\n      eq\n        /* \"contracts/ERC721/erc721_market-lpl/nft-market.sol\":6916:7150  if (lastOrderIndex != orderToRemoveIndex) {... */\n      tag_198\n      jumpi\n        /* \"contracts/ERC721/erc721_market-lpl/nft-market.sol\":6972:6994  Order memory lastOrder */\n      0x00\n        /* \"contracts/ERC721/erc721_market-lpl/nft-market.sol\":6997:7003  orders */\n      0x03\n        /* \"contracts/ERC721/erc721_market-lpl/nft-market.sol\":7004:7018  lastOrderIndex */\n      dup3\n        /* \"contracts/ERC721/erc721_market-lpl/nft-market.sol\":6997:7019  orders[lastOrderIndex] */\n      dup2\n      sload\n      dup2\n      lt\n      tag_199\n      jumpi\n      tag_200\n      tag_116\n      jump\t// in\n    tag_200:\n    tag_199:\n      swap1\n      0x00\n      mstore\n      keccak256(0x00, 0x20)\n      swap1\n      0x03\n      mul\n      add\n        /* \"contracts/ERC721/erc721_market-lpl/nft-market.sol\":6972:7019  Order memory lastOrder = orders[lastOrderIndex] */\n      mload(0x40)\n      dup1\n      0x60\n      add\n      0x40\n      mstore\n      swap1\n      dup2\n      0x00\n      dup3\n      add\n      0x00\n      swap1\n      sload\n      swap1\n      0x0100\n      exp\n      swap1\n      div\n      0xffffffffffffffffffffffffffffffffffffffff\n      and\n      0xffffffffffffffffffffffffffffffffffffffff\n      and\n      0xffffffffffffffffffffffffffffffffffffffff\n      and\n      dup2\n      mstore\n      0x20\n      add\n      0x01\n      dup3\n      add\n      sload\n      dup2\n      mstore\n      0x20\n      add\n      0x02\n      dup3\n      add\n      sload\n      dup2\n      mstore\n      pop\n      pop\n      swap1\n      pop\n        /* \"contracts/ERC721/erc721_market-lpl/nft-market.sol\":7062:7071  lastOrder */\n      dup1\n        /* \"contracts/ERC721/erc721_market-lpl/nft-market.sol\":7033:7039  orders */\n      0x03\n        /* \"contracts/ERC721/erc721_market-lpl/nft-market.sol\":7040:7058  orderToRemoveIndex */\n      dup5\n        /* \"contracts/ERC721/erc721_market-lpl/nft-market.sol\":7033:7059  orders[orderToRemoveIndex] */\n      dup2\n      sload\n      dup2\n      lt\n      tag_202\n      jumpi\n      tag_203\n      tag_116\n      jump\t// in\n    tag_203:\n    tag_202:\n      swap1\n      0x00\n      mstore\n      keccak256(0x00, 0x20)\n      swap1\n      0x03\n      mul\n      add\n        /* \"contracts/ERC721/erc721_market-lpl/nft-market.sol\":7033:7071  orders[orderToRemoveIndex] = lastOrder */\n      0x00\n      dup3\n      add\n      mload\n      dup2\n      0x00\n      add\n      exp(0x0100, 0x00)\n      dup2\n      sload\n      dup2\n      0xffffffffffffffffffffffffffffffffffffffff\n      mul\n      not\n      and\n      swap1\n      dup4\n      0xffffffffffffffffffffffffffffffffffffffff\n      and\n      mul\n      or\n      swap1\n      sstore\n      pop\n      0x20\n      dup3\n      add\n      mload\n      dup2\n      0x01\n      add\n      sstore\n      0x40\n      dup3\n      add\n      mload\n      dup2\n      0x02\n      add\n      sstore\n      swap1\n      pop\n      pop\n        /* \"contracts/ERC721/erc721_market-lpl/nft-market.sol\":7121:7139  orderToRemoveIndex */\n      dup3\n        /* \"contracts/ERC721/erc721_market-lpl/nft-market.sol\":7085:7099  idToOrderIndex */\n      0x04\n        /* \"contracts/ERC721/erc721_market-lpl/nft-market.sol\":7085:7118  idToOrderIndex[lastOrder.tokenId] */\n      0x00\n        /* \"contracts/ERC721/erc721_market-lpl/nft-market.sol\":7100:7109  lastOrder */\n      dup4\n        /* \"contracts/ERC721/erc721_market-lpl/nft-market.sol\":7100:7117  lastOrder.tokenId */\n      0x20\n      add\n      mload\n        /* \"contracts/ERC721/erc721_market-lpl/nft-market.sol\":7085:7118  idToOrderIndex[lastOrder.tokenId] */\n      dup2\n      mstore\n      0x20\n      add\n      swap1\n      dup2\n      mstore\n      0x20\n      add\n      0x00\n      keccak256\n        /* \"contracts/ERC721/erc721_market-lpl/nft-market.sol\":7085:7139  idToOrderIndex[lastOrder.tokenId] = orderToRemoveIndex */\n      dup2\n      swap1\n      sstore\n      pop\n        /* \"contracts/ERC721/erc721_market-lpl/nft-market.sol\":6958:7150  {... */\n      pop\n        /* \"contracts/ERC721/erc721_market-lpl/nft-market.sol\":6916:7150  if (lastOrderIndex != orderToRemoveIndex) {... */\n    tag_198:\n        /* \"contracts/ERC721/erc721_market-lpl/nft-market.sol\":7160:7166  orders */\n      0x03\n        /* \"contracts/ERC721/erc721_market-lpl/nft-market.sol\":7160:7172  orders.pop() */\n      dup1\n      sload\n      dup1\n      tag_205\n      jumpi\n      tag_206\n      tag_207\n      jump\t// in\n    tag_206:\n    tag_205:\n      0x01\n      swap1\n      sub\n      dup2\n      dup2\n      swap1\n      0x00\n      mstore\n      keccak256(0x00, 0x20)\n      swap1\n      0x03\n      mul\n      add\n      0x00\n      0x00\n      dup3\n      add\n      exp(0x0100, 0x00)\n      dup2\n      sload\n      swap1\n      0xffffffffffffffffffffffffffffffffffffffff\n      mul\n      not\n      and\n      swap1\n      sstore\n      0x01\n      dup3\n      add\n      0x00\n      swap1\n      sstore\n      0x02\n      dup3\n      add\n      0x00\n      swap1\n      sstore\n      pop\n      pop\n      swap1\n      sstore\n        /* \"contracts/ERC721/erc721_market-lpl/nft-market.sol\":6753:7179  {... */\n      pop\n      pop\n        /* \"contracts/ERC721/erc721_market-lpl/nft-market.sol\":6703:7179  function removeListing(uint256 _tokenId) internal {... */\n      pop\n      jump\t// out\n    tag_110:\n      mload(0x40)\n      dup1\n      0x60\n      add\n      0x40\n      mstore\n      dup1\n      and(0xffffffffffffffffffffffffffffffffffffffff, 0x00)\n      dup2\n      mstore\n      0x20\n      add\n      0x00\n      dup2\n      mstore\n      0x20\n      add\n      0x00\n      dup2\n      mstore\n      pop\n      swap1\n      jump\t// out\n        /* \"#utility.yul\":7:82   */\n    tag_209:\n        /* \"#utility.yul\":40:46   */\n      0x00\n        /* \"#utility.yul\":73:75   */\n      0x40\n        /* \"#utility.yul\":67:76   */\n      mload\n        /* \"#utility.yul\":57:76   */\n      swap1\n      pop\n        /* \"#utility.yul\":7:82   */\n      swap1\n      jump\t// out\n        /* \"#utility.yul\":88:205   */\n    tag_210:\n        /* \"#utility.yul\":197:198   */\n      0x00\n        /* \"#utility.yul\":194:195   */\n      0x00\n        /* \"#utility.yul\":187:199   */\n      revert\n        /* \"#utility.yul\":211:328   */\n    tag_211:\n        /* \"#utility.yul\":320:321   */\n      0x00\n        /* \"#utility.yul\":317:318   */\n      0x00\n        /* \"#utility.yul\":310:322   */\n      revert\n        /* \"#utility.yul\":334:460   */\n    tag_212:\n        /* \"#utility.yul\":371:378   */\n      0x00\n        /* \"#utility.yul\":411:453   */\n      0xffffffffffffffffffffffffffffffffffffffff\n        /* \"#utility.yul\":404:409   */\n      dup3\n        /* \"#utility.yul\":400:454   */\n      and\n        /* \"#utility.yul\":389:454   */\n      swap1\n      pop\n        /* \"#utility.yul\":334:460   */\n      swap2\n      swap1\n      pop\n      jump\t// out\n        /* \"#utility.yul\":466:562   */\n    tag_213:\n        /* \"#utility.yul\":503:510   */\n      0x00\n        /* \"#utility.yul\":532:556   */\n      tag_277\n        /* \"#utility.yul\":550:555   */\n      dup3\n        /* \"#utility.yul\":532:556   */\n      tag_212\n      jump\t// in\n    tag_277:\n        /* \"#utility.yul\":521:556   */\n      swap1\n      pop\n        /* \"#utility.yul\":466:562   */\n      swap2\n      swap1\n      pop\n      jump\t// out\n        /* \"#utility.yul\":568:690   */\n    tag_214:\n        /* \"#utility.yul\":641:665   */\n      tag_279\n        /* \"#utility.yul\":659:664   */\n      dup2\n        /* \"#utility.yul\":641:665   */\n      tag_213\n      jump\t// in\n    tag_279:\n        /* \"#utility.yul\":634:639   */\n      dup2\n        /* \"#utility.yul\":631:666   */\n      eq\n        /* \"#utility.yul\":621:684   */\n      tag_280\n      jumpi\n        /* \"#utility.yul\":680:681   */\n      0x00\n        /* \"#utility.yul\":677:678   */\n      0x00\n        /* \"#utility.yul\":670:682   */\n      revert\n        /* \"#utility.yul\":621:684   */\n    tag_280:\n        /* \"#utility.yul\":568:690   */\n      pop\n      jump\t// out\n        /* \"#utility.yul\":696:835   */\n    tag_215:\n        /* \"#utility.yul\":742:747   */\n      0x00\n        /* \"#utility.yul\":780:786   */\n      dup2\n        /* \"#utility.yul\":767:787   */\n      calldataload\n        /* \"#utility.yul\":758:787   */\n      swap1\n      pop\n        /* \"#utility.yul\":796:829   */\n      tag_282\n        /* \"#utility.yul\":823:828   */\n      dup2\n        /* \"#utility.yul\":796:829   */\n      tag_214\n      jump\t// in\n    tag_282:\n        /* \"#utility.yul\":696:835   */\n      swap3\n      swap2\n      pop\n      pop\n      jump\t// out\n        /* \"#utility.yul\":841:918   */\n    tag_216:\n        /* \"#utility.yul\":878:885   */\n      0x00\n        /* \"#utility.yul\":907:912   */\n      dup2\n        /* \"#utility.yul\":896:912   */\n      swap1\n      pop\n        /* \"#utility.yul\":841:918   */\n      swap2\n      swap1\n      pop\n      jump\t// out\n        /* \"#utility.yul\":924:1046   */\n    tag_217:\n        /* \"#utility.yul\":997:1021   */\n      tag_285\n        /* \"#utility.yul\":1015:1020   */\n      dup2\n        /* \"#utility.yul\":997:1021   */\n      tag_216\n      jump\t// in\n    tag_285:\n        /* \"#utility.yul\":990:995   */\n      dup2\n        /* \"#utility.yul\":987:1022   */\n      eq\n        /* \"#utility.yul\":977:1040   */\n      tag_286\n      jumpi\n        /* \"#utility.yul\":1036:1037   */\n      0x00\n        /* \"#utility.yul\":1033:1034   */\n      0x00\n        /* \"#utility.yul\":1026:1038   */\n      revert\n        /* \"#utility.yul\":977:1040   */\n    tag_286:\n        /* \"#utility.yul\":924:1046   */\n      pop\n      jump\t// out\n        /* \"#utility.yul\":1052:1191   */\n    tag_218:\n        /* \"#utility.yul\":1098:1103   */\n      0x00\n        /* \"#utility.yul\":1136:1142   */\n      dup2\n        /* \"#utility.yul\":1123:1143   */\n      calldataload\n        /* \"#utility.yul\":1114:1143   */\n      swap1\n      pop\n        /* \"#utility.yul\":1152:1185   */\n      tag_288\n        /* \"#utility.yul\":1179:1184   */\n      dup2\n        /* \"#utility.yul\":1152:1185   */\n      tag_217\n      jump\t// in\n    tag_288:\n        /* \"#utility.yul\":1052:1191   */\n      swap3\n      swap2\n      pop\n      pop\n      jump\t// out\n        /* \"#utility.yul\":1197:1314   */\n    tag_219:\n        /* \"#utility.yul\":1306:1307   */\n      0x00\n        /* \"#utility.yul\":1303:1304   */\n      0x00\n        /* \"#utility.yul\":1296:1308   */\n      revert\n        /* \"#utility.yul\":1320:1437   */\n    tag_220:\n        /* \"#utility.yul\":1429:1430   */\n      0x00\n        /* \"#utility.yul\":1426:1427   */\n      0x00\n        /* \"#utility.yul\":1419:1431   */\n      revert\n        /* \"#utility.yul\":1443:1560   */\n    tag_221:\n        /* \"#utility.yul\":1552:1553   */\n      0x00\n        /* \"#utility.yul\":1549:1550   */\n      0x00\n        /* \"#utility.yul\":1542:1554   */\n      revert\n        /* \"#utility.yul\":1579:2131   */\n    tag_222:\n        /* \"#utility.yul\":1636:1644   */\n      0x00\n        /* \"#utility.yul\":1646:1652   */\n      0x00\n        /* \"#utility.yul\":1696:1699   */\n      dup4\n        /* \"#utility.yul\":1689:1693   */\n      0x1f\n        /* \"#utility.yul\":1681:1687   */\n      dup5\n        /* \"#utility.yul\":1677:1694   */\n      add\n        /* \"#utility.yul\":1673:1700   */\n      slt\n        /* \"#utility.yul\":1663:1785   */\n      tag_293\n      jumpi\n        /* \"#utility.yul\":1704:1783   */\n      tag_294\n      tag_219\n      jump\t// in\n    tag_294:\n        /* \"#utility.yul\":1663:1785   */\n    tag_293:\n        /* \"#utility.yul\":1817:1823   */\n      dup3\n        /* \"#utility.yul\":1804:1824   */\n      calldataload\n        /* \"#utility.yul\":1794:1824   */\n      swap1\n      pop\n        /* \"#utility.yul\":1847:1865   */\n      0xffffffffffffffff\n        /* \"#utility.yul\":1839:1845   */\n      dup2\n        /* \"#utility.yul\":1836:1866   */\n      gt\n        /* \"#utility.yul\":1833:1950   */\n      iszero\n      tag_295\n      jumpi\n        /* \"#utility.yul\":1869:1948   */\n      tag_296\n      tag_220\n      jump\t// in\n    tag_296:\n        /* \"#utility.yul\":1833:1950   */\n    tag_295:\n        /* \"#utility.yul\":1983:1987   */\n      0x20\n        /* \"#utility.yul\":1975:1981   */\n      dup4\n        /* \"#utility.yul\":1971:1988   */\n      add\n        /* \"#utility.yul\":1959:1988   */\n      swap2\n      pop\n        /* \"#utility.yul\":2037:2040   */\n      dup4\n        /* \"#utility.yul\":2029:2033   */\n      0x01\n        /* \"#utility.yul\":2021:2027   */\n      dup3\n        /* \"#utility.yul\":2017:2034   */\n      mul\n        /* \"#utility.yul\":2007:2015   */\n      dup4\n        /* \"#utility.yul\":2003:2035   */\n      add\n        /* \"#utility.yul\":2000:2041   */\n      gt\n        /* \"#utility.yul\":1997:2125   */\n      iszero\n      tag_297\n      jumpi\n        /* \"#utility.yul\":2044:2123   */\n      tag_298\n      tag_221\n      jump\t// in\n    tag_298:\n        /* \"#utility.yul\":1997:2125   */\n    tag_297:\n        /* \"#utility.yul\":1579:2131   */\n      swap3\n      pop\n      swap3\n      swap1\n      pop\n      jump\t// out\n        /* \"#utility.yul\":2137:3100   */\n    tag_22:\n        /* \"#utility.yul\":2234:2240   */\n      0x00\n        /* \"#utility.yul\":2242:2248   */\n      0x00\n        /* \"#utility.yul\":2250:2256   */\n      0x00\n        /* \"#utility.yul\":2258:2264   */\n      0x00\n        /* \"#utility.yul\":2266:2272   */\n      0x00\n        /* \"#utility.yul\":2315:2318   */\n      0x80\n        /* \"#utility.yul\":2303:2312   */\n      dup7\n        /* \"#utility.yul\":2294:2301   */\n      dup9\n        /* \"#utility.yul\":2290:2313   */\n      sub\n        /* \"#utility.yul\":2286:2319   */\n      slt\n        /* \"#utility.yul\":2283:2403   */\n      iszero\n      tag_300\n      jumpi\n        /* \"#utility.yul\":2322:2401   */\n      tag_301\n      tag_210\n      jump\t// in\n    tag_301:\n        /* \"#utility.yul\":2283:2403   */\n    tag_300:\n        /* \"#utility.yul\":2442:2443   */\n      0x00\n        /* \"#utility.yul\":2467:2520   */\n      tag_302\n        /* \"#utility.yul\":2512:2519   */\n      dup9\n        /* \"#utility.yul\":2503:2509   */\n      dup3\n        /* \"#utility.yul\":2492:2501   */\n      dup10\n        /* \"#utility.yul\":2488:2510   */\n      add\n        /* \"#utility.yul\":2467:2520   */\n      tag_215\n      jump\t// in\n    tag_302:\n        /* \"#utility.yul\":2457:2520   */\n      swap6\n      pop\n        /* \"#utility.yul\":2413:2530   */\n      pop\n        /* \"#utility.yul\":2569:2571   */\n      0x20\n        /* \"#utility.yul\":2595:2648   */\n      tag_303\n        /* \"#utility.yul\":2640:2647   */\n      dup9\n        /* \"#utility.yul\":2631:2637   */\n      dup3\n        /* \"#utility.yul\":2620:2629   */\n      dup10\n        /* \"#utility.yul\":2616:2638   */\n      add\n        /* \"#utility.yul\":2595:2648   */\n      tag_215\n      jump\t// in\n    tag_303:\n        /* \"#utility.yul\":2585:2648   */\n      swap5\n      pop\n        /* \"#utility.yul\":2540:2658   */\n      pop\n        /* \"#utility.yul\":2697:2699   */\n      0x40\n        /* \"#utility.yul\":2723:2776   */\n      tag_304\n        /* \"#utility.yul\":2768:2775   */\n      dup9\n        /* \"#utility.yul\":2759:2765   */\n      dup3\n        /* \"#utility.yul\":2748:2757   */\n      dup10\n        /* \"#utility.yul\":2744:2766   */\n      add\n        /* \"#utility.yul\":2723:2776   */\n      tag_218\n      jump\t// in\n    tag_304:\n        /* \"#utility.yul\":2713:2776   */\n      swap4\n      pop\n        /* \"#utility.yul\":2668:2786   */\n      pop\n        /* \"#utility.yul\":2853:2855   */\n      0x60\n        /* \"#utility.yul\":2842:2851   */\n      dup7\n        /* \"#utility.yul\":2838:2856   */\n      add\n        /* \"#utility.yul\":2825:2857   */\n      calldataload\n        /* \"#utility.yul\":2884:2902   */\n      0xffffffffffffffff\n        /* \"#utility.yul\":2876:2882   */\n      dup2\n        /* \"#utility.yul\":2873:2903   */\n      gt\n        /* \"#utility.yul\":2870:2987   */\n      iszero\n      tag_305\n      jumpi\n        /* \"#utility.yul\":2906:2985   */\n      tag_306\n      tag_211\n      jump\t// in\n    tag_306:\n        /* \"#utility.yul\":2870:2987   */\n    tag_305:\n        /* \"#utility.yul\":3019:3083   */\n      tag_307\n        /* \"#utility.yul\":3075:3082   */\n      dup9\n        /* \"#utility.yul\":3066:3072   */\n      dup3\n        /* \"#utility.yul\":3055:3064   */\n      dup10\n        /* \"#utility.yul\":3051:3073   */\n      add\n        /* \"#utility.yul\":3019:3083   */\n      tag_222\n      jump\t// in\n    tag_307:\n        /* \"#utility.yul\":3001:3083   */\n      swap3\n      pop\n      swap3\n      pop\n        /* \"#utility.yul\":2796:3093   */\n      pop\n        /* \"#utility.yul\":2137:3100   */\n      swap3\n      swap6\n      pop\n      swap3\n      swap6\n      swap1\n      swap4\n      pop\n      jump\t// out\n        /* \"#utility.yul\":3106:3255   */\n    tag_223:\n        /* \"#utility.yul\":3142:3149   */\n      0x00\n        /* \"#utility.yul\":3182:3248   */\n      0xffffffff00000000000000000000000000000000000000000000000000000000\n        /* \"#utility.yul\":3175:3180   */\n      dup3\n        /* \"#utility.yul\":3171:3249   */\n      and\n        /* \"#utility.yul\":3160:3249   */\n      swap1\n      pop\n        /* \"#utility.yul\":3106:3255   */\n      swap2\n      swap1\n      pop\n      jump\t// out\n        /* \"#utility.yul\":3261:3376   */\n    tag_224:\n        /* \"#utility.yul\":3346:3369   */\n      tag_310\n        /* \"#utility.yul\":3363:3368   */\n      dup2\n        /* \"#utility.yul\":3346:3369   */\n      tag_223\n      jump\t// in\n    tag_310:\n        /* \"#utility.yul\":3341:3344   */\n      dup3\n        /* \"#utility.yul\":3334:3370   */\n      mstore\n        /* \"#utility.yul\":3261:3376   */\n      pop\n      pop\n      jump\t// out\n        /* \"#utility.yul\":3382:3600   */\n    tag_25:\n        /* \"#utility.yul\":3473:3477   */\n      0x00\n        /* \"#utility.yul\":3511:3513   */\n      0x20\n        /* \"#utility.yul\":3500:3509   */\n      dup3\n        /* \"#utility.yul\":3496:3514   */\n      add\n        /* \"#utility.yul\":3488:3514   */\n      swap1\n      pop\n        /* \"#utility.yul\":3524:3593   */\n      tag_312\n        /* \"#utility.yul\":3590:3591   */\n      0x00\n        /* \"#utility.yul\":3579:3588   */\n      dup4\n        /* \"#utility.yul\":3575:3592   */\n      add\n        /* \"#utility.yul\":3566:3572   */\n      dup5\n        /* \"#utility.yul\":3524:3593   */\n      tag_224\n      jump\t// in\n    tag_312:\n        /* \"#utility.yul\":3382:3600   */\n      swap3\n      swap2\n      pop\n      pop\n      jump\t// out\n        /* \"#utility.yul\":3606:3935   */\n    tag_28:\n        /* \"#utility.yul\":3665:3671   */\n      0x00\n        /* \"#utility.yul\":3714:3716   */\n      0x20\n        /* \"#utility.yul\":3702:3711   */\n      dup3\n        /* \"#utility.yul\":3693:3700   */\n      dup5\n        /* \"#utility.yul\":3689:3712   */\n      sub\n        /* \"#utility.yul\":3685:3717   */\n      slt\n        /* \"#utility.yul\":3682:3801   */\n      iszero\n      tag_314\n      jumpi\n        /* \"#utility.yul\":3720:3799   */\n      tag_315\n      tag_210\n      jump\t// in\n    tag_315:\n        /* \"#utility.yul\":3682:3801   */\n    tag_314:\n        /* \"#utility.yul\":3840:3841   */\n      0x00\n        /* \"#utility.yul\":3865:3918   */\n      tag_316\n        /* \"#utility.yul\":3910:3917   */\n      dup5\n        /* \"#utility.yul\":3901:3907   */\n      dup3\n        /* \"#utility.yul\":3890:3899   */\n      dup6\n        /* \"#utility.yul\":3886:3908   */\n      add\n        /* \"#utility.yul\":3865:3918   */\n      tag_218\n      jump\t// in\n    tag_316:\n        /* \"#utility.yul\":3855:3918   */\n      swap2\n      pop\n        /* \"#utility.yul\":3811:3928   */\n      pop\n        /* \"#utility.yul\":3606:3935   */\n      swap3\n      swap2\n      pop\n      pop\n      jump\t// out\n        /* \"#utility.yul\":3941:4059   */\n    tag_225:\n        /* \"#utility.yul\":4028:4052   */\n      tag_318\n        /* \"#utility.yul\":4046:4051   */\n      dup2\n        /* \"#utility.yul\":4028:4052   */\n      tag_213\n      jump\t// in\n    tag_318:\n        /* \"#utility.yul\":4023:4026   */\n      dup3\n        /* \"#utility.yul\":4016:4053   */\n      mstore\n        /* \"#utility.yul\":3941:4059   */\n      pop\n      pop\n      jump\t// out\n        /* \"#utility.yul\":4065:4183   */\n    tag_226:\n        /* \"#utility.yul\":4152:4176   */\n      tag_320\n        /* \"#utility.yul\":4170:4175   */\n      dup2\n        /* \"#utility.yul\":4152:4176   */\n      tag_216\n      jump\t// in\n    tag_320:\n        /* \"#utility.yul\":4147:4150   */\n      dup3\n        /* \"#utility.yul\":4140:4177   */\n      mstore\n        /* \"#utility.yul\":4065:4183   */\n      pop\n      pop\n      jump\t// out\n        /* \"#utility.yul\":4189:4631   */\n    tag_31:\n        /* \"#utility.yul\":4338:4342   */\n      0x00\n        /* \"#utility.yul\":4376:4378   */\n      0x60\n        /* \"#utility.yul\":4365:4374   */\n      dup3\n        /* \"#utility.yul\":4361:4379   */\n      add\n        /* \"#utility.yul\":4353:4379   */\n      swap1\n      pop\n        /* \"#utility.yul\":4389:4460   */\n      tag_322\n        /* \"#utility.yul\":4457:4458   */\n      0x00\n        /* \"#utility.yul\":4446:4455   */\n      dup4\n        /* \"#utility.yul\":4442:4459   */\n      add\n        /* \"#utility.yul\":4433:4439   */\n      dup7\n        /* \"#utility.yul\":4389:4460   */\n      tag_225\n      jump\t// in\n    tag_322:\n        /* \"#utility.yul\":4470:4542   */\n      tag_323\n        /* \"#utility.yul\":4538:4540   */\n      0x20\n        /* \"#utility.yul\":4527:4536   */\n      dup4\n        /* \"#utility.yul\":4523:4541   */\n      add\n        /* \"#utility.yul\":4514:4520   */\n      dup6\n        /* \"#utility.yul\":4470:4542   */\n      tag_226\n      jump\t// in\n    tag_323:\n        /* \"#utility.yul\":4552:4624   */\n      tag_324\n        /* \"#utility.yul\":4620:4622   */\n      0x40\n        /* \"#utility.yul\":4609:4618   */\n      dup4\n        /* \"#utility.yul\":4605:4623   */\n      add\n        /* \"#utility.yul\":4596:4602   */\n      dup5\n        /* \"#utility.yul\":4552:4624   */\n      tag_226\n      jump\t// in\n    tag_324:\n        /* \"#utility.yul\":4189:4631   */\n      swap5\n      swap4\n      pop\n      pop\n      pop\n      pop\n      jump\t// out\n        /* \"#utility.yul\":4637:4773   */\n    tag_227:\n        /* \"#utility.yul\":4726:4732   */\n      0x00\n        /* \"#utility.yul\":4760:4765   */\n      dup2\n        /* \"#utility.yul\":4754:4766   */\n      mload\n        /* \"#utility.yul\":4744:4766   */\n      swap1\n      pop\n        /* \"#utility.yul\":4637:4773   */\n      swap2\n      swap1\n      pop\n      jump\t// out\n        /* \"#utility.yul\":4779:4985   */\n    tag_228:\n        /* \"#utility.yul\":4900:4911   */\n      0x00\n        /* \"#utility.yul\":4934:4940   */\n      dup3\n        /* \"#utility.yul\":4929:4932   */\n      dup3\n        /* \"#utility.yul\":4922:4941   */\n      mstore\n        /* \"#utility.yul\":4974:4978   */\n      0x20\n        /* \"#utility.yul\":4969:4972   */\n      dup3\n        /* \"#utility.yul\":4965:4979   */\n      add\n        /* \"#utility.yul\":4950:4979   */\n      swap1\n      pop\n        /* \"#utility.yul\":4779:4985   */\n      swap3\n      swap2\n      pop\n      pop\n      jump\t// out\n        /* \"#utility.yul\":4991:5145   */\n    tag_229:\n        /* \"#utility.yul\":5080:5084   */\n      0x00\n        /* \"#utility.yul\":5103:5106   */\n      dup2\n        /* \"#utility.yul\":5095:5106   */\n      swap1\n      pop\n        /* \"#utility.yul\":5133:5137   */\n      0x20\n        /* \"#utility.yul\":5128:5131   */\n      dup3\n        /* \"#utility.yul\":5124:5138   */\n      add\n        /* \"#utility.yul\":5116:5138   */\n      swap1\n      pop\n        /* \"#utility.yul\":4991:5145   */\n      swap2\n      swap1\n      pop\n      jump\t// out\n        /* \"#utility.yul\":5151:5259   */\n    tag_230:\n        /* \"#utility.yul\":5228:5252   */\n      tag_329\n        /* \"#utility.yul\":5246:5251   */\n      dup2\n        /* \"#utility.yul\":5228:5252   */\n      tag_213\n      jump\t// in\n    tag_329:\n        /* \"#utility.yul\":5223:5226   */\n      dup3\n        /* \"#utility.yul\":5216:5253   */\n      mstore\n        /* \"#utility.yul\":5151:5259   */\n      pop\n      pop\n      jump\t// out\n        /* \"#utility.yul\":5265:5373   */\n    tag_231:\n        /* \"#utility.yul\":5342:5366   */\n      tag_331\n        /* \"#utility.yul\":5360:5365   */\n      dup2\n        /* \"#utility.yul\":5342:5366   */\n      tag_216\n      jump\t// in\n    tag_331:\n        /* \"#utility.yul\":5337:5340   */\n      dup3\n        /* \"#utility.yul\":5330:5367   */\n      mstore\n        /* \"#utility.yul\":5265:5373   */\n      pop\n      pop\n      jump\t// out\n        /* \"#utility.yul\":5429:6100   */\n    tag_232:\n        /* \"#utility.yul\":5560:5564   */\n      0x60\n        /* \"#utility.yul\":5555:5558   */\n      dup3\n        /* \"#utility.yul\":5551:5565   */\n      add\n        /* \"#utility.yul\":5649:5653   */\n      0x00\n        /* \"#utility.yul\":5642:5647   */\n      dup3\n        /* \"#utility.yul\":5638:5654   */\n      add\n        /* \"#utility.yul\":5632:5655   */\n      mload\n        /* \"#utility.yul\":5668:5731   */\n      tag_333\n        /* \"#utility.yul\":5725:5729   */\n      0x00\n        /* \"#utility.yul\":5720:5723   */\n      dup6\n        /* \"#utility.yul\":5716:5730   */\n      add\n        /* \"#utility.yul\":5702:5714   */\n      dup3\n        /* \"#utility.yul\":5668:5731   */\n      tag_230\n      jump\t// in\n    tag_333:\n        /* \"#utility.yul\":5575:5741   */\n      pop\n        /* \"#utility.yul\":5826:5830   */\n      0x20\n        /* \"#utility.yul\":5819:5824   */\n      dup3\n        /* \"#utility.yul\":5815:5831   */\n      add\n        /* \"#utility.yul\":5809:5832   */\n      mload\n        /* \"#utility.yul\":5845:5908   */\n      tag_334\n        /* \"#utility.yul\":5902:5906   */\n      0x20\n        /* \"#utility.yul\":5897:5900   */\n      dup6\n        /* \"#utility.yul\":5893:5907   */\n      add\n        /* \"#utility.yul\":5879:5891   */\n      dup3\n        /* \"#utility.yul\":5845:5908   */\n      tag_231\n      jump\t// in\n    tag_334:\n        /* \"#utility.yul\":5751:5918   */\n      pop\n        /* \"#utility.yul\":6001:6005   */\n      0x40\n        /* \"#utility.yul\":5994:5999   */\n      dup3\n        /* \"#utility.yul\":5990:6006   */\n      add\n        /* \"#utility.yul\":5984:6007   */\n      mload\n        /* \"#utility.yul\":6020:6083   */\n      tag_335\n        /* \"#utility.yul\":6077:6081   */\n      0x40\n        /* \"#utility.yul\":6072:6075   */\n      dup6\n        /* \"#utility.yul\":6068:6082   */\n      add\n        /* \"#utility.yul\":6054:6066   */\n      dup3\n        /* \"#utility.yul\":6020:6083   */\n      tag_231\n      jump\t// in\n    tag_335:\n        /* \"#utility.yul\":5928:6093   */\n      pop\n        /* \"#utility.yul\":5529:6100   */\n      pop\n        /* \"#utility.yul\":5429:6100   */\n      pop\n      pop\n      jump\t// out\n        /* \"#utility.yul\":6106:6373   */\n    tag_233:\n        /* \"#utility.yul\":6219:6229   */\n      0x00\n        /* \"#utility.yul\":6240:6330   */\n      tag_337\n        /* \"#utility.yul\":6326:6329   */\n      dup4\n        /* \"#utility.yul\":6318:6324   */\n      dup4\n        /* \"#utility.yul\":6240:6330   */\n      tag_232\n      jump\t// in\n    tag_337:\n        /* \"#utility.yul\":6362:6366   */\n      0x60\n        /* \"#utility.yul\":6357:6360   */\n      dup4\n        /* \"#utility.yul\":6353:6367   */\n      add\n        /* \"#utility.yul\":6339:6367   */\n      swap1\n      pop\n        /* \"#utility.yul\":6106:6373   */\n      swap3\n      swap2\n      pop\n      pop\n      jump\t// out\n        /* \"#utility.yul\":6379:6514   */\n    tag_234:\n        /* \"#utility.yul\":6471:6475   */\n      0x00\n        /* \"#utility.yul\":6503:6507   */\n      0x20\n        /* \"#utility.yul\":6498:6501   */\n      dup3\n        /* \"#utility.yul\":6494:6508   */\n      add\n        /* \"#utility.yul\":6486:6508   */\n      swap1\n      pop\n        /* \"#utility.yul\":6379:6514   */\n      swap2\n      swap1\n      pop\n      jump\t// out\n        /* \"#utility.yul\":6574:7482   */\n    tag_235:\n        /* \"#utility.yul\":6737:6740   */\n      0x00\n        /* \"#utility.yul\":6766:6842   */\n      tag_340\n        /* \"#utility.yul\":6836:6841   */\n      dup3\n        /* \"#utility.yul\":6766:6842   */\n      tag_227\n      jump\t// in\n    tag_340:\n        /* \"#utility.yul\":6858:6966   */\n      tag_341\n        /* \"#utility.yul\":6959:6965   */\n      dup2\n        /* \"#utility.yul\":6954:6957   */\n      dup6\n        /* \"#utility.yul\":6858:6966   */\n      tag_228\n      jump\t// in\n    tag_341:\n        /* \"#utility.yul\":6851:6966   */\n      swap4\n      pop\n        /* \"#utility.yul\":6990:7068   */\n      tag_342\n        /* \"#utility.yul\":7062:7067   */\n      dup4\n        /* \"#utility.yul\":6990:7068   */\n      tag_229\n      jump\t// in\n    tag_342:\n        /* \"#utility.yul\":7091:7098   */\n      dup1\n        /* \"#utility.yul\":7122:7123   */\n      0x00\n        /* \"#utility.yul\":7107:7457   */\n    tag_343:\n        /* \"#utility.yul\":7132:7138   */\n      dup4\n        /* \"#utility.yul\":7129:7130   */\n      dup2\n        /* \"#utility.yul\":7126:7139   */\n      lt\n        /* \"#utility.yul\":7107:7457   */\n      iszero\n      tag_345\n      jumpi\n        /* \"#utility.yul\":7208:7214   */\n      dup2\n        /* \"#utility.yul\":7202:7215   */\n      mload\n        /* \"#utility.yul\":7235:7342   */\n      tag_346\n        /* \"#utility.yul\":7338:7341   */\n      dup9\n        /* \"#utility.yul\":7323:7336   */\n      dup3\n        /* \"#utility.yul\":7235:7342   */\n      tag_233\n      jump\t// in\n    tag_346:\n        /* \"#utility.yul\":7228:7342   */\n      swap8\n      pop\n        /* \"#utility.yul\":7365:7447   */\n      tag_347\n        /* \"#utility.yul\":7440:7446   */\n      dup4\n        /* \"#utility.yul\":7365:7447   */\n      tag_234\n      jump\t// in\n    tag_347:\n        /* \"#utility.yul\":7355:7447   */\n      swap3\n      pop\n        /* \"#utility.yul\":7167:7457   */\n      pop\n        /* \"#utility.yul\":7154:7155   */\n      0x01\n        /* \"#utility.yul\":7151:7152   */\n      dup2\n        /* \"#utility.yul\":7147:7156   */\n      add\n        /* \"#utility.yul\":7142:7156   */\n      swap1\n      pop\n        /* \"#utility.yul\":7107:7457   */\n      jump(tag_343)\n    tag_345:\n        /* \"#utility.yul\":7111:7125   */\n      pop\n        /* \"#utility.yul\":7473:7476   */\n      dup6\n        /* \"#utility.yul\":7466:7476   */\n      swap4\n      pop\n        /* \"#utility.yul\":6742:7482   */\n      pop\n      pop\n      pop\n        /* \"#utility.yul\":6574:7482   */\n      swap3\n      swap2\n      pop\n      pop\n      jump\t// out\n        /* \"#utility.yul\":7488:7949   */\n    tag_38:\n        /* \"#utility.yul\":7675:7679   */\n      0x00\n        /* \"#utility.yul\":7713:7715   */\n      0x20\n        /* \"#utility.yul\":7702:7711   */\n      dup3\n        /* \"#utility.yul\":7698:7716   */\n      add\n        /* \"#utility.yul\":7690:7716   */\n      swap1\n      pop\n        /* \"#utility.yul\":7762:7771   */\n      dup2\n        /* \"#utility.yul\":7756:7760   */\n      dup2\n        /* \"#utility.yul\":7752:7772   */\n      sub\n        /* \"#utility.yul\":7748:7749   */\n      0x00\n        /* \"#utility.yul\":7737:7746   */\n      dup4\n        /* \"#utility.yul\":7733:7750   */\n      add\n        /* \"#utility.yul\":7726:7773   */\n      mstore\n        /* \"#utility.yul\":7790:7942   */\n      tag_349\n        /* \"#utility.yul\":7937:7941   */\n      dup2\n        /* \"#utility.yul\":7928:7934   */\n      dup5\n        /* \"#utility.yul\":7790:7942   */\n      tag_235\n      jump\t// in\n    tag_349:\n        /* \"#utility.yul\":7782:7942   */\n      swap1\n      pop\n        /* \"#utility.yul\":7488:7949   */\n      swap3\n      swap2\n      pop\n      pop\n      jump\t// out\n        /* \"#utility.yul\":7955:8015   */\n    tag_236:\n        /* \"#utility.yul\":7983:7986   */\n      0x00\n        /* \"#utility.yul\":8004:8009   */\n      dup2\n        /* \"#utility.yul\":7997:8009   */\n      swap1\n      pop\n        /* \"#utility.yul\":7955:8015   */\n      swap2\n      swap1\n      pop\n      jump\t// out\n        /* \"#utility.yul\":8021:8163   */\n    tag_237:\n        /* \"#utility.yul\":8071:8080   */\n      0x00\n        /* \"#utility.yul\":8104:8157   */\n      tag_352\n        /* \"#utility.yul\":8122:8156   */\n      tag_353\n        /* \"#utility.yul\":8131:8155   */\n      tag_354\n        /* \"#utility.yul\":8149:8154   */\n      dup5\n        /* \"#utility.yul\":8131:8155   */\n      tag_212\n      jump\t// in\n    tag_354:\n        /* \"#utility.yul\":8122:8156   */\n      tag_236\n      jump\t// in\n    tag_353:\n        /* \"#utility.yul\":8104:8157   */\n      tag_212\n      jump\t// in\n    tag_352:\n        /* \"#utility.yul\":8091:8157   */\n      swap1\n      pop\n        /* \"#utility.yul\":8021:8163   */\n      swap2\n      swap1\n      pop\n      jump\t// out\n        /* \"#utility.yul\":8169:8295   */\n    tag_238:\n        /* \"#utility.yul\":8219:8228   */\n      0x00\n        /* \"#utility.yul\":8252:8289   */\n      tag_356\n        /* \"#utility.yul\":8283:8288   */\n      dup3\n        /* \"#utility.yul\":8252:8289   */\n      tag_237\n      jump\t// in\n    tag_356:\n        /* \"#utility.yul\":8239:8289   */\n      swap1\n      pop\n        /* \"#utility.yul\":8169:8295   */\n      swap2\n      swap1\n      pop\n      jump\t// out\n        /* \"#utility.yul\":8301:8440   */\n    tag_239:\n        /* \"#utility.yul\":8364:8373   */\n      0x00\n        /* \"#utility.yul\":8397:8434   */\n      tag_358\n        /* \"#utility.yul\":8428:8433   */\n      dup3\n        /* \"#utility.yul\":8397:8434   */\n      tag_238\n      jump\t// in\n    tag_358:\n        /* \"#utility.yul\":8384:8434   */\n      swap1\n      pop\n        /* \"#utility.yul\":8301:8440   */\n      swap2\n      swap1\n      pop\n      jump\t// out\n        /* \"#utility.yul\":8446:8603   */\n    tag_240:\n        /* \"#utility.yul\":8546:8596   */\n      tag_360\n        /* \"#utility.yul\":8590:8595   */\n      dup2\n        /* \"#utility.yul\":8546:8596   */\n      tag_239\n      jump\t// in\n    tag_360:\n        /* \"#utility.yul\":8541:8544   */\n      dup3\n        /* \"#utility.yul\":8534:8597   */\n      mstore\n        /* \"#utility.yul\":8446:8603   */\n      pop\n      pop\n      jump\t// out\n        /* \"#utility.yul\":8609:8857   */\n    tag_42:\n        /* \"#utility.yul\":8715:8719   */\n      0x00\n        /* \"#utility.yul\":8753:8755   */\n      0x20\n        /* \"#utility.yul\":8742:8751   */\n      dup3\n        /* \"#utility.yul\":8738:8756   */\n      add\n        /* \"#utility.yul\":8730:8756   */\n      swap1\n      pop\n        /* \"#utility.yul\":8766:8850   */\n      tag_362\n        /* \"#utility.yul\":8847:8848   */\n      0x00\n        /* \"#utility.yul\":8836:8845   */\n      dup4\n        /* \"#utility.yul\":8832:8849   */\n      add\n        /* \"#utility.yul\":8823:8829   */\n      dup5\n        /* \"#utility.yul\":8766:8850   */\n      tag_240\n      jump\t// in\n    tag_362:\n        /* \"#utility.yul\":8609:8857   */\n      swap3\n      swap2\n      pop\n      pop\n      jump\t// out\n        /* \"#utility.yul\":8863:9085   */\n    tag_46:\n        /* \"#utility.yul\":8956:8960   */\n      0x00\n        /* \"#utility.yul\":8994:8996   */\n      0x20\n        /* \"#utility.yul\":8983:8992   */\n      dup3\n        /* \"#utility.yul\":8979:8997   */\n      add\n        /* \"#utility.yul\":8971:8997   */\n      swap1\n      pop\n        /* \"#utility.yul\":9007:9078   */\n      tag_364\n        /* \"#utility.yul\":9075:9076   */\n      0x00\n        /* \"#utility.yul\":9064:9073   */\n      dup4\n        /* \"#utility.yul\":9060:9077   */\n      add\n        /* \"#utility.yul\":9051:9057   */\n      dup5\n        /* \"#utility.yul\":9007:9078   */\n      tag_226\n      jump\t// in\n    tag_364:\n        /* \"#utility.yul\":8863:9085   */\n      swap3\n      swap2\n      pop\n      pop\n      jump\t// out\n        /* \"#utility.yul\":9091:9565   */\n    tag_53:\n        /* \"#utility.yul\":9159:9165   */\n      0x00\n        /* \"#utility.yul\":9167:9173   */\n      0x00\n        /* \"#utility.yul\":9216:9218   */\n      0x40\n        /* \"#utility.yul\":9204:9213   */\n      dup4\n        /* \"#utility.yul\":9195:9202   */\n      dup6\n        /* \"#utility.yul\":9191:9214   */\n      sub\n        /* \"#utility.yul\":9187:9219   */\n      slt\n        /* \"#utility.yul\":9184:9303   */\n      iszero\n      tag_366\n      jumpi\n        /* \"#utility.yul\":9222:9301   */\n      tag_367\n      tag_210\n      jump\t// in\n    tag_367:\n        /* \"#utility.yul\":9184:9303   */\n    tag_366:\n        /* \"#utility.yul\":9342:9343   */\n      0x00\n        /* \"#utility.yul\":9367:9420   */\n      tag_368\n        /* \"#utility.yul\":9412:9419   */\n      dup6\n        /* \"#utility.yul\":9403:9409   */\n      dup3\n        /* \"#utility.yul\":9392:9401   */\n      dup7\n        /* \"#utility.yul\":9388:9410   */\n      add\n        /* \"#utility.yul\":9367:9420   */\n      tag_218\n      jump\t// in\n    tag_368:\n        /* \"#utility.yul\":9357:9420   */\n      swap3\n      pop\n        /* \"#utility.yul\":9313:9430   */\n      pop\n        /* \"#utility.yul\":9469:9471   */\n      0x20\n        /* \"#utility.yul\":9495:9548   */\n      tag_369\n        /* \"#utility.yul\":9540:9547   */\n      dup6\n        /* \"#utility.yul\":9531:9537   */\n      dup3\n        /* \"#utility.yul\":9520:9529   */\n      dup7\n        /* \"#utility.yul\":9516:9538   */\n      add\n        /* \"#utility.yul\":9495:9548   */\n      tag_218\n      jump\t// in\n    tag_369:\n        /* \"#utility.yul\":9485:9548   */\n      swap2\n      pop\n        /* \"#utility.yul\":9440:9558   */\n      pop\n        /* \"#utility.yul\":9091:9565   */\n      swap3\n      pop\n      swap3\n      swap1\n      pop\n      jump\t// out\n        /* \"#utility.yul\":9571:9688   */\n    tag_241:\n        /* \"#utility.yul\":9680:9681   */\n      0x00\n        /* \"#utility.yul\":9677:9678   */\n      0x00\n        /* \"#utility.yul\":9670:9682   */\n      revert\n        /* \"#utility.yul\":9694:9796   */\n    tag_242:\n        /* \"#utility.yul\":9735:9741   */\n      0x00\n        /* \"#utility.yul\":9786:9788   */\n      0x1f\n        /* \"#utility.yul\":9782:9789   */\n      not\n        /* \"#utility.yul\":9777:9779   */\n      0x1f\n        /* \"#utility.yul\":9770:9775   */\n      dup4\n        /* \"#utility.yul\":9766:9780   */\n      add\n        /* \"#utility.yul\":9762:9790   */\n      and\n        /* \"#utility.yul\":9752:9790   */\n      swap1\n      pop\n        /* \"#utility.yul\":9694:9796   */\n      swap2\n      swap1\n      pop\n      jump\t// out\n        /* \"#utility.yul\":9802:9982   */\n    tag_106:\n        /* \"#utility.yul\":9850:9927   */\n      0x4e487b7100000000000000000000000000000000000000000000000000000000\n        /* \"#utility.yul\":9847:9848   */\n      0x00\n        /* \"#utility.yul\":9840:9928   */\n      mstore\n        /* \"#utility.yul\":9947:9951   */\n      0x41\n        /* \"#utility.yul\":9944:9945   */\n      0x04\n        /* \"#utility.yul\":9937:9952   */\n      mstore\n        /* \"#utility.yul\":9971:9975   */\n      0x24\n        /* \"#utility.yul\":9968:9969   */\n      0x00\n        /* \"#utility.yul\":9961:9976   */\n      revert\n        /* \"#utility.yul\":9988:10269   */\n    tag_243:\n        /* \"#utility.yul\":10071:10098   */\n      tag_374\n        /* \"#utility.yul\":10093:10097   */\n      dup3\n        /* \"#utility.yul\":10071:10098   */\n      tag_242\n      jump\t// in\n    tag_374:\n        /* \"#utility.yul\":10063:10069   */\n      dup2\n        /* \"#utility.yul\":10059:10099   */\n      add\n        /* \"#utility.yul\":10201:10207   */\n      dup2\n        /* \"#utility.yul\":10189:10199   */\n      dup2\n        /* \"#utility.yul\":10186:10208   */\n      lt\n        /* \"#utility.yul\":10165:10183   */\n      0xffffffffffffffff\n        /* \"#utility.yul\":10153:10163   */\n      dup3\n        /* \"#utility.yul\":10150:10184   */\n      gt\n        /* \"#utility.yul\":10147:10209   */\n      or\n        /* \"#utility.yul\":10144:10232   */\n      iszero\n      tag_375\n      jumpi\n        /* \"#utility.yul\":10212:10230   */\n      tag_376\n      tag_106\n      jump\t// in\n    tag_376:\n        /* \"#utility.yul\":10144:10232   */\n    tag_375:\n        /* \"#utility.yul\":10252:10262   */\n      dup1\n        /* \"#utility.yul\":10248:10250   */\n      0x40\n        /* \"#utility.yul\":10241:10263   */\n      mstore\n        /* \"#utility.yul\":10031:10269   */\n      pop\n        /* \"#utility.yul\":9988:10269   */\n      pop\n      pop\n      jump\t// out\n        /* \"#utility.yul\":10275:10404   */\n    tag_244:\n        /* \"#utility.yul\":10309:10315   */\n      0x00\n        /* \"#utility.yul\":10336:10356   */\n      tag_378\n      tag_209\n      jump\t// in\n    tag_378:\n        /* \"#utility.yul\":10326:10356   */\n      swap1\n      pop\n        /* \"#utility.yul\":10365:10398   */\n      tag_379\n        /* \"#utility.yul\":10393:10397   */\n      dup3\n        /* \"#utility.yul\":10385:10391   */\n      dup3\n        /* \"#utility.yul\":10365:10398   */\n      tag_243\n      jump\t// in\n    tag_379:\n        /* \"#utility.yul\":10275:10404   */\n      swap2\n      swap1\n      pop\n      jump\t// out\n        /* \"#utility.yul\":10410:10717   */\n    tag_245:\n        /* \"#utility.yul\":10471:10475   */\n      0x00\n        /* \"#utility.yul\":10561:10579   */\n      0xffffffffffffffff\n        /* \"#utility.yul\":10553:10559   */\n      dup3\n        /* \"#utility.yul\":10550:10580   */\n      gt\n        /* \"#utility.yul\":10547:10603   */\n      iszero\n      tag_381\n      jumpi\n        /* \"#utility.yul\":10583:10601   */\n      tag_382\n      tag_106\n      jump\t// in\n    tag_382:\n        /* \"#utility.yul\":10547:10603   */\n    tag_381:\n        /* \"#utility.yul\":10621:10650   */\n      tag_383\n        /* \"#utility.yul\":10643:10649   */\n      dup3\n        /* \"#utility.yul\":10621:10650   */\n      tag_242\n      jump\t// in\n    tag_383:\n        /* \"#utility.yul\":10613:10650   */\n      swap1\n      pop\n        /* \"#utility.yul\":10705:10709   */\n      0x20\n        /* \"#utility.yul\":10699:10703   */\n      dup2\n        /* \"#utility.yul\":10695:10710   */\n      add\n        /* \"#utility.yul\":10687:10710   */\n      swap1\n      pop\n        /* \"#utility.yul\":10410:10717   */\n      swap2\n      swap1\n      pop\n      jump\t// out\n        /* \"#utility.yul\":10723:10871   */\n    tag_246:\n        /* \"#utility.yul\":10821:10827   */\n      dup3\n        /* \"#utility.yul\":10816:10819   */\n      dup2\n        /* \"#utility.yul\":10811:10814   */\n      dup4\n        /* \"#utility.yul\":10798:10828   */\n      calldatacopy\n        /* \"#utility.yul\":10862:10863   */\n      0x00\n        /* \"#utility.yul\":10853:10859   */\n      dup4\n        /* \"#utility.yul\":10848:10851   */\n      dup4\n        /* \"#utility.yul\":10844:10860   */\n      add\n        /* \"#utility.yul\":10837:10864   */\n      mstore\n        /* \"#utility.yul\":10723:10871   */\n      pop\n      pop\n      pop\n      jump\t// out\n        /* \"#utility.yul\":10877:11300   */\n    tag_247:\n        /* \"#utility.yul\":10954:10959   */\n      0x00\n        /* \"#utility.yul\":10979:11044   */\n      tag_386\n        /* \"#utility.yul\":10995:11043   */\n      tag_387\n        /* \"#utility.yul\":11036:11042   */\n      dup5\n        /* \"#utility.yul\":10995:11043   */\n      tag_245\n      jump\t// in\n    tag_387:\n        /* \"#utility.yul\":10979:11044   */\n      tag_244\n      jump\t// in\n    tag_386:\n        /* \"#utility.yul\":10970:11044   */\n      swap1\n      pop\n        /* \"#utility.yul\":11067:11073   */\n      dup3\n        /* \"#utility.yul\":11060:11065   */\n      dup2\n        /* \"#utility.yul\":11053:11074   */\n      mstore\n        /* \"#utility.yul\":11105:11109   */\n      0x20\n        /* \"#utility.yul\":11098:11103   */\n      dup2\n        /* \"#utility.yul\":11094:11110   */\n      add\n        /* \"#utility.yul\":11143:11146   */\n      dup5\n        /* \"#utility.yul\":11134:11140   */\n      dup5\n        /* \"#utility.yul\":11129:11132   */\n      dup5\n        /* \"#utility.yul\":11125:11141   */\n      add\n        /* \"#utility.yul\":11122:11147   */\n      gt\n        /* \"#utility.yul\":11119:11231   */\n      iszero\n      tag_388\n      jumpi\n        /* \"#utility.yul\":11150:11229   */\n      tag_389\n      tag_241\n      jump\t// in\n    tag_389:\n        /* \"#utility.yul\":11119:11231   */\n    tag_388:\n        /* \"#utility.yul\":11240:11294   */\n      tag_390\n        /* \"#utility.yul\":11287:11293   */\n      dup5\n        /* \"#utility.yul\":11282:11285   */\n      dup3\n        /* \"#utility.yul\":11277:11280   */\n      dup6\n        /* \"#utility.yul\":11240:11294   */\n      tag_246\n      jump\t// in\n    tag_390:\n        /* \"#utility.yul\":10960:11300   */\n      pop\n        /* \"#utility.yul\":10877:11300   */\n      swap4\n      swap3\n      pop\n      pop\n      pop\n      jump\t// out\n        /* \"#utility.yul\":11319:11657   */\n    tag_248:\n        /* \"#utility.yul\":11374:11379   */\n      0x00\n        /* \"#utility.yul\":11423:11426   */\n      dup3\n        /* \"#utility.yul\":11416:11420   */\n      0x1f\n        /* \"#utility.yul\":11408:11414   */\n      dup4\n        /* \"#utility.yul\":11404:11421   */\n      add\n        /* \"#utility.yul\":11400:11427   */\n      slt\n        /* \"#utility.yul\":11390:11512   */\n      tag_392\n      jumpi\n        /* \"#utility.yul\":11431:11510   */\n      tag_393\n      tag_219\n      jump\t// in\n    tag_393:\n        /* \"#utility.yul\":11390:11512   */\n    tag_392:\n        /* \"#utility.yul\":11548:11554   */\n      dup2\n        /* \"#utility.yul\":11535:11555   */\n      calldataload\n        /* \"#utility.yul\":11573:11651   */\n      tag_394\n        /* \"#utility.yul\":11647:11650   */\n      dup5\n        /* \"#utility.yul\":11639:11645   */\n      dup3\n        /* \"#utility.yul\":11632:11636   */\n      0x20\n        /* \"#utility.yul\":11624:11630   */\n      dup7\n        /* \"#utility.yul\":11620:11637   */\n      add\n        /* \"#utility.yul\":11573:11651   */\n      tag_247\n      jump\t// in\n    tag_394:\n        /* \"#utility.yul\":11564:11651   */\n      swap2\n      pop\n        /* \"#utility.yul\":11380:11657   */\n      pop\n        /* \"#utility.yul\":11319:11657   */\n      swap3\n      swap2\n      pop\n      pop\n      jump\t// out\n        /* \"#utility.yul\":11663:12315   */\n    tag_57:\n        /* \"#utility.yul\":11740:11746   */\n      0x00\n        /* \"#utility.yul\":11748:11754   */\n      0x00\n        /* \"#utility.yul\":11797:11799   */\n      0x40\n        /* \"#utility.yul\":11785:11794   */\n      dup4\n        /* \"#utility.yul\":11776:11783   */\n      dup6\n        /* \"#utility.yul\":11772:11795   */\n      sub\n        /* \"#utility.yul\":11768:11800   */\n      slt\n        /* \"#utility.yul\":11765:11884   */\n      iszero\n      tag_396\n      jumpi\n        /* \"#utility.yul\":11803:11882   */\n      tag_397\n      tag_210\n      jump\t// in\n    tag_397:\n        /* \"#utility.yul\":11765:11884   */\n    tag_396:\n        /* \"#utility.yul\":11951:11952   */\n      0x00\n        /* \"#utility.yul\":11940:11949   */\n      dup4\n        /* \"#utility.yul\":11936:11953   */\n      add\n        /* \"#utility.yul\":11923:11954   */\n      calldataload\n        /* \"#utility.yul\":11981:11999   */\n      0xffffffffffffffff\n        /* \"#utility.yul\":11973:11979   */\n      dup2\n        /* \"#utility.yul\":11970:12000   */\n      gt\n        /* \"#utility.yul\":11967:12084   */\n      iszero\n      tag_398\n      jumpi\n        /* \"#utility.yul\":12003:12082   */\n      tag_399\n      tag_211\n      jump\t// in\n    tag_399:\n        /* \"#utility.yul\":11967:12084   */\n    tag_398:\n        /* \"#utility.yul\":12108:12170   */\n      tag_400\n        /* \"#utility.yul\":12162:12169   */\n      dup6\n        /* \"#utility.yul\":12153:12159   */\n      dup3\n        /* \"#utility.yul\":12142:12151   */\n      dup7\n        /* \"#utility.yul\":12138:12160   */\n      add\n        /* \"#utility.yul\":12108:12170   */\n      tag_248\n      jump\t// in\n    tag_400:\n        /* \"#utility.yul\":12098:12170   */\n      swap3\n      pop\n        /* \"#utility.yul\":11894:12180   */\n      pop\n        /* \"#utility.yul\":12219:12221   */\n      0x20\n        /* \"#utility.yul\":12245:12298   */\n      tag_401\n        /* \"#utility.yul\":12290:12297   */\n      dup6\n        /* \"#utility.yul\":12281:12287   */\n      dup3\n        /* \"#utility.yul\":12270:12279   */\n      dup7\n        /* \"#utility.yul\":12266:12288   */\n      add\n        /* \"#utility.yul\":12245:12298   */\n      tag_218\n      jump\t// in\n    tag_401:\n        /* \"#utility.yul\":12235:12298   */\n      swap2\n      pop\n        /* \"#utility.yul\":12190:12308   */\n      pop\n        /* \"#utility.yul\":11663:12315   */\n      swap3\n      pop\n      swap3\n      swap1\n      pop\n      jump\t// out\n        /* \"#utility.yul\":12321:12462   */\n    tag_249:\n        /* \"#utility.yul\":12386:12395   */\n      0x00\n        /* \"#utility.yul\":12419:12456   */\n      tag_403\n        /* \"#utility.yul\":12450:12455   */\n      dup3\n        /* \"#utility.yul\":12419:12456   */\n      tag_238\n      jump\t// in\n    tag_403:\n        /* \"#utility.yul\":12406:12456   */\n      swap1\n      pop\n        /* \"#utility.yul\":12321:12462   */\n      swap2\n      swap1\n      pop\n      jump\t// out\n        /* \"#utility.yul\":12468:12629   */\n    tag_250:\n        /* \"#utility.yul\":12570:12622   */\n      tag_405\n        /* \"#utility.yul\":12616:12621   */\n      dup2\n        /* \"#utility.yul\":12570:12622   */\n      tag_249\n      jump\t// in\n    tag_405:\n        /* \"#utility.yul\":12565:12568   */\n      dup3\n        /* \"#utility.yul\":12558:12623   */\n      mstore\n        /* \"#utility.yul\":12468:12629   */\n      pop\n      pop\n      jump\t// out\n        /* \"#utility.yul\":12635:12887   */\n    tag_63:\n        /* \"#utility.yul\":12743:12747   */\n      0x00\n        /* \"#utility.yul\":12781:12783   */\n      0x20\n        /* \"#utility.yul\":12770:12779   */\n      dup3\n        /* \"#utility.yul\":12766:12784   */\n      add\n        /* \"#utility.yul\":12758:12784   */\n      swap1\n      pop\n        /* \"#utility.yul\":12794:12880   */\n      tag_407\n        /* \"#utility.yul\":12877:12878   */\n      0x00\n        /* \"#utility.yul\":12866:12875   */\n      dup4\n        /* \"#utility.yul\":12862:12879   */\n      add\n        /* \"#utility.yul\":12853:12859   */\n      dup5\n        /* \"#utility.yul\":12794:12880   */\n      tag_250\n      jump\t// in\n    tag_407:\n        /* \"#utility.yul\":12635:12887   */\n      swap3\n      swap2\n      pop\n      pop\n      jump\t// out\n        /* \"#utility.yul\":12893:12983   */\n    tag_251:\n        /* \"#utility.yul\":12927:12934   */\n      0x00\n        /* \"#utility.yul\":12970:12975   */\n      dup2\n        /* \"#utility.yul\":12963:12976   */\n      iszero\n        /* \"#utility.yul\":12956:12977   */\n      iszero\n        /* \"#utility.yul\":12945:12977   */\n      swap1\n      pop\n        /* \"#utility.yul\":12893:12983   */\n      swap2\n      swap1\n      pop\n      jump\t// out\n        /* \"#utility.yul\":12989:13098   */\n    tag_252:\n        /* \"#utility.yul\":13070:13091   */\n      tag_410\n        /* \"#utility.yul\":13085:13090   */\n      dup2\n        /* \"#utility.yul\":13070:13091   */\n      tag_251\n      jump\t// in\n    tag_410:\n        /* \"#utility.yul\":13065:13068   */\n      dup3\n        /* \"#utility.yul\":13058:13092   */\n      mstore\n        /* \"#utility.yul\":12989:13098   */\n      pop\n      pop\n      jump\t// out\n        /* \"#utility.yul\":13104:13314   */\n    tag_78:\n        /* \"#utility.yul\":13191:13195   */\n      0x00\n        /* \"#utility.yul\":13229:13231   */\n      0x20\n        /* \"#utility.yul\":13218:13227   */\n      dup3\n        /* \"#utility.yul\":13214:13232   */\n      add\n        /* \"#utility.yul\":13206:13232   */\n      swap1\n      pop\n        /* \"#utility.yul\":13242:13307   */\n      tag_412\n        /* \"#utility.yul\":13304:13305   */\n      0x00\n        /* \"#utility.yul\":13293:13302   */\n      dup4\n        /* \"#utility.yul\":13289:13306   */\n      add\n        /* \"#utility.yul\":13280:13286   */\n      dup5\n        /* \"#utility.yul\":13242:13307   */\n      tag_252\n      jump\t// in\n    tag_412:\n        /* \"#utility.yul\":13104:13314   */\n      swap3\n      swap2\n      pop\n      pop\n      jump\t// out\n        /* \"#utility.yul\":13320:13489   */\n    tag_253:\n        /* \"#utility.yul\":13404:13415   */\n      0x00\n        /* \"#utility.yul\":13438:13444   */\n      dup3\n        /* \"#utility.yul\":13433:13436   */\n      dup3\n        /* \"#utility.yul\":13426:13445   */\n      mstore\n        /* \"#utility.yul\":13478:13482   */\n      0x20\n        /* \"#utility.yul\":13473:13476   */\n      dup3\n        /* \"#utility.yul\":13469:13483   */\n      add\n        /* \"#utility.yul\":13454:13483   */\n      swap1\n      pop\n        /* \"#utility.yul\":13320:13489   */\n      swap3\n      swap2\n      pop\n      pop\n      jump\t// out\n        /* \"#utility.yul\":13495:13676   */\n    tag_254:\n        /* \"#utility.yul\":13635:13668   */\n      0x4d61726b65743a2053656c6c6572206d757374206265206f70657261746f7200\n        /* \"#utility.yul\":13631:13632   */\n      0x00\n        /* \"#utility.yul\":13623:13629   */\n      dup3\n        /* \"#utility.yul\":13619:13633   */\n      add\n        /* \"#utility.yul\":13612:13669   */\n      mstore\n        /* \"#utility.yul\":13495:13676   */\n      pop\n      jump\t// out\n        /* \"#utility.yul\":13682:14048   */\n    tag_255:\n        /* \"#utility.yul\":13824:13827   */\n      0x00\n        /* \"#utility.yul\":13845:13912   */\n      tag_416\n        /* \"#utility.yul\":13909:13911   */\n      0x1f\n        /* \"#utility.yul\":13904:13907   */\n      dup4\n        /* \"#utility.yul\":13845:13912   */\n      tag_253\n      jump\t// in\n    tag_416:\n        /* \"#utility.yul\":13838:13912   */\n      swap2\n      pop\n        /* \"#utility.yul\":13921:14014   */\n      tag_417\n        /* \"#utility.yul\":14010:14013   */\n      dup3\n        /* \"#utility.yul\":13921:14014   */\n      tag_254\n      jump\t// in\n    tag_417:\n        /* \"#utility.yul\":14039:14041   */\n      0x20\n        /* \"#utility.yul\":14034:14037   */\n      dup3\n        /* \"#utility.yul\":14030:14042   */\n      add\n        /* \"#utility.yul\":14023:14042   */\n      swap1\n      pop\n        /* \"#utility.yul\":13682:14048   */\n      swap2\n      swap1\n      pop\n      jump\t// out\n        /* \"#utility.yul\":14054:14473   */\n    tag_82:\n        /* \"#utility.yul\":14220:14224   */\n      0x00\n        /* \"#utility.yul\":14258:14260   */\n      0x20\n        /* \"#utility.yul\":14247:14256   */\n      dup3\n        /* \"#utility.yul\":14243:14261   */\n      add\n        /* \"#utility.yul\":14235:14261   */\n      swap1\n      pop\n        /* \"#utility.yul\":14307:14316   */\n      dup2\n        /* \"#utility.yul\":14301:14305   */\n      dup2\n        /* \"#utility.yul\":14297:14317   */\n      sub\n        /* \"#utility.yul\":14293:14294   */\n      0x00\n        /* \"#utility.yul\":14282:14291   */\n      dup4\n        /* \"#utility.yul\":14278:14295   */\n      add\n        /* \"#utility.yul\":14271:14318   */\n      mstore\n        /* \"#utility.yul\":14335:14466   */\n      tag_419\n        /* \"#utility.yul\":14461:14465   */\n      dup2\n        /* \"#utility.yul\":14335:14466   */\n      tag_255\n      jump\t// in\n    tag_419:\n        /* \"#utility.yul\":14327:14466   */\n      swap1\n      pop\n        /* \"#utility.yul\":14054:14473   */\n      swap2\n      swap1\n      pop\n      jump\t// out\n        /* \"#utility.yul\":14479:14659   */\n    tag_256:\n        /* \"#utility.yul\":14619:14651   */\n      0x4d61726b65743a20546f6b656e204944206973206e6f74206c69737465640000\n        /* \"#utility.yul\":14615:14616   */\n      0x00\n        /* \"#utility.yul\":14607:14613   */\n      dup3\n        /* \"#utility.yul\":14603:14617   */\n      add\n        /* \"#utility.yul\":14596:14652   */\n      mstore\n        /* \"#utility.yul\":14479:14659   */\n      pop\n      jump\t// out\n        /* \"#utility.yul\":14665:15031   */\n    tag_257:\n        /* \"#utility.yul\":14807:14810   */\n      0x00\n        /* \"#utility.yul\":14828:14895   */\n      tag_422\n        /* \"#utility.yul\":14892:14894   */\n      0x1e\n        /* \"#utility.yul\":14887:14890   */\n      dup4\n        /* \"#utility.yul\":14828:14895   */\n      tag_253\n      jump\t// in\n    tag_422:\n        /* \"#utility.yul\":14821:14895   */\n      swap2\n      pop\n        /* \"#utility.yul\":14904:14997   */\n      tag_423\n        /* \"#utility.yul\":14993:14996   */\n      dup3\n        /* \"#utility.yul\":14904:14997   */\n      tag_256\n      jump\t// in\n    tag_423:\n        /* \"#utility.yul\":15022:15024   */\n      0x20\n        /* \"#utility.yul\":15017:15020   */\n      dup3\n        /* \"#utility.yul\":15013:15025   */\n      add\n        /* \"#utility.yul\":15006:15025   */\n      swap1\n      pop\n        /* \"#utility.yul\":14665:15031   */\n      swap2\n      swap1\n      pop\n      jump\t// out\n        /* \"#utility.yul\":15037:15456   */\n    tag_90:\n        /* \"#utility.yul\":15203:15207   */\n      0x00\n        /* \"#utility.yul\":15241:15243   */\n      0x20\n        /* \"#utility.yul\":15230:15239   */\n      dup3\n        /* \"#utility.yul\":15226:15244   */\n      add\n        /* \"#utility.yul\":15218:15244   */\n      swap1\n      pop\n        /* \"#utility.yul\":15290:15299   */\n      dup2\n        /* \"#utility.yul\":15284:15288   */\n      dup2\n        /* \"#utility.yul\":15280:15300   */\n      sub\n        /* \"#utility.yul\":15276:15277   */\n      0x00\n        /* \"#utility.yul\":15265:15274   */\n      dup4\n        /* \"#utility.yul\":15261:15278   */\n      add\n        /* \"#utility.yul\":15254:15301   */\n      mstore\n        /* \"#utility.yul\":15318:15449   */\n      tag_425\n        /* \"#utility.yul\":15444:15448   */\n      dup2\n        /* \"#utility.yul\":15318:15449   */\n      tag_257\n      jump\t// in\n    tag_425:\n        /* \"#utility.yul\":15310:15449   */\n      swap1\n      pop\n        /* \"#utility.yul\":15037:15456   */\n      swap2\n      swap1\n      pop\n      jump\t// out\n        /* \"#utility.yul\":15462:15640   */\n    tag_258:\n        /* \"#utility.yul\":15602:15632   */\n      0x4d61726b65743a2053656e646572206973206e6f742073656c6c657200000000\n        /* \"#utility.yul\":15598:15599   */\n      0x00\n        /* \"#utility.yul\":15590:15596   */\n      dup3\n        /* \"#utility.yul\":15586:15600   */\n      add\n        /* \"#utility.yul\":15579:15633   */\n      mstore\n        /* \"#utility.yul\":15462:15640   */\n      pop\n      jump\t// out\n        /* \"#utility.yul\":15646:16012   */\n    tag_259:\n        /* \"#utility.yul\":15788:15791   */\n      0x00\n        /* \"#utility.yul\":15809:15876   */\n      tag_428\n        /* \"#utility.yul\":15873:15875   */\n      0x1c\n        /* \"#utility.yul\":15868:15871   */\n      dup4\n        /* \"#utility.yul\":15809:15876   */\n      tag_253\n      jump\t// in\n    tag_428:\n        /* \"#utility.yul\":15802:15876   */\n      swap2\n      pop\n        /* \"#utility.yul\":15885:15978   */\n      tag_429\n        /* \"#utility.yul\":15974:15977   */\n      dup3\n        /* \"#utility.yul\":15885:15978   */\n      tag_258\n      jump\t// in\n    tag_429:\n        /* \"#utility.yul\":16003:16005   */\n      0x20\n        /* \"#utility.yul\":15998:16001   */\n      dup3\n        /* \"#utility.yul\":15994:16006   */\n      add\n        /* \"#utility.yul\":15987:16006   */\n      swap1\n      pop\n        /* \"#utility.yul\":15646:16012   */\n      swap2\n      swap1\n      pop\n      jump\t// out\n        /* \"#utility.yul\":16018:16437   */\n    tag_93:\n        /* \"#utility.yul\":16184:16188   */\n      0x00\n        /* \"#utility.yul\":16222:16224   */\n      0x20\n        /* \"#utility.yul\":16211:16220   */\n      dup3\n        /* \"#utility.yul\":16207:16225   */\n      add\n        /* \"#utility.yul\":16199:16225   */\n      swap1\n      pop\n        /* \"#utility.yul\":16271:16280   */\n      dup2\n        /* \"#utility.yul\":16265:16269   */\n      dup2\n        /* \"#utility.yul\":16261:16281   */\n      sub\n        /* \"#utility.yul\":16257:16258   */\n      0x00\n        /* \"#utility.yul\":16246:16255   */\n      dup4\n        /* \"#utility.yul\":16242:16259   */\n      add\n        /* \"#utility.yul\":16235:16282   */\n      mstore\n        /* \"#utility.yul\":16299:16430   */\n      tag_431\n        /* \"#utility.yul\":16425:16429   */\n      dup2\n        /* \"#utility.yul\":16299:16430   */\n      tag_259\n      jump\t// in\n    tag_431:\n        /* \"#utility.yul\":16291:16430   */\n      swap1\n      pop\n        /* \"#utility.yul\":16018:16437   */\n      swap2\n      swap1\n      pop\n      jump\t// out\n        /* \"#utility.yul\":16443:16885   */\n    tag_95:\n        /* \"#utility.yul\":16592:16596   */\n      0x00\n        /* \"#utility.yul\":16630:16632   */\n      0x60\n        /* \"#utility.yul\":16619:16628   */\n      dup3\n        /* \"#utility.yul\":16615:16633   */\n      add\n        /* \"#utility.yul\":16607:16633   */\n      swap1\n      pop\n        /* \"#utility.yul\":16643:16714   */\n      tag_433\n        /* \"#utility.yul\":16711:16712   */\n      0x00\n        /* \"#utility.yul\":16700:16709   */\n      dup4\n        /* \"#utility.yul\":16696:16713   */\n      add\n        /* \"#utility.yul\":16687:16693   */\n      dup7\n        /* \"#utility.yul\":16643:16714   */\n      tag_225\n      jump\t// in\n    tag_433:\n        /* \"#utility.yul\":16724:16796   */\n      tag_434\n        /* \"#utility.yul\":16792:16794   */\n      0x20\n        /* \"#utility.yul\":16781:16790   */\n      dup4\n        /* \"#utility.yul\":16777:16795   */\n      add\n        /* \"#utility.yul\":16768:16774   */\n      dup6\n        /* \"#utility.yul\":16724:16796   */\n      tag_225\n      jump\t// in\n    tag_434:\n        /* \"#utility.yul\":16806:16878   */\n      tag_435\n        /* \"#utility.yul\":16874:16876   */\n      0x40\n        /* \"#utility.yul\":16863:16872   */\n      dup4\n        /* \"#utility.yul\":16859:16877   */\n      add\n        /* \"#utility.yul\":16850:16856   */\n      dup5\n        /* \"#utility.yul\":16806:16878   */\n      tag_226\n      jump\t// in\n    tag_435:\n        /* \"#utility.yul\":16443:16885   */\n      swap5\n      swap4\n      pop\n      pop\n      pop\n      pop\n      jump\t// out\n        /* \"#utility.yul\":16891:17223   */\n    tag_102:\n        /* \"#utility.yul\":17012:17016   */\n      0x00\n        /* \"#utility.yul\":17050:17052   */\n      0x40\n        /* \"#utility.yul\":17039:17048   */\n      dup3\n        /* \"#utility.yul\":17035:17053   */\n      add\n        /* \"#utility.yul\":17027:17053   */\n      swap1\n      pop\n        /* \"#utility.yul\":17063:17134   */\n      tag_437\n        /* \"#utility.yul\":17131:17132   */\n      0x00\n        /* \"#utility.yul\":17120:17129   */\n      dup4\n        /* \"#utility.yul\":17116:17133   */\n      add\n        /* \"#utility.yul\":17107:17113   */\n      dup6\n        /* \"#utility.yul\":17063:17134   */\n      tag_225\n      jump\t// in\n    tag_437:\n        /* \"#utility.yul\":17144:17216   */\n      tag_438\n        /* \"#utility.yul\":17212:17214   */\n      0x20\n        /* \"#utility.yul\":17201:17210   */\n      dup4\n        /* \"#utility.yul\":17197:17215   */\n      add\n        /* \"#utility.yul\":17188:17194   */\n      dup5\n        /* \"#utility.yul\":17144:17216   */\n      tag_226\n      jump\t// in\n    tag_438:\n        /* \"#utility.yul\":16891:17223   */\n      swap4\n      swap3\n      pop\n      pop\n      pop\n      jump\t// out\n        /* \"#utility.yul\":17229:17409   */\n    tag_116:\n        /* \"#utility.yul\":17277:17354   */\n      0x4e487b7100000000000000000000000000000000000000000000000000000000\n        /* \"#utility.yul\":17274:17275   */\n      0x00\n        /* \"#utility.yul\":17267:17355   */\n      mstore\n        /* \"#utility.yul\":17374:17378   */\n      0x32\n        /* \"#utility.yul\":17371:17372   */\n      0x04\n        /* \"#utility.yul\":17364:17379   */\n      mstore\n        /* \"#utility.yul\":17398:17402   */\n      0x24\n        /* \"#utility.yul\":17395:17396   */\n      0x00\n        /* \"#utility.yul\":17388:17403   */\n      revert\n        /* \"#utility.yul\":17415:17595   */\n    tag_260:\n        /* \"#utility.yul\":17463:17540   */\n      0x4e487b7100000000000000000000000000000000000000000000000000000000\n        /* \"#utility.yul\":17460:17461   */\n      0x00\n        /* \"#utility.yul\":17453:17541   */\n      mstore\n        /* \"#utility.yul\":17560:17564   */\n      0x11\n        /* \"#utility.yul\":17557:17558   */\n      0x04\n        /* \"#utility.yul\":17550:17565   */\n      mstore\n        /* \"#utility.yul\":17584:17588   */\n      0x24\n        /* \"#utility.yul\":17581:17582   */\n      0x00\n        /* \"#utility.yul\":17574:17589   */\n      revert\n        /* \"#utility.yul\":17601:17834   */\n    tag_125:\n        /* \"#utility.yul\":17640:17643   */\n      0x00\n        /* \"#utility.yul\":17663:17687   */\n      tag_442\n        /* \"#utility.yul\":17681:17686   */\n      dup3\n        /* \"#utility.yul\":17663:17687   */\n      tag_216\n      jump\t// in\n    tag_442:\n        /* \"#utility.yul\":17654:17687   */\n      swap2\n      pop\n        /* \"#utility.yul\":17709:17775   */\n      0xffffffffffffffffffffffffffffffffffffffffffffffffffffffffffffffff\n        /* \"#utility.yul\":17702:17707   */\n      dup3\n        /* \"#utility.yul\":17699:17776   */\n      sub\n        /* \"#utility.yul\":17696:17799   */\n      tag_443\n      jumpi\n        /* \"#utility.yul\":17779:17797   */\n      tag_444\n      tag_260\n      jump\t// in\n    tag_444:\n        /* \"#utility.yul\":17696:17799   */\n    tag_443:\n        /* \"#utility.yul\":17826:17827   */\n      0x01\n        /* \"#utility.yul\":17819:17824   */\n      dup3\n        /* \"#utility.yul\":17815:17828   */\n      add\n        /* \"#utility.yul\":17808:17828   */\n      swap1\n      pop\n        /* \"#utility.yul\":17601:17834   */\n      swap2\n      swap1\n      pop\n      jump\t// out\n        /* \"#utility.yul\":17840:18066   */\n    tag_261:\n        /* \"#utility.yul\":17980:18014   */\n      0x4d61726b65743a205072696365206d7573742062652067726561746572207468\n        /* \"#utility.yul\":17976:17977   */\n      0x00\n        /* \"#utility.yul\":17968:17974   */\n      dup3\n        /* \"#utility.yul\":17964:17978   */\n      add\n        /* \"#utility.yul\":17957:18015   */\n      mstore\n        /* \"#utility.yul\":18049:18058   */\n      0x616e207a65726f00000000000000000000000000000000000000000000000000\n        /* \"#utility.yul\":18044:18046   */\n      0x20\n        /* \"#utility.yul\":18036:18042   */\n      dup3\n        /* \"#utility.yul\":18032:18047   */\n      add\n        /* \"#utility.yul\":18025:18059   */\n      mstore\n        /* \"#utility.yul\":17840:18066   */\n      pop\n      jump\t// out\n        /* \"#utility.yul\":18072:18438   */\n    tag_262:\n        /* \"#utility.yul\":18214:18217   */\n      0x00\n        /* \"#utility.yul\":18235:18302   */\n      tag_447\n        /* \"#utility.yul\":18299:18301   */\n      0x27\n        /* \"#utility.yul\":18294:18297   */\n      dup4\n        /* \"#utility.yul\":18235:18302   */\n      tag_253\n      jump\t// in\n    tag_447:\n        /* \"#utility.yul\":18228:18302   */\n      swap2\n      pop\n        /* \"#utility.yul\":18311:18404   */\n      tag_448\n        /* \"#utility.yul\":18400:18403   */\n      dup3\n        /* \"#utility.yul\":18311:18404   */\n      tag_261\n      jump\t// in\n    tag_448:\n        /* \"#utility.yul\":18429:18431   */\n      0x40\n        /* \"#utility.yul\":18424:18427   */\n      dup3\n        /* \"#utility.yul\":18420:18432   */\n      add\n        /* \"#utility.yul\":18413:18432   */\n      swap1\n      pop\n        /* \"#utility.yul\":18072:18438   */\n      swap2\n      swap1\n      pop\n      jump\t// out\n        /* \"#utility.yul\":18444:18863   */\n    tag_149:\n        /* \"#utility.yul\":18610:18614   */\n      0x00\n        /* \"#utility.yul\":18648:18650   */\n      0x20\n        /* \"#utility.yul\":18637:18646   */\n      dup3\n        /* \"#utility.yul\":18633:18651   */\n      add\n        /* \"#utility.yul\":18625:18651   */\n      swap1\n      pop\n        /* \"#utility.yul\":18697:18706   */\n      dup2\n        /* \"#utility.yul\":18691:18695   */\n      dup2\n        /* \"#utility.yul\":18687:18707   */\n      sub\n        /* \"#utility.yul\":18683:18684   */\n      0x00\n        /* \"#utility.yul\":18672:18681   */\n      dup4\n        /* \"#utility.yul\":18668:18685   */\n      add\n        /* \"#utility.yul\":18661:18708   */\n      mstore\n        /* \"#utility.yul\":18725:18856   */\n      tag_450\n        /* \"#utility.yul\":18851:18855   */\n      dup2\n        /* \"#utility.yul\":18725:18856   */\n      tag_262\n      jump\t// in\n    tag_450:\n        /* \"#utility.yul\":18717:18856   */\n      swap1\n      pop\n        /* \"#utility.yul\":18444:18863   */\n      swap2\n      swap1\n      pop\n      jump\t// out\n        /* \"#utility.yul\":18869:19422   */\n    tag_154:\n        /* \"#utility.yul\":19046:19050   */\n      0x00\n        /* \"#utility.yul\":19084:19087   */\n      0x80\n        /* \"#utility.yul\":19073:19082   */\n      dup3\n        /* \"#utility.yul\":19069:19088   */\n      add\n        /* \"#utility.yul\":19061:19088   */\n      swap1\n      pop\n        /* \"#utility.yul\":19098:19169   */\n      tag_452\n        /* \"#utility.yul\":19166:19167   */\n      0x00\n        /* \"#utility.yul\":19155:19164   */\n      dup4\n        /* \"#utility.yul\":19151:19168   */\n      add\n        /* \"#utility.yul\":19142:19148   */\n      dup8\n        /* \"#utility.yul\":19098:19169   */\n      tag_225\n      jump\t// in\n    tag_452:\n        /* \"#utility.yul\":19179:19251   */\n      tag_453\n        /* \"#utility.yul\":19247:19249   */\n      0x20\n        /* \"#utility.yul\":19236:19245   */\n      dup4\n        /* \"#utility.yul\":19232:19250   */\n      add\n        /* \"#utility.yul\":19223:19229   */\n      dup7\n        /* \"#utility.yul\":19179:19251   */\n      tag_226\n      jump\t// in\n    tag_453:\n        /* \"#utility.yul\":19261:19333   */\n      tag_454\n        /* \"#utility.yul\":19329:19331   */\n      0x40\n        /* \"#utility.yul\":19318:19327   */\n      dup4\n        /* \"#utility.yul\":19314:19332   */\n      add\n        /* \"#utility.yul\":19305:19311   */\n      dup6\n        /* \"#utility.yul\":19261:19333   */\n      tag_226\n      jump\t// in\n    tag_454:\n        /* \"#utility.yul\":19343:19415   */\n      tag_455\n        /* \"#utility.yul\":19411:19413   */\n      0x60\n        /* \"#utility.yul\":19400:19409   */\n      dup4\n        /* \"#utility.yul\":19396:19414   */\n      add\n        /* \"#utility.yul\":19387:19393   */\n      dup5\n        /* \"#utility.yul\":19343:19415   */\n      tag_226\n      jump\t// in\n    tag_455:\n        /* \"#utility.yul\":18869:19422   */\n      swap6\n      swap5\n      pop\n      pop\n      pop\n      pop\n      pop\n      jump\t// out\n        /* \"#utility.yul\":19428:19619   */\n    tag_157:\n        /* \"#utility.yul\":19468:19471   */\n      0x00\n        /* \"#utility.yul\":19487:19507   */\n      tag_457\n        /* \"#utility.yul\":19505:19506   */\n      dup3\n        /* \"#utility.yul\":19487:19507   */\n      tag_216\n      jump\t// in\n    tag_457:\n        /* \"#utility.yul\":19482:19507   */\n      swap2\n      pop\n        /* \"#utility.yul\":19521:19541   */\n      tag_458\n        /* \"#utility.yul\":19539:19540   */\n      dup4\n        /* \"#utility.yul\":19521:19541   */\n      tag_216\n      jump\t// in\n    tag_458:\n        /* \"#utility.yul\":19516:19541   */\n      swap3\n      pop\n        /* \"#utility.yul\":19564:19565   */\n      dup3\n        /* \"#utility.yul\":19561:19562   */\n      dup3\n        /* \"#utility.yul\":19557:19566   */\n      add\n        /* \"#utility.yul\":19550:19566   */\n      swap1\n      pop\n        /* \"#utility.yul\":19585:19588   */\n      dup1\n        /* \"#utility.yul\":19582:19583   */\n      dup3\n        /* \"#utility.yul\":19579:19589   */\n      gt\n        /* \"#utility.yul\":19576:19612   */\n      iszero\n      tag_459\n      jumpi\n        /* \"#utility.yul\":19592:19610   */\n      tag_460\n      tag_260\n      jump\t// in\n    tag_460:\n        /* \"#utility.yul\":19576:19612   */\n    tag_459:\n        /* \"#utility.yul\":19428:19619   */\n      swap3\n      swap2\n      pop\n      pop\n      jump\t// out\n        /* \"#utility.yul\":19625:19801   */\n    tag_263:\n        /* \"#utility.yul\":19765:19793   */\n      0x4d61726b65743a20746f55696e743235365f6f766572666c6f77000000000000\n        /* \"#utility.yul\":19761:19762   */\n      0x00\n        /* \"#utility.yul\":19753:19759   */\n      dup3\n        /* \"#utility.yul\":19749:19763   */\n      add\n        /* \"#utility.yul\":19742:19794   */\n      mstore\n        /* \"#utility.yul\":19625:19801   */\n      pop\n      jump\t// out\n        /* \"#utility.yul\":19807:20173   */\n    tag_264:\n        /* \"#utility.yul\":19949:19952   */\n      0x00\n        /* \"#utility.yul\":19970:20037   */\n      tag_463\n        /* \"#utility.yul\":20034:20036   */\n      0x1a\n        /* \"#utility.yul\":20029:20032   */\n      dup4\n        /* \"#utility.yul\":19970:20037   */\n      tag_253\n      jump\t// in\n    tag_463:\n        /* \"#utility.yul\":19963:20037   */\n      swap2\n      pop\n        /* \"#utility.yul\":20046:20139   */\n      tag_464\n        /* \"#utility.yul\":20135:20138   */\n      dup3\n        /* \"#utility.yul\":20046:20139   */\n      tag_263\n      jump\t// in\n    tag_464:\n        /* \"#utility.yul\":20164:20166   */\n      0x20\n        /* \"#utility.yul\":20159:20162   */\n      dup3\n        /* \"#utility.yul\":20155:20167   */\n      add\n        /* \"#utility.yul\":20148:20167   */\n      swap1\n      pop\n        /* \"#utility.yul\":19807:20173   */\n      swap2\n      swap1\n      pop\n      jump\t// out\n        /* \"#utility.yul\":20179:20598   */\n    tag_160:\n        /* \"#utility.yul\":20345:20349   */\n      0x00\n        /* \"#utility.yul\":20383:20385   */\n      0x20\n        /* \"#utility.yul\":20372:20381   */\n      dup3\n        /* \"#utility.yul\":20368:20386   */\n      add\n        /* \"#utility.yul\":20360:20386   */\n      swap1\n      pop\n        /* \"#utility.yul\":20432:20441   */\n      dup2\n        /* \"#utility.yul\":20426:20430   */\n      dup2\n        /* \"#utility.yul\":20422:20442   */\n      sub\n        /* \"#utility.yul\":20418:20419   */\n      0x00\n        /* \"#utility.yul\":20407:20416   */\n      dup4\n        /* \"#utility.yul\":20403:20420   */\n      add\n        /* \"#utility.yul\":20396:20443   */\n      mstore\n        /* \"#utility.yul\":20460:20591   */\n      tag_466\n        /* \"#utility.yul\":20586:20590   */\n      dup2\n        /* \"#utility.yul\":20460:20591   */\n      tag_264\n      jump\t// in\n    tag_466:\n        /* \"#utility.yul\":20452:20591   */\n      swap1\n      pop\n        /* \"#utility.yul\":20179:20598   */\n      swap2\n      swap1\n      pop\n      jump\t// out\n        /* \"#utility.yul\":20604:20783   */\n    tag_265:\n        /* \"#utility.yul\":20744:20775   */\n      0x4d61726b65743a20746f55696e743235365f6f75744f66426f756e6473000000\n        /* \"#utility.yul\":20740:20741   */\n      0x00\n        /* \"#utility.yul\":20732:20738   */\n      dup3\n        /* \"#utility.yul\":20728:20742   */\n      add\n        /* \"#utility.yul\":20721:20776   */\n      mstore\n        /* \"#utility.yul\":20604:20783   */\n      pop\n      jump\t// out\n        /* \"#utility.yul\":20789:21155   */\n    tag_266:\n        /* \"#utility.yul\":20931:20934   */\n      0x00\n        /* \"#utility.yul\":20952:21019   */\n      tag_469\n        /* \"#utility.yul\":21016:21018   */\n      0x1d\n        /* \"#utility.yul\":21011:21014   */\n      dup4\n        /* \"#utility.yul\":20952:21019   */\n      tag_253\n      jump\t// in\n    tag_469:\n        /* \"#utility.yul\":20945:21019   */\n      swap2\n      pop\n        /* \"#utility.yul\":21028:21121   */\n      tag_470\n        /* \"#utility.yul\":21117:21120   */\n      dup3\n        /* \"#utility.yul\":21028:21121   */\n      tag_265\n      jump\t// in\n    tag_470:\n        /* \"#utility.yul\":21146:21148   */\n      0x20\n        /* \"#utility.yul\":21141:21144   */\n      dup3\n        /* \"#utility.yul\":21137:21149   */\n      add\n        /* \"#utility.yul\":21130:21149   */\n      swap1\n      pop\n        /* \"#utility.yul\":20789:21155   */\n      swap2\n      swap1\n      pop\n      jump\t// out\n        /* \"#utility.yul\":21161:21580   */\n    tag_164:\n        /* \"#utility.yul\":21327:21331   */\n      0x00\n        /* \"#utility.yul\":21365:21367   */\n      0x20\n        /* \"#utility.yul\":21354:21363   */\n      dup3\n        /* \"#utility.yul\":21350:21368   */\n      add\n        /* \"#utility.yul\":21342:21368   */\n      swap1\n      pop\n        /* \"#utility.yul\":21414:21423   */\n      dup2\n        /* \"#utility.yul\":21408:21412   */\n      dup2\n        /* \"#utility.yul\":21404:21424   */\n      sub\n        /* \"#utility.yul\":21400:21401   */\n      0x00\n        /* \"#utility.yul\":21389:21398   */\n      dup4\n        /* \"#utility.yul\":21385:21402   */\n      add\n        /* \"#utility.yul\":21378:21425   */\n      mstore\n        /* \"#utility.yul\":21442:21573   */\n      tag_472\n        /* \"#utility.yul\":21568:21572   */\n      dup2\n        /* \"#utility.yul\":21442:21573   */\n      tag_266\n      jump\t// in\n    tag_472:\n        /* \"#utility.yul\":21434:21573   */\n      swap1\n      pop\n        /* \"#utility.yul\":21161:21580   */\n      swap2\n      swap1\n      pop\n      jump\t// out\n        /* \"#utility.yul\":21586:21702   */\n    tag_267:\n        /* \"#utility.yul\":21656:21677   */\n      tag_474\n        /* \"#utility.yul\":21671:21676   */\n      dup2\n        /* \"#utility.yul\":21656:21677   */\n      tag_251\n      jump\t// in\n    tag_474:\n        /* \"#utility.yul\":21649:21654   */\n      dup2\n        /* \"#utility.yul\":21646:21678   */\n      eq\n        /* \"#utility.yul\":21636:21696   */\n      tag_475\n      jumpi\n        /* \"#utility.yul\":21692:21693   */\n      0x00\n        /* \"#utility.yul\":21689:21690   */\n      0x00\n        /* \"#utility.yul\":21682:21694   */\n      revert\n        /* \"#utility.yul\":21636:21696   */\n    tag_475:\n        /* \"#utility.yul\":21586:21702   */\n      pop\n      jump\t// out\n        /* \"#utility.yul\":21708:21845   */\n    tag_268:\n        /* \"#utility.yul\":21762:21767   */\n      0x00\n        /* \"#utility.yul\":21793:21799   */\n      dup2\n        /* \"#utility.yul\":21787:21800   */\n      mload\n        /* \"#utility.yul\":21778:21800   */\n      swap1\n      pop\n        /* \"#utility.yul\":21809:21839   */\n      tag_477\n        /* \"#utility.yul\":21833:21838   */\n      dup2\n        /* \"#utility.yul\":21809:21839   */\n      tag_267\n      jump\t// in\n    tag_477:\n        /* \"#utility.yul\":21708:21845   */\n      swap3\n      swap2\n      pop\n      pop\n      jump\t// out\n        /* \"#utility.yul\":21851:22196   */\n    tag_173:\n        /* \"#utility.yul\":21918:21924   */\n      0x00\n        /* \"#utility.yul\":21967:21969   */\n      0x20\n        /* \"#utility.yul\":21955:21964   */\n      dup3\n        /* \"#utility.yul\":21946:21953   */\n      dup5\n        /* \"#utility.yul\":21942:21965   */\n      sub\n        /* \"#utility.yul\":21938:21970   */\n      slt\n        /* \"#utility.yul\":21935:22054   */\n      iszero\n      tag_479\n      jumpi\n        /* \"#utility.yul\":21973:22052   */\n      tag_480\n      tag_210\n      jump\t// in\n    tag_480:\n        /* \"#utility.yul\":21935:22054   */\n    tag_479:\n        /* \"#utility.yul\":22093:22094   */\n      0x00\n        /* \"#utility.yul\":22118:22179   */\n      tag_481\n        /* \"#utility.yul\":22171:22178   */\n      dup5\n        /* \"#utility.yul\":22162:22168   */\n      dup3\n        /* \"#utility.yul\":22151:22160   */\n      dup6\n        /* \"#utility.yul\":22147:22169   */\n      add\n        /* \"#utility.yul\":22118:22179   */\n      tag_268\n      jump\t// in\n    tag_481:\n        /* \"#utility.yul\":22108:22179   */\n      swap2\n      pop\n        /* \"#utility.yul\":22064:22189   */\n      pop\n        /* \"#utility.yul\":21851:22196   */\n      swap3\n      swap2\n      pop\n      pop\n      jump\t// out\n        /* \"#utility.yul\":22202:22426   */\n    tag_269:\n        /* \"#utility.yul\":22342:22376   */\n      0x4d61726b65743a204552433230207472616e73666572206e6f74207375636365\n        /* \"#utility.yul\":22338:22339   */\n      0x00\n        /* \"#utility.yul\":22330:22336   */\n      dup3\n        /* \"#utility.yul\":22326:22340   */\n      add\n        /* \"#utility.yul\":22319:22377   */\n      mstore\n        /* \"#utility.yul\":22411:22418   */\n      0x737366756c000000000000000000000000000000000000000000000000000000\n        /* \"#utility.yul\":22406:22408   */\n      0x20\n        /* \"#utility.yul\":22398:22404   */\n      dup3\n        /* \"#utility.yul\":22394:22409   */\n      add\n        /* \"#utility.yul\":22387:22419   */\n      mstore\n        /* \"#utility.yul\":22202:22426   */\n      pop\n      jump\t// out\n        /* \"#utility.yul\":22432:22798   */\n    tag_270:\n        /* \"#utility.yul\":22574:22577   */\n      0x00\n        /* \"#utility.yul\":22595:22662   */\n      tag_484\n        /* \"#utility.yul\":22659:22661   */\n      0x25\n        /* \"#utility.yul\":22654:22657   */\n      dup4\n        /* \"#utility.yul\":22595:22662   */\n      tag_253\n      jump\t// in\n    tag_484:\n        /* \"#utility.yul\":22588:22662   */\n      swap2\n      pop\n        /* \"#utility.yul\":22671:22764   */\n      tag_485\n        /* \"#utility.yul\":22760:22763   */\n      dup3\n        /* \"#utility.yul\":22671:22764   */\n      tag_269\n      jump\t// in\n    tag_485:\n        /* \"#utility.yul\":22789:22791   */\n      0x40\n        /* \"#utility.yul\":22784:22787   */\n      dup3\n        /* \"#utility.yul\":22780:22792   */\n      add\n        /* \"#utility.yul\":22773:22792   */\n      swap1\n      pop\n        /* \"#utility.yul\":22432:22798   */\n      swap2\n      swap1\n      pop\n      jump\t// out\n        /* \"#utility.yul\":22804:23223   */\n    tag_176:\n        /* \"#utility.yul\":22970:22974   */\n      0x00\n        /* \"#utility.yul\":23008:23010   */\n      0x20\n        /* \"#utility.yul\":22997:23006   */\n      dup3\n        /* \"#utility.yul\":22993:23011   */\n      add\n        /* \"#utility.yul\":22985:23011   */\n      swap1\n      pop\n        /* \"#utility.yul\":23057:23066   */\n      dup2\n        /* \"#utility.yul\":23051:23055   */\n      dup2\n        /* \"#utility.yul\":23047:23067   */\n      sub\n        /* \"#utility.yul\":23043:23044   */\n      0x00\n        /* \"#utility.yul\":23032:23041   */\n      dup4\n        /* \"#utility.yul\":23028:23045   */\n      add\n        /* \"#utility.yul\":23021:23068   */\n      mstore\n        /* \"#utility.yul\":23085:23216   */\n      tag_487\n        /* \"#utility.yul\":23211:23215   */\n      dup2\n        /* \"#utility.yul\":23085:23216   */\n      tag_270\n      jump\t// in\n    tag_487:\n        /* \"#utility.yul\":23077:23216   */\n      swap1\n      pop\n        /* \"#utility.yul\":22804:23223   */\n      swap2\n      swap1\n      pop\n      jump\t// out\n        /* \"#utility.yul\":23229:23782   */\n    tag_183:\n        /* \"#utility.yul\":23406:23410   */\n      0x00\n        /* \"#utility.yul\":23444:23447   */\n      0x80\n        /* \"#utility.yul\":23433:23442   */\n      dup3\n        /* \"#utility.yul\":23429:23448   */\n      add\n        /* \"#utility.yul\":23421:23448   */\n      swap1\n      pop\n        /* \"#utility.yul\":23458:23529   */\n      tag_489\n        /* \"#utility.yul\":23526:23527   */\n      0x00\n        /* \"#utility.yul\":23515:23524   */\n      dup4\n        /* \"#utility.yul\":23511:23528   */\n      add\n        /* \"#utility.yul\":23502:23508   */\n      dup8\n        /* \"#utility.yul\":23458:23529   */\n      tag_225\n      jump\t// in\n    tag_489:\n        /* \"#utility.yul\":23539:23611   */\n      tag_490\n        /* \"#utility.yul\":23607:23609   */\n      0x20\n        /* \"#utility.yul\":23596:23605   */\n      dup4\n        /* \"#utility.yul\":23592:23610   */\n      add\n        /* \"#utility.yul\":23583:23589   */\n      dup7\n        /* \"#utility.yul\":23539:23611   */\n      tag_225\n      jump\t// in\n    tag_490:\n        /* \"#utility.yul\":23621:23693   */\n      tag_491\n        /* \"#utility.yul\":23689:23691   */\n      0x40\n        /* \"#utility.yul\":23678:23687   */\n      dup4\n        /* \"#utility.yul\":23674:23692   */\n      add\n        /* \"#utility.yul\":23665:23671   */\n      dup6\n        /* \"#utility.yul\":23621:23693   */\n      tag_226\n      jump\t// in\n    tag_491:\n        /* \"#utility.yul\":23703:23775   */\n      tag_492\n        /* \"#utility.yul\":23771:23773   */\n      0x60\n        /* \"#utility.yul\":23760:23769   */\n      dup4\n        /* \"#utility.yul\":23756:23774   */\n      add\n        /* \"#utility.yul\":23747:23753   */\n      dup5\n        /* \"#utility.yul\":23703:23775   */\n      tag_226\n      jump\t// in\n    tag_492:\n        /* \"#utility.yul\":23229:23782   */\n      swap6\n      swap5\n      pop\n      pop\n      pop\n      pop\n      pop\n      jump\t// out\n        /* \"#utility.yul\":23788:23982   */\n    tag_194:\n        /* \"#utility.yul\":23828:23832   */\n      0x00\n        /* \"#utility.yul\":23848:23868   */\n      tag_494\n        /* \"#utility.yul\":23866:23867   */\n      dup3\n        /* \"#utility.yul\":23848:23868   */\n      tag_216\n      jump\t// in\n    tag_494:\n        /* \"#utility.yul\":23843:23868   */\n      swap2\n      pop\n        /* \"#utility.yul\":23882:23902   */\n      tag_495\n        /* \"#utility.yul\":23900:23901   */\n      dup4\n        /* \"#utility.yul\":23882:23902   */\n      tag_216\n      jump\t// in\n    tag_495:\n        /* \"#utility.yul\":23877:23902   */\n      swap3\n      pop\n        /* \"#utility.yul\":23926:23927   */\n      dup3\n        /* \"#utility.yul\":23923:23924   */\n      dup3\n        /* \"#utility.yul\":23919:23928   */\n      sub\n        /* \"#utility.yul\":23911:23928   */\n      swap1\n      pop\n        /* \"#utility.yul\":23950:23951   */\n      dup2\n        /* \"#utility.yul\":23944:23948   */\n      dup2\n        /* \"#utility.yul\":23941:23952   */\n      gt\n        /* \"#utility.yul\":23938:23975   */\n      iszero\n      tag_496\n      jumpi\n        /* \"#utility.yul\":23955:23973   */\n      tag_497\n      tag_260\n      jump\t// in\n    tag_497:\n        /* \"#utility.yul\":23938:23975   */\n    tag_496:\n        /* \"#utility.yul\":23788:23982   */\n      swap3\n      swap2\n      pop\n      pop\n      jump\t// out\n        /* \"#utility.yul\":23988:24168   */\n    tag_207:\n        /* \"#utility.yul\":24036:24113   */\n      0x4e487b7100000000000000000000000000000000000000000000000000000000\n        /* \"#utility.yul\":24033:24034   */\n      0x00\n        /* \"#utility.yul\":24026:24114   */\n      mstore\n        /* \"#utility.yul\":24133:24137   */\n      0x31\n        /* \"#utility.yul\":24130:24131   */\n      0x04\n        /* \"#utility.yul\":24123:24138   */\n      mstore\n        /* \"#utility.yul\":24157:24161   */\n      0x24\n        /* \"#utility.yul\":24154:24155   */\n      0x00\n        /* \"#utility.yul\":24147:24162   */\n      revert\n\n    auxdata: 0xa26469706673582212206f73993c5fc11df01d2da8e78691f9308f2b30a9f4c0567b916ee1c1308fc8d564736f6c634300081c0033\n}\n",
				"bytecode": {
					"linkReferences": {},
					"object": "608060405234801561000f575f5ffd5b506040516122f63803806122f68339818101604052810190610031919061023d565b5f73ffffffffffffffffffffffffffffffffffffffff168273ffffffffffffffffffffffffffffffffffffffff160361009f576040517f08c379a0000000000000000000000000000000000000000000000000000000008152600401610096906102fb565b60405180910390fd5b5f73ffffffffffffffffffffffffffffffffffffffff168173ffffffffffffffffffffffffffffffffffffffff160361010d576040517f08c379a000000000000000000000000000000000000000000000000000000000815260040161010490610389565b60405180910390fd5b815f5f6101000a81548173ffffffffffffffffffffffffffffffffffffffff021916908373ffffffffffffffffffffffffffffffffffffffff1602179055508060015f6101000a81548173ffffffffffffffffffffffffffffffffffffffff021916908373ffffffffffffffffffffffffffffffffffffffff16021790555050506103a7565b5f5ffd5b5f73ffffffffffffffffffffffffffffffffffffffff82169050919050565b5f6101c082610197565b9050919050565b5f6101d1826101b6565b9050919050565b6101e1816101c7565b81146101eb575f5ffd5b50565b5f815190506101fc816101d8565b92915050565b5f61020c826101b6565b9050919050565b61021c81610202565b8114610226575f5ffd5b50565b5f8151905061023781610213565b92915050565b5f5f6040838503121561025357610252610193565b5b5f610260858286016101ee565b925050602061027185828601610229565b9150509250929050565b5f82825260208201905092915050565b7f4d61726b65743a2049455243323020636f6e74726163742061646472657373205f8201527f6d757374206265206e6f6e2d6e756c6c00000000000000000000000000000000602082015250565b5f6102e560308361027b565b91506102f08261028b565b604082019050919050565b5f6020820190508181035f830152610312816102d9565b9050919050565b7f4d61726b65743a204945524337323120636f6e747261637420616464726573735f8201527f206d757374206265206e6f6e2d6e756c6c000000000000000000000000000000602082015250565b5f61037360318361027b565b915061037e82610319565b604082019050919050565b5f6020820190508181035f8301526103a081610367565b9050919050565b611f42806103b45f395ff3fe608060405234801561000f575f5ffd5b50600436106100e8575f3560e01c8063b3de019c1161008a578063d96a094a11610064578063d96a094a14610260578063da694df01461027c578063e0391b09146102ac578063fcce4883146102ca576100e8565b8063b3de019c146101f6578063b5cdf92414610212578063bca6ce6414610242576100e8565b8063629cb2e4116100c6578063629cb2e41461016a578063785e9e86146101885780639d4971b7146101a6578063a85c38ef146101c4576100e8565b8063150b7a02146100ec578063394a90771461011c578063514fcac71461014e575b5f5ffd5b61010660048036038101906101019190611429565b6102fa565b60405161011391906114e7565b60405180910390f35b61013660048036038101906101319190611500565b6103d8565b60405161014593929190611549565b60405180910390f35b61016860048036038101906101639190611500565b61041d565b005b6101726105da565b60405161017f9190611684565b60405180910390f35b610190610844565b60405161019d91906116ff565b60405180910390f35b6101ae610868565b6040516101bb9190611718565b60405180910390f35b6101de60048036038101906101d99190611500565b610874565b6040516101ed93929190611549565b60405180910390f35b610210600480360381019061020b9190611731565b6108c8565b005b61022c600480360381019061022791906118a7565b610aa8565b6040516102399190611718565b60405180910390f35b61024a610b5c565b6040516102579190611921565b60405180910390f35b61027a60048036038101906102759190611500565b610b81565b005b61029660048036038101906102919190611500565b610dce565b6040516102a39190611718565b60405180910390f35b6102b4610de3565b6040516102c19190611684565b60405180910390f35b6102e460048036038101906102df9190611500565b610ea7565b6040516102f19190611954565b60405180910390f35b5f8473ffffffffffffffffffffffffffffffffffffffff168673ffffffffffffffffffffffffffffffffffffffff1614610369576040517f08c379a0000000000000000000000000000000000000000000000000000000008152600401610360906119c7565b60405180910390fd5b5f6103b784848080601f0160208091040260200160405190810160405280939291908181526020018383808284375f81840152601f19601f820116905080830192505050505050505f610aa8565b90506103c4868683610f11565b63150b7a0260e01b91505095945050505050565b6002602052805f5260405f205f91509050805f015f9054906101000a900473ffffffffffffffffffffffffffffffffffffffff16908060010154908060020154905083565b61042681610ea7565b610465576040517f08c379a000000000000000000000000000000000000000000000000000000000815260040161045c90611a2f565b60405180910390fd5b5f60025f8381526020019081526020015f205f015f9054906101000a900473ffffffffffffffffffffffffffffffffffffffff1690503373ffffffffffffffffffffffffffffffffffffffff168173ffffffffffffffffffffffffffffffffffffffff1614610509576040517f08c379a000000000000000000000000000000000000000000000000000000000815260040161050090611a97565b60405180910390fd5b60015f9054906101000a900473ffffffffffffffffffffffffffffffffffffffff1673ffffffffffffffffffffffffffffffffffffffff166342842e0e3083856040518463ffffffff1660e01b815260040161056793929190611ab5565b5f604051808303815f87803b15801561057e575f5ffd5b505af1158015610590573d5f5f3e3d5ffd5b5050505061059d826110ef565b7fc0e68d6b69f741c21e955cad2ae4d505b6f6735c7e7b278251b3f6283a5f07eb81836040516105ce929190611aea565b60405180910390a15050565b60605f60038054905067ffffffffffffffff8111156105fc576105fb611783565b5b60405190808252806020026020018201604052801561063557816020015b6106226112f6565b81526020019060019003908161061a5790505b5090505f5f90505f5f90505b60038054905081101561078f573373ffffffffffffffffffffffffffffffffffffffff166003828154811061067957610678611b11565b5b905f5260205f2090600302015f015f9054906101000a900473ffffffffffffffffffffffffffffffffffffffff1673ffffffffffffffffffffffffffffffffffffffff160361078257600381815481106106d6576106d5611b11565b5b905f5260205f2090600302016040518060600160405290815f82015f9054906101000a900473ffffffffffffffffffffffffffffffffffffffff1673ffffffffffffffffffffffffffffffffffffffff1673ffffffffffffffffffffffffffffffffffffffff1681526020016001820154815260200160028201548152505083838151811061076857610767611b11565b5b6020026020010181905250818061077e90611b6b565b9250505b8080600101915050610641565b505f8167ffffffffffffffff8111156107ab576107aa611783565b5b6040519080825280602002602001820160405280156107e457816020015b6107d16112f6565b8152602001906001900390816107c95790505b5090505f5f90505b8281101561083a5783818151811061080757610806611b11565b5b602002602001015182828151811061082257610821611b11565b5b602002602001018190525080806001019150506107ec565b5080935050505090565b5f5f9054906101000a900473ffffffffffffffffffffffffffffffffffffffff1681565b5f600380549050905090565b60038181548110610883575f80fd5b905f5260205f2090600302015f91509050805f015f9054906101000a900473ffffffffffffffffffffffffffffffffffffffff16908060010154908060020154905083565b6108d182610ea7565b610910576040517f08c379a000000000000000000000000000000000000000000000000000000000815260040161090790611a2f565b60405180910390fd5b5f60025f8481526020019081526020015f205f015f9054906101000a900473ffffffffffffffffffffffffffffffffffffffff1690503373ffffffffffffffffffffffffffffffffffffffff168173ffffffffffffffffffffffffffffffffffffffff16146109b4576040517f08c379a00000000000000000000000000000000000000000000000000000000081526004016109ab90611a97565b60405180910390fd5b5f82116109f6576040517f08c379a00000000000000000000000000000000000000000000000000000000081526004016109ed90611c22565b60405180910390fd5b5f60025f8581526020019081526020015f206002015490508260025f8681526020019081526020015f20600201819055505f600360045f8781526020019081526020015f205481548110610a4d57610a4c611b11565b5b905f5260205f20906003020190508381600201819055507f342a7f6248980b0f191b96eb6b7a439c4da78b2c97b86ca66cc7ee90d4b04cce83868487604051610a999493929190611c40565b60405180910390a15050505050565b5f81602083610ab79190611c83565b1015610af8576040517f08c379a0000000000000000000000000000000000000000000000000000000008152600401610aef90611d00565b60405180910390fd5b602082610b059190611c83565b83511015610b48576040517f08c379a0000000000000000000000000000000000000000000000000000000008152600401610b3f90611d68565b60405180910390fd5b5f8260208501015190508091505092915050565b60015f9054906101000a900473ffffffffffffffffffffffffffffffffffffffff1681565b610b8a81610ea7565b610bc9576040517f08c379a0000000000000000000000000000000000000000000000000000000008152600401610bc090611a2f565b60405180910390fd5b5f60025f8381526020019081526020015f205f015f9054906101000a900473ffffffffffffffffffffffffffffffffffffffff1690505f3390505f60025f8581526020019081526020015f206002015490505f5f9054906101000a900473ffffffffffffffffffffffffffffffffffffffff1673ffffffffffffffffffffffffffffffffffffffff166323b872dd8385846040518463ffffffff1660e01b8152600401610c7893929190611ab5565b6020604051808303815f875af1158015610c94573d5f5f3e3d5ffd5b505050506040513d601f19601f82011682018060405250810190610cb89190611db0565b610cf7576040517f08c379a0000000000000000000000000000000000000000000000000000000008152600401610cee90611e4b565b60405180910390fd5b60015f9054906101000a900473ffffffffffffffffffffffffffffffffffffffff1673ffffffffffffffffffffffffffffffffffffffff166342842e0e3084876040518463ffffffff1660e01b8152600401610d5593929190611ab5565b5f604051808303815f87803b158015610d6c575f5ffd5b505af1158015610d7e573d5f5f3e3d5ffd5b50505050610d8b846110ef565b7f424d5e5f0192c7dacdbe646ca31b00299146d883d76a95ef5cddbac7cd342eab82848684604051610dc09493929190611e69565b60405180910390a150505050565b6004602052805f5260405f205f915090505481565b60606003805480602002602001604051908101604052809291908181526020015f905b82821015610e9e578382905f5260205f2090600302016040518060600160405290815f82015f9054906101000a900473ffffffffffffffffffffffffffffffffffffffff1673ffffffffffffffffffffffffffffffffffffffff1673ffffffffffffffffffffffffffffffffffffffff1681526020016001820154815260200160028201548152505081526020019060010190610e06565b50505050905090565b5f5f73ffffffffffffffffffffffffffffffffffffffff1660025f8481526020019081526020015f205f015f9054906101000a900473ffffffffffffffffffffffffffffffffffffffff1673ffffffffffffffffffffffffffffffffffffffff1614159050919050565b5f8111610f53576040517f08c379a0000000000000000000000000000000000000000000000000000000008152600401610f4a90611c22565b60405180910390fd5b8260025f8481526020019081526020015f205f015f6101000a81548173ffffffffffffffffffffffffffffffffffffffff021916908373ffffffffffffffffffffffffffffffffffffffff1602179055508060025f8481526020019081526020015f20600201819055508160025f8481526020019081526020015f2060010181905550600360025f8481526020019081526020015f20908060018154018082558091505060019003905f5260205f2090600302015f909190919091505f82015f9054906101000a900473ffffffffffffffffffffffffffffffffffffffff16815f015f6101000a81548173ffffffffffffffffffffffffffffffffffffffff021916908373ffffffffffffffffffffffffffffffffffffffff16021790555060018201548160010155600282015481600201555050600160038054905061109a9190611eac565b60045f8481526020019081526020015f20819055507fd5b509e657d5ec37ae4bdcab658b7340c0453bb630516d26623359a34c1cecf38383836040516110e293929190611549565b60405180910390a1505050565b60025f8281526020019081526020015f205f5f82015f6101000a81549073ffffffffffffffffffffffffffffffffffffffff0219169055600182015f9055600282015f905550505f60045f8381526020019081526020015f205490505f600160038054905061115e9190611eac565b9050818114611295575f6003828154811061117c5761117b611b11565b5b905f5260205f2090600302016040518060600160405290815f82015f9054906101000a900473ffffffffffffffffffffffffffffffffffffffff1673ffffffffffffffffffffffffffffffffffffffff1673ffffffffffffffffffffffffffffffffffffffff168152602001600182015481526020016002820154815250509050806003848154811061121257611211611b11565b5b905f5260205f2090600302015f820151815f015f6101000a81548173ffffffffffffffffffffffffffffffffffffffff021916908373ffffffffffffffffffffffffffffffffffffffff16021790555060208201518160010155604082015181600201559050508260045f836020015181526020019081526020015f2081905550505b60038054806112a7576112a6611edf565b5b600190038181905f5260205f2090600302015f5f82015f6101000a81549073ffffffffffffffffffffffffffffffffffffffff0219169055600182015f9055600282015f905550509055505050565b60405180606001604052805f73ffffffffffffffffffffffffffffffffffffffff1681526020015f81526020015f81525090565b5f604051905090565b5f5ffd5b5f5ffd5b5f73ffffffffffffffffffffffffffffffffffffffff82169050919050565b5f6113648261133b565b9050919050565b6113748161135a565b811461137e575f5ffd5b50565b5f8135905061138f8161136b565b92915050565b5f819050919050565b6113a781611395565b81146113b1575f5ffd5b50565b5f813590506113c28161139e565b92915050565b5f5ffd5b5f5ffd5b5f5ffd5b5f5f83601f8401126113e9576113e86113c8565b5b8235905067ffffffffffffffff811115611406576114056113cc565b5b602083019150836001820283011115611422576114216113d0565b5b9250929050565b5f5f5f5f5f6080868803121561144257611441611333565b5b5f61144f88828901611381565b955050602061146088828901611381565b9450506040611471888289016113b4565b935050606086013567ffffffffffffffff81111561149257611491611337565b5b61149e888289016113d4565b92509250509295509295909350565b5f7fffffffff0000000000000000000000000000000000000000000000000000000082169050919050565b6114e1816114ad565b82525050565b5f6020820190506114fa5f8301846114d8565b92915050565b5f6020828403121561151557611514611333565b5b5f611522848285016113b4565b91505092915050565b6115348161135a565b82525050565b61154381611395565b82525050565b5f60608201905061155c5f83018661152b565b611569602083018561153a565b611576604083018461153a565b949350505050565b5f81519050919050565b5f82825260208201905092915050565b5f819050602082019050919050565b6115b08161135a565b82525050565b6115bf81611395565b82525050565b606082015f8201516115d95f8501826115a7565b5060208201516115ec60208501826115b6565b5060408201516115ff60408501826115b6565b50505050565b5f61161083836115c5565b60608301905092915050565b5f602082019050919050565b5f6116328261157e565b61163c8185611588565b935061164783611598565b805f5b8381101561167757815161165e8882611605565b97506116698361161c565b92505060018101905061164a565b5085935050505092915050565b5f6020820190508181035f83015261169c8184611628565b905092915050565b5f819050919050565b5f6116c76116c26116bd8461133b565b6116a4565b61133b565b9050919050565b5f6116d8826116ad565b9050919050565b5f6116e9826116ce565b9050919050565b6116f9816116df565b82525050565b5f6020820190506117125f8301846116f0565b92915050565b5f60208201905061172b5f83018461153a565b92915050565b5f5f6040838503121561174757611746611333565b5b5f611754858286016113b4565b9250506020611765858286016113b4565b9150509250929050565b5f5ffd5b5f601f19601f8301169050919050565b7f4e487b71000000000000000000000000000000000000000000000000000000005f52604160045260245ffd5b6117b982611773565b810181811067ffffffffffffffff821117156117d8576117d7611783565b5b80604052505050565b5f6117ea61132a565b90506117f682826117b0565b919050565b5f67ffffffffffffffff82111561181557611814611783565b5b61181e82611773565b9050602081019050919050565b828183375f83830152505050565b5f61184b611846846117fb565b6117e1565b9050828152602081018484840111156118675761186661176f565b5b61187284828561182b565b509392505050565b5f82601f83011261188e5761188d6113c8565b5b813561189e848260208601611839565b91505092915050565b5f5f604083850312156118bd576118bc611333565b5b5f83013567ffffffffffffffff8111156118da576118d9611337565b5b6118e68582860161187a565b92505060206118f7858286016113b4565b9150509250929050565b5f61190b826116ce565b9050919050565b61191b81611901565b82525050565b5f6020820190506119345f830184611912565b92915050565b5f8115159050919050565b61194e8161193a565b82525050565b5f6020820190506119675f830184611945565b92915050565b5f82825260208201905092915050565b7f4d61726b65743a2053656c6c6572206d757374206265206f70657261746f72005f82015250565b5f6119b1601f8361196d565b91506119bc8261197d565b602082019050919050565b5f6020820190508181035f8301526119de816119a5565b9050919050565b7f4d61726b65743a20546f6b656e204944206973206e6f74206c697374656400005f82015250565b5f611a19601e8361196d565b9150611a24826119e5565b602082019050919050565b5f6020820190508181035f830152611a4681611a0d565b9050919050565b7f4d61726b65743a2053656e646572206973206e6f742073656c6c6572000000005f82015250565b5f611a81601c8361196d565b9150611a8c82611a4d565b602082019050919050565b5f6020820190508181035f830152611aae81611a75565b9050919050565b5f606082019050611ac85f83018661152b565b611ad5602083018561152b565b611ae2604083018461153a565b949350505050565b5f604082019050611afd5f83018561152b565b611b0a602083018461153a565b9392505050565b7f4e487b71000000000000000000000000000000000000000000000000000000005f52603260045260245ffd5b7f4e487b71000000000000000000000000000000000000000000000000000000005f52601160045260245ffd5b5f611b7582611395565b91507fffffffffffffffffffffffffffffffffffffffffffffffffffffffffffffffff8203611ba757611ba6611b3e565b5b600182019050919050565b7f4d61726b65743a205072696365206d75737420626520677265617465722074685f8201527f616e207a65726f00000000000000000000000000000000000000000000000000602082015250565b5f611c0c60278361196d565b9150611c1782611bb2565b604082019050919050565b5f6020820190508181035f830152611c3981611c00565b9050919050565b5f608082019050611c535f83018761152b565b611c60602083018661153a565b611c6d604083018561153a565b611c7a606083018461153a565b95945050505050565b5f611c8d82611395565b9150611c9883611395565b9250828201905080821115611cb057611caf611b3e565b5b92915050565b7f4d61726b65743a20746f55696e743235365f6f766572666c6f770000000000005f82015250565b5f611cea601a8361196d565b9150611cf582611cb6565b602082019050919050565b5f6020820190508181035f830152611d1781611cde565b9050919050565b7f4d61726b65743a20746f55696e743235365f6f75744f66426f756e64730000005f82015250565b5f611d52601d8361196d565b9150611d5d82611d1e565b602082019050919050565b5f6020820190508181035f830152611d7f81611d46565b9050919050565b611d8f8161193a565b8114611d99575f5ffd5b50565b5f81519050611daa81611d86565b92915050565b5f60208284031215611dc557611dc4611333565b5b5f611dd284828501611d9c565b91505092915050565b7f4d61726b65743a204552433230207472616e73666572206e6f742073756363655f8201527f737366756c000000000000000000000000000000000000000000000000000000602082015250565b5f611e3560258361196d565b9150611e4082611ddb565b604082019050919050565b5f6020820190508181035f830152611e6281611e29565b9050919050565b5f608082019050611e7c5f83018761152b565b611e89602083018661152b565b611e96604083018561153a565b611ea3606083018461153a565b95945050505050565b5f611eb682611395565b9150611ec183611395565b9250828203905081811115611ed957611ed8611b3e565b5b92915050565b7f4e487b71000000000000000000000000000000000000000000000000000000005f52603160045260245ffdfea26469706673582212206f73993c5fc11df01d2da8e78691f9308f2b30a9f4c0567b916ee1c1308fc8d564736f6c634300081c0033",
					"opcodes": "PUSH1 0x80 PUSH1 0x40 MSTORE CALLVALUE DUP1 ISZERO PUSH2 0xF JUMPI PUSH0 PUSH0 REVERT JUMPDEST POP PUSH1 0x40 MLOAD PUSH2 0x22F6 CODESIZE SUB DUP1 PUSH2 0x22F6 DUP4 CODECOPY DUP2 DUP2 ADD PUSH1 0x40 MSTORE DUP2 ADD SWAP1 PUSH2 0x31 SWAP2 SWAP1 PUSH2 0x23D JUMP JUMPDEST PUSH0 PUSH20 0xFFFFFFFFFFFFFFFFFFFFFFFFFFFFFFFFFFFFFFFF AND DUP3 PUSH20 0xFFFFFFFFFFFFFFFFFFFFFFFFFFFFFFFFFFFFFFFF AND SUB PUSH2 0x9F JUMPI PUSH1 0x40 MLOAD PUSH32 0x8C379A000000000000000000000000000000000000000000000000000000000 DUP2 MSTORE PUSH1 0x4 ADD PUSH2 0x96 SWAP1 PUSH2 0x2FB JUMP JUMPDEST PUSH1 0x40 MLOAD DUP1 SWAP2 SUB SWAP1 REVERT JUMPDEST PUSH0 PUSH20 0xFFFFFFFFFFFFFFFFFFFFFFFFFFFFFFFFFFFFFFFF AND DUP2 PUSH20 0xFFFFFFFFFFFFFFFFFFFFFFFFFFFFFFFFFFFFFFFF AND SUB PUSH2 0x10D JUMPI PUSH1 0x40 MLOAD PUSH32 0x8C379A000000000000000000000000000000000000000000000000000000000 DUP2 MSTORE PUSH1 0x4 ADD PUSH2 0x104 SWAP1 PUSH2 0x389 JUMP JUMPDEST PUSH1 0x40 MLOAD DUP1 SWAP2 SUB SWAP1 REVERT JUMPDEST DUP2 PUSH0 PUSH0 PUSH2 0x100 EXP DUP2 SLOAD DUP2 PUSH20 0xFFFFFFFFFFFFFFFFFFFFFFFFFFFFFFFFFFFFFFFF MUL NOT AND SWAP1 DUP4 PUSH20 0xFFFFFFFFFFFFFFFFFFFFFFFFFFFFFFFFFFFFFFFF AND MUL OR SWAP1 SSTORE POP DUP1 PUSH1 0x1 PUSH0 PUSH2 0x100 EXP DUP2 SLOAD DUP2 PUSH20 0xFFFFFFFFFFFFFFFFFFFFFFFFFFFFFFFFFFFFFFFF MUL NOT AND SWAP1 DUP4 PUSH20 0xFFFFFFFFFFFFFFFFFFFFFFFFFFFFFFFFFFFFFFFF AND MUL OR SWAP1 SSTORE POP POP POP PUSH2 0x3A7 JUMP JUMPDEST PUSH0 PUSH0 REVERT JUMPDEST PUSH0 PUSH20 0xFFFFFFFFFFFFFFFFFFFFFFFFFFFFFFFFFFFFFFFF DUP3 AND SWAP1 POP SWAP2 SWAP1 POP JUMP JUMPDEST PUSH0 PUSH2 0x1C0 DUP3 PUSH2 0x197 JUMP JUMPDEST SWAP1 POP SWAP2 SWAP1 POP JUMP JUMPDEST PUSH0 PUSH2 0x1D1 DUP3 PUSH2 0x1B6 JUMP JUMPDEST SWAP1 POP SWAP2 SWAP1 POP JUMP JUMPDEST PUSH2 0x1E1 DUP2 PUSH2 0x1C7 JUMP JUMPDEST DUP2 EQ PUSH2 0x1EB JUMPI PUSH0 PUSH0 REVERT JUMPDEST POP JUMP JUMPDEST PUSH0 DUP2 MLOAD SWAP1 POP PUSH2 0x1FC DUP2 PUSH2 0x1D8 JUMP JUMPDEST SWAP3 SWAP2 POP POP JUMP JUMPDEST PUSH0 PUSH2 0x20C DUP3 PUSH2 0x1B6 JUMP JUMPDEST SWAP1 POP SWAP2 SWAP1 POP JUMP JUMPDEST PUSH2 0x21C DUP2 PUSH2 0x202 JUMP JUMPDEST DUP2 EQ PUSH2 0x226 JUMPI PUSH0 PUSH0 REVERT JUMPDEST POP JUMP JUMPDEST PUSH0 DUP2 MLOAD SWAP1 POP PUSH2 0x237 DUP2 PUSH2 0x213 JUMP JUMPDEST SWAP3 SWAP2 POP POP JUMP JUMPDEST PUSH0 PUSH0 PUSH1 0x40 DUP4 DUP6 SUB SLT ISZERO PUSH2 0x253 JUMPI PUSH2 0x252 PUSH2 0x193 JUMP JUMPDEST JUMPDEST PUSH0 PUSH2 0x260 DUP6 DUP3 DUP7 ADD PUSH2 0x1EE JUMP JUMPDEST SWAP3 POP POP PUSH1 0x20 PUSH2 0x271 DUP6 DUP3 DUP7 ADD PUSH2 0x229 JUMP JUMPDEST SWAP2 POP POP SWAP3 POP SWAP3 SWAP1 POP JUMP JUMPDEST PUSH0 DUP3 DUP3 MSTORE PUSH1 0x20 DUP3 ADD SWAP1 POP SWAP3 SWAP2 POP POP JUMP JUMPDEST PUSH32 0x4D61726B65743A2049455243323020636F6E7472616374206164647265737320 PUSH0 DUP3 ADD MSTORE PUSH32 0x6D757374206265206E6F6E2D6E756C6C00000000000000000000000000000000 PUSH1 0x20 DUP3 ADD MSTORE POP JUMP JUMPDEST PUSH0 PUSH2 0x2E5 PUSH1 0x30 DUP4 PUSH2 0x27B JUMP JUMPDEST SWAP2 POP PUSH2 0x2F0 DUP3 PUSH2 0x28B JUMP JUMPDEST PUSH1 0x40 DUP3 ADD SWAP1 POP SWAP2 SWAP1 POP JUMP JUMPDEST PUSH0 PUSH1 0x20 DUP3 ADD SWAP1 POP DUP2 DUP2 SUB PUSH0 DUP4 ADD MSTORE PUSH2 0x312 DUP2 PUSH2 0x2D9 JUMP JUMPDEST SWAP1 POP SWAP2 SWAP1 POP JUMP JUMPDEST PUSH32 0x4D61726B65743A204945524337323120636F6E74726163742061646472657373 PUSH0 DUP3 ADD MSTORE PUSH32 0x206D757374206265206E6F6E2D6E756C6C000000000000000000000000000000 PUSH1 0x20 DUP3 ADD MSTORE POP JUMP JUMPDEST PUSH0 PUSH2 0x373 PUSH1 0x31 DUP4 PUSH2 0x27B JUMP JUMPDEST SWAP2 POP PUSH2 0x37E DUP3 PUSH2 0x319 JUMP JUMPDEST PUSH1 0x40 DUP3 ADD SWAP1 POP SWAP2 SWAP1 POP JUMP JUMPDEST PUSH0 PUSH1 0x20 DUP3 ADD SWAP1 POP DUP2 DUP2 SUB PUSH0 DUP4 ADD MSTORE PUSH2 0x3A0 DUP2 PUSH2 0x367 JUMP JUMPDEST SWAP1 POP SWAP2 SWAP1 POP JUMP JUMPDEST PUSH2 0x1F42 DUP1 PUSH2 0x3B4 PUSH0 CODECOPY PUSH0 RETURN INVALID PUSH1 0x80 PUSH1 0x40 MSTORE CALLVALUE DUP1 ISZERO PUSH2 0xF JUMPI PUSH0 PUSH0 REVERT JUMPDEST POP PUSH1 0x4 CALLDATASIZE LT PUSH2 0xE8 JUMPI PUSH0 CALLDATALOAD PUSH1 0xE0 SHR DUP1 PUSH4 0xB3DE019C GT PUSH2 0x8A JUMPI DUP1 PUSH4 0xD96A094A GT PUSH2 0x64 JUMPI DUP1 PUSH4 0xD96A094A EQ PUSH2 0x260 JUMPI DUP1 PUSH4 0xDA694DF0 EQ PUSH2 0x27C JUMPI DUP1 PUSH4 0xE0391B09 EQ PUSH2 0x2AC JUMPI DUP1 PUSH4 0xFCCE4883 EQ PUSH2 0x2CA JUMPI PUSH2 0xE8 JUMP JUMPDEST DUP1 PUSH4 0xB3DE019C EQ PUSH2 0x1F6 JUMPI DUP1 PUSH4 0xB5CDF924 EQ PUSH2 0x212 JUMPI DUP1 PUSH4 0xBCA6CE64 EQ PUSH2 0x242 JUMPI PUSH2 0xE8 JUMP JUMPDEST DUP1 PUSH4 0x629CB2E4 GT PUSH2 0xC6 JUMPI DUP1 PUSH4 0x629CB2E4 EQ PUSH2 0x16A JUMPI DUP1 PUSH4 0x785E9E86 EQ PUSH2 0x188 JUMPI DUP1 PUSH4 0x9D4971B7 EQ PUSH2 0x1A6 JUMPI DUP1 PUSH4 0xA85C38EF EQ PUSH2 0x1C4 JUMPI PUSH2 0xE8 JUMP JUMPDEST DUP1 PUSH4 0x150B7A02 EQ PUSH2 0xEC JUMPI DUP1 PUSH4 0x394A9077 EQ PUSH2 0x11C JUMPI DUP1 PUSH4 0x514FCAC7 EQ PUSH2 0x14E JUMPI JUMPDEST PUSH0 PUSH0 REVERT JUMPDEST PUSH2 0x106 PUSH1 0x4 DUP1 CALLDATASIZE SUB DUP2 ADD SWAP1 PUSH2 0x101 SWAP2 SWAP1 PUSH2 0x1429 JUMP JUMPDEST PUSH2 0x2FA JUMP JUMPDEST PUSH1 0x40 MLOAD PUSH2 0x113 SWAP2 SWAP1 PUSH2 0x14E7 JUMP JUMPDEST PUSH1 0x40 MLOAD DUP1 SWAP2 SUB SWAP1 RETURN JUMPDEST PUSH2 0x136 PUSH1 0x4 DUP1 CALLDATASIZE SUB DUP2 ADD SWAP1 PUSH2 0x131 SWAP2 SWAP1 PUSH2 0x1500 JUMP JUMPDEST PUSH2 0x3D8 JUMP JUMPDEST PUSH1 0x40 MLOAD PUSH2 0x145 SWAP4 SWAP3 SWAP2 SWAP1 PUSH2 0x1549 JUMP JUMPDEST PUSH1 0x40 MLOAD DUP1 SWAP2 SUB SWAP1 RETURN JUMPDEST PUSH2 0x168 PUSH1 0x4 DUP1 CALLDATASIZE SUB DUP2 ADD SWAP1 PUSH2 0x163 SWAP2 SWAP1 PUSH2 0x1500 JUMP JUMPDEST PUSH2 0x41D JUMP JUMPDEST STOP JUMPDEST PUSH2 0x172 PUSH2 0x5DA JUMP JUMPDEST PUSH1 0x40 MLOAD PUSH2 0x17F SWAP2 SWAP1 PUSH2 0x1684 JUMP JUMPDEST PUSH1 0x40 MLOAD DUP1 SWAP2 SUB SWAP1 RETURN JUMPDEST PUSH2 0x190 PUSH2 0x844 JUMP JUMPDEST PUSH1 0x40 MLOAD PUSH2 0x19D SWAP2 SWAP1 PUSH2 0x16FF JUMP JUMPDEST PUSH1 0x40 MLOAD DUP1 SWAP2 SUB SWAP1 RETURN JUMPDEST PUSH2 0x1AE PUSH2 0x868 JUMP JUMPDEST PUSH1 0x40 MLOAD PUSH2 0x1BB SWAP2 SWAP1 PUSH2 0x1718 JUMP JUMPDEST PUSH1 0x40 MLOAD DUP1 SWAP2 SUB SWAP1 RETURN JUMPDEST PUSH2 0x1DE PUSH1 0x4 DUP1 CALLDATASIZE SUB DUP2 ADD SWAP1 PUSH2 0x1D9 SWAP2 SWAP1 PUSH2 0x1500 JUMP JUMPDEST PUSH2 0x874 JUMP JUMPDEST PUSH1 0x40 MLOAD PUSH2 0x1ED SWAP4 SWAP3 SWAP2 SWAP1 PUSH2 0x1549 JUMP JUMPDEST PUSH1 0x40 MLOAD DUP1 SWAP2 SUB SWAP1 RETURN JUMPDEST PUSH2 0x210 PUSH1 0x4 DUP1 CALLDATASIZE SUB DUP2 ADD SWAP1 PUSH2 0x20B SWAP2 SWAP1 PUSH2 0x1731 JUMP JUMPDEST PUSH2 0x8C8 JUMP JUMPDEST STOP JUMPDEST PUSH2 0x22C PUSH1 0x4 DUP1 CALLDATASIZE SUB DUP2 ADD SWAP1 PUSH2 0x227 SWAP2 SWAP1 PUSH2 0x18A7 JUMP JUMPDEST PUSH2 0xAA8 JUMP JUMPDEST PUSH1 0x40 MLOAD PUSH2 0x239 SWAP2 SWAP1 PUSH2 0x1718 JUMP JUMPDEST PUSH1 0x40 MLOAD DUP1 SWAP2 SUB SWAP1 RETURN JUMPDEST PUSH2 0x24A PUSH2 0xB5C JUMP JUMPDEST PUSH1 0x40 MLOAD PUSH2 0x257 SWAP2 SWAP1 PUSH2 0x1921 JUMP JUMPDEST PUSH1 0x40 MLOAD DUP1 SWAP2 SUB SWAP1 RETURN JUMPDEST PUSH2 0x27A PUSH1 0x4 DUP1 CALLDATASIZE SUB DUP2 ADD SWAP1 PUSH2 0x275 SWAP2 SWAP1 PUSH2 0x1500 JUMP JUMPDEST PUSH2 0xB81 JUMP JUMPDEST STOP JUMPDEST PUSH2 0x296 PUSH1 0x4 DUP1 CALLDATASIZE SUB DUP2 ADD SWAP1 PUSH2 0x291 SWAP2 SWAP1 PUSH2 0x1500 JUMP JUMPDEST PUSH2 0xDCE JUMP JUMPDEST PUSH1 0x40 MLOAD PUSH2 0x2A3 SWAP2 SWAP1 PUSH2 0x1718 JUMP JUMPDEST PUSH1 0x40 MLOAD DUP1 SWAP2 SUB SWAP1 RETURN JUMPDEST PUSH2 0x2B4 PUSH2 0xDE3 JUMP JUMPDEST PUSH1 0x40 MLOAD PUSH2 0x2C1 SWAP2 SWAP1 PUSH2 0x1684 JUMP JUMPDEST PUSH1 0x40 MLOAD DUP1 SWAP2 SUB SWAP1 RETURN JUMPDEST PUSH2 0x2E4 PUSH1 0x4 DUP1 CALLDATASIZE SUB DUP2 ADD SWAP1 PUSH2 0x2DF SWAP2 SWAP1 PUSH2 0x1500 JUMP JUMPDEST PUSH2 0xEA7 JUMP JUMPDEST PUSH1 0x40 MLOAD PUSH2 0x2F1 SWAP2 SWAP1 PUSH2 0x1954 JUMP JUMPDEST PUSH1 0x40 MLOAD DUP1 SWAP2 SUB SWAP1 RETURN JUMPDEST PUSH0 DUP5 PUSH20 0xFFFFFFFFFFFFFFFFFFFFFFFFFFFFFFFFFFFFFFFF AND DUP7 PUSH20 0xFFFFFFFFFFFFFFFFFFFFFFFFFFFFFFFFFFFFFFFF AND EQ PUSH2 0x369 JUMPI PUSH1 0x40 MLOAD PUSH32 0x8C379A000000000000000000000000000000000000000000000000000000000 DUP2 MSTORE PUSH1 0x4 ADD PUSH2 0x360 SWAP1 PUSH2 0x19C7 JUMP JUMPDEST PUSH1 0x40 MLOAD DUP1 SWAP2 SUB SWAP1 REVERT JUMPDEST PUSH0 PUSH2 0x3B7 DUP5 DUP5 DUP1 DUP1 PUSH1 0x1F ADD PUSH1 0x20 DUP1 SWAP2 DIV MUL PUSH1 0x20 ADD PUSH1 0x40 MLOAD SWAP1 DUP2 ADD PUSH1 0x40 MSTORE DUP1 SWAP4 SWAP3 SWAP2 SWAP1 DUP2 DUP2 MSTORE PUSH1 0x20 ADD DUP4 DUP4 DUP1 DUP3 DUP5 CALLDATACOPY PUSH0 DUP2 DUP5 ADD MSTORE PUSH1 0x1F NOT PUSH1 0x1F DUP3 ADD AND SWAP1 POP DUP1 DUP4 ADD SWAP3 POP POP POP POP POP POP POP PUSH0 PUSH2 0xAA8 JUMP JUMPDEST SWAP1 POP PUSH2 0x3C4 DUP7 DUP7 DUP4 PUSH2 0xF11 JUMP JUMPDEST PUSH4 0x150B7A02 PUSH1 0xE0 SHL SWAP2 POP POP SWAP6 SWAP5 POP POP POP POP POP JUMP JUMPDEST PUSH1 0x2 PUSH1 0x20 MSTORE DUP1 PUSH0 MSTORE PUSH1 0x40 PUSH0 KECCAK256 PUSH0 SWAP2 POP SWAP1 POP DUP1 PUSH0 ADD PUSH0 SWAP1 SLOAD SWAP1 PUSH2 0x100 EXP SWAP1 DIV PUSH20 0xFFFFFFFFFFFFFFFFFFFFFFFFFFFFFFFFFFFFFFFF AND SWAP1 DUP1 PUSH1 0x1 ADD SLOAD SWAP1 DUP1 PUSH1 0x2 ADD SLOAD SWAP1 POP DUP4 JUMP JUMPDEST PUSH2 0x426 DUP2 PUSH2 0xEA7 JUMP JUMPDEST PUSH2 0x465 JUMPI PUSH1 0x40 MLOAD PUSH32 0x8C379A000000000000000000000000000000000000000000000000000000000 DUP2 MSTORE PUSH1 0x4 ADD PUSH2 0x45C SWAP1 PUSH2 0x1A2F JUMP JUMPDEST PUSH1 0x40 MLOAD DUP1 SWAP2 SUB SWAP1 REVERT JUMPDEST PUSH0 PUSH1 0x2 PUSH0 DUP4 DUP2 MSTORE PUSH1 0x20 ADD SWAP1 DUP2 MSTORE PUSH1 0x20 ADD PUSH0 KECCAK256 PUSH0 ADD PUSH0 SWAP1 SLOAD SWAP1 PUSH2 0x100 EXP SWAP1 DIV PUSH20 0xFFFFFFFFFFFFFFFFFFFFFFFFFFFFFFFFFFFFFFFF AND SWAP1 POP CALLER PUSH20 0xFFFFFFFFFFFFFFFFFFFFFFFFFFFFFFFFFFFFFFFF AND DUP2 PUSH20 0xFFFFFFFFFFFFFFFFFFFFFFFFFFFFFFFFFFFFFFFF AND EQ PUSH2 0x509 JUMPI PUSH1 0x40 MLOAD PUSH32 0x8C379A000000000000000000000000000000000000000000000000000000000 DUP2 MSTORE PUSH1 0x4 ADD PUSH2 0x500 SWAP1 PUSH2 0x1A97 JUMP JUMPDEST PUSH1 0x40 MLOAD DUP1 SWAP2 SUB SWAP1 REVERT JUMPDEST PUSH1 0x1 PUSH0 SWAP1 SLOAD SWAP1 PUSH2 0x100 EXP SWAP1 DIV PUSH20 0xFFFFFFFFFFFFFFFFFFFFFFFFFFFFFFFFFFFFFFFF AND PUSH20 0xFFFFFFFFFFFFFFFFFFFFFFFFFFFFFFFFFFFFFFFF AND PUSH4 0x42842E0E ADDRESS DUP4 DUP6 PUSH1 0x40 MLOAD DUP5 PUSH4 0xFFFFFFFF AND PUSH1 0xE0 SHL DUP2 MSTORE PUSH1 0x4 ADD PUSH2 0x567 SWAP4 SWAP3 SWAP2 SWAP1 PUSH2 0x1AB5 JUMP JUMPDEST PUSH0 PUSH1 0x40 MLOAD DUP1 DUP4 SUB DUP2 PUSH0 DUP8 DUP1 EXTCODESIZE ISZERO DUP1 ISZERO PUSH2 0x57E JUMPI PUSH0 PUSH0 REVERT JUMPDEST POP GAS CALL ISZERO DUP1 ISZERO PUSH2 0x590 JUMPI RETURNDATASIZE PUSH0 PUSH0 RETURNDATACOPY RETURNDATASIZE PUSH0 REVERT JUMPDEST POP POP POP POP PUSH2 0x59D DUP3 PUSH2 0x10EF JUMP JUMPDEST PUSH32 0xC0E68D6B69F741C21E955CAD2AE4D505B6F6735C7E7B278251B3F6283A5F07EB DUP2 DUP4 PUSH1 0x40 MLOAD PUSH2 0x5CE SWAP3 SWAP2 SWAP1 PUSH2 0x1AEA JUMP JUMPDEST PUSH1 0x40 MLOAD DUP1 SWAP2 SUB SWAP1 LOG1 POP POP JUMP JUMPDEST PUSH1 0x60 PUSH0 PUSH1 0x3 DUP1 SLOAD SWAP1 POP PUSH8 0xFFFFFFFFFFFFFFFF DUP2 GT ISZERO PUSH2 0x5FC JUMPI PUSH2 0x5FB PUSH2 0x1783 JUMP JUMPDEST JUMPDEST PUSH1 0x40 MLOAD SWAP1 DUP1 DUP3 MSTORE DUP1 PUSH1 0x20 MUL PUSH1 0x20 ADD DUP3 ADD PUSH1 0x40 MSTORE DUP1 ISZERO PUSH2 0x635 JUMPI DUP2 PUSH1 0x20 ADD JUMPDEST PUSH2 0x622 PUSH2 0x12F6 JUMP JUMPDEST DUP2 MSTORE PUSH1 0x20 ADD SWAP1 PUSH1 0x1 SWAP1 SUB SWAP1 DUP2 PUSH2 0x61A JUMPI SWAP1 POP JUMPDEST POP SWAP1 POP PUSH0 PUSH0 SWAP1 POP PUSH0 PUSH0 SWAP1 POP JUMPDEST PUSH1 0x3 DUP1 SLOAD SWAP1 POP DUP2 LT ISZERO PUSH2 0x78F JUMPI CALLER PUSH20 0xFFFFFFFFFFFFFFFFFFFFFFFFFFFFFFFFFFFFFFFF AND PUSH1 0x3 DUP3 DUP2 SLOAD DUP2 LT PUSH2 0x679 JUMPI PUSH2 0x678 PUSH2 0x1B11 JUMP JUMPDEST JUMPDEST SWAP1 PUSH0 MSTORE PUSH1 0x20 PUSH0 KECCAK256 SWAP1 PUSH1 0x3 MUL ADD PUSH0 ADD PUSH0 SWAP1 SLOAD SWAP1 PUSH2 0x100 EXP SWAP1 DIV PUSH20 0xFFFFFFFFFFFFFFFFFFFFFFFFFFFFFFFFFFFFFFFF AND PUSH20 0xFFFFFFFFFFFFFFFFFFFFFFFFFFFFFFFFFFFFFFFF AND SUB PUSH2 0x782 JUMPI PUSH1 0x3 DUP2 DUP2 SLOAD DUP2 LT PUSH2 0x6D6 JUMPI PUSH2 0x6D5 PUSH2 0x1B11 JUMP JUMPDEST JUMPDEST SWAP1 PUSH0 MSTORE PUSH1 0x20 PUSH0 KECCAK256 SWAP1 PUSH1 0x3 MUL ADD PUSH1 0x40 MLOAD DUP1 PUSH1 0x60 ADD PUSH1 0x40 MSTORE SWAP1 DUP2 PUSH0 DUP3 ADD PUSH0 SWAP1 SLOAD SWAP1 PUSH2 0x100 EXP SWAP1 DIV PUSH20 0xFFFFFFFFFFFFFFFFFFFFFFFFFFFFFFFFFFFFFFFF AND PUSH20 0xFFFFFFFFFFFFFFFFFFFFFFFFFFFFFFFFFFFFFFFF AND PUSH20 0xFFFFFFFFFFFFFFFFFFFFFFFFFFFFFFFFFFFFFFFF AND DUP2 MSTORE PUSH1 0x20 ADD PUSH1 0x1 DUP3 ADD SLOAD DUP2 MSTORE PUSH1 0x20 ADD PUSH1 0x2 DUP3 ADD SLOAD DUP2 MSTORE POP POP DUP4 DUP4 DUP2 MLOAD DUP2 LT PUSH2 0x768 JUMPI PUSH2 0x767 PUSH2 0x1B11 JUMP JUMPDEST JUMPDEST PUSH1 0x20 MUL PUSH1 0x20 ADD ADD DUP2 SWAP1 MSTORE POP DUP2 DUP1 PUSH2 0x77E SWAP1 PUSH2 0x1B6B JUMP JUMPDEST SWAP3 POP POP JUMPDEST DUP1 DUP1 PUSH1 0x1 ADD SWAP2 POP POP PUSH2 0x641 JUMP JUMPDEST POP PUSH0 DUP2 PUSH8 0xFFFFFFFFFFFFFFFF DUP2 GT ISZERO PUSH2 0x7AB JUMPI PUSH2 0x7AA PUSH2 0x1783 JUMP JUMPDEST JUMPDEST PUSH1 0x40 MLOAD SWAP1 DUP1 DUP3 MSTORE DUP1 PUSH1 0x20 MUL PUSH1 0x20 ADD DUP3 ADD PUSH1 0x40 MSTORE DUP1 ISZERO PUSH2 0x7E4 JUMPI DUP2 PUSH1 0x20 ADD JUMPDEST PUSH2 0x7D1 PUSH2 0x12F6 JUMP JUMPDEST DUP2 MSTORE PUSH1 0x20 ADD SWAP1 PUSH1 0x1 SWAP1 SUB SWAP1 DUP2 PUSH2 0x7C9 JUMPI SWAP1 POP JUMPDEST POP SWAP1 POP PUSH0 PUSH0 SWAP1 POP JUMPDEST DUP3 DUP2 LT ISZERO PUSH2 0x83A JUMPI DUP4 DUP2 DUP2 MLOAD DUP2 LT PUSH2 0x807 JUMPI PUSH2 0x806 PUSH2 0x1B11 JUMP JUMPDEST JUMPDEST PUSH1 0x20 MUL PUSH1 0x20 ADD ADD MLOAD DUP3 DUP3 DUP2 MLOAD DUP2 LT PUSH2 0x822 JUMPI PUSH2 0x821 PUSH2 0x1B11 JUMP JUMPDEST JUMPDEST PUSH1 0x20 MUL PUSH1 0x20 ADD ADD DUP2 SWAP1 MSTORE POP DUP1 DUP1 PUSH1 0x1 ADD SWAP2 POP POP PUSH2 0x7EC JUMP JUMPDEST POP DUP1 SWAP4 POP POP POP POP SWAP1 JUMP JUMPDEST PUSH0 PUSH0 SWAP1 SLOAD SWAP1 PUSH2 0x100 EXP SWAP1 DIV PUSH20 0xFFFFFFFFFFFFFFFFFFFFFFFFFFFFFFFFFFFFFFFF AND DUP2 JUMP JUMPDEST PUSH0 PUSH1 0x3 DUP1 SLOAD SWAP1 POP SWAP1 POP SWAP1 JUMP JUMPDEST PUSH1 0x3 DUP2 DUP2 SLOAD DUP2 LT PUSH2 0x883 JUMPI PUSH0 DUP1 REVERT JUMPDEST SWAP1 PUSH0 MSTORE PUSH1 0x20 PUSH0 KECCAK256 SWAP1 PUSH1 0x3 MUL ADD PUSH0 SWAP2 POP SWAP1 POP DUP1 PUSH0 ADD PUSH0 SWAP1 SLOAD SWAP1 PUSH2 0x100 EXP SWAP1 DIV PUSH20 0xFFFFFFFFFFFFFFFFFFFFFFFFFFFFFFFFFFFFFFFF AND SWAP1 DUP1 PUSH1 0x1 ADD SLOAD SWAP1 DUP1 PUSH1 0x2 ADD SLOAD SWAP1 POP DUP4 JUMP JUMPDEST PUSH2 0x8D1 DUP3 PUSH2 0xEA7 JUMP JUMPDEST PUSH2 0x910 JUMPI PUSH1 0x40 MLOAD PUSH32 0x8C379A000000000000000000000000000000000000000000000000000000000 DUP2 MSTORE PUSH1 0x4 ADD PUSH2 0x907 SWAP1 PUSH2 0x1A2F JUMP JUMPDEST PUSH1 0x40 MLOAD DUP1 SWAP2 SUB SWAP1 REVERT JUMPDEST PUSH0 PUSH1 0x2 PUSH0 DUP5 DUP2 MSTORE PUSH1 0x20 ADD SWAP1 DUP2 MSTORE PUSH1 0x20 ADD PUSH0 KECCAK256 PUSH0 ADD PUSH0 SWAP1 SLOAD SWAP1 PUSH2 0x100 EXP SWAP1 DIV PUSH20 0xFFFFFFFFFFFFFFFFFFFFFFFFFFFFFFFFFFFFFFFF AND SWAP1 POP CALLER PUSH20 0xFFFFFFFFFFFFFFFFFFFFFFFFFFFFFFFFFFFFFFFF AND DUP2 PUSH20 0xFFFFFFFFFFFFFFFFFFFFFFFFFFFFFFFFFFFFFFFF AND EQ PUSH2 0x9B4 JUMPI PUSH1 0x40 MLOAD PUSH32 0x8C379A000000000000000000000000000000000000000000000000000000000 DUP2 MSTORE PUSH1 0x4 ADD PUSH2 0x9AB SWAP1 PUSH2 0x1A97 JUMP JUMPDEST PUSH1 0x40 MLOAD DUP1 SWAP2 SUB SWAP1 REVERT JUMPDEST PUSH0 DUP3 GT PUSH2 0x9F6 JUMPI PUSH1 0x40 MLOAD PUSH32 0x8C379A000000000000000000000000000000000000000000000000000000000 DUP2 MSTORE PUSH1 0x4 ADD PUSH2 0x9ED SWAP1 PUSH2 0x1C22 JUMP JUMPDEST PUSH1 0x40 MLOAD DUP1 SWAP2 SUB SWAP1 REVERT JUMPDEST PUSH0 PUSH1 0x2 PUSH0 DUP6 DUP2 MSTORE PUSH1 0x20 ADD SWAP1 DUP2 MSTORE PUSH1 0x20 ADD PUSH0 KECCAK256 PUSH1 0x2 ADD SLOAD SWAP1 POP DUP3 PUSH1 0x2 PUSH0 DUP7 DUP2 MSTORE PUSH1 0x20 ADD SWAP1 DUP2 MSTORE PUSH1 0x20 ADD PUSH0 KECCAK256 PUSH1 0x2 ADD DUP2 SWAP1 SSTORE POP PUSH0 PUSH1 0x3 PUSH1 0x4 PUSH0 DUP8 DUP2 MSTORE PUSH1 0x20 ADD SWAP1 DUP2 MSTORE PUSH1 0x20 ADD PUSH0 KECCAK256 SLOAD DUP2 SLOAD DUP2 LT PUSH2 0xA4D JUMPI PUSH2 0xA4C PUSH2 0x1B11 JUMP JUMPDEST JUMPDEST SWAP1 PUSH0 MSTORE PUSH1 0x20 PUSH0 KECCAK256 SWAP1 PUSH1 0x3 MUL ADD SWAP1 POP DUP4 DUP2 PUSH1 0x2 ADD DUP2 SWAP1 SSTORE POP PUSH32 0x342A7F6248980B0F191B96EB6B7A439C4DA78B2C97B86CA66CC7EE90D4B04CCE DUP4 DUP7 DUP5 DUP8 PUSH1 0x40 MLOAD PUSH2 0xA99 SWAP5 SWAP4 SWAP3 SWAP2 SWAP1 PUSH2 0x1C40 JUMP JUMPDEST PUSH1 0x40 MLOAD DUP1 SWAP2 SUB SWAP1 LOG1 POP POP POP POP POP JUMP JUMPDEST PUSH0 DUP2 PUSH1 0x20 DUP4 PUSH2 0xAB7 SWAP2 SWAP1 PUSH2 0x1C83 JUMP JUMPDEST LT ISZERO PUSH2 0xAF8 JUMPI PUSH1 0x40 MLOAD PUSH32 0x8C379A000000000000000000000000000000000000000000000000000000000 DUP2 MSTORE PUSH1 0x4 ADD PUSH2 0xAEF SWAP1 PUSH2 0x1D00 JUMP JUMPDEST PUSH1 0x40 MLOAD DUP1 SWAP2 SUB SWAP1 REVERT JUMPDEST PUSH1 0x20 DUP3 PUSH2 0xB05 SWAP2 SWAP1 PUSH2 0x1C83 JUMP JUMPDEST DUP4 MLOAD LT ISZERO PUSH2 0xB48 JUMPI PUSH1 0x40 MLOAD PUSH32 0x8C379A000000000000000000000000000000000000000000000000000000000 DUP2 MSTORE PUSH1 0x4 ADD PUSH2 0xB3F SWAP1 PUSH2 0x1D68 JUMP JUMPDEST PUSH1 0x40 MLOAD DUP1 SWAP2 SUB SWAP1 REVERT JUMPDEST PUSH0 DUP3 PUSH1 0x20 DUP6 ADD ADD MLOAD SWAP1 POP DUP1 SWAP2 POP POP SWAP3 SWAP2 POP POP JUMP JUMPDEST PUSH1 0x1 PUSH0 SWAP1 SLOAD SWAP1 PUSH2 0x100 EXP SWAP1 DIV PUSH20 0xFFFFFFFFFFFFFFFFFFFFFFFFFFFFFFFFFFFFFFFF AND DUP2 JUMP JUMPDEST PUSH2 0xB8A DUP2 PUSH2 0xEA7 JUMP JUMPDEST PUSH2 0xBC9 JUMPI PUSH1 0x40 MLOAD PUSH32 0x8C379A000000000000000000000000000000000000000000000000000000000 DUP2 MSTORE PUSH1 0x4 ADD PUSH2 0xBC0 SWAP1 PUSH2 0x1A2F JUMP JUMPDEST PUSH1 0x40 MLOAD DUP1 SWAP2 SUB SWAP1 REVERT JUMPDEST PUSH0 PUSH1 0x2 PUSH0 DUP4 DUP2 MSTORE PUSH1 0x20 ADD SWAP1 DUP2 MSTORE PUSH1 0x20 ADD PUSH0 KECCAK256 PUSH0 ADD PUSH0 SWAP1 SLOAD SWAP1 PUSH2 0x100 EXP SWAP1 DIV PUSH20 0xFFFFFFFFFFFFFFFFFFFFFFFFFFFFFFFFFFFFFFFF AND SWAP1 POP PUSH0 CALLER SWAP1 POP PUSH0 PUSH1 0x2 PUSH0 DUP6 DUP2 MSTORE PUSH1 0x20 ADD SWAP1 DUP2 MSTORE PUSH1 0x20 ADD PUSH0 KECCAK256 PUSH1 0x2 ADD SLOAD SWAP1 POP PUSH0 PUSH0 SWAP1 SLOAD SWAP1 PUSH2 0x100 EXP SWAP1 DIV PUSH20 0xFFFFFFFFFFFFFFFFFFFFFFFFFFFFFFFFFFFFFFFF AND PUSH20 0xFFFFFFFFFFFFFFFFFFFFFFFFFFFFFFFFFFFFFFFF AND PUSH4 0x23B872DD DUP4 DUP6 DUP5 PUSH1 0x40 MLOAD DUP5 PUSH4 0xFFFFFFFF AND PUSH1 0xE0 SHL DUP2 MSTORE PUSH1 0x4 ADD PUSH2 0xC78 SWAP4 SWAP3 SWAP2 SWAP1 PUSH2 0x1AB5 JUMP JUMPDEST PUSH1 0x20 PUSH1 0x40 MLOAD DUP1 DUP4 SUB DUP2 PUSH0 DUP8 GAS CALL ISZERO DUP1 ISZERO PUSH2 0xC94 JUMPI RETURNDATASIZE PUSH0 PUSH0 RETURNDATACOPY RETURNDATASIZE PUSH0 REVERT JUMPDEST POP POP POP POP PUSH1 0x40 MLOAD RETURNDATASIZE PUSH1 0x1F NOT PUSH1 0x1F DUP3 ADD AND DUP3 ADD DUP1 PUSH1 0x40 MSTORE POP DUP2 ADD SWAP1 PUSH2 0xCB8 SWAP2 SWAP1 PUSH2 0x1DB0 JUMP JUMPDEST PUSH2 0xCF7 JUMPI PUSH1 0x40 MLOAD PUSH32 0x8C379A000000000000000000000000000000000000000000000000000000000 DUP2 MSTORE PUSH1 0x4 ADD PUSH2 0xCEE SWAP1 PUSH2 0x1E4B JUMP JUMPDEST PUSH1 0x40 MLOAD DUP1 SWAP2 SUB SWAP1 REVERT JUMPDEST PUSH1 0x1 PUSH0 SWAP1 SLOAD SWAP1 PUSH2 0x100 EXP SWAP1 DIV PUSH20 0xFFFFFFFFFFFFFFFFFFFFFFFFFFFFFFFFFFFFFFFF AND PUSH20 0xFFFFFFFFFFFFFFFFFFFFFFFFFFFFFFFFFFFFFFFF AND PUSH4 0x42842E0E ADDRESS DUP5 DUP8 PUSH1 0x40 MLOAD DUP5 PUSH4 0xFFFFFFFF AND PUSH1 0xE0 SHL DUP2 MSTORE PUSH1 0x4 ADD PUSH2 0xD55 SWAP4 SWAP3 SWAP2 SWAP1 PUSH2 0x1AB5 JUMP JUMPDEST PUSH0 PUSH1 0x40 MLOAD DUP1 DUP4 SUB DUP2 PUSH0 DUP8 DUP1 EXTCODESIZE ISZERO DUP1 ISZERO PUSH2 0xD6C JUMPI PUSH0 PUSH0 REVERT JUMPDEST POP GAS CALL ISZERO DUP1 ISZERO PUSH2 0xD7E JUMPI RETURNDATASIZE PUSH0 PUSH0 RETURNDATACOPY RETURNDATASIZE PUSH0 REVERT JUMPDEST POP POP POP POP PUSH2 0xD8B DUP5 PUSH2 0x10EF JUMP JUMPDEST PUSH32 0x424D5E5F0192C7DACDBE646CA31B00299146D883D76A95EF5CDDBAC7CD342EAB DUP3 DUP5 DUP7 DUP5 PUSH1 0x40 MLOAD PUSH2 0xDC0 SWAP5 SWAP4 SWAP3 SWAP2 SWAP1 PUSH2 0x1E69 JUMP JUMPDEST PUSH1 0x40 MLOAD DUP1 SWAP2 SUB SWAP1 LOG1 POP POP POP POP JUMP JUMPDEST PUSH1 0x4 PUSH1 0x20 MSTORE DUP1 PUSH0 MSTORE PUSH1 0x40 PUSH0 KECCAK256 PUSH0 SWAP2 POP SWAP1 POP SLOAD DUP2 JUMP JUMPDEST PUSH1 0x60 PUSH1 0x3 DUP1 SLOAD DUP1 PUSH1 0x20 MUL PUSH1 0x20 ADD PUSH1 0x40 MLOAD SWAP1 DUP2 ADD PUSH1 0x40 MSTORE DUP1 SWAP3 SWAP2 SWAP1 DUP2 DUP2 MSTORE PUSH1 0x20 ADD PUSH0 SWAP1 JUMPDEST DUP3 DUP3 LT ISZERO PUSH2 0xE9E JUMPI DUP4 DUP3 SWAP1 PUSH0 MSTORE PUSH1 0x20 PUSH0 KECCAK256 SWAP1 PUSH1 0x3 MUL ADD PUSH1 0x40 MLOAD DUP1 PUSH1 0x60 ADD PUSH1 0x40 MSTORE SWAP1 DUP2 PUSH0 DUP3 ADD PUSH0 SWAP1 SLOAD SWAP1 PUSH2 0x100 EXP SWAP1 DIV PUSH20 0xFFFFFFFFFFFFFFFFFFFFFFFFFFFFFFFFFFFFFFFF AND PUSH20 0xFFFFFFFFFFFFFFFFFFFFFFFFFFFFFFFFFFFFFFFF AND PUSH20 0xFFFFFFFFFFFFFFFFFFFFFFFFFFFFFFFFFFFFFFFF AND DUP2 MSTORE PUSH1 0x20 ADD PUSH1 0x1 DUP3 ADD SLOAD DUP2 MSTORE PUSH1 0x20 ADD PUSH1 0x2 DUP3 ADD SLOAD DUP2 MSTORE POP POP DUP2 MSTORE PUSH1 0x20 ADD SWAP1 PUSH1 0x1 ADD SWAP1 PUSH2 0xE06 JUMP JUMPDEST POP POP POP POP SWAP1 POP SWAP1 JUMP JUMPDEST PUSH0 PUSH0 PUSH20 0xFFFFFFFFFFFFFFFFFFFFFFFFFFFFFFFFFFFFFFFF AND PUSH1 0x2 PUSH0 DUP5 DUP2 MSTORE PUSH1 0x20 ADD SWAP1 DUP2 MSTORE PUSH1 0x20 ADD PUSH0 KECCAK256 PUSH0 ADD PUSH0 SWAP1 SLOAD SWAP1 PUSH2 0x100 EXP SWAP1 DIV PUSH20 0xFFFFFFFFFFFFFFFFFFFFFFFFFFFFFFFFFFFFFFFF AND PUSH20 0xFFFFFFFFFFFFFFFFFFFFFFFFFFFFFFFFFFFFFFFF AND EQ ISZERO SWAP1 POP SWAP2 SWAP1 POP JUMP JUMPDEST PUSH0 DUP2 GT PUSH2 0xF53 JUMPI PUSH1 0x40 MLOAD PUSH32 0x8C379A000000000000000000000000000000000000000000000000000000000 DUP2 MSTORE PUSH1 0x4 ADD PUSH2 0xF4A SWAP1 PUSH2 0x1C22 JUMP JUMPDEST PUSH1 0x40 MLOAD DUP1 SWAP2 SUB SWAP1 REVERT JUMPDEST DUP3 PUSH1 0x2 PUSH0 DUP5 DUP2 MSTORE PUSH1 0x20 ADD SWAP1 DUP2 MSTORE PUSH1 0x20 ADD PUSH0 KECCAK256 PUSH0 ADD PUSH0 PUSH2 0x100 EXP DUP2 SLOAD DUP2 PUSH20 0xFFFFFFFFFFFFFFFFFFFFFFFFFFFFFFFFFFFFFFFF MUL NOT AND SWAP1 DUP4 PUSH20 0xFFFFFFFFFFFFFFFFFFFFFFFFFFFFFFFFFFFFFFFF AND MUL OR SWAP1 SSTORE POP DUP1 PUSH1 0x2 PUSH0 DUP5 DUP2 MSTORE PUSH1 0x20 ADD SWAP1 DUP2 MSTORE PUSH1 0x20 ADD PUSH0 KECCAK256 PUSH1 0x2 ADD DUP2 SWAP1 SSTORE POP DUP2 PUSH1 0x2 PUSH0 DUP5 DUP2 MSTORE PUSH1 0x20 ADD SWAP1 DUP2 MSTORE PUSH1 0x20 ADD PUSH0 KECCAK256 PUSH1 0x1 ADD DUP2 SWAP1 SSTORE POP PUSH1 0x3 PUSH1 0x2 PUSH0 DUP5 DUP2 MSTORE PUSH1 0x20 ADD SWAP1 DUP2 MSTORE PUSH1 0x20 ADD PUSH0 KECCAK256 SWAP1 DUP1 PUSH1 0x1 DUP2 SLOAD ADD DUP1 DUP3 SSTORE DUP1 SWAP2 POP POP PUSH1 0x1 SWAP1 SUB SWAP1 PUSH0 MSTORE PUSH1 0x20 PUSH0 KECCAK256 SWAP1 PUSH1 0x3 MUL ADD PUSH0 SWAP1 SWAP2 SWAP1 SWAP2 SWAP1 SWAP2 POP PUSH0 DUP3 ADD PUSH0 SWAP1 SLOAD SWAP1 PUSH2 0x100 EXP SWAP1 DIV PUSH20 0xFFFFFFFFFFFFFFFFFFFFFFFFFFFFFFFFFFFFFFFF AND DUP2 PUSH0 ADD PUSH0 PUSH2 0x100 EXP DUP2 SLOAD DUP2 PUSH20 0xFFFFFFFFFFFFFFFFFFFFFFFFFFFFFFFFFFFFFFFF MUL NOT AND SWAP1 DUP4 PUSH20 0xFFFFFFFFFFFFFFFFFFFFFFFFFFFFFFFFFFFFFFFF AND MUL OR SWAP1 SSTORE POP PUSH1 0x1 DUP3 ADD SLOAD DUP2 PUSH1 0x1 ADD SSTORE PUSH1 0x2 DUP3 ADD SLOAD DUP2 PUSH1 0x2 ADD SSTORE POP POP PUSH1 0x1 PUSH1 0x3 DUP1 SLOAD SWAP1 POP PUSH2 0x109A SWAP2 SWAP1 PUSH2 0x1EAC JUMP JUMPDEST PUSH1 0x4 PUSH0 DUP5 DUP2 MSTORE PUSH1 0x20 ADD SWAP1 DUP2 MSTORE PUSH1 0x20 ADD PUSH0 KECCAK256 DUP2 SWAP1 SSTORE POP PUSH32 0xD5B509E657D5EC37AE4BDCAB658B7340C0453BB630516D26623359A34C1CECF3 DUP4 DUP4 DUP4 PUSH1 0x40 MLOAD PUSH2 0x10E2 SWAP4 SWAP3 SWAP2 SWAP1 PUSH2 0x1549 JUMP JUMPDEST PUSH1 0x40 MLOAD DUP1 SWAP2 SUB SWAP1 LOG1 POP POP POP JUMP JUMPDEST PUSH1 0x2 PUSH0 DUP3 DUP2 MSTORE PUSH1 0x20 ADD SWAP1 DUP2 MSTORE PUSH1 0x20 ADD PUSH0 KECCAK256 PUSH0 PUSH0 DUP3 ADD PUSH0 PUSH2 0x100 EXP DUP2 SLOAD SWAP1 PUSH20 0xFFFFFFFFFFFFFFFFFFFFFFFFFFFFFFFFFFFFFFFF MUL NOT AND SWAP1 SSTORE PUSH1 0x1 DUP3 ADD PUSH0 SWAP1 SSTORE PUSH1 0x2 DUP3 ADD PUSH0 SWAP1 SSTORE POP POP PUSH0 PUSH1 0x4 PUSH0 DUP4 DUP2 MSTORE PUSH1 0x20 ADD SWAP1 DUP2 MSTORE PUSH1 0x20 ADD PUSH0 KECCAK256 SLOAD SWAP1 POP PUSH0 PUSH1 0x1 PUSH1 0x3 DUP1 SLOAD SWAP1 POP PUSH2 0x115E SWAP2 SWAP1 PUSH2 0x1EAC JUMP JUMPDEST SWAP1 POP DUP2 DUP2 EQ PUSH2 0x1295 JUMPI PUSH0 PUSH1 0x3 DUP3 DUP2 SLOAD DUP2 LT PUSH2 0x117C JUMPI PUSH2 0x117B PUSH2 0x1B11 JUMP JUMPDEST JUMPDEST SWAP1 PUSH0 MSTORE PUSH1 0x20 PUSH0 KECCAK256 SWAP1 PUSH1 0x3 MUL ADD PUSH1 0x40 MLOAD DUP1 PUSH1 0x60 ADD PUSH1 0x40 MSTORE SWAP1 DUP2 PUSH0 DUP3 ADD PUSH0 SWAP1 SLOAD SWAP1 PUSH2 0x100 EXP SWAP1 DIV PUSH20 0xFFFFFFFFFFFFFFFFFFFFFFFFFFFFFFFFFFFFFFFF AND PUSH20 0xFFFFFFFFFFFFFFFFFFFFFFFFFFFFFFFFFFFFFFFF AND PUSH20 0xFFFFFFFFFFFFFFFFFFFFFFFFFFFFFFFFFFFFFFFF AND DUP2 MSTORE PUSH1 0x20 ADD PUSH1 0x1 DUP3 ADD SLOAD DUP2 MSTORE PUSH1 0x20 ADD PUSH1 0x2 DUP3 ADD SLOAD DUP2 MSTORE POP POP SWAP1 POP DUP1 PUSH1 0x3 DUP5 DUP2 SLOAD DUP2 LT PUSH2 0x1212 JUMPI PUSH2 0x1211 PUSH2 0x1B11 JUMP JUMPDEST JUMPDEST SWAP1 PUSH0 MSTORE PUSH1 0x20 PUSH0 KECCAK256 SWAP1 PUSH1 0x3 MUL ADD PUSH0 DUP3 ADD MLOAD DUP2 PUSH0 ADD PUSH0 PUSH2 0x100 EXP DUP2 SLOAD DUP2 PUSH20 0xFFFFFFFFFFFFFFFFFFFFFFFFFFFFFFFFFFFFFFFF MUL NOT AND SWAP1 DUP4 PUSH20 0xFFFFFFFFFFFFFFFFFFFFFFFFFFFFFFFFFFFFFFFF AND MUL OR SWAP1 SSTORE POP PUSH1 0x20 DUP3 ADD MLOAD DUP2 PUSH1 0x1 ADD SSTORE PUSH1 0x40 DUP3 ADD MLOAD DUP2 PUSH1 0x2 ADD SSTORE SWAP1 POP POP DUP3 PUSH1 0x4 PUSH0 DUP4 PUSH1 0x20 ADD MLOAD DUP2 MSTORE PUSH1 0x20 ADD SWAP1 DUP2 MSTORE PUSH1 0x20 ADD PUSH0 KECCAK256 DUP2 SWAP1 SSTORE POP POP JUMPDEST PUSH1 0x3 DUP1 SLOAD DUP1 PUSH2 0x12A7 JUMPI PUSH2 0x12A6 PUSH2 0x1EDF JUMP JUMPDEST JUMPDEST PUSH1 0x1 SWAP1 SUB DUP2 DUP2 SWAP1 PUSH0 MSTORE PUSH1 0x20 PUSH0 KECCAK256 SWAP1 PUSH1 0x3 MUL ADD PUSH0 PUSH0 DUP3 ADD PUSH0 PUSH2 0x100 EXP DUP2 SLOAD SWAP1 PUSH20 0xFFFFFFFFFFFFFFFFFFFFFFFFFFFFFFFFFFFFFFFF MUL NOT AND SWAP1 SSTORE PUSH1 0x1 DUP3 ADD PUSH0 SWAP1 SSTORE PUSH1 0x2 DUP3 ADD PUSH0 SWAP1 SSTORE POP POP SWAP1 SSTORE POP POP POP JUMP JUMPDEST PUSH1 0x40 MLOAD DUP1 PUSH1 0x60 ADD PUSH1 0x40 MSTORE DUP1 PUSH0 PUSH20 0xFFFFFFFFFFFFFFFFFFFFFFFFFFFFFFFFFFFFFFFF AND DUP2 MSTORE PUSH1 0x20 ADD PUSH0 DUP2 MSTORE PUSH1 0x20 ADD PUSH0 DUP2 MSTORE POP SWAP1 JUMP JUMPDEST PUSH0 PUSH1 0x40 MLOAD SWAP1 POP SWAP1 JUMP JUMPDEST PUSH0 PUSH0 REVERT JUMPDEST PUSH0 PUSH0 REVERT JUMPDEST PUSH0 PUSH20 0xFFFFFFFFFFFFFFFFFFFFFFFFFFFFFFFFFFFFFFFF DUP3 AND SWAP1 POP SWAP2 SWAP1 POP JUMP JUMPDEST PUSH0 PUSH2 0x1364 DUP3 PUSH2 0x133B JUMP JUMPDEST SWAP1 POP SWAP2 SWAP1 POP JUMP JUMPDEST PUSH2 0x1374 DUP2 PUSH2 0x135A JUMP JUMPDEST DUP2 EQ PUSH2 0x137E JUMPI PUSH0 PUSH0 REVERT JUMPDEST POP JUMP JUMPDEST PUSH0 DUP2 CALLDATALOAD SWAP1 POP PUSH2 0x138F DUP2 PUSH2 0x136B JUMP JUMPDEST SWAP3 SWAP2 POP POP JUMP JUMPDEST PUSH0 DUP2 SWAP1 POP SWAP2 SWAP1 POP JUMP JUMPDEST PUSH2 0x13A7 DUP2 PUSH2 0x1395 JUMP JUMPDEST DUP2 EQ PUSH2 0x13B1 JUMPI PUSH0 PUSH0 REVERT JUMPDEST POP JUMP JUMPDEST PUSH0 DUP2 CALLDATALOAD SWAP1 POP PUSH2 0x13C2 DUP2 PUSH2 0x139E JUMP JUMPDEST SWAP3 SWAP2 POP POP JUMP JUMPDEST PUSH0 PUSH0 REVERT JUMPDEST PUSH0 PUSH0 REVERT JUMPDEST PUSH0 PUSH0 REVERT JUMPDEST PUSH0 PUSH0 DUP4 PUSH1 0x1F DUP5 ADD SLT PUSH2 0x13E9 JUMPI PUSH2 0x13E8 PUSH2 0x13C8 JUMP JUMPDEST JUMPDEST DUP3 CALLDATALOAD SWAP1 POP PUSH8 0xFFFFFFFFFFFFFFFF DUP2 GT ISZERO PUSH2 0x1406 JUMPI PUSH2 0x1405 PUSH2 0x13CC JUMP JUMPDEST JUMPDEST PUSH1 0x20 DUP4 ADD SWAP2 POP DUP4 PUSH1 0x1 DUP3 MUL DUP4 ADD GT ISZERO PUSH2 0x1422 JUMPI PUSH2 0x1421 PUSH2 0x13D0 JUMP JUMPDEST JUMPDEST SWAP3 POP SWAP3 SWAP1 POP JUMP JUMPDEST PUSH0 PUSH0 PUSH0 PUSH0 PUSH0 PUSH1 0x80 DUP7 DUP9 SUB SLT ISZERO PUSH2 0x1442 JUMPI PUSH2 0x1441 PUSH2 0x1333 JUMP JUMPDEST JUMPDEST PUSH0 PUSH2 0x144F DUP9 DUP3 DUP10 ADD PUSH2 0x1381 JUMP JUMPDEST SWAP6 POP POP PUSH1 0x20 PUSH2 0x1460 DUP9 DUP3 DUP10 ADD PUSH2 0x1381 JUMP JUMPDEST SWAP5 POP POP PUSH1 0x40 PUSH2 0x1471 DUP9 DUP3 DUP10 ADD PUSH2 0x13B4 JUMP JUMPDEST SWAP4 POP POP PUSH1 0x60 DUP7 ADD CALLDATALOAD PUSH8 0xFFFFFFFFFFFFFFFF DUP2 GT ISZERO PUSH2 0x1492 JUMPI PUSH2 0x1491 PUSH2 0x1337 JUMP JUMPDEST JUMPDEST PUSH2 0x149E DUP9 DUP3 DUP10 ADD PUSH2 0x13D4 JUMP JUMPDEST SWAP3 POP SWAP3 POP POP SWAP3 SWAP6 POP SWAP3 SWAP6 SWAP1 SWAP4 POP JUMP JUMPDEST PUSH0 PUSH32 0xFFFFFFFF00000000000000000000000000000000000000000000000000000000 DUP3 AND SWAP1 POP SWAP2 SWAP1 POP JUMP JUMPDEST PUSH2 0x14E1 DUP2 PUSH2 0x14AD JUMP JUMPDEST DUP3 MSTORE POP POP JUMP JUMPDEST PUSH0 PUSH1 0x20 DUP3 ADD SWAP1 POP PUSH2 0x14FA PUSH0 DUP4 ADD DUP5 PUSH2 0x14D8 JUMP JUMPDEST SWAP3 SWAP2 POP POP JUMP JUMPDEST PUSH0 PUSH1 0x20 DUP3 DUP5 SUB SLT ISZERO PUSH2 0x1515 JUMPI PUSH2 0x1514 PUSH2 0x1333 JUMP JUMPDEST JUMPDEST PUSH0 PUSH2 0x1522 DUP5 DUP3 DUP6 ADD PUSH2 0x13B4 JUMP JUMPDEST SWAP2 POP POP SWAP3 SWAP2 POP POP JUMP JUMPDEST PUSH2 0x1534 DUP2 PUSH2 0x135A JUMP JUMPDEST DUP3 MSTORE POP POP JUMP JUMPDEST PUSH2 0x1543 DUP2 PUSH2 0x1395 JUMP JUMPDEST DUP3 MSTORE POP POP JUMP JUMPDEST PUSH0 PUSH1 0x60 DUP3 ADD SWAP1 POP PUSH2 0x155C PUSH0 DUP4 ADD DUP7 PUSH2 0x152B JUMP JUMPDEST PUSH2 0x1569 PUSH1 0x20 DUP4 ADD DUP6 PUSH2 0x153A JUMP JUMPDEST PUSH2 0x1576 PUSH1 0x40 DUP4 ADD DUP5 PUSH2 0x153A JUMP JUMPDEST SWAP5 SWAP4 POP POP POP POP JUMP JUMPDEST PUSH0 DUP2 MLOAD SWAP1 POP SWAP2 SWAP1 POP JUMP JUMPDEST PUSH0 DUP3 DUP3 MSTORE PUSH1 0x20 DUP3 ADD SWAP1 POP SWAP3 SWAP2 POP POP JUMP JUMPDEST PUSH0 DUP2 SWAP1 POP PUSH1 0x20 DUP3 ADD SWAP1 POP SWAP2 SWAP1 POP JUMP JUMPDEST PUSH2 0x15B0 DUP2 PUSH2 0x135A JUMP JUMPDEST DUP3 MSTORE POP POP JUMP JUMPDEST PUSH2 0x15BF DUP2 PUSH2 0x1395 JUMP JUMPDEST DUP3 MSTORE POP POP JUMP JUMPDEST PUSH1 0x60 DUP3 ADD PUSH0 DUP3 ADD MLOAD PUSH2 0x15D9 PUSH0 DUP6 ADD DUP3 PUSH2 0x15A7 JUMP JUMPDEST POP PUSH1 0x20 DUP3 ADD MLOAD PUSH2 0x15EC PUSH1 0x20 DUP6 ADD DUP3 PUSH2 0x15B6 JUMP JUMPDEST POP PUSH1 0x40 DUP3 ADD MLOAD PUSH2 0x15FF PUSH1 0x40 DUP6 ADD DUP3 PUSH2 0x15B6 JUMP JUMPDEST POP POP POP POP JUMP JUMPDEST PUSH0 PUSH2 0x1610 DUP4 DUP4 PUSH2 0x15C5 JUMP JUMPDEST PUSH1 0x60 DUP4 ADD SWAP1 POP SWAP3 SWAP2 POP POP JUMP JUMPDEST PUSH0 PUSH1 0x20 DUP3 ADD SWAP1 POP SWAP2 SWAP1 POP JUMP JUMPDEST PUSH0 PUSH2 0x1632 DUP3 PUSH2 0x157E JUMP JUMPDEST PUSH2 0x163C DUP2 DUP6 PUSH2 0x1588 JUMP JUMPDEST SWAP4 POP PUSH2 0x1647 DUP4 PUSH2 0x1598 JUMP JUMPDEST DUP1 PUSH0 JUMPDEST DUP4 DUP2 LT ISZERO PUSH2 0x1677 JUMPI DUP2 MLOAD PUSH2 0x165E DUP9 DUP3 PUSH2 0x1605 JUMP JUMPDEST SWAP8 POP PUSH2 0x1669 DUP4 PUSH2 0x161C JUMP JUMPDEST SWAP3 POP POP PUSH1 0x1 DUP2 ADD SWAP1 POP PUSH2 0x164A JUMP JUMPDEST POP DUP6 SWAP4 POP POP POP POP SWAP3 SWAP2 POP POP JUMP JUMPDEST PUSH0 PUSH1 0x20 DUP3 ADD SWAP1 POP DUP2 DUP2 SUB PUSH0 DUP4 ADD MSTORE PUSH2 0x169C DUP2 DUP5 PUSH2 0x1628 JUMP JUMPDEST SWAP1 POP SWAP3 SWAP2 POP POP JUMP JUMPDEST PUSH0 DUP2 SWAP1 POP SWAP2 SWAP1 POP JUMP JUMPDEST PUSH0 PUSH2 0x16C7 PUSH2 0x16C2 PUSH2 0x16BD DUP5 PUSH2 0x133B JUMP JUMPDEST PUSH2 0x16A4 JUMP JUMPDEST PUSH2 0x133B JUMP JUMPDEST SWAP1 POP SWAP2 SWAP1 POP JUMP JUMPDEST PUSH0 PUSH2 0x16D8 DUP3 PUSH2 0x16AD JUMP JUMPDEST SWAP1 POP SWAP2 SWAP1 POP JUMP JUMPDEST PUSH0 PUSH2 0x16E9 DUP3 PUSH2 0x16CE JUMP JUMPDEST SWAP1 POP SWAP2 SWAP1 POP JUMP JUMPDEST PUSH2 0x16F9 DUP2 PUSH2 0x16DF JUMP JUMPDEST DUP3 MSTORE POP POP JUMP JUMPDEST PUSH0 PUSH1 0x20 DUP3 ADD SWAP1 POP PUSH2 0x1712 PUSH0 DUP4 ADD DUP5 PUSH2 0x16F0 JUMP JUMPDEST SWAP3 SWAP2 POP POP JUMP JUMPDEST PUSH0 PUSH1 0x20 DUP3 ADD SWAP1 POP PUSH2 0x172B PUSH0 DUP4 ADD DUP5 PUSH2 0x153A JUMP JUMPDEST SWAP3 SWAP2 POP POP JUMP JUMPDEST PUSH0 PUSH0 PUSH1 0x40 DUP4 DUP6 SUB SLT ISZERO PUSH2 0x1747 JUMPI PUSH2 0x1746 PUSH2 0x1333 JUMP JUMPDEST JUMPDEST PUSH0 PUSH2 0x1754 DUP6 DUP3 DUP7 ADD PUSH2 0x13B4 JUMP JUMPDEST SWAP3 POP POP PUSH1 0x20 PUSH2 0x1765 DUP6 DUP3 DUP7 ADD PUSH2 0x13B4 JUMP JUMPDEST SWAP2 POP POP SWAP3 POP SWAP3 SWAP1 POP JUMP JUMPDEST PUSH0 PUSH0 REVERT JUMPDEST PUSH0 PUSH1 0x1F NOT PUSH1 0x1F DUP4 ADD AND SWAP1 POP SWAP2 SWAP1 POP JUMP JUMPDEST PUSH32 0x4E487B7100000000000000000000000000000000000000000000000000000000 PUSH0 MSTORE PUSH1 0x41 PUSH1 0x4 MSTORE PUSH1 0x24 PUSH0 REVERT JUMPDEST PUSH2 0x17B9 DUP3 PUSH2 0x1773 JUMP JUMPDEST DUP2 ADD DUP2 DUP2 LT PUSH8 0xFFFFFFFFFFFFFFFF DUP3 GT OR ISZERO PUSH2 0x17D8 JUMPI PUSH2 0x17D7 PUSH2 0x1783 JUMP JUMPDEST JUMPDEST DUP1 PUSH1 0x40 MSTORE POP POP POP JUMP JUMPDEST PUSH0 PUSH2 0x17EA PUSH2 0x132A JUMP JUMPDEST SWAP1 POP PUSH2 0x17F6 DUP3 DUP3 PUSH2 0x17B0 JUMP JUMPDEST SWAP2 SWAP1 POP JUMP JUMPDEST PUSH0 PUSH8 0xFFFFFFFFFFFFFFFF DUP3 GT ISZERO PUSH2 0x1815 JUMPI PUSH2 0x1814 PUSH2 0x1783 JUMP JUMPDEST JUMPDEST PUSH2 0x181E DUP3 PUSH2 0x1773 JUMP JUMPDEST SWAP1 POP PUSH1 0x20 DUP2 ADD SWAP1 POP SWAP2 SWAP1 POP JUMP JUMPDEST DUP3 DUP2 DUP4 CALLDATACOPY PUSH0 DUP4 DUP4 ADD MSTORE POP POP POP JUMP JUMPDEST PUSH0 PUSH2 0x184B PUSH2 0x1846 DUP5 PUSH2 0x17FB JUMP JUMPDEST PUSH2 0x17E1 JUMP JUMPDEST SWAP1 POP DUP3 DUP2 MSTORE PUSH1 0x20 DUP2 ADD DUP5 DUP5 DUP5 ADD GT ISZERO PUSH2 0x1867 JUMPI PUSH2 0x1866 PUSH2 0x176F JUMP JUMPDEST JUMPDEST PUSH2 0x1872 DUP5 DUP3 DUP6 PUSH2 0x182B JUMP JUMPDEST POP SWAP4 SWAP3 POP POP POP JUMP JUMPDEST PUSH0 DUP3 PUSH1 0x1F DUP4 ADD SLT PUSH2 0x188E JUMPI PUSH2 0x188D PUSH2 0x13C8 JUMP JUMPDEST JUMPDEST DUP2 CALLDATALOAD PUSH2 0x189E DUP5 DUP3 PUSH1 0x20 DUP7 ADD PUSH2 0x1839 JUMP JUMPDEST SWAP2 POP POP SWAP3 SWAP2 POP POP JUMP JUMPDEST PUSH0 PUSH0 PUSH1 0x40 DUP4 DUP6 SUB SLT ISZERO PUSH2 0x18BD JUMPI PUSH2 0x18BC PUSH2 0x1333 JUMP JUMPDEST JUMPDEST PUSH0 DUP4 ADD CALLDATALOAD PUSH8 0xFFFFFFFFFFFFFFFF DUP2 GT ISZERO PUSH2 0x18DA JUMPI PUSH2 0x18D9 PUSH2 0x1337 JUMP JUMPDEST JUMPDEST PUSH2 0x18E6 DUP6 DUP3 DUP7 ADD PUSH2 0x187A JUMP JUMPDEST SWAP3 POP POP PUSH1 0x20 PUSH2 0x18F7 DUP6 DUP3 DUP7 ADD PUSH2 0x13B4 JUMP JUMPDEST SWAP2 POP POP SWAP3 POP SWAP3 SWAP1 POP JUMP JUMPDEST PUSH0 PUSH2 0x190B DUP3 PUSH2 0x16CE JUMP JUMPDEST SWAP1 POP SWAP2 SWAP1 POP JUMP JUMPDEST PUSH2 0x191B DUP2 PUSH2 0x1901 JUMP JUMPDEST DUP3 MSTORE POP POP JUMP JUMPDEST PUSH0 PUSH1 0x20 DUP3 ADD SWAP1 POP PUSH2 0x1934 PUSH0 DUP4 ADD DUP5 PUSH2 0x1912 JUMP JUMPDEST SWAP3 SWAP2 POP POP JUMP JUMPDEST PUSH0 DUP2 ISZERO ISZERO SWAP1 POP SWAP2 SWAP1 POP JUMP JUMPDEST PUSH2 0x194E DUP2 PUSH2 0x193A JUMP JUMPDEST DUP3 MSTORE POP POP JUMP JUMPDEST PUSH0 PUSH1 0x20 DUP3 ADD SWAP1 POP PUSH2 0x1967 PUSH0 DUP4 ADD DUP5 PUSH2 0x1945 JUMP JUMPDEST SWAP3 SWAP2 POP POP JUMP JUMPDEST PUSH0 DUP3 DUP3 MSTORE PUSH1 0x20 DUP3 ADD SWAP1 POP SWAP3 SWAP2 POP POP JUMP JUMPDEST PUSH32 0x4D61726B65743A2053656C6C6572206D757374206265206F70657261746F7200 PUSH0 DUP3 ADD MSTORE POP JUMP JUMPDEST PUSH0 PUSH2 0x19B1 PUSH1 0x1F DUP4 PUSH2 0x196D JUMP JUMPDEST SWAP2 POP PUSH2 0x19BC DUP3 PUSH2 0x197D JUMP JUMPDEST PUSH1 0x20 DUP3 ADD SWAP1 POP SWAP2 SWAP1 POP JUMP JUMPDEST PUSH0 PUSH1 0x20 DUP3 ADD SWAP1 POP DUP2 DUP2 SUB PUSH0 DUP4 ADD MSTORE PUSH2 0x19DE DUP2 PUSH2 0x19A5 JUMP JUMPDEST SWAP1 POP SWAP2 SWAP1 POP JUMP JUMPDEST PUSH32 0x4D61726B65743A20546F6B656E204944206973206E6F74206C69737465640000 PUSH0 DUP3 ADD MSTORE POP JUMP JUMPDEST PUSH0 PUSH2 0x1A19 PUSH1 0x1E DUP4 PUSH2 0x196D JUMP JUMPDEST SWAP2 POP PUSH2 0x1A24 DUP3 PUSH2 0x19E5 JUMP JUMPDEST PUSH1 0x20 DUP3 ADD SWAP1 POP SWAP2 SWAP1 POP JUMP JUMPDEST PUSH0 PUSH1 0x20 DUP3 ADD SWAP1 POP DUP2 DUP2 SUB PUSH0 DUP4 ADD MSTORE PUSH2 0x1A46 DUP2 PUSH2 0x1A0D JUMP JUMPDEST SWAP1 POP SWAP2 SWAP1 POP JUMP JUMPDEST PUSH32 0x4D61726B65743A2053656E646572206973206E6F742073656C6C657200000000 PUSH0 DUP3 ADD MSTORE POP JUMP JUMPDEST PUSH0 PUSH2 0x1A81 PUSH1 0x1C DUP4 PUSH2 0x196D JUMP JUMPDEST SWAP2 POP PUSH2 0x1A8C DUP3 PUSH2 0x1A4D JUMP JUMPDEST PUSH1 0x20 DUP3 ADD SWAP1 POP SWAP2 SWAP1 POP JUMP JUMPDEST PUSH0 PUSH1 0x20 DUP3 ADD SWAP1 POP DUP2 DUP2 SUB PUSH0 DUP4 ADD MSTORE PUSH2 0x1AAE DUP2 PUSH2 0x1A75 JUMP JUMPDEST SWAP1 POP SWAP2 SWAP1 POP JUMP JUMPDEST PUSH0 PUSH1 0x60 DUP3 ADD SWAP1 POP PUSH2 0x1AC8 PUSH0 DUP4 ADD DUP7 PUSH2 0x152B JUMP JUMPDEST PUSH2 0x1AD5 PUSH1 0x20 DUP4 ADD DUP6 PUSH2 0x152B JUMP JUMPDEST PUSH2 0x1AE2 PUSH1 0x40 DUP4 ADD DUP5 PUSH2 0x153A JUMP JUMPDEST SWAP5 SWAP4 POP POP POP POP JUMP JUMPDEST PUSH0 PUSH1 0x40 DUP3 ADD SWAP1 POP PUSH2 0x1AFD PUSH0 DUP4 ADD DUP6 PUSH2 0x152B JUMP JUMPDEST PUSH2 0x1B0A PUSH1 0x20 DUP4 ADD DUP5 PUSH2 0x153A JUMP JUMPDEST SWAP4 SWAP3 POP POP POP JUMP JUMPDEST PUSH32 0x4E487B7100000000000000000000000000000000000000000000000000000000 PUSH0 MSTORE PUSH1 0x32 PUSH1 0x4 MSTORE PUSH1 0x24 PUSH0 REVERT JUMPDEST PUSH32 0x4E487B7100000000000000000000000000000000000000000000000000000000 PUSH0 MSTORE PUSH1 0x11 PUSH1 0x4 MSTORE PUSH1 0x24 PUSH0 REVERT JUMPDEST PUSH0 PUSH2 0x1B75 DUP3 PUSH2 0x1395 JUMP JUMPDEST SWAP2 POP PUSH32 0xFFFFFFFFFFFFFFFFFFFFFFFFFFFFFFFFFFFFFFFFFFFFFFFFFFFFFFFFFFFFFFFF DUP3 SUB PUSH2 0x1BA7 JUMPI PUSH2 0x1BA6 PUSH2 0x1B3E JUMP JUMPDEST JUMPDEST PUSH1 0x1 DUP3 ADD SWAP1 POP SWAP2 SWAP1 POP JUMP JUMPDEST PUSH32 0x4D61726B65743A205072696365206D7573742062652067726561746572207468 PUSH0 DUP3 ADD MSTORE PUSH32 0x616E207A65726F00000000000000000000000000000000000000000000000000 PUSH1 0x20 DUP3 ADD MSTORE POP JUMP JUMPDEST PUSH0 PUSH2 0x1C0C PUSH1 0x27 DUP4 PUSH2 0x196D JUMP JUMPDEST SWAP2 POP PUSH2 0x1C17 DUP3 PUSH2 0x1BB2 JUMP JUMPDEST PUSH1 0x40 DUP3 ADD SWAP1 POP SWAP2 SWAP1 POP JUMP JUMPDEST PUSH0 PUSH1 0x20 DUP3 ADD SWAP1 POP DUP2 DUP2 SUB PUSH0 DUP4 ADD MSTORE PUSH2 0x1C39 DUP2 PUSH2 0x1C00 JUMP JUMPDEST SWAP1 POP SWAP2 SWAP1 POP JUMP JUMPDEST PUSH0 PUSH1 0x80 DUP3 ADD SWAP1 POP PUSH2 0x1C53 PUSH0 DUP4 ADD DUP8 PUSH2 0x152B JUMP JUMPDEST PUSH2 0x1C60 PUSH1 0x20 DUP4 ADD DUP7 PUSH2 0x153A JUMP JUMPDEST PUSH2 0x1C6D PUSH1 0x40 DUP4 ADD DUP6 PUSH2 0x153A JUMP JUMPDEST PUSH2 0x1C7A PUSH1 0x60 DUP4 ADD DUP5 PUSH2 0x153A JUMP JUMPDEST SWAP6 SWAP5 POP POP POP POP POP JUMP JUMPDEST PUSH0 PUSH2 0x1C8D DUP3 PUSH2 0x1395 JUMP JUMPDEST SWAP2 POP PUSH2 0x1C98 DUP4 PUSH2 0x1395 JUMP JUMPDEST SWAP3 POP DUP3 DUP3 ADD SWAP1 POP DUP1 DUP3 GT ISZERO PUSH2 0x1CB0 JUMPI PUSH2 0x1CAF PUSH2 0x1B3E JUMP JUMPDEST JUMPDEST SWAP3 SWAP2 POP POP JUMP JUMPDEST PUSH32 0x4D61726B65743A20746F55696E743235365F6F766572666C6F77000000000000 PUSH0 DUP3 ADD MSTORE POP JUMP JUMPDEST PUSH0 PUSH2 0x1CEA PUSH1 0x1A DUP4 PUSH2 0x196D JUMP JUMPDEST SWAP2 POP PUSH2 0x1CF5 DUP3 PUSH2 0x1CB6 JUMP JUMPDEST PUSH1 0x20 DUP3 ADD SWAP1 POP SWAP2 SWAP1 POP JUMP JUMPDEST PUSH0 PUSH1 0x20 DUP3 ADD SWAP1 POP DUP2 DUP2 SUB PUSH0 DUP4 ADD MSTORE PUSH2 0x1D17 DUP2 PUSH2 0x1CDE JUMP JUMPDEST SWAP1 POP SWAP2 SWAP1 POP JUMP JUMPDEST PUSH32 0x4D61726B65743A20746F55696E743235365F6F75744F66426F756E6473000000 PUSH0 DUP3 ADD MSTORE POP JUMP JUMPDEST PUSH0 PUSH2 0x1D52 PUSH1 0x1D DUP4 PUSH2 0x196D JUMP JUMPDEST SWAP2 POP PUSH2 0x1D5D DUP3 PUSH2 0x1D1E JUMP JUMPDEST PUSH1 0x20 DUP3 ADD SWAP1 POP SWAP2 SWAP1 POP JUMP JUMPDEST PUSH0 PUSH1 0x20 DUP3 ADD SWAP1 POP DUP2 DUP2 SUB PUSH0 DUP4 ADD MSTORE PUSH2 0x1D7F DUP2 PUSH2 0x1D46 JUMP JUMPDEST SWAP1 POP SWAP2 SWAP1 POP JUMP JUMPDEST PUSH2 0x1D8F DUP2 PUSH2 0x193A JUMP JUMPDEST DUP2 EQ PUSH2 0x1D99 JUMPI PUSH0 PUSH0 REVERT JUMPDEST POP JUMP JUMPDEST PUSH0 DUP2 MLOAD SWAP1 POP PUSH2 0x1DAA DUP2 PUSH2 0x1D86 JUMP JUMPDEST SWAP3 SWAP2 POP POP JUMP JUMPDEST PUSH0 PUSH1 0x20 DUP3 DUP5 SUB SLT ISZERO PUSH2 0x1DC5 JUMPI PUSH2 0x1DC4 PUSH2 0x1333 JUMP JUMPDEST JUMPDEST PUSH0 PUSH2 0x1DD2 DUP5 DUP3 DUP6 ADD PUSH2 0x1D9C JUMP JUMPDEST SWAP2 POP POP SWAP3 SWAP2 POP POP JUMP JUMPDEST PUSH32 0x4D61726B65743A204552433230207472616E73666572206E6F74207375636365 PUSH0 DUP3 ADD MSTORE PUSH32 0x737366756C000000000000000000000000000000000000000000000000000000 PUSH1 0x20 DUP3 ADD MSTORE POP JUMP JUMPDEST PUSH0 PUSH2 0x1E35 PUSH1 0x25 DUP4 PUSH2 0x196D JUMP JUMPDEST SWAP2 POP PUSH2 0x1E40 DUP3 PUSH2 0x1DDB JUMP JUMPDEST PUSH1 0x40 DUP3 ADD SWAP1 POP SWAP2 SWAP1 POP JUMP JUMPDEST PUSH0 PUSH1 0x20 DUP3 ADD SWAP1 POP DUP2 DUP2 SUB PUSH0 DUP4 ADD MSTORE PUSH2 0x1E62 DUP2 PUSH2 0x1E29 JUMP JUMPDEST SWAP1 POP SWAP2 SWAP1 POP JUMP JUMPDEST PUSH0 PUSH1 0x80 DUP3 ADD SWAP1 POP PUSH2 0x1E7C PUSH0 DUP4 ADD DUP8 PUSH2 0x152B JUMP JUMPDEST PUSH2 0x1E89 PUSH1 0x20 DUP4 ADD DUP7 PUSH2 0x152B JUMP JUMPDEST PUSH2 0x1E96 PUSH1 0x40 DUP4 ADD DUP6 PUSH2 0x153A JUMP JUMPDEST PUSH2 0x1EA3 PUSH1 0x60 DUP4 ADD DUP5 PUSH2 0x153A JUMP JUMPDEST SWAP6 SWAP5 POP POP POP POP POP JUMP JUMPDEST PUSH0 PUSH2 0x1EB6 DUP3 PUSH2 0x1395 JUMP JUMPDEST SWAP2 POP PUSH2 0x1EC1 DUP4 PUSH2 0x1395 JUMP JUMPDEST SWAP3 POP DUP3 DUP3 SUB SWAP1 POP DUP2 DUP2 GT ISZERO PUSH2 0x1ED9 JUMPI PUSH2 0x1ED8 PUSH2 0x1B3E JUMP JUMPDEST JUMPDEST SWAP3 SWAP2 POP POP JUMP JUMPDEST PUSH32 0x4E487B7100000000000000000000000000000000000000000000000000000000 PUSH0 MSTORE PUSH1 0x31 PUSH1 0x4 MSTORE PUSH1 0x24 PUSH0 REVERT INVALID LOG2 PUSH5 0x6970667358 0x22 SLT KECCAK256 PUSH16 0x73993C5FC11DF01D2DA8E78691F9308F 0x2B ADDRESS 0xA9 DELEGATECALL 0xC0 JUMP PUSH28 0x916EE1C1308FC8D564736F6C634300081C0033000000000000000000 "
				},
				"gasEstimates": {
					"creation": {
						"codeDepositCost": "1600400",
						"executionCost": "infinite",
						"totalCost": "infinite"
					},
					"external": {
						"buy(uint256)": "infinite",
						"cancelOrder(uint256)": "infinite",
						"changePrice(uint256,uint256)": "infinite",
						"erc20()": "infinite",
						"erc721()": "infinite",
						"getAllNFTs()": "infinite",
						"getMyNFTs()": "infinite",
						"getOrderLength()": "2507",
						"idToOrderIndex(uint256)": "infinite",
						"isListed(uint256)": "2923",
						"onERC721Received(address,address,uint256,bytes)": "infinite",
						"orderOfId(uint256)": "infinite",
						"orders(uint256)": "infinite",
						"toUint256(bytes,uint256)": "infinite"
					},
					"internal": {
						"placeOrder(address,uint256,uint256)": "infinite",
						"removeListing(uint256)": "infinite"
					}
				},
				"methodIdentifiers": {
					"buy(uint256)": "d96a094a",
					"cancelOrder(uint256)": "514fcac7",
					"changePrice(uint256,uint256)": "b3de019c",
					"erc20()": "785e9e86",
					"erc721()": "bca6ce64",
					"getAllNFTs()": "e0391b09",
					"getMyNFTs()": "629cb2e4",
					"getOrderLength()": "9d4971b7",
					"idToOrderIndex(uint256)": "da694df0",
					"isListed(uint256)": "fcce4883",
					"onERC721Received(address,address,uint256,bytes)": "150b7a02",
					"orderOfId(uint256)": "394a9077",
					"orders(uint256)": "a85c38ef",
					"toUint256(bytes,uint256)": "b5cdf924"
				}
			},
			"storageLayout": {
				"storage": [
					{
						"astId": 243,
						"contract": "contracts/ERC721/erc721_market-lpl/nft-market.sol:Market",
						"label": "erc20",
						"offset": 0,
						"slot": "0",
						"type": "t_contract(IERC20)85"
					},
					{
						"astId": 246,
						"contract": "contracts/ERC721/erc721_market-lpl/nft-market.sol:Market",
						"label": "erc721",
						"offset": 0,
						"slot": "1",
						"type": "t_contract(IERC721)202"
					},
					{
						"astId": 261,
						"contract": "contracts/ERC721/erc721_market-lpl/nft-market.sol:Market",
						"label": "orderOfId",
						"offset": 0,
						"slot": "2",
						"type": "t_mapping(t_uint256,t_struct(Order)256_storage)"
					},
					{
						"astId": 265,
						"contract": "contracts/ERC721/erc721_market-lpl/nft-market.sol:Market",
						"label": "orders",
						"offset": 0,
						"slot": "3",
						"type": "t_array(t_struct(Order)256_storage)dyn_storage"
					},
					{
						"astId": 269,
						"contract": "contracts/ERC721/erc721_market-lpl/nft-market.sol:Market",
						"label": "idToOrderIndex",
						"offset": 0,
						"slot": "4",
						"type": "t_mapping(t_uint256,t_uint256)"
					}
				],
				"types": {
					"t_address": {
						"encoding": "inplace",
						"label": "address",
						"numberOfBytes": "20"
					},
					"t_array(t_struct(Order)256_storage)dyn_storage": {
						"base": "t_struct(Order)256_storage",
						"encoding": "dynamic_array",
						"label": "struct Market.Order[]",
						"numberOfBytes": "32"
					},
					"t_contract(IERC20)85": {
						"encoding": "inplace",
						"label": "contract IERC20",
						"numberOfBytes": "20"
					},
					"t_contract(IERC721)202": {
						"encoding": "inplace",
						"label": "contract IERC721",
						"numberOfBytes": "20"
					},
					"t_mapping(t_uint256,t_struct(Order)256_storage)": {
						"encoding": "mapping",
						"key": "t_uint256",
						"label": "mapping(uint256 => struct Market.Order)",
						"numberOfBytes": "32",
						"value": "t_struct(Order)256_storage"
					},
					"t_mapping(t_uint256,t_uint256)": {
						"encoding": "mapping",
						"key": "t_uint256",
						"label": "mapping(uint256 => uint256)",
						"numberOfBytes": "32",
						"value": "t_uint256"
					},
					"t_struct(Order)256_storage": {
						"encoding": "inplace",
						"label": "struct Market.Order",
						"members": [
							{
								"astId": 251,
								"contract": "contracts/ERC721/erc721_market-lpl/nft-market.sol:Market",
								"label": "seller",
								"offset": 0,
								"slot": "0",
								"type": "t_address"
							},
							{
								"astId": 253,
								"contract": "contracts/ERC721/erc721_market-lpl/nft-market.sol:Market",
								"label": "tokenId",
								"offset": 0,
								"slot": "1",
								"type": "t_uint256"
							},
							{
								"astId": 255,
								"contract": "contracts/ERC721/erc721_market-lpl/nft-market.sol:Market",
								"label": "price",
								"offset": 0,
								"slot": "2",
								"type": "t_uint256"
							}
						],
						"numberOfBytes": "96"
					},
					"t_uint256": {
						"encoding": "inplace",
						"label": "uint256",
						"numberOfBytes": "32"
					}
				}
			},
			"userdoc": {
				"kind": "user",
				"methods": {},
				"version": 1
			}
		}
	}
}