{
	"contracts/Ddfi_lpl/valut/valut01_sol.sol": {
		"Vault01": {
			"abi": [
				{
					"inputs": [
						{
							"internalType": "contract IERC20",
							"name": "_token",
							"type": "address"
						}
					],
					"stateMutability": "nonpayable",
					"type": "constructor"
				},
				{
					"inputs": [
						{
							"internalType": "address",
							"name": "",
							"type": "address"
						}
					],
					"name": "balanceOf",
					"outputs": [
						{
							"internalType": "uint256",
							"name": "",
							"type": "uint256"
						}
					],
					"stateMutability": "view",
					"type": "function"
				},
				{
					"inputs": [
						{
							"internalType": "uint256",
							"name": "_amount",
							"type": "uint256"
						}
					],
					"name": "deposit",
					"outputs": [],
					"stateMutability": "nonpayable",
					"type": "function"
				},
				{
					"inputs": [],
					"name": "token",
					"outputs": [
						{
							"internalType": "contract IERC20",
							"name": "",
							"type": "address"
						}
					],
					"stateMutability": "view",
					"type": "function"
				},
				{
					"inputs": [],
					"name": "totalSupply",
					"outputs": [
						{
							"internalType": "uint256",
							"name": "",
							"type": "uint256"
						}
					],
					"stateMutability": "view",
					"type": "function"
				},
				{
					"inputs": [
						{
							"internalType": "uint256",
							"name": "_shares",
							"type": "uint256"
						}
					],
					"name": "withdraw",
					"outputs": [],
					"stateMutability": "nonpayable",
					"type": "function"
				}
			],
			"devdoc": {
				"kind": "dev",
				"methods": {},
				"version": 1
			},
			"evm": {
				"assembly": "    /* \"contracts/Ddfi_lpl/valut/valut01_sol.sol\":167:1966  contract Vault01 {... */\n  mstore(0x40, 0xa0)\n    /* \"contracts/Ddfi_lpl/valut/valut01_sol.sol\":334:392  constructor(IERC20 _token) {... */\n  callvalue\n  dup1\n  iszero\n  tag_1\n  jumpi\n  revert(0x00, 0x00)\ntag_1:\n  pop\n  mload(0x40)\n  sub(codesize, bytecodeSize)\n  dup1\n  bytecodeSize\n  dup4\n  codecopy\n  dup2\n  dup2\n  add\n  0x40\n  mstore\n  dup2\n  add\n  swap1\n  tag_2\n  swap2\n  swap1\n  tag_3\n  jump\t// in\ntag_2:\n    /* \"contracts/Ddfi_lpl/valut/valut01_sol.sol\":379:385  _token */\n  dup1\n    /* \"contracts/Ddfi_lpl/valut/valut01_sol.sol\":371:385  token = _token */\n  0xffffffffffffffffffffffffffffffffffffffff\n  and\n  0x80\n  dup2\n  0xffffffffffffffffffffffffffffffffffffffff\n  and\n  dup2\n  mstore\n  pop\n  pop\n    /* \"contracts/Ddfi_lpl/valut/valut01_sol.sol\":334:392  constructor(IERC20 _token) {... */\n  pop\n    /* \"contracts/Ddfi_lpl/valut/valut01_sol.sol\":167:1966  contract Vault01 {... */\n  jump(tag_6)\n    /* \"#utility.yul\":88:205   */\ntag_8:\n    /* \"#utility.yul\":197:198   */\n  0x00\n    /* \"#utility.yul\":194:195   */\n  0x00\n    /* \"#utility.yul\":187:199   */\n  revert\n    /* \"#utility.yul\":334:460   */\ntag_10:\n    /* \"#utility.yul\":371:378   */\n  0x00\n    /* \"#utility.yul\":411:453   */\n  0xffffffffffffffffffffffffffffffffffffffff\n    /* \"#utility.yul\":404:409   */\n  dup3\n    /* \"#utility.yul\":400:454   */\n  and\n    /* \"#utility.yul\":389:454   */\n  swap1\n  pop\n    /* \"#utility.yul\":334:460   */\n  swap2\n  swap1\n  pop\n  jump\t// out\n    /* \"#utility.yul\":466:562   */\ntag_11:\n    /* \"#utility.yul\":503:510   */\n  0x00\n    /* \"#utility.yul\":532:556   */\n  tag_21\n    /* \"#utility.yul\":550:555   */\n  dup3\n    /* \"#utility.yul\":532:556   */\n  tag_10\n  jump\t// in\ntag_21:\n    /* \"#utility.yul\":521:556   */\n  swap1\n  pop\n    /* \"#utility.yul\":466:562   */\n  swap2\n  swap1\n  pop\n  jump\t// out\n    /* \"#utility.yul\":568:678   */\ntag_12:\n    /* \"#utility.yul\":619:626   */\n  0x00\n    /* \"#utility.yul\":648:672   */\n  tag_23\n    /* \"#utility.yul\":666:671   */\n  dup3\n    /* \"#utility.yul\":648:672   */\n  tag_11\n  jump\t// in\ntag_23:\n    /* \"#utility.yul\":637:672   */\n  swap1\n  pop\n    /* \"#utility.yul\":568:678   */\n  swap2\n  swap1\n  pop\n  jump\t// out\n    /* \"#utility.yul\":684:834   */\ntag_13:\n    /* \"#utility.yul\":771:809   */\n  tag_25\n    /* \"#utility.yul\":803:808   */\n  dup2\n    /* \"#utility.yul\":771:809   */\n  tag_12\n  jump\t// in\ntag_25:\n    /* \"#utility.yul\":764:769   */\n  dup2\n    /* \"#utility.yul\":761:810   */\n  eq\n    /* \"#utility.yul\":751:828   */\n  tag_26\n  jumpi\n    /* \"#utility.yul\":824:825   */\n  0x00\n    /* \"#utility.yul\":821:822   */\n  0x00\n    /* \"#utility.yul\":814:826   */\n  revert\n    /* \"#utility.yul\":751:828   */\ntag_26:\n    /* \"#utility.yul\":684:834   */\n  pop\n  jump\t// out\n    /* \"#utility.yul\":840:1011   */\ntag_14:\n    /* \"#utility.yul\":911:916   */\n  0x00\n    /* \"#utility.yul\":942:948   */\n  dup2\n    /* \"#utility.yul\":936:949   */\n  mload\n    /* \"#utility.yul\":927:949   */\n  swap1\n  pop\n    /* \"#utility.yul\":958:1005   */\n  tag_28\n    /* \"#utility.yul\":999:1004   */\n  dup2\n    /* \"#utility.yul\":958:1005   */\n  tag_13\n  jump\t// in\ntag_28:\n    /* \"#utility.yul\":840:1011   */\n  swap3\n  swap2\n  pop\n  pop\n  jump\t// out\n    /* \"#utility.yul\":1017:1396   */\ntag_3:\n    /* \"#utility.yul\":1101:1107   */\n  0x00\n    /* \"#utility.yul\":1150:1152   */\n  0x20\n    /* \"#utility.yul\":1138:1147   */\n  dup3\n    /* \"#utility.yul\":1129:1136   */\n  dup5\n    /* \"#utility.yul\":1125:1148   */\n  sub\n    /* \"#utility.yul\":1121:1153   */\n  slt\n    /* \"#utility.yul\":1118:1237   */\n  iszero\n  tag_30\n  jumpi\n    /* \"#utility.yul\":1156:1235   */\n  tag_31\n  tag_8\n  jump\t// in\ntag_31:\n    /* \"#utility.yul\":1118:1237   */\ntag_30:\n    /* \"#utility.yul\":1276:1277   */\n  0x00\n    /* \"#utility.yul\":1301:1379   */\n  tag_32\n    /* \"#utility.yul\":1371:1378   */\n  dup5\n    /* \"#utility.yul\":1362:1368   */\n  dup3\n    /* \"#utility.yul\":1351:1360   */\n  dup6\n    /* \"#utility.yul\":1347:1369   */\n  add\n    /* \"#utility.yul\":1301:1379   */\n  tag_14\n  jump\t// in\ntag_32:\n    /* \"#utility.yul\":1291:1379   */\n  swap2\n  pop\n    /* \"#utility.yul\":1247:1389   */\n  pop\n    /* \"#utility.yul\":1017:1396   */\n  swap3\n  swap2\n  pop\n  pop\n  jump\t// out\n    /* \"contracts/Ddfi_lpl/valut/valut01_sol.sol\":167:1966  contract Vault01 {... */\ntag_6:\n  mload(0x80)\n  codecopy(0x00, dataOffset(sub_0), dataSize(sub_0))\n  0x00\n  assignImmutable(\"0xceebf77a833b30520287ddd9478ff51abbdffa30aa90a8d655dba0e8a79ce0c1\")\n  return(0x00, dataSize(sub_0))\nstop\n\nsub_0: assembly {\n        /* \"contracts/Ddfi_lpl/valut/valut01_sol.sol\":167:1966  contract Vault01 {... */\n      mstore(0x40, 0x80)\n      callvalue\n      dup1\n      iszero\n      tag_1\n      jumpi\n      revert(0x00, 0x00)\n    tag_1:\n      pop\n      jumpi(tag_2, lt(calldatasize, 0x04))\n      shr(0xe0, calldataload(0x00))\n      dup1\n      0x18160ddd\n      eq\n      tag_3\n      jumpi\n      dup1\n      0x2e1a7d4d\n      eq\n      tag_4\n      jumpi\n      dup1\n      0x70a08231\n      eq\n      tag_5\n      jumpi\n      dup1\n      0xb6b55f25\n      eq\n      tag_6\n      jumpi\n      dup1\n      0xfc0c546a\n      eq\n      tag_7\n      jumpi\n    tag_2:\n      revert(0x00, 0x00)\n        /* \"contracts/Ddfi_lpl/valut/valut01_sol.sol\":251:277  uint256 public totalSupply */\n    tag_3:\n      tag_8\n      tag_9\n      jump\t// in\n    tag_8:\n      mload(0x40)\n      tag_10\n      swap2\n      swap1\n      tag_11\n      jump\t// in\n    tag_10:\n      mload(0x40)\n      dup1\n      swap2\n      sub\n      swap1\n      return\n        /* \"contracts/Ddfi_lpl/valut/valut01_sol.sol\":1497:1964  function withdraw(uint256 _shares) external {... */\n    tag_4:\n      tag_12\n      0x04\n      dup1\n      calldatasize\n      sub\n      dup2\n      add\n      swap1\n      tag_13\n      swap2\n      swap1\n      tag_14\n      jump\t// in\n    tag_13:\n      tag_15\n      jump\t// in\n    tag_12:\n      stop\n        /* \"contracts/Ddfi_lpl/valut/valut01_sol.sol\":283:327  mapping(address => uint256) public balanceOf */\n    tag_5:\n      tag_16\n      0x04\n      dup1\n      calldatasize\n      sub\n      dup2\n      add\n      swap1\n      tag_17\n      swap2\n      swap1\n      tag_18\n      jump\t// in\n    tag_17:\n      tag_19\n      jump\t// in\n    tag_16:\n      mload(0x40)\n      tag_20\n      swap2\n      swap1\n      tag_11\n      jump\t// in\n    tag_20:\n      mload(0x40)\n      dup1\n      swap2\n      sub\n      swap1\n      return\n        /* \"contracts/Ddfi_lpl/valut/valut01_sol.sol\":811:1459  function deposit(uint256 _amount) external {... */\n    tag_6:\n      tag_21\n      0x04\n      dup1\n      calldatasize\n      sub\n      dup2\n      add\n      swap1\n      tag_22\n      swap2\n      swap1\n      tag_14\n      jump\t// in\n    tag_22:\n      tag_23\n      jump\t// in\n    tag_21:\n      stop\n        /* \"contracts/Ddfi_lpl/valut/valut01_sol.sol\":190:219  IERC20 public immutable token */\n    tag_7:\n      tag_24\n      tag_25\n      jump\t// in\n    tag_24:\n      mload(0x40)\n      tag_26\n      swap2\n      swap1\n      tag_27\n      jump\t// in\n    tag_26:\n      mload(0x40)\n      dup1\n      swap2\n      sub\n      swap1\n      return\n        /* \"contracts/Ddfi_lpl/valut/valut01_sol.sol\":251:277  uint256 public totalSupply */\n    tag_9:\n      sload(0x00)\n      dup2\n      jump\t// out\n        /* \"contracts/Ddfi_lpl/valut/valut01_sol.sol\":1497:1964  function withdraw(uint256 _shares) external {... */\n    tag_15:\n        /* \"contracts/Ddfi_lpl/valut/valut01_sol.sol\":1827:1838  uint amount */\n      0x00\n        /* \"contracts/Ddfi_lpl/valut/valut01_sol.sol\":1867:1878  totalSupply */\n      sload(0x00)\n        /* \"contracts/Ddfi_lpl/valut/valut01_sol.sol\":1852:1863  totalSupply */\n      sload(0x00)\n        /* \"contracts/Ddfi_lpl/valut/valut01_sol.sol\":1842:1849  _shares */\n      dup4\n        /* \"contracts/Ddfi_lpl/valut/valut01_sol.sol\":1842:1863  _shares * totalSupply */\n      tag_29\n      swap2\n      swap1\n      tag_30\n      jump\t// in\n    tag_29:\n        /* \"contracts/Ddfi_lpl/valut/valut01_sol.sol\":1841:1878  (_shares * totalSupply) / totalSupply */\n      tag_31\n      swap2\n      swap1\n      tag_32\n      jump\t// in\n    tag_31:\n        /* \"contracts/Ddfi_lpl/valut/valut01_sol.sol\":1827:1878  uint amount = (_shares * totalSupply) / totalSupply */\n      swap1\n      pop\n        /* \"contracts/Ddfi_lpl/valut/valut01_sol.sol\":1888:1913  _burn(msg.sender, amount) */\n      tag_33\n        /* \"contracts/Ddfi_lpl/valut/valut01_sol.sol\":1894:1904  msg.sender */\n      caller\n        /* \"contracts/Ddfi_lpl/valut/valut01_sol.sol\":1906:1912  amount */\n      dup3\n        /* \"contracts/Ddfi_lpl/valut/valut01_sol.sol\":1888:1893  _burn */\n      tag_34\n        /* \"contracts/Ddfi_lpl/valut/valut01_sol.sol\":1888:1913  _burn(msg.sender, amount) */\n      jump\t// in\n    tag_33:\n        /* \"contracts/Ddfi_lpl/valut/valut01_sol.sol\":1923:1928  token */\n      immutable(\"0xceebf77a833b30520287ddd9478ff51abbdffa30aa90a8d655dba0e8a79ce0c1\")\n        /* \"contracts/Ddfi_lpl/valut/valut01_sol.sol\":1923:1937  token.transfer */\n      0xffffffffffffffffffffffffffffffffffffffff\n      and\n      0xa9059cbb\n        /* \"contracts/Ddfi_lpl/valut/valut01_sol.sol\":1938:1948  msg.sender */\n      caller\n        /* \"contracts/Ddfi_lpl/valut/valut01_sol.sol\":1950:1956  amount */\n      dup4\n        /* \"contracts/Ddfi_lpl/valut/valut01_sol.sol\":1923:1957  token.transfer(msg.sender, amount) */\n      mload(0x40)\n      dup4\n      0xffffffff\n      and\n      0xe0\n      shl\n      dup2\n      mstore\n      0x04\n      add\n      tag_35\n      swap3\n      swap2\n      swap1\n      tag_36\n      jump\t// in\n    tag_35:\n      0x20\n      mload(0x40)\n      dup1\n      dup4\n      sub\n      dup2\n      0x00\n      dup8\n      gas\n      call\n      iszero\n      dup1\n      iszero\n      tag_38\n      jumpi\n      returndatacopy(0x00, 0x00, returndatasize)\n      revert(0x00, returndatasize)\n    tag_38:\n      pop\n      pop\n      pop\n      pop\n      mload(0x40)\n      returndatasize\n      not(0x1f)\n      0x1f\n      dup3\n      add\n      and\n      dup3\n      add\n      dup1\n      0x40\n      mstore\n      pop\n      dup2\n      add\n      swap1\n      tag_39\n      swap2\n      swap1\n      tag_40\n      jump\t// in\n    tag_39:\n      pop\n        /* \"contracts/Ddfi_lpl/valut/valut01_sol.sol\":1541:1964  {... */\n      pop\n        /* \"contracts/Ddfi_lpl/valut/valut01_sol.sol\":1497:1964  function withdraw(uint256 _shares) external {... */\n      pop\n      jump\t// out\n        /* \"contracts/Ddfi_lpl/valut/valut01_sol.sol\":283:327  mapping(address => uint256) public balanceOf */\n    tag_19:\n      mstore(0x20, 0x01)\n      dup1\n      0x00\n      mstore\n      keccak256(0x00, 0x40)\n      0x00\n      swap2\n      pop\n      swap1\n      pop\n      sload\n      dup2\n      jump\t// out\n        /* \"contracts/Ddfi_lpl/valut/valut01_sol.sol\":811:1459  function deposit(uint256 _amount) external {... */\n    tag_23:\n        /* \"contracts/Ddfi_lpl/valut/valut01_sol.sol\":1063:1074  uint shares */\n      0x00\n        /* \"contracts/Ddfi_lpl/valut/valut01_sol.sol\":1103:1104  0 */\n      0x00\n        /* \"contracts/Ddfi_lpl/valut/valut01_sol.sol\":1088:1099  totalSupply */\n      sload(0x00)\n        /* \"contracts/Ddfi_lpl/valut/valut01_sol.sol\":1088:1104  totalSupply == 0 */\n      sub\n        /* \"contracts/Ddfi_lpl/valut/valut01_sol.sol\":1084:1354  if (totalSupply == 0) {... */\n      tag_42\n      jumpi\n        /* \"contracts/Ddfi_lpl/valut/valut01_sol.sol\":1129:1136  _amount */\n      dup2\n        /* \"contracts/Ddfi_lpl/valut/valut01_sol.sol\":1120:1136  shares = _amount */\n      swap1\n      pop\n        /* \"contracts/Ddfi_lpl/valut/valut01_sol.sol\":1084:1354  if (totalSupply == 0) {... */\n      jump(tag_43)\n    tag_42:\n        /* \"contracts/Ddfi_lpl/valut/valut01_sol.sol\":1313:1318  token */\n      immutable(\"0xceebf77a833b30520287ddd9478ff51abbdffa30aa90a8d655dba0e8a79ce0c1\")\n        /* \"contracts/Ddfi_lpl/valut/valut01_sol.sol\":1313:1328  token.balanceOf */\n      0xffffffffffffffffffffffffffffffffffffffff\n      and\n      0x70a08231\n        /* \"contracts/Ddfi_lpl/valut/valut01_sol.sol\":1337:1341  this */\n      address\n        /* \"contracts/Ddfi_lpl/valut/valut01_sol.sol\":1313:1343  token.balanceOf(address(this)) */\n      mload(0x40)\n      dup3\n      0xffffffff\n      and\n      0xe0\n      shl\n      dup2\n      mstore\n      0x04\n      add\n      tag_44\n      swap2\n      swap1\n      tag_45\n      jump\t// in\n    tag_44:\n      0x20\n      mload(0x40)\n      dup1\n      dup4\n      sub\n      dup2\n      dup7\n      gas\n      staticcall\n      iszero\n      dup1\n      iszero\n      tag_47\n      jumpi\n      returndatacopy(0x00, 0x00, returndatasize)\n      revert(0x00, returndatasize)\n    tag_47:\n      pop\n      pop\n      pop\n      pop\n      mload(0x40)\n      returndatasize\n      not(0x1f)\n      0x1f\n      dup3\n      add\n      and\n      dup3\n      add\n      dup1\n      0x40\n      mstore\n      pop\n      dup2\n      add\n      swap1\n      tag_48\n      swap2\n      swap1\n      tag_49\n      jump\t// in\n    tag_48:\n        /* \"contracts/Ddfi_lpl/valut/valut01_sol.sol\":1298:1309  totalSupply */\n      sload(0x00)\n        /* \"contracts/Ddfi_lpl/valut/valut01_sol.sol\":1288:1295  _amount */\n      dup4\n        /* \"contracts/Ddfi_lpl/valut/valut01_sol.sol\":1288:1309  _amount * totalSupply */\n      tag_50\n      swap2\n      swap1\n      tag_30\n      jump\t// in\n    tag_50:\n        /* \"contracts/Ddfi_lpl/valut/valut01_sol.sol\":1287:1343  (_amount * totalSupply) / token.balanceOf(address(this)) */\n      tag_51\n      swap2\n      swap1\n      tag_32\n      jump\t// in\n    tag_51:\n        /* \"contracts/Ddfi_lpl/valut/valut01_sol.sol\":1278:1343  shares = (_amount * totalSupply) / token.balanceOf(address(this)) */\n      swap1\n      pop\n        /* \"contracts/Ddfi_lpl/valut/valut01_sol.sol\":1084:1354  if (totalSupply == 0) {... */\n    tag_43:\n        /* \"contracts/Ddfi_lpl/valut/valut01_sol.sol\":1363:1368  token */\n      immutable(\"0xceebf77a833b30520287ddd9478ff51abbdffa30aa90a8d655dba0e8a79ce0c1\")\n        /* \"contracts/Ddfi_lpl/valut/valut01_sol.sol\":1363:1381  token.transferFrom */\n      0xffffffffffffffffffffffffffffffffffffffff\n      and\n      0x23b872dd\n        /* \"contracts/Ddfi_lpl/valut/valut01_sol.sol\":1382:1392  msg.sender */\n      caller\n        /* \"contracts/Ddfi_lpl/valut/valut01_sol.sol\":1402:1406  this */\n      address\n        /* \"contracts/Ddfi_lpl/valut/valut01_sol.sol\":1409:1416  _amount */\n      dup6\n        /* \"contracts/Ddfi_lpl/valut/valut01_sol.sol\":1363:1417  token.transferFrom(msg.sender, address(this), _amount) */\n      mload(0x40)\n      dup5\n      0xffffffff\n      and\n      0xe0\n      shl\n      dup2\n      mstore\n      0x04\n      add\n      tag_52\n      swap4\n      swap3\n      swap2\n      swap1\n      tag_53\n      jump\t// in\n    tag_52:\n      0x20\n      mload(0x40)\n      dup1\n      dup4\n      sub\n      dup2\n      0x00\n      dup8\n      gas\n      call\n      iszero\n      dup1\n      iszero\n      tag_55\n      jumpi\n      returndatacopy(0x00, 0x00, returndatasize)\n      revert(0x00, returndatasize)\n    tag_55:\n      pop\n      pop\n      pop\n      pop\n      mload(0x40)\n      returndatasize\n      not(0x1f)\n      0x1f\n      dup3\n      add\n      and\n      dup3\n      add\n      dup1\n      0x40\n      mstore\n      pop\n      dup2\n      add\n      swap1\n      tag_56\n      swap2\n      swap1\n      tag_40\n      jump\t// in\n    tag_56:\n      pop\n        /* \"contracts/Ddfi_lpl/valut/valut01_sol.sol\":1427:1452  _mint(msg.sender, shares) */\n      tag_57\n        /* \"contracts/Ddfi_lpl/valut/valut01_sol.sol\":1433:1443  msg.sender */\n      caller\n        /* \"contracts/Ddfi_lpl/valut/valut01_sol.sol\":1445:1451  shares */\n      dup3\n        /* \"contracts/Ddfi_lpl/valut/valut01_sol.sol\":1427:1432  _mint */\n      tag_58\n        /* \"contracts/Ddfi_lpl/valut/valut01_sol.sol\":1427:1452  _mint(msg.sender, shares) */\n      jump\t// in\n    tag_57:\n        /* \"contracts/Ddfi_lpl/valut/valut01_sol.sol\":854:1459  {... */\n      pop\n        /* \"contracts/Ddfi_lpl/valut/valut01_sol.sol\":811:1459  function deposit(uint256 _amount) external {... */\n      pop\n      jump\t// out\n        /* \"contracts/Ddfi_lpl/valut/valut01_sol.sol\":190:219  IERC20 public immutable token */\n    tag_25:\n      immutable(\"0xceebf77a833b30520287ddd9478ff51abbdffa30aa90a8d655dba0e8a79ce0c1\")\n      dup2\n      jump\t// out\n        /* \"contracts/Ddfi_lpl/valut/valut01_sol.sol\":586:792  function _burn(address _from, uint256 _shares) private {... */\n    tag_34:\n        /* \"contracts/Ddfi_lpl/valut/valut01_sol.sol\":667:674  _shares */\n      dup1\n        /* \"contracts/Ddfi_lpl/valut/valut01_sol.sol\":652:663  totalSupply */\n      0x00\n      0x00\n        /* \"contracts/Ddfi_lpl/valut/valut01_sol.sol\":652:674  totalSupply -= _shares */\n      dup3\n      dup3\n      sload\n      tag_60\n      swap2\n      swap1\n      tag_61\n      jump\t// in\n    tag_60:\n      swap3\n      pop\n      pop\n      dup2\n      swap1\n      sstore\n      pop\n        /* \"contracts/Ddfi_lpl/valut/valut01_sol.sol\":726:733  _shares */\n      dup1\n        /* \"contracts/Ddfi_lpl/valut/valut01_sol.sol\":706:715  balanceOf */\n      0x01\n        /* \"contracts/Ddfi_lpl/valut/valut01_sol.sol\":706:722  balanceOf[_from] */\n      0x00\n        /* \"contracts/Ddfi_lpl/valut/valut01_sol.sol\":716:721  _from */\n      dup5\n        /* \"contracts/Ddfi_lpl/valut/valut01_sol.sol\":706:722  balanceOf[_from] */\n      0xffffffffffffffffffffffffffffffffffffffff\n      and\n      0xffffffffffffffffffffffffffffffffffffffff\n      and\n      dup2\n      mstore\n      0x20\n      add\n      swap1\n      dup2\n      mstore\n      0x20\n      add\n      0x00\n      keccak256\n      0x00\n        /* \"contracts/Ddfi_lpl/valut/valut01_sol.sol\":706:733  balanceOf[_from] -= _shares */\n      dup3\n      dup3\n      sload\n      tag_62\n      swap2\n      swap1\n      tag_61\n      jump\t// in\n    tag_62:\n      swap3\n      pop\n      pop\n      dup2\n      swap1\n      sstore\n      pop\n        /* \"contracts/Ddfi_lpl/valut/valut01_sol.sol\":586:792  function _burn(address _from, uint256 _shares) private {... */\n      pop\n      pop\n      jump\t// out\n        /* \"contracts/Ddfi_lpl/valut/valut01_sol.sol\":398:580  function _mint(address _to, uint256 _shares) private {... */\n    tag_58:\n        /* \"contracts/Ddfi_lpl/valut/valut01_sol.sol\":476:483  _shares */\n      dup1\n        /* \"contracts/Ddfi_lpl/valut/valut01_sol.sol\":461:472  totalSupply */\n      0x00\n      0x00\n        /* \"contracts/Ddfi_lpl/valut/valut01_sol.sol\":461:483  totalSupply += _shares */\n      dup3\n      dup3\n      sload\n      tag_64\n      swap2\n      swap1\n      tag_65\n      jump\t// in\n    tag_64:\n      swap3\n      pop\n      pop\n      dup2\n      swap1\n      sstore\n      pop\n        /* \"contracts/Ddfi_lpl/valut/valut01_sol.sol\":533:540  _shares */\n      dup1\n        /* \"contracts/Ddfi_lpl/valut/valut01_sol.sol\":515:524  balanceOf */\n      0x01\n        /* \"contracts/Ddfi_lpl/valut/valut01_sol.sol\":515:529  balanceOf[_to] */\n      0x00\n        /* \"contracts/Ddfi_lpl/valut/valut01_sol.sol\":525:528  _to */\n      dup5\n        /* \"contracts/Ddfi_lpl/valut/valut01_sol.sol\":515:529  balanceOf[_to] */\n      0xffffffffffffffffffffffffffffffffffffffff\n      and\n      0xffffffffffffffffffffffffffffffffffffffff\n      and\n      dup2\n      mstore\n      0x20\n      add\n      swap1\n      dup2\n      mstore\n      0x20\n      add\n      0x00\n      keccak256\n      0x00\n        /* \"contracts/Ddfi_lpl/valut/valut01_sol.sol\":515:540  balanceOf[_to] += _shares */\n      dup3\n      dup3\n      sload\n      tag_66\n      swap2\n      swap1\n      tag_65\n      jump\t// in\n    tag_66:\n      swap3\n      pop\n      pop\n      dup2\n      swap1\n      sstore\n      pop\n        /* \"contracts/Ddfi_lpl/valut/valut01_sol.sol\":398:580  function _mint(address _to, uint256 _shares) private {... */\n      pop\n      pop\n      jump\t// out\n        /* \"#utility.yul\":7:84   */\n    tag_67:\n        /* \"#utility.yul\":44:51   */\n      0x00\n        /* \"#utility.yul\":73:78   */\n      dup2\n        /* \"#utility.yul\":62:78   */\n      swap1\n      pop\n        /* \"#utility.yul\":7:84   */\n      swap2\n      swap1\n      pop\n      jump\t// out\n        /* \"#utility.yul\":90:208   */\n    tag_68:\n        /* \"#utility.yul\":177:201   */\n      tag_93\n        /* \"#utility.yul\":195:200   */\n      dup2\n        /* \"#utility.yul\":177:201   */\n      tag_67\n      jump\t// in\n    tag_93:\n        /* \"#utility.yul\":172:175   */\n      dup3\n        /* \"#utility.yul\":165:202   */\n      mstore\n        /* \"#utility.yul\":90:208   */\n      pop\n      pop\n      jump\t// out\n        /* \"#utility.yul\":214:436   */\n    tag_11:\n        /* \"#utility.yul\":307:311   */\n      0x00\n        /* \"#utility.yul\":345:347   */\n      0x20\n        /* \"#utility.yul\":334:343   */\n      dup3\n        /* \"#utility.yul\":330:348   */\n      add\n        /* \"#utility.yul\":322:348   */\n      swap1\n      pop\n        /* \"#utility.yul\":358:429   */\n      tag_95\n        /* \"#utility.yul\":426:427   */\n      0x00\n        /* \"#utility.yul\":415:424   */\n      dup4\n        /* \"#utility.yul\":411:428   */\n      add\n        /* \"#utility.yul\":402:408   */\n      dup5\n        /* \"#utility.yul\":358:429   */\n      tag_68\n      jump\t// in\n    tag_95:\n        /* \"#utility.yul\":214:436   */\n      swap3\n      swap2\n      pop\n      pop\n      jump\t// out\n        /* \"#utility.yul\":523:640   */\n    tag_70:\n        /* \"#utility.yul\":632:633   */\n      0x00\n        /* \"#utility.yul\":629:630   */\n      0x00\n        /* \"#utility.yul\":622:634   */\n      revert\n        /* \"#utility.yul\":769:891   */\n    tag_72:\n        /* \"#utility.yul\":842:866   */\n      tag_100\n        /* \"#utility.yul\":860:865   */\n      dup2\n        /* \"#utility.yul\":842:866   */\n      tag_67\n      jump\t// in\n    tag_100:\n        /* \"#utility.yul\":835:840   */\n      dup2\n        /* \"#utility.yul\":832:867   */\n      eq\n        /* \"#utility.yul\":822:885   */\n      tag_101\n      jumpi\n        /* \"#utility.yul\":881:882   */\n      0x00\n        /* \"#utility.yul\":878:879   */\n      0x00\n        /* \"#utility.yul\":871:883   */\n      revert\n        /* \"#utility.yul\":822:885   */\n    tag_101:\n        /* \"#utility.yul\":769:891   */\n      pop\n      jump\t// out\n        /* \"#utility.yul\":897:1036   */\n    tag_73:\n        /* \"#utility.yul\":943:948   */\n      0x00\n        /* \"#utility.yul\":981:987   */\n      dup2\n        /* \"#utility.yul\":968:988   */\n      calldataload\n        /* \"#utility.yul\":959:988   */\n      swap1\n      pop\n        /* \"#utility.yul\":997:1030   */\n      tag_103\n        /* \"#utility.yul\":1024:1029   */\n      dup2\n        /* \"#utility.yul\":997:1030   */\n      tag_72\n      jump\t// in\n    tag_103:\n        /* \"#utility.yul\":897:1036   */\n      swap3\n      swap2\n      pop\n      pop\n      jump\t// out\n        /* \"#utility.yul\":1042:1371   */\n    tag_14:\n        /* \"#utility.yul\":1101:1107   */\n      0x00\n        /* \"#utility.yul\":1150:1152   */\n      0x20\n        /* \"#utility.yul\":1138:1147   */\n      dup3\n        /* \"#utility.yul\":1129:1136   */\n      dup5\n        /* \"#utility.yul\":1125:1148   */\n      sub\n        /* \"#utility.yul\":1121:1153   */\n      slt\n        /* \"#utility.yul\":1118:1237   */\n      iszero\n      tag_105\n      jumpi\n        /* \"#utility.yul\":1156:1235   */\n      tag_106\n      tag_70\n      jump\t// in\n    tag_106:\n        /* \"#utility.yul\":1118:1237   */\n    tag_105:\n        /* \"#utility.yul\":1276:1277   */\n      0x00\n        /* \"#utility.yul\":1301:1354   */\n      tag_107\n        /* \"#utility.yul\":1346:1353   */\n      dup5\n        /* \"#utility.yul\":1337:1343   */\n      dup3\n        /* \"#utility.yul\":1326:1335   */\n      dup6\n        /* \"#utility.yul\":1322:1344   */\n      add\n        /* \"#utility.yul\":1301:1354   */\n      tag_73\n      jump\t// in\n    tag_107:\n        /* \"#utility.yul\":1291:1354   */\n      swap2\n      pop\n        /* \"#utility.yul\":1247:1364   */\n      pop\n        /* \"#utility.yul\":1042:1371   */\n      swap3\n      swap2\n      pop\n      pop\n      jump\t// out\n        /* \"#utility.yul\":1377:1503   */\n    tag_74:\n        /* \"#utility.yul\":1414:1421   */\n      0x00\n        /* \"#utility.yul\":1454:1496   */\n      0xffffffffffffffffffffffffffffffffffffffff\n        /* \"#utility.yul\":1447:1452   */\n      dup3\n        /* \"#utility.yul\":1443:1497   */\n      and\n        /* \"#utility.yul\":1432:1497   */\n      swap1\n      pop\n        /* \"#utility.yul\":1377:1503   */\n      swap2\n      swap1\n      pop\n      jump\t// out\n        /* \"#utility.yul\":1509:1605   */\n    tag_75:\n        /* \"#utility.yul\":1546:1553   */\n      0x00\n        /* \"#utility.yul\":1575:1599   */\n      tag_110\n        /* \"#utility.yul\":1593:1598   */\n      dup3\n        /* \"#utility.yul\":1575:1599   */\n      tag_74\n      jump\t// in\n    tag_110:\n        /* \"#utility.yul\":1564:1599   */\n      swap1\n      pop\n        /* \"#utility.yul\":1509:1605   */\n      swap2\n      swap1\n      pop\n      jump\t// out\n        /* \"#utility.yul\":1611:1733   */\n    tag_76:\n        /* \"#utility.yul\":1684:1708   */\n      tag_112\n        /* \"#utility.yul\":1702:1707   */\n      dup2\n        /* \"#utility.yul\":1684:1708   */\n      tag_75\n      jump\t// in\n    tag_112:\n        /* \"#utility.yul\":1677:1682   */\n      dup2\n        /* \"#utility.yul\":1674:1709   */\n      eq\n        /* \"#utility.yul\":1664:1727   */\n      tag_113\n      jumpi\n        /* \"#utility.yul\":1723:1724   */\n      0x00\n        /* \"#utility.yul\":1720:1721   */\n      0x00\n        /* \"#utility.yul\":1713:1725   */\n      revert\n        /* \"#utility.yul\":1664:1727   */\n    tag_113:\n        /* \"#utility.yul\":1611:1733   */\n      pop\n      jump\t// out\n        /* \"#utility.yul\":1739:1878   */\n    tag_77:\n        /* \"#utility.yul\":1785:1790   */\n      0x00\n        /* \"#utility.yul\":1823:1829   */\n      dup2\n        /* \"#utility.yul\":1810:1830   */\n      calldataload\n        /* \"#utility.yul\":1801:1830   */\n      swap1\n      pop\n        /* \"#utility.yul\":1839:1872   */\n      tag_115\n        /* \"#utility.yul\":1866:1871   */\n      dup2\n        /* \"#utility.yul\":1839:1872   */\n      tag_76\n      jump\t// in\n    tag_115:\n        /* \"#utility.yul\":1739:1878   */\n      swap3\n      swap2\n      pop\n      pop\n      jump\t// out\n        /* \"#utility.yul\":1884:2213   */\n    tag_18:\n        /* \"#utility.yul\":1943:1949   */\n      0x00\n        /* \"#utility.yul\":1992:1994   */\n      0x20\n        /* \"#utility.yul\":1980:1989   */\n      dup3\n        /* \"#utility.yul\":1971:1978   */\n      dup5\n        /* \"#utility.yul\":1967:1990   */\n      sub\n        /* \"#utility.yul\":1963:1995   */\n      slt\n        /* \"#utility.yul\":1960:2079   */\n      iszero\n      tag_117\n      jumpi\n        /* \"#utility.yul\":1998:2077   */\n      tag_118\n      tag_70\n      jump\t// in\n    tag_118:\n        /* \"#utility.yul\":1960:2079   */\n    tag_117:\n        /* \"#utility.yul\":2118:2119   */\n      0x00\n        /* \"#utility.yul\":2143:2196   */\n      tag_119\n        /* \"#utility.yul\":2188:2195   */\n      dup5\n        /* \"#utility.yul\":2179:2185   */\n      dup3\n        /* \"#utility.yul\":2168:2177   */\n      dup6\n        /* \"#utility.yul\":2164:2186   */\n      add\n        /* \"#utility.yul\":2143:2196   */\n      tag_77\n      jump\t// in\n    tag_119:\n        /* \"#utility.yul\":2133:2196   */\n      swap2\n      pop\n        /* \"#utility.yul\":2089:2206   */\n      pop\n        /* \"#utility.yul\":1884:2213   */\n      swap3\n      swap2\n      pop\n      pop\n      jump\t// out\n        /* \"#utility.yul\":2219:2279   */\n    tag_78:\n        /* \"#utility.yul\":2247:2250   */\n      0x00\n        /* \"#utility.yul\":2268:2273   */\n      dup2\n        /* \"#utility.yul\":2261:2273   */\n      swap1\n      pop\n        /* \"#utility.yul\":2219:2279   */\n      swap2\n      swap1\n      pop\n      jump\t// out\n        /* \"#utility.yul\":2285:2427   */\n    tag_79:\n        /* \"#utility.yul\":2335:2344   */\n      0x00\n        /* \"#utility.yul\":2368:2421   */\n      tag_122\n        /* \"#utility.yul\":2386:2420   */\n      tag_123\n        /* \"#utility.yul\":2395:2419   */\n      tag_124\n        /* \"#utility.yul\":2413:2418   */\n      dup5\n        /* \"#utility.yul\":2395:2419   */\n      tag_74\n      jump\t// in\n    tag_124:\n        /* \"#utility.yul\":2386:2420   */\n      tag_78\n      jump\t// in\n    tag_123:\n        /* \"#utility.yul\":2368:2421   */\n      tag_74\n      jump\t// in\n    tag_122:\n        /* \"#utility.yul\":2355:2421   */\n      swap1\n      pop\n        /* \"#utility.yul\":2285:2427   */\n      swap2\n      swap1\n      pop\n      jump\t// out\n        /* \"#utility.yul\":2433:2559   */\n    tag_80:\n        /* \"#utility.yul\":2483:2492   */\n      0x00\n        /* \"#utility.yul\":2516:2553   */\n      tag_126\n        /* \"#utility.yul\":2547:2552   */\n      dup3\n        /* \"#utility.yul\":2516:2553   */\n      tag_79\n      jump\t// in\n    tag_126:\n        /* \"#utility.yul\":2503:2553   */\n      swap1\n      pop\n        /* \"#utility.yul\":2433:2559   */\n      swap2\n      swap1\n      pop\n      jump\t// out\n        /* \"#utility.yul\":2565:2705   */\n    tag_81:\n        /* \"#utility.yul\":2629:2638   */\n      0x00\n        /* \"#utility.yul\":2662:2699   */\n      tag_128\n        /* \"#utility.yul\":2693:2698   */\n      dup3\n        /* \"#utility.yul\":2662:2699   */\n      tag_80\n      jump\t// in\n    tag_128:\n        /* \"#utility.yul\":2649:2699   */\n      swap1\n      pop\n        /* \"#utility.yul\":2565:2705   */\n      swap2\n      swap1\n      pop\n      jump\t// out\n        /* \"#utility.yul\":2711:2870   */\n    tag_82:\n        /* \"#utility.yul\":2812:2863   */\n      tag_130\n        /* \"#utility.yul\":2857:2862   */\n      dup2\n        /* \"#utility.yul\":2812:2863   */\n      tag_81\n      jump\t// in\n    tag_130:\n        /* \"#utility.yul\":2807:2810   */\n      dup3\n        /* \"#utility.yul\":2800:2864   */\n      mstore\n        /* \"#utility.yul\":2711:2870   */\n      pop\n      pop\n      jump\t// out\n        /* \"#utility.yul\":2876:3126   */\n    tag_27:\n        /* \"#utility.yul\":2983:2987   */\n      0x00\n        /* \"#utility.yul\":3021:3023   */\n      0x20\n        /* \"#utility.yul\":3010:3019   */\n      dup3\n        /* \"#utility.yul\":3006:3024   */\n      add\n        /* \"#utility.yul\":2998:3024   */\n      swap1\n      pop\n        /* \"#utility.yul\":3034:3119   */\n      tag_132\n        /* \"#utility.yul\":3116:3117   */\n      0x00\n        /* \"#utility.yul\":3105:3114   */\n      dup4\n        /* \"#utility.yul\":3101:3118   */\n      add\n        /* \"#utility.yul\":3092:3098   */\n      dup5\n        /* \"#utility.yul\":3034:3119   */\n      tag_82\n      jump\t// in\n    tag_132:\n        /* \"#utility.yul\":2876:3126   */\n      swap3\n      swap2\n      pop\n      pop\n      jump\t// out\n        /* \"#utility.yul\":3132:3312   */\n    tag_83:\n        /* \"#utility.yul\":3180:3257   */\n      0x4e487b7100000000000000000000000000000000000000000000000000000000\n        /* \"#utility.yul\":3177:3178   */\n      0x00\n        /* \"#utility.yul\":3170:3258   */\n      mstore\n        /* \"#utility.yul\":3277:3281   */\n      0x11\n        /* \"#utility.yul\":3274:3275   */\n      0x04\n        /* \"#utility.yul\":3267:3282   */\n      mstore\n        /* \"#utility.yul\":3301:3305   */\n      0x24\n        /* \"#utility.yul\":3298:3299   */\n      0x00\n        /* \"#utility.yul\":3291:3306   */\n      revert\n        /* \"#utility.yul\":3318:3728   */\n    tag_30:\n        /* \"#utility.yul\":3358:3365   */\n      0x00\n        /* \"#utility.yul\":3381:3401   */\n      tag_135\n        /* \"#utility.yul\":3399:3400   */\n      dup3\n        /* \"#utility.yul\":3381:3401   */\n      tag_67\n      jump\t// in\n    tag_135:\n        /* \"#utility.yul\":3376:3401   */\n      swap2\n      pop\n        /* \"#utility.yul\":3415:3435   */\n      tag_136\n        /* \"#utility.yul\":3433:3434   */\n      dup4\n        /* \"#utility.yul\":3415:3435   */\n      tag_67\n      jump\t// in\n    tag_136:\n        /* \"#utility.yul\":3410:3435   */\n      swap3\n      pop\n        /* \"#utility.yul\":3470:3471   */\n      dup3\n        /* \"#utility.yul\":3467:3468   */\n      dup3\n        /* \"#utility.yul\":3463:3472   */\n      mul\n        /* \"#utility.yul\":3492:3522   */\n      tag_137\n        /* \"#utility.yul\":3510:3521   */\n      dup2\n        /* \"#utility.yul\":3492:3522   */\n      tag_67\n      jump\t// in\n    tag_137:\n        /* \"#utility.yul\":3481:3522   */\n      swap2\n      pop\n        /* \"#utility.yul\":3671:3672   */\n      dup3\n        /* \"#utility.yul\":3662:3669   */\n      dup3\n        /* \"#utility.yul\":3658:3673   */\n      div\n        /* \"#utility.yul\":3655:3656   */\n      dup5\n        /* \"#utility.yul\":3652:3674   */\n      eq\n        /* \"#utility.yul\":3632:3633   */\n      dup4\n        /* \"#utility.yul\":3625:3634   */\n      iszero\n        /* \"#utility.yul\":3605:3688   */\n      or\n        /* \"#utility.yul\":3582:3721   */\n      tag_138\n      jumpi\n        /* \"#utility.yul\":3701:3719   */\n      tag_139\n      tag_83\n      jump\t// in\n    tag_139:\n        /* \"#utility.yul\":3582:3721   */\n    tag_138:\n        /* \"#utility.yul\":3366:3728   */\n      pop\n        /* \"#utility.yul\":3318:3728   */\n      swap3\n      swap2\n      pop\n      pop\n      jump\t// out\n        /* \"#utility.yul\":3734:3914   */\n    tag_84:\n        /* \"#utility.yul\":3782:3859   */\n      0x4e487b7100000000000000000000000000000000000000000000000000000000\n        /* \"#utility.yul\":3779:3780   */\n      0x00\n        /* \"#utility.yul\":3772:3860   */\n      mstore\n        /* \"#utility.yul\":3879:3883   */\n      0x12\n        /* \"#utility.yul\":3876:3877   */\n      0x04\n        /* \"#utility.yul\":3869:3884   */\n      mstore\n        /* \"#utility.yul\":3903:3907   */\n      0x24\n        /* \"#utility.yul\":3900:3901   */\n      0x00\n        /* \"#utility.yul\":3893:3908   */\n      revert\n        /* \"#utility.yul\":3920:4105   */\n    tag_32:\n        /* \"#utility.yul\":3960:3961   */\n      0x00\n        /* \"#utility.yul\":3977:3997   */\n      tag_142\n        /* \"#utility.yul\":3995:3996   */\n      dup3\n        /* \"#utility.yul\":3977:3997   */\n      tag_67\n      jump\t// in\n    tag_142:\n        /* \"#utility.yul\":3972:3997   */\n      swap2\n      pop\n        /* \"#utility.yul\":4011:4031   */\n      tag_143\n        /* \"#utility.yul\":4029:4030   */\n      dup4\n        /* \"#utility.yul\":4011:4031   */\n      tag_67\n      jump\t// in\n    tag_143:\n        /* \"#utility.yul\":4006:4031   */\n      swap3\n      pop\n        /* \"#utility.yul\":4050:4051   */\n      dup3\n        /* \"#utility.yul\":4040:4075   */\n      tag_144\n      jumpi\n        /* \"#utility.yul\":4055:4073   */\n      tag_145\n      tag_84\n      jump\t// in\n    tag_145:\n        /* \"#utility.yul\":4040:4075   */\n    tag_144:\n        /* \"#utility.yul\":4097:4098   */\n      dup3\n        /* \"#utility.yul\":4094:4095   */\n      dup3\n        /* \"#utility.yul\":4090:4099   */\n      div\n        /* \"#utility.yul\":4085:4099   */\n      swap1\n      pop\n        /* \"#utility.yul\":3920:4105   */\n      swap3\n      swap2\n      pop\n      pop\n      jump\t// out\n        /* \"#utility.yul\":4111:4229   */\n    tag_85:\n        /* \"#utility.yul\":4198:4222   */\n      tag_147\n        /* \"#utility.yul\":4216:4221   */\n      dup2\n        /* \"#utility.yul\":4198:4222   */\n      tag_75\n      jump\t// in\n    tag_147:\n        /* \"#utility.yul\":4193:4196   */\n      dup3\n        /* \"#utility.yul\":4186:4223   */\n      mstore\n        /* \"#utility.yul\":4111:4229   */\n      pop\n      pop\n      jump\t// out\n        /* \"#utility.yul\":4235:4567   */\n    tag_36:\n        /* \"#utility.yul\":4356:4360   */\n      0x00\n        /* \"#utility.yul\":4394:4396   */\n      0x40\n        /* \"#utility.yul\":4383:4392   */\n      dup3\n        /* \"#utility.yul\":4379:4397   */\n      add\n        /* \"#utility.yul\":4371:4397   */\n      swap1\n      pop\n        /* \"#utility.yul\":4407:4478   */\n      tag_149\n        /* \"#utility.yul\":4475:4476   */\n      0x00\n        /* \"#utility.yul\":4464:4473   */\n      dup4\n        /* \"#utility.yul\":4460:4477   */\n      add\n        /* \"#utility.yul\":4451:4457   */\n      dup6\n        /* \"#utility.yul\":4407:4478   */\n      tag_85\n      jump\t// in\n    tag_149:\n        /* \"#utility.yul\":4488:4560   */\n      tag_150\n        /* \"#utility.yul\":4556:4558   */\n      0x20\n        /* \"#utility.yul\":4545:4554   */\n      dup4\n        /* \"#utility.yul\":4541:4559   */\n      add\n        /* \"#utility.yul\":4532:4538   */\n      dup5\n        /* \"#utility.yul\":4488:4560   */\n      tag_68\n      jump\t// in\n    tag_150:\n        /* \"#utility.yul\":4235:4567   */\n      swap4\n      swap3\n      pop\n      pop\n      pop\n      jump\t// out\n        /* \"#utility.yul\":4573:4663   */\n    tag_86:\n        /* \"#utility.yul\":4607:4614   */\n      0x00\n        /* \"#utility.yul\":4650:4655   */\n      dup2\n        /* \"#utility.yul\":4643:4656   */\n      iszero\n        /* \"#utility.yul\":4636:4657   */\n      iszero\n        /* \"#utility.yul\":4625:4657   */\n      swap1\n      pop\n        /* \"#utility.yul\":4573:4663   */\n      swap2\n      swap1\n      pop\n      jump\t// out\n        /* \"#utility.yul\":4669:4785   */\n    tag_87:\n        /* \"#utility.yul\":4739:4760   */\n      tag_153\n        /* \"#utility.yul\":4754:4759   */\n      dup2\n        /* \"#utility.yul\":4739:4760   */\n      tag_86\n      jump\t// in\n    tag_153:\n        /* \"#utility.yul\":4732:4737   */\n      dup2\n        /* \"#utility.yul\":4729:4761   */\n      eq\n        /* \"#utility.yul\":4719:4779   */\n      tag_154\n      jumpi\n        /* \"#utility.yul\":4775:4776   */\n      0x00\n        /* \"#utility.yul\":4772:4773   */\n      0x00\n        /* \"#utility.yul\":4765:4777   */\n      revert\n        /* \"#utility.yul\":4719:4779   */\n    tag_154:\n        /* \"#utility.yul\":4669:4785   */\n      pop\n      jump\t// out\n        /* \"#utility.yul\":4791:4928   */\n    tag_88:\n        /* \"#utility.yul\":4845:4850   */\n      0x00\n        /* \"#utility.yul\":4876:4882   */\n      dup2\n        /* \"#utility.yul\":4870:4883   */\n      mload\n        /* \"#utility.yul\":4861:4883   */\n      swap1\n      pop\n        /* \"#utility.yul\":4892:4922   */\n      tag_156\n        /* \"#utility.yul\":4916:4921   */\n      dup2\n        /* \"#utility.yul\":4892:4922   */\n      tag_87\n      jump\t// in\n    tag_156:\n        /* \"#utility.yul\":4791:4928   */\n      swap3\n      swap2\n      pop\n      pop\n      jump\t// out\n        /* \"#utility.yul\":4934:5279   */\n    tag_40:\n        /* \"#utility.yul\":5001:5007   */\n      0x00\n        /* \"#utility.yul\":5050:5052   */\n      0x20\n        /* \"#utility.yul\":5038:5047   */\n      dup3\n        /* \"#utility.yul\":5029:5036   */\n      dup5\n        /* \"#utility.yul\":5025:5048   */\n      sub\n        /* \"#utility.yul\":5021:5053   */\n      slt\n        /* \"#utility.yul\":5018:5137   */\n      iszero\n      tag_158\n      jumpi\n        /* \"#utility.yul\":5056:5135   */\n      tag_159\n      tag_70\n      jump\t// in\n    tag_159:\n        /* \"#utility.yul\":5018:5137   */\n    tag_158:\n        /* \"#utility.yul\":5176:5177   */\n      0x00\n        /* \"#utility.yul\":5201:5262   */\n      tag_160\n        /* \"#utility.yul\":5254:5261   */\n      dup5\n        /* \"#utility.yul\":5245:5251   */\n      dup3\n        /* \"#utility.yul\":5234:5243   */\n      dup6\n        /* \"#utility.yul\":5230:5252   */\n      add\n        /* \"#utility.yul\":5201:5262   */\n      tag_88\n      jump\t// in\n    tag_160:\n        /* \"#utility.yul\":5191:5262   */\n      swap2\n      pop\n        /* \"#utility.yul\":5147:5272   */\n      pop\n        /* \"#utility.yul\":4934:5279   */\n      swap3\n      swap2\n      pop\n      pop\n      jump\t// out\n        /* \"#utility.yul\":5285:5507   */\n    tag_45:\n        /* \"#utility.yul\":5378:5382   */\n      0x00\n        /* \"#utility.yul\":5416:5418   */\n      0x20\n        /* \"#utility.yul\":5405:5414   */\n      dup3\n        /* \"#utility.yul\":5401:5419   */\n      add\n        /* \"#utility.yul\":5393:5419   */\n      swap1\n      pop\n        /* \"#utility.yul\":5429:5500   */\n      tag_162\n        /* \"#utility.yul\":5497:5498   */\n      0x00\n        /* \"#utility.yul\":5486:5495   */\n      dup4\n        /* \"#utility.yul\":5482:5499   */\n      add\n        /* \"#utility.yul\":5473:5479   */\n      dup5\n        /* \"#utility.yul\":5429:5500   */\n      tag_85\n      jump\t// in\n    tag_162:\n        /* \"#utility.yul\":5285:5507   */\n      swap3\n      swap2\n      pop\n      pop\n      jump\t// out\n        /* \"#utility.yul\":5513:5656   */\n    tag_89:\n        /* \"#utility.yul\":5570:5575   */\n      0x00\n        /* \"#utility.yul\":5601:5607   */\n      dup2\n        /* \"#utility.yul\":5595:5608   */\n      mload\n        /* \"#utility.yul\":5586:5608   */\n      swap1\n      pop\n        /* \"#utility.yul\":5617:5650   */\n      tag_164\n        /* \"#utility.yul\":5644:5649   */\n      dup2\n        /* \"#utility.yul\":5617:5650   */\n      tag_72\n      jump\t// in\n    tag_164:\n        /* \"#utility.yul\":5513:5656   */\n      swap3\n      swap2\n      pop\n      pop\n      jump\t// out\n        /* \"#utility.yul\":5662:6013   */\n    tag_49:\n        /* \"#utility.yul\":5732:5738   */\n      0x00\n        /* \"#utility.yul\":5781:5783   */\n      0x20\n        /* \"#utility.yul\":5769:5778   */\n      dup3\n        /* \"#utility.yul\":5760:5767   */\n      dup5\n        /* \"#utility.yul\":5756:5779   */\n      sub\n        /* \"#utility.yul\":5752:5784   */\n      slt\n        /* \"#utility.yul\":5749:5868   */\n      iszero\n      tag_166\n      jumpi\n        /* \"#utility.yul\":5787:5866   */\n      tag_167\n      tag_70\n      jump\t// in\n    tag_167:\n        /* \"#utility.yul\":5749:5868   */\n    tag_166:\n        /* \"#utility.yul\":5907:5908   */\n      0x00\n        /* \"#utility.yul\":5932:5996   */\n      tag_168\n        /* \"#utility.yul\":5988:5995   */\n      dup5\n        /* \"#utility.yul\":5979:5985   */\n      dup3\n        /* \"#utility.yul\":5968:5977   */\n      dup6\n        /* \"#utility.yul\":5964:5986   */\n      add\n        /* \"#utility.yul\":5932:5996   */\n      tag_89\n      jump\t// in\n    tag_168:\n        /* \"#utility.yul\":5922:5996   */\n      swap2\n      pop\n        /* \"#utility.yul\":5878:6006   */\n      pop\n        /* \"#utility.yul\":5662:6013   */\n      swap3\n      swap2\n      pop\n      pop\n      jump\t// out\n        /* \"#utility.yul\":6019:6461   */\n    tag_53:\n        /* \"#utility.yul\":6168:6172   */\n      0x00\n        /* \"#utility.yul\":6206:6208   */\n      0x60\n        /* \"#utility.yul\":6195:6204   */\n      dup3\n        /* \"#utility.yul\":6191:6209   */\n      add\n        /* \"#utility.yul\":6183:6209   */\n      swap1\n      pop\n        /* \"#utility.yul\":6219:6290   */\n      tag_170\n        /* \"#utility.yul\":6287:6288   */\n      0x00\n        /* \"#utility.yul\":6276:6285   */\n      dup4\n        /* \"#utility.yul\":6272:6289   */\n      add\n        /* \"#utility.yul\":6263:6269   */\n      dup7\n        /* \"#utility.yul\":6219:6290   */\n      tag_85\n      jump\t// in\n    tag_170:\n        /* \"#utility.yul\":6300:6372   */\n      tag_171\n        /* \"#utility.yul\":6368:6370   */\n      0x20\n        /* \"#utility.yul\":6357:6366   */\n      dup4\n        /* \"#utility.yul\":6353:6371   */\n      add\n        /* \"#utility.yul\":6344:6350   */\n      dup6\n        /* \"#utility.yul\":6300:6372   */\n      tag_85\n      jump\t// in\n    tag_171:\n        /* \"#utility.yul\":6382:6454   */\n      tag_172\n        /* \"#utility.yul\":6450:6452   */\n      0x40\n        /* \"#utility.yul\":6439:6448   */\n      dup4\n        /* \"#utility.yul\":6435:6453   */\n      add\n        /* \"#utility.yul\":6426:6432   */\n      dup5\n        /* \"#utility.yul\":6382:6454   */\n      tag_68\n      jump\t// in\n    tag_172:\n        /* \"#utility.yul\":6019:6461   */\n      swap5\n      swap4\n      pop\n      pop\n      pop\n      pop\n      jump\t// out\n        /* \"#utility.yul\":6467:6661   */\n    tag_61:\n        /* \"#utility.yul\":6507:6511   */\n      0x00\n        /* \"#utility.yul\":6527:6547   */\n      tag_174\n        /* \"#utility.yul\":6545:6546   */\n      dup3\n        /* \"#utility.yul\":6527:6547   */\n      tag_67\n      jump\t// in\n    tag_174:\n        /* \"#utility.yul\":6522:6547   */\n      swap2\n      pop\n        /* \"#utility.yul\":6561:6581   */\n      tag_175\n        /* \"#utility.yul\":6579:6580   */\n      dup4\n        /* \"#utility.yul\":6561:6581   */\n      tag_67\n      jump\t// in\n    tag_175:\n        /* \"#utility.yul\":6556:6581   */\n      swap3\n      pop\n        /* \"#utility.yul\":6605:6606   */\n      dup3\n        /* \"#utility.yul\":6602:6603   */\n      dup3\n        /* \"#utility.yul\":6598:6607   */\n      sub\n        /* \"#utility.yul\":6590:6607   */\n      swap1\n      pop\n        /* \"#utility.yul\":6629:6630   */\n      dup2\n        /* \"#utility.yul\":6623:6627   */\n      dup2\n        /* \"#utility.yul\":6620:6631   */\n      gt\n        /* \"#utility.yul\":6617:6654   */\n      iszero\n      tag_176\n      jumpi\n        /* \"#utility.yul\":6634:6652   */\n      tag_177\n      tag_83\n      jump\t// in\n    tag_177:\n        /* \"#utility.yul\":6617:6654   */\n    tag_176:\n        /* \"#utility.yul\":6467:6661   */\n      swap3\n      swap2\n      pop\n      pop\n      jump\t// out\n        /* \"#utility.yul\":6667:6858   */\n    tag_65:\n        /* \"#utility.yul\":6707:6710   */\n      0x00\n        /* \"#utility.yul\":6726:6746   */\n      tag_179\n        /* \"#utility.yul\":6744:6745   */\n      dup3\n        /* \"#utility.yul\":6726:6746   */\n      tag_67\n      jump\t// in\n    tag_179:\n        /* \"#utility.yul\":6721:6746   */\n      swap2\n      pop\n        /* \"#utility.yul\":6760:6780   */\n      tag_180\n        /* \"#utility.yul\":6778:6779   */\n      dup4\n        /* \"#utility.yul\":6760:6780   */\n      tag_67\n      jump\t// in\n    tag_180:\n        /* \"#utility.yul\":6755:6780   */\n      swap3\n      pop\n        /* \"#utility.yul\":6803:6804   */\n      dup3\n        /* \"#utility.yul\":6800:6801   */\n      dup3\n        /* \"#utility.yul\":6796:6805   */\n      add\n        /* \"#utility.yul\":6789:6805   */\n      swap1\n      pop\n        /* \"#utility.yul\":6824:6827   */\n      dup1\n        /* \"#utility.yul\":6821:6822   */\n      dup3\n        /* \"#utility.yul\":6818:6828   */\n      gt\n        /* \"#utility.yul\":6815:6851   */\n      iszero\n      tag_181\n      jumpi\n        /* \"#utility.yul\":6831:6849   */\n      tag_182\n      tag_83\n      jump\t// in\n    tag_182:\n        /* \"#utility.yul\":6815:6851   */\n    tag_181:\n        /* \"#utility.yul\":6667:6858   */\n      swap3\n      swap2\n      pop\n      pop\n      jump\t// out\n\n    auxdata: 0xa2646970667358221220e02256a5375073e2bfdafab832f31c83755c205d9a268230ca66baac6fd6d35b64736f6c634300081c0033\n}\n",
				"bytecode": {
					"linkReferences": {},
					"object": "60a060405234801561000f575f5ffd5b5060405161098b38038061098b833981810160405281019061003191906100da565b8073ffffffffffffffffffffffffffffffffffffffff1660808173ffffffffffffffffffffffffffffffffffffffff168152505050610105565b5f5ffd5b5f73ffffffffffffffffffffffffffffffffffffffff82169050919050565b5f6100988261006f565b9050919050565b5f6100a98261008e565b9050919050565b6100b98161009f565b81146100c3575f5ffd5b50565b5f815190506100d4816100b0565b92915050565b5f602082840312156100ef576100ee61006b565b5b5f6100fc848285016100c6565b91505092915050565b6080516108596101325f395f818161012a015281816101f0015281816102a2015261034e01526108595ff3fe608060405234801561000f575f5ffd5b5060043610610055575f3560e01c806318160ddd146100595780632e1a7d4d1461007757806370a0823114610093578063b6b55f25146100c3578063fc0c546a146100df575b5f5ffd5b6100616100fd565b60405161006e9190610464565b60405180910390f35b610091600480360381019061008c91906104ab565b610102565b005b6100ad60048036038101906100a89190610530565b6101c8565b6040516100ba9190610464565b60405180910390f35b6100dd60048036038101906100d891906104ab565b6101dd565b005b6100e761034c565b6040516100f491906105b6565b60405180910390f35b5f5481565b5f5f545f548361011291906105fc565b61011c919061066a565b90506101283382610370565b7f000000000000000000000000000000000000000000000000000000000000000073ffffffffffffffffffffffffffffffffffffffff1663a9059cbb33836040518363ffffffff1660e01b81526004016101839291906106a9565b6020604051808303815f875af115801561019f573d5f5f3e3d5ffd5b505050506040513d601f19601f820116820180604052508101906101c39190610705565b505050565b6001602052805f5260405f205f915090505481565b5f5f5f54036101ee578190506102a0565b7f000000000000000000000000000000000000000000000000000000000000000073ffffffffffffffffffffffffffffffffffffffff166370a08231306040518263ffffffff1660e01b81526004016102479190610730565b602060405180830381865afa158015610262573d5f5f3e3d5ffd5b505050506040513d601f19601f82011682018060405250810190610286919061075d565b5f548361029391906105fc565b61029d919061066a565b90505b7f000000000000000000000000000000000000000000000000000000000000000073ffffffffffffffffffffffffffffffffffffffff166323b872dd3330856040518463ffffffff1660e01b81526004016102fd93929190610788565b6020604051808303815f875af1158015610319573d5f5f3e3d5ffd5b505050506040513d601f19601f8201168201806040525081019061033d9190610705565b5061034833826103de565b5050565b7f000000000000000000000000000000000000000000000000000000000000000081565b805f5f82825461038091906107bd565b925050819055508060015f8473ffffffffffffffffffffffffffffffffffffffff1673ffffffffffffffffffffffffffffffffffffffff1681526020019081526020015f205f8282546103d391906107bd565b925050819055505050565b805f5f8282546103ee91906107f0565b925050819055508060015f8473ffffffffffffffffffffffffffffffffffffffff1673ffffffffffffffffffffffffffffffffffffffff1681526020019081526020015f205f82825461044191906107f0565b925050819055505050565b5f819050919050565b61045e8161044c565b82525050565b5f6020820190506104775f830184610455565b92915050565b5f5ffd5b61048a8161044c565b8114610494575f5ffd5b50565b5f813590506104a581610481565b92915050565b5f602082840312156104c0576104bf61047d565b5b5f6104cd84828501610497565b91505092915050565b5f73ffffffffffffffffffffffffffffffffffffffff82169050919050565b5f6104ff826104d6565b9050919050565b61050f816104f5565b8114610519575f5ffd5b50565b5f8135905061052a81610506565b92915050565b5f602082840312156105455761054461047d565b5b5f6105528482850161051c565b91505092915050565b5f819050919050565b5f61057e610579610574846104d6565b61055b565b6104d6565b9050919050565b5f61058f82610564565b9050919050565b5f6105a082610585565b9050919050565b6105b081610596565b82525050565b5f6020820190506105c95f8301846105a7565b92915050565b7f4e487b71000000000000000000000000000000000000000000000000000000005f52601160045260245ffd5b5f6106068261044c565b91506106118361044c565b925082820261061f8161044c565b91508282048414831517610636576106356105cf565b5b5092915050565b7f4e487b71000000000000000000000000000000000000000000000000000000005f52601260045260245ffd5b5f6106748261044c565b915061067f8361044c565b92508261068f5761068e61063d565b5b828204905092915050565b6106a3816104f5565b82525050565b5f6040820190506106bc5f83018561069a565b6106c96020830184610455565b9392505050565b5f8115159050919050565b6106e4816106d0565b81146106ee575f5ffd5b50565b5f815190506106ff816106db565b92915050565b5f6020828403121561071a5761071961047d565b5b5f610727848285016106f1565b91505092915050565b5f6020820190506107435f83018461069a565b92915050565b5f8151905061075781610481565b92915050565b5f602082840312156107725761077161047d565b5b5f61077f84828501610749565b91505092915050565b5f60608201905061079b5f83018661069a565b6107a8602083018561069a565b6107b56040830184610455565b949350505050565b5f6107c78261044c565b91506107d28361044c565b92508282039050818111156107ea576107e96105cf565b5b92915050565b5f6107fa8261044c565b91506108058361044c565b925082820190508082111561081d5761081c6105cf565b5b9291505056fea2646970667358221220e02256a5375073e2bfdafab832f31c83755c205d9a268230ca66baac6fd6d35b64736f6c634300081c0033",
					"opcodes": "PUSH1 0xA0 PUSH1 0x40 MSTORE CALLVALUE DUP1 ISZERO PUSH2 0xF JUMPI PUSH0 PUSH0 REVERT JUMPDEST POP PUSH1 0x40 MLOAD PUSH2 0x98B CODESIZE SUB DUP1 PUSH2 0x98B DUP4 CODECOPY DUP2 DUP2 ADD PUSH1 0x40 MSTORE DUP2 ADD SWAP1 PUSH2 0x31 SWAP2 SWAP1 PUSH2 0xDA JUMP JUMPDEST DUP1 PUSH20 0xFFFFFFFFFFFFFFFFFFFFFFFFFFFFFFFFFFFFFFFF AND PUSH1 0x80 DUP2 PUSH20 0xFFFFFFFFFFFFFFFFFFFFFFFFFFFFFFFFFFFFFFFF AND DUP2 MSTORE POP POP POP PUSH2 0x105 JUMP JUMPDEST PUSH0 PUSH0 REVERT JUMPDEST PUSH0 PUSH20 0xFFFFFFFFFFFFFFFFFFFFFFFFFFFFFFFFFFFFFFFF DUP3 AND SWAP1 POP SWAP2 SWAP1 POP JUMP JUMPDEST PUSH0 PUSH2 0x98 DUP3 PUSH2 0x6F JUMP JUMPDEST SWAP1 POP SWAP2 SWAP1 POP JUMP JUMPDEST PUSH0 PUSH2 0xA9 DUP3 PUSH2 0x8E JUMP JUMPDEST SWAP1 POP SWAP2 SWAP1 POP JUMP JUMPDEST PUSH2 0xB9 DUP2 PUSH2 0x9F JUMP JUMPDEST DUP2 EQ PUSH2 0xC3 JUMPI PUSH0 PUSH0 REVERT JUMPDEST POP JUMP JUMPDEST PUSH0 DUP2 MLOAD SWAP1 POP PUSH2 0xD4 DUP2 PUSH2 0xB0 JUMP JUMPDEST SWAP3 SWAP2 POP POP JUMP JUMPDEST PUSH0 PUSH1 0x20 DUP3 DUP5 SUB SLT ISZERO PUSH2 0xEF JUMPI PUSH2 0xEE PUSH2 0x6B JUMP JUMPDEST JUMPDEST PUSH0 PUSH2 0xFC DUP5 DUP3 DUP6 ADD PUSH2 0xC6 JUMP JUMPDEST SWAP2 POP POP SWAP3 SWAP2 POP POP JUMP JUMPDEST PUSH1 0x80 MLOAD PUSH2 0x859 PUSH2 0x132 PUSH0 CODECOPY PUSH0 DUP2 DUP2 PUSH2 0x12A ADD MSTORE DUP2 DUP2 PUSH2 0x1F0 ADD MSTORE DUP2 DUP2 PUSH2 0x2A2 ADD MSTORE PUSH2 0x34E ADD MSTORE PUSH2 0x859 PUSH0 RETURN INVALID PUSH1 0x80 PUSH1 0x40 MSTORE CALLVALUE DUP1 ISZERO PUSH2 0xF JUMPI PUSH0 PUSH0 REVERT JUMPDEST POP PUSH1 0x4 CALLDATASIZE LT PUSH2 0x55 JUMPI PUSH0 CALLDATALOAD PUSH1 0xE0 SHR DUP1 PUSH4 0x18160DDD EQ PUSH2 0x59 JUMPI DUP1 PUSH4 0x2E1A7D4D EQ PUSH2 0x77 JUMPI DUP1 PUSH4 0x70A08231 EQ PUSH2 0x93 JUMPI DUP1 PUSH4 0xB6B55F25 EQ PUSH2 0xC3 JUMPI DUP1 PUSH4 0xFC0C546A EQ PUSH2 0xDF JUMPI JUMPDEST PUSH0 PUSH0 REVERT JUMPDEST PUSH2 0x61 PUSH2 0xFD JUMP JUMPDEST PUSH1 0x40 MLOAD PUSH2 0x6E SWAP2 SWAP1 PUSH2 0x464 JUMP JUMPDEST PUSH1 0x40 MLOAD DUP1 SWAP2 SUB SWAP1 RETURN JUMPDEST PUSH2 0x91 PUSH1 0x4 DUP1 CALLDATASIZE SUB DUP2 ADD SWAP1 PUSH2 0x8C SWAP2 SWAP1 PUSH2 0x4AB JUMP JUMPDEST PUSH2 0x102 JUMP JUMPDEST STOP JUMPDEST PUSH2 0xAD PUSH1 0x4 DUP1 CALLDATASIZE SUB DUP2 ADD SWAP1 PUSH2 0xA8 SWAP2 SWAP1 PUSH2 0x530 JUMP JUMPDEST PUSH2 0x1C8 JUMP JUMPDEST PUSH1 0x40 MLOAD PUSH2 0xBA SWAP2 SWAP1 PUSH2 0x464 JUMP JUMPDEST PUSH1 0x40 MLOAD DUP1 SWAP2 SUB SWAP1 RETURN JUMPDEST PUSH2 0xDD PUSH1 0x4 DUP1 CALLDATASIZE SUB DUP2 ADD SWAP1 PUSH2 0xD8 SWAP2 SWAP1 PUSH2 0x4AB JUMP JUMPDEST PUSH2 0x1DD JUMP JUMPDEST STOP JUMPDEST PUSH2 0xE7 PUSH2 0x34C JUMP JUMPDEST PUSH1 0x40 MLOAD PUSH2 0xF4 SWAP2 SWAP1 PUSH2 0x5B6 JUMP JUMPDEST PUSH1 0x40 MLOAD DUP1 SWAP2 SUB SWAP1 RETURN JUMPDEST PUSH0 SLOAD DUP2 JUMP JUMPDEST PUSH0 PUSH0 SLOAD PUSH0 SLOAD DUP4 PUSH2 0x112 SWAP2 SWAP1 PUSH2 0x5FC JUMP JUMPDEST PUSH2 0x11C SWAP2 SWAP1 PUSH2 0x66A JUMP JUMPDEST SWAP1 POP PUSH2 0x128 CALLER DUP3 PUSH2 0x370 JUMP JUMPDEST PUSH32 0x0 PUSH20 0xFFFFFFFFFFFFFFFFFFFFFFFFFFFFFFFFFFFFFFFF AND PUSH4 0xA9059CBB CALLER DUP4 PUSH1 0x40 MLOAD DUP4 PUSH4 0xFFFFFFFF AND PUSH1 0xE0 SHL DUP2 MSTORE PUSH1 0x4 ADD PUSH2 0x183 SWAP3 SWAP2 SWAP1 PUSH2 0x6A9 JUMP JUMPDEST PUSH1 0x20 PUSH1 0x40 MLOAD DUP1 DUP4 SUB DUP2 PUSH0 DUP8 GAS CALL ISZERO DUP1 ISZERO PUSH2 0x19F JUMPI RETURNDATASIZE PUSH0 PUSH0 RETURNDATACOPY RETURNDATASIZE PUSH0 REVERT JUMPDEST POP POP POP POP PUSH1 0x40 MLOAD RETURNDATASIZE PUSH1 0x1F NOT PUSH1 0x1F DUP3 ADD AND DUP3 ADD DUP1 PUSH1 0x40 MSTORE POP DUP2 ADD SWAP1 PUSH2 0x1C3 SWAP2 SWAP1 PUSH2 0x705 JUMP JUMPDEST POP POP POP JUMP JUMPDEST PUSH1 0x1 PUSH1 0x20 MSTORE DUP1 PUSH0 MSTORE PUSH1 0x40 PUSH0 KECCAK256 PUSH0 SWAP2 POP SWAP1 POP SLOAD DUP2 JUMP JUMPDEST PUSH0 PUSH0 PUSH0 SLOAD SUB PUSH2 0x1EE JUMPI DUP2 SWAP1 POP PUSH2 0x2A0 JUMP JUMPDEST PUSH32 0x0 PUSH20 0xFFFFFFFFFFFFFFFFFFFFFFFFFFFFFFFFFFFFFFFF AND PUSH4 0x70A08231 ADDRESS PUSH1 0x40 MLOAD DUP3 PUSH4 0xFFFFFFFF AND PUSH1 0xE0 SHL DUP2 MSTORE PUSH1 0x4 ADD PUSH2 0x247 SWAP2 SWAP1 PUSH2 0x730 JUMP JUMPDEST PUSH1 0x20 PUSH1 0x40 MLOAD DUP1 DUP4 SUB DUP2 DUP7 GAS STATICCALL ISZERO DUP1 ISZERO PUSH2 0x262 JUMPI RETURNDATASIZE PUSH0 PUSH0 RETURNDATACOPY RETURNDATASIZE PUSH0 REVERT JUMPDEST POP POP POP POP PUSH1 0x40 MLOAD RETURNDATASIZE PUSH1 0x1F NOT PUSH1 0x1F DUP3 ADD AND DUP3 ADD DUP1 PUSH1 0x40 MSTORE POP DUP2 ADD SWAP1 PUSH2 0x286 SWAP2 SWAP1 PUSH2 0x75D JUMP JUMPDEST PUSH0 SLOAD DUP4 PUSH2 0x293 SWAP2 SWAP1 PUSH2 0x5FC JUMP JUMPDEST PUSH2 0x29D SWAP2 SWAP1 PUSH2 0x66A JUMP JUMPDEST SWAP1 POP JUMPDEST PUSH32 0x0 PUSH20 0xFFFFFFFFFFFFFFFFFFFFFFFFFFFFFFFFFFFFFFFF AND PUSH4 0x23B872DD CALLER ADDRESS DUP6 PUSH1 0x40 MLOAD DUP5 PUSH4 0xFFFFFFFF AND PUSH1 0xE0 SHL DUP2 MSTORE PUSH1 0x4 ADD PUSH2 0x2FD SWAP4 SWAP3 SWAP2 SWAP1 PUSH2 0x788 JUMP JUMPDEST PUSH1 0x20 PUSH1 0x40 MLOAD DUP1 DUP4 SUB DUP2 PUSH0 DUP8 GAS CALL ISZERO DUP1 ISZERO PUSH2 0x319 JUMPI RETURNDATASIZE PUSH0 PUSH0 RETURNDATACOPY RETURNDATASIZE PUSH0 REVERT JUMPDEST POP POP POP POP PUSH1 0x40 MLOAD RETURNDATASIZE PUSH1 0x1F NOT PUSH1 0x1F DUP3 ADD AND DUP3 ADD DUP1 PUSH1 0x40 MSTORE POP DUP2 ADD SWAP1 PUSH2 0x33D SWAP2 SWAP1 PUSH2 0x705 JUMP JUMPDEST POP PUSH2 0x348 CALLER DUP3 PUSH2 0x3DE JUMP JUMPDEST POP POP JUMP JUMPDEST PUSH32 0x0 DUP2 JUMP JUMPDEST DUP1 PUSH0 PUSH0 DUP3 DUP3 SLOAD PUSH2 0x380 SWAP2 SWAP1 PUSH2 0x7BD JUMP JUMPDEST SWAP3 POP POP DUP2 SWAP1 SSTORE POP DUP1 PUSH1 0x1 PUSH0 DUP5 PUSH20 0xFFFFFFFFFFFFFFFFFFFFFFFFFFFFFFFFFFFFFFFF AND PUSH20 0xFFFFFFFFFFFFFFFFFFFFFFFFFFFFFFFFFFFFFFFF AND DUP2 MSTORE PUSH1 0x20 ADD SWAP1 DUP2 MSTORE PUSH1 0x20 ADD PUSH0 KECCAK256 PUSH0 DUP3 DUP3 SLOAD PUSH2 0x3D3 SWAP2 SWAP1 PUSH2 0x7BD JUMP JUMPDEST SWAP3 POP POP DUP2 SWAP1 SSTORE POP POP POP JUMP JUMPDEST DUP1 PUSH0 PUSH0 DUP3 DUP3 SLOAD PUSH2 0x3EE SWAP2 SWAP1 PUSH2 0x7F0 JUMP JUMPDEST SWAP3 POP POP DUP2 SWAP1 SSTORE POP DUP1 PUSH1 0x1 PUSH0 DUP5 PUSH20 0xFFFFFFFFFFFFFFFFFFFFFFFFFFFFFFFFFFFFFFFF AND PUSH20 0xFFFFFFFFFFFFFFFFFFFFFFFFFFFFFFFFFFFFFFFF AND DUP2 MSTORE PUSH1 0x20 ADD SWAP1 DUP2 MSTORE PUSH1 0x20 ADD PUSH0 KECCAK256 PUSH0 DUP3 DUP3 SLOAD PUSH2 0x441 SWAP2 SWAP1 PUSH2 0x7F0 JUMP JUMPDEST SWAP3 POP POP DUP2 SWAP1 SSTORE POP POP POP JUMP JUMPDEST PUSH0 DUP2 SWAP1 POP SWAP2 SWAP1 POP JUMP JUMPDEST PUSH2 0x45E DUP2 PUSH2 0x44C JUMP JUMPDEST DUP3 MSTORE POP POP JUMP JUMPDEST PUSH0 PUSH1 0x20 DUP3 ADD SWAP1 POP PUSH2 0x477 PUSH0 DUP4 ADD DUP5 PUSH2 0x455 JUMP JUMPDEST SWAP3 SWAP2 POP POP JUMP JUMPDEST PUSH0 PUSH0 REVERT JUMPDEST PUSH2 0x48A DUP2 PUSH2 0x44C JUMP JUMPDEST DUP2 EQ PUSH2 0x494 JUMPI PUSH0 PUSH0 REVERT JUMPDEST POP JUMP JUMPDEST PUSH0 DUP2 CALLDATALOAD SWAP1 POP PUSH2 0x4A5 DUP2 PUSH2 0x481 JUMP JUMPDEST SWAP3 SWAP2 POP POP JUMP JUMPDEST PUSH0 PUSH1 0x20 DUP3 DUP5 SUB SLT ISZERO PUSH2 0x4C0 JUMPI PUSH2 0x4BF PUSH2 0x47D JUMP JUMPDEST JUMPDEST PUSH0 PUSH2 0x4CD DUP5 DUP3 DUP6 ADD PUSH2 0x497 JUMP JUMPDEST SWAP2 POP POP SWAP3 SWAP2 POP POP JUMP JUMPDEST PUSH0 PUSH20 0xFFFFFFFFFFFFFFFFFFFFFFFFFFFFFFFFFFFFFFFF DUP3 AND SWAP1 POP SWAP2 SWAP1 POP JUMP JUMPDEST PUSH0 PUSH2 0x4FF DUP3 PUSH2 0x4D6 JUMP JUMPDEST SWAP1 POP SWAP2 SWAP1 POP JUMP JUMPDEST PUSH2 0x50F DUP2 PUSH2 0x4F5 JUMP JUMPDEST DUP2 EQ PUSH2 0x519 JUMPI PUSH0 PUSH0 REVERT JUMPDEST POP JUMP JUMPDEST PUSH0 DUP2 CALLDATALOAD SWAP1 POP PUSH2 0x52A DUP2 PUSH2 0x506 JUMP JUMPDEST SWAP3 SWAP2 POP POP JUMP JUMPDEST PUSH0 PUSH1 0x20 DUP3 DUP5 SUB SLT ISZERO PUSH2 0x545 JUMPI PUSH2 0x544 PUSH2 0x47D JUMP JUMPDEST JUMPDEST PUSH0 PUSH2 0x552 DUP5 DUP3 DUP6 ADD PUSH2 0x51C JUMP JUMPDEST SWAP2 POP POP SWAP3 SWAP2 POP POP JUMP JUMPDEST PUSH0 DUP2 SWAP1 POP SWAP2 SWAP1 POP JUMP JUMPDEST PUSH0 PUSH2 0x57E PUSH2 0x579 PUSH2 0x574 DUP5 PUSH2 0x4D6 JUMP JUMPDEST PUSH2 0x55B JUMP JUMPDEST PUSH2 0x4D6 JUMP JUMPDEST SWAP1 POP SWAP2 SWAP1 POP JUMP JUMPDEST PUSH0 PUSH2 0x58F DUP3 PUSH2 0x564 JUMP JUMPDEST SWAP1 POP SWAP2 SWAP1 POP JUMP JUMPDEST PUSH0 PUSH2 0x5A0 DUP3 PUSH2 0x585 JUMP JUMPDEST SWAP1 POP SWAP2 SWAP1 POP JUMP JUMPDEST PUSH2 0x5B0 DUP2 PUSH2 0x596 JUMP JUMPDEST DUP3 MSTORE POP POP JUMP JUMPDEST PUSH0 PUSH1 0x20 DUP3 ADD SWAP1 POP PUSH2 0x5C9 PUSH0 DUP4 ADD DUP5 PUSH2 0x5A7 JUMP JUMPDEST SWAP3 SWAP2 POP POP JUMP JUMPDEST PUSH32 0x4E487B7100000000000000000000000000000000000000000000000000000000 PUSH0 MSTORE PUSH1 0x11 PUSH1 0x4 MSTORE PUSH1 0x24 PUSH0 REVERT JUMPDEST PUSH0 PUSH2 0x606 DUP3 PUSH2 0x44C JUMP JUMPDEST SWAP2 POP PUSH2 0x611 DUP4 PUSH2 0x44C JUMP JUMPDEST SWAP3 POP DUP3 DUP3 MUL PUSH2 0x61F DUP2 PUSH2 0x44C JUMP JUMPDEST SWAP2 POP DUP3 DUP3 DIV DUP5 EQ DUP4 ISZERO OR PUSH2 0x636 JUMPI PUSH2 0x635 PUSH2 0x5CF JUMP JUMPDEST JUMPDEST POP SWAP3 SWAP2 POP POP JUMP JUMPDEST PUSH32 0x4E487B7100000000000000000000000000000000000000000000000000000000 PUSH0 MSTORE PUSH1 0x12 PUSH1 0x4 MSTORE PUSH1 0x24 PUSH0 REVERT JUMPDEST PUSH0 PUSH2 0x674 DUP3 PUSH2 0x44C JUMP JUMPDEST SWAP2 POP PUSH2 0x67F DUP4 PUSH2 0x44C JUMP JUMPDEST SWAP3 POP DUP3 PUSH2 0x68F JUMPI PUSH2 0x68E PUSH2 0x63D JUMP JUMPDEST JUMPDEST DUP3 DUP3 DIV SWAP1 POP SWAP3 SWAP2 POP POP JUMP JUMPDEST PUSH2 0x6A3 DUP2 PUSH2 0x4F5 JUMP JUMPDEST DUP3 MSTORE POP POP JUMP JUMPDEST PUSH0 PUSH1 0x40 DUP3 ADD SWAP1 POP PUSH2 0x6BC PUSH0 DUP4 ADD DUP6 PUSH2 0x69A JUMP JUMPDEST PUSH2 0x6C9 PUSH1 0x20 DUP4 ADD DUP5 PUSH2 0x455 JUMP JUMPDEST SWAP4 SWAP3 POP POP POP JUMP JUMPDEST PUSH0 DUP2 ISZERO ISZERO SWAP1 POP SWAP2 SWAP1 POP JUMP JUMPDEST PUSH2 0x6E4 DUP2 PUSH2 0x6D0 JUMP JUMPDEST DUP2 EQ PUSH2 0x6EE JUMPI PUSH0 PUSH0 REVERT JUMPDEST POP JUMP JUMPDEST PUSH0 DUP2 MLOAD SWAP1 POP PUSH2 0x6FF DUP2 PUSH2 0x6DB JUMP JUMPDEST SWAP3 SWAP2 POP POP JUMP JUMPDEST PUSH0 PUSH1 0x20 DUP3 DUP5 SUB SLT ISZERO PUSH2 0x71A JUMPI PUSH2 0x719 PUSH2 0x47D JUMP JUMPDEST JUMPDEST PUSH0 PUSH2 0x727 DUP5 DUP3 DUP6 ADD PUSH2 0x6F1 JUMP JUMPDEST SWAP2 POP POP SWAP3 SWAP2 POP POP JUMP JUMPDEST PUSH0 PUSH1 0x20 DUP3 ADD SWAP1 POP PUSH2 0x743 PUSH0 DUP4 ADD DUP5 PUSH2 0x69A JUMP JUMPDEST SWAP3 SWAP2 POP POP JUMP JUMPDEST PUSH0 DUP2 MLOAD SWAP1 POP PUSH2 0x757 DUP2 PUSH2 0x481 JUMP JUMPDEST SWAP3 SWAP2 POP POP JUMP JUMPDEST PUSH0 PUSH1 0x20 DUP3 DUP5 SUB SLT ISZERO PUSH2 0x772 JUMPI PUSH2 0x771 PUSH2 0x47D JUMP JUMPDEST JUMPDEST PUSH0 PUSH2 0x77F DUP5 DUP3 DUP6 ADD PUSH2 0x749 JUMP JUMPDEST SWAP2 POP POP SWAP3 SWAP2 POP POP JUMP JUMPDEST PUSH0 PUSH1 0x60 DUP3 ADD SWAP1 POP PUSH2 0x79B PUSH0 DUP4 ADD DUP7 PUSH2 0x69A JUMP JUMPDEST PUSH2 0x7A8 PUSH1 0x20 DUP4 ADD DUP6 PUSH2 0x69A JUMP JUMPDEST PUSH2 0x7B5 PUSH1 0x40 DUP4 ADD DUP5 PUSH2 0x455 JUMP JUMPDEST SWAP5 SWAP4 POP POP POP POP JUMP JUMPDEST PUSH0 PUSH2 0x7C7 DUP3 PUSH2 0x44C JUMP JUMPDEST SWAP2 POP PUSH2 0x7D2 DUP4 PUSH2 0x44C JUMP JUMPDEST SWAP3 POP DUP3 DUP3 SUB SWAP1 POP DUP2 DUP2 GT ISZERO PUSH2 0x7EA JUMPI PUSH2 0x7E9 PUSH2 0x5CF JUMP JUMPDEST JUMPDEST SWAP3 SWAP2 POP POP JUMP JUMPDEST PUSH0 PUSH2 0x7FA DUP3 PUSH2 0x44C JUMP JUMPDEST SWAP2 POP PUSH2 0x805 DUP4 PUSH2 0x44C JUMP JUMPDEST SWAP3 POP DUP3 DUP3 ADD SWAP1 POP DUP1 DUP3 GT ISZERO PUSH2 0x81D JUMPI PUSH2 0x81C PUSH2 0x5CF JUMP JUMPDEST JUMPDEST SWAP3 SWAP2 POP POP JUMP INVALID LOG2 PUSH5 0x6970667358 0x22 SLT KECCAK256 0xE0 0x22 JUMP 0xA5 CALLDATACOPY POP PUSH20 0xE2BFDAFAB832F31C83755C205D9A268230CA66BA 0xAC PUSH16 0xD6D35B64736F6C634300081C00330000 "
				},
				"gasEstimates": {
					"creation": {
						"codeDepositCost": "427400",
						"executionCost": "infinite",
						"totalCost": "infinite"
					},
					"external": {
						"balanceOf(address)": "2824",
						"deposit(uint256)": "infinite",
						"token()": "infinite",
						"totalSupply()": "2402",
						"withdraw(uint256)": "infinite"
					},
					"internal": {
						"_burn(address,uint256)": "infinite",
						"_mint(address,uint256)": "infinite"
					}
				},
				"methodIdentifiers": {
					"balanceOf(address)": "70a08231",
					"deposit(uint256)": "b6b55f25",
					"token()": "fc0c546a",
					"totalSupply()": "18160ddd",
					"withdraw(uint256)": "2e1a7d4d"
				}
			},
			"storageLayout": {
				"storage": [
					{
						"astId": 7,
						"contract": "contracts/Ddfi_lpl/valut/valut01_sol.sol:Vault01",
						"label": "totalSupply",
						"offset": 0,
						"slot": "0",
						"type": "t_uint256"
					},
					{
						"astId": 11,
						"contract": "contracts/Ddfi_lpl/valut/valut01_sol.sol:Vault01",
						"label": "balanceOf",
						"offset": 0,
						"slot": "1",
						"type": "t_mapping(t_address,t_uint256)"
					}
				],
				"types": {
					"t_address": {
						"encoding": "inplace",
						"label": "address",
						"numberOfBytes": "20"
					},
					"t_mapping(t_address,t_uint256)": {
						"encoding": "mapping",
						"key": "t_address",
						"label": "mapping(address => uint256)",
						"numberOfBytes": "32",
						"value": "t_uint256"
					},
					"t_uint256": {
						"encoding": "inplace",
						"label": "uint256",
						"numberOfBytes": "32"
					}
				}
			},
			"userdoc": {
				"kind": "user",
				"methods": {},
				"version": 1
			}
		}
	}
}