{
	"data": {
		"bytecode": {
			"linkReferences": {},
			"object": "608060405234801561000f575f5ffd5b506040518060400160405280600381526020017f576f5700000000000000000000000000000000000000000000000000000000008152506040518060400160405280600381526020017f5757490000000000000000000000000000000000000000000000000000000000815250815f908161008a91906106f9565b50806001908161009a91906106f9565b5050506100c33360016402540be40060405180602001604052805f81525061016260201b60201c565b6100eb33600266038d7ea4c6800060405180602001604052805f81525061016260201b60201c565b61011533600368056bc75e2d6310000060405180602001604052805f81525061016260201b60201c565b61013b3360046402540be40060405180602001604052805f81525061016260201b60201c565b61015d336005600160405180602001604052805f81525061016260201b60201c565b610cef565b5f73ffffffffffffffffffffffffffffffffffffffff168473ffffffffffffffffffffffffffffffffffffffff16036101d0576040517f08c379a00000000000000000000000000000000000000000000000000000000081526004016101c790610848565b60405180910390fd5b5f3390508260025f8681526020019081526020015f205f8773ffffffffffffffffffffffffffffffffffffffff1673ffffffffffffffffffffffffffffffffffffffff1681526020019081526020015f205f82825461022f9190610893565b925050819055508473ffffffffffffffffffffffffffffffffffffffff165f73ffffffffffffffffffffffffffffffffffffffff168273ffffffffffffffffffffffffffffffffffffffff167fc3d58168c5ae7397731d063d5bbf3d657854427343f4c083240f7aacaa2d0f6287876040516102ac9291906108d5565b60405180910390a46102c8815f878787876102cf60201b60201c565b5050505050565b6102f48473ffffffffffffffffffffffffffffffffffffffff166104ab60201b60201c565b156104a3578373ffffffffffffffffffffffffffffffffffffffff1663f23a6e6187878686866040518663ffffffff1660e01b815260040161033a9594939291906109ab565b6020604051808303815f875af192505050801561037557506040513d601f19601f820116820180604052508101906103729190610a65565b60015b61041a57610381610a9c565b806308c379a0036103dd5750610395610aec565b806103a057506103df565b806040517f08c379a00000000000000000000000000000000000000000000000000000000081526004016103d49190610bb3565b60405180910390fd5b505b6040517f08c379a000000000000000000000000000000000000000000000000000000000815260040161041190610c43565b60405180910390fd5b63f23a6e6160e01b7bffffffffffffffffffffffffffffffffffffffffffffffffffffffff1916817bffffffffffffffffffffffffffffffffffffffffffffffffffffffff1916146104a1576040517f08c379a000000000000000000000000000000000000000000000000000000000815260040161049890610cd1565b60405180910390fd5b505b505050505050565b5f5f823b90505f8111915050919050565b5f81519050919050565b7f4e487b71000000000000000000000000000000000000000000000000000000005f52604160045260245ffd5b7f4e487b71000000000000000000000000000000000000000000000000000000005f52602260045260245ffd5b5f600282049050600182168061053757607f821691505b60208210810361054a576105496104f3565b5b50919050565b5f819050815f5260205f209050919050565b5f6020601f8301049050919050565b5f82821b905092915050565b5f600883026105ac7fffffffffffffffffffffffffffffffffffffffffffffffffffffffffffffffff82610571565b6105b68683610571565b95508019841693508086168417925050509392505050565b5f819050919050565b5f819050919050565b5f6105fa6105f56105f0846105ce565b6105d7565b6105ce565b9050919050565b5f819050919050565b610613836105e0565b61062761061f82610601565b84845461057d565b825550505050565b5f5f905090565b61063e61062f565b61064981848461060a565b505050565b5b8181101561066c576106615f82610636565b60018101905061064f565b5050565b601f8211156106b15761068281610550565b61068b84610562565b8101602085101561069a578190505b6106ae6106a685610562565b83018261064e565b50505b505050565b5f82821c905092915050565b5f6106d15f19846008026106b6565b1980831691505092915050565b5f6106e983836106c2565b9150826002028217905092915050565b610702826104bc565b67ffffffffffffffff81111561071b5761071a6104c6565b5b6107258254610520565b610730828285610670565b5f60209050601f831160018114610761575f841561074f578287015190505b61075985826106de565b8655506107c0565b601f19841661076f86610550565b5f5b8281101561079657848901518255600182019150602085019450602081019050610771565b868310156107b357848901516107af601f8916826106c2565b8355505b6001600288020188555050505b505050505050565b5f82825260208201905092915050565b7f455243313135353a206d696e7420746f20746865207a65726f206164647265735f8201527f7300000000000000000000000000000000000000000000000000000000000000602082015250565b5f6108326021836107c8565b915061083d826107d8565b604082019050919050565b5f6020820190508181035f83015261085f81610826565b9050919050565b7f4e487b71000000000000000000000000000000000000000000000000000000005f52601160045260245ffd5b5f61089d826105ce565b91506108a8836105ce565b92508282019050808211156108c0576108bf610866565b5b92915050565b6108cf816105ce565b82525050565b5f6040820190506108e85f8301856108c6565b6108f560208301846108c6565b9392505050565b5f73ffffffffffffffffffffffffffffffffffffffff82169050919050565b5f610925826108fc565b9050919050565b6109358161091b565b82525050565b5f81519050919050565b5f82825260208201905092915050565b8281835e5f83830152505050565b5f601f19601f8301169050919050565b5f61097d8261093b565b6109878185610945565b9350610997818560208601610955565b6109a081610963565b840191505092915050565b5f60a0820190506109be5f83018861092c565b6109cb602083018761092c565b6109d860408301866108c6565b6109e560608301856108c6565b81810360808301526109f78184610973565b90509695505050505050565b5f604051905090565b5f5ffd5b5f7fffffffff0000000000000000000000000000000000000000000000000000000082169050919050565b610a4481610a10565b8114610a4e575f5ffd5b50565b5f81519050610a5f81610a3b565b92915050565b5f60208284031215610a7a57610a79610a0c565b5b5f610a8784828501610a51565b91505092915050565b5f8160e01c9050919050565b5f60033d1115610ab85760045f5f3e610ab55f51610a90565b90505b90565b610ac482610963565b810181811067ffffffffffffffff82111715610ae357610ae26104c6565b5b80604052505050565b5f60443d10610b7857610afd610a03565b60043d036004823e80513d602482011167ffffffffffffffff82111715610b25575050610b78565b808201805167ffffffffffffffff811115610b435750505050610b78565b80602083010160043d038501811115610b60575050505050610b78565b610b6f82602001850186610abb565b82955050505050505b90565b5f610b85826104bc565b610b8f81856107c8565b9350610b9f818560208601610955565b610ba881610963565b840191505092915050565b5f6020820190508181035f830152610bcb8184610b7b565b905092915050565b7f455243313135353a207472616e7366657220746f206e6f6e2d455243313135355f8201527f526563656976657220696d706c656d656e746572000000000000000000000000602082015250565b5f610c2d6034836107c8565b9150610c3882610bd3565b604082019050919050565b5f6020820190508181035f830152610c5a81610c21565b9050919050565b7f455243313135353a204552433131353552656365697665722072656a656374655f8201527f6420746f6b656e73000000000000000000000000000000000000000000000000602082015250565b5f610cbb6028836107c8565b9150610cc682610c61565b604082019050919050565b5f6020820190508181035f830152610ce881610caf565b9050919050565b6127aa80610cfc5f395ff3fe608060405234801561000f575f5ffd5b50600436106100f2575f3560e01c80634e1273f411610095578063a22cb46511610064578063a22cb46514610286578063e3e55f08146102a2578063e985e9c5146102c0578063f242432a146102f0576100f2565b80634e1273f4146101fc57806367998f381461022c57806390f5f0cd1461024a57806395d89b4114610268576100f2565b80630e89341c116100d15780630e89341c14610174578063217ffdd3146101a45780632eb2c2d6146101c25780633e4bee38146101de576100f2565b8062fdd58e146100f657806301ffc9a71461012657806306fdde0314610156575b5f5ffd5b610110600480360381019061010b91906115a9565b61030c565b60405161011d91906115f6565b60405180910390f35b610140600480360381019061013b9190611664565b6103d0565b60405161014d91906116a9565b60405180910390f35b61015e610509565b60405161016b9190611732565b60405180910390f35b61018e60048036038101906101899190611752565b610594565b60405161019b9190611732565b60405180910390f35b6101ac6105f0565b6040516101b991906115f6565b60405180910390f35b6101dc60048036038101906101d7919061196d565b6105f5565b005b6101e661095f565b6040516101f391906115f6565b60405180910390f35b61021660048036038101906102119190611af8565b610964565b6040516102239190611c25565b60405180910390f35b610234610a78565b60405161024191906115f6565b60405180910390f35b610252610a7d565b60405161025f91906115f6565b60405180910390f35b610270610a82565b60405161027d9190611732565b60405180910390f35b6102a0600480360381019061029b9190611c6f565b610b0e565b005b6102aa610c74565b6040516102b791906115f6565b60405180910390f35b6102da60048036038101906102d59190611cad565b610c79565b6040516102e791906116a9565b60405180910390f35b61030a60048036038101906103059190611ceb565b610d07565b005b5f5f73ffffffffffffffffffffffffffffffffffffffff168373ffffffffffffffffffffffffffffffffffffffff160361037b576040517f08c379a000000000000000000000000000000000000000000000000000000000815260040161037290611dee565b60405180910390fd5b60025f8381526020019081526020015f205f8473ffffffffffffffffffffffffffffffffffffffff1673ffffffffffffffffffffffffffffffffffffffff1681526020019081526020015f2054905092915050565b5f7fd9b67a26000000000000000000000000000000000000000000000000000000007bffffffffffffffffffffffffffffffffffffffffffffffffffffffff1916827bffffffffffffffffffffffffffffffffffffffffffffffffffffffff1916148061049a57507f0e89341c000000000000000000000000000000000000000000000000000000007bffffffffffffffffffffffffffffffffffffffffffffffffffffffff1916827bffffffffffffffffffffffffffffffffffffffffffffffffffffffff1916145b8061050257507f01ffc9a7000000000000000000000000000000000000000000000000000000007bffffffffffffffffffffffffffffffffffffffffffffffffffffffff1916827bffffffffffffffffffffffffffffffffffffffffffffffffffffffff1916145b9050919050565b5f805461051590611e39565b80601f016020809104026020016040519081016040528092919081815260200182805461054190611e39565b801561058c5780601f106105635761010080835404028352916020019161058c565b820191905f5260205f20905b81548152906001019060200180831161056f57829003601f168201915b505050505081565b60605f61059f610fd5565b90505f8151116105bd5760405180602001604052805f8152506105e8565b806105c784610ff5565b6040516020016105d8929190611ea3565b6040516020818303038152906040525b915050919050565b600481565b5f3390508073ffffffffffffffffffffffffffffffffffffffff168673ffffffffffffffffffffffffffffffffffffffff16148061063957506106388682610c79565b5b610678576040517f08c379a000000000000000000000000000000000000000000000000000000000815260040161066f90611f36565b60405180910390fd5b82518451146106bc576040517f08c379a00000000000000000000000000000000000000000000000000000000081526004016106b390611fc4565b60405180910390fd5b5f73ffffffffffffffffffffffffffffffffffffffff168573ffffffffffffffffffffffffffffffffffffffff160361072a576040517f08c379a000000000000000000000000000000000000000000000000000000000815260040161072190612052565b60405180910390fd5b5f5f90505b84518110156108ca575f85828151811061074c5761074b612070565b5b602002602001015190505f85838151811061076a57610769612070565b5b602002602001015190505f60025f8481526020019081526020015f205f8b73ffffffffffffffffffffffffffffffffffffffff1673ffffffffffffffffffffffffffffffffffffffff1681526020019081526020015f2054905081811015610807576040517f08c379a00000000000000000000000000000000000000000000000000000000081526004016107fe9061210d565b60405180910390fd5b81810360025f8581526020019081526020015f205f8c73ffffffffffffffffffffffffffffffffffffffff1673ffffffffffffffffffffffffffffffffffffffff1681526020019081526020015f20819055508160025f8581526020019081526020015f205f8b73ffffffffffffffffffffffffffffffffffffffff1673ffffffffffffffffffffffffffffffffffffffff1681526020019081526020015f205f8282546108b59190612158565b9250508190555050505080600101905061072f565b508473ffffffffffffffffffffffffffffffffffffffff168673ffffffffffffffffffffffffffffffffffffffff168273ffffffffffffffffffffffffffffffffffffffff167f4a39dc06d4c0dbc64b70af90fd698a233a518aa5d07e595d983b8c0526c8f7fb878760405161094192919061218b565b60405180910390a461095781878787878761114e565b505050505050565b600181565b606081518351146109aa576040517f08c379a00000000000000000000000000000000000000000000000000000000081526004016109a190612230565b60405180910390fd5b5f835167ffffffffffffffff8111156109c6576109c5611781565b5b6040519080825280602002602001820160405280156109f45781602001602082028036833780820191505090505b5090505f5f90505b8451811015610a6d57610a43858281518110610a1b57610a1a612070565b5b6020026020010151858381518110610a3657610a35612070565b5b602002602001015161030c565b828281518110610a5657610a55612070565b5b6020026020010181815250508060010190506109fc565b508091505092915050565b600581565b600381565b60018054610a8f90611e39565b80601f0160208091040260200160405190810160405280929190818152602001828054610abb90611e39565b8015610b065780601f10610add57610100808354040283529160200191610b06565b820191905f5260205f20905b815481529060010190602001808311610ae957829003601f168201915b505050505081565b8173ffffffffffffffffffffffffffffffffffffffff163373ffffffffffffffffffffffffffffffffffffffff1603610b7c576040517f08c379a0000000000000000000000000000000000000000000000000000000008152600401610b73906122be565b60405180910390fd5b8060035f3373ffffffffffffffffffffffffffffffffffffffff1673ffffffffffffffffffffffffffffffffffffffff1681526020019081526020015f205f8473ffffffffffffffffffffffffffffffffffffffff1673ffffffffffffffffffffffffffffffffffffffff1681526020019081526020015f205f6101000a81548160ff0219169083151502179055508173ffffffffffffffffffffffffffffffffffffffff163373ffffffffffffffffffffffffffffffffffffffff167f17307eab39ab6107e8899845ad3d59bd9653f200f220920489ca2b5937696c3183604051610c6891906116a9565b60405180910390a35050565b600281565b5f60035f8473ffffffffffffffffffffffffffffffffffffffff1673ffffffffffffffffffffffffffffffffffffffff1681526020019081526020015f205f8373ffffffffffffffffffffffffffffffffffffffff1673ffffffffffffffffffffffffffffffffffffffff1681526020019081526020015f205f9054906101000a900460ff16905092915050565b5f3390508073ffffffffffffffffffffffffffffffffffffffff168673ffffffffffffffffffffffffffffffffffffffff161480610d4b5750610d4a8682610c79565b5b610d8a576040517f08c379a0000000000000000000000000000000000000000000000000000000008152600401610d8190611f36565b60405180910390fd5b5f73ffffffffffffffffffffffffffffffffffffffff168573ffffffffffffffffffffffffffffffffffffffff1603610df8576040517f08c379a0000000000000000000000000000000000000000000000000000000008152600401610def90612052565b60405180910390fd5b5f60025f8681526020019081526020015f205f8873ffffffffffffffffffffffffffffffffffffffff1673ffffffffffffffffffffffffffffffffffffffff1681526020019081526020015f2054905083811015610e8b576040517f08c379a0000000000000000000000000000000000000000000000000000000008152600401610e829061210d565b60405180910390fd5b83810360025f8781526020019081526020015f205f8973ffffffffffffffffffffffffffffffffffffffff1673ffffffffffffffffffffffffffffffffffffffff1681526020019081526020015f20819055508360025f8781526020019081526020015f205f8873ffffffffffffffffffffffffffffffffffffffff1673ffffffffffffffffffffffffffffffffffffffff1681526020019081526020015f205f828254610f399190612158565b925050819055508573ffffffffffffffffffffffffffffffffffffffff168773ffffffffffffffffffffffffffffffffffffffff168373ffffffffffffffffffffffffffffffffffffffff167fc3d58168c5ae7397731d063d5bbf3d657854427343f4c083240f7aacaa2d0f628888604051610fb69291906122dc565b60405180910390a4610fcc828888888888611324565b50505050505050565b606060405180606001604052806036815260200161273f60369139905090565b60605f820361103b576040518060400160405280600181526020017f30000000000000000000000000000000000000000000000000000000000000008152509050611149565b5f8290505f5b5f821461106a57808061105390612303565b915050600a826110639190612377565b9150611041565b5f8167ffffffffffffffff81111561108557611084611781565b5b6040519080825280601f01601f1916602001820160405280156110b75781602001600182028036833780820191505090505b5090505b5f8514611142576001826110cf91906123a7565b9150600a856110de91906123da565b60306110ea9190612158565b60f81b818381518110611100576110ff612070565b5b60200101907effffffffffffffffffffffffffffffffffffffffffffffffffffffffffffff191690815f1a905350600a8561113b9190612377565b94506110bb565b8093505050505b919050565b61116d8473ffffffffffffffffffffffffffffffffffffffff166114fa565b1561131c578373ffffffffffffffffffffffffffffffffffffffff1663bc197c8187878686866040518663ffffffff1660e01b81526004016111b395949392919061246b565b6020604051808303815f875af19250505080156111ee57506040513d601f19601f820116820180604052508101906111eb91906124e5565b60015b611293576111fa61251c565b806308c379a003611256575061120e61253b565b806112195750611258565b806040517f08c379a000000000000000000000000000000000000000000000000000000000815260040161124d9190611732565b60405180910390fd5b505b6040517f08c379a000000000000000000000000000000000000000000000000000000000815260040161128a9061263a565b60405180910390fd5b63bc197c8160e01b7bffffffffffffffffffffffffffffffffffffffffffffffffffffffff1916817bffffffffffffffffffffffffffffffffffffffffffffffffffffffff19161461131a576040517f08c379a0000000000000000000000000000000000000000000000000000000008152600401611311906126c8565b60405180910390fd5b505b505050505050565b6113438473ffffffffffffffffffffffffffffffffffffffff166114fa565b156114f2578373ffffffffffffffffffffffffffffffffffffffff1663f23a6e6187878686866040518663ffffffff1660e01b81526004016113899594939291906126e6565b6020604051808303815f875af19250505080156113c457506040513d601f19601f820116820180604052508101906113c191906124e5565b60015b611469576113d061251c565b806308c379a00361142c57506113e461253b565b806113ef575061142e565b806040517f08c379a00000000000000000000000000000000000000000000000000000000081526004016114239190611732565b60405180910390fd5b505b6040517f08c379a00000000000000000000000000000000000000000000000000000000081526004016114609061263a565b60405180910390fd5b63f23a6e6160e01b7bffffffffffffffffffffffffffffffffffffffffffffffffffffffff1916817bffffffffffffffffffffffffffffffffffffffffffffffffffffffff1916146114f0576040517f08c379a00000000000000000000000000000000000000000000000000000000081526004016114e7906126c8565b60405180910390fd5b505b505050505050565b5f5f823b90505f8111915050919050565b5f604051905090565b5f5ffd5b5f5ffd5b5f73ffffffffffffffffffffffffffffffffffffffff82169050919050565b5f6115458261151c565b9050919050565b6115558161153b565b811461155f575f5ffd5b50565b5f813590506115708161154c565b92915050565b5f819050919050565b61158881611576565b8114611592575f5ffd5b50565b5f813590506115a38161157f565b92915050565b5f5f604083850312156115bf576115be611514565b5b5f6115cc85828601611562565b92505060206115dd85828601611595565b9150509250929050565b6115f081611576565b82525050565b5f6020820190506116095f8301846115e7565b92915050565b5f7fffffffff0000000000000000000000000000000000000000000000000000000082169050919050565b6116438161160f565b811461164d575f5ffd5b50565b5f8135905061165e8161163a565b92915050565b5f6020828403121561167957611678611514565b5b5f61168684828501611650565b91505092915050565b5f8115159050919050565b6116a38161168f565b82525050565b5f6020820190506116bc5f83018461169a565b92915050565b5f81519050919050565b5f82825260208201905092915050565b8281835e5f83830152505050565b5f601f19601f8301169050919050565b5f611704826116c2565b61170e81856116cc565b935061171e8185602086016116dc565b611727816116ea565b840191505092915050565b5f6020820190508181035f83015261174a81846116fa565b905092915050565b5f6020828403121561176757611766611514565b5b5f61177484828501611595565b91505092915050565b5f5ffd5b7f4e487b71000000000000000000000000000000000000000000000000000000005f52604160045260245ffd5b6117b7826116ea565b810181811067ffffffffffffffff821117156117d6576117d5611781565b5b80604052505050565b5f6117e861150b565b90506117f482826117ae565b919050565b5f67ffffffffffffffff82111561181357611812611781565b5b602082029050602081019050919050565b5f5ffd5b5f61183a611835846117f9565b6117df565b9050808382526020820190506020840283018581111561185d5761185c611824565b5b835b8181101561188657806118728882611595565b84526020840193505060208101905061185f565b5050509392505050565b5f82601f8301126118a4576118a361177d565b5b81356118b4848260208601611828565b91505092915050565b5f5ffd5b5f67ffffffffffffffff8211156118db576118da611781565b5b6118e4826116ea565b9050602081019050919050565b828183375f83830152505050565b5f61191161190c846118c1565b6117df565b90508281526020810184848401111561192d5761192c6118bd565b5b6119388482856118f1565b509392505050565b5f82601f8301126119545761195361177d565b5b81356119648482602086016118ff565b91505092915050565b5f5f5f5f5f60a0868803121561198657611985611514565b5b5f61199388828901611562565b95505060206119a488828901611562565b945050604086013567ffffffffffffffff8111156119c5576119c4611518565b5b6119d188828901611890565b935050606086013567ffffffffffffffff8111156119f2576119f1611518565b5b6119fe88828901611890565b925050608086013567ffffffffffffffff811115611a1f57611a1e611518565b5b611a2b88828901611940565b9150509295509295909350565b5f67ffffffffffffffff821115611a5257611a51611781565b5b602082029050602081019050919050565b5f611a75611a7084611a38565b6117df565b90508083825260208201905060208402830185811115611a9857611a97611824565b5b835b81811015611ac15780611aad8882611562565b845260208401935050602081019050611a9a565b5050509392505050565b5f82601f830112611adf57611ade61177d565b5b8135611aef848260208601611a63565b91505092915050565b5f5f60408385031215611b0e57611b0d611514565b5b5f83013567ffffffffffffffff811115611b2b57611b2a611518565b5b611b3785828601611acb565b925050602083013567ffffffffffffffff811115611b5857611b57611518565b5b611b6485828601611890565b9150509250929050565b5f81519050919050565b5f82825260208201905092915050565b5f819050602082019050919050565b611ba081611576565b82525050565b5f611bb18383611b97565b60208301905092915050565b5f602082019050919050565b5f611bd382611b6e565b611bdd8185611b78565b9350611be883611b88565b805f5b83811015611c18578151611bff8882611ba6565b9750611c0a83611bbd565b925050600181019050611beb565b5085935050505092915050565b5f6020820190508181035f830152611c3d8184611bc9565b905092915050565b611c4e8161168f565b8114611c58575f5ffd5b50565b5f81359050611c6981611c45565b92915050565b5f5f60408385031215611c8557611c84611514565b5b5f611c9285828601611562565b9250506020611ca385828601611c5b565b9150509250929050565b5f5f60408385031215611cc357611cc2611514565b5b5f611cd085828601611562565b9250506020611ce185828601611562565b9150509250929050565b5f5f5f5f5f60a08688031215611d0457611d03611514565b5b5f611d1188828901611562565b9550506020611d2288828901611562565b9450506040611d3388828901611595565b9350506060611d4488828901611595565b925050608086013567ffffffffffffffff811115611d6557611d64611518565b5b611d7188828901611940565b9150509295509295909350565b7f455243313135353a2061646472657373207a65726f206973206e6f74206120765f8201527f616c6964206f776e657200000000000000000000000000000000000000000000602082015250565b5f611dd8602a836116cc565b9150611de382611d7e565b604082019050919050565b5f6020820190508181035f830152611e0581611dcc565b9050919050565b7f4e487b71000000000000000000000000000000000000000000000000000000005f52602260045260245ffd5b5f6002820490506001821680611e5057607f821691505b602082108103611e6357611e62611e0c565b5b50919050565b5f81905092915050565b5f611e7d826116c2565b611e878185611e69565b9350611e978185602086016116dc565b80840191505092915050565b5f611eae8285611e73565b9150611eba8284611e73565b91508190509392505050565b7f455243313135353a2063616c6c6572206973206e6f7420746f6b656e206f776e5f8201527f6572206e6f7220617070726f7665640000000000000000000000000000000000602082015250565b5f611f20602f836116cc565b9150611f2b82611ec6565b604082019050919050565b5f6020820190508181035f830152611f4d81611f14565b9050919050565b7f455243313135353a2069647320616e6420616d6f756e7473206c656e677468205f8201527f6d69736d61746368000000000000000000000000000000000000000000000000602082015250565b5f611fae6028836116cc565b9150611fb982611f54565b604082019050919050565b5f6020820190508181035f830152611fdb81611fa2565b9050919050565b7f455243313135353a207472616e7366657220746f20746865207a65726f2061645f8201527f6472657373000000000000000000000000000000000000000000000000000000602082015250565b5f61203c6025836116cc565b915061204782611fe2565b604082019050919050565b5f6020820190508181035f83015261206981612030565b9050919050565b7f4e487b71000000000000000000000000000000000000000000000000000000005f52603260045260245ffd5b7f455243313135353a20696e73756666696369656e742062616c616e636520666f5f8201527f72207472616e7366657200000000000000000000000000000000000000000000602082015250565b5f6120f7602a836116cc565b91506121028261209d565b604082019050919050565b5f6020820190508181035f830152612124816120eb565b9050919050565b7f4e487b71000000000000000000000000000000000000000000000000000000005f52601160045260245ffd5b5f61216282611576565b915061216d83611576565b92508282019050808211156121855761218461212b565b5b92915050565b5f6040820190508181035f8301526121a38185611bc9565b905081810360208301526121b78184611bc9565b90509392505050565b7f455243313135353a206163636f756e747320616e6420696473206c656e6774685f8201527f206d69736d617463680000000000000000000000000000000000000000000000602082015250565b5f61221a6029836116cc565b9150612225826121c0565b604082019050919050565b5f6020820190508181035f8301526122478161220e565b9050919050565b7f455243313135353a2073657474696e6720617070726f76616c207374617475735f8201527f20666f722073656c660000000000000000000000000000000000000000000000602082015250565b5f6122a86029836116cc565b91506122b38261224e565b604082019050919050565b5f6020820190508181035f8301526122d58161229c565b9050919050565b5f6040820190506122ef5f8301856115e7565b6122fc60208301846115e7565b9392505050565b5f61230d82611576565b91507fffffffffffffffffffffffffffffffffffffffffffffffffffffffffffffffff820361233f5761233e61212b565b5b600182019050919050565b7f4e487b71000000000000000000000000000000000000000000000000000000005f52601260045260245ffd5b5f61238182611576565b915061238c83611576565b92508261239c5761239b61234a565b5b828204905092915050565b5f6123b182611576565b91506123bc83611576565b92508282039050818111156123d4576123d361212b565b5b92915050565b5f6123e482611576565b91506123ef83611576565b9250826123ff576123fe61234a565b5b828206905092915050565b6124138161153b565b82525050565b5f81519050919050565b5f82825260208201905092915050565b5f61243d82612419565b6124478185612423565b93506124578185602086016116dc565b612460816116ea565b840191505092915050565b5f60a08201905061247e5f83018861240a565b61248b602083018761240a565b818103604083015261249d8186611bc9565b905081810360608301526124b18185611bc9565b905081810360808301526124c58184612433565b90509695505050505050565b5f815190506124df8161163a565b92915050565b5f602082840312156124fa576124f9611514565b5b5f612507848285016124d1565b91505092915050565b5f8160e01c9050919050565b5f60033d11156125385760045f5f3e6125355f51612510565b90505b90565b5f60443d106125c75761254c61150b565b60043d036004823e80513d602482011167ffffffffffffffff821117156125745750506125c7565b808201805167ffffffffffffffff81111561259257505050506125c7565b80602083010160043d0385018111156125af5750505050506125c7565b6125be826020018501866117ae565b82955050505050505b90565b7f455243313135353a207472616e7366657220746f206e6f6e2d455243313135355f8201527f526563656976657220696d706c656d656e746572000000000000000000000000602082015250565b5f6126246034836116cc565b915061262f826125ca565b604082019050919050565b5f6020820190508181035f83015261265181612618565b9050919050565b7f455243313135353a204552433131353552656365697665722072656a656374655f8201527f6420746f6b656e73000000000000000000000000000000000000000000000000602082015250565b5f6126b26028836116cc565b91506126bd82612658565b604082019050919050565b5f6020820190508181035f8301526126df816126a6565b9050919050565b5f60a0820190506126f95f83018861240a565b612706602083018761240a565b61271360408301866115e7565b61272060608301856115e7565b81810360808301526127328184612433565b9050969550505050505056fe697066733a2f2f516d65536a53696e4870506e6d586d73704d6a776958794e367a533445397a63636172694752336a7863615774712fa2646970667358221220338473a6828ed29caba4b763866daaedeab8c1b22ba0955bf3b8a3e6d94b496564736f6c634300081c0033",
			"opcodes": "PUSH1 0x80 PUSH1 0x40 MSTORE CALLVALUE DUP1 ISZERO PUSH2 0xF JUMPI PUSH0 PUSH0 REVERT JUMPDEST POP PUSH1 0x40 MLOAD DUP1 PUSH1 0x40 ADD PUSH1 0x40 MSTORE DUP1 PUSH1 0x3 DUP2 MSTORE PUSH1 0x20 ADD PUSH32 0x576F570000000000000000000000000000000000000000000000000000000000 DUP2 MSTORE POP PUSH1 0x40 MLOAD DUP1 PUSH1 0x40 ADD PUSH1 0x40 MSTORE DUP1 PUSH1 0x3 DUP2 MSTORE PUSH1 0x20 ADD PUSH32 0x5757490000000000000000000000000000000000000000000000000000000000 DUP2 MSTORE POP DUP2 PUSH0 SWAP1 DUP2 PUSH2 0x8A SWAP2 SWAP1 PUSH2 0x6F9 JUMP JUMPDEST POP DUP1 PUSH1 0x1 SWAP1 DUP2 PUSH2 0x9A SWAP2 SWAP1 PUSH2 0x6F9 JUMP JUMPDEST POP POP POP PUSH2 0xC3 CALLER PUSH1 0x1 PUSH5 0x2540BE400 PUSH1 0x40 MLOAD DUP1 PUSH1 0x20 ADD PUSH1 0x40 MSTORE DUP1 PUSH0 DUP2 MSTORE POP PUSH2 0x162 PUSH1 0x20 SHL PUSH1 0x20 SHR JUMP JUMPDEST PUSH2 0xEB CALLER PUSH1 0x2 PUSH7 0x38D7EA4C68000 PUSH1 0x40 MLOAD DUP1 PUSH1 0x20 ADD PUSH1 0x40 MSTORE DUP1 PUSH0 DUP2 MSTORE POP PUSH2 0x162 PUSH1 0x20 SHL PUSH1 0x20 SHR JUMP JUMPDEST PUSH2 0x115 CALLER PUSH1 0x3 PUSH9 0x56BC75E2D63100000 PUSH1 0x40 MLOAD DUP1 PUSH1 0x20 ADD PUSH1 0x40 MSTORE DUP1 PUSH0 DUP2 MSTORE POP PUSH2 0x162 PUSH1 0x20 SHL PUSH1 0x20 SHR JUMP JUMPDEST PUSH2 0x13B CALLER PUSH1 0x4 PUSH5 0x2540BE400 PUSH1 0x40 MLOAD DUP1 PUSH1 0x20 ADD PUSH1 0x40 MSTORE DUP1 PUSH0 DUP2 MSTORE POP PUSH2 0x162 PUSH1 0x20 SHL PUSH1 0x20 SHR JUMP JUMPDEST PUSH2 0x15D CALLER PUSH1 0x5 PUSH1 0x1 PUSH1 0x40 MLOAD DUP1 PUSH1 0x20 ADD PUSH1 0x40 MSTORE DUP1 PUSH0 DUP2 MSTORE POP PUSH2 0x162 PUSH1 0x20 SHL PUSH1 0x20 SHR JUMP JUMPDEST PUSH2 0xCEF JUMP JUMPDEST PUSH0 PUSH20 0xFFFFFFFFFFFFFFFFFFFFFFFFFFFFFFFFFFFFFFFF AND DUP5 PUSH20 0xFFFFFFFFFFFFFFFFFFFFFFFFFFFFFFFFFFFFFFFF AND SUB PUSH2 0x1D0 JUMPI PUSH1 0x40 MLOAD PUSH32 0x8C379A000000000000000000000000000000000000000000000000000000000 DUP2 MSTORE PUSH1 0x4 ADD PUSH2 0x1C7 SWAP1 PUSH2 0x848 JUMP JUMPDEST PUSH1 0x40 MLOAD DUP1 SWAP2 SUB SWAP1 REVERT JUMPDEST PUSH0 CALLER SWAP1 POP DUP3 PUSH1 0x2 PUSH0 DUP7 DUP2 MSTORE PUSH1 0x20 ADD SWAP1 DUP2 MSTORE PUSH1 0x20 ADD PUSH0 KECCAK256 PUSH0 DUP8 PUSH20 0xFFFFFFFFFFFFFFFFFFFFFFFFFFFFFFFFFFFFFFFF AND PUSH20 0xFFFFFFFFFFFFFFFFFFFFFFFFFFFFFFFFFFFFFFFF AND DUP2 MSTORE PUSH1 0x20 ADD SWAP1 DUP2 MSTORE PUSH1 0x20 ADD PUSH0 KECCAK256 PUSH0 DUP3 DUP3 SLOAD PUSH2 0x22F SWAP2 SWAP1 PUSH2 0x893 JUMP JUMPDEST SWAP3 POP POP DUP2 SWAP1 SSTORE POP DUP5 PUSH20 0xFFFFFFFFFFFFFFFFFFFFFFFFFFFFFFFFFFFFFFFF AND PUSH0 PUSH20 0xFFFFFFFFFFFFFFFFFFFFFFFFFFFFFFFFFFFFFFFF AND DUP3 PUSH20 0xFFFFFFFFFFFFFFFFFFFFFFFFFFFFFFFFFFFFFFFF AND PUSH32 0xC3D58168C5AE7397731D063D5BBF3D657854427343F4C083240F7AACAA2D0F62 DUP8 DUP8 PUSH1 0x40 MLOAD PUSH2 0x2AC SWAP3 SWAP2 SWAP1 PUSH2 0x8D5 JUMP JUMPDEST PUSH1 0x40 MLOAD DUP1 SWAP2 SUB SWAP1 LOG4 PUSH2 0x2C8 DUP2 PUSH0 DUP8 DUP8 DUP8 DUP8 PUSH2 0x2CF PUSH1 0x20 SHL PUSH1 0x20 SHR JUMP JUMPDEST POP POP POP POP POP JUMP JUMPDEST PUSH2 0x2F4 DUP5 PUSH20 0xFFFFFFFFFFFFFFFFFFFFFFFFFFFFFFFFFFFFFFFF AND PUSH2 0x4AB PUSH1 0x20 SHL PUSH1 0x20 SHR JUMP JUMPDEST ISZERO PUSH2 0x4A3 JUMPI DUP4 PUSH20 0xFFFFFFFFFFFFFFFFFFFFFFFFFFFFFFFFFFFFFFFF AND PUSH4 0xF23A6E61 DUP8 DUP8 DUP7 DUP7 DUP7 PUSH1 0x40 MLOAD DUP7 PUSH4 0xFFFFFFFF AND PUSH1 0xE0 SHL DUP2 MSTORE PUSH1 0x4 ADD PUSH2 0x33A SWAP6 SWAP5 SWAP4 SWAP3 SWAP2 SWAP1 PUSH2 0x9AB JUMP JUMPDEST PUSH1 0x20 PUSH1 0x40 MLOAD DUP1 DUP4 SUB DUP2 PUSH0 DUP8 GAS CALL SWAP3 POP POP POP DUP1 ISZERO PUSH2 0x375 JUMPI POP PUSH1 0x40 MLOAD RETURNDATASIZE PUSH1 0x1F NOT PUSH1 0x1F DUP3 ADD AND DUP3 ADD DUP1 PUSH1 0x40 MSTORE POP DUP2 ADD SWAP1 PUSH2 0x372 SWAP2 SWAP1 PUSH2 0xA65 JUMP JUMPDEST PUSH1 0x1 JUMPDEST PUSH2 0x41A JUMPI PUSH2 0x381 PUSH2 0xA9C JUMP JUMPDEST DUP1 PUSH4 0x8C379A0 SUB PUSH2 0x3DD JUMPI POP PUSH2 0x395 PUSH2 0xAEC JUMP JUMPDEST DUP1 PUSH2 0x3A0 JUMPI POP PUSH2 0x3DF JUMP JUMPDEST DUP1 PUSH1 0x40 MLOAD PUSH32 0x8C379A000000000000000000000000000000000000000000000000000000000 DUP2 MSTORE PUSH1 0x4 ADD PUSH2 0x3D4 SWAP2 SWAP1 PUSH2 0xBB3 JUMP JUMPDEST PUSH1 0x40 MLOAD DUP1 SWAP2 SUB SWAP1 REVERT JUMPDEST POP JUMPDEST PUSH1 0x40 MLOAD PUSH32 0x8C379A000000000000000000000000000000000000000000000000000000000 DUP2 MSTORE PUSH1 0x4 ADD PUSH2 0x411 SWAP1 PUSH2 0xC43 JUMP JUMPDEST PUSH1 0x40 MLOAD DUP1 SWAP2 SUB SWAP1 REVERT JUMPDEST PUSH4 0xF23A6E61 PUSH1 0xE0 SHL PUSH28 0xFFFFFFFFFFFFFFFFFFFFFFFFFFFFFFFFFFFFFFFFFFFFFFFFFFFFFFFF NOT AND DUP2 PUSH28 0xFFFFFFFFFFFFFFFFFFFFFFFFFFFFFFFFFFFFFFFFFFFFFFFFFFFFFFFF NOT AND EQ PUSH2 0x4A1 JUMPI PUSH1 0x40 MLOAD PUSH32 0x8C379A000000000000000000000000000000000000000000000000000000000 DUP2 MSTORE PUSH1 0x4 ADD PUSH2 0x498 SWAP1 PUSH2 0xCD1 JUMP JUMPDEST PUSH1 0x40 MLOAD DUP1 SWAP2 SUB SWAP1 REVERT JUMPDEST POP JUMPDEST POP POP POP POP POP POP JUMP JUMPDEST PUSH0 PUSH0 DUP3 EXTCODESIZE SWAP1 POP PUSH0 DUP2 GT SWAP2 POP POP SWAP2 SWAP1 POP JUMP JUMPDEST PUSH0 DUP2 MLOAD SWAP1 POP SWAP2 SWAP1 POP JUMP JUMPDEST PUSH32 0x4E487B7100000000000000000000000000000000000000000000000000000000 PUSH0 MSTORE PUSH1 0x41 PUSH1 0x4 MSTORE PUSH1 0x24 PUSH0 REVERT JUMPDEST PUSH32 0x4E487B7100000000000000000000000000000000000000000000000000000000 PUSH0 MSTORE PUSH1 0x22 PUSH1 0x4 MSTORE PUSH1 0x24 PUSH0 REVERT JUMPDEST PUSH0 PUSH1 0x2 DUP3 DIV SWAP1 POP PUSH1 0x1 DUP3 AND DUP1 PUSH2 0x537 JUMPI PUSH1 0x7F DUP3 AND SWAP2 POP JUMPDEST PUSH1 0x20 DUP3 LT DUP2 SUB PUSH2 0x54A JUMPI PUSH2 0x549 PUSH2 0x4F3 JUMP JUMPDEST JUMPDEST POP SWAP2 SWAP1 POP JUMP JUMPDEST PUSH0 DUP2 SWAP1 POP DUP2 PUSH0 MSTORE PUSH1 0x20 PUSH0 KECCAK256 SWAP1 POP SWAP2 SWAP1 POP JUMP JUMPDEST PUSH0 PUSH1 0x20 PUSH1 0x1F DUP4 ADD DIV SWAP1 POP SWAP2 SWAP1 POP JUMP JUMPDEST PUSH0 DUP3 DUP3 SHL SWAP1 POP SWAP3 SWAP2 POP POP JUMP JUMPDEST PUSH0 PUSH1 0x8 DUP4 MUL PUSH2 0x5AC PUSH32 0xFFFFFFFFFFFFFFFFFFFFFFFFFFFFFFFFFFFFFFFFFFFFFFFFFFFFFFFFFFFFFFFF DUP3 PUSH2 0x571 JUMP JUMPDEST PUSH2 0x5B6 DUP7 DUP4 PUSH2 0x571 JUMP JUMPDEST SWAP6 POP DUP1 NOT DUP5 AND SWAP4 POP DUP1 DUP7 AND DUP5 OR SWAP3 POP POP POP SWAP4 SWAP3 POP POP POP JUMP JUMPDEST PUSH0 DUP2 SWAP1 POP SWAP2 SWAP1 POP JUMP JUMPDEST PUSH0 DUP2 SWAP1 POP SWAP2 SWAP1 POP JUMP JUMPDEST PUSH0 PUSH2 0x5FA PUSH2 0x5F5 PUSH2 0x5F0 DUP5 PUSH2 0x5CE JUMP JUMPDEST PUSH2 0x5D7 JUMP JUMPDEST PUSH2 0x5CE JUMP JUMPDEST SWAP1 POP SWAP2 SWAP1 POP JUMP JUMPDEST PUSH0 DUP2 SWAP1 POP SWAP2 SWAP1 POP JUMP JUMPDEST PUSH2 0x613 DUP4 PUSH2 0x5E0 JUMP JUMPDEST PUSH2 0x627 PUSH2 0x61F DUP3 PUSH2 0x601 JUMP JUMPDEST DUP5 DUP5 SLOAD PUSH2 0x57D JUMP JUMPDEST DUP3 SSTORE POP POP POP POP JUMP JUMPDEST PUSH0 PUSH0 SWAP1 POP SWAP1 JUMP JUMPDEST PUSH2 0x63E PUSH2 0x62F JUMP JUMPDEST PUSH2 0x649 DUP2 DUP5 DUP5 PUSH2 0x60A JUMP JUMPDEST POP POP POP JUMP JUMPDEST JUMPDEST DUP2 DUP2 LT ISZERO PUSH2 0x66C JUMPI PUSH2 0x661 PUSH0 DUP3 PUSH2 0x636 JUMP JUMPDEST PUSH1 0x1 DUP2 ADD SWAP1 POP PUSH2 0x64F JUMP JUMPDEST POP POP JUMP JUMPDEST PUSH1 0x1F DUP3 GT ISZERO PUSH2 0x6B1 JUMPI PUSH2 0x682 DUP2 PUSH2 0x550 JUMP JUMPDEST PUSH2 0x68B DUP5 PUSH2 0x562 JUMP JUMPDEST DUP2 ADD PUSH1 0x20 DUP6 LT ISZERO PUSH2 0x69A JUMPI DUP2 SWAP1 POP JUMPDEST PUSH2 0x6AE PUSH2 0x6A6 DUP6 PUSH2 0x562 JUMP JUMPDEST DUP4 ADD DUP3 PUSH2 0x64E JUMP JUMPDEST POP POP JUMPDEST POP POP POP JUMP JUMPDEST PUSH0 DUP3 DUP3 SHR SWAP1 POP SWAP3 SWAP2 POP POP JUMP JUMPDEST PUSH0 PUSH2 0x6D1 PUSH0 NOT DUP5 PUSH1 0x8 MUL PUSH2 0x6B6 JUMP JUMPDEST NOT DUP1 DUP4 AND SWAP2 POP POP SWAP3 SWAP2 POP POP JUMP JUMPDEST PUSH0 PUSH2 0x6E9 DUP4 DUP4 PUSH2 0x6C2 JUMP JUMPDEST SWAP2 POP DUP3 PUSH1 0x2 MUL DUP3 OR SWAP1 POP SWAP3 SWAP2 POP POP JUMP JUMPDEST PUSH2 0x702 DUP3 PUSH2 0x4BC JUMP JUMPDEST PUSH8 0xFFFFFFFFFFFFFFFF DUP2 GT ISZERO PUSH2 0x71B JUMPI PUSH2 0x71A PUSH2 0x4C6 JUMP JUMPDEST JUMPDEST PUSH2 0x725 DUP3 SLOAD PUSH2 0x520 JUMP JUMPDEST PUSH2 0x730 DUP3 DUP3 DUP6 PUSH2 0x670 JUMP JUMPDEST PUSH0 PUSH1 0x20 SWAP1 POP PUSH1 0x1F DUP4 GT PUSH1 0x1 DUP2 EQ PUSH2 0x761 JUMPI PUSH0 DUP5 ISZERO PUSH2 0x74F JUMPI DUP3 DUP8 ADD MLOAD SWAP1 POP JUMPDEST PUSH2 0x759 DUP6 DUP3 PUSH2 0x6DE JUMP JUMPDEST DUP7 SSTORE POP PUSH2 0x7C0 JUMP JUMPDEST PUSH1 0x1F NOT DUP5 AND PUSH2 0x76F DUP7 PUSH2 0x550 JUMP JUMPDEST PUSH0 JUMPDEST DUP3 DUP2 LT ISZERO PUSH2 0x796 JUMPI DUP5 DUP10 ADD MLOAD DUP3 SSTORE PUSH1 0x1 DUP3 ADD SWAP2 POP PUSH1 0x20 DUP6 ADD SWAP5 POP PUSH1 0x20 DUP2 ADD SWAP1 POP PUSH2 0x771 JUMP JUMPDEST DUP7 DUP4 LT ISZERO PUSH2 0x7B3 JUMPI DUP5 DUP10 ADD MLOAD PUSH2 0x7AF PUSH1 0x1F DUP10 AND DUP3 PUSH2 0x6C2 JUMP JUMPDEST DUP4 SSTORE POP JUMPDEST PUSH1 0x1 PUSH1 0x2 DUP9 MUL ADD DUP9 SSTORE POP POP POP JUMPDEST POP POP POP POP POP POP JUMP JUMPDEST PUSH0 DUP3 DUP3 MSTORE PUSH1 0x20 DUP3 ADD SWAP1 POP SWAP3 SWAP2 POP POP JUMP JUMPDEST PUSH32 0x455243313135353A206D696E7420746F20746865207A65726F20616464726573 PUSH0 DUP3 ADD MSTORE PUSH32 0x7300000000000000000000000000000000000000000000000000000000000000 PUSH1 0x20 DUP3 ADD MSTORE POP JUMP JUMPDEST PUSH0 PUSH2 0x832 PUSH1 0x21 DUP4 PUSH2 0x7C8 JUMP JUMPDEST SWAP2 POP PUSH2 0x83D DUP3 PUSH2 0x7D8 JUMP JUMPDEST PUSH1 0x40 DUP3 ADD SWAP1 POP SWAP2 SWAP1 POP JUMP JUMPDEST PUSH0 PUSH1 0x20 DUP3 ADD SWAP1 POP DUP2 DUP2 SUB PUSH0 DUP4 ADD MSTORE PUSH2 0x85F DUP2 PUSH2 0x826 JUMP JUMPDEST SWAP1 POP SWAP2 SWAP1 POP JUMP JUMPDEST PUSH32 0x4E487B7100000000000000000000000000000000000000000000000000000000 PUSH0 MSTORE PUSH1 0x11 PUSH1 0x4 MSTORE PUSH1 0x24 PUSH0 REVERT JUMPDEST PUSH0 PUSH2 0x89D DUP3 PUSH2 0x5CE JUMP JUMPDEST SWAP2 POP PUSH2 0x8A8 DUP4 PUSH2 0x5CE JUMP JUMPDEST SWAP3 POP DUP3 DUP3 ADD SWAP1 POP DUP1 DUP3 GT ISZERO PUSH2 0x8C0 JUMPI PUSH2 0x8BF PUSH2 0x866 JUMP JUMPDEST JUMPDEST SWAP3 SWAP2 POP POP JUMP JUMPDEST PUSH2 0x8CF DUP2 PUSH2 0x5CE JUMP JUMPDEST DUP3 MSTORE POP POP JUMP JUMPDEST PUSH0 PUSH1 0x40 DUP3 ADD SWAP1 POP PUSH2 0x8E8 PUSH0 DUP4 ADD DUP6 PUSH2 0x8C6 JUMP JUMPDEST PUSH2 0x8F5 PUSH1 0x20 DUP4 ADD DUP5 PUSH2 0x8C6 JUMP JUMPDEST SWAP4 SWAP3 POP POP POP JUMP JUMPDEST PUSH0 PUSH20 0xFFFFFFFFFFFFFFFFFFFFFFFFFFFFFFFFFFFFFFFF DUP3 AND SWAP1 POP SWAP2 SWAP1 POP JUMP JUMPDEST PUSH0 PUSH2 0x925 DUP3 PUSH2 0x8FC JUMP JUMPDEST SWAP1 POP SWAP2 SWAP1 POP JUMP JUMPDEST PUSH2 0x935 DUP2 PUSH2 0x91B JUMP JUMPDEST DUP3 MSTORE POP POP JUMP JUMPDEST PUSH0 DUP2 MLOAD SWAP1 POP SWAP2 SWAP1 POP JUMP JUMPDEST PUSH0 DUP3 DUP3 MSTORE PUSH1 0x20 DUP3 ADD SWAP1 POP SWAP3 SWAP2 POP POP JUMP JUMPDEST DUP3 DUP2 DUP4 MCOPY PUSH0 DUP4 DUP4 ADD MSTORE POP POP POP JUMP JUMPDEST PUSH0 PUSH1 0x1F NOT PUSH1 0x1F DUP4 ADD AND SWAP1 POP SWAP2 SWAP1 POP JUMP JUMPDEST PUSH0 PUSH2 0x97D DUP3 PUSH2 0x93B JUMP JUMPDEST PUSH2 0x987 DUP2 DUP6 PUSH2 0x945 JUMP JUMPDEST SWAP4 POP PUSH2 0x997 DUP2 DUP6 PUSH1 0x20 DUP7 ADD PUSH2 0x955 JUMP JUMPDEST PUSH2 0x9A0 DUP2 PUSH2 0x963 JUMP JUMPDEST DUP5 ADD SWAP2 POP POP SWAP3 SWAP2 POP POP JUMP JUMPDEST PUSH0 PUSH1 0xA0 DUP3 ADD SWAP1 POP PUSH2 0x9BE PUSH0 DUP4 ADD DUP9 PUSH2 0x92C JUMP JUMPDEST PUSH2 0x9CB PUSH1 0x20 DUP4 ADD DUP8 PUSH2 0x92C JUMP JUMPDEST PUSH2 0x9D8 PUSH1 0x40 DUP4 ADD DUP7 PUSH2 0x8C6 JUMP JUMPDEST PUSH2 0x9E5 PUSH1 0x60 DUP4 ADD DUP6 PUSH2 0x8C6 JUMP JUMPDEST DUP2 DUP2 SUB PUSH1 0x80 DUP4 ADD MSTORE PUSH2 0x9F7 DUP2 DUP5 PUSH2 0x973 JUMP JUMPDEST SWAP1 POP SWAP7 SWAP6 POP POP POP POP POP POP JUMP JUMPDEST PUSH0 PUSH1 0x40 MLOAD SWAP1 POP SWAP1 JUMP JUMPDEST PUSH0 PUSH0 REVERT JUMPDEST PUSH0 PUSH32 0xFFFFFFFF00000000000000000000000000000000000000000000000000000000 DUP3 AND SWAP1 POP SWAP2 SWAP1 POP JUMP JUMPDEST PUSH2 0xA44 DUP2 PUSH2 0xA10 JUMP JUMPDEST DUP2 EQ PUSH2 0xA4E JUMPI PUSH0 PUSH0 REVERT JUMPDEST POP JUMP JUMPDEST PUSH0 DUP2 MLOAD SWAP1 POP PUSH2 0xA5F DUP2 PUSH2 0xA3B JUMP JUMPDEST SWAP3 SWAP2 POP POP JUMP JUMPDEST PUSH0 PUSH1 0x20 DUP3 DUP5 SUB SLT ISZERO PUSH2 0xA7A JUMPI PUSH2 0xA79 PUSH2 0xA0C JUMP JUMPDEST JUMPDEST PUSH0 PUSH2 0xA87 DUP5 DUP3 DUP6 ADD PUSH2 0xA51 JUMP JUMPDEST SWAP2 POP POP SWAP3 SWAP2 POP POP JUMP JUMPDEST PUSH0 DUP2 PUSH1 0xE0 SHR SWAP1 POP SWAP2 SWAP1 POP JUMP JUMPDEST PUSH0 PUSH1 0x3 RETURNDATASIZE GT ISZERO PUSH2 0xAB8 JUMPI PUSH1 0x4 PUSH0 PUSH0 RETURNDATACOPY PUSH2 0xAB5 PUSH0 MLOAD PUSH2 0xA90 JUMP JUMPDEST SWAP1 POP JUMPDEST SWAP1 JUMP JUMPDEST PUSH2 0xAC4 DUP3 PUSH2 0x963 JUMP JUMPDEST DUP2 ADD DUP2 DUP2 LT PUSH8 0xFFFFFFFFFFFFFFFF DUP3 GT OR ISZERO PUSH2 0xAE3 JUMPI PUSH2 0xAE2 PUSH2 0x4C6 JUMP JUMPDEST JUMPDEST DUP1 PUSH1 0x40 MSTORE POP POP POP JUMP JUMPDEST PUSH0 PUSH1 0x44 RETURNDATASIZE LT PUSH2 0xB78 JUMPI PUSH2 0xAFD PUSH2 0xA03 JUMP JUMPDEST PUSH1 0x4 RETURNDATASIZE SUB PUSH1 0x4 DUP3 RETURNDATACOPY DUP1 MLOAD RETURNDATASIZE PUSH1 0x24 DUP3 ADD GT PUSH8 0xFFFFFFFFFFFFFFFF DUP3 GT OR ISZERO PUSH2 0xB25 JUMPI POP POP PUSH2 0xB78 JUMP JUMPDEST DUP1 DUP3 ADD DUP1 MLOAD PUSH8 0xFFFFFFFFFFFFFFFF DUP2 GT ISZERO PUSH2 0xB43 JUMPI POP POP POP POP PUSH2 0xB78 JUMP JUMPDEST DUP1 PUSH1 0x20 DUP4 ADD ADD PUSH1 0x4 RETURNDATASIZE SUB DUP6 ADD DUP2 GT ISZERO PUSH2 0xB60 JUMPI POP POP POP POP POP PUSH2 0xB78 JUMP JUMPDEST PUSH2 0xB6F DUP3 PUSH1 0x20 ADD DUP6 ADD DUP7 PUSH2 0xABB JUMP JUMPDEST DUP3 SWAP6 POP POP POP POP POP POP JUMPDEST SWAP1 JUMP JUMPDEST PUSH0 PUSH2 0xB85 DUP3 PUSH2 0x4BC JUMP JUMPDEST PUSH2 0xB8F DUP2 DUP6 PUSH2 0x7C8 JUMP JUMPDEST SWAP4 POP PUSH2 0xB9F DUP2 DUP6 PUSH1 0x20 DUP7 ADD PUSH2 0x955 JUMP JUMPDEST PUSH2 0xBA8 DUP2 PUSH2 0x963 JUMP JUMPDEST DUP5 ADD SWAP2 POP POP SWAP3 SWAP2 POP POP JUMP JUMPDEST PUSH0 PUSH1 0x20 DUP3 ADD SWAP1 POP DUP2 DUP2 SUB PUSH0 DUP4 ADD MSTORE PUSH2 0xBCB DUP2 DUP5 PUSH2 0xB7B JUMP JUMPDEST SWAP1 POP SWAP3 SWAP2 POP POP JUMP JUMPDEST PUSH32 0x455243313135353A207472616E7366657220746F206E6F6E2D45524331313535 PUSH0 DUP3 ADD MSTORE PUSH32 0x526563656976657220696D706C656D656E746572000000000000000000000000 PUSH1 0x20 DUP3 ADD MSTORE POP JUMP JUMPDEST PUSH0 PUSH2 0xC2D PUSH1 0x34 DUP4 PUSH2 0x7C8 JUMP JUMPDEST SWAP2 POP PUSH2 0xC38 DUP3 PUSH2 0xBD3 JUMP JUMPDEST PUSH1 0x40 DUP3 ADD SWAP1 POP SWAP2 SWAP1 POP JUMP JUMPDEST PUSH0 PUSH1 0x20 DUP3 ADD SWAP1 POP DUP2 DUP2 SUB PUSH0 DUP4 ADD MSTORE PUSH2 0xC5A DUP2 PUSH2 0xC21 JUMP JUMPDEST SWAP1 POP SWAP2 SWAP1 POP JUMP JUMPDEST PUSH32 0x455243313135353A204552433131353552656365697665722072656A65637465 PUSH0 DUP3 ADD MSTORE PUSH32 0x6420746F6B656E73000000000000000000000000000000000000000000000000 PUSH1 0x20 DUP3 ADD MSTORE POP JUMP JUMPDEST PUSH0 PUSH2 0xCBB PUSH1 0x28 DUP4 PUSH2 0x7C8 JUMP JUMPDEST SWAP2 POP PUSH2 0xCC6 DUP3 PUSH2 0xC61 JUMP JUMPDEST PUSH1 0x40 DUP3 ADD SWAP1 POP SWAP2 SWAP1 POP JUMP JUMPDEST PUSH0 PUSH1 0x20 DUP3 ADD SWAP1 POP DUP2 DUP2 SUB PUSH0 DUP4 ADD MSTORE PUSH2 0xCE8 DUP2 PUSH2 0xCAF JUMP JUMPDEST SWAP1 POP SWAP2 SWAP1 POP JUMP JUMPDEST PUSH2 0x27AA DUP1 PUSH2 0xCFC PUSH0 CODECOPY PUSH0 RETURN INVALID PUSH1 0x80 PUSH1 0x40 MSTORE CALLVALUE DUP1 ISZERO PUSH2 0xF JUMPI PUSH0 PUSH0 REVERT JUMPDEST POP PUSH1 0x4 CALLDATASIZE LT PUSH2 0xF2 JUMPI PUSH0 CALLDATALOAD PUSH1 0xE0 SHR DUP1 PUSH4 0x4E1273F4 GT PUSH2 0x95 JUMPI DUP1 PUSH4 0xA22CB465 GT PUSH2 0x64 JUMPI DUP1 PUSH4 0xA22CB465 EQ PUSH2 0x286 JUMPI DUP1 PUSH4 0xE3E55F08 EQ PUSH2 0x2A2 JUMPI DUP1 PUSH4 0xE985E9C5 EQ PUSH2 0x2C0 JUMPI DUP1 PUSH4 0xF242432A EQ PUSH2 0x2F0 JUMPI PUSH2 0xF2 JUMP JUMPDEST DUP1 PUSH4 0x4E1273F4 EQ PUSH2 0x1FC JUMPI DUP1 PUSH4 0x67998F38 EQ PUSH2 0x22C JUMPI DUP1 PUSH4 0x90F5F0CD EQ PUSH2 0x24A JUMPI DUP1 PUSH4 0x95D89B41 EQ PUSH2 0x268 JUMPI PUSH2 0xF2 JUMP JUMPDEST DUP1 PUSH4 0xE89341C GT PUSH2 0xD1 JUMPI DUP1 PUSH4 0xE89341C EQ PUSH2 0x174 JUMPI DUP1 PUSH4 0x217FFDD3 EQ PUSH2 0x1A4 JUMPI DUP1 PUSH4 0x2EB2C2D6 EQ PUSH2 0x1C2 JUMPI DUP1 PUSH4 0x3E4BEE38 EQ PUSH2 0x1DE JUMPI PUSH2 0xF2 JUMP JUMPDEST DUP1 PUSH3 0xFDD58E EQ PUSH2 0xF6 JUMPI DUP1 PUSH4 0x1FFC9A7 EQ PUSH2 0x126 JUMPI DUP1 PUSH4 0x6FDDE03 EQ PUSH2 0x156 JUMPI JUMPDEST PUSH0 PUSH0 REVERT JUMPDEST PUSH2 0x110 PUSH1 0x4 DUP1 CALLDATASIZE SUB DUP2 ADD SWAP1 PUSH2 0x10B SWAP2 SWAP1 PUSH2 0x15A9 JUMP JUMPDEST PUSH2 0x30C JUMP JUMPDEST PUSH1 0x40 MLOAD PUSH2 0x11D SWAP2 SWAP1 PUSH2 0x15F6 JUMP JUMPDEST PUSH1 0x40 MLOAD DUP1 SWAP2 SUB SWAP1 RETURN JUMPDEST PUSH2 0x140 PUSH1 0x4 DUP1 CALLDATASIZE SUB DUP2 ADD SWAP1 PUSH2 0x13B SWAP2 SWAP1 PUSH2 0x1664 JUMP JUMPDEST PUSH2 0x3D0 JUMP JUMPDEST PUSH1 0x40 MLOAD PUSH2 0x14D SWAP2 SWAP1 PUSH2 0x16A9 JUMP JUMPDEST PUSH1 0x40 MLOAD DUP1 SWAP2 SUB SWAP1 RETURN JUMPDEST PUSH2 0x15E PUSH2 0x509 JUMP JUMPDEST PUSH1 0x40 MLOAD PUSH2 0x16B SWAP2 SWAP1 PUSH2 0x1732 JUMP JUMPDEST PUSH1 0x40 MLOAD DUP1 SWAP2 SUB SWAP1 RETURN JUMPDEST PUSH2 0x18E PUSH1 0x4 DUP1 CALLDATASIZE SUB DUP2 ADD SWAP1 PUSH2 0x189 SWAP2 SWAP1 PUSH2 0x1752 JUMP JUMPDEST PUSH2 0x594 JUMP JUMPDEST PUSH1 0x40 MLOAD PUSH2 0x19B SWAP2 SWAP1 PUSH2 0x1732 JUMP JUMPDEST PUSH1 0x40 MLOAD DUP1 SWAP2 SUB SWAP1 RETURN JUMPDEST PUSH2 0x1AC PUSH2 0x5F0 JUMP JUMPDEST PUSH1 0x40 MLOAD PUSH2 0x1B9 SWAP2 SWAP1 PUSH2 0x15F6 JUMP JUMPDEST PUSH1 0x40 MLOAD DUP1 SWAP2 SUB SWAP1 RETURN JUMPDEST PUSH2 0x1DC PUSH1 0x4 DUP1 CALLDATASIZE SUB DUP2 ADD SWAP1 PUSH2 0x1D7 SWAP2 SWAP1 PUSH2 0x196D JUMP JUMPDEST PUSH2 0x5F5 JUMP JUMPDEST STOP JUMPDEST PUSH2 0x1E6 PUSH2 0x95F JUMP JUMPDEST PUSH1 0x40 MLOAD PUSH2 0x1F3 SWAP2 SWAP1 PUSH2 0x15F6 JUMP JUMPDEST PUSH1 0x40 MLOAD DUP1 SWAP2 SUB SWAP1 RETURN JUMPDEST PUSH2 0x216 PUSH1 0x4 DUP1 CALLDATASIZE SUB DUP2 ADD SWAP1 PUSH2 0x211 SWAP2 SWAP1 PUSH2 0x1AF8 JUMP JUMPDEST PUSH2 0x964 JUMP JUMPDEST PUSH1 0x40 MLOAD PUSH2 0x223 SWAP2 SWAP1 PUSH2 0x1C25 JUMP JUMPDEST PUSH1 0x40 MLOAD DUP1 SWAP2 SUB SWAP1 RETURN JUMPDEST PUSH2 0x234 PUSH2 0xA78 JUMP JUMPDEST PUSH1 0x40 MLOAD PUSH2 0x241 SWAP2 SWAP1 PUSH2 0x15F6 JUMP JUMPDEST PUSH1 0x40 MLOAD DUP1 SWAP2 SUB SWAP1 RETURN JUMPDEST PUSH2 0x252 PUSH2 0xA7D JUMP JUMPDEST PUSH1 0x40 MLOAD PUSH2 0x25F SWAP2 SWAP1 PUSH2 0x15F6 JUMP JUMPDEST PUSH1 0x40 MLOAD DUP1 SWAP2 SUB SWAP1 RETURN JUMPDEST PUSH2 0x270 PUSH2 0xA82 JUMP JUMPDEST PUSH1 0x40 MLOAD PUSH2 0x27D SWAP2 SWAP1 PUSH2 0x1732 JUMP JUMPDEST PUSH1 0x40 MLOAD DUP1 SWAP2 SUB SWAP1 RETURN JUMPDEST PUSH2 0x2A0 PUSH1 0x4 DUP1 CALLDATASIZE SUB DUP2 ADD SWAP1 PUSH2 0x29B SWAP2 SWAP1 PUSH2 0x1C6F JUMP JUMPDEST PUSH2 0xB0E JUMP JUMPDEST STOP JUMPDEST PUSH2 0x2AA PUSH2 0xC74 JUMP JUMPDEST PUSH1 0x40 MLOAD PUSH2 0x2B7 SWAP2 SWAP1 PUSH2 0x15F6 JUMP JUMPDEST PUSH1 0x40 MLOAD DUP1 SWAP2 SUB SWAP1 RETURN JUMPDEST PUSH2 0x2DA PUSH1 0x4 DUP1 CALLDATASIZE SUB DUP2 ADD SWAP1 PUSH2 0x2D5 SWAP2 SWAP1 PUSH2 0x1CAD JUMP JUMPDEST PUSH2 0xC79 JUMP JUMPDEST PUSH1 0x40 MLOAD PUSH2 0x2E7 SWAP2 SWAP1 PUSH2 0x16A9 JUMP JUMPDEST PUSH1 0x40 MLOAD DUP1 SWAP2 SUB SWAP1 RETURN JUMPDEST PUSH2 0x30A PUSH1 0x4 DUP1 CALLDATASIZE SUB DUP2 ADD SWAP1 PUSH2 0x305 SWAP2 SWAP1 PUSH2 0x1CEB JUMP JUMPDEST PUSH2 0xD07 JUMP JUMPDEST STOP JUMPDEST PUSH0 PUSH0 PUSH20 0xFFFFFFFFFFFFFFFFFFFFFFFFFFFFFFFFFFFFFFFF AND DUP4 PUSH20 0xFFFFFFFFFFFFFFFFFFFFFFFFFFFFFFFFFFFFFFFF AND SUB PUSH2 0x37B JUMPI PUSH1 0x40 MLOAD PUSH32 0x8C379A000000000000000000000000000000000000000000000000000000000 DUP2 MSTORE PUSH1 0x4 ADD PUSH2 0x372 SWAP1 PUSH2 0x1DEE JUMP JUMPDEST PUSH1 0x40 MLOAD DUP1 SWAP2 SUB SWAP1 REVERT JUMPDEST PUSH1 0x2 PUSH0 DUP4 DUP2 MSTORE PUSH1 0x20 ADD SWAP1 DUP2 MSTORE PUSH1 0x20 ADD PUSH0 KECCAK256 PUSH0 DUP5 PUSH20 0xFFFFFFFFFFFFFFFFFFFFFFFFFFFFFFFFFFFFFFFF AND PUSH20 0xFFFFFFFFFFFFFFFFFFFFFFFFFFFFFFFFFFFFFFFF AND DUP2 MSTORE PUSH1 0x20 ADD SWAP1 DUP2 MSTORE PUSH1 0x20 ADD PUSH0 KECCAK256 SLOAD SWAP1 POP SWAP3 SWAP2 POP POP JUMP JUMPDEST PUSH0 PUSH32 0xD9B67A2600000000000000000000000000000000000000000000000000000000 PUSH28 0xFFFFFFFFFFFFFFFFFFFFFFFFFFFFFFFFFFFFFFFFFFFFFFFFFFFFFFFF NOT AND DUP3 PUSH28 0xFFFFFFFFFFFFFFFFFFFFFFFFFFFFFFFFFFFFFFFFFFFFFFFFFFFFFFFF NOT AND EQ DUP1 PUSH2 0x49A JUMPI POP PUSH32 0xE89341C00000000000000000000000000000000000000000000000000000000 PUSH28 0xFFFFFFFFFFFFFFFFFFFFFFFFFFFFFFFFFFFFFFFFFFFFFFFFFFFFFFFF NOT AND DUP3 PUSH28 0xFFFFFFFFFFFFFFFFFFFFFFFFFFFFFFFFFFFFFFFFFFFFFFFFFFFFFFFF NOT AND EQ JUMPDEST DUP1 PUSH2 0x502 JUMPI POP PUSH32 0x1FFC9A700000000000000000000000000000000000000000000000000000000 PUSH28 0xFFFFFFFFFFFFFFFFFFFFFFFFFFFFFFFFFFFFFFFFFFFFFFFFFFFFFFFF NOT AND DUP3 PUSH28 0xFFFFFFFFFFFFFFFFFFFFFFFFFFFFFFFFFFFFFFFFFFFFFFFFFFFFFFFF NOT AND EQ JUMPDEST SWAP1 POP SWAP2 SWAP1 POP JUMP JUMPDEST PUSH0 DUP1 SLOAD PUSH2 0x515 SWAP1 PUSH2 0x1E39 JUMP JUMPDEST DUP1 PUSH1 0x1F ADD PUSH1 0x20 DUP1 SWAP2 DIV MUL PUSH1 0x20 ADD PUSH1 0x40 MLOAD SWAP1 DUP2 ADD PUSH1 0x40 MSTORE DUP1 SWAP3 SWAP2 SWAP1 DUP2 DUP2 MSTORE PUSH1 0x20 ADD DUP3 DUP1 SLOAD PUSH2 0x541 SWAP1 PUSH2 0x1E39 JUMP JUMPDEST DUP1 ISZERO PUSH2 0x58C JUMPI DUP1 PUSH1 0x1F LT PUSH2 0x563 JUMPI PUSH2 0x100 DUP1 DUP4 SLOAD DIV MUL DUP4 MSTORE SWAP2 PUSH1 0x20 ADD SWAP2 PUSH2 0x58C JUMP JUMPDEST DUP3 ADD SWAP2 SWAP1 PUSH0 MSTORE PUSH1 0x20 PUSH0 KECCAK256 SWAP1 JUMPDEST DUP2 SLOAD DUP2 MSTORE SWAP1 PUSH1 0x1 ADD SWAP1 PUSH1 0x20 ADD DUP1 DUP4 GT PUSH2 0x56F JUMPI DUP3 SWAP1 SUB PUSH1 0x1F AND DUP3 ADD SWAP2 JUMPDEST POP POP POP POP POP DUP2 JUMP JUMPDEST PUSH1 0x60 PUSH0 PUSH2 0x59F PUSH2 0xFD5 JUMP JUMPDEST SWAP1 POP PUSH0 DUP2 MLOAD GT PUSH2 0x5BD JUMPI PUSH1 0x40 MLOAD DUP1 PUSH1 0x20 ADD PUSH1 0x40 MSTORE DUP1 PUSH0 DUP2 MSTORE POP PUSH2 0x5E8 JUMP JUMPDEST DUP1 PUSH2 0x5C7 DUP5 PUSH2 0xFF5 JUMP JUMPDEST PUSH1 0x40 MLOAD PUSH1 0x20 ADD PUSH2 0x5D8 SWAP3 SWAP2 SWAP1 PUSH2 0x1EA3 JUMP JUMPDEST PUSH1 0x40 MLOAD PUSH1 0x20 DUP2 DUP4 SUB SUB DUP2 MSTORE SWAP1 PUSH1 0x40 MSTORE JUMPDEST SWAP2 POP POP SWAP2 SWAP1 POP JUMP JUMPDEST PUSH1 0x4 DUP2 JUMP JUMPDEST PUSH0 CALLER SWAP1 POP DUP1 PUSH20 0xFFFFFFFFFFFFFFFFFFFFFFFFFFFFFFFFFFFFFFFF AND DUP7 PUSH20 0xFFFFFFFFFFFFFFFFFFFFFFFFFFFFFFFFFFFFFFFF AND EQ DUP1 PUSH2 0x639 JUMPI POP PUSH2 0x638 DUP7 DUP3 PUSH2 0xC79 JUMP JUMPDEST JUMPDEST PUSH2 0x678 JUMPI PUSH1 0x40 MLOAD PUSH32 0x8C379A000000000000000000000000000000000000000000000000000000000 DUP2 MSTORE PUSH1 0x4 ADD PUSH2 0x66F SWAP1 PUSH2 0x1F36 JUMP JUMPDEST PUSH1 0x40 MLOAD DUP1 SWAP2 SUB SWAP1 REVERT JUMPDEST DUP3 MLOAD DUP5 MLOAD EQ PUSH2 0x6BC JUMPI PUSH1 0x40 MLOAD PUSH32 0x8C379A000000000000000000000000000000000000000000000000000000000 DUP2 MSTORE PUSH1 0x4 ADD PUSH2 0x6B3 SWAP1 PUSH2 0x1FC4 JUMP JUMPDEST PUSH1 0x40 MLOAD DUP1 SWAP2 SUB SWAP1 REVERT JUMPDEST PUSH0 PUSH20 0xFFFFFFFFFFFFFFFFFFFFFFFFFFFFFFFFFFFFFFFF AND DUP6 PUSH20 0xFFFFFFFFFFFFFFFFFFFFFFFFFFFFFFFFFFFFFFFF AND SUB PUSH2 0x72A JUMPI PUSH1 0x40 MLOAD PUSH32 0x8C379A000000000000000000000000000000000000000000000000000000000 DUP2 MSTORE PUSH1 0x4 ADD PUSH2 0x721 SWAP1 PUSH2 0x2052 JUMP JUMPDEST PUSH1 0x40 MLOAD DUP1 SWAP2 SUB SWAP1 REVERT JUMPDEST PUSH0 PUSH0 SWAP1 POP JUMPDEST DUP5 MLOAD DUP2 LT ISZERO PUSH2 0x8CA JUMPI PUSH0 DUP6 DUP3 DUP2 MLOAD DUP2 LT PUSH2 0x74C JUMPI PUSH2 0x74B PUSH2 0x2070 JUMP JUMPDEST JUMPDEST PUSH1 0x20 MUL PUSH1 0x20 ADD ADD MLOAD SWAP1 POP PUSH0 DUP6 DUP4 DUP2 MLOAD DUP2 LT PUSH2 0x76A JUMPI PUSH2 0x769 PUSH2 0x2070 JUMP JUMPDEST JUMPDEST PUSH1 0x20 MUL PUSH1 0x20 ADD ADD MLOAD SWAP1 POP PUSH0 PUSH1 0x2 PUSH0 DUP5 DUP2 MSTORE PUSH1 0x20 ADD SWAP1 DUP2 MSTORE PUSH1 0x20 ADD PUSH0 KECCAK256 PUSH0 DUP12 PUSH20 0xFFFFFFFFFFFFFFFFFFFFFFFFFFFFFFFFFFFFFFFF AND PUSH20 0xFFFFFFFFFFFFFFFFFFFFFFFFFFFFFFFFFFFFFFFF AND DUP2 MSTORE PUSH1 0x20 ADD SWAP1 DUP2 MSTORE PUSH1 0x20 ADD PUSH0 KECCAK256 SLOAD SWAP1 POP DUP2 DUP2 LT ISZERO PUSH2 0x807 JUMPI PUSH1 0x40 MLOAD PUSH32 0x8C379A000000000000000000000000000000000000000000000000000000000 DUP2 MSTORE PUSH1 0x4 ADD PUSH2 0x7FE SWAP1 PUSH2 0x210D JUMP JUMPDEST PUSH1 0x40 MLOAD DUP1 SWAP2 SUB SWAP1 REVERT JUMPDEST DUP2 DUP2 SUB PUSH1 0x2 PUSH0 DUP6 DUP2 MSTORE PUSH1 0x20 ADD SWAP1 DUP2 MSTORE PUSH1 0x20 ADD PUSH0 KECCAK256 PUSH0 DUP13 PUSH20 0xFFFFFFFFFFFFFFFFFFFFFFFFFFFFFFFFFFFFFFFF AND PUSH20 0xFFFFFFFFFFFFFFFFFFFFFFFFFFFFFFFFFFFFFFFF AND DUP2 MSTORE PUSH1 0x20 ADD SWAP1 DUP2 MSTORE PUSH1 0x20 ADD PUSH0 KECCAK256 DUP2 SWAP1 SSTORE POP DUP2 PUSH1 0x2 PUSH0 DUP6 DUP2 MSTORE PUSH1 0x20 ADD SWAP1 DUP2 MSTORE PUSH1 0x20 ADD PUSH0 KECCAK256 PUSH0 DUP12 PUSH20 0xFFFFFFFFFFFFFFFFFFFFFFFFFFFFFFFFFFFFFFFF AND PUSH20 0xFFFFFFFFFFFFFFFFFFFFFFFFFFFFFFFFFFFFFFFF AND DUP2 MSTORE PUSH1 0x20 ADD SWAP1 DUP2 MSTORE PUSH1 0x20 ADD PUSH0 KECCAK256 PUSH0 DUP3 DUP3 SLOAD PUSH2 0x8B5 SWAP2 SWAP1 PUSH2 0x2158 JUMP JUMPDEST SWAP3 POP POP DUP2 SWAP1 SSTORE POP POP POP POP DUP1 PUSH1 0x1 ADD SWAP1 POP PUSH2 0x72F JUMP JUMPDEST POP DUP5 PUSH20 0xFFFFFFFFFFFFFFFFFFFFFFFFFFFFFFFFFFFFFFFF AND DUP7 PUSH20 0xFFFFFFFFFFFFFFFFFFFFFFFFFFFFFFFFFFFFFFFF AND DUP3 PUSH20 0xFFFFFFFFFFFFFFFFFFFFFFFFFFFFFFFFFFFFFFFF AND PUSH32 0x4A39DC06D4C0DBC64B70AF90FD698A233A518AA5D07E595D983B8C0526C8F7FB DUP8 DUP8 PUSH1 0x40 MLOAD PUSH2 0x941 SWAP3 SWAP2 SWAP1 PUSH2 0x218B JUMP JUMPDEST PUSH1 0x40 MLOAD DUP1 SWAP2 SUB SWAP1 LOG4 PUSH2 0x957 DUP2 DUP8 DUP8 DUP8 DUP8 DUP8 PUSH2 0x114E JUMP JUMPDEST POP POP POP POP POP POP JUMP JUMPDEST PUSH1 0x1 DUP2 JUMP JUMPDEST PUSH1 0x60 DUP2 MLOAD DUP4 MLOAD EQ PUSH2 0x9AA JUMPI PUSH1 0x40 MLOAD PUSH32 0x8C379A000000000000000000000000000000000000000000000000000000000 DUP2 MSTORE PUSH1 0x4 ADD PUSH2 0x9A1 SWAP1 PUSH2 0x2230 JUMP JUMPDEST PUSH1 0x40 MLOAD DUP1 SWAP2 SUB SWAP1 REVERT JUMPDEST PUSH0 DUP4 MLOAD PUSH8 0xFFFFFFFFFFFFFFFF DUP2 GT ISZERO PUSH2 0x9C6 JUMPI PUSH2 0x9C5 PUSH2 0x1781 JUMP JUMPDEST JUMPDEST PUSH1 0x40 MLOAD SWAP1 DUP1 DUP3 MSTORE DUP1 PUSH1 0x20 MUL PUSH1 0x20 ADD DUP3 ADD PUSH1 0x40 MSTORE DUP1 ISZERO PUSH2 0x9F4 JUMPI DUP2 PUSH1 0x20 ADD PUSH1 0x20 DUP3 MUL DUP1 CALLDATASIZE DUP4 CALLDATACOPY DUP1 DUP3 ADD SWAP2 POP POP SWAP1 POP JUMPDEST POP SWAP1 POP PUSH0 PUSH0 SWAP1 POP JUMPDEST DUP5 MLOAD DUP2 LT ISZERO PUSH2 0xA6D JUMPI PUSH2 0xA43 DUP6 DUP3 DUP2 MLOAD DUP2 LT PUSH2 0xA1B JUMPI PUSH2 0xA1A PUSH2 0x2070 JUMP JUMPDEST JUMPDEST PUSH1 0x20 MUL PUSH1 0x20 ADD ADD MLOAD DUP6 DUP4 DUP2 MLOAD DUP2 LT PUSH2 0xA36 JUMPI PUSH2 0xA35 PUSH2 0x2070 JUMP JUMPDEST JUMPDEST PUSH1 0x20 MUL PUSH1 0x20 ADD ADD MLOAD PUSH2 0x30C JUMP JUMPDEST DUP3 DUP3 DUP2 MLOAD DUP2 LT PUSH2 0xA56 JUMPI PUSH2 0xA55 PUSH2 0x2070 JUMP JUMPDEST JUMPDEST PUSH1 0x20 MUL PUSH1 0x20 ADD ADD DUP2 DUP2 MSTORE POP POP DUP1 PUSH1 0x1 ADD SWAP1 POP PUSH2 0x9FC JUMP JUMPDEST POP DUP1 SWAP2 POP POP SWAP3 SWAP2 POP POP JUMP JUMPDEST PUSH1 0x5 DUP2 JUMP JUMPDEST PUSH1 0x3 DUP2 JUMP JUMPDEST PUSH1 0x1 DUP1 SLOAD PUSH2 0xA8F SWAP1 PUSH2 0x1E39 JUMP JUMPDEST DUP1 PUSH1 0x1F ADD PUSH1 0x20 DUP1 SWAP2 DIV MUL PUSH1 0x20 ADD PUSH1 0x40 MLOAD SWAP1 DUP2 ADD PUSH1 0x40 MSTORE DUP1 SWAP3 SWAP2 SWAP1 DUP2 DUP2 MSTORE PUSH1 0x20 ADD DUP3 DUP1 SLOAD PUSH2 0xABB SWAP1 PUSH2 0x1E39 JUMP JUMPDEST DUP1 ISZERO PUSH2 0xB06 JUMPI DUP1 PUSH1 0x1F LT PUSH2 0xADD JUMPI PUSH2 0x100 DUP1 DUP4 SLOAD DIV MUL DUP4 MSTORE SWAP2 PUSH1 0x20 ADD SWAP2 PUSH2 0xB06 JUMP JUMPDEST DUP3 ADD SWAP2 SWAP1 PUSH0 MSTORE PUSH1 0x20 PUSH0 KECCAK256 SWAP1 JUMPDEST DUP2 SLOAD DUP2 MSTORE SWAP1 PUSH1 0x1 ADD SWAP1 PUSH1 0x20 ADD DUP1 DUP4 GT PUSH2 0xAE9 JUMPI DUP3 SWAP1 SUB PUSH1 0x1F AND DUP3 ADD SWAP2 JUMPDEST POP POP POP POP POP DUP2 JUMP JUMPDEST DUP2 PUSH20 0xFFFFFFFFFFFFFFFFFFFFFFFFFFFFFFFFFFFFFFFF AND CALLER PUSH20 0xFFFFFFFFFFFFFFFFFFFFFFFFFFFFFFFFFFFFFFFF AND SUB PUSH2 0xB7C JUMPI PUSH1 0x40 MLOAD PUSH32 0x8C379A000000000000000000000000000000000000000000000000000000000 DUP2 MSTORE PUSH1 0x4 ADD PUSH2 0xB73 SWAP1 PUSH2 0x22BE JUMP JUMPDEST PUSH1 0x40 MLOAD DUP1 SWAP2 SUB SWAP1 REVERT JUMPDEST DUP1 PUSH1 0x3 PUSH0 CALLER PUSH20 0xFFFFFFFFFFFFFFFFFFFFFFFFFFFFFFFFFFFFFFFF AND PUSH20 0xFFFFFFFFFFFFFFFFFFFFFFFFFFFFFFFFFFFFFFFF AND DUP2 MSTORE PUSH1 0x20 ADD SWAP1 DUP2 MSTORE PUSH1 0x20 ADD PUSH0 KECCAK256 PUSH0 DUP5 PUSH20 0xFFFFFFFFFFFFFFFFFFFFFFFFFFFFFFFFFFFFFFFF AND PUSH20 0xFFFFFFFFFFFFFFFFFFFFFFFFFFFFFFFFFFFFFFFF AND DUP2 MSTORE PUSH1 0x20 ADD SWAP1 DUP2 MSTORE PUSH1 0x20 ADD PUSH0 KECCAK256 PUSH0 PUSH2 0x100 EXP DUP2 SLOAD DUP2 PUSH1 0xFF MUL NOT AND SWAP1 DUP4 ISZERO ISZERO MUL OR SWAP1 SSTORE POP DUP2 PUSH20 0xFFFFFFFFFFFFFFFFFFFFFFFFFFFFFFFFFFFFFFFF AND CALLER PUSH20 0xFFFFFFFFFFFFFFFFFFFFFFFFFFFFFFFFFFFFFFFF AND PUSH32 0x17307EAB39AB6107E8899845AD3D59BD9653F200F220920489CA2B5937696C31 DUP4 PUSH1 0x40 MLOAD PUSH2 0xC68 SWAP2 SWAP1 PUSH2 0x16A9 JUMP JUMPDEST PUSH1 0x40 MLOAD DUP1 SWAP2 SUB SWAP1 LOG3 POP POP JUMP JUMPDEST PUSH1 0x2 DUP2 JUMP JUMPDEST PUSH0 PUSH1 0x3 PUSH0 DUP5 PUSH20 0xFFFFFFFFFFFFFFFFFFFFFFFFFFFFFFFFFFFFFFFF AND PUSH20 0xFFFFFFFFFFFFFFFFFFFFFFFFFFFFFFFFFFFFFFFF AND DUP2 MSTORE PUSH1 0x20 ADD SWAP1 DUP2 MSTORE PUSH1 0x20 ADD PUSH0 KECCAK256 PUSH0 DUP4 PUSH20 0xFFFFFFFFFFFFFFFFFFFFFFFFFFFFFFFFFFFFFFFF AND PUSH20 0xFFFFFFFFFFFFFFFFFFFFFFFFFFFFFFFFFFFFFFFF AND DUP2 MSTORE PUSH1 0x20 ADD SWAP1 DUP2 MSTORE PUSH1 0x20 ADD PUSH0 KECCAK256 PUSH0 SWAP1 SLOAD SWAP1 PUSH2 0x100 EXP SWAP1 DIV PUSH1 0xFF AND SWAP1 POP SWAP3 SWAP2 POP POP JUMP JUMPDEST PUSH0 CALLER SWAP1 POP DUP1 PUSH20 0xFFFFFFFFFFFFFFFFFFFFFFFFFFFFFFFFFFFFFFFF AND DUP7 PUSH20 0xFFFFFFFFFFFFFFFFFFFFFFFFFFFFFFFFFFFFFFFF AND EQ DUP1 PUSH2 0xD4B JUMPI POP PUSH2 0xD4A DUP7 DUP3 PUSH2 0xC79 JUMP JUMPDEST JUMPDEST PUSH2 0xD8A JUMPI PUSH1 0x40 MLOAD PUSH32 0x8C379A000000000000000000000000000000000000000000000000000000000 DUP2 MSTORE PUSH1 0x4 ADD PUSH2 0xD81 SWAP1 PUSH2 0x1F36 JUMP JUMPDEST PUSH1 0x40 MLOAD DUP1 SWAP2 SUB SWAP1 REVERT JUMPDEST PUSH0 PUSH20 0xFFFFFFFFFFFFFFFFFFFFFFFFFFFFFFFFFFFFFFFF AND DUP6 PUSH20 0xFFFFFFFFFFFFFFFFFFFFFFFFFFFFFFFFFFFFFFFF AND SUB PUSH2 0xDF8 JUMPI PUSH1 0x40 MLOAD PUSH32 0x8C379A000000000000000000000000000000000000000000000000000000000 DUP2 MSTORE PUSH1 0x4 ADD PUSH2 0xDEF SWAP1 PUSH2 0x2052 JUMP JUMPDEST PUSH1 0x40 MLOAD DUP1 SWAP2 SUB SWAP1 REVERT JUMPDEST PUSH0 PUSH1 0x2 PUSH0 DUP7 DUP2 MSTORE PUSH1 0x20 ADD SWAP1 DUP2 MSTORE PUSH1 0x20 ADD PUSH0 KECCAK256 PUSH0 DUP9 PUSH20 0xFFFFFFFFFFFFFFFFFFFFFFFFFFFFFFFFFFFFFFFF AND PUSH20 0xFFFFFFFFFFFFFFFFFFFFFFFFFFFFFFFFFFFFFFFF AND DUP2 MSTORE PUSH1 0x20 ADD SWAP1 DUP2 MSTORE PUSH1 0x20 ADD PUSH0 KECCAK256 SLOAD SWAP1 POP DUP4 DUP2 LT ISZERO PUSH2 0xE8B JUMPI PUSH1 0x40 MLOAD PUSH32 0x8C379A000000000000000000000000000000000000000000000000000000000 DUP2 MSTORE PUSH1 0x4 ADD PUSH2 0xE82 SWAP1 PUSH2 0x210D JUMP JUMPDEST PUSH1 0x40 MLOAD DUP1 SWAP2 SUB SWAP1 REVERT JUMPDEST DUP4 DUP2 SUB PUSH1 0x2 PUSH0 DUP8 DUP2 MSTORE PUSH1 0x20 ADD SWAP1 DUP2 MSTORE PUSH1 0x20 ADD PUSH0 KECCAK256 PUSH0 DUP10 PUSH20 0xFFFFFFFFFFFFFFFFFFFFFFFFFFFFFFFFFFFFFFFF AND PUSH20 0xFFFFFFFFFFFFFFFFFFFFFFFFFFFFFFFFFFFFFFFF AND DUP2 MSTORE PUSH1 0x20 ADD SWAP1 DUP2 MSTORE PUSH1 0x20 ADD PUSH0 KECCAK256 DUP2 SWAP1 SSTORE POP DUP4 PUSH1 0x2 PUSH0 DUP8 DUP2 MSTORE PUSH1 0x20 ADD SWAP1 DUP2 MSTORE PUSH1 0x20 ADD PUSH0 KECCAK256 PUSH0 DUP9 PUSH20 0xFFFFFFFFFFFFFFFFFFFFFFFFFFFFFFFFFFFFFFFF AND PUSH20 0xFFFFFFFFFFFFFFFFFFFFFFFFFFFFFFFFFFFFFFFF AND DUP2 MSTORE PUSH1 0x20 ADD SWAP1 DUP2 MSTORE PUSH1 0x20 ADD PUSH0 KECCAK256 PUSH0 DUP3 DUP3 SLOAD PUSH2 0xF39 SWAP2 SWAP1 PUSH2 0x2158 JUMP JUMPDEST SWAP3 POP POP DUP2 SWAP1 SSTORE POP DUP6 PUSH20 0xFFFFFFFFFFFFFFFFFFFFFFFFFFFFFFFFFFFFFFFF AND DUP8 PUSH20 0xFFFFFFFFFFFFFFFFFFFFFFFFFFFFFFFFFFFFFFFF AND DUP4 PUSH20 0xFFFFFFFFFFFFFFFFFFFFFFFFFFFFFFFFFFFFFFFF AND PUSH32 0xC3D58168C5AE7397731D063D5BBF3D657854427343F4C083240F7AACAA2D0F62 DUP9 DUP9 PUSH1 0x40 MLOAD PUSH2 0xFB6 SWAP3 SWAP2 SWAP1 PUSH2 0x22DC JUMP JUMPDEST PUSH1 0x40 MLOAD DUP1 SWAP2 SUB SWAP1 LOG4 PUSH2 0xFCC DUP3 DUP9 DUP9 DUP9 DUP9 DUP9 PUSH2 0x1324 JUMP JUMPDEST POP POP POP POP POP POP POP JUMP JUMPDEST PUSH1 0x60 PUSH1 0x40 MLOAD DUP1 PUSH1 0x60 ADD PUSH1 0x40 MSTORE DUP1 PUSH1 0x36 DUP2 MSTORE PUSH1 0x20 ADD PUSH2 0x273F PUSH1 0x36 SWAP2 CODECOPY SWAP1 POP SWAP1 JUMP JUMPDEST PUSH1 0x60 PUSH0 DUP3 SUB PUSH2 0x103B JUMPI PUSH1 0x40 MLOAD DUP1 PUSH1 0x40 ADD PUSH1 0x40 MSTORE DUP1 PUSH1 0x1 DUP2 MSTORE PUSH1 0x20 ADD PUSH32 0x3000000000000000000000000000000000000000000000000000000000000000 DUP2 MSTORE POP SWAP1 POP PUSH2 0x1149 JUMP JUMPDEST PUSH0 DUP3 SWAP1 POP PUSH0 JUMPDEST PUSH0 DUP3 EQ PUSH2 0x106A JUMPI DUP1 DUP1 PUSH2 0x1053 SWAP1 PUSH2 0x2303 JUMP JUMPDEST SWAP2 POP POP PUSH1 0xA DUP3 PUSH2 0x1063 SWAP2 SWAP1 PUSH2 0x2377 JUMP JUMPDEST SWAP2 POP PUSH2 0x1041 JUMP JUMPDEST PUSH0 DUP2 PUSH8 0xFFFFFFFFFFFFFFFF DUP2 GT ISZERO PUSH2 0x1085 JUMPI PUSH2 0x1084 PUSH2 0x1781 JUMP JUMPDEST JUMPDEST PUSH1 0x40 MLOAD SWAP1 DUP1 DUP3 MSTORE DUP1 PUSH1 0x1F ADD PUSH1 0x1F NOT AND PUSH1 0x20 ADD DUP3 ADD PUSH1 0x40 MSTORE DUP1 ISZERO PUSH2 0x10B7 JUMPI DUP2 PUSH1 0x20 ADD PUSH1 0x1 DUP3 MUL DUP1 CALLDATASIZE DUP4 CALLDATACOPY DUP1 DUP3 ADD SWAP2 POP POP SWAP1 POP JUMPDEST POP SWAP1 POP JUMPDEST PUSH0 DUP6 EQ PUSH2 0x1142 JUMPI PUSH1 0x1 DUP3 PUSH2 0x10CF SWAP2 SWAP1 PUSH2 0x23A7 JUMP JUMPDEST SWAP2 POP PUSH1 0xA DUP6 PUSH2 0x10DE SWAP2 SWAP1 PUSH2 0x23DA JUMP JUMPDEST PUSH1 0x30 PUSH2 0x10EA SWAP2 SWAP1 PUSH2 0x2158 JUMP JUMPDEST PUSH1 0xF8 SHL DUP2 DUP4 DUP2 MLOAD DUP2 LT PUSH2 0x1100 JUMPI PUSH2 0x10FF PUSH2 0x2070 JUMP JUMPDEST JUMPDEST PUSH1 0x20 ADD ADD SWAP1 PUSH31 0xFFFFFFFFFFFFFFFFFFFFFFFFFFFFFFFFFFFFFFFFFFFFFFFFFFFFFFFFFFFFFF NOT AND SWAP1 DUP2 PUSH0 BYTE SWAP1 MSTORE8 POP PUSH1 0xA DUP6 PUSH2 0x113B SWAP2 SWAP1 PUSH2 0x2377 JUMP JUMPDEST SWAP5 POP PUSH2 0x10BB JUMP JUMPDEST DUP1 SWAP4 POP POP POP POP JUMPDEST SWAP2 SWAP1 POP JUMP JUMPDEST PUSH2 0x116D DUP5 PUSH20 0xFFFFFFFFFFFFFFFFFFFFFFFFFFFFFFFFFFFFFFFF AND PUSH2 0x14FA JUMP JUMPDEST ISZERO PUSH2 0x131C JUMPI DUP4 PUSH20 0xFFFFFFFFFFFFFFFFFFFFFFFFFFFFFFFFFFFFFFFF AND PUSH4 0xBC197C81 DUP8 DUP8 DUP7 DUP7 DUP7 PUSH1 0x40 MLOAD DUP7 PUSH4 0xFFFFFFFF AND PUSH1 0xE0 SHL DUP2 MSTORE PUSH1 0x4 ADD PUSH2 0x11B3 SWAP6 SWAP5 SWAP4 SWAP3 SWAP2 SWAP1 PUSH2 0x246B JUMP JUMPDEST PUSH1 0x20 PUSH1 0x40 MLOAD DUP1 DUP4 SUB DUP2 PUSH0 DUP8 GAS CALL SWAP3 POP POP POP DUP1 ISZERO PUSH2 0x11EE JUMPI POP PUSH1 0x40 MLOAD RETURNDATASIZE PUSH1 0x1F NOT PUSH1 0x1F DUP3 ADD AND DUP3 ADD DUP1 PUSH1 0x40 MSTORE POP DUP2 ADD SWAP1 PUSH2 0x11EB SWAP2 SWAP1 PUSH2 0x24E5 JUMP JUMPDEST PUSH1 0x1 JUMPDEST PUSH2 0x1293 JUMPI PUSH2 0x11FA PUSH2 0x251C JUMP JUMPDEST DUP1 PUSH4 0x8C379A0 SUB PUSH2 0x1256 JUMPI POP PUSH2 0x120E PUSH2 0x253B JUMP JUMPDEST DUP1 PUSH2 0x1219 JUMPI POP PUSH2 0x1258 JUMP JUMPDEST DUP1 PUSH1 0x40 MLOAD PUSH32 0x8C379A000000000000000000000000000000000000000000000000000000000 DUP2 MSTORE PUSH1 0x4 ADD PUSH2 0x124D SWAP2 SWAP1 PUSH2 0x1732 JUMP JUMPDEST PUSH1 0x40 MLOAD DUP1 SWAP2 SUB SWAP1 REVERT JUMPDEST POP JUMPDEST PUSH1 0x40 MLOAD PUSH32 0x8C379A000000000000000000000000000000000000000000000000000000000 DUP2 MSTORE PUSH1 0x4 ADD PUSH2 0x128A SWAP1 PUSH2 0x263A JUMP JUMPDEST PUSH1 0x40 MLOAD DUP1 SWAP2 SUB SWAP1 REVERT JUMPDEST PUSH4 0xBC197C81 PUSH1 0xE0 SHL PUSH28 0xFFFFFFFFFFFFFFFFFFFFFFFFFFFFFFFFFFFFFFFFFFFFFFFFFFFFFFFF NOT AND DUP2 PUSH28 0xFFFFFFFFFFFFFFFFFFFFFFFFFFFFFFFFFFFFFFFFFFFFFFFFFFFFFFFF NOT AND EQ PUSH2 0x131A JUMPI PUSH1 0x40 MLOAD PUSH32 0x8C379A000000000000000000000000000000000000000000000000000000000 DUP2 MSTORE PUSH1 0x4 ADD PUSH2 0x1311 SWAP1 PUSH2 0x26C8 JUMP JUMPDEST PUSH1 0x40 MLOAD DUP1 SWAP2 SUB SWAP1 REVERT JUMPDEST POP JUMPDEST POP POP POP POP POP POP JUMP JUMPDEST PUSH2 0x1343 DUP5 PUSH20 0xFFFFFFFFFFFFFFFFFFFFFFFFFFFFFFFFFFFFFFFF AND PUSH2 0x14FA JUMP JUMPDEST ISZERO PUSH2 0x14F2 JUMPI DUP4 PUSH20 0xFFFFFFFFFFFFFFFFFFFFFFFFFFFFFFFFFFFFFFFF AND PUSH4 0xF23A6E61 DUP8 DUP8 DUP7 DUP7 DUP7 PUSH1 0x40 MLOAD DUP7 PUSH4 0xFFFFFFFF AND PUSH1 0xE0 SHL DUP2 MSTORE PUSH1 0x4 ADD PUSH2 0x1389 SWAP6 SWAP5 SWAP4 SWAP3 SWAP2 SWAP1 PUSH2 0x26E6 JUMP JUMPDEST PUSH1 0x20 PUSH1 0x40 MLOAD DUP1 DUP4 SUB DUP2 PUSH0 DUP8 GAS CALL SWAP3 POP POP POP DUP1 ISZERO PUSH2 0x13C4 JUMPI POP PUSH1 0x40 MLOAD RETURNDATASIZE PUSH1 0x1F NOT PUSH1 0x1F DUP3 ADD AND DUP3 ADD DUP1 PUSH1 0x40 MSTORE POP DUP2 ADD SWAP1 PUSH2 0x13C1 SWAP2 SWAP1 PUSH2 0x24E5 JUMP JUMPDEST PUSH1 0x1 JUMPDEST PUSH2 0x1469 JUMPI PUSH2 0x13D0 PUSH2 0x251C JUMP JUMPDEST DUP1 PUSH4 0x8C379A0 SUB PUSH2 0x142C JUMPI POP PUSH2 0x13E4 PUSH2 0x253B JUMP JUMPDEST DUP1 PUSH2 0x13EF JUMPI POP PUSH2 0x142E JUMP JUMPDEST DUP1 PUSH1 0x40 MLOAD PUSH32 0x8C379A000000000000000000000000000000000000000000000000000000000 DUP2 MSTORE PUSH1 0x4 ADD PUSH2 0x1423 SWAP2 SWAP1 PUSH2 0x1732 JUMP JUMPDEST PUSH1 0x40 MLOAD DUP1 SWAP2 SUB SWAP1 REVERT JUMPDEST POP JUMPDEST PUSH1 0x40 MLOAD PUSH32 0x8C379A000000000000000000000000000000000000000000000000000000000 DUP2 MSTORE PUSH1 0x4 ADD PUSH2 0x1460 SWAP1 PUSH2 0x263A JUMP JUMPDEST PUSH1 0x40 MLOAD DUP1 SWAP2 SUB SWAP1 REVERT JUMPDEST PUSH4 0xF23A6E61 PUSH1 0xE0 SHL PUSH28 0xFFFFFFFFFFFFFFFFFFFFFFFFFFFFFFFFFFFFFFFFFFFFFFFFFFFFFFFF NOT AND DUP2 PUSH28 0xFFFFFFFFFFFFFFFFFFFFFFFFFFFFFFFFFFFFFFFFFFFFFFFFFFFFFFFF NOT AND EQ PUSH2 0x14F0 JUMPI PUSH1 0x40 MLOAD PUSH32 0x8C379A000000000000000000000000000000000000000000000000000000000 DUP2 MSTORE PUSH1 0x4 ADD PUSH2 0x14E7 SWAP1 PUSH2 0x26C8 JUMP JUMPDEST PUSH1 0x40 MLOAD DUP1 SWAP2 SUB SWAP1 REVERT JUMPDEST POP JUMPDEST POP POP POP POP POP POP JUMP JUMPDEST PUSH0 PUSH0 DUP3 EXTCODESIZE SWAP1 POP PUSH0 DUP2 GT SWAP2 POP POP SWAP2 SWAP1 POP JUMP JUMPDEST PUSH0 PUSH1 0x40 MLOAD SWAP1 POP SWAP1 JUMP JUMPDEST PUSH0 PUSH0 REVERT JUMPDEST PUSH0 PUSH0 REVERT JUMPDEST PUSH0 PUSH20 0xFFFFFFFFFFFFFFFFFFFFFFFFFFFFFFFFFFFFFFFF DUP3 AND SWAP1 POP SWAP2 SWAP1 POP JUMP JUMPDEST PUSH0 PUSH2 0x1545 DUP3 PUSH2 0x151C JUMP JUMPDEST SWAP1 POP SWAP2 SWAP1 POP JUMP JUMPDEST PUSH2 0x1555 DUP2 PUSH2 0x153B JUMP JUMPDEST DUP2 EQ PUSH2 0x155F JUMPI PUSH0 PUSH0 REVERT JUMPDEST POP JUMP JUMPDEST PUSH0 DUP2 CALLDATALOAD SWAP1 POP PUSH2 0x1570 DUP2 PUSH2 0x154C JUMP JUMPDEST SWAP3 SWAP2 POP POP JUMP JUMPDEST PUSH0 DUP2 SWAP1 POP SWAP2 SWAP1 POP JUMP JUMPDEST PUSH2 0x1588 DUP2 PUSH2 0x1576 JUMP JUMPDEST DUP2 EQ PUSH2 0x1592 JUMPI PUSH0 PUSH0 REVERT JUMPDEST POP JUMP JUMPDEST PUSH0 DUP2 CALLDATALOAD SWAP1 POP PUSH2 0x15A3 DUP2 PUSH2 0x157F JUMP JUMPDEST SWAP3 SWAP2 POP POP JUMP JUMPDEST PUSH0 PUSH0 PUSH1 0x40 DUP4 DUP6 SUB SLT ISZERO PUSH2 0x15BF JUMPI PUSH2 0x15BE PUSH2 0x1514 JUMP JUMPDEST JUMPDEST PUSH0 PUSH2 0x15CC DUP6 DUP3 DUP7 ADD PUSH2 0x1562 JUMP JUMPDEST SWAP3 POP POP PUSH1 0x20 PUSH2 0x15DD DUP6 DUP3 DUP7 ADD PUSH2 0x1595 JUMP JUMPDEST SWAP2 POP POP SWAP3 POP SWAP3 SWAP1 POP JUMP JUMPDEST PUSH2 0x15F0 DUP2 PUSH2 0x1576 JUMP JUMPDEST DUP3 MSTORE POP POP JUMP JUMPDEST PUSH0 PUSH1 0x20 DUP3 ADD SWAP1 POP PUSH2 0x1609 PUSH0 DUP4 ADD DUP5 PUSH2 0x15E7 JUMP JUMPDEST SWAP3 SWAP2 POP POP JUMP JUMPDEST PUSH0 PUSH32 0xFFFFFFFF00000000000000000000000000000000000000000000000000000000 DUP3 AND SWAP1 POP SWAP2 SWAP1 POP JUMP JUMPDEST PUSH2 0x1643 DUP2 PUSH2 0x160F JUMP JUMPDEST DUP2 EQ PUSH2 0x164D JUMPI PUSH0 PUSH0 REVERT JUMPDEST POP JUMP JUMPDEST PUSH0 DUP2 CALLDATALOAD SWAP1 POP PUSH2 0x165E DUP2 PUSH2 0x163A JUMP JUMPDEST SWAP3 SWAP2 POP POP JUMP JUMPDEST PUSH0 PUSH1 0x20 DUP3 DUP5 SUB SLT ISZERO PUSH2 0x1679 JUMPI PUSH2 0x1678 PUSH2 0x1514 JUMP JUMPDEST JUMPDEST PUSH0 PUSH2 0x1686 DUP5 DUP3 DUP6 ADD PUSH2 0x1650 JUMP JUMPDEST SWAP2 POP POP SWAP3 SWAP2 POP POP JUMP JUMPDEST PUSH0 DUP2 ISZERO ISZERO SWAP1 POP SWAP2 SWAP1 POP JUMP JUMPDEST PUSH2 0x16A3 DUP2 PUSH2 0x168F JUMP JUMPDEST DUP3 MSTORE POP POP JUMP JUMPDEST PUSH0 PUSH1 0x20 DUP3 ADD SWAP1 POP PUSH2 0x16BC PUSH0 DUP4 ADD DUP5 PUSH2 0x169A JUMP JUMPDEST SWAP3 SWAP2 POP POP JUMP JUMPDEST PUSH0 DUP2 MLOAD SWAP1 POP SWAP2 SWAP1 POP JUMP JUMPDEST PUSH0 DUP3 DUP3 MSTORE PUSH1 0x20 DUP3 ADD SWAP1 POP SWAP3 SWAP2 POP POP JUMP JUMPDEST DUP3 DUP2 DUP4 MCOPY PUSH0 DUP4 DUP4 ADD MSTORE POP POP POP JUMP JUMPDEST PUSH0 PUSH1 0x1F NOT PUSH1 0x1F DUP4 ADD AND SWAP1 POP SWAP2 SWAP1 POP JUMP JUMPDEST PUSH0 PUSH2 0x1704 DUP3 PUSH2 0x16C2 JUMP JUMPDEST PUSH2 0x170E DUP2 DUP6 PUSH2 0x16CC JUMP JUMPDEST SWAP4 POP PUSH2 0x171E DUP2 DUP6 PUSH1 0x20 DUP7 ADD PUSH2 0x16DC JUMP JUMPDEST PUSH2 0x1727 DUP2 PUSH2 0x16EA JUMP JUMPDEST DUP5 ADD SWAP2 POP POP SWAP3 SWAP2 POP POP JUMP JUMPDEST PUSH0 PUSH1 0x20 DUP3 ADD SWAP1 POP DUP2 DUP2 SUB PUSH0 DUP4 ADD MSTORE PUSH2 0x174A DUP2 DUP5 PUSH2 0x16FA JUMP JUMPDEST SWAP1 POP SWAP3 SWAP2 POP POP JUMP JUMPDEST PUSH0 PUSH1 0x20 DUP3 DUP5 SUB SLT ISZERO PUSH2 0x1767 JUMPI PUSH2 0x1766 PUSH2 0x1514 JUMP JUMPDEST JUMPDEST PUSH0 PUSH2 0x1774 DUP5 DUP3 DUP6 ADD PUSH2 0x1595 JUMP JUMPDEST SWAP2 POP POP SWAP3 SWAP2 POP POP JUMP JUMPDEST PUSH0 PUSH0 REVERT JUMPDEST PUSH32 0x4E487B7100000000000000000000000000000000000000000000000000000000 PUSH0 MSTORE PUSH1 0x41 PUSH1 0x4 MSTORE PUSH1 0x24 PUSH0 REVERT JUMPDEST PUSH2 0x17B7 DUP3 PUSH2 0x16EA JUMP JUMPDEST DUP2 ADD DUP2 DUP2 LT PUSH8 0xFFFFFFFFFFFFFFFF DUP3 GT OR ISZERO PUSH2 0x17D6 JUMPI PUSH2 0x17D5 PUSH2 0x1781 JUMP JUMPDEST JUMPDEST DUP1 PUSH1 0x40 MSTORE POP POP POP JUMP JUMPDEST PUSH0 PUSH2 0x17E8 PUSH2 0x150B JUMP JUMPDEST SWAP1 POP PUSH2 0x17F4 DUP3 DUP3 PUSH2 0x17AE JUMP JUMPDEST SWAP2 SWAP1 POP JUMP JUMPDEST PUSH0 PUSH8 0xFFFFFFFFFFFFFFFF DUP3 GT ISZERO PUSH2 0x1813 JUMPI PUSH2 0x1812 PUSH2 0x1781 JUMP JUMPDEST JUMPDEST PUSH1 0x20 DUP3 MUL SWAP1 POP PUSH1 0x20 DUP2 ADD SWAP1 POP SWAP2 SWAP1 POP JUMP JUMPDEST PUSH0 PUSH0 REVERT JUMPDEST PUSH0 PUSH2 0x183A PUSH2 0x1835 DUP5 PUSH2 0x17F9 JUMP JUMPDEST PUSH2 0x17DF JUMP JUMPDEST SWAP1 POP DUP1 DUP4 DUP3 MSTORE PUSH1 0x20 DUP3 ADD SWAP1 POP PUSH1 0x20 DUP5 MUL DUP4 ADD DUP6 DUP2 GT ISZERO PUSH2 0x185D JUMPI PUSH2 0x185C PUSH2 0x1824 JUMP JUMPDEST JUMPDEST DUP4 JUMPDEST DUP2 DUP2 LT ISZERO PUSH2 0x1886 JUMPI DUP1 PUSH2 0x1872 DUP9 DUP3 PUSH2 0x1595 JUMP JUMPDEST DUP5 MSTORE PUSH1 0x20 DUP5 ADD SWAP4 POP POP PUSH1 0x20 DUP2 ADD SWAP1 POP PUSH2 0x185F JUMP JUMPDEST POP POP POP SWAP4 SWAP3 POP POP POP JUMP JUMPDEST PUSH0 DUP3 PUSH1 0x1F DUP4 ADD SLT PUSH2 0x18A4 JUMPI PUSH2 0x18A3 PUSH2 0x177D JUMP JUMPDEST JUMPDEST DUP2 CALLDATALOAD PUSH2 0x18B4 DUP5 DUP3 PUSH1 0x20 DUP7 ADD PUSH2 0x1828 JUMP JUMPDEST SWAP2 POP POP SWAP3 SWAP2 POP POP JUMP JUMPDEST PUSH0 PUSH0 REVERT JUMPDEST PUSH0 PUSH8 0xFFFFFFFFFFFFFFFF DUP3 GT ISZERO PUSH2 0x18DB JUMPI PUSH2 0x18DA PUSH2 0x1781 JUMP JUMPDEST JUMPDEST PUSH2 0x18E4 DUP3 PUSH2 0x16EA JUMP JUMPDEST SWAP1 POP PUSH1 0x20 DUP2 ADD SWAP1 POP SWAP2 SWAP1 POP JUMP JUMPDEST DUP3 DUP2 DUP4 CALLDATACOPY PUSH0 DUP4 DUP4 ADD MSTORE POP POP POP JUMP JUMPDEST PUSH0 PUSH2 0x1911 PUSH2 0x190C DUP5 PUSH2 0x18C1 JUMP JUMPDEST PUSH2 0x17DF JUMP JUMPDEST SWAP1 POP DUP3 DUP2 MSTORE PUSH1 0x20 DUP2 ADD DUP5 DUP5 DUP5 ADD GT ISZERO PUSH2 0x192D JUMPI PUSH2 0x192C PUSH2 0x18BD JUMP JUMPDEST JUMPDEST PUSH2 0x1938 DUP5 DUP3 DUP6 PUSH2 0x18F1 JUMP JUMPDEST POP SWAP4 SWAP3 POP POP POP JUMP JUMPDEST PUSH0 DUP3 PUSH1 0x1F DUP4 ADD SLT PUSH2 0x1954 JUMPI PUSH2 0x1953 PUSH2 0x177D JUMP JUMPDEST JUMPDEST DUP2 CALLDATALOAD PUSH2 0x1964 DUP5 DUP3 PUSH1 0x20 DUP7 ADD PUSH2 0x18FF JUMP JUMPDEST SWAP2 POP POP SWAP3 SWAP2 POP POP JUMP JUMPDEST PUSH0 PUSH0 PUSH0 PUSH0 PUSH0 PUSH1 0xA0 DUP7 DUP9 SUB SLT ISZERO PUSH2 0x1986 JUMPI PUSH2 0x1985 PUSH2 0x1514 JUMP JUMPDEST JUMPDEST PUSH0 PUSH2 0x1993 DUP9 DUP3 DUP10 ADD PUSH2 0x1562 JUMP JUMPDEST SWAP6 POP POP PUSH1 0x20 PUSH2 0x19A4 DUP9 DUP3 DUP10 ADD PUSH2 0x1562 JUMP JUMPDEST SWAP5 POP POP PUSH1 0x40 DUP7 ADD CALLDATALOAD PUSH8 0xFFFFFFFFFFFFFFFF DUP2 GT ISZERO PUSH2 0x19C5 JUMPI PUSH2 0x19C4 PUSH2 0x1518 JUMP JUMPDEST JUMPDEST PUSH2 0x19D1 DUP9 DUP3 DUP10 ADD PUSH2 0x1890 JUMP JUMPDEST SWAP4 POP POP PUSH1 0x60 DUP7 ADD CALLDATALOAD PUSH8 0xFFFFFFFFFFFFFFFF DUP2 GT ISZERO PUSH2 0x19F2 JUMPI PUSH2 0x19F1 PUSH2 0x1518 JUMP JUMPDEST JUMPDEST PUSH2 0x19FE DUP9 DUP3 DUP10 ADD PUSH2 0x1890 JUMP JUMPDEST SWAP3 POP POP PUSH1 0x80 DUP7 ADD CALLDATALOAD PUSH8 0xFFFFFFFFFFFFFFFF DUP2 GT ISZERO PUSH2 0x1A1F JUMPI PUSH2 0x1A1E PUSH2 0x1518 JUMP JUMPDEST JUMPDEST PUSH2 0x1A2B DUP9 DUP3 DUP10 ADD PUSH2 0x1940 JUMP JUMPDEST SWAP2 POP POP SWAP3 SWAP6 POP SWAP3 SWAP6 SWAP1 SWAP4 POP JUMP JUMPDEST PUSH0 PUSH8 0xFFFFFFFFFFFFFFFF DUP3 GT ISZERO PUSH2 0x1A52 JUMPI PUSH2 0x1A51 PUSH2 0x1781 JUMP JUMPDEST JUMPDEST PUSH1 0x20 DUP3 MUL SWAP1 POP PUSH1 0x20 DUP2 ADD SWAP1 POP SWAP2 SWAP1 POP JUMP JUMPDEST PUSH0 PUSH2 0x1A75 PUSH2 0x1A70 DUP5 PUSH2 0x1A38 JUMP JUMPDEST PUSH2 0x17DF JUMP JUMPDEST SWAP1 POP DUP1 DUP4 DUP3 MSTORE PUSH1 0x20 DUP3 ADD SWAP1 POP PUSH1 0x20 DUP5 MUL DUP4 ADD DUP6 DUP2 GT ISZERO PUSH2 0x1A98 JUMPI PUSH2 0x1A97 PUSH2 0x1824 JUMP JUMPDEST JUMPDEST DUP4 JUMPDEST DUP2 DUP2 LT ISZERO PUSH2 0x1AC1 JUMPI DUP1 PUSH2 0x1AAD DUP9 DUP3 PUSH2 0x1562 JUMP JUMPDEST DUP5 MSTORE PUSH1 0x20 DUP5 ADD SWAP4 POP POP PUSH1 0x20 DUP2 ADD SWAP1 POP PUSH2 0x1A9A JUMP JUMPDEST POP POP POP SWAP4 SWAP3 POP POP POP JUMP JUMPDEST PUSH0 DUP3 PUSH1 0x1F DUP4 ADD SLT PUSH2 0x1ADF JUMPI PUSH2 0x1ADE PUSH2 0x177D JUMP JUMPDEST JUMPDEST DUP2 CALLDATALOAD PUSH2 0x1AEF DUP5 DUP3 PUSH1 0x20 DUP7 ADD PUSH2 0x1A63 JUMP JUMPDEST SWAP2 POP POP SWAP3 SWAP2 POP POP JUMP JUMPDEST PUSH0 PUSH0 PUSH1 0x40 DUP4 DUP6 SUB SLT ISZERO PUSH2 0x1B0E JUMPI PUSH2 0x1B0D PUSH2 0x1514 JUMP JUMPDEST JUMPDEST PUSH0 DUP4 ADD CALLDATALOAD PUSH8 0xFFFFFFFFFFFFFFFF DUP2 GT ISZERO PUSH2 0x1B2B JUMPI PUSH2 0x1B2A PUSH2 0x1518 JUMP JUMPDEST JUMPDEST PUSH2 0x1B37 DUP6 DUP3 DUP7 ADD PUSH2 0x1ACB JUMP JUMPDEST SWAP3 POP POP PUSH1 0x20 DUP4 ADD CALLDATALOAD PUSH8 0xFFFFFFFFFFFFFFFF DUP2 GT ISZERO PUSH2 0x1B58 JUMPI PUSH2 0x1B57 PUSH2 0x1518 JUMP JUMPDEST JUMPDEST PUSH2 0x1B64 DUP6 DUP3 DUP7 ADD PUSH2 0x1890 JUMP JUMPDEST SWAP2 POP POP SWAP3 POP SWAP3 SWAP1 POP JUMP JUMPDEST PUSH0 DUP2 MLOAD SWAP1 POP SWAP2 SWAP1 POP JUMP JUMPDEST PUSH0 DUP3 DUP3 MSTORE PUSH1 0x20 DUP3 ADD SWAP1 POP SWAP3 SWAP2 POP POP JUMP JUMPDEST PUSH0 DUP2 SWAP1 POP PUSH1 0x20 DUP3 ADD SWAP1 POP SWAP2 SWAP1 POP JUMP JUMPDEST PUSH2 0x1BA0 DUP2 PUSH2 0x1576 JUMP JUMPDEST DUP3 MSTORE POP POP JUMP JUMPDEST PUSH0 PUSH2 0x1BB1 DUP4 DUP4 PUSH2 0x1B97 JUMP JUMPDEST PUSH1 0x20 DUP4 ADD SWAP1 POP SWAP3 SWAP2 POP POP JUMP JUMPDEST PUSH0 PUSH1 0x20 DUP3 ADD SWAP1 POP SWAP2 SWAP1 POP JUMP JUMPDEST PUSH0 PUSH2 0x1BD3 DUP3 PUSH2 0x1B6E JUMP JUMPDEST PUSH2 0x1BDD DUP2 DUP6 PUSH2 0x1B78 JUMP JUMPDEST SWAP4 POP PUSH2 0x1BE8 DUP4 PUSH2 0x1B88 JUMP JUMPDEST DUP1 PUSH0 JUMPDEST DUP4 DUP2 LT ISZERO PUSH2 0x1C18 JUMPI DUP2 MLOAD PUSH2 0x1BFF DUP9 DUP3 PUSH2 0x1BA6 JUMP JUMPDEST SWAP8 POP PUSH2 0x1C0A DUP4 PUSH2 0x1BBD JUMP JUMPDEST SWAP3 POP POP PUSH1 0x1 DUP2 ADD SWAP1 POP PUSH2 0x1BEB JUMP JUMPDEST POP DUP6 SWAP4 POP POP POP POP SWAP3 SWAP2 POP POP JUMP JUMPDEST PUSH0 PUSH1 0x20 DUP3 ADD SWAP1 POP DUP2 DUP2 SUB PUSH0 DUP4 ADD MSTORE PUSH2 0x1C3D DUP2 DUP5 PUSH2 0x1BC9 JUMP JUMPDEST SWAP1 POP SWAP3 SWAP2 POP POP JUMP JUMPDEST PUSH2 0x1C4E DUP2 PUSH2 0x168F JUMP JUMPDEST DUP2 EQ PUSH2 0x1C58 JUMPI PUSH0 PUSH0 REVERT JUMPDEST POP JUMP JUMPDEST PUSH0 DUP2 CALLDATALOAD SWAP1 POP PUSH2 0x1C69 DUP2 PUSH2 0x1C45 JUMP JUMPDEST SWAP3 SWAP2 POP POP JUMP JUMPDEST PUSH0 PUSH0 PUSH1 0x40 DUP4 DUP6 SUB SLT ISZERO PUSH2 0x1C85 JUMPI PUSH2 0x1C84 PUSH2 0x1514 JUMP JUMPDEST JUMPDEST PUSH0 PUSH2 0x1C92 DUP6 DUP3 DUP7 ADD PUSH2 0x1562 JUMP JUMPDEST SWAP3 POP POP PUSH1 0x20 PUSH2 0x1CA3 DUP6 DUP3 DUP7 ADD PUSH2 0x1C5B JUMP JUMPDEST SWAP2 POP POP SWAP3 POP SWAP3 SWAP1 POP JUMP JUMPDEST PUSH0 PUSH0 PUSH1 0x40 DUP4 DUP6 SUB SLT ISZERO PUSH2 0x1CC3 JUMPI PUSH2 0x1CC2 PUSH2 0x1514 JUMP JUMPDEST JUMPDEST PUSH0 PUSH2 0x1CD0 DUP6 DUP3 DUP7 ADD PUSH2 0x1562 JUMP JUMPDEST SWAP3 POP POP PUSH1 0x20 PUSH2 0x1CE1 DUP6 DUP3 DUP7 ADD PUSH2 0x1562 JUMP JUMPDEST SWAP2 POP POP SWAP3 POP SWAP3 SWAP1 POP JUMP JUMPDEST PUSH0 PUSH0 PUSH0 PUSH0 PUSH0 PUSH1 0xA0 DUP7 DUP9 SUB SLT ISZERO PUSH2 0x1D04 JUMPI PUSH2 0x1D03 PUSH2 0x1514 JUMP JUMPDEST JUMPDEST PUSH0 PUSH2 0x1D11 DUP9 DUP3 DUP10 ADD PUSH2 0x1562 JUMP JUMPDEST SWAP6 POP POP PUSH1 0x20 PUSH2 0x1D22 DUP9 DUP3 DUP10 ADD PUSH2 0x1562 JUMP JUMPDEST SWAP5 POP POP PUSH1 0x40 PUSH2 0x1D33 DUP9 DUP3 DUP10 ADD PUSH2 0x1595 JUMP JUMPDEST SWAP4 POP POP PUSH1 0x60 PUSH2 0x1D44 DUP9 DUP3 DUP10 ADD PUSH2 0x1595 JUMP JUMPDEST SWAP3 POP POP PUSH1 0x80 DUP7 ADD CALLDATALOAD PUSH8 0xFFFFFFFFFFFFFFFF DUP2 GT ISZERO PUSH2 0x1D65 JUMPI PUSH2 0x1D64 PUSH2 0x1518 JUMP JUMPDEST JUMPDEST PUSH2 0x1D71 DUP9 DUP3 DUP10 ADD PUSH2 0x1940 JUMP JUMPDEST SWAP2 POP POP SWAP3 SWAP6 POP SWAP3 SWAP6 SWAP1 SWAP4 POP JUMP JUMPDEST PUSH32 0x455243313135353A2061646472657373207A65726F206973206E6F7420612076 PUSH0 DUP3 ADD MSTORE PUSH32 0x616C6964206F776E657200000000000000000000000000000000000000000000 PUSH1 0x20 DUP3 ADD MSTORE POP JUMP JUMPDEST PUSH0 PUSH2 0x1DD8 PUSH1 0x2A DUP4 PUSH2 0x16CC JUMP JUMPDEST SWAP2 POP PUSH2 0x1DE3 DUP3 PUSH2 0x1D7E JUMP JUMPDEST PUSH1 0x40 DUP3 ADD SWAP1 POP SWAP2 SWAP1 POP JUMP JUMPDEST PUSH0 PUSH1 0x20 DUP3 ADD SWAP1 POP DUP2 DUP2 SUB PUSH0 DUP4 ADD MSTORE PUSH2 0x1E05 DUP2 PUSH2 0x1DCC JUMP JUMPDEST SWAP1 POP SWAP2 SWAP1 POP JUMP JUMPDEST PUSH32 0x4E487B7100000000000000000000000000000000000000000000000000000000 PUSH0 MSTORE PUSH1 0x22 PUSH1 0x4 MSTORE PUSH1 0x24 PUSH0 REVERT JUMPDEST PUSH0 PUSH1 0x2 DUP3 DIV SWAP1 POP PUSH1 0x1 DUP3 AND DUP1 PUSH2 0x1E50 JUMPI PUSH1 0x7F DUP3 AND SWAP2 POP JUMPDEST PUSH1 0x20 DUP3 LT DUP2 SUB PUSH2 0x1E63 JUMPI PUSH2 0x1E62 PUSH2 0x1E0C JUMP JUMPDEST JUMPDEST POP SWAP2 SWAP1 POP JUMP JUMPDEST PUSH0 DUP2 SWAP1 POP SWAP3 SWAP2 POP POP JUMP JUMPDEST PUSH0 PUSH2 0x1E7D DUP3 PUSH2 0x16C2 JUMP JUMPDEST PUSH2 0x1E87 DUP2 DUP6 PUSH2 0x1E69 JUMP JUMPDEST SWAP4 POP PUSH2 0x1E97 DUP2 DUP6 PUSH1 0x20 DUP7 ADD PUSH2 0x16DC JUMP JUMPDEST DUP1 DUP5 ADD SWAP2 POP POP SWAP3 SWAP2 POP POP JUMP JUMPDEST PUSH0 PUSH2 0x1EAE DUP3 DUP6 PUSH2 0x1E73 JUMP JUMPDEST SWAP2 POP PUSH2 0x1EBA DUP3 DUP5 PUSH2 0x1E73 JUMP JUMPDEST SWAP2 POP DUP2 SWAP1 POP SWAP4 SWAP3 POP POP POP JUMP JUMPDEST PUSH32 0x455243313135353A2063616C6C6572206973206E6F7420746F6B656E206F776E PUSH0 DUP3 ADD MSTORE PUSH32 0x6572206E6F7220617070726F7665640000000000000000000000000000000000 PUSH1 0x20 DUP3 ADD MSTORE POP JUMP JUMPDEST PUSH0 PUSH2 0x1F20 PUSH1 0x2F DUP4 PUSH2 0x16CC JUMP JUMPDEST SWAP2 POP PUSH2 0x1F2B DUP3 PUSH2 0x1EC6 JUMP JUMPDEST PUSH1 0x40 DUP3 ADD SWAP1 POP SWAP2 SWAP1 POP JUMP JUMPDEST PUSH0 PUSH1 0x20 DUP3 ADD SWAP1 POP DUP2 DUP2 SUB PUSH0 DUP4 ADD MSTORE PUSH2 0x1F4D DUP2 PUSH2 0x1F14 JUMP JUMPDEST SWAP1 POP SWAP2 SWAP1 POP JUMP JUMPDEST PUSH32 0x455243313135353A2069647320616E6420616D6F756E7473206C656E67746820 PUSH0 DUP3 ADD MSTORE PUSH32 0x6D69736D61746368000000000000000000000000000000000000000000000000 PUSH1 0x20 DUP3 ADD MSTORE POP JUMP JUMPDEST PUSH0 PUSH2 0x1FAE PUSH1 0x28 DUP4 PUSH2 0x16CC JUMP JUMPDEST SWAP2 POP PUSH2 0x1FB9 DUP3 PUSH2 0x1F54 JUMP JUMPDEST PUSH1 0x40 DUP3 ADD SWAP1 POP SWAP2 SWAP1 POP JUMP JUMPDEST PUSH0 PUSH1 0x20 DUP3 ADD SWAP1 POP DUP2 DUP2 SUB PUSH0 DUP4 ADD MSTORE PUSH2 0x1FDB DUP2 PUSH2 0x1FA2 JUMP JUMPDEST SWAP1 POP SWAP2 SWAP1 POP JUMP JUMPDEST PUSH32 0x455243313135353A207472616E7366657220746F20746865207A65726F206164 PUSH0 DUP3 ADD MSTORE PUSH32 0x6472657373000000000000000000000000000000000000000000000000000000 PUSH1 0x20 DUP3 ADD MSTORE POP JUMP JUMPDEST PUSH0 PUSH2 0x203C PUSH1 0x25 DUP4 PUSH2 0x16CC JUMP JUMPDEST SWAP2 POP PUSH2 0x2047 DUP3 PUSH2 0x1FE2 JUMP JUMPDEST PUSH1 0x40 DUP3 ADD SWAP1 POP SWAP2 SWAP1 POP JUMP JUMPDEST PUSH0 PUSH1 0x20 DUP3 ADD SWAP1 POP DUP2 DUP2 SUB PUSH0 DUP4 ADD MSTORE PUSH2 0x2069 DUP2 PUSH2 0x2030 JUMP JUMPDEST SWAP1 POP SWAP2 SWAP1 POP JUMP JUMPDEST PUSH32 0x4E487B7100000000000000000000000000000000000000000000000000000000 PUSH0 MSTORE PUSH1 0x32 PUSH1 0x4 MSTORE PUSH1 0x24 PUSH0 REVERT JUMPDEST PUSH32 0x455243313135353A20696E73756666696369656E742062616C616E636520666F PUSH0 DUP3 ADD MSTORE PUSH32 0x72207472616E7366657200000000000000000000000000000000000000000000 PUSH1 0x20 DUP3 ADD MSTORE POP JUMP JUMPDEST PUSH0 PUSH2 0x20F7 PUSH1 0x2A DUP4 PUSH2 0x16CC JUMP JUMPDEST SWAP2 POP PUSH2 0x2102 DUP3 PUSH2 0x209D JUMP JUMPDEST PUSH1 0x40 DUP3 ADD SWAP1 POP SWAP2 SWAP1 POP JUMP JUMPDEST PUSH0 PUSH1 0x20 DUP3 ADD SWAP1 POP DUP2 DUP2 SUB PUSH0 DUP4 ADD MSTORE PUSH2 0x2124 DUP2 PUSH2 0x20EB JUMP JUMPDEST SWAP1 POP SWAP2 SWAP1 POP JUMP JUMPDEST PUSH32 0x4E487B7100000000000000000000000000000000000000000000000000000000 PUSH0 MSTORE PUSH1 0x11 PUSH1 0x4 MSTORE PUSH1 0x24 PUSH0 REVERT JUMPDEST PUSH0 PUSH2 0x2162 DUP3 PUSH2 0x1576 JUMP JUMPDEST SWAP2 POP PUSH2 0x216D DUP4 PUSH2 0x1576 JUMP JUMPDEST SWAP3 POP DUP3 DUP3 ADD SWAP1 POP DUP1 DUP3 GT ISZERO PUSH2 0x2185 JUMPI PUSH2 0x2184 PUSH2 0x212B JUMP JUMPDEST JUMPDEST SWAP3 SWAP2 POP POP JUMP JUMPDEST PUSH0 PUSH1 0x40 DUP3 ADD SWAP1 POP DUP2 DUP2 SUB PUSH0 DUP4 ADD MSTORE PUSH2 0x21A3 DUP2 DUP6 PUSH2 0x1BC9 JUMP JUMPDEST SWAP1 POP DUP2 DUP2 SUB PUSH1 0x20 DUP4 ADD MSTORE PUSH2 0x21B7 DUP2 DUP5 PUSH2 0x1BC9 JUMP JUMPDEST SWAP1 POP SWAP4 SWAP3 POP POP POP JUMP JUMPDEST PUSH32 0x455243313135353A206163636F756E747320616E6420696473206C656E677468 PUSH0 DUP3 ADD MSTORE PUSH32 0x206D69736D617463680000000000000000000000000000000000000000000000 PUSH1 0x20 DUP3 ADD MSTORE POP JUMP JUMPDEST PUSH0 PUSH2 0x221A PUSH1 0x29 DUP4 PUSH2 0x16CC JUMP JUMPDEST SWAP2 POP PUSH2 0x2225 DUP3 PUSH2 0x21C0 JUMP JUMPDEST PUSH1 0x40 DUP3 ADD SWAP1 POP SWAP2 SWAP1 POP JUMP JUMPDEST PUSH0 PUSH1 0x20 DUP3 ADD SWAP1 POP DUP2 DUP2 SUB PUSH0 DUP4 ADD MSTORE PUSH2 0x2247 DUP2 PUSH2 0x220E JUMP JUMPDEST SWAP1 POP SWAP2 SWAP1 POP JUMP JUMPDEST PUSH32 0x455243313135353A2073657474696E6720617070726F76616C20737461747573 PUSH0 DUP3 ADD MSTORE PUSH32 0x20666F722073656C660000000000000000000000000000000000000000000000 PUSH1 0x20 DUP3 ADD MSTORE POP JUMP JUMPDEST PUSH0 PUSH2 0x22A8 PUSH1 0x29 DUP4 PUSH2 0x16CC JUMP JUMPDEST SWAP2 POP PUSH2 0x22B3 DUP3 PUSH2 0x224E JUMP JUMPDEST PUSH1 0x40 DUP3 ADD SWAP1 POP SWAP2 SWAP1 POP JUMP JUMPDEST PUSH0 PUSH1 0x20 DUP3 ADD SWAP1 POP DUP2 DUP2 SUB PUSH0 DUP4 ADD MSTORE PUSH2 0x22D5 DUP2 PUSH2 0x229C JUMP JUMPDEST SWAP1 POP SWAP2 SWAP1 POP JUMP JUMPDEST PUSH0 PUSH1 0x40 DUP3 ADD SWAP1 POP PUSH2 0x22EF PUSH0 DUP4 ADD DUP6 PUSH2 0x15E7 JUMP JUMPDEST PUSH2 0x22FC PUSH1 0x20 DUP4 ADD DUP5 PUSH2 0x15E7 JUMP JUMPDEST SWAP4 SWAP3 POP POP POP JUMP JUMPDEST PUSH0 PUSH2 0x230D DUP3 PUSH2 0x1576 JUMP JUMPDEST SWAP2 POP PUSH32 0xFFFFFFFFFFFFFFFFFFFFFFFFFFFFFFFFFFFFFFFFFFFFFFFFFFFFFFFFFFFFFFFF DUP3 SUB PUSH2 0x233F JUMPI PUSH2 0x233E PUSH2 0x212B JUMP JUMPDEST JUMPDEST PUSH1 0x1 DUP3 ADD SWAP1 POP SWAP2 SWAP1 POP JUMP JUMPDEST PUSH32 0x4E487B7100000000000000000000000000000000000000000000000000000000 PUSH0 MSTORE PUSH1 0x12 PUSH1 0x4 MSTORE PUSH1 0x24 PUSH0 REVERT JUMPDEST PUSH0 PUSH2 0x2381 DUP3 PUSH2 0x1576 JUMP JUMPDEST SWAP2 POP PUSH2 0x238C DUP4 PUSH2 0x1576 JUMP JUMPDEST SWAP3 POP DUP3 PUSH2 0x239C JUMPI PUSH2 0x239B PUSH2 0x234A JUMP JUMPDEST JUMPDEST DUP3 DUP3 DIV SWAP1 POP SWAP3 SWAP2 POP POP JUMP JUMPDEST PUSH0 PUSH2 0x23B1 DUP3 PUSH2 0x1576 JUMP JUMPDEST SWAP2 POP PUSH2 0x23BC DUP4 PUSH2 0x1576 JUMP JUMPDEST SWAP3 POP DUP3 DUP3 SUB SWAP1 POP DUP2 DUP2 GT ISZERO PUSH2 0x23D4 JUMPI PUSH2 0x23D3 PUSH2 0x212B JUMP JUMPDEST JUMPDEST SWAP3 SWAP2 POP POP JUMP JUMPDEST PUSH0 PUSH2 0x23E4 DUP3 PUSH2 0x1576 JUMP JUMPDEST SWAP2 POP PUSH2 0x23EF DUP4 PUSH2 0x1576 JUMP JUMPDEST SWAP3 POP DUP3 PUSH2 0x23FF JUMPI PUSH2 0x23FE PUSH2 0x234A JUMP JUMPDEST JUMPDEST DUP3 DUP3 MOD SWAP1 POP SWAP3 SWAP2 POP POP JUMP JUMPDEST PUSH2 0x2413 DUP2 PUSH2 0x153B JUMP JUMPDEST DUP3 MSTORE POP POP JUMP JUMPDEST PUSH0 DUP2 MLOAD SWAP1 POP SWAP2 SWAP1 POP JUMP JUMPDEST PUSH0 DUP3 DUP3 MSTORE PUSH1 0x20 DUP3 ADD SWAP1 POP SWAP3 SWAP2 POP POP JUMP JUMPDEST PUSH0 PUSH2 0x243D DUP3 PUSH2 0x2419 JUMP JUMPDEST PUSH2 0x2447 DUP2 DUP6 PUSH2 0x2423 JUMP JUMPDEST SWAP4 POP PUSH2 0x2457 DUP2 DUP6 PUSH1 0x20 DUP7 ADD PUSH2 0x16DC JUMP JUMPDEST PUSH2 0x2460 DUP2 PUSH2 0x16EA JUMP JUMPDEST DUP5 ADD SWAP2 POP POP SWAP3 SWAP2 POP POP JUMP JUMPDEST PUSH0 PUSH1 0xA0 DUP3 ADD SWAP1 POP PUSH2 0x247E PUSH0 DUP4 ADD DUP9 PUSH2 0x240A JUMP JUMPDEST PUSH2 0x248B PUSH1 0x20 DUP4 ADD DUP8 PUSH2 0x240A JUMP JUMPDEST DUP2 DUP2 SUB PUSH1 0x40 DUP4 ADD MSTORE PUSH2 0x249D DUP2 DUP7 PUSH2 0x1BC9 JUMP JUMPDEST SWAP1 POP DUP2 DUP2 SUB PUSH1 0x60 DUP4 ADD MSTORE PUSH2 0x24B1 DUP2 DUP6 PUSH2 0x1BC9 JUMP JUMPDEST SWAP1 POP DUP2 DUP2 SUB PUSH1 0x80 DUP4 ADD MSTORE PUSH2 0x24C5 DUP2 DUP5 PUSH2 0x2433 JUMP JUMPDEST SWAP1 POP SWAP7 SWAP6 POP POP POP POP POP POP JUMP JUMPDEST PUSH0 DUP2 MLOAD SWAP1 POP PUSH2 0x24DF DUP2 PUSH2 0x163A JUMP JUMPDEST SWAP3 SWAP2 POP POP JUMP JUMPDEST PUSH0 PUSH1 0x20 DUP3 DUP5 SUB SLT ISZERO PUSH2 0x24FA JUMPI PUSH2 0x24F9 PUSH2 0x1514 JUMP JUMPDEST JUMPDEST PUSH0 PUSH2 0x2507 DUP5 DUP3 DUP6 ADD PUSH2 0x24D1 JUMP JUMPDEST SWAP2 POP POP SWAP3 SWAP2 POP POP JUMP JUMPDEST PUSH0 DUP2 PUSH1 0xE0 SHR SWAP1 POP SWAP2 SWAP1 POP JUMP JUMPDEST PUSH0 PUSH1 0x3 RETURNDATASIZE GT ISZERO PUSH2 0x2538 JUMPI PUSH1 0x4 PUSH0 PUSH0 RETURNDATACOPY PUSH2 0x2535 PUSH0 MLOAD PUSH2 0x2510 JUMP JUMPDEST SWAP1 POP JUMPDEST SWAP1 JUMP JUMPDEST PUSH0 PUSH1 0x44 RETURNDATASIZE LT PUSH2 0x25C7 JUMPI PUSH2 0x254C PUSH2 0x150B JUMP JUMPDEST PUSH1 0x4 RETURNDATASIZE SUB PUSH1 0x4 DUP3 RETURNDATACOPY DUP1 MLOAD RETURNDATASIZE PUSH1 0x24 DUP3 ADD GT PUSH8 0xFFFFFFFFFFFFFFFF DUP3 GT OR ISZERO PUSH2 0x2574 JUMPI POP POP PUSH2 0x25C7 JUMP JUMPDEST DUP1 DUP3 ADD DUP1 MLOAD PUSH8 0xFFFFFFFFFFFFFFFF DUP2 GT ISZERO PUSH2 0x2592 JUMPI POP POP POP POP PUSH2 0x25C7 JUMP JUMPDEST DUP1 PUSH1 0x20 DUP4 ADD ADD PUSH1 0x4 RETURNDATASIZE SUB DUP6 ADD DUP2 GT ISZERO PUSH2 0x25AF JUMPI POP POP POP POP POP PUSH2 0x25C7 JUMP JUMPDEST PUSH2 0x25BE DUP3 PUSH1 0x20 ADD DUP6 ADD DUP7 PUSH2 0x17AE JUMP JUMPDEST DUP3 SWAP6 POP POP POP POP POP POP JUMPDEST SWAP1 JUMP JUMPDEST PUSH32 0x455243313135353A207472616E7366657220746F206E6F6E2D45524331313535 PUSH0 DUP3 ADD MSTORE PUSH32 0x526563656976657220696D706C656D656E746572000000000000000000000000 PUSH1 0x20 DUP3 ADD MSTORE POP JUMP JUMPDEST PUSH0 PUSH2 0x2624 PUSH1 0x34 DUP4 PUSH2 0x16CC JUMP JUMPDEST SWAP2 POP PUSH2 0x262F DUP3 PUSH2 0x25CA JUMP JUMPDEST PUSH1 0x40 DUP3 ADD SWAP1 POP SWAP2 SWAP1 POP JUMP JUMPDEST PUSH0 PUSH1 0x20 DUP3 ADD SWAP1 POP DUP2 DUP2 SUB PUSH0 DUP4 ADD MSTORE PUSH2 0x2651 DUP2 PUSH2 0x2618 JUMP JUMPDEST SWAP1 POP SWAP2 SWAP1 POP JUMP JUMPDEST PUSH32 0x455243313135353A204552433131353552656365697665722072656A65637465 PUSH0 DUP3 ADD MSTORE PUSH32 0x6420746F6B656E73000000000000000000000000000000000000000000000000 PUSH1 0x20 DUP3 ADD MSTORE POP JUMP JUMPDEST PUSH0 PUSH2 0x26B2 PUSH1 0x28 DUP4 PUSH2 0x16CC JUMP JUMPDEST SWAP2 POP PUSH2 0x26BD DUP3 PUSH2 0x2658 JUMP JUMPDEST PUSH1 0x40 DUP3 ADD SWAP1 POP SWAP2 SWAP1 POP JUMP JUMPDEST PUSH0 PUSH1 0x20 DUP3 ADD SWAP1 POP DUP2 DUP2 SUB PUSH0 DUP4 ADD MSTORE PUSH2 0x26DF DUP2 PUSH2 0x26A6 JUMP JUMPDEST SWAP1 POP SWAP2 SWAP1 POP JUMP JUMPDEST PUSH0 PUSH1 0xA0 DUP3 ADD SWAP1 POP PUSH2 0x26F9 PUSH0 DUP4 ADD DUP9 PUSH2 0x240A JUMP JUMPDEST PUSH2 0x2706 PUSH1 0x20 DUP4 ADD DUP8 PUSH2 0x240A JUMP JUMPDEST PUSH2 0x2713 PUSH1 0x40 DUP4 ADD DUP7 PUSH2 0x15E7 JUMP JUMPDEST PUSH2 0x2720 PUSH1 0x60 DUP4 ADD DUP6 PUSH2 0x15E7 JUMP JUMPDEST DUP2 DUP2 SUB PUSH1 0x80 DUP4 ADD MSTORE PUSH2 0x2732 DUP2 DUP5 PUSH2 0x2433 JUMP JUMPDEST SWAP1 POP SWAP7 SWAP6 POP POP POP POP POP POP JUMP INVALID PUSH10 0x7066733A2F2F516D6553 PUSH11 0x53696E4870506E6D586D73 PUSH17 0x4D6A776958794E367A533445397A636361 PUSH19 0x694752336A7863615774712FA2646970667358 0x22 SLT KECCAK256 CALLER DUP5 PUSH20 0xA6828ED29CABA4B763866DAAEDEAB8C1B22BA095 JUMPDEST RETURN 0xB8 LOG3 0xE6 0xD9 0x4B BLOBHASH PUSH6 0x64736F6C6343 STOP ADDMOD SHR STOP CALLER "
		},
		"gasEstimates": {
			"creation": {
				"codeDepositCost": "2030800",
				"executionCost": "infinite",
				"totalCost": "infinite"
			},
			"external": {
				"BLUNT_SWORD()": "370",
				"COPPER()": "392",
				"DEATH_STING()": "370",
				"GOLD()": "414",
				"SILVER()": "369",
				"balanceOf(address,uint256)": "infinite",
				"balanceOfBatch(address[],uint256[])": "infinite",
				"isApprovedForAll(address,address)": "infinite",
				"name()": "infinite",
				"safeBatchTransferFrom(address,address,uint256[],uint256[],bytes)": "infinite",
				"safeTransferFrom(address,address,uint256,uint256,bytes)": "infinite",
				"setApprovalForAll(address,bool)": "infinite",
				"supportsInterface(bytes4)": "767",
				"symbol()": "infinite",
				"uri(uint256)": "infinite"
			},
			"internal": {
				"_baseURI()": "infinite"
			}
		},
		"methodIdentifiers": {
			"BLUNT_SWORD()": "217ffdd3",
			"COPPER()": "90f5f0cd",
			"DEATH_STING()": "67998f38",
			"GOLD()": "3e4bee38",
			"SILVER()": "e3e55f08",
			"balanceOf(address,uint256)": "00fdd58e",
			"balanceOfBatch(address[],uint256[])": "4e1273f4",
			"isApprovedForAll(address,address)": "e985e9c5",
			"name()": "06fdde03",
			"safeBatchTransferFrom(address,address,uint256[],uint256[],bytes)": "2eb2c2d6",
			"safeTransferFrom(address,address,uint256,uint256,bytes)": "f242432a",
			"setApprovalForAll(address,bool)": "a22cb465",
			"supportsInterface(bytes4)": "01ffc9a7",
			"symbol()": "95d89b41",
			"uri(uint256)": "0e89341c"
		}
	},
	"abi": [
		{
			"inputs": [],
			"stateMutability": "nonpayable",
			"type": "constructor"
		},
		{
			"anonymous": false,
			"inputs": [
				{
					"indexed": true,
					"internalType": "address",
					"name": "account",
					"type": "address"
				},
				{
					"indexed": true,
					"internalType": "address",
					"name": "operator",
					"type": "address"
				},
				{
					"indexed": false,
					"internalType": "bool",
					"name": "approved",
					"type": "bool"
				}
			],
			"name": "ApprovalForAll",
			"type": "event"
		},
		{
			"anonymous": false,
			"inputs": [
				{
					"indexed": true,
					"internalType": "address",
					"name": "operator",
					"type": "address"
				},
				{
					"indexed": true,
					"internalType": "address",
					"name": "from",
					"type": "address"
				},
				{
					"indexed": true,
					"internalType": "address",
					"name": "to",
					"type": "address"
				},
				{
					"indexed": false,
					"internalType": "uint256[]",
					"name": "ids",
					"type": "uint256[]"
				},
				{
					"indexed": false,
					"internalType": "uint256[]",
					"name": "values",
					"type": "uint256[]"
				}
			],
			"name": "TransferBatch",
			"type": "event"
		},
		{
			"anonymous": false,
			"inputs": [
				{
					"indexed": true,
					"internalType": "address",
					"name": "operator",
					"type": "address"
				},
				{
					"indexed": true,
					"internalType": "address",
					"name": "from",
					"type": "address"
				},
				{
					"indexed": true,
					"internalType": "address",
					"name": "to",
					"type": "address"
				},
				{
					"indexed": false,
					"internalType": "uint256",
					"name": "id",
					"type": "uint256"
				},
				{
					"indexed": false,
					"internalType": "uint256",
					"name": "value",
					"type": "uint256"
				}
			],
			"name": "TransferSingle",
			"type": "event"
		},
		{
			"anonymous": false,
			"inputs": [
				{
					"indexed": false,
					"internalType": "string",
					"name": "value",
					"type": "string"
				},
				{
					"indexed": true,
					"internalType": "uint256",
					"name": "id",
					"type": "uint256"
				}
			],
			"name": "URI",
			"type": "event"
		},
		{
			"inputs": [],
			"name": "BLUNT_SWORD",
			"outputs": [
				{
					"internalType": "uint256",
					"name": "",
					"type": "uint256"
				}
			],
			"stateMutability": "view",
			"type": "function"
		},
		{
			"inputs": [],
			"name": "COPPER",
			"outputs": [
				{
					"internalType": "uint256",
					"name": "",
					"type": "uint256"
				}
			],
			"stateMutability": "view",
			"type": "function"
		},
		{
			"inputs": [],
			"name": "DEATH_STING",
			"outputs": [
				{
					"internalType": "uint256",
					"name": "",
					"type": "uint256"
				}
			],
			"stateMutability": "view",
			"type": "function"
		},
		{
			"inputs": [],
			"name": "GOLD",
			"outputs": [
				{
					"internalType": "uint256",
					"name": "",
					"type": "uint256"
				}
			],
			"stateMutability": "view",
			"type": "function"
		},
		{
			"inputs": [],
			"name": "SILVER",
			"outputs": [
				{
					"internalType": "uint256",
					"name": "",
					"type": "uint256"
				}
			],
			"stateMutability": "view",
			"type": "function"
		},
		{
			"inputs": [
				{
					"internalType": "address",
					"name": "account",
					"type": "address"
				},
				{
					"internalType": "uint256",
					"name": "id",
					"type": "uint256"
				}
			],
			"name": "balanceOf",
			"outputs": [
				{
					"internalType": "uint256",
					"name": "",
					"type": "uint256"
				}
			],
			"stateMutability": "view",
			"type": "function"
		},
		{
			"inputs": [
				{
					"internalType": "address[]",
					"name": "accounts",
					"type": "address[]"
				},
				{
					"internalType": "uint256[]",
					"name": "ids",
					"type": "uint256[]"
				}
			],
			"name": "balanceOfBatch",
			"outputs": [
				{
					"internalType": "uint256[]",
					"name": "",
					"type": "uint256[]"
				}
			],
			"stateMutability": "view",
			"type": "function"
		},
		{
			"inputs": [
				{
					"internalType": "address",
					"name": "account",
					"type": "address"
				},
				{
					"internalType": "address",
					"name": "operator",
					"type": "address"
				}
			],
			"name": "isApprovedForAll",
			"outputs": [
				{
					"internalType": "bool",
					"name": "",
					"type": "bool"
				}
			],
			"stateMutability": "view",
			"type": "function"
		},
		{
			"inputs": [],
			"name": "name",
			"outputs": [
				{
					"internalType": "string",
					"name": "",
					"type": "string"
				}
			],
			"stateMutability": "view",
			"type": "function"
		},
		{
			"inputs": [
				{
					"internalType": "address",
					"name": "from",
					"type": "address"
				},
				{
					"internalType": "address",
					"name": "to",
					"type": "address"
				},
				{
					"internalType": "uint256[]",
					"name": "ids",
					"type": "uint256[]"
				},
				{
					"internalType": "uint256[]",
					"name": "amounts",
					"type": "uint256[]"
				},
				{
					"internalType": "bytes",
					"name": "data",
					"type": "bytes"
				}
			],
			"name": "safeBatchTransferFrom",
			"outputs": [],
			"stateMutability": "nonpayable",
			"type": "function"
		},
		{
			"inputs": [
				{
					"internalType": "address",
					"name": "from",
					"type": "address"
				},
				{
					"internalType": "address",
					"name": "to",
					"type": "address"
				},
				{
					"internalType": "uint256",
					"name": "id",
					"type": "uint256"
				},
				{
					"internalType": "uint256",
					"name": "amount",
					"type": "uint256"
				},
				{
					"internalType": "bytes",
					"name": "data",
					"type": "bytes"
				}
			],
			"name": "safeTransferFrom",
			"outputs": [],
			"stateMutability": "nonpayable",
			"type": "function"
		},
		{
			"inputs": [
				{
					"internalType": "address",
					"name": "operator",
					"type": "address"
				},
				{
					"internalType": "bool",
					"name": "approved",
					"type": "bool"
				}
			],
			"name": "setApprovalForAll",
			"outputs": [],
			"stateMutability": "nonpayable",
			"type": "function"
		},
		{
			"inputs": [
				{
					"internalType": "bytes4",
					"name": "interfaceId",
					"type": "bytes4"
				}
			],
			"name": "supportsInterface",
			"outputs": [
				{
					"internalType": "bool",
					"name": "",
					"type": "bool"
				}
			],
			"stateMutability": "view",
			"type": "function"
		},
		{
			"inputs": [],
			"name": "symbol",
			"outputs": [
				{
					"internalType": "string",
					"name": "",
					"type": "string"
				}
			],
			"stateMutability": "view",
			"type": "function"
		},
		{
			"inputs": [
				{
					"internalType": "uint256",
					"name": "id",
					"type": "uint256"
				}
			],
			"name": "uri",
			"outputs": [
				{
					"internalType": "string",
					"name": "",
					"type": "string"
				}
			],
			"stateMutability": "view",
			"type": "function"
		}
	]
}